:1000000000000420B5020000DD020000DF02000055
:10001000E1020000E3020000E50200000000000031
:10002000000000000000000000000000E7020000E7
:10003000E902000000000000EB020000ED020000F9
:10004000F11C00004D35000045190000EF020000D2
:10005000EF020000EF020000EF020000EF020000DC
:10006000EF020000EF020000EF020000EF020000CC
:10007000EF020000EF020000EF020000EF020000BC
:10008000EF020000EF020000EF020000EF020000AC
:10009000EF020000EF020000EF020000EF0200009C
:1000A000EF020000EF020000EF020000EF0200008C
:1000B000EF020000EF02000000000000000000005E
:1000C000EF020000EF020000EF020000EF0200006C
:1000D000694A0000EF020000EF020000EF0200009A
:1000E000EF020000EF020000EF020000EF0200004C
:1000F00000000000EF02000000000000000000000F
:1001000000000000000000000000000000000000EF
:1001100000000000000000000000000000000000DF
:1001200000000000000000000000000000000000CF
:1001300000000000000000000000000000000000BF
:1001400000000000000000000000000000000000AF
:10015000000000000000000000000000000000009F
:10016000000000000000000000000000000000008F
:10017000000000000000000000000000000000007F
:10018000000000000000000000000000000000006F
:10019000000000000000000000000000000000005F
:1001A000000000000000000000000000000000004F
:1001B000000000000000000000000000000000003F
:1001C000000000000000000000000000000000002F
:1001D000000000000000000000000000000000001F
:1001E000000000000000000000000000000000000F
:1001F00000000000000000000000000000000000FF
:1002000010B5054C237833B9044B13B10448AFF350
:1002100000800123237010BD0002002000000000B8
:10022000E896000008B5034B1BB103490348AFF340
:10023000008008BD0000000004020020E8960000D5
:10024000154B002B08BF134B9D46A3F5803A0021A8
:100250008B460F461348144A121A05F064FB0F4BE5
:10026000002B00D098470E4B002B00D09847002061
:10027000002104000D000D48002802D00C48AFF307
:10028000008005F0D5FA2000290000F0C7FD05F038
:10029000A9FA00BF000008000000042000000000D0
:1002A00000000000000200205017002000000000A5
:1002B000000000000649074A074B9B1A03DD043B78
:1002C000C858D050FBDC00F023F8FFF7B9FF00005E
:1002D000F49600000000002000020020FEE7FEE788
:1002E000FEE7FEE7FEE7FEE7FEE7FEE7FEE7FEE7E6
:1002F000054B1B68082B01BF044B1868B0FA80F04F
:10030000400918BF00207047300100103401001070
:1003100008B5FFF7EDFF40B14FF080430022C3F86E
:100320000C21C3F81021C3F83825FFF7E1FF00289E
:1003300046D04FF080523A4BD2F80414C3F820153F
:10034000D2F80814C3F82415D2F80C14C3F82815F1
:10035000D2F81014C3F82C15D2F81414C3F83015C1
:10036000D2F81814C3F83415D2F81C14C3F8401589
:10037000D2F82014C3F84415D2F82414C3F8481551
:10038000D2F82814C3F84C15D2F82C14C3F8501521
:10039000D2F83014C3F85415D2F83414C3F86015E9
:1003A000D2F83814C3F86415D2F83C14C3F86815B1
:1003B000D2F84014C3F86C15D2F84424C3F8702561
:1003C000FFF796FF10B1174B174A1A60FFF790FF1F
:1003D00018B1164BFB22C3F81825FFF789FF48B167
:1003E0001349144B0A681B6822F00F0203F00F0335
:1003F00013430B60FFF77CFF18B10F4B4FF40072F3
:100400001A600E4AD2F8883043F47003C2F888307C
:10041000BFF34F8FBFF36F8F094B0A4A1A6008BDB5
:1004200000C000408C5600404881030000F00040AE
:10043000E40E0040580200104096024000ED00E03B
:10044000000000200090D003F0B54FF0000C0D46E6
:1004500004786B1A0CB19A4201D8D8B2F0BD05F8F5
:1004600001CB00F1030E07463B1A17F8014BDBB234
:1004700014B1774502D102231844E9E715F8013C8D
:100480001B01DCB205F8014C17F8013CA3F1300662
:10049000F6B2092E04D844EA060305F8013CE3E766
:1004A000A3F16106052E02D8573B2343F5E7A3F1DC
:1004B0004106052ED8D8373BF7E710B501380121A2
:1004C00000220A2410F8013F13B901FB02F010BD0D
:1004D0002D2B16BF303B494204FB0232F2E710B528
:1004E000FFF7B2FF0B1801EB5000814200D110BDA5
:1004F0000A7813F8014D01F8014B1A70F5E7000076
:10050000012937B50C46154604D003291AD00B46ED
:100510001B4A0CE01B4B1B688BB11B4A1B48072175
:1005200000F012FE1A4B1B7833B11A4B1A4A1748C7
:10053000072100F009FE16E0164B184AF7E7154BA5
:10054000174AF4E701AA1749A86805F0EFFCA0B123
:100550001549686805F059FD38B90D4B01221A702C
:10056000084B019A1A6003B030BD1049686805F065
:100570004CFD10B9064B1870F2E723460C4AD6E73B
:100580000B7B00006C0A0020927A0000E47B0000E4
:10059000680A00205A7B0000A77A0000B57A0000A4
:1005A000C47A0000CF7A0000637F0000D37A000095
:1005B000D77A000001F02FBC01F030BC01F04FBC35
:1005C000012907B50B46104609D0022913D00F4A5E
:1005D0000F48072103B05DF804EB00F0B5BD0D4AEC
:1005E0000B48D3789278009207210B4A00F0ACFDBB
:1005F00003B05DF804FB0A4640680849FFF76FFF47
:10060000064803B05DF804EB01F0CBBB0B7B0000A8
:10061000E47B0000040000205B7B0000060000205B
:10062000012907B50B46104609D0022913D00F4AFD
:100630000F48072103B05DF804EB00F085BD0D4ABB
:100640000B4853781278009207210B4A00F07CFD8A
:1006500003B05DF804FB0A4640680649FFF73FFF18
:10066000044803B05DF804EB01F097BB0B7B00007E
:10067000E47B0000040000205B7B0000012910B532
:100680000B4609D101F093FB044B054A05480721AD
:10069000BDE8104000F058BD034AF7E75A7B000060
:1006A000337B0000E47B00000B7B0000012970B568
:1006B0000B46104603D0022917D0114A0FE0114E05
:1006C000114D002433192A46DB7A10480721013CDA
:1006D00000F03AFD14F1080FF4D10D4B0D4A0B4810
:1006E0000721BDE8704000F02FBD40680A4908228C
:1006F000FFF7F5FE0848BDE8704001F050BB00BFB1
:100700000B7B0000040000202E7B0000E47B000037
:100710005A7B0000587B000008000020022970B5B9
:100720000B46144622D11249506805F06EFC20B9E0
:100730000120BDE8704001F0BBBB0E49606805F0C8
:1007400064FC0028F5D00C49606805F05EFC0546A5
:1007500020B9012001F0ACFB2846EAE76368074AAC
:1007600007480721BDE8704000F0EEBC054AF7E7F6
:10077000887B0000917B0000977B00009C7B000041
:10078000E47B00000B7B000070B50D460B4904466E
:1007900005F03BFC20B901202B46BDE8704018470E
:1007A0000749204605F031FC0028F5D02346054ACC
:1007B00005480721BDE8704000F0C6BC637F00001B
:1007C000D37A0000417B0000E47B000001290B4646
:1007D00003D002290DD0094A07E0094B094A197BC9
:1007E000094B002908BF1346084A0948072100F0B1
:1007F000ABBC08495068FFF7C7BF00BF0B7B0000C8
:1008000004000020D37A0000637F00004E840000C3
:10081000E47B0000A51E000013B5012914464FF02B
:1008200000020B46019203D002290CD0104A05E0C9
:10083000104B114AD3F8383523F07F4307210F4876
:1008400000F082FC0AE00E49606805F0DEFB38B972
:100850000C4B0193074B019AC3F8382502B010BD29
:1008600004220DEB02016068FFF7EEFDF2E700BF26
:100870000B7B0000001000407B7A0000E47B00004E
:100880005B80000021100100F0B5042985B00B4603
:10089000144633D103AA1A49606805F047FB30B902
:1008A0006368184A1848072100F04EFC22E01749F7
:1008B000A06805F0AAFB38B11549A06805F0A5FBB2
:1008C000D0B1A368134AEDE70125134EE0687D22FD
:1008D000711CFFF7B9FD0230307004F069FE039F10
:1008E000044601F054FA3B46009022462946304621
:1008F00001F0A6FA05B0F0BD0546E6E7074AD1E7E4
:10090000CF7A0000B37B0000E47B0000637F00002F
:10091000D37A0000417B0000440B00200B7B0000D9
:10092000032970B50B46154622D11249506805F0CF
:100930006CFB60B11049686805F067FBB0B16B688B
:100940000E4A0F480721BDE8704000F0FDBB0124AE
:100950000C4EA868711C7D22FFF776FD02303070C6
:1009600021463046BDE8704001F05EBA0446EFE72C
:10097000054AE6E7637F0000D37A0000417B000070
:10098000E47B0000440B00200B7B0000012910B524
:100990000B4603D002290BD0094A03E001F0FBF912
:1009A000084A034607210848BDE8104000F0CCBBC8
:1009B0005068FFF782FDBDE8104040B201F0E9B990
:1009C0000B7B00009F7D0000E47B0000022937B50F
:1009D0000D4614462AD1506805F029FB042816D08C
:1009E00010281BD1694608226068FFF778FD0121B5
:1009F000684601F05BFA0F4B0F4A002808BF134608
:100A00000E4A0F48072100F09FFB03B030BD694636
:100A10002A466068FFF763FD0021E9E76368094A39
:100A20000748072100F090FB034BE9E70B46064A15
:100A3000E7E700BF667B00000C8700004E840000E3
:100A4000E47B00006B7B00000B7B0000022937B5C4
:100A50000D4614462AD1506805F0E9FA042816D04C
:100A600010281BD1694608226068FFF738FD012174
:100A7000684601F019FA0F4B0F4A002808BF1346C9
:100A80000E4A0F48072100F05FFB03B030BD6946F6
:100A90002A466068FFF723FD0021E9E76368094AF9
:100AA0000748072100F050FB034BE9E70B46064AD5
:100AB000E7E700BF667B00000C8700004E84000063
:100AC000E47B00006B7B00000B7B0000012910B56C
:100AD0000B4603D002290FD00A4A07E001F0DEF9E5
:100AE000094A0A4B002818BF1346094A094807213A
:100AF000BDE8104000F028BB07495068BDE8104031
:100B0000FFF742BE0B7B0000637F0000D37A00003A
:100B10004E840000E47B0000A11E0000022910B5F5
:100B20000B4606D15068FFF7C8FCBDE8104001F045
:100B30008FB9034A03480721BDE8104000F004BB09
:100B40000B7B0000E47B0000012910B50B4609D1A6
:100B500001F050F9044B054A05480721BDE8104053
:100B600000F0F2BA034AF7E75A7B0000827A0000ED
:100B7000E47B00000B7B0000022910B50B461046F9
:100B80000CD10A4C4068611C7D22FFF75DFC0230ED
:100B900020702046BDE8104001F08CB9044A054899
:100BA0000721BDE8104000F0CFBA00BF440B002081
:100BB0000B7B0000E47B0000012910B50B4603D03D
:100BC00002290BD0094A03E001F0E1F8084A034684
:100BD00007210848BDE8104000F0B6BA5068FFF79A
:100BE0006CFCBDE81040C0B201F0C2B80B7B000045
:100BF0009F7D0000E47B000001290B4601D101F03C
:100C00002BB9024A0248072100F09EBA0B7B000074
:100C1000E47B0000204B21491A684FF4FA6300BFBF
:100C200000BF00BF00BF00BF00BF00BF00BF8A42BF
:100C30002FD000BF00BF00BF00BF00BF00BF00BF7C
:100C400000BF00BF00BF00BF00BF00BF00BF00BFAC
:100C500000BF00BF00BF00BF00BF00BF00BF00BF9C
:100C600000BF00BF00BF00BF00BF00BF00BF00BF8C
:100C700000BF00BF00BF00BF00BF00BF00BF00BF7C
:100C800000BF00BF00BF00BF00BF00BF00BF00BF6C
:100C900000BF013BC3D17047000000200024F400D6
:100CA00008B501F0DCF8FFF7B5FF01F0B7F8FFF782
:100CB000B1FFF6E7F7B5044618481E464FF00C0C96
:100CC00000230CFB03F52F5807BB431944515971FE
:100CD0001A719E60124D2B68B3B12278114801320F
:100CE000214604F0FCFD104B21781F78304601F0BE
:100CF0005AF82D68044601F04AF82B460090224627
:100D00003946084801F09CF803B0F0BD0133102BC0
:100D1000D7D1204601F0A6F8DCE700BF740A002016
:100D20006C0A0020440B0020680A002008B5074B1D
:100D30001A7832B1064B074A074840F28D5104F049
:100D400033FD012259601A7008BD00BFC80B002096
:100D5000D07D0000FC790000E37D000008B5074B62
:100D60001A7832B1064B074A07484FF4B46104F0D1
:100D70001BFD012258701A7008BD00BF700A0020C8
:100D8000B47D0000177A0000E37D000008B5074B32
:100D90001A7832B1064B074A074840F2B35104F0C3
:100DA00003FD012258701A7008BD00BF1C0200200C
:100DB000B47D0000327A0000E37D000008B5064BE8
:100DC0001A78FF2A06D0054B054A06484FF4B96148
:100DD00004F0EAFC197008BDC40B0020C27D0000BD
:100DE000467A0000E37D0000084A08B50023995CBC
:100DF000FF2901D1D05408BD0133102BF7D1044B8A
:100E0000044A054840F2DA5104F0CEFC340B0020CD
:100E1000C27D0000617A0000E37D00002DE99F485B
:100E200000236A490C241A4604FB03F00133102BFB
:100E30004250F9D16649674E674F0A708846674944
:100E400032703A700023FF225A540133102BFBD129
:100E5000634D644C2A7000F0AAFF204600F09DFF0D
:100E6000A01C00F09EFF201D00F099FF207BDFF802
:100E7000A0A15D4C01F016F8012001F019F8002046
:100E800001F016F8584800F033F9574800F08EF991
:100E9000029520464D4D00F095F905F1C00B2B68E9
:100EA000EBB15346514A0721204600F04DF92B681B
:100EB0001B7803934FF00109039B4B455AD2AA6854
:100EC00095F9053001922A7900920721484A204677
:100ED00000F03AF9286800F0C5FF00232B600C35BC
:100EE000AB45DCD13378FBB15346424A072120465B
:100EF00000F02AF97368ABB193F800903E4ADFF82E
:100F000004B153460721204600F01EF90125A945EA
:100F10003DD220465346394A072100F015F9706842
:100F200000F0A0FF002333703B78002B39D198F8F4
:100F30000030002B3ED1DFF8DC900025274B5B5DB5
:100F4000FF2B07D04A460721204600F0FDF8234A30
:100F5000FF2353550135102DF0D1029B1B78FF2B39
:100F600097D0274A0721204600F0EEF8029AFF2387
:100F700013708EE72B68234A13F8093007212046A7
:100F800009F1010900F0E0F85FFA89F994E7736864
:100F90005A465B5D07212046013500F0D5F8EDB2D9
:100FA000B5E77B78184A0721204600F0CDF80023EA
:100FB0003B70BCE798F80130144A0721204600F046
:100FC000C3F8002388F80030B5E700BF740A00209A
:100FD0001C020020C80B0020700A0020340B0020E7
:100FE000C40B002004000020E47B0000307D0000E2
:100FF0003B7D0000597D0000677D0000587B0000AC
:10100000A47D00002E7B00006D7D0000837D00002C
:101010005A7B0000947D000072B6024A13680133C7
:1010200013607047D00B0020034A1368013B136024
:1010300003B962B6704700BFD00B0020EFF3058301
:10104000C3F308032BB9EFF31480C04300F0010091
:10105000704701207047000008B5FFF7EFFF012837
:1010600005D0054B054A06483E2104F09DFBBDE82E
:101070000840FFF7D1BF00BF878200004A8200000E
:10108000B582000008B5FFF7D9FF012805D0054B50
:10109000054A06484C2104F087FBBDE80840FFF7ED
:1010A000C3BF00BF8782000069820000B5820000D4
:1010B00010B50C46114600B12CB9094B094A15214F
:1010C000094804F071FB43689B681BB9074B054A4C
:1010D0001621F5E720460022BDE81040184700BF62
:1010E0003F830000EE8200004F8300007683000003
:1010F00038B5044628B9104B104A6D21104804F049
:1011000053FB03692BB143681BB102680AB18268C3
:101110001AB90C4B094A6E21F0E71B68984705463F
:1011200040B940F648020146206904F0FCFB2369FF
:1011300001221A70284638BDED83000001830000AB
:101140004F830000F38300000CB437B5054606ABAF
:10115000006953F8042B01934FF4806100F5896016
:1011600004F0ACFF2C6904F58964204604F05FFFAD
:10117000214602462846FFF79BFF03B0BDE83040FA
:1011800002B0704710B40269117002691178022927
:1011900007D1002454640368034A5DF8044BFFF749
:1011A000D3BF5DF8044B70476F84000008B5036936
:1011B0001B78012B04D10221FFF7E4FF002008BDBA
:1011C0000820FCE72DE9F04F044685B030B9B94B53
:1011D000B94A40F22921B94804F0E6FA00690378D7
:1011E000022B05D0032B00F0468105B0BDE8F08F3F
:1011F0000023B34EB34FDFF8E48203938DF807303A
:101200006368DB681BB9B04BB04A2121E3E703AA4E
:1012100001210DF107009847039B002BE5D02369BE
:101220009A7B4AB100229A739DF807305B2B03D159
:1012300023690122DA73D8E72369DD7B0DB100222F
:10124000F8E79DF807200A2ADAD029D8082A00F002
:10125000EA803ED8002AD3D004F012FB9DF8072084
:101260001044437813F0970FCAD02369596C0B448C
:1012700083F8482021694B6C01334B642369596C16
:10128000B1F5806F40F0EF8000225A64904A01214E
:101290002046FFF759FF02212046FFF773FFA4E71E
:1012A0001B2A13D07F2A00F0BE800D2AD4D15A6C9D
:1012B000002A40F0AF800221236832462046FFF723
:1012C00043FF02212046FFF75DFF99E701229A7351
:1012D00096E7D3F84490B9F1000F4BD0AA46A9463F
:1012E0004FF00C0BE36899454ED3BAF1000F87D04D
:1012F000BAF1010F40F088800C2320695D43A36898
:10130000D0F84490595948304944484404F087FE85
:10131000A368D4F810A0585904F089FECAF8440014
:101320002269536C1A44202382F848302269536C96
:10133000013353642269536C1A44002382F8483005
:10134000236948334B44634A072119E019F0070F1A
:1013500004D1324603212046FFF7F6FE0C23A26893
:1013600003FB09F30321D35820463A46FFF7ECFE6E
:1013700009F10109E3689945E8D32368424602214F
:101380002046FFF7E1FE3BE72169A3684A6C0BFBAF
:1013900009F04831185804F052FE10B90AF1010A58
:1013A0004D4609F101099DE72169A3684A6C0BFBD1
:1013B00005FA483153F80A0004F041FE88B919F0E3
:1013C000070F04D1324603212046FFF7BDFEA36874
:1013D0003A4653F80A3003212046FFF7B5FE09F1DB
:1013E00001090135E3689D42DED3236842460221AC
:1013F0002046FFF7A9FE23695A6C1344002283F8A4
:101400004820236948339EE74FF000094D464FF0CE
:101410000C0BE7E71344032183F848502269536C0F
:10142000013353644EE75B6C002B3FF4E9AE04A933
:10143000082501F8065D01222046FFF739FE04A9C0
:10144000202301F8073D01222046FFF731FE04A9C1
:10145000012201F8085D2046FFF72AFE2269536C3D
:10146000013B5364CCE604A9204601F8052D012276
:10147000FFF71EFEC4E6466C483600F148053022F0
:1014800006440021143004F04EFA236901221A6147
:10149000236900225D611046AE4221D800250C2749
:1014A000E3689D4238D30C4B0A4A01212046FFF7DE
:1014B0004BFEF0E6ED830000208300004F83000028
:1014C000587B00006884000053840000F88200000C
:1014D000728400006F840000EA8400006D840000C4
:1014E0002978202901D0092903D12870012201354A
:1014F000D2E7002AFBD00029F9D0226911690B2913
:1015000001D9174AC3E602EB8102556121690A69D4
:1015100001320A610022EAE707FB05F6A2682369A7
:101520009159586904F071FD08B10135B8E7A36815
:1015300033449A6822B90B4B0B4A40F217214AE612
:101540002269204653600721084AFFF7FDFD236901
:101550005A6819699568204603F11402A8479AE66B
:10156000A1840000CE8400000E830000587B0000A0
:101570002DE9F843044630B92E4B2F4A40F2692139
:101580002E4804F011F98368026893424ED0002679
:101590004268C66052F823500133836025B9284B56
:1015A000254A4FF41E71EBE72B782D2B03D0E56015
:1015B0003F20BDE8F88369780029F8D0AA785AB9A5
:1015C00040690C269042F2D0236906FB02331F7952
:1015D0008F4217D00132F5E72D29E8D105F1020835
:1015E0004FF00C096369B342E1D909FB06F723699F
:1015F0004046D95904F009FD08B10136F2E72369E4
:10160000DB19D4D0587908B91879D2E7D4E9011296
:10161000266851F82210B24202D00E782D2E01D148
:101620000128C4D00132C4E90221EDE74FF0FF30B8
:10163000BFE700BFDE830000308300004F8300005F
:10164000D4830000F7B50369144F5B6815465A68E8
:1016500000921B68124A06460C460721FFF774FDEC
:10166000104A07213046FFF76FFD04F10C030C22EE
:1016700002FB05350C34AC4201D103B0F0BD54F887
:10168000042C14F8083C019254F80C2C0092072109
:101690003A463046FFF758FDECE700BF42840000B1
:1016A000C3830000378400002DE9F043002689B091
:1016B0000223CDE90466013904320793204D214B02
:1016C000029104460392069302A8FFF751FF0028F7
:1016D0002EDB68280CD0762808D03F28F4D1059B53
:1016E0002A4603212046FFF72FFDEDE70126EBE711
:1016F000022214492046FFF7A5FF09B0BDE8F08398
:1017000007FB05F3A268D118D3585EB14A6800926E
:1017100007214A462046FFF717FD0135E368AB4233
:10172000EED8EAE7424607212046FFF70DFDF4E731
:1017300000250C27DFF81080DFF81090EEE700BFDF
:10174000A683000000850000CD830000C183000057
:1017500070470000014A0321FFF7F6BC8C830000AC
:101760000B4B10B504220024C3F88020C3F880215D
:1017700083F80243074B8022C3F808234FF4017219
:10178000C3F80823C3F8004500F068FA204610BDEE
:1017900000E100E000200040F0B5134B134D1F881E
:1017A0002B8800249F4214600BD0DFF844C0014412
:1017B000884202D12CB12B8003E09F4203D104B1B7
:1017C0002F800020F0BD5E1C1CF8033000F8013BA8
:1017D0001368B6B20133B6F5007F13604FF0010411
:1017E00014BF33460023E3E7D40D0020D60D0020BC
:1017F000D40B002000F1804000F50050002382B09F
:10180000036003680193019B02B07047F8B5064678
:1018100011B911600846F8BD194C2368002B2CD172
:10182000184D194F4B1E4FF48E702B80FFF7E2FFBF
:10183000731C2360154B3078C3F81C05144801262F
:1018400006601E463B68002BFCD04FF48E70FFF7FD
:10185000D1FF288850B12368013803F1010C1B78AF
:10186000C4F800C0C6F81C352880EBE7094B0126F8
:101870001E60206028801160CDE70120CBE700BF0B
:10188000D80D0020DC0D00201C210040002000406D
:10189000082000400C2000404FF0A04310B540222B
:1018A000254CC3F80825032100220820C3F8181787
:1018B000C3F82027C4F814050620C4F80C0520201E
:1018C000C3F81C27C3F80805C3F814170523C4F888
:1018D00008350723C4F810354FF0EB73C4F82435EE
:1018E0000123C4F86C354FF48E70FFF783FF4FF47B
:1018F0009270FFF77FFF4FF48470FFF77BFF4FF488
:10190000A270FFF777FF0D4BC4F804330C4B042192
:1019100083F802231046C3F88011196000F050F9D3
:1019200000F0C8F90028FBD00423C4F800350123D7
:101930002360002010BD00BF002000400402020010
:1019400000E100E010B51B4B1B6873B14FF49270BF
:10195000FFF750FF4FF48470FFF74CFF164B174A08
:101960004FF48271164803F01FFF164B1B6823B11A
:10197000114B124A4FF48471F4E7134B1B689BB16F
:101980004FF48470FFF736FF1049114B0888114C53
:10199000D3F818252488431CC3F308039C42D2B211
:1019A00003D00D4C0B80225410BD034B034A40F270
:1019B0001911D7E7242100400C8700008185000021
:1019C000508500004421004008210040D40D002033
:1019D00000200040D60D0020D40B0020074B012230
:1019E0001A604FF08042D2F80C3403F00113B3F1C7
:1019F000011FF8D0024B00225A70704704000040CB
:101A0000E00D002038B5084C04F108030546002815
:101A100018BF1C4623682BB11A6822605B682846F1
:101A20009847F7E738BD00BFE80D0020064B0122BC
:101A30001A604FF08042D2F8183413F48033FAD190
:101A4000024A9370704700BF0C000040E00D002078
:101A50000B4B187888B90B495860E02298601861E0
:101A6000D86081F800230122C1F880210A604FF07C
:101A70008041C1F818251A70704748F285007047F8
:101A8000E00D002000E100E008B50D490B782BB90E
:101A90000C4B0D4A0D489B2103F086FE0C4B012296
:101AA000C3F880204FF080434FF0FF32C3F8082383
:101AB000FFF7BCFFFFF792FF00230B7008BD00BFCC
:101AC000E00D00208C860000AC850000AA86000096
:101AD00000E100E037B51F4C237805462BB91E4BBB
:101AE0001E4AC4211E4803F05FFEA37803F0FF00E6
:101AF00093B115B16B68012098470020FFF7ACFA4D
:101B0000E36800200133E360FFF7BCFAE368FBB948
:101B1000144B124AE021E5E7FFF79EFA25B122694E
:101B200013468BB92A602561E268002AE8D10E4B82
:101B30001A601B680193019B4FF080430222C3F897
:101B4000042301229A60DBE79D42EDD01B68E8E7A1
:101B500003B030BDE00D00208C860000C185000080
:101B6000AA8600006E8600000401004010B50F4CEC
:101B700023782BB90E4B0F4AF1210F4803F014FEC6
:101B8000E3681BB90D4B0B4AF221F6E70020FFF783
:101B900063FAE368013BE360E3680BB9FFF746FFD4
:101BA0000020BDE81040FFF76DBA00BFE00D002037
:101BB0008C860000DD850000AA8600006E8600008D
:101BC00037B5204C2378054633B91F4B1F4A4FF4D5
:101BD00083711F4803F0E8FD637803F0FF009BB1B9
:101BE00015B16B68002098470020FFF735FA63684D
:101BF000002001336360FFF745FA6368FBB9154BBA
:101C0000124A4FF49171E4E7FFF726FA25B1A26872
:101C1000134683B92A60A5606268002AE7D10E4B9B
:101C20001A601B680193019B4FF080430122C3F8A7
:101C300004231A60DBE79D42EED01B68E9E703B09E
:101C400030BD00BFE00D00208C860000F98500004B
:101C5000AA860000508600000001004010B5104C1C
:101C6000237833B90F4B104A40F227110F4803F085
:101C70009BFD636823B90E4B0B4A4FF49471F5E753
:101C80000020FFF7E9F96368013B636063680BB903
:101C9000FFF7A4FE0020BDE81040FFF7F3B900BF36
:101CA000E00D00208C86000015860000AA8600004A
:101CB0005086000008B50A4B1B7833B9094B0A4A15
:101CC0000A4840F2351103F06FFD4FF08043D3F81E
:101CD0000C0400F00110A0F101135842584108BD56
:101CE000E00D00208C86000031860000AA860000EE
:101CF00007B5144B1A686AB1002018601B6800937E
:101D00004FF08042009B0123C2F808330E4A537003
:101D1000FFF778FE0D4B1A688AB100221A601B6823
:101D20000193019B4FF080430222C3F80823064B26
:101D30000120987003B05DF804EBFFF763BE03B0B9
:101D40005DF804FB00010040E00D002004010040AC
:101D500007B501A803F092FA20B90190019803B0E9
:101D60005DF804FB019B002BF8D101230193F5E7FB
:101D700038B5044602F018FF0546204602F01AFF67
:101D8000A54203D0BDE8384002F08FBF38BD02F055
:101D90000BBF02F01DBF02F015BF02F047BF02F0FB
:101DA00051BF02F05BBF4901C031401A704708B50E
:101DB00000F0F0F801F0CEF900F056FA01F074FFEF
:101DC00002F0F0F902F096FE02F0F8FC02F0A6FE36
:101DD00002F052FF02F054FF02F07CFF03F078F8AB
:101DE00003F0C4F903F0E0F903F0E2F9BDE80840BC
:101DF00003F0C2BB08B503F0D1FB03F0FDF903F01B
:101E0000D4F903F07FF802F0F1FD00F02FFABDE8FD
:101E1000084001F0CFB9012002F033BF01230022B6
:101E20001146184602F02FBF13B500240B46024698
:101E3000CDE900442146204602F027FF02B010BD44
:101E400010B49DF8044001945DF8044B02F0B8B959
:101E50000146002002F021BF002002F020BF002038
:101E600002F01FBF08B590F8803033B1074B084A25
:101E70004FF4CB71074803F097FC02F014FF20B930
:101E8000054B034A4FF4CE71F4E708BDFA86000013
:101E9000DF860000128700005887000002F064BE51
:101EA00002F06ABE00F086B800F08AB800F0BEB852
:101EB00000F0EEB802F00CB9704770B504460D465C
:101EC0001646FFF745FF3246034629462046FEF7F1
:101ED000F1FE70BD70477047704700002DE9F74F65
:101EE00001939BB1224C267808274FF0000875B269
:101EF000C6464FF0020CAE450CDD08F101037345F8
:101F000008BFF04682F8008000202EE0194C02271E
:101F10002678EAE7A5EB0E0494FBFCF47444E4B2E3
:101F20004FFA84F8B045E8DA019B18FB07FA01EB99
:101F30000A097BB151F80AA00368534510D305D8AC
:101F4000D9F8049043684B450AD30CD901344FFAB1
:101F500084FED0E7B0F800B031F80A90CB45F3E743
:101F6000013C65B2C7E71470012003B0BDE8F08FF3
:101F7000F40D0020F50D0020134622B10A46034956
:101F80000123FFF7ABBF0A460149FAE7F60D00202F
:101F9000460E0020044B01221A70044A00231370DD
:101FA000034A1370704700BF5A0E0020F40D002042
:101FB000F50D0020014B1870704700BF5A0E00202D
:101FC000F7B50C4602A9002301F8013D2246074659
:101FD000FFF7D2FFD8B9E4B9104C114B2278022593
:101FE0000A2A14D09DF8071001FB0550461B1E4419
:101FF000521A18446A43314603F07CFC2A4639469B
:10200000304603F06CFC237801332370012003B0C9
:10201000F0BD044C044B22780825E1E7F50D0020C3
:10202000460E0020F40D0020F60D002073B50C467E
:1020300002A9002301F8013D2246FFF79DFF054656
:10204000A0B1C4B90E4C0F48237802228BB19DF881
:10205000071012FB01F65B1A013B911901445A4328
:10206000304403F047FC2378013B2370284602B03C
:1020700070BD1D46FAE7044C044823780822E5E7C2
:10208000F50D0020460E0020F40D0020F60D002076
:1020900018B1034B00221A707047024B187070473A
:1020A000F40D0020F50D002007B5144B1A780146F9
:1020B0000AB3837803F00C00082805D00C2815D04B
:1020C000104603B05DF804FB01F10800497803F005
:1020D000C003490658BF0230802B0AD0C02BEFD175
:1020E0000DF10701FFF748FF0246E9E701F10E0095
:1020F000ECE70022F4E70122E2E700BF5A0E0020DD
:10210000034B00221A70BFF35F8F024803F0C0BA7E
:102110005B0E00205C0E002020B1034B05211868E7
:1021200002F0F1BC704700BF700E002010B5104CDB
:10213000237843B100230F4A0421012002F0A3FDBC
:1021400010B10023237010BD0B480C4A436803F5FF
:10215000FA739342436005D9094B0A4A0A48582149
:1021600003F022FB0121BDE8104003F02DBA00BFAF
:102170005B0E0020192100005C0E002040420F0081
:10218000F38700005F8700001188000038B50B4B13
:102190000B4C18600B4BA3600023E36003F008FABC
:1021A000094B20601B6863600125084B20462946C7
:1021B0001D7003F009FA284638BD00BF700E0020DC
:1021C0005C0E00202D210000140000205B0E00207A
:1021D00010B5084B1B7803F0FF0433B1042902D07B
:1021E00028B1FFF78DFF204610BD0124FBE7044610
:1021F000F9E700BF5B0E002008B5084B1B6883425F
:1022000008D0074B1B782BB1064B074A07489B2188
:1022100003F0CAFABDE80840FFF772BF700E002055
:102220005B0E0020C187000073870000118800004A
:1022300008B5084B1B68834208D0074B1B782BB1AD
:10224000064B074A0748A32103F0AEFAFFF758FFF1
:10225000012008BD700E00205B0E0020C187000029
:102260009B87000011880000FFF7F2BBFFF70CBC52
:102270000148FFF7A5BC00BF18000020FFF7EEBC27
:102280000148FFF727BC00BF18000020FFF76EBC15
:1022900008B510B902F024FF08BD0128FCD102F0F6
:1022A000DDFBF9E700F1804000F58050002382B0AB
:1022B000036003680193019B02B07047034B1868E9
:1022C00008B190F8800000F001007047840E0020F3
:1022D00008B5FFF7F3FF08B1014B186808BD00BF50
:1022E000840E002000BF00BF00BF00BF00BF00BFC2
:1022F00070470000134B144AC3F8482500F1804092
:1023000000F58050C3F84C0521B102F5FD4248327A
:10231000C3F82C290D4AC3F8402502F5AF3202F567
:102320009672C3F8442529B1D3F8002842F0800200
:10233000C3F80028034B8022C3F804254022C3F8C9
:102340000425704700F001403C710140101100402D
:10235000034B1B781BB1034B1022C3F808237047B3
:10236000810E00200010004010B5044602F0AEFEC1
:10237000C00902280B4A11D9811EE3098B4233BFE1
:102380000021A4EBC114C31E116028BF1460064ACB
:10239000C3F31403C2F86436012010BD146000209A
:1023A000FBE700BF7C0E00200010004013B51F4C5F
:1023B00001A802F05BFCD4F86C269DF8043022F0F2
:1023C0000702C4F86C26D4F86C261343C4F86C36A4
:1023D0009DF8050002F0C2FED4F86C3623F47F436A
:1023E000C4F86C36D4F86C3643EA0020C4F86C06A6
:1023F000D4F86C269DF8061022F47F02C4F86C26EF
:10240000D4F86C3643EA0143C4F86C36D4F86C2631
:102410009DF8071022F07F42C4F86C26D4F86C3681
:1024200043EA0163C4F86C3602B010BD00100040EE
:1024300008B50378184410F8010C02F081FE00B2D0
:102440008000FF2828BFFF20C0B208BD38B5074B69
:102450001C6805460146204601F0CEFB28B12946FE
:102460002046BDE8384002F04EBB38BD880E002043
:1024700008B502F002FC034B00221A70BDE80840C8
:1024800002F0E0BE810E002010B5044601F056FDBA
:10249000204602F033FBBDE8104001F011BC000003
:1024A00008B5084BD3F8503513F0FF0F07D1FFF7ED
:1024B00019FF054B1868003018BF012008BD012026
:1024C000FCE700BF001000403C710140164B17486C
:1024D0004022C3F808258022C3F808254FF48072F3
:1024E000C3F80825D3F80028002122F08002C3F8A1
:1024F0000028C3F82C19A3F5AF33A3F5F873012214
:102500001A60D0F8003223F4A063C0F80032084B00
:102510001B783BB1074B4FF45050C3F80803C3F886
:1025200000121A61704700BF00F0014000900040A7
:10253000810E002000100040134B4022C3F80825F4
:102540008022C3F808254FF48072C3F80825D3F819
:10255000002822F08002C3F800280022C3F82C29AA
:102560000A4B1B7873B10A4B0821C3F808130949B9
:10257000C3F8002201200860C3F844264FF4AE706F
:10258000FFF790BE704700BF00F00140810E0020B1
:102590000010004010100040114B4022C3F80825E5
:1025A0008022C3F808254FF48072C3F80825D3F8B9
:1025B000002822F08002C3F800280022C3F82C294A
:1025C000084B1B785BB1084B4FF40041C3F808136C
:1025D000C3F80022054A0123136042F8183C7047F3
:1025E00000F00140810E0020001000402810004043
:1025F000114B4022C3F808258022C3F808254FF468
:102600008072C3F80825D3F8002822F08002C3F8AE
:1026100000280022C3F82C29084B1B785BB1084B1B
:102620004FF4C021C3F80813C3F80022054A012360
:10263000136042F8203C704700F00140810E0020FA
:10264000001000403010004008B5A0F10B030F2B24
:1026500006D9074B074A084840F2C71103F0A4F80F
:102660000A38064B00EB8000C3F8080508BD00BF20
:10267000648900009C8800008389000000100040ED
:10268000174B10B54022C3F808258022C3F808254F
:102690004FF40072C3F808254FF48072C3F8082580
:1026A000D3F80028002422F08002C3F80028C3F8E1
:1026B0002C490C4B1B7893B102F02EFBA04214BFA7
:1026C0004FF000630823084A43F4802343F00203D9
:1026D000C2F808330123C2F800421363136110BD2E
:1026E00000F00140810E002000100040044B002249
:1026F00082B01A601B680193019B02B0704700BF53
:102700003C71014010B5144B1B780446F3B1AE2068
:1027100002F06AFCD0B1114A4FF42053C2F80032E3
:102720004FF4A470FFF7BEFD4FF4A270FFF7BAFD9F
:102730004FF4C023C2F80433FFF7D8FF012104206F
:10274000FFF7D8FD1CB9064B01221A6010BDFFF738
:10275000A7FE0028F7D0F9E7810E00200010004006
:102760001010004038B54A4B1B780446002B00F08F
:102770008780484A137803F0FC036FF382031370D9
:1027800002F020FA444AC0B2C2F80C05FFF796FDE9
:102790000546002875D0FFF79BFD404BC2F80405A5
:1027A000C2F800321823C2F860354FF49A70FFF770
:1027B00079FD4FF49470FFF775FD4FF49870FFF7B3
:1027C00071FD37494FF45053C2F80433D1F8003249
:1027D00043F4A063C1F800320123C1F840358223DD
:1027E000C1F844358323C1F84835FFF77FFF2D4BEF
:1027F0002D482E4AC3F84825C3F84C0500F5F030A3
:10280000C3F82C09C3F85025C3F85415D3F8002891
:1028100042F08002C3F80028254AC3F8402502F59B
:10282000AF3202F59672C3F844258022C3F804251E
:102830004FF48072C3F80425A0F5EF304022C3F8AE
:102840000425D43802F006FDECB91A4B01221A60B7
:10285000B5B902F099FC184B1860FFF72FFD78B15D
:10286000FFF736FD0C4B0D4AC3F80405C3F80022F0
:10287000D3F85035DBB2022B02BF104B01221A6095
:1028800038BD52238CE7FFF70BFE0028DDD0DFE7D1
:10289000810E0020800E0020001000405200080031
:1028A0000090004000F00140041000403C710140E5
:1028B0001011004010100040840E0020081000404D
:1028C00010B5124B1B780446CBB1114B1868FFF7BB
:1028D0004BFDA0B10F4A4FF40041C2F800124FF473
:1028E0009E70FFF7DFFCC2F80413FFF7FFFE012123
:1028F0000420FFF7FFFC1CB9074B01221A6010BD32
:10290000FFF7CEFD0028F7D0F9E700BF810E0020C9
:102910007C0E0020001000401010004010B501F0A7
:1029200069FA044648B1064B1B7833B102F0CEFB7E
:102930003B2802D801F000FB0024204610BD00BF58
:10294000810E0020F8B5474B1B781B0772D5464D0A
:10295000464F2B685C78C4F340142E46002C6AD096
:10296000FFF7ACFC424C434A434B051E08BF122301
:102970004FF04001C2F80815C4F8003203D0FFF749
:10298000A7FCC4F804053D4BC4F8083302F0C4F9B1
:1029900050B14FF00063C4F808334FF48670FFF76E
:1029A00081FC0823C4F8043332494FF40073C1F8A2
:1029B0000835334BC1F84835A3F5B033A3F59C7304
:1029C000C1F84C3503F5F033C1F82C39FFF78EFE12
:1029D0008023C1F804354023C1F8043506233B7039
:1029E000FFF75EFD10B9274B01221A60B5B902F05E
:1029F000CBFB254B1860FFF761FC78B1FFF768FC53
:102A00001B4B1D4AC3F80405C3F80022D3F8503508
:102A1000DBB2022B02BF1D4B01221A604FF4AE70D5
:102A2000FFF740FC3368124ADB781B0643F400735F
:102A3000C2F84436F8BDFFF723FE022301203B70A5
:102A4000FFF790FE2D6801F079FA284601F0D2F8E0
:102A5000234622462146284602F052F8BDE8F840B7
:102A600001F02EB9800E0020880E0020820E00207A
:102A70000010004000F001401200080002000400B5
:102A80003C71014010100040840E002008100040EE
:102A90001649402310B5C1F8083518B1144B52221D
:102AA000C3F80022134B144A01241C608023C1F890
:102AB0000435137803F0FC036FF382034FF4947032
:102AC0001370FFF7EFFB0A4B1822C3F86025FFF7DE
:102AD0000DFE4023C1F80435084802F0BBFBFFF7A8
:102AE000DFFC08B9064B1C6010BD00BF00F00140C0
:102AF0000010004010900040800E00203011004077
:102B00001010004038B50A4B0546D3F8480500F0D0
:102B10007F0002F00EFB04462846FFF789FC614265
:102B200042B249B22846BDE8384001F0E4BF00BFD8
:102B300000100040F8B505460F46164601F046F86D
:102B4000044688B1524B1B78092B00F29880DFE8CD
:102B500003F0050D102363636D717A83022F03D098
:102B600002F08DF802F0D8F92046F8BDFFF7F0FB2F
:102B7000FAE7484B1B785B070BD5002D00F08680E9
:102B8000FFF7A4FC002EEFD0062001F0B7FF34467B
:102B9000EAE7FFF79BFCE7E7002D77D03E4B4022AA
:102BA000C3F808258022C3F808254FF48072C3F8C3
:102BB0000825D3F80028002722F08002C3F8002857
:102BC000C3F82C79A3F5AF33A3F5F873334A012585
:102BD0001D60D2F8003223F4A063C2F80032304BFB
:102BE0001B787BB102F098F8B8422E4A14BF4FF020
:102BF0000063082343F00203C2F808332A4BC2F8EB
:102C000000721D60002EAFD0284B1868002380F89A
:102C10008030FFF777FFBAE7002D37D0FFF730FDA0
:102C2000002EA1D00620FFF711FC9DE775B3FFF73A
:102C300083FCF5E755B3FFF7AFFC002E94D00120DD
:102C400001F065FFA3E70DB3FFF7D2FC002E8BD098
:102C5000012001F060FF9AE70F4B4022C3F80825DE
:102C60008022C3F808250E4B1B7803F0FF02002BCF
:102C70003FF47AAF0C4B01211960144674E70C4BFA
:102C80000C4A0D4840F20D5102F08EFD2C466BE7C8
:102C9000820E0020800E002000F0014000900040D5
:102CA000810E00200010004010100040840E002013
:102CB0000C870000A88800008389000010B5044636
:102CC00001F03CF92046FFF71DFFBDE8104000F081
:102CD000F7BF0000F8B5394B1B7806460C46154681
:102CE0000BB90020F8BD00787378063040009B06D1
:102CF00048BF36300001002949D12E3080B202F0A1
:102D000073F907460028ECD001F05CFF2C4BC0B2F1
:102D1000C3F80C05C3F804651E46002C39D001F039
:102D2000FBFF002814BF4FF48013022343F48723D2
:102D3000C6F8003201F0F0FFA8B34FF4B670FFF709
:102D4000B1FA4FF000622CB14FF4A470FFF7AAFA69
:102D500042F480224FF48270FFF7A4FA194B1978DD
:102D60006FF3C3011970164B42F00202C3F804233B
:102D7000FFF7BCFC002C14BF042000200121FFF74A
:102D8000B9FAB5B9104B01221A603846AAE7D63015
:102D9000B4E701F0C1FF002814BF4FF480130223F1
:102DA00043F48023C4E74FF48670FFF77BFA0822D0
:102DB000C9E7FFF775FB0028E4D093E7810E0020F8
:102DC00000100040800E0020101000402DE9F0415E
:102DD000334E344D344C4FF0400852232768C5F829
:102DE0000885C6F800321823C6F8603501F094FF54
:102DF000002814BF4FF00063082343F00203C6F815
:102E000008334FF49A70FFF74DFA4FF49470FFF7C0
:102E100049FA4FF49870FFF745FA4FF45053C6F84B
:102E20000433224B01261E604FF40073C5F80835A9
:102E30008023C5F80435FFF759FC1D48C5F8048503
:102E400002F008FAFFF72CFB08B91A4B1E60236842
:102E5000002283F8802002F097F92060FFF72EFA15
:102E600078B1FFF735FA0E4B134AC3F80405C3F8DF
:102E70000022D3F85035DBB2022B02BF0F4B0122E8
:102E80001A600F4B02221A700E4A137803F0FC03EB
:102E90006FF3820313703846BDE8F041FFF70EBFB1
:102EA0000010004000F00140840E0020109000400F
:102EB000301100401010004052000800081000407F
:102EC000820E0020800E002070B502F0FFF83B2833
:102ED00040F2B2805B4C002501260F23C4F8FC5F52
:102EE000C4F8FC6FC4F81035D4F8143523F00F0380
:102EF000C4F81435D4F8143543F00803C4F8143575
:102F0000D4F8143523F04073C4F81435D4F81435CC
:102F100043F00073C4F81435D4F8143523F08063FB
:102F2000C4F81435D4F8143543F08063C4F814356C
:102F3000D4F8183523F0FF03C4F81835D4F8183541
:102F400043F07F03C4F81835D4F8503623F001035A
:102F5000C4F85036D4F850363343C4F85036D4F859
:102F6000343523F00303C4F83435D4F8343543F052
:102F70000203C4F83435D4F8343523F44073C4F86C
:102F80003435D4F8343543F40073C4F834352E4B5B
:102F9000C4F83835FFF70AFA2C4BC4F84456C4F885
:102FA000483601F001FEFFF74FFB294B022283F860
:102FB0000153C3F88021D4F8003233B1254B264A9F
:102FC00040F28161254802F0EFFB254C22781AB1CE
:102FD000244B1E7002F028F92378092B2DD8DFE846
:102FE00003F02B2C052C0A122C151A1F0020BDE80B
:102FF0007040FFF7B7BB002201211B4BBDE87040BA
:103000001868FFF767BE00221146F6E70020BDE80A
:103010007040FFF755BC0020BDE87040FFF772BB61
:10302000104B1B7843B1FFF761FB00210846FFF707
:1030300061F90E4B01221A6070BD0D4B064A40F239
:10304000A961BFE70010004021100100000700FF48
:1030500000E100E01A8A0000C488000083890000B3
:10306000820E0020810E0020880E002010100040EB
:103070000C8700002D4B70B502250024C3F880504A
:10308000C3F8805183F80143BFF34F8FBFF36F8FB5
:10309000274B0126C3F8FC4FC3F8FC6F254B1C706F
:1030A00002F0D0F8224629463046FFF743FD30B9FA
:1030B000214B224A40F2BE61214802F075FB214BB0
:1030C0001A78092A2BD8DFE802F02F050B141F1FEE
:1030D0001F2F2F2F00221A70BDE87040FFF7C8B9CC
:1030E000194B1B785B071FD50520BDE87040FFF723
:1030F000CBB902221A70154B1868002380F8803073
:10310000BDE87040FFF7DABD02221A7000F016FF2A
:103110000420FFF79BF9BDE8704000F0D1BD0C4BD7
:10312000064A40F2E961C7E770BD00BF00E100E078
:1031300000100040810E002058870000F388000036
:1031400083890000820E0020800E0020840E002063
:103150000C87000007B5134B186800909B88124835
:10316000ADF804300622694602F0B9FB0F4B00228D
:103170001A700F4BD3F8042522F00302C3F804257C
:10318000D3F8082522F00302C3F80825D3F8102548
:1031900022F00F0242F00402C3F8102503B05DF8DC
:1031A00004FB00BF70880000740E0020820E002017
:1031B000009000400B4B1B7833B10B4B0022C3F83F
:1031C000FC2F0122C3F8FC2F084B0222C3F88020F9
:1031D000C3F88021002283F80123BFF34F8FBFF390
:1031E0006F8F7047810E00200010004000E100E06A
:1031F000F8B50446FFF792FB064630B1184D2B7820
:1032000023B9344600F098FE2046F8BD2B78012BF8
:10321000F7D0012220461146FFF78CFC0446002817
:10322000F0D001232B700F4B1B7803F0FF071BB965
:103230002F70FFF71DF9E5E74FF48870FFF732F8BC
:10324000094B1022C3F80423D3F8501511F0FF01E5
:10325000D7D1FFF77DF83C462970FFF709F9D1E790
:10326000820E0020810E0020001000402DE9F8435E
:103270000746884615469946FFF750FB0446D0B1ED
:103280000F4E3378022B11D03378032B0ED04A46E1
:1032900041463846FFF74EFC044620B10223012088
:1032A0003370FFF75FFA0DB12046A84700F044FEE7
:1032B0002046BDE8F883002DFAD0A847F8E700BF04
:1032C000820E00202DE9F047099D9DF820900646CA
:1032D0008A4690461F46FFF721FB044628B3012289
:1032E00051463046FFF726FC044640B900240DB194
:1032F0002046A84700F020FE2046BDE8F0870D4E8E
:10330000022333700C4B012239464046C3F800803B
:10331000FFF7E0FCB9F1000F01D00028E6D0002F44
:1033200014BF042305233370E1E7002DE4D0A84740
:10333000E2E700BF820E0020880E002070B506462E
:103340000D46FFF7EBFA044698B1012211463046CC
:10335000FFF7F0FB044650B1074B07221A70074BEA
:103360001D60074B002201201A70FFF7A9FA00F038
:10337000E3FD204670BD00BF820E00207C0E0020C1
:103380007A0E002038B50546FFF7C8FA044670B13A
:10339000012211462846FFF7CDFB044628B1054B14
:1033A000082201201A70FFF7ADF900F0C5FD204694
:1033B00038BD00BF820E002038B50546FFF7AEFAD3
:1033C0000446D0B1012211462846FFF7B3FB04465C
:1033D00088B10B4B09221A700A4B1B785BB1FFF7BF
:1033E00085F900210846FEF785FFFFF759F810B967
:1033F000054B01221A6000F09FFD204638BD00BF3A
:10340000820E0020810E00201010004010B50446EE
:10341000FFF784FA012184F8801058B1204B1B7803
:1034200033B1204B1B78DBB2022B05D0062B20D00A
:1034300000F082FD012010BD1B4AD2F85035DBB2EE
:10344000022BF5D1D2F80032522B06D0174B184A76
:1034500040F63531174802F0A7F9174B1C60FEF70C
:1034600037FF164BC2F80405C2F80032144B19603E
:10347000DEE70D4AD2F85035DBB2022BD8D1D2F8B4
:103480000032122B04D00F4B094A40F64431E1E7D9
:10349000094B1C60FEF71CFF0B4BC2F80405E3E769
:1034A000810E0020820E002000100040CE89000016
:1034B0004189000083890000840E0020520008002A
:1034C00008100040F28900001200080010B5FFF754
:1034D00025FA0446E0B11A4B1B78023B072B15D89E
:1034E000DFE803F00424242424142418154B1B784B
:1034F0001BB101F059FBFFF7A7F80122114600208C
:10350000FFF718FB10B10120FFF72CF900F014FDB4
:10351000204610BD0B4B1B78002BF7D001F044FB6D
:10352000FFF792F8084B01221A60EFE7054B1B7872
:10353000002BEBD001F038FBFFF786F8E6E700BF81
:10354000820E0020810E0020101000402DE9F7436C
:1035500000F054FCB04BD3F808339A071CD5AF4B9E
:103560001B68CBB14FF48270FEF79CFEAC4B1B780E
:10357000DBB2032B30D032D3052B30D8A94B1C68DB
:10358000204600F04DFB10B12046FEF7A3FCA64AF2
:10359000137843F008031370DFF87C82D8F80833FF
:1035A0005B0543D5A14B1B68002B3FD04FF49470B3
:1035B000FEF778FE9A4B1B78022B40F0CA80D8F8B1
:1035C0006055C5F3C705022D8DF807500ED8984BEE
:1035D000984A40F20F7106E0FEF76EFCDCE7964B6E
:1035E000964A40F67F11964802F0DEF8954B1B682C
:1035F000E3B98D4C237813F0010674D001262378AB
:103600009F0713D496B1904B1B6818785B780630EF
:1036100040009D0648BF2230000101F0E5FC002873
:1036200000F09180237843F0020323707A4BD3F8A3
:103630000833980412D5834B1B687BB14FF49A7002
:10364000FEF730FE764B1C78E4B2022C40F0868008
:103650000020FFF71DFA2046FEF716FF6E4BD3F849
:103660000833D90440F12081784B1B68002B00F00F
:103670001B816B4E4FF49870FEF714FE3378022BCB
:1036800040F04781684D704C2A78D4F80080D2070A
:1036900069D52B78DB0773D40120FFF7F9F998F887
:1036A000013003F00703022B00F021812368002280
:1036B00083F8802001F068FD2060FEF7FFFD002800
:1036C00000F0A680FEF704FE534B614AC3F80405E0
:1036D000C3F80022D3F85035DBB2022B02BF5D4B9A
:1036E00001221A6094E0584F43F004030DF10701E2
:1036F0003868237000F02CFE814660B99DF80730D1
:103700009D4203D0DB00C8F8603577E7237843F0AB
:103710000103237072E701280FD1FEF7D7FE0120C5
:10372000FFF720F83B685B7803F00703022B3FF4B8
:1037300066AF4846FEF7A8FE61E701F015FA0028DB
:103740007FF45CAFE9E7FEF7C1FE052001F0D6F992
:103750006CE7394B394A40F6941144E7364B374A07
:1037600040F6AA113FE701F0FFF9002891D1FEF7DA
:10377000ADFE0120FEF7F6FF0420FEF785FE93E084
:1037800023685B789F0687D501F0FEF9002883D077
:103790002368214F304DDB78EB70C7F8045501F0FA
:1037A000BBFA00280CBF02234FF4801343F480239C
:1037B000C7F800324FF4AA70FEF774FD274A284B71
:1037C0004FF400714FF00109C3F85825C3F85C7538
:1037D000C3F8041542F8F89CD2F80804A2F5A272C6
:1037E000D2F8442590423FD3FEF77CFDD7F8502510
:1037F000D2B2092A38D01B4A1268AABB206880F8C6
:103800008020C3F80815FEF761FE4846FEF7AAFFC0
:103810004046FFF753FA47E0001000400411004013
:10382000820E0020880E0020800E0020281100400B
:1038300076880000208900000C8700003589000090
:103840008389000034110040840E002030110040B4
:103850005200080008100040740E002044910040FF
:1038600000F0014054110040122320686B70FEF7F5
:103870001BFC08B902236B700323AF4C33704FF469
:103880005053C4F8083301F047FA50B34FF4B67000
:10389000FEF708FD4FF000624FF48270FEF702FD64
:1038A00042F00202C4F8042301F036FA002837D0AF
:1038B000A14BD3F808331D0132D5A04B1B687BB355
:1038C0004FF4B670FEF7EEFC9D4B1B78DBB2032B7A
:1038D00024D001D3052B39D99A4B9B4A40F6D711F6
:1038E00081E64FF48670FEF7DDFC0822D4E701F094
:1038F0003BF900287FF4DAAE8F4B944AC3F80022DC
:10390000D3F85035DBB2022BCED1914B01221A6095
:10391000CAE78C4B8C4A40F6BE1164E6FFF756FAB4
:10392000854BD3F808331C0718D58A4B1B68ABB1FD
:10393000834E4FF48670FEF7B5FC3278033A032AC3
:1039400000F2A380DFE802F0055D5D64FEF7FAFF98
:10395000E6E701F0E1F908B9FFF738FA764BD3F85A
:103960000833D80611D57C4B1B6873B14FF48870AF
:10397000FEF798FC72490B78012B40F08B80FEF724
:10398000E7FC00230B70FEF773FD6B4BD3F8083395
:10399000990318D5714B1B68ABB14FF4A270FEF7B9
:1039A00081FC67480378082B79D1FEF721FE0223BA
:1039B00003700120FEF7D6FE00F0C0FA012001F0EE
:1039C000A8F800F07DF95C4BD3F808335A0378D59A
:1039D000634B1B68002B74D0594C4FF4A470FEF756
:1039E00061FC2378DBB2042B06D3052B4FF00205D4
:1039F0005AD9082B00F08D80524B534A40F639219A
:103A0000F1E501F089F90028A8D1FEF79BFFA5E7B1
:103A1000544B1C688CB3A3F5AE730024D3F8003468
:103A2000DBB2012B29D1504A156885F880401C462D
:103A3000FEF782FD022701203770FEF793FEF4B1F6
:103A40003D4BD3F8480500F07F0001F072FB0446BF
:103A50002846FEF7EDFC454B1E68074600F06EFA5F
:103A6000304600F0C7F862427BB252B22946304677
:103A700001F046F800F024F970E72546D8E700F099
:103A80005DFA3846FEF7E2FCF4E72E4B2E4A40F68C
:103A9000FB11A8E52B4B2C4A40F60E21A3E5294B40
:103AA000294A40F621219EE5FEF7EAFD0120257016
:103AB000FEF758FE00F042FA0120FEF7C7FC00F0C6
:103AC000FFF81D4AD2F808331B041DD5284B1B688C
:103AD000D3B11B4D4FF49E70FEF7E4FB2B78072B00
:103AE0006BD1244CD2F868362278DBB2934238BFCF
:103AF00013462370204B1868002843D0FEF734FC8F
:103B000098B11E4B01221A6000F016FA03B0BDE80E
:103B1000F083FEF76DFD01202570FEF723FE00F017
:103B20000DFA002000F0F5FFC9E7154B4FF4807245
:103B3000C3F80825E8E700BF001000406C11004002
:103B4000820E00200C87000035890000520008001A
:103B5000081000400C1100401011004044110040BA
:103B6000481100405C110040840E0020880E0020A7
:103B70003C1100407A0E00207C0E002024100040F2
:103B800000F0014001F010F8FEF75EFDFEF704FDC5
:103B9000022301202B70FEF7E5FD207801F0D7FA13
:103BA00000B2840000F0CAF9FF2C28BFFF24E0B265
:103BB00000F0ABFF00F084F8A6E7024B024A40F6A3
:103BC0004C2110E50C87000035890000F8B5084F3E
:103BD00005460E46002457F8243033B131462846B6
:103BE000984718B10134032CF5D10120F8BD00BF6E
:103BF000408A0000FEF700BBF8B5084F05460E46A8
:103C0000002457F8243033B131462846984718B17C
:103C10000134032CF5D10120F8BD00BF4C8A00000F
:103C200070B5074E0546002456F824302BB12846BF
:103C3000984718B10134032CF6D1012070BD00BFA4
:103C4000588A0000124A10B51446D2E84F3FDBB242
:103C5000012B0AD013D3022B0DD1012815D00D4B07
:103C60000D4A5A210D4801F09FFD02280DD00C4B42
:103C7000094A5F21F6E70B4B074A6421F2E7034646
:103C8000C4E8413F0029E0D110BD0023F8E700BFA0
:103C9000900E0020A98C0000648A0000C18C0000F6
:103CA000188D00000C870000034B00221A70034B94
:103CB000FF221A70704700BF8F0E00208E0E00206A
:103CC00008B50B4B1A78120606D50A4B0A4A40F281
:103CD00061110A4801F068FD094A127822B9094BBE
:103CE000054A4FF4B171F4E7FF221A7008BD00BF16
:103CF0008E0E0020528C00000E8B0000C18C000044
:103D00008F0E0020828C000008B512494B68C3F367
:103D10000803DBB10F2B06D80F4B104A10484FF4A5
:103D2000BC7101F041FD103BDBB25AB2002ABBBFAF
:103D300003F00F03043B02F160435B18AABF03F5D5
:103D40006143187E93F80003400908BD4FF0FF302F
:103D5000FBE700BF00ED00E0AB8B0000378B0000FD
:103D6000C18C000038B504461B4D68B92B785BB197
:103D7000FFF7CAFF194B1B78B0F1FF3F08BF7F2048
:103D80005BB240B2834224D1D5E84F3FDBB2FF2B78
:103D900005D1134B134A1448D62101F005FD013318
:103DA000DBB2C5E8423F002AEED100F047FD01201A
:103DB00001F002F918B10D4B0222C3F88020BFF3C5
:103DC0004F8FBFF36F8F0A4A13780133DBB2137042
:103DD0000124204638BD00BF8F0E00208E0E00202B
:103DE0006E8B00008A8A0000C18C000000E100E0B8
:103DF0008D0E00200020FFF7B5BF000008B50120A0
:103E0000FFF7B0FF30B9044B044A05484FF4A371E3
:103E100001F0CAFC08BD00BFDD8B0000B78A0000BE
:103E2000C18C00002DE9F047364E337803F0FF05D2
:103E30002BB9354B354AF021354801F0B5FC012D41
:103E400009D1344A0023D2E84F4FC2E8413F00294C
:103E5000F9D1E4B200E00024DFF8D8902E4FCA4632
:103E600099F80080012D5FFA88F81CD13B781BB1CE
:103E70002A4B264AFE21DFE7012C3D7006D007D3EE
:103E8000022C1CD0264B274A9021D5E7FFF71CF8BF
:103E9000012001F091F810B1234B02221A6000F0CA
:103EA000DDFC00233B706A1ED2B2D6E84F3FDBB286
:103EB0009D4207D01D4B154A4FF48671BCE7FFF7B2
:103EC000D9F8E5E7C6E8432F002BEED1012D17D135
:103ED000104AD2E84F4FC2E8413F0029F9D114F00F
:103EE000FF0403D19AF80030434509D00020FFF7C2
:103EF00039FF0028B4D10E4B044A4FF48D719BE773
:103F0000BDE8F0878F0E00207E8B0000A18A0000A4
:103F1000C18C0000900E00208C0E0020868B0000CB
:103F20000C870000798A000000E100E0998B000016
:103F3000588700008D0E0020FFF774BF10B50E4C9F
:103F40002378FF2B06D00D4B0D4A4FF4AC710D4872
:103F500001F02AFC0C4B1B7823B90C4B084A40F2A9
:103F60005911F4E7FFF7D0FEB0F1FF3F08BF7F2003
:103F700040B2207010BD00BF8E0E0020F68B0000F6
:103F8000E48A0000C18C00008F0E0020828C0000AB
:103F900010B50020FFF7E6FE044640B1074B1B7842
:103FA0002BB9FEF791FFBDE81040FFF73BBF0120A2
:103FB000FFF748FE002CF6D110BD00BF900E002088
:103FC00010B50020FFF7CEFE044640B1074B1B782A
:103FD0002BB9FFF74FF8BDE81040FFF723BF0220D1
:103FE000FFF730FE002CF6D110BD00BF900E002070
:103FF00070B501F067FF0D4B0D4D1A78012393400A
:10400000002690FBF3F404FB13040A4BAB60EE6054
:1040100001F0CEFAE3B24FF4A074634328606B6002
:1040200031462846BDE8704001F0CEBA910E00201E
:10403000940E00207540000010B50B4A0B49137810
:104040000133DBB213700A78042A9CBF01320A7074
:10405000032B4FF0000403D8FFF7CAFF204610BD22
:10406000034B01201C70FAE7930E0020910E0020F4
:10407000920E002013B50B4C23788BB10A4B0193A1
:104080000A4A0123009312680321002000F0FDFD7D
:1040900030B9237823B102B0BDE81040FFF7CCBFA0
:1040A00002B010BD920E0020B1400000A80E00200A
:1040B00040B9054B1B78022B04D9044B0121186829
:1040C00000F021BD704700BF930E0020A80E002015
:1040D00008B50B4B1A782AB10A4B0B4A0B48B7218B
:1040E00001F062FB0A4908600A490A700A4A032182
:1040F000117001221A70BDE80840FFF779BF00BFB8
:10410000920E00206A8D00002E8D0000828D00002E
:10411000A80E0020930E0020910E0020012910B55A
:1041200006D8064C30B1064801F0B2FA00232370DD
:10413000012002E0207880F0010010BD920E0020E6
:10414000940E0020054B1B68834204D1044B1B785E
:104150000BB1FFF771BF0120704700BFA80E002010
:10416000920E002008B5094B1B6883420BD108480A
:1041700001F098FA28B1074B074A0848F82101F0E6
:1041800013FB074B1870012008BD00BFA80E0020CC
:10419000940E0020DD8D0000478D0000828D000010
:1041A000920E002070470000024B0721186800F0B3
:1041B000AABC00BFB00E002008B9FFF7F5BF7047DA
:1041C00070B5154C154622681ABBE9B9E63B134A8F
:1041D0009DF810601170124A2060167002784078C5
:1041E00006325200800648BF3632120179B92E32AB
:1041F000284692B2194600F0F9FE054610B9FFF7BD
:10420000D3FF2560284670BDA3F5BD73DFE7D63226
:10421000EEE70025F6E700BFB00E0020AC0E002050
:10422000AD0E002013B5104C23682BB90F4B104A6C
:104230001048892101F0B8FA0F4B187800F0BAFC49
:1042400000F033FD68B10D4B0D4A1B78019201203F
:1042500000902268052100F018FD0023236002B0C1
:1042600010BDFFF7A1FFF8E7B00E00205B8E000045
:104270000A8E00006F8E0000AD0E0020AC0E0020F4
:10428000B941000010B5074C23682BB9064B074A0B
:104290000748A22101F088FAFFF786FF0023236078
:1042A00010BD00BFB00E00205B8E0000338E0000FA
:1042B0006F8E000070B5837803F00C03082B054661
:1042C0000C46164604D00C2B11D02BB1012070BD2A
:1042D000082323700020FAE700F05EFC00B946B91D
:1042E000AB7803F0C003802BF2D0C02BEED10E23AD
:1042F000EFE70320EBE7000073B5061D054600F06D
:1043000091FC02220146304601F0DAFA10B9012090
:1043100002B070BD0D4B02221C88ADF8004069460A
:10432000304601F0CDFA0028F1D06B785B070BD155
:1043300000F078FC022201A9ADF8044001F0C0FAB7
:10434000B0FA80F04009E3E70020E1E7CE8E0000FC
:1043500037B50B78082B044642D00E2B65D0032BC3
:104360006DD10378053B7A2B0FD84278837802F021
:10437000070203F03003072A07D8DFE802F004043D
:10438000040406080E0E302B07D1012011E0002B8B
:10439000FBD12046FFF78EFF0BE0012000FA02F56B
:1043A00015F02F0F3FD0102BF3D0202B03D0002B74
:1043B000EFD003B030BD072AE7D801A353F822F0AD
:1043C0009343000093430000934300009343000095
:1043D0008B4300008B43000027440000274400006B
:1043E000FFF78AFF08B90320E3E700F033FCA51DBF
:1043F00001460222284601F063FAA0B1134B1B8844
:10440000ADF80430022201A9284601F059FA50B152
:1044100063785B0707D0A37813F00C0FE3D100F0AB
:10442000BBFB0028DFD00020C3E7FFF765FF0028B3
:10443000D9D000F003FC08220146A01DE5E7044B9B
:10444000044A05484FF4E17101F0AEF9CE8E000048
:104450000C870000D08E0000ED8E00007047000039
:10446000014B01221A607047108000400B4BD3F8BB
:10447000042522F00302C3F80425D3F8082542F0EE
:104480000302C3F80825D3F8102522F00F0242F0EA
:104490000402C3F8102501221A6070470080004012
:1044A000014B01221A60704710800040004870479D
:1044B00048800040054B064901221A60054AD2F89F
:1044C0004435013B0B60C2F84835704744800040DA
:1044D000B40E00200080004008B5094BD3F84835E1
:1044E00028B9084B084A09487A2101F05DF9084AC1
:1044F00012689A4216BF03600020012008BD00BF69
:1045000000800040698F0000478F00007D8F000011
:10451000B40E0020004870474C800040014BD3F897
:104520004C05704700800040F8B51F4B440B44EA2F
:10453000C144A4FB03454A0B03FB02552E0F220F77
:1045400042EA051243F60957750245EAD25554026C
:10455000A2FB0723801A07FB063361EB0301064623
:104560000F4612480021B94208BFB04205D2104B95
:10457000104A1148842101F017F9104840F23141E6
:10458000714300FB0711A6FB00674FF0FF303218A4
:104590000F4447F6FF7147EB0103DE0B002730198C
:1045A00047EB0501F8BD00BFD07B6308452C160022
:1045B000DE8F000038900000EC8F00007B2DE8BDFE
:1045C0002DE9F84F2A4C060104EB060C0F46294949
:1045D0000546DCF80400C1F80803DCF80C00C1F85B
:1045E0004403D3E900018742034638D9A7EB000C06
:1045F000BCF1000F33DA003041F1FF31D2198946A6
:104600004FF000084FF0000141F1000318EB0200E9
:1046100049EB0301FFF788FF43F6095EA0FB0E2379
:1046200040F2FF1818EB020A0EFB01334FF00009AD
:1046300049EB030B104F4FEA5A2343EACB5347F899
:10464000353007EBC50CA3594FEA5B22CCF80420A8
:1046500003F5A873074A42F82300BDE8F88F9F428C
:10466000CCD2DB1B002BC9DA003041F10101C5E7D8
:104670006890000000400240C80E002000F1402079
:1046800000F50030002382B0036003680193019BB2
:1046900002B07047274B37B519460120D3E84F2F9A
:1046A000D2B28DF807209DF8072052B1BFF32F8FAB
:1046B000214B1A68214B002A37D018680230400875
:1046C00031E0C3E8420F002AE8D11D4B0222C3F8B3
:1046D0000823BFF35F8F03F58273184A1B684BB141
:1046E000136801331360BFF35F8F4FF48270FFF7DD
:1046F000C5FF01231068124C022501304008C4F8A0
:104700000453BFF35F8F00240C7063B11368D907A3
:1047100006D40C4B0C4A0D484FF4877101F044F855
:1047200013680133136003B030BD1A68D207C4D4D4
:104730001868C4E7C00E002004410240C40E0020E7
:10474000004002408890000053900000A0900000BC
:104750002DE9F04180460E46FFF79CFF0746BFF368
:104760005F8F084DD5F80445BFF35F8FFFF792FFC9
:10477000C8F80000874218BFD5F804453460BDE88A
:10478000F08100BF0040024007B501A96846FFF76D
:10479000DFFF019843F6095140F2FF120023E1FBCD
:1047A0000023500A40EAC350590A009A024BE3FB27
:1047B000020103B05DF804FB0080841E194A002347
:1047C00010B51360184A194C00200021C2E90001FD
:1047D000174A23701360FDF753FD2378002BFCD09C
:1047E000144BC02283F824231022C3F884215A607A
:1047F000114A0023C2F808354FF48270FFF73EFFDC
:104800000223C2F84433C2F804334FF48033C2F8B1
:1048100008334FF4A070C2F84833FFF72FFF01238D
:10482000136010BDC40E0020C80E0020B80E00207A
:10483000BC0E002000E100E000400240054B5A6839
:10484000D20642BF044A012111601022C3F884201D
:10485000704700BF00E100E0BC0E0020044B1A6866
:1048600022B100221A60034B10225A60704700BF29
:10487000BC0E002000E100E008B5FFF785FF08BD91
:104880001F207047F0B585B006460F46684601A95F
:10489000FFF75EFF019A43F6095340F2FF1400252B
:1048A000E3FB0245600A009A1B4B40EAC550690AC7
:1048B000E3FB020104AB63E902013A463146002002
:1048C000FFF77EFE154B019AD3F804359A4203D0C8
:1048D000FFF75AFFCDE90201DDE902231049D1E9D2
:1048E000000112F13E0443F100058D4208BF8442ED
:1048F0000A4A4FF480310BD34FF4A070FFF7BEFE8D
:10490000C2F84813C2F8081300F0E4FE05B0F0BD89
:10491000C2F80413FAE700BF0080841E0040024082
:10492000C80E0020054B4FF48032C3F848234FF4E3
:10493000A070C3F80823FFF7A1BE00BF00400240EB
:10494000F0B5164F164E85B040F2FF1400256946AB
:1049500001A8FFF7FDFE009A43F6095320462946B9
:10496000E3FB0201420A42EAC1524B0A0199E7FB0A
:1049700001231046194604AB63E902013E220146B9
:104980000120FFF71DFE4FF40033C6F80433D6F8BC
:104990000435009A9A42DAD105B0F0BD0080841E39
:1049A0000040024037B504460D46FFF7EDFE02AB6E
:1049B00063E902012A4621460120FFF701FE034B6D
:1049C0004FF40032C3F8042303B030BD004002406E
:1049D000054B4FF40032C3F848234FF4A270C3F8DC
:1049E0000823FFF74BBE00BF0040024008B5134B41
:1049F00001221A60124A4FF48033C2F808334FF490
:104A0000A070C2F84833FFF739FE0223C2F808331A
:104A10004FF48270C2F84833FFF730FEFFF7D8FF3B
:104A2000084B1022C3F88420C3F88421002283F8A5
:104A30002423BDE80840FDF729BC00BF0440024024
:104A40000040024000E100E000487047444102405D
:104A5000014B9868704700BFC80E0020014B01222F
:104A60001A707047B80E002010B51D4B1D4C1B6806
:104A700023B10223C4F80833FFF70CFED4F8043343
:104A8000DA0317D5184B1B68A3B14FF4A070FFF7DA
:104A9000F5FDFFF779FE154BD3E90023994208BFD6
:104AA000904207D34FF48033C4F84833C4F8083336
:104AB00000F010FE0B4AD2F804339B030ED50C4BCA
:104AC0001B685BB14FF4A270FFF7D8FD4FF40033C1
:104AD000C2F84833C2F8083300F02EFC10BD00BF06
:104AE000044102400040024040410240C80E002004
:104AF000444102407047D2B2FDF7DFB9FCF774B908
:104B0000DBB2FCF713B9FCF759B9FCF727B9FDF78D
:104B1000E2B9FCF73BB9FDF7DFB9000010B5114C65
:104B2000637C03F0FE0343F002030B2203F0FB035C
:104B300062F3C703FF210222601C637400F0F3FEDE
:104B4000FE23E3700822FF230021601D237100F083
:104B5000EAFE002363731423A373E3730223237415
:104B600010BD00BFD80E0020024B587C00F00100A1
:104B7000704700BFD80E0020024B5A7C60F3000241
:104B80005A747047D80E0020024B587CC0F3400086
:104B9000704700BFD80E0020024B587CC0F3800045
:104BA000704700BFD80E0020014B587CC0087047EA
:104BB000D80E0020024B5A7C60F3C7025A7470472B
:104BC000D80E0020014B93F900007047D80E00204A
:104BD000F0B5124B85B06A46054603F10807164644
:104BE00018685968144603C40833BB422246F7D1FB
:104BF000186899889B792060092DA180A3710BDC2E
:104C00000022B356AB4203DA01320F2AF9D12B4608
:104C1000034A137005B0F0BD0923F9E707910000BE
:104C2000D80E002000487047D90E0020014602220D
:104C3000014800F054BE00BFD90E00200048704764
:104C4000DD0E002001460822014800F048BE00BFEA
:104C5000DD0E002000487047DB0E002001460222D6
:104C6000014800F03CBE00BFDB0E002004220149D9
:104C700000F035BEE50E0020704700F05BB97047CC
:104C80007047FEF7B5BAFEF7F1BA10B49DF80440CC
:104C900001945DF8044BFEF715BBFEF74FBBFEF722
:104CA00071BBFEF789BBFEF7B1BBFEF70FBC00007E
:104CB000064B1B78082B07D1054B1B6813F00F0F11
:104CC0000CBF01200020704700207047E00F00F06B
:104CD000E40F00F008B5FFF7EBFF0C4AA0B10C4B56
:104CE0001B6813F0F00308D10A4B1B6813F0F003A4
:104CF0000AD1137008BD0123FBE7102B04D1054B2B
:104D00001B6813F0F00FF6D00223F2E7200000201A
:104D1000E80F00F0EC0F00F008B5064B187810B162
:104D2000022801D8012008BD034B044A0448802111
:104D300000F03AFD200000200C87000016910000D2
:104D40003B910000064B00221A70064B1A78022A8B
:104D500004D15B78022B01D1FFF764BAFFF792BA56
:104D6000F00E0020FC0E002008B5034A034B044857
:104D70009C2100F019FD00BF979100004A920000AD
:104D80007692000008B50B4B02221844D0E84F3F42
:104D9000DBB2022B05D1084B084A09485F2100F01D
:104DA00003FD13B9BFF32F8F08BDC0E8432F002BBD
:104DB000ECD1F9E7FC0E0020249200008A9100005B
:104DC00076920000F8B51B4D1B4E2F460122D5E808
:104DD0004F3F13F0FF0F07D0BFF32F8F164A137802
:104DE0000133DBB21370F8BDC5E8432F002BEED1C1
:104DF000BFF35F8F114A347811780229E4B203D1EE
:104E000053789A1E534253410D4A12783AB10D4AD3
:104E10001178994203D013704BB1FFF7B9F8BFF383
:104E20005F8F00233B703378A342CFD1DBE7FFF7DE
:104E3000C7F8F4E7FA0E0020FB0E0020FC0E00205D
:104E4000F80E0020F90E0020124B10B501221C466E
:104E5000D3E84F1F11F0FF0F0BD0BFF32F8F0123AB
:104E6000621CD2E84F2F12F0FF0F09D0BFF32F8F33
:104E700010BDC3E8412F0029EAD1FDF7F9F9EEE7AB
:104E8000611CC1E8423F002AEAD1BDE8104000F0B1
:104E900045BC00BFFC0E002008B5FFF7D5FF084B4E
:104EA00008481B680360084B1B684360074B83601E
:104EB0000023C3600121BDE8084000F085BB00BFAE
:104EC000F40E0020000F0020EC0E0020454D0000E5
:104ED00008B500F01BFC064A00231370054A137046
:104EE000054A1370054A1370054A1370537008BDC4
:104EF000FA0E0020F90E0020F80E0020F00E00201F
:104F0000FC0E002008B5034800F0C2FBBDE80840D5
:104F100000F002BC000F002008B5054B01221A70FA
:104F2000BFF35F8FFFF790FFBDE80840FFF74ABF70
:104F3000F80E002070B5BFF35F8F194B00221A7076
:104F400000F036FB174B1E68174B05461C6800F037
:104F500031FB164B1B7823B9154C237883B9FFF727
:104F600003FFA4F59674221A3146284600F024FB6C
:104F70000028F1D1FFF726FF0E4B00221A7070BDFA
:104F800000252570BFF32F8FFDF778F96378002B8C
:104F9000E5D06570BFF32F8F00F0D8FBEAE700BFC4
:104FA000F80E0020F40E0020EC0E0020F00E002081
:104FB000FC0E0020F90E0020012808B506D9064B8A
:104FC000064A07484FF4B97100F0EEFB054B185C38
:104FD000831E5842584108BD0F920000A491000062
:104FE00076920000FC0E002000F0C6BB2DE9F84FC1
:104FF0000E46054600F0DCFA294C82462046A6F50E
:10500000967B00F04FFB30B1264B274A40F28511CA
:10501000264800F0C9FBDFF8B08098F80090B9F19D
:10502000000F04D0224B204A4FF4C371F0E75A46D8
:105030002946504600F0C0FA074638B91D4B1A7889
:105040000AB15B789BB93846BDE8F88F012388F830
:105050000030194B1D60194B1E60194B4946204604
:10506000C4E9005BC4E9023900F0AEFAEBE732466E
:105070002946504600F0A0FA81460028E3D00E4BA6
:105080001D600E4B1E600F4B01212046C4E9023704
:1050900088F80010C4E900564F4600F095FAD2E7B0
:1050A000000F0020DD8D0000C59100007692000009
:1050B000EE910000FC0E0020F40E0020EC0E00200B
:1050C000994E0000454D0000F00E002000F068BB36
:1050D00008B50120FFF756FEBDE80840FFF772BE95
:1050E00008B50020FFF74EFEBDE80840FFF76ABE96
:1050F00008B500F05BF810F11D0F0FDB10F1090F80
:105100000EDB0A280EDD1E280EDD32280EDD4728B4
:10511000B4BF6FF001006FF0020008BD0320FCE790
:105120000220FAE70120F8E70020F6E74FF0FF3011
:10513000F3E710B50446FFF7DBFF2044C0B210BD13
:1051400010B50446FFF7D4FF201AC0B210BD10B549
:105150000446FFF7CDFF201AC0B210BD10B50446BB
:10516000FFF7C6FF201AC0B210BD0000054800239B
:1051700001211A188133B3F5016F82F88010F8D13C
:10518000704700BF3C0F00200649002303EBC3100B
:10519000084490F880201AB90133102BF6D110463C
:1051A000704700BF3C0F00207047704714207047C5
:1051B0000E4A002310B513600D4A1370FFF74EF925
:1051C000FFF742FC0446FFF771F90A4B4FF4005217
:1051D000C3F87845C3F87C05C3F80425D3F8042840
:1051E00042F48042C3F8042810BD00BF140F002011
:1051F000180F002000F0014008B5FFF731F9094B06
:105200004FF40052C3F8082501210022C3F8782585
:10521000C3F87C25D960C3F88025C3F88425C3F87A
:10522000482908BD00F0014008B5054B00221A705E
:10523000FFF71CF9FFF73EF9BDE80840FFF780BB18
:10524000240F002008B5FFF72BF9BDE80840FFF751
:10525000BFBB000010B50446FFF75CF9054B064ADA
:10526000C3F88045C3F88405C3F8482901229A6031
:1052700010BD00BF00F001400CF001402DE9F84FD7
:10528000054628B9254B264A26488B2100F08CFA82
:10529000254B1B7803F0FF0883B3FFF73FF9234B3F
:1052A000234A5C68041B1078994610B3214B196897
:1052B000CB1711F5800AA4FB016743F1000B11F530
:1052C000800F04FB0377ACBF00210121B1EBD77F36
:1052D0004FEADB7C15D01AEB0C004BF100014910B2
:1052E0004FEA3000301A52465B4667EB010102F08C
:1052F000C1F9D9F800301C44201A28604046BDE8A6
:10530000F88F1AEB0C004BF1000149104FEA300006
:10531000801952465B467941E9E700BF698F00007A
:10532000C1920000E6920000240F00201C0F002014
:10533000180F0020140F002073B501A8FFF7CCF858
:10534000002849D0274E284C284DFFF781FB3378A1
:10535000009023B322686168801A019A521A121AC7
:1053600000F500134FEA935349BF022002EB5302AA
:1053700093FBF0F0121A92FBF3F22B781C494BB31B
:105380000B68C3EBC3039B1848BF043B4FF00802F4
:1053900058BF043393FBF2F30B6001232B700023FF
:1053A0003370BFF35F8F02AB13E9030084E803009F
:1053B000BFF35F8F01233370FFF77CF82B782068F1
:1053C000002B14BF4FF080514FF48001FFF7EAFA31
:1053D00002B070BD0A60E0E7FFF76CF8FFF7B0FAC3
:1053E000F6E700BF240F00201C0F0020180F00203C
:1053F000140F002082B00122D0E84F3FDBB28DF8BD
:1054000007309DF8073023B1BFF32F8F002002B083
:105410007047C0E8432F002BEED1BFF35F8F012010
:10542000F5E70000094A82B0D2E84F3FDBB28DF8C1
:1054300007309DF807300133DBB2C2E8413F002955
:10544000F2D1BFF35F8F02B0704700BF260F00207C
:105450002DE9F34190B12E4FDFF8C8C04FF0000E98
:10546000B8463978CDF804E0C9B2624652E8004F38
:1054700054B1A04230D004F11002F7E7254B264A80
:10548000B521264800F090F9234698F800508D4247
:10549000E7D1984222D103690193DCF800308342BE
:1054A00024D1019B002B15BF0025012501260026D4
:1054B000019B42E800310029D3D1FFF7B3FF0CB3C1
:1054C000034603F1100252E8002F934214D1144B0B
:1054D000114A40F20511D4E70346D6E7BFF32F8FF8
:1054E0003CB904F0010002B0BDE8F08100252E4671
:1054F000DEE700252E46E4E703F1100040E8002136
:105500000029DED1002E0CBF2C460124E9E700BFA4
:10551000260F00209D93000038930000AD930000FB
:105520000F940000280F00202DE9F0410F4E104F7E
:10553000B04635780F483C68EDB2FFF75BFF38B1F5
:1055400064B9FFF7EFF9BFF35F8F0A4B00221A70BF
:1055500098F80030AB42ECD1BDE8F0813B682068A0
:105560006168A342EFD1FFF78DF9ECE7260F002029
:10557000280F0020270F0020044A00231360044A4C
:105580001370044A1370044A13707047280F0020E8
:10559000270F0020250F0020260F002008B5FFF759
:1055A000C1F9024B00221A6008BD00BF280F00207D
:1055B000FFF762B9FFF764B9101A08440028D4BF96
:1055C0000020012070470000F8B5044630B9284B90
:1055D000284A40F23111284800F0E6F8836823B9E0
:1055E000264B244A4FF49971F5E729B1FFF748F9A2
:1055F0006368013B034463602046FFF729FF08B15D
:10560000FFF792FF1E4E1F4DB44630782946C0B2B8
:1056100051E8003F9C4204D11B4B164A40F24D1109
:10562000D9E75BB1D4E900273A441F68D21B5F6811
:10563000D21B002A02DB03F11001E9E79CF80020ED
:105640008242E2D1A34204D1104B0A4A4FF4B37113
:10565000C1E7236141E80043002BD6D1FFF7E2FE0A
:105660002B68A34203D1BDE8F840FFF75DBFF8BD4A
:105670009D93000045930000AD93000060930000EF
:10568000260F0020280F00207A9300008B93000043
:1056900008B5FFF7DDFE18B1BDE80840FFF744BFCD
:1056A00008BD000070B5094B09491E680D460A780F
:1056B0003346D2B223B92C789442F8D1184670BD43
:1056C000834201D01B69F5E70123F4E7280F00208E
:1056D000260F002038B50B48FFF78CFE70B10A4B3F
:1056E000186830B1D0E90245FFF7B2FE0CB1284688
:1056F000A047BFF35F8F034B00221A70BDE838400C
:10570000FFF712BF250F0020280F0020014B0022B9
:105710001A7070472C0F00207047000008B5074B27
:105720001A782AB1064B074A07483B2100F03CF89B
:1057300001221A70BDE80840FFF7CABC2C0F0020F8
:105740007C940000259400008A94000008B5064B64
:105750001A782AB9054B064A0648432100F024F876
:1057600000221A7008BD00BF2C0F00207D9400009D
:10577000449400008A94000008B5054B1B782BB9AF
:10578000044B054A05484C2100F00EF8012008BDE5
:105790002C0F00207D940000629400008A94000089
:1057A0004FF0FF30704700001FB51C46094B1B68C7
:1057B0000546D86852B1084B0091CDE9013207493E
:1057C0002B46224600F022F800F066FD044B1A46F4
:1057D000F2E700BF24000020E0940000ED940000F8
:1057E0005A7B000008B5074B044613B10021AFF304
:1057F0000080054B1868836A03B19847204601F082
:1058000037FF00BF000000001C9500000EB403B578
:10581000014603AB054853F8042B0068019300F0E0
:10582000B3F802B05DF804EB03B070472400002029
:1058300070B50D4E0D4CA41BA4100025A54209D136
:105840000B4E0C4C02F0CEF8A41BA4100025A54270
:1058500005D170BD56F8253098470135EEE756F86A
:10586000253098470135F2E7F4010020F4010020CB
:10587000F4010020F8010020D0F8EC00704700008F
:10588000044B054A1B681B6A002B08BF1346D3F85C
:10589000EC007047240000208800002082B001B98D
:1058A00001A942B14BB113780B601278101C18BFDC
:1058B000012002B070471046FBE76FF00100F8E7E7
:1058C00030B50024A24201D1002007E0035D01347D
:1058D0000D1915F8015CAB42F4D0581B30BD10B562
:1058E000431E0A44914200D110BD11F8014B03F848
:1058F000014FF7E7884210B501EB020307D8421EBB
:1059000099420AD011F8014B02F8014FF8E783429F
:10591000F5D98118D21AD34200D110BD13F8014D28
:1059200001F8014DF7E702440346934200D1704766
:1059300003F8011BF9E79368013B002B10B4936057
:1059400008DA9469A34201DB0A2903D15DF8044B0C
:1059500000F0C2BB1368581C1060197008465DF84F
:10596000044B7047F8B506460F461446D518AC42AE
:1059700001D1002007E03A4614F8011B3046FFF73A
:10598000DAFF431CF3D1F8BD2DE9F04F0C469DB072
:1059900017461D46064618B183690BB900F084FD11
:1059A0007C4B9C4258D17468A38918075ED5236943
:1059B000002B5BD00023099320238DF8293030235E
:1059C0008DF82A3003954FF0010BB846454615F87F
:1059D000013B0BB1252B54D1B8EB070A0BD0534632
:1059E0003A4621463046FFF7BDFF013000F0C28045
:1059F000099B5344099398F80030002B00F0BA80BB
:105A000000234FF0FF32CDE90523049307938DF86F
:105A100053301A93A846052218F8011B5E4800F07F
:105A20004FFE049B78BBD90644BF20228DF853203B
:105A30001A0744BF2B228DF853202A782A2A2AD00D
:105A4000079AA84600200A25414611F8013B303B41
:105A5000092B69D960B324E0504B9C4201D1B46852
:105A6000A2E74F4B9C4208BFF4689DE721463046B1
:105A700000F0A4FB00289DD04FF0FF301DB0BDE822
:105A8000F08FA846A2E7444A801A0BFA00F01843A8
:105A900004904546BEE7039A111D12680391002A3F
:105AA00001DB079204E0524243F0020307920493A1
:105AB00098F800302E2B0ED198F801302A2B38D1CF
:105AC000039B1A1D1B680392002BB8BF4FF0FF33D6
:105AD00008F102080593334D98F800100322284678
