:020000040000FA
:1000000010900020D54A0000711A0100C14A00007A
:10001000C14A0000C14A0000C14A0000C14A0000B4
:10002000000000000000000000000000A14C0000E3
:10003000C14A000000000000354C0000C14A000029
:10004000854E0000854E0000854E0000854E000064
:10005000854E0000854E0000854E0000854E000054
:10006000854E0000854E0000854E0000854E000044
:10007000854E0000854E0000854E0000854E000034
:10008000854E0000854E0000854E0000854E000024
:10009000854E0000854E0000854E0000854E000014
:1000A000854E0000854E0000854E0000854E000004
:1000B000854E0000854E0000854E0000854E0000F4
:1000C000854E0000854E0000854E0000854E0000E4
:1000D000854E0000854E0000854E0000854E0000D4
:1000E000854E0000854E0000854E0000854E0000C4
:1000F000854E0000854E0000854E0000854E0000B4
:10010000854E0000854E0000854E0000854E0000A3
:10011000854E0000854E0000854E0000854E000093
:10012000854E0000854E0000854E0000854E000083
:10013000854E0000854E0000854E0000854E000073
:10014000854E0000854E0000854E0000854E000063
:10015000854E0000FFFFFFFF7BB972B90029BEBFCB
:1001600000204FF0004106E008BF00281CBF6FF0E0
:1001700000414FF0FF3000F057B8ADF1080C6DE9C9
:1001800004CE002909DB002B1ADB00F04FF8DDF864
:1001900004E0DDE9022304B07047404261EB410115
:1001A000002B1BDB00F042F8DDF804E0DDE9022360
:1001B00004B0404261EB4101524263EB430370479C
:1001C000524263EB430300F031F8DDF804E0DDE96F
:1001D000022304B0404261EB41017047524263EB9D
:1001E000430300F023F8DDF804E0DDE9022304B066
:1001F000524263EB4303704753B94AB9002908BF21
:1002000000281CBF4FF0FF314FF0FF3000F00CB85A
:10021000ADF1080C6DE904CE00F008F8DDF804E05B
:10022000DDE9022304B07047704700BF2DE9F047B5
:1002300086468C460846089E154674461946002B8D
:1002400040F0C1808542B2FA82F245D94AB1C2F18A
:10025000200300FA02FC954094402EFA03F343EA8F
:100260000C0C4FEA154EA8B2230CBCFBFEF80EFB9B
:1002700018CC08FB00F943EA0C43994528D9EB1840
:1002800008F1FF3704D2994502D9A8F102072B449F
:10029000A3EB0903A4B2B3FBFEFC0EFB1C330CFB67
:1002A00000F044EA0344A04214D92C190CF1FF33A6
:1002B00004D2A04202D9ACF102032C44241A43EA2E
:1002C00007401EB1D440002334607360BDE8F0875E
:1002D0004746DDE76346F1E792BB431B01214FEA46
:1002E000154EAFB2200CB3FBFEFC0EFB1C330CFB17
:1002F00007F840EA0343984561D9EB180CF1FF3049
:1003000004D2984502D9ACF102002B44A3EB0803B8
:10031000A4B2B3FBFEFC0EFB1C330CFB07F744EA54
:100320000344A7424DD92C190CF1FF3304D2A74244
:1003300002D9ACF102032C44E41B43EA0040C0E7BD
:10034000C2F120039540944020FA03F12EFA03F302
:100350004FEA154E9040AFB20343B1FBFEFC0EFBDB
:100360001C10190C0CFB07F841EA0041884522D902
:1003700069180CF1FF3004D2884502D9ACF10200B3
:100380002944A1EB08019BB2B1FBFEFC0EFB1C1142
:100390000CFB07F743EA01439F420ED9EB180CF11F
:1003A000FF3104D29F4202D9ACF102012B44DB1B86
:1003B00041EA004193E76046E3E76146F7E76046BC
:1003C000A4E76346B8E7834206D916B90021084678
:1003D0007CE7C6E900E0F9E7B3FA83F78FB9834217
:1003E00001D3724508D8BEEB020460EB0303012081
:1003F0009C461EB9002169E73846FAE7C6E9004C79
:10040000F8E7C7F1200CBB400EFA07F522FA0CF40E
:100410002EFA0CF1BA401C4320FA0CF3B8404FEA14
:10042000144901431FFA84FEB3FBF9F809FB1830A5
:100430000B0C08FB0EFA43EA00439A4540D9E31837
:1004400008F1FF3004D29A4502D9A8F102002344F2
:10045000A3EB0A0389B2B3FBF9F809FB183308FBD5
:100460000EFE41EA03418E452CD9611808F1FF3395
:1004700004D28E4502D9A8F10203214443EA004088
:10048000A1EB0E01A0FB02984145CE46434602D3A4
:1004900006D14D4504D20138B9EB020E68EB0403D6
:1004A000002EA7D0B5EB0E0261EB030101FA0CFCA4
:1004B00022FA07F3F9404CEA0303C6E9003199E751
:1004C0004046C5E74346D9E710F8012B11F8013B38
:1004D000012A28BF9A42F7D0D01A7047034611F874
:1004E000012B03F8012B002AF9D17047034613F8BA
:1004F000012B002AFBD1181A0138704700000000B8
:100500002DE9F04706460F4690468AB013F0E7FF04
:100510004FF47A73A0FB034503FB0155E40B012F55
:1005200044EA45444FEAD53508D108213046CDE9A3
:100530000045294A10F093FC002013E0D8F804701D
:1005400026483946FFF7C0FF78B139462448FFF7FF
:10055000BBFF50B130463B460121224A10F07FFCE0
:100560006FF004000AB0BDE8F087204618A3D3E975
:1005700000232946FFF7F0FD05460C4610461946B4
:10058000194A0023FFF7E8FD80460F46104619463A
:100590004EF660220023FFF7DFFD824689461046B3
:1005A00019464FF47A720023FFF7D6FDCDE904A96E
:1005B000CDE90601CDE9082308213046CDE90287BF
:1005C000CDE90054094A10F04AFCB5E7AFF30080CA
:1005D000005C2605000000001B5A01002C5A010097
:1005E0002F5A0100385A010080EE36004F5A0100A0
:1005F0002DE9F04315461A7C0E467D2A80461F469B
:100600000469D96885B000F2DC80931C84F8B835A1
:1006100004F2B95014F019FA04F5B46948460BF025
:1006200013F9012E07D9022E4CD06FF0850528460C
:1006300005B0BDE8F0830023ADF80D3095F84A30E1
:1006400006F00106C3F34002C3F380038DF80930BE
:1006500001238DF80B30604B02A993F8643604F542
:10066000B7608DF808208DF80A608DF80C3008F01E
:100670009FFE002844D0584BD3F85C361BB13A4655
:100680000021404698474FF0FF324FF0FF33484675
:100690000BF0B2F894F8622695F84A3062F3410301
:1006A00085F84A3094F86326DBB262F3820385F85A
:1006B0004A3094F83836052B22D8DFE803F0241EA0
:1006C0007F85217F0023ADF80C3095F84A3002A9D0
:1006D000C3F34002C3F380038DF8093001238DF882
:1006E0000A303D4B04F5B76093F864368DF8082066
:1006F0008DF80B3008F00EFEBBE76FF00F0596E7A4
:100700006FF0040593E7D4F84456002D8FD0D4F849
:100710004836D4F84C2613434AD0002200232D78C3
:100720002068CDE90023002329461A4604F0FAFF89
:10073000064600283FD0D4F844162A46013111F06D
:1007400029FD002831DB94F850364FF47A7586F88D
:10075000483094F95136AE339BB2FE2B28BFFE23AE
:1007600086F84930D4F84806D4F84CC6A0FB0501F9
:1007700017A3D3E9002305FB0C11FFF7EDFCC6E935
:100780000801B262304611F064FC314620680FF077
:1007900050F90025304611F02AFCD4F8440608F040
:1007A00057FE0023C4F8443641E76FF00B05F1E72C
:1007B0006FF02205F1E76FF00B05EEE76FF0220511
:1007C00035E76FF0790532E76FF068052FE700BF76
:1007D00000CA9A3B00000000200D0020000000002D
:1007E0002DE9F34706464FF0FF384FF0FF3900F58B
:1007F0007A7A4FF0FF324FF0FF3350460AF0A2FFF3
:10080000436804461F78002339461A46CDE900891B
:10081000306804F087FF61683A460131054611F0FF
:10082000B9FC074670BB237C4FF47A7185F84830D9
:1008300094F91130AE339BB2FE2B28BFFE2385F80E
:100840004930A27C95F84A3062F3000385F84A30BB
:10085000A068D4F80CE0A0FB010C0FA3D3E900239F
:1008600001FB0EC1FFF778FCC5E90801AA62294621
:10087000306800F07BF8002804DB6068676008F0EF
:10088000E7FDB6E700236068636008F0E1FD2846F5
:1008900011F0ADFBADE700BF00CA9A3B00000000BD
:1008A00000214FF4005008B5044BC3E90001044B8C
:1008B00004481B68DB699847002008BD78060020C3
:1008C000FC160020344C010000214FF4004008B514
:1008D000044BC3E90001044B04481B681B6A98479A
:1008E000002008BD78060020FC160020344C0100D2
:1008F00010B5084B0020197881F00101197007F03C
:10090000E5FCBDE81040044B0448D3E900230BF09C
:10091000C5B900BF656500207806002000000020F2
:10092000012910B50B46044604D002290BD008213A
:100930000A4A05E008F084FC082103462046084ADC
:1009400010F08DFA08E0506813F0C4FF054B81B237
:100950001B680548DB689847002010BD005901005E
:10096000D55E0100FC160020344C01002DE9F04F4B
:100970000D4685B0002949D08868002849D0C36851
:10098000002B46D0038A002B43D011F0E1F900265A
:10099000D0F80C90AC68002C34D11F492B6A6A6ADD
:1009A000A3FB013B01FB02BB4FF47A71AA6A95F8E5
:1009B0004880B2FBF1F213EB020A184B95F949702B
:1009C00019784FF0030081F001014BF1000B197011
:1009D00007F07CFCFF233146114A48460FF039F8F6
:1009E000CDE902ABCDE900780E4808210C4B0E4A48
:1009F000006810F034FA284611F0F9FA204605B0E4
:100A0000BDE8F08F238A64681E44C4E76FF01500C8
:100A1000F5E76FF03C00F2E740420F00646500200C
:100A200066650020F8160020225901007FB507F006
:100A300037FC02F053FA0F4B4FF4004218600023CA
:100A40000D490E48C1E900230BF028F918220021B6
:100A5000684614F021F8012309488DF80030094A4E
:100A60008368032113606A469B6A9847002007B099
:100A70005DF804FBF8160020780600200000002036
:100A8000344C0100FC1600202DE9F04107460E46CB
:100A9000154600F08FF8C36804461BB943691A78FD
:100AA000002A41D10023E3606368BB4256F823204B
:100AB00008DB324B6361204600F062F84FF0FF30F4
:100AC000BDE8F081511C616192F80080B8F12D0FF2
:100AD000EFD1911C616151782D29A16004D19278E8
:100AE0006AB901336360E4E749B9244B41462846BB
:100AF000636113F003FF0028DDD0C4F80880D4F848
:100B000008802846414613F0F9FEB8F13A0F6369B0
:100B100000D070B91B7813B9636801336360204655
:100B200000F02EF83F20CBE75A1C42611B7883600F
:100B3000E5E742783A2A0BD0002222611B7813B9EC
:100B4000636801336360204600F01AF8A068B7E7D5
:100B500018786268094928B901329742626004DD59
:100B600056F82230C4E90431EAE761612D78204665
:100B70003A2DD5D100F004F82846A1E77B5B0100AF
:100B80000268074B1A604268064B1A608268064B7F
:100B90001A60C268054B1A600269054B1A607047FB
:100BA000FC000020F8000020081700200417002097
:100BB0000017002000487047E0000020014B1B6830
:100BC000184700BF00010020014B1860704700BFAC
:100BD0000001002030B585B004460D4610220021EA
:100BE000684613F059FF02238DF80230044B2A4661
:100BF0002146684601930EF0C1FC05B030BD00BF30
:100C0000BD0B000080B505460E46174698460BF012
:100C100065FB034613F050FF0446DFF81890424688
:100C200049F8003039463046A84754F8090003F027
:100C3000D1FF00BF080000002DE9F047058B0446F6
:100C40002807904611D4022905F0070540F0CD8011
:100C500020460FF0FFF978B10138218B042811D814
:100C6000DFE800F0C3106D85950001290CBF45F049
:100C7000100545F02005258388F31188BFF36F8F99
:100C8000BDE8F08701F0070AAA4500F0A68000271A
:100C9000B9463E46A368002B00F0BD8041F0080134
:100CA000218388F31188BFF36F8FA168002900F0BA
:100CB000BB800D68002900F0B780334652462046BD
:100CC000D1F80480C047002D76D02B6829461D46F8
:100CD000F0E701F007035A1F012A1BD8002221F078
:100CE0000701062B276889B2C4E9002209D13B46D7
:100CF00003E0628B013262831B68002BF9D141F063
:100D00000201204621830FF0A5F900287BD041F095
:100D1000200177E0042B0AD121F0070189B2204697
:100D200021830FF097F910B141F020012183218B2D
:100D300001F0070AAA4550D00027B946AAE723695F
:100D400021F0070141F00601062DD3F80090218320
:100D50002DD1B9F1000F40D041F00801218388F373
:100D60001188BFF36F8F20463949C84729E021F029
:100D70000701236941F0040189B2042DD3F80490DE
:100D80002183E6D000274FF0040A3E4682E721F097
:100D90000701236941F0050189B2052DD3F80890B8
:100DA0002183D6D000274FF0050A3E4672E7002780
:100DB0004FF0060A3E466DE72B4687E7B9F1000F74
:100DC000D1D14FF02003EFF3118883F31288BFF3E2
:100DD0006F8F238B23F008032383258BEA062ED500
:100DE00025F01003238305F007056669218B002E8B
:100DF000BFF66FAF00232768C4E9003321F0070175
:100E000041F001012183218B4FF0000901F0070A15
:100E1000AA457FF43FAF002F9BD041F0080121830A
:100E200088F31188BFF36F8F002FC7D03D68394614
:100E30003346524620460FF039F92F46F4E7AB0609
:100E40007FF51AAF25F02003238305F00705FFE6A1
:100E5000D9000100044608B54FF02002EFF31183DA
:100E600082F31288BFF36F8F07F0E2F9204603F098
:100E700067FE03480EF019FE03F0C2FFFCE700BF57
:100E80009A590100034A13680BB952681360002095
:100E9000704700BF0401002030B50C460E4985B0F4
:100EA0000291D0F8AC110546CDE9003100F1E00126
:100EB0004FF0FF33204609F08DFE50B9012384F82E
:100EC0006430D5F8A83123B1204605B0BDE83040E4
:100ED000184705B030BD00BF5305010038B50C46BA
:100EE000114605460FF037FB034638B9284604493A
:100EF0000FF031FB03460020236038BD0120FBE7E3
:100F00007B5B01002DE9F04F0123814605694668AE
:100F100085B005F56777D7E8EF2F002A03D1C7E83A
:100F2000E13F0029F7D10CBF1A46002240F0B18002
:100F3000B368B16A05F5E4781C1F10460FF090FB0A
:100F400084425FD8013A00F09E80B2FA82F24FF0FC
:100F50000044D44072682046073222F00302C5F8EC
:100F60006022B16A0FF07CFBC5F86402B36A4046A8
:100F70006343033323F0030302EB4302230103EB38
:100F80004403093323F0030303EBC403C5F85822D9
:100F90001A440832C5F854227368C5F85C42C5F893
:100FA00050323D4BC5E9A963316800F0DFF90446D2
:100FB00030BBD9F804A0D9F81090DAE9073409F564
:100FC000307B012B584608BF103C13F000F900237A
:100FD000DAF8240031494FF4806201EB802100935C
:100FE000584623460AF08CFD09F52C702C4913F065
:100FF000A4F8DAF8140083685C682CB96FF0570421
:10100000002139E0013298E74B46264ADAF81810F9
:10101000A04704460028F3D1DAF8140083681B695E
:10102000002BEBD00122DAF818109847044600286C
:10103000E6D11D4B2846C5F8A8311C4BC5F8AC318C
:101040001B4B0393D5F810320293D5F80832CDE943
:101050000083D5F86832B26AD5F8981300F04EF9DB
:1010600004460028CCD105F1E00009F061FE00281B
:10107000C5F8A0030ADB022138460FF0A1FA20468A
:1010800005B0BDE8F08F6FF00B04B9E76FF0150401
:10109000B6E76FF07704F2E7A9050100D0660020FB
:1010A0008F05010083050100B5100000370701001E
:1010B000F105010013B5044640B100230122CDE93A
:1010C0000032074BD0E9091209F038FDA36E1B6806
:1010D00023B1E06E02B0BDE81040184702B010BD69
:1010E0007B5B010013B504460846216901F5677171
:1010F000D1E8AF1F022910D193B1A0B10121CDE9F0
:1011000000311346D0E9091209F018FD074B984247
:1011100008BF6FF00B0002B010BD6FF00F00FAE7D0
:101120006FF04C00F7E76FF00100F4E72EF8FFFFD7
:101130002DE9F74388461546066906F56773D3E837
:10114000AF3F022B5FD1136823B96FF0150003B0D6
:10115000BDE8F0831B78002BF7D0D6F89893B9F14F
:10116000000F33D106F5D8774FF0FF324FF0FF3341
:1011700038460AF06DFA30462A6801A9FFF7AEFE3C
:10118000019C1CB938460FF019FADEE705F1080397
:10119000A3666B6984F86490E366E46360B13846E3
:1011A0000FF00CFA21463046236E2A68FFF774FED2
:1011B0000020C8F80040CAE72022296804F1400056
:1011C00013F0BBFB38460FF0F9F9F1E730460F4951
:1011D0000FF0C1F904460028B7D005F10803836673
:1011E0006B69C063C366002380F8643020222968DD
:1011F000403013F0A2FB22460121304600F060F897
:101200000028D5D0A1E76FF00F00A0E77B5B0100BD
:1012100010B50C46006900F56773D3E8AF3F022BA9
:101220000FD189B10A4900F52C7012F0B4FF2046A5
:1012300012F065FB70220021204613F02DFC0020E7
:1012400010BD6FF00F00FBE76FF00100F8E700BF83
:101250000C1700202DE9F04F05460E46904600275A
:10126000D0F8B0A085B0AAF5AE7421463046FFF79D
:101270002BF9E0B9114BA4F1400B0293DAF81030CE
:101280003246CDE9008329464FF0FF335846AAF590
:10129000CE7909F09FFC60B97023012203FB07930C
:1012A00083F86420DAF80C300BB158469847703454
:1012B00017B105B0BDE8F08F0127D6E7650701003B
:1012C0001FB5144690B18AB1012912D10A4B00F121
:1012D000E0010293D0F8AC31403201934FF0FF337C
:1012E0002046009309F076FC04B010BD6FF01500A5
:1012F000FAE70020F8E700BF650701002DE9F04399
:1013000087B00E46DDE90E811446DDE910251F4643
:1013100030B329B3DFF850C000F1E009002D08BF59
:1013200065469EB9CDE9034400F5CE742046059686
:1013300012F00AFD03ABCDE900432A463B46414685
:10134000484609F01BFD07B0BDE8F0830022414686
:101350000E9248462A4607B0BDE8F04309F03ABE6F
:101360006FF01500EFE700BF55120000F0B50E4614
:10137000044689B000286FD001230246C3630023CE
:10138000D0F89810364F403040F80C7C42F8301FAF
:10139000CDE901334FF0FF330093C36D11F094FF9B
:1013A000304A06AB92E8030083E80300184609F0D0
:1013B000D7FA0546D8B904F1340009F0B3FA054666
:1013C000A8B93946284805AA11F05AFF054670B950
:1013D000059B9A6872B10C33D4F89400C4F8A0301D
:1013E0000FF0F1F9C4F8D40030B96FF00B052846BE
:1013F00009B0F0BD0346EFE7D4F894000FF0E3F92D
:10140000C4F8D8000028F0D0D4F88C30D4F8A0105C
:10141000C4F8A8300423C4F8AC30C4F8C4300223A4
:10142000A362124BB4F89420D4F8D470C4F8B81066
:10143000C4F8D010D4F89010236204F1A403A4F8E7
:10144000B020C4F8A470C4F8C010A4F8C820C4F830
:10145000BC00A661E362CAE76FF01505C7E700BFED
:10146000C8590100204F0100D2590100F04F01007E
:10147000014B0360002070471C500100F0B40C4B7E
:101480000C4E5F6A0C4BB34203D36FF08500F0BC87
:1014900070475D68BD4209D31C693CB195F802C034
:1014A0000579AC4502D12346F0BC18472433EAE75E
:1014B0003417002078060020540600202DE9F0475C
:1014C00005460E461746124CDFF84880DFF8489074
:1014D000444503D36FF08500BDE8F0876268D9F812
:1014E00024309A4212D3A36983B190782979884233
:1014F00005D13A4631462846BDE8F04718475279AB
:10150000012A03D13A463146284698472434DFE77A
:101510005406002078060020341700202DE9F04101
:1015200005460E4617460A4CDFF82880444502D38C
:101530006FF0850009E063690BB92434F6E73A4699
:101540003146284698470028F7D1BDE8F08100BF12
:10155000540600207806002010B5044610F061FE05
:1015600010F1780F00D050B920460FF06AF9044A04
:10157000D2F8C43023EA00030020C2F8C43010BD02
:10158000341700200022024B1A605A60704700BFD7
:10159000EF17002070B50B4B0B4CA34201D300207A
:1015A00070BD0022196A1E7F0439D5B2AE4201D83F
:1015B0002433F2E7013211F832508542F5D101208F
:1015C000EEE700BF540600207806002008B5094861
:1015D0000378C3F341130A3350F823303BB100F1D1
:1015E000080200F110019847C043C00F08BD18461B
:1015F000FCE700BF3417002004282DE9F14F044612
:101600000F46DFF8949016D001282DD1DFF88C809A
:1016100098F8B93043B300F005FE214D4D4520D276
:101620004FF0000AD5F820B02B7F5FFA8AF6B3425C
:1016300004D82435F2E7FFF7A5FFE7E70BEBC60672
:10164000307910F0EEFD024630790FF0FAF8D8F854
:10165000C430002A23EA0003C8F8C4300AF1010AA2
:10166000E2DA002388F8B9300D4D4D4508D30B4B15
:101670001B6A6BB13946204601B0BDE8F04F1847F0
:10168000EB681BB13A462146284698472435ECE7DB
:1016900001B0BDE8F08F00BF7806002034170020AD
:1016A0005406002073B5C4B263060D468DF807409A
:1016B00007D02046FFF76EFF78B10D4B93F8BA00C4
:1016C00058B120460A4E55B104F014FCF3691BB121
:1016D00008200DF107019847012002B070BD04F009
:1016E00031FCF369002BF7D009200DF10701F2E777
:1016F0003417002073B586781E4C8DF8006003798E
:10170000427943EA0223ADF80230C378304603F051
:1017100003038DF804300FF094F8D4F8C430054674
:1017200018420BD0304600F05FFD3046FFF714FF43
:1017300012F0E6FB10B996200AF0B6FD684604F0F8
:10174000B5FB10F1780F03D010B1002002B070BDCE
:101750009DF8000004F032FC10F1780F01D0002851
:10176000F3D10120D4F8C43084F8B9002B43C4F875
:10177000C430EBE7341700202DE9F047A34E0446B0
:10178000B3690F461546FBB9237803F01F03012BFD
:1017900000F09D80022B00F0048133BB94F900001F
:1017A0002A680028617834DA062912D008292BD05B
:1017B000D9B901235170137096F8C3305B0043F020
:1017C0000103137002232AE198470028DCD100208E
:1017D0000DE06288100A011F0129844605D90728F7
:1017E00003D8716AD2B20C781CB96FF01500BDE84D
:1017F000F0874E78664503D19A4200F00B810133A1
:101800002144F0E70B780AE196F8BA30137001230F
:1018100005E101390829E8D801A353F821F000BFF8
:10182000B9180000EB170000C7180000EB17000004
:1018300045180000EB170000EB170000EB17000045
:1018400051180000A07804F01FFB0028BFD0CCE79F
:101850006388756A63BBFFF795FE638886F8BA30C4
:10186000F369002BB3D0032069499847AFE76B7841
:10187000042B10D0052B11D0022B04D16F79638873
:10188000BB4208BF01202B781D442B78002BEED1E2
:101890000028AAD0DFE795F80380F4E76388BB420D
:1018A000F1D1B8F1000FEED12846FFF723FFEAE7A8
:1018B000FF270020B846E8E76388012B95D1002375
:1018C00086F8C33083E76388012B8ED1F8E796F85A
:1018D000BA30D5F800C0002B87D0756AA3882A4695
:1018E00094F804E0107800283FF47FAF5178022983
:1018F00004D192F80480F04500F293800244F1E7AD
:101900008CF800208CF80120396060E7154494E0E1
:101910000B2A7FF46AAF00274FF0FF08BA46C14692
:1019200006E06B78042B0FD0052B21D02B781D44BB
:101930002B78002BF5D1F36913B151460720984756
:10194000002F7FF444AF50E795F80280A38895F804
:1019500003909845EAD163889945E7D1B8F1070F1C
:101960001CD806EB0803AA46012783F8BB90DDE7E5
:10197000A3884345DAD1A3784B450AD0AF783846DF
:1019800000F032FC3846FFF7E7FDB0FA80F77F0938
:10199000CCE72846FFF7AEFE0746C7E7AA46002772
:1019A000C4E794F900206378002A18DA002B7FF44A
:1019B0001CAF24792D6863060AD02046FFF7EAFDA4
:1019C00000283FF412AF96F8BA30002B3FF40DAF69
:1019D0002946204604F0D6FA00236B70F2E6012B6C
:1019E00008D0032B7FF401AF6388002B7FF4FDAE9A
:1019F000012103E0618800297FF4F7AEA088FFF79A
:101A000051FE00287FF4E3AEEFE600BF341700205C
:101A1000EE170020022829607FF4F4AE4B883B606B
:101A2000D5E694F9000062780028BFF671AF002A6D
:101A30003FF466AF0A2A7FF4D8AE2A78002A3FF432
:101A4000D4AE697804297FF461AFA9788B427FF422
:101A50005DAF072B8EBF00239B1993F8BB308CF82A
:101A60000030D4E613B5164C237DF3B9E26801AB20
:101A70008020A16801920EF0F3FE019AA36813443E
:101A8000A360E3689B1AE3606BB962B12369E288E3
:101A90009A4208DD94F8C82093FBF2F102FB11335F
:101AA0000BB90123237502B010BD002380201A4614
:101AB0001946237502B0BDE8104004F0A9BA00BF72
:101AC00034170020002330B585B002460D4601933F
:101AD000002858D1002935D108220B460DEB020110
:101AE00010F0B8FB002804DA802004F003FA05B0F7
:101AF00030BD2A4C029AC4E903552260039ABDF80E
:101B00000E30626004F13802A2609DF9082025754C
:101B1000002A0ADB802B04D9802004F0EBF9002096
:101B2000E3E713B1C4E90333E1E7FFF74FFD002812
:101B3000DAD0E28823699A42D4BFE260E360FFF71B
:101B400091FFD4E7154C01ABD4E90215002D04DC5C
:101B500010F080FB0028CADAC6E72A4610F07AFBAC
:101B60000028D9DB019AA3681344A360E3689B1A99
:101B7000E360002BBBD104F13803A360FFF726FD1F
:101B80000028DCD1B0E78028B1D1044BDA68002A04
:101B9000D5D11B7D002BD2D1A9E700BF341700207F
:101BA000054B064A58629A62054A0020DA62054AE5
:101BB0001A63054A9A6170473417002079170000AC
:101BC0007D1400001D150000BD1400002DE9F34137
:101BD000414D04466F6A4FF0FF324FF0FF333F48EC
:101BE00009F036FD95F8B860002E6ED13C482C62A5
:101BF000E86104F027FB04F015F9041E49DB00F04E
:101C000035FB041E45DB7B78012B61D1FB79002B72
:101C10005ED0684685F8C830ADF802308DF80460B3
:101C20008DF8006004F042F9041E32DB802768461C
:101C30008DF8007004F03AF9041E2ADB3046294979
:101C400004F0ECFA041E24DB3846264904F0E6FAD8
:101C5000041E1EDB244CDFF89480444520D3002072
:101C600004F0ACF9041E14DBD5F8C430802043F036
:101C70000103C5F8C43004F0A1F9041E09DBD5F84E
:101C8000C430002443F48033C5F8C430012385F800
:101C9000B830124809F09EFC204602B0BDE8F08141
:101CA0000026276A227FF3B29A4201D82434D4E76F
:101CB00007EBC30257F83310107904F0AFFA01367E
:101CC0000028EFD04FF0FF34E3E76FF07704E0E750
:101CD0006FF01504DDE700BF3417002090040020EA
:101CE000F9150000C51A00005406002078060020EF
:101CF00010B50A4B93F8B8404CB900F055F848B10C
:101D0000FFF74EFF2046BDE81040FFF75FBF6FF0C2
:101D1000770010BD4FF0FF30FBE700BF3417002005
:101D200030B51F4B8BB005AA03F110051446186897
:101D30005968083303C4AB422246F7D11B781022FE
:101D40002370002101A812F0A7FE122200211548DD
:101D500012F0A2FE102101A810F0C6FB00281BDD26
:101D60000828B8BF082001AB09381A1800200D490F
:101D700012F8013F0AAC04EB131403F00F032833ED
:101D80006B4414F8144C13F8143C013008280C7000
:101D90004B7001F10201EBD102480BB030BD00BF26
:101DA000DA590100656600202DE9F04F4FF0000B75
:101DB0006E4C87B000264FF0011AB0463546B1464A
:101DC00023782BB96A4B02349C42F3D1674833E045
:101DD0006378052B1BD8DFE803F08E03C68E1D3B0E
:101DE000402304A88DF810B0ADF812308DF814B06F
:101DF00010F002FA40B1082304A8ADF8123010F038
:101E0000FBF908B1ADF812B0BDF81230E3712378D8
:101E10001C44D5E7E378002BF9D1A3787BB108F116
:101E200001085FFA88F8F2E76B689C4209D0243514
:101E3000504B9D42F8D3002007B0BDE8F08F4E4DC7
:101E4000F6E7AB68002BEAD0414620469847E6E724
:101E5000002DF0D000222B7F9A42ECD2296AA07884
:101E600001EBC2010B79984201D00132F3E701275F
:101E7000E078FBB200F003008DF81400207994F8AC
:101E800005C040EA0C20ADF8120094F902000028C9
:101E900026DA4FF0010C07F110000CFA00F010EAFE
:101EA0000A0F24D143F080008DF8100004A8CDE97A
:101EB0000213019210F0A0F9DDE90121039BB0B9F2
:101EC0009DF8102012F0800FA2700A714FF00102ED
:101ED0001DBF1033DBB29A40BA404AEA020A96E7C5
:101EE0000120B84010EA0A0F01D11846DCE701379B
:101EF000102FBDD1B9E7032E1DD1FFF711FF074603
:101F000068B1FEF7F3FA102809D13846A31C07F18F
:101F1000100250F8041B904243F8041BF9D16FF0F3
:101F200002012378091BE21804EB5303D14213D5B5
:101F30000136F6B26BE7002EF1D1B9F1000F3FF494
:101F40007AAFA4EB090389F80230C3F3072389F8B9
:101F5000033089F80480EBE702F801BC13F80109AB
:101F600002F8020DE2E7A14651E700BF7405002028
:101F7000510600207806002054060020094B00215D
:101F80001A4610B51C78844205D15C681CB1482300
:101F900003FB012010BD0131042903F14803F1D1F5
:101FA0000020F7E7001800202DE9F34150F8303CFD
:101FB0000446103310F8346C0AD1036950F8282C09
:101FC000980736D5D2B9590715D5002344F8303CC7
:101FD00054F8303C10330BD054E9097554F81C8C7C
:101FE00011F08EFF00284FD021462E4812F0C2F883
:101FF00002B0BDE8F08143F004032361304654F899
:102000002C1C01AB0EF02CFC10B16FF01503DDE7BA
:10201000019A54F82C3C134444F82C3C54F8283CC6
:102020009B1A44F8283C54F8243C134444F8243CBC
:10203000CEE7304654F82C1C01AB04F065F80028BC
:10204000E3D1019D54F82C3C2B4444F82C3C54F82B
:10205000283C5B1B44F8283C54F8243C2B4444F8AF
:10206000243C002DB1D0304604F0F2F8B5FBF0F37B
:1020700003FB1055002DA8D154F8283C002BA4D008
:10208000304604F089F8A3E744F8200CA4F11800C6
:1020900009F08CFB002DABD0424639463046A847AC
:1020A000A6E700BF280A00204B1E012B73B5064689
:1020B0000D460FD8FFF762FF044668B9012D09D11C
:1020C00001AB012230460DF1030104F01DF8019B24
:1020D000002BF5D102B070BD11F012FF04F13401F4
:1020E00008B1012D05D1084602B0BDE87040FFF7E8
:1020F0005BBF034802B0BDE8704012F03BB800BFC0
:10210000280A00202DE9F74F80461746994600918E
:102110000EF0ECFB044600285DD14FF02003EFF3F6
:10212000118B83F31288BFF36F8F2C49002208466E
:102130000023019109F060FB019968B948226243CC
:10214000DFF89CA00AEB02056E6816F1100F12D1A1
:10215000084609F02BFB06E00134042C01F148018C
:10216000E4D16FF00B068BF31188BFF36F8F30460D
:1021700003B0BDE8F08F0AF802800C9A009B6A61F8
:102180000D9A2861AA616FF00F024046C5E9023737
:10219000C5F844906A6004F05BF858B1404604F01A
:1021A00057F8B7FBF0F202FB10771FB16A6C42F0F0
:1021B00004026A6419F0020F08D0482202FB04A14D
:1021C0000848343111F0D6FF0026CCE7404603F032
:1021D000E3FF0646C7E76FF00F06C8E71C180020AC
:1021E00000180020280A002010B54FF02003EFF35C
:1021F000118483F31288BFF36F8FFFF7BFFE50B1D6
:102200004368103307D16FF08B0300F13401436052
:10221000034811F0AFFF84F31188BFF36F8F10BD37
:10222000280A002070B504250E4C4FF02003EFF370
:10223000118683F31288BFF36F8F6368103307D161
:102240006FF08B030848636004F1340111F092FFD2
:1022500086F31188BFF36F8F013D04F14804E4D188
:1022600070BD00BF00180020280A002070B50025AE
:10227000094C0A4E3146204611F05FFF0122A4F1BD
:1022800018001146013511F005FF042D04F1480432
:10229000F0D1002070BD00BF34180020A91F00003D
:1022A000014608B503480EF00BFB10B1012300F8FE
:1022B000073C08BD201900200123016981F84B303B
:1022C0000B6833B191F849301BB10248083111F065
:1022D00051BF7047280A00200123016981F84A3064
:1022E0000B6833B191F848301BB10248083111F046
:1022F00041BF7047280A0020012370B582F848309A
:1023000013680D4614463BB192F84A3023B10E488B
:1023100002F1080111F02EFFD4F890309A681B6981
:102320009A4205D17DB904F1180140F6CD4204E08E
:1023300004F11801002DF8D00022BDE87040002300
:10234000014809F053BC70BD280A002038B5056962
:1023500095F89E0088B195F89F307BB985F8483094
:10236000D5F890000DF0D1FF044600220023044868
:1023700005F1180109F03AFC204638BD0020FCE7C1
:10238000280A0020F0B5D0F88C3004465B6885B090
:102390001B6A1F7D38460EF0A9FA0646F8B994F874
:1023A0008630E3B14FF48062A06F03A90DF0CCFF3B
:1023B0000546A0B18306A4F1180384F830600193A8
:1023C000084B08BF00F1FF35039900932A4602230A
:1023D0003846FFF797FE2946A06F0DF0D1FF05B0F4
:1023E000F0BD00BFF922000070B504460E46017929
:1023F000154815460EF057FA10B394F9002063788B
:10240000002A16DB202B04D0222B0ED06FF0850083
:102410000AE02B681A6840F8102C9A8820F80C2CD7
:102420009B7900F80A3C002070BD638800F8093CE5
:10243000F9E7212BEAD10723103828603360F2E74F
:102440006FF01200F0E700BF2019002000210346C2
:102450000C4AA0F84810106883F89C10C3F8940048
:1024600090889279A3F8980083F89A2083F89B10BB
:102470004022A3F89E1083F8A01003F14C0012F044
:102480000BBB00BF344F0100002310B50469C4F832
:10249000A8300C4BC4F8A400596804F1A80269B92B
:1024A000C3E9002204F10800074911F046FE04F1D7
:1024B0001800064911F091FE002010BD0A605A6014
:1024C000F0E700BF20190020170901008523000054
:1024D00030B54FF400334268056942F2A10085B07F
:1024E000CDE90103002385F89D30106AADF80C108A
:1024F0000A22007901A90EF0B3F9054C95F89D3038
:1025000023B9012011F035FC013CF7D105B030BDF5
:10251000A1860100002313B504698DF8071084F823
:1025200048300122D4F890000DF107010DF0EDFEC6
:1025300010B911F0E5FC40B12122002304F118018B
:10254000064809F053FB02B010BD94F8A130002BEF
:10255000F2D00021212009F08DFEE2E7280A0020B8
:1025600037B514460A1E054620DDD4F88C0004F168
:102570004C010DF0CAFE012384F8493023683BB1B9
:1025800094F84B3023B1114804F1080111F0F2FD29
:10259000D4F88C104B684A699A1ACB699B1A3F2B66
:1025A00004D8012384F8A03003B030BD94F89E30E5
:1025B000002BF9D0064B40220093284601230194BA
:1025C00004F14C01FFF79EFDEEE700BF280A002052
:1025D00061250000F7B50D4601461D480EF058F97B
:1025E000044610B3064656F8A439691E5F680529EB
:1025F0001BD8DFE801F01C1A031C222610F8061C69
:1026000099B9012300F8063C3B6A3246187BFFF774
:10261000A7FF14F85C2C42B93B6A1146187D0D4B9C
:10262000019600930223FFF76DFD03B0F0BD304625
:1026300003B0BDE8F040FFF709BF012304F8053CF3
:10264000F3E710F8053C002BEFD00023F6E700BFBE
:1026500020190020F922000037B50024084D4FF062
:10266000FF334FF4806228460649009409F048FA87
:102670000549284608F06EFE204603B030BD00BF75
:10268000280A0020D06A0020F959010013B5044639
:1026900008F09CFFC0F307230193C0F307430093A6
:1026A0000821030E034A20460EF0D9FB002002B099
:1026B00010BD00BF025A010010B5044605F0AEFD82
:1026C00008210346074A20460EF0C9FB2046064A69
:1026D00008210EF0C4FB2146044808F003FE002048
:1026E00010BD00BF9D5A0100BC5A0100F126000038
:1026F00070B58EB004460D46D0F89C6011F006FC13
:10270000024612F0D9F9254B1958254B2846002AC4
:1027100018BF1346234ACDE90043234B8C4218BF10
:1027200013460821214A0EF09AFBD4E90A23CDE989
:10273000022394F90E3028460093237B08211C4A7B
:102740000EF08DFB06A92022204608F013FE626ED3
:102750000346009208212846164A0EF080FB2046C8
:1027600005A911F0E3FB034630B108212846124ABF
:102770000EF075FB0EB070BD6423059A2846B11AA1
:102780004B43B3FBF6F3CDE90021CDE90263082109
:1027900033460A4A0EF063FBECE700BF0800000076
:1027A000C65A01008B6B01006A6C0100C95A010016
:1027B000D55A0100015B0100185B0100455B010077
:1027C000F0B50025044693B029460AAF1C220BA899
:1027D00012F062F9134E1A222021384612F05CF9E9
:1027E0002146114808F07EFD09AA4FF400613046E9
:1027F00011F090FB64224FF400630999CDE9005772
:10280000C1F500604243D20ACDE90403CDE90231AB
:102810002046069233460821044A0EF020FB284643
:1028200013B0F0BDD07E0020A12800007C5B010029
:1028300010B5044610F0F9F808210346024A204674
:102840000EF00DFB002010BDC55B010013460022F9
:1028500073B5044601920A21586801AA01F084FA6E
:10286000019D95B920EAE0744FF40046294640F2F4
:10287000E7304FF47A720023C4FB0601FDF7BCFC7D
:1028800009F0F8FC284602B070BD2B460121204615
:10289000024A0EF0E4FA019DF4E700BFDB5B0100A1
:1028A000F0B504460D46D0F89C6089B007A911F038
:1028B0003DFB034630B1082128460F4A0EF0CFFAFF
:1028C00009B0F0BD204611F021FB6423079A0B4F9D
:1028D000B11A4B43002818BF0746B3FBF6F3CDE906
:1028E0000221CDE90463082123462846CDE900767C
:1028F000034A0EF0B4FAE3E7185B0100C65A010080
:10290000FB5B01002DE9F04387B00546684608F0FF
:1029100077FB1423009E082103FB0066164A284615
:102920000EF09DFA154F009CDFF85480DFF85490AC
:10293000B44203D3002007B0BDE8F08323680BB195
:102940001A7832B923463A46142101A80CF00EFD3C
:1029500001AB4246082128460EF081FA204611F0CC
:102960000DFA094B0821002808BF4B46074A2846A4
:102970000EF075FA1434DBE74A5D0100545D010086
:10298000595D0100415D01003B5D01009063010064
:102990008B1E022B2DE9F04107468846144637D896
:1029A0001022002160680CF083FDB8F1020F06468A
:1029B00007D1202308213846244A0EF050FA336804
:1029C00016E00A220021A0680CF072FDC5B22B4669
:1029D000082138461D4A0EF042FAB8F1040F1AD009
:1029E000102D0DD0202DEAD0082D0CD13378DBB27C
:1029F00008213846164A0EF032FA0020BDE8F08170
:102A000033889BB2F4E708213846124A0EF027FAC1
:102A10006FF01500F2E710220021E0680CF048FD8D
:102A20000821034604460C4A38460EF018FA102DC9
:102A300006D0202D07D0082DE5D1E4B23470DCE7B4
:102A4000A4B23480D9E73460D7E700BF925D0100BB
:102A5000BD5D0100A75D0100CE5D01002DE9F04FD5
:102A60004FF0FF35914601220746884620262C4626
:102A7000544BDFF854A185B01A604946524640468F
:102A8000FEF702F8411C07D16A1C52D14F4A0121BE
:102A900038460EF0E4F91DE0732820D0772833D0B3
:102AA000612817D1DFF828B110220021DBF80000DF
:102AB0000CF0FEFC05460028DFD111F0FDFF454B70
:102AC0001B58162BD9D1DBF80030434A0121384678
:102AD0000EF0C5F96FF0150005B0BDE8F08F0022CB
:102AE000DFF8ECB01146DBF800000CF0E1FC044626
:102AF0000028C2D111F0E0FF364B1B58162BBCD179
:102B0000DBF80030354AE1E70022DFF8C4B01146B7
:102B1000DBF800000CF0CCFC06460028ADD111F02B
:102B2000CBFF2C4B1B58162BA7D1DBF800302C4ABF
:102B3000CCE7631C01D12B4AA9E75FFA86F8C6F3FC
:102B4000C406002C3CD06B4629461A46A6EB050C61
:102B50000CE0B8F1100F1DD0B8F1200F20D0B8F163
:102B6000080F2AD10878187031443344A64203D89C
:102B70000CEB01001028ECD9102CA14628BF4FF017
:102B8000100929464B46384601F02EF81035A4EBC3
:102B90000904D6E7088880B21870000A5870E3E785
:102BA00008684FEA102E187083F801E04FEA104EC3
:102BB000000E83F802E0D870D6E708210A4A67E7DA
:102BC000204689E7F80000201C5E0100235E01001A
:102BD000001700200C000000E25D0100F55D01001F
:102BE000085E0100405E0100A75D010070B5104E57
:102BF00004460D46337881B12BB10121BDE8704008
:102C00000C4A0EF02CB901233370082120460A4AE1
:102C10000EF025F90123337004E083F001033370D3
:102C2000002BF2D129462046BDE870400EF03CB999
:102C3000776600205A5E0100955E010070B504467B
:102C40003C480378182B02D10B78112B31D00B465E
:102C5000013A8D18AB4225D18B5C0A780370A2F142
:102C60003003092B344C04D922F02003413B052BBF
:102C700004D823683149CA54013323602368022BE6
:102C800034D1102200212D480CF012FC2C4A13687C
:102C900003F8010B13602B4A136801331360002300
:102CA000236023E013F8016B182ED3D11E78112E68
:102CB000D0D1244D08212B682046234A0EF0CFF8AE
:102CC00020460021FFF792FF204B187870B9204A68
:102CD0002B681168042B0ADC08B111602B6013F01B
:102CE00003010BD1126813681BBA136070BD08682A
:102CF000043B00BA41F8040B0120EBE75B4203F010
:102D0000030358BF5942022904D1126813885BBAE1
:102D10009BB2EAE70329E9D1106802681104C2F303
:102D2000074301F47F010B4302F47F421343036026
:102D3000DCE700BF78660020281900207A660020B2
:102D4000341900202C190020BF5E01007966002094
:102D5000301900202DE9F84F0023064615460C4691
:102D60002949DFF8A8800B602949DFF8A890DFF82F
:102D7000A8B088F800300B60012C2F4655F804AF3E
:102D80001ED902224946504611F0C5FD80B99AF875
:102D90000220003A18BF01229244504602221F49E5
:102DA00011F0B9FD30B9012388F80030013CE3E7A8
:102DB0000022F1E749465046FDF786FBA8B90437E3
:102DC0000022786811460CF0FDFA0022144B1146DF
:102DD000186078680CF0F6FA124B13491860304608
:102DE000FFF704FF0020BDE8F88F9AF800202D2A95
:102DF000E6D19AF80120002AE2D053465A4608212B
:102E000030460EF02CF8D1E7281900207966002012
:102E10002C190020D95E0100DF5E0100DC5E01009C
:102E200034190020301900203D2C000013B509484A
:102E300010F0A4FF58B10024074A01231268054985
:102E40000648009400F0B8FD204602B010BD6FF0B7
:102E50001200FAE7E44B0100F4510100A04E01001A
:102E600038B54468A3604023C4E9001244680822CE
:102E7000E364164BE26223630023154AC4E90E3370
:102E8000C4E91133C4E90633C4E90933256863632F
:102E90002364226163612362C4F88830AB682BB17C
:102EA0001B6C1BB1224628460A499847AB681B6A2F
:102EB0000BB1284698470022074904F1500011F051
:102EC00055FBC4F88440002038BD00BF98C60020E0
:102ED00090C60020DB0B0100BB0B010000487047CF
:102EE000A04E010010B504468168083101F028F9B0
:102EF000A1682046BDE81040014A083101F0C6B87B
:102F00004B60010038B583680446D3F86432DB07B0
:102F10001AD4406803685B689847054620B9E068A2
:102F20000EF0DFFCA3681D71A3685B6B13B129462B
:102F300020469847002211F0BFFDA368C3F80C2378
:102F4000034B185801F046FE6FF00F05ECE700BF89
:102F50000800000001490DF0FEBE00BF7A5B0100D1
:102F6000F7B5044680680D46D0F864325A0705D597
:102F700000210DF014FFE0680EF085FCE368DB68CB
:102F800073B9002D39D0A66806F1420738460DF016
:102F9000DCFE002833D0394606F5A170FDF79EFA15
:102FA000A2682946E0680DF1060342320EF06EFC7D
:102FB00058B9A06800F5A1714230FDF78FFAA068FA
:102FC00042300DF0C2FEADF8060020460EF051FA78
:102FD000A368D3F860329B0603D50A4960690DF0F7
:102FE000BAFE204600F028FFA268BDF80630204651
:102FF000D387A26893870EF0A8F903B0F0BD86F8D6
:103000004201CDE73B4F01002DE9F04FA7B0044648
:103010005422002111A811F03FFD0023CDE9053312
:10302000A3682046423302930EF029FA20460EF0A0
:1030300075F910B96069FFF78DFF00264FF0FF3773
:10304000B246B3463546B146A06814220021083086
:1030500011F022FD20460EF00DF9A168E0688A8F7C
:1030600042310EF04AFC20460EF0C9FC0DF1440836
:103070000396DDE90532012A6DD0132B6ED85FBBB4
:10308000BBF1000F0AD020460EF0D9FC1423A26831
:1030900011A942320DEB03000DF06CFFB9F1000FE6
:1030A0000CD099F81130FE2B08D1059B26AA02EB13
:1030B000830252F8542C0AB101330593A068059D90
:1030C0004369002B40F0B680CEB1C3689E422DD03C
:1030D0000D9600F1080524E002234146029A06A855
:1030E0000DF048FFD8F8042006990346029231B14A
:1030F00001290AD148B16C4A20460EF044FA6FF01B
:103100000705284627B0BDE8F08F059B002B34D07B
:10311000D8F8000001F034F898B166B1A5680D96B2
:1031200008350CAE0FCE0FC533682B602046FFF775
:10313000D9FE0125E5E75D4A012120460EF023FA7C
:10314000DDE7059BCBB129462046D8F8002001F0E9
:10315000C7F9022809D1059B132B91D9069B022B95
:103160008ED10121524B534AC6E7032805D0059B57
:103170004FF0010B013305937BE7039B33B94846BE
:10318000D8F8001007AA0DF0ECFF054608F1040876
:10319000013F9DB3EB68BBF1000F08D0F3B12046AF
:1031A0000EF06DF920460EF0D0F8434AC4E7ABB1FB
:1031B000AE46A368DDF814A003F1080CBEE80F00CA
:1031C000ACE80F00DEF80030CCF80030AB682BB96B
:1031D0006B7CFE2B04BF2F7C07F1FF37D5F804C0B2
:1031E000BCF1000F08D0AE460CAEBEE80F000FC613
:1031F000DEF8003033606646A94603E0059B53B114
:1032000001230393069B17B9022B7FF432AF059B72
:10321000013305932DE7A368DB6913B1DB68002B4D
:10322000EED1264B012100932046119B244A0EF03B
:10323000AAF9E5E7037EA5EB0A05B3B14FF6FF72E5
:10324000417EFF2918BF0A469D4202D313449D4286
:103250000BD98368012120461A4A0EF094F92046C2
:10326000FFF740FE6FF015054BE701210DF08CFDD7
:10327000A06800F53E700DF0ABFDA36811AA2946C9
:1032800002EB8A0220465B6998470546A0684FF02A
:10329000FF324FF0FF3300F53E700DF069FD002165
:1032A000A0680DF071FD2CE7596001006D60010010
:1032B000CE6001004B5A01008B600100BA60010032
:1032C000A8630100F2600100022210B58368044681
:1032D0001A7183689B6BBBB90DF002FD8368D3F84C
:1032E0006432DB040BD50321084B094A0EF04BF97D
:1032F000A0686FF4805100F519700DF005FD2046AF
:10330000BDE8104000F0A4BE10BD00BF0D6101007B
:103310005B5D01002DE9F04F044680680121B1B0EA
:1033200000F519700DF0E5FCA3681B79022B20D184
:1033300000230993A36860689E6B03681D6909AB4D
:103340000EB310221BA9A847099B93B10121A068C5
:103350000DF01AFD2046099A1BA9B0470021A0686C
:103360000DF012FDA3689B6B002BE3D12046FFF705
:10337000ABFF6FF00101A06800F5197031B0BDE836
:10338000F04F0DF0C1BC01220DF12301A847099BAC
:10339000002BEED09DF923209DF82310002AA3686E
:1033A000C8DB5A79032A00F28D82DFE812F00400AC
:1033B0007A0291028B020D297BD00A2958D0B3F8EA
:1033C000642209296FF3CA02A3F86422A06800F0FE
:1033D00085803DD80029ADD0082900F0F181034651
:1033E000D3F860229207A5D501391629A2D801A2E7
:1033F00052F821F071390000FB370000033800005B
:10340000F337000065390000213800003533000033
:103410003533000035330000353300002938000013
:1034200031380000353300005B38000035330000D0
:1034300065380000353300003533000035330000B7
:103440003533000069380000353300009338000040
:103450001B2940D07F2900F0BF81A1F120025E2A04
:103460000346BDD801210DF09AFC9DF82310B1E070
:10347000D3F86422C2F3C7022AB1D3F86422C2F39C
:10348000C7020A2AACD1B3F8642261F3CA02A3F8D6
:103490006422A568A98FC1B928460DF080FCE068B8
:1034A0000EF0F1F96069FFF755FD2046FFF70CFFBC
:1034B00040E7D3F86422C2F3C702002AE3D0D3F86E
:1034C0006422C2F3C7020D2ADCE72046FFF79CFD09
:1034D000C5F81003E9E7012343712BE7D0F8603208
:1034E0009B077FF527AF01210DF059FCA068838F62
:1034F000FF2B3FF41FAF0025C28F00F1420100F502
:10350000A17011F0A2FAA3681BA9DA8F0BA81344CB
:1035100083F84251A268142302F5A1720DF02AFD2E
:103520000B9914293FF606AF30AB03EB810343F848
:10353000545CA368DA8F134493F84130202B02D0F7
:10354000093B042B4AD800294BD100250A950A9B38
:1035500030AA02EB830353F854AC002650460DF01A
:10356000F4FBB3468146B04637463946284616AA8C
:1035700000F0C0FB034600283FD1012EA76864D1AC
:103580000A9B30AA02EB830353F8540C0DF0DDFBC9
:103590004146064607F10802284600F0ABFB0568E5
:1035A00028460DF0D2FB864205D0821B92B22046FF
:1035B000A9190EF029F8A068C38F034493F842308C
:1035C000202B31D0093B042B2ED9D0F86032DF07F5
:1035D0002FD42021204600F005FDABE60129B4D907
:1035E000013900200CAB009301900AAB1BAA0DF02F
:1035F000E3FD05460028AAD19CE61B684A465146D1
:103600001846039311F087F960B9039B1846FCF73D
:103610006DFF584538BF5846002E08BFB8461FFA00
:1036200080FB01360137A0E7012120460DF0BFFEE7
:1036300080E600210DF0BDFB2021204600F0D2FCE9
:103640000121A0680DF0B5FB74E604907FF672AE20
:103650000A9A30AB03EB820252F8543CC14618463A
:1036600003930DF072FB049B05903B860496A268C1
:1036700049462846083200F03DFB039BD0F800A0E5
:1036800009F101094BB1BAF1000F06D019465046B5
:10369000059A11F040F90028E9D1A168BAF1000FAC
:1036A0004DD1A1F830A0049B013B0493DFD16069A8
:1036B000FFF750FC204600F0CBFC0A9B30AA02EB3F
:1036C000830353F8540C0DF040FB414611AA814688
:1036D000284600F00FFB0746A0683968FF2200F576
:1036E000A17011F02AF93B684FF6FF7708F1010A43
:1036F000B84603935146284616AA0AF1010B00F07A
:10370000F9FA002850D00022A168036801F24111A3
:1037100011F801EF985C704503D110B101324245B8
:10372000F6D1B9F1000F01D04A4506DBBA42A8BF75
:103730003A46013E012E97B236D0DA46DAE798488B
:1037400006910DF002FB069900EB0B074A8DBFB204
:10375000121A92FBF7F2504692B2079106920DF0C0
:10376000F4FA07993F1A088E069A00F1010CA1F8A5
:1037700030C0B0FBF2F102FB110080B2BFB260B901
:1037800006212046864B874ACDF800A00DF0FBFEAF
:103790003946204600F03AFB85E75346062120468D
:1037A000814A0DF0F0FEF3E7002F3FF4C3AD03991B
:1037B000A7EB0902204692B249440DF025FFB9E576
:1037C000D0F860329E077FF5B5AD01210DF0E7FA24
:1037D00020460DF036FFADE5D0F860329D077FF54D
:1037E000A9AD01210DF0DBFAA368D3F86032190707
:1037F000EED420460DF00AFF9CE520460DF046FE73
:1038000098E520460DF03BFE20460DF087FD10B9EF
:103810006069FFF79FFB0121A0680DF0C0FA44E644
:1038200020460DF03BFE85E520460DF040FE81E58B
:10383000D3F860329B0603D55C4960690DF08BFAC2
:10384000A368D3F860329F0603D5594960690DF02B
:1038500082FA204600F0FCFB6CE500212046FFF7D1
:103860007FFB67E50121F9E720460DF002FE2046C7
:103870000DF036FA0121A0680DF091FAA368D3F893
:1038800060329E067FF556AD4A4960690DF063FAD5
:1038900050E5204600F00CFB0121A0680DF07FFAF6
:1038A00048E55B2902D102225A7143E5D3F8603220
:1038B0009D0706D5622907D14FF0FF3120460DF054
:1038C0009AFDA3680022EFE76629FAD10121F5E706
:1038D00000225A71A268D2F8603298077FF52AADAB
:1038E000A1F131031B2B3FF625AD01A151F823F0C7
:1038F0006D390000793900008D3900006139000010
:103900003533000035330000353300003533000017
:103910003533000035330000353300003533000007
:1039200035330000353300003533000035330000F7
:10393000653800005B38000021380000FB370000CC
:10394000353300006539000035330000713900005F
:103950003533000035330000353300007D39000079
:103960000323537120460DF08AFDE3E403235371D2
:1039700020460DF07EFDDDE403235371A068D0F8EE
:10398000601201F0010181F001015BE60323537134
:10399000A368D3F860329B077FF5CCAC29E700BF62
:1039A0008A6B0100516101005B5D0100404F010025
:1039B000454F01003B4F01002DE9F0470446806868
:1039C0008846D0F80C1315461F4688B0002968D1E8
:1039D00092464FF4457211F05FF8A36822681A60AE
:1039E000E0680DF0F2FFA06800F53E7010F0B7FA45
:1039F0004FF42A794FF41A76A068304410F026FF6D
:103A0000A0680022831901214844103610F0F4FE0A
:103A1000B6F52A7F09F11409EED10022A36902212B
:103A20001A60A06825F0140500F519700DF061F911
:103A30005022A36865F3070A5A851822A3681A85DD
:103A4000A66830680DF081F986F82C00A36841461D
:103A5000C3F860A26068144A03681D682346A8473B
:103A60000546D0B90122A3681A71D4E909010022E0
:103A70000023CDE906230E230393109B4FF400622D
:103A8000CDE901730495094B009407F027FDA36865
:103A9000C3F80C03216A07F05DFC284608B0BDE8B6
:103AA000F0876FF07705F8E7750D0100FD3A00002B
:103AB00010B5044680680379012B19D100F53E70DA
:103AC0004FF0FF324FF0FF330DF052F920680DF048
:103AD0003CF918B1084960690DF03DF92046FFF73F
:103AE000F3FBA06800F53E700DF072F9002010BDE8
:103AF0006FF08500FBE700BF795B0100F8B5044675
:103B00004068002103689B68984700283FD1204601
:103B1000FFF7CEFF00283AD11D4E1E4FA06800F5DA
:103B20002A704FF0FF324FF0FF33032108F0F4FD0D
:103B30000546A0684FF0FF324FF0FF3300F53E70AE
:103B400075B10DF015F920462B460121124A0DF0F2
:103B50001AFDA068BDE8F84000F53E700DF038B9D8
:103B60000DF006F93246022120460DF0D8F8204625
:103B70003A4629460DF0D3F8606803685B6903B1E3
:103B80009847A06800F53E700DF022F9C6E7F8BD31
:103B9000052F0000153300005761010010B50446E1
:103BA00008210C4A0DF05BF9204608210A4A0DF065
:103BB00056F920460821094A0DF051F920460821FE
:103BC000074A0DF04CF920460021064A00F05EFA43
:103BD000002010BD6E610100AC6101000B620100AC
:103BE0005F620100F9620100F8B51E4617460B46F8
:103BF0002F4A082104460DF032F96EB30821204601
:103C00003B782C4A0DF02BF901256A0704D10821D5
:103C10002046294A0DF023F9AE4223D90821204637
:103C20007B5D244A0DF01BF90135102DEDD10821E3
:103C30002046224A0DF013F9D6B9082120461E4A23
:103C40000DF00DF90125AE422B4613D80821204670
:103C5000194A0DF004F918E008212046184A0DF021
:103C6000FEF8012508212046154A0DF0F8F8DBE79B
:103C700000252B46FB5C0821A3F120025F2A28BF08
:103C80002E2320460F4A0DF0EAF80135102D07D0FB
:103C90006B07D8D108212046074A0DF0E0F8D2E79B
:103CA0002046BDE8F8400821074A0DF0D8B800BF0B
:103CB0000F630100166301008B6B01001C630100A0
:103CC000896B01003E6301001E63010010B50446CC
:103CD00013460A460146064801F0D0FA23691B79CB
:103CE00023B12046BDE810400DF0E4B810BD00BF80
:103CF000CD0E010038B50B46154648B91449154A92
:103D0000521AB3EB920F05D251F82350284638BD12
:103D100084680CB90025F9E70F4A94420AD30F4A88
:103D2000944207D218462946226890472B68002BF8
:103D3000ECD1EFE70A4A944202D30A4A944205D3EF
:103D4000246814225343E518E358F0E70133F8E7F9
:103D5000CC4E0100004F0100144F0100144F010030
:103D6000004F0100144F01000023F7B516460278FA
:103D700004462D2A019305D16FF01503002033600E
:103D800003B0F0BD10F098FE05460B4F0A46C35134
:103D900001A920460BF08CFBEB59222B02D16FF0CE
:103DA0002103EBE7002BE7D1019BA342E4D01B7872
:103DB000002BE5D0E0E700BF0C0000008368D3F8DB
:103DC00060329B0603D5024940690DF088BA7047FE
:103DD0004B4F010001490DF082BA00BF7A5B010030
:103DE0000A1E0DDC0ED042238168D1F860128906CC
:103DF00008D5002A04494069B8BF52420DF06FBA95
:103E00004123F1E7704700BF3A6301000A1E0DDC51
:103E10000ED044238168D1F86012890608D5002AA3
:103E200004494069B8BF52420DF059BA4323F1E743
:103E3000704700BF3A6301002DE9F04785680446EA
:103E400005F14200FCF752FB0023984695F82C70D0
:103E5000DFF8549086B2A268558DED1BB54209DBA0
:103E6000002E1FDD4233606910491A44BDE8F04757
:103E70000DF035BA1D442A4492F842A082F84280DF
:103E8000A26842331A44494660690DF028FAA368D3
:103E90002B4483F842A0A3685B8DDB1BF61A002736
:103EA0002B46D8E7BDE8F0874B5A01005B5D010067
:103EB000F8B5836804469A8F002A51D0D98F00291B
:103EC0004ED0413103F142050B441846A84206D3B7
:103ED000014611F80169202E39D0A84239D286B2A4
:103EE0009DB2AB1B9BB2591C471CD21A01443846E9
:103EF00010F0B8FDA268711B938F204613FA81F36E
:103F00009387A36809B29A8F1344002283F8422052
:103F10000DF04DFAA368D3F860329A0603D5114923
:103F200060690DF0DCF93B46082120460E4A0DF091
:103F30002AFB2046FFF742FFA368D3F860329B06B6
:103F40000ED560690949BDE8F8400DF0C8B90846CA
:103F5000BCE7014611F80169202EC0D00846BCE735
:103F6000F8BD00BF504F01005B5D0100544F0100E0
:103F70002DE9F04104460D4617460AB1FFF71EFF32
:103F8000A368DA8FD3F86012423213444A071FD570
:103F90001846FCF7ABFA0646DFF8408096B9A368EE
:103FA0009A8FDA87A0680DF0A7F920B107B115B193
:103FB0006069FFF70FFF69422046BDE8F04109B292
:103FC0000DF0F5B9414660690DF089F9013EE5E76C
:103FD00008212046024A0DF0D6FAE0E76A6C01009B
:103FE0005B5D010013B583688DF80710D3F860227C
:103FF0000446D00722D5D98F9A8F8A421ED0481CFA
:104000009DF80720D8870B4483F84220A368D3F893
:104010006012890710D5D3F86032606913F0040F7D
:1040200018BF2A2209490DF05AF920460DF076F9F9
:1040300010B16069FFF7CEFE02B010BD012220462C
:104040000DF107010DF0ADFAF6E700BF3E63010088
:1040500010B50446836802211B68084A0DF093FAE4
:10406000A368D3F860329B0707D52046FFF7E4FE2C
:104070002046BDE810400DF077B910BD5B5D010032
:1040800001490DF0EFBA00BF7A5B01002DE9F04F56
:104090000E460021044617460D4689B0304603AA55
:1040A00001F10108FFF726FEB0B995B127B13A46F4
:1040B000082120460DF067FA00211E4FDFF87890A6
:1040C000DFF878A0304603AA01F10108FFF712FEDD
:1040D00060B909B0BDE8F08F006810B1FCF706FACE
:1040E00080B2854238BF05464146D7E703688BB1A9
:1040F0001A787AB1D0F804B04A46CDE900530821C5
:104100003B4620460DF03FFABBF1000F04D1606939
:10411000FFF7B6FF4146D5E7524620463B46082109
:104120000DF031FA6A1D5946204692B20DF0A7FAF9
:10413000F0E700BF5B6301004163010048630100D9
:10414000F7B50F6805460E46A7B13846FCF7CEF91D
:1041500084B2094B2846009308213B46074A0DF0DC
:1041600012FA2846E21C716892B203B0BDE8F04032
:104170000DF085BA3C46ECE757630100526101003F
:1041800010B507490446FCF79FF938B120460549A8
:10419000FCF79AF9B0FA80F0400910BD0120FCE765
:1041A0004D6301005063010010B583680446D3F8E5
:1041B00060329B0603D5064940690DF0D7FA5022BC
:1041C000A36800205A851822A3681A8510BD00BF75
:1041D000584F010008B5836908211B68024A0CF09A
:1041E0003EFE002008BD00BF5E6301002DE9F341E3
:1041F0000F4A082105460CF032FE00230D4C0E4EEE
:10420000DFF83880B44203F1010703D3002002B085
:10421000BDE8F0812A6A9BB20192A2680821126867
:104220002846009242460CF01AFE2C343B46E9E741
:104230006E630100A04E0100CC4E010086630100B8
:1042400008B502490CF018FE002008BD7B5B010098
:104250007FB5044600250E4EA2680DF10E03012124
:10426000E06802F5A1720DF011FBBDF80E00A36825
:1042700050B103F5A173009332462B460821204626
:104280000CF0EDFD0135E7E783F8420104B070BDA5
:104290009763010010B504460CF0FEFD08210346AB
:1042A000024A20460CF0DBFD002010BDD55E010067
:1042B000022907B50DD15368012101930C4B0093DE
:1042C00013680C4A0CF0CBFD6FF0150003B05DF8DD
:1042D00004FB8368084AD3F86032082113F0020F08
:1042E000064B08BF1346064A0CF0B9FD0020EDE767
:1042F000AE630100A5630100A1630100015D01003F
:10430000C363010010B583680446D3F860329A068F
:1043100003D5074940690DF029FAA368D3F8603244
:104320009B0603D5034960690DF020FA002010BDFB
:104330005F4F0100644F0100F0B50129044685B0CC
:104340000CD05368012101935F4B009313685F4ABF
:104350000CF085FD6FF0150005B0F0BD8368D3F853
:104360006032990603D55A4940690DF0FFF90025DE
:104370006FF0F9012046FFF733FDFA212046FFF7E1
:1043800045FDA0684FF48072294600F5A1708DF8B4
:104390000B5010F081FB4F4960690DF0E7F960693F
:1043A0000CF088FD4FF47A766068012203680DF105
:1043B0000B011F6903ABB847039BF3B9013E4FF4F0
:1043C0007A70B6B20FF0D5FC002EEDD1A368D3F809
:1043D00060329B0603D5404960690DF0C7F9502251
:1043E000A36820465A851822A36803211A853B4AF0
:1043F0000CF035FD6FF00700AEE79DF80B20A368C9
:104400001B2A53D093F842111B29CDD1522A4DD1EA
:104410005A19002382F84231A66896F843215B2A94
:104420002BD1022506F2431010F8011F2A463B2922
:1044300005F10105ADB223D1FF2AC7D002F5A17263
:1044400016FA82F1002211F8010F18BBFA2A28BFD0
:10445000FA22FA2B28BFFA2386F84201A1684A857E
:10446000A2681385A368D3F860329A0603D51A4967
:1044700060690DF07BF900206EE786F84231A5E710
:1044800003EB8303303901EB4301B5F5807F8BB239
:10449000CAD19BE7013502EB8202ADB2303800EBA6
:1044A0004200B5F5807F82B2CDD18FE72B44013534
:1044B000ADB2092D83F842217FF676AF0022A368C2
:1044C00083F8422182E700BFAE630100A5630100CB
:1044D0006A4F01000E6401006E4F0100D4630100B9
:1044E0002DE9F04F07461546894689B021B110469F
:1044F0000DF071FA00285BD1032455E05C463CE0E6
:1045000029460AF5A17010F034FA0646002854D066
:10451000FBF7ECFF82B2601C31460132304410F0F0
:10452000A1FA22465946304610F08FFA4FF0200388
:104530003355BAF8403008F1010801331C44AAF899
:104540004040002401994B1C484603AA0193FFF701
:10455000D1FB0646E8B10022284631680DF0EFFB9A
:104560000028EFD1D6F800B0D7F808A0BBF1000FB3
:10457000C4D05846FBF7BAFF84B2BAF8403023449F
:10458000FF2BBDDD2B46032138460D4A0CF0FBFF07
:104590000124B8F1000F07D0B8682A4600F14001A5
:1045A00000F5A1700CF0B6FD204609B0BDE8F08F13
:1045B0004FF0000802244146C5E70224E9E700BFA6
:1045C000D6680100014808F0C7B900BF00550100D6
:1045D00038B5044618B90F4B0F485B6898476168B7
:1045E000B1F5683F10D0B1F5680F0DD00B4DA94261
:1045F0000AD011F46861206807D0014608480FF01E
:1046000058FC00232360656038BD142210F044FA82
:10461000F9E700BF54030020286901002C5F5CA962
:104620005021002008B560B34368B3F5683F0ED051
:10463000B3F5680F18D0144A934220D000684FF0A9
:10464000FF324FF0FF3307F003F858B115E00122B5
:104650000368D3E8EF1F002903D1C3E8E02F002847
:10466000F7D10AD1002008BD0368084A1B7803F57A
:10467000807352F82330002BF4D00548F3E7054847
:10468000F1E76FF4E040EEE72C5F5CA90000035017
:10469000E98FFFFFEA8FFFFF08B520B34368B3F54A
:1046A000683F09D0B3F5680F13D0114A93421DD06B
:1046B000006806F08FFF14E000220368D3E8EF1FC4
:1046C000012903D1C3E8E02F0028F7D109D0094818
:1046D00008BD00210368084A1B7803F5807342F87F
:1046E00023100020F4E76FF4E040F1E70348EFE720
:1046F0002C5F5CA9E98FFFFF00000350EA8FFFFFEA
:1047000010B5044618B91D4B1D485B68984763688F
:10471000B3F5683F2FD0B3F5680F2CD0194A9342F8
:1047200019D1236803BB4FF0FF324FF0FF3321460E
:10473000154806F0A9FD08B923681BB90F4B1348AB
:104740005B68984714220021206810F0A5F94FF407
:104750006863636008E0B3F5683F0DD83A2B03D077
:1047600040F6BA629342DED120680FF0F8FB63682E
:1047700043F03A03636010BD054AF3E75403002099
:10478000286901002C5F5CA9502100204E690100BE
:104790003A00003A08B506494023142205480FF0B4
:1047A0007AFBBDE808400449044808F099B900BF05
:1047B000501C002050210020085501001C5501000C
:1047C00030BFFFF7FDBF00BF124B134A2DE9F04188
:1047D000D518013DB5FBF3F5DFF840805D43104B84
:1047E000074608EB0304013CB4FBF3F403FB045459
:1047F0000E1B30460B4910F028F970194246002173
:10480000083E10F049F9C7F8A86004F10800BDE8B7
:10481000F08100BF0100000000000000080000005F
:1048200004000000144F0100044B99685869884245
:1048300003D003494FF080520A607047605A00204D
:1048400004ED00E0154B9A6A12F0007F9A6A14BFDB
:104850001E201D2012F0807F9A6A18BF1F2012F4BC
:10486000801F9A6A18BF022012F4002F9A6A18BF9C
:10487000212012F4802F9A6A18BF222012F4003FE0
:104880009A6A18BF232012F4803F9A6A18BF242026
:104890006FEA02426FEA12429A62704700ED00E04E
:1048A00010B5194B0246986A9C6A10F4805F14BFD9
:1048B0001720162014F4006F9C6A18BF1820A40556
:1048C00009D5986B986A000404D51AB19A6A22F443
:1048D00000429A6219200C4B9A6A12F4806F9A6A0D
:1048E00018BF1A20D2050CD49B6A13F4005F18BFBE
:1048F0001C20054A936A43F47F43936200230B70A4
:1049000010BD1B20F5E700BF00ED00E010B51C4B0B
:104910000246986A9C6A10F0100F14BF11201020F4
:1049200014F0080F9C6A18BF1220A40709D5586B11
:10493000986A000604D51AB19A6A22F080029A6237
:1049400013200F4B9A6A12F0010F9A6A18BF1420B5
:1049500012F0200F9A6A18BF1520D40658BF9B6A20
:10496000074B9A6A920642BF5A6A22F400525A6270
:104970009A6A42F0FF029A6200230B7010BD00BFDA
:1049800000ED00E0F0B5474B04465B6800258BB0B6
:10499000C3F3080385F31188BFF36F8F02F07F40E4
:1049A000B0F17F4F11D102F00C0008280DD0100794
:1049B0004CBF0C4601250022033B8DF80720032B3A
:1049C00005D8DFE803F02462665F2C46F3E7002396
:1049D0009DF80720CAB902AE04F1200732462068CC
:1049E0006168083403C2BC421646F7D1099A002D0B
:1049F00053D0C2F3080121B96FEA52226FEA422272
:104A00000992184602A90DF02DF80BB0F0BD254B08
:104A1000DA6A9107DBD4DA6A002AD8DBDA6A520054
:104A2000D5D55A69A16942F480725A61BFF34F8F9C
:104A3000BFF36F8F5A6931F8021C22F480725A61F9
:104A4000BFF34F8FBFF36F8F4DF60272914209D0C3
:104A50009A6AD2B242B101200DF10701FFF756FF69
:104A60000346B5E72368B3E79A6A12F47F4F05D08F
:104A700001200DF10701FFF713FFF1E79B6AB3F582
:104A8000803FA4D3FFF7DEFEEAE700200DF1070127
:104A9000E4E700200DF10701EDE722F4FF7222F0B8
:104AA0000102ADE700ED00E0044B5A6942F010024C
:104AB0005A615A6942F480625A61704700ED00E021
:104AC000EFF30880EFF3098101B57246FFF75AFF53
:104AD00001BD00BF002080F31488BFF36F8F00205A
:104AE00080F30A8880F30B8800F0C2FC0020114993
:104AF0000860BFF34F8F104880F3088800F044F837
:104B0000202080F311880D484FF0AA014FF4006275
:104B10000FF03FF909484FF40061401880F309880D
:104B2000EFF314800221084380F31488BFF36F8FE2
:104B300000F00CF994ED00E010900020D07E0020F1
:104B4000BFF34F8F0549064BCA6802F4E062134376
:104B5000CB60BFF34F8F00BFFDE700BF00ED00E06B
:104B60000400FA05002318460649D1F89020C2F344
:104B70000722934200DB7047C1F89830C1F8A000CB
:104B80000133F6E700ED00E010B572B6002484F3BF
:104B90001388FFF7E7FF23464FF0FF300C4A03F17D
:104BA00020010133102B42F82100F8D100234FF0EF
:104BB000FF30074A03F160010133102B42F8210056
:104BC000F8D162B6BFF34F8FBFF36F8F10BD00BF38
:104BD00000E100E0084B9B6883420BD1EFF30583B3
:104BE00043B1064B5A6842F080525A605A6A22F426
:104BF00000425A620FF014BC605A002000ED00E041
:104C00006FF00A01094A9368C3F8B0100849C3F865
:104C1000AC004B6843F080534B60002383F3118852
:104C2000BFF36F8F9368D3F8B0007047605A0020CD
:104C300000ED00E017498A684FF030001044EFF3B0
:104C4000098C80E8F01F202080F31288BFF36F8F5B
:104C5000114F4FF000664A698A603E604FF0A80429
:104C6000141920680D4C2060D2F8AC000023C2F863
:104C7000AC3080F3118802F1300090E8F01F8CF323
:104C8000098802F1000004B50CF0FDFEBDE8044007
:104C900070470000605A002004ED00E06C21002005
:104CA0001EF0040F0CBFEFF30880EFF30980816959
:104CB00011F8021C0229FFD001B50CF0D5FE01BD90
:104CC00040B2002807DB01234109034A00F01F001E
:104CD000834042F82130704700E100E040B20028F4
:104CE0000CDB01220649430900F01F0082402033FB
:104CF00041F82320BFF34F8FBFF36F8F704700BF82
:104D000000E100E0054B420953F82220012300F0A6
:104D10001F0003FA00F01040704700BF00E100E000
:104D200040B2002801F10101ACBF00F16040064B28
:104D30004FEA4111C9B2ABBF00F5614000F00F006E
:104D400080F800131954704714ED00E00B4A08B5C1
:104D50000B4B22F07F029A60BFF34F8FBFF36F8F30
:104D6000D3F8882022F47002C3F8882006F0AAF94C
:104D700007F0CCFA00F07AF806F0F2F90000000033
:104D800000ED00E042F8203C009B0B4942F81C3C3F
:104D9000019B21F0010142F8183C029B42F8081CDB
:104DA00042F8143C4FF0807342F8043C0023203A50
:104DB0000265C0F8AC307047050C00000B4BD0F812
:104DC000A84098600A4B1C60D0F8983083F30B8899
:104DD000104681F30988002163B681F31188BFF37F
:104DE0006F8F00220023FBF70DFF00BF605A0020E9
:104DF0006C210020014910220A60704710ED00E08C
:104E000072B6404080F31188BFF36F8F01B500F098
:104E1000EBFA00280AD0BFF34F8F30BF00BF00BFAE
:104E200000BF00BF00BF00BF00BF00BFBDE8014022
:104E300062B6BFF36F8F704772B6494081F3118835
:104E400001B500F0D1FA00280AD0BFF34F8F20BF80
:104E500000BF00BF00BF00BF00BF00BF00BF00BF5A
:104E6000BDE8014080F3118862B67047002320211D
:104E70000348C2180133452B82F80013F9D170475B
:104E800000E100E001B5EFF30580A0F110004FEA6A
:104E9000C0000449014409C99847BDE801400249DE
:104EA00008470000484C0100294800001FB5094C84
:104EB000094A23460121094800F0EAF80023039338
:104EC000074B0121E41A01A80193029400F0EAF8CB
:104ED00004B010BD00000720000000202C55010088
:104EE0007806002010B50C7A0B6804F01F0223F03E
:104EF0001F031A43CB68640923F01F03054943EAE3
:104F0000440343F00103C1F89800C1F89C20C1F8A4
:104F1000A03010BD00ED00E02DE9F04F0F46144623
:104F200006464FF000084E4D85B0B84580F294809B
:104F3000D6F80490B9F1000F36D0B9F11F0F40F246
:104F4000898019F01F0F40F08580D6F800A01AF074
:104F50001F0F7FD150460CF09BFD834609EB0A00E2
:104F600001380CF095FD834574D11BF1160F71D0FB
:104F70005C456FDDC5F898B0D5F89C10C5F898B0C1
:104F8000D5F8A03021F01F0143F01F0AD6E9003206
:104F90001A44994202F1FF391ED1CA4508D131465F
:104FA0005FFA8BF00CF07DFD08F101080C36BCE7D0
:104FB0003146C5F898B0D5F89C3022F01F0203F0B6
:104FC0001F031343C5F89C30E0B20CF06AFD10F1EA
:104FD000160F3FD0441CE7E7C5F898B0D5F8A020DD
:104FE000013B23F01F0302F01F021343CA45314661
:104FF000E0B2C5F8A030E8D00CF053FD10F1160F68
:1050000028D0C5F898B0D5F89C209DF808300AF152
:10501000FF3A62F304038DF80830D5F8A0309DF80C
:1050200008205B0863F347128DF80820D6E90032A8
:105030001344009323F01F03411C5344A3EB0903C3
:10504000C8B223F01F030728039303D86946FFF76C
:1050500049FFBFE76FF01504204605B0BDE8F08FAB
:1050600000ED00E00522044BC3F89420BFF34F8FFE
:10507000BFF36F8F704700BF00ED00E0BFF35F8F9D
:105080000022024BC3F89420704700BF00ED00E0FF
:1050900010B5034C2278FFF73FFF207010BD00BF12
:1050A0009A6600202DE9F74F294D8A4606464FF0B3
:1050B0000008AB46274FD0451BDAD6F80490B9F16B
:1050C000000F3FD03168084601910CF0E1FC0199D6
:1050D000044609EB010001380CF0DAFC84424FF081
:1050E00014021D4B08D002FB08F36FF015024BF8B9
:1050F000032003B0BDE8F08F14F1160F2C60F8D038
:105100001978A142F5DD02FB08B0C7F89840C7F84E
:105110009840D7F89C4000F10801007B64F304003C
:105120000871D7F8A0000C79400860F347140C719F
:10513000D7F89C1021F01F016960D7F8A01021F06A
:105140001F01296108F1010814350C36B3E700BFCF
:105150007021002000ED00E09A660020F0B5384D87
:1051600087B02C68082C67D80020FFF787FF354BE5
:10517000354AC3F8C02084420DD1344D01A82C70AB
:10518000FCF776F900240646314FA6420AD1FFF714
:1051900069FF00204EE0696801EB0011FFF7A2FEF5
:1051A0000130E8E70199200101EB0413DA683A4085
:1051B000B2F5001F22D0B2F5800F2CD0B2F5801FBF
:1051C00036D15A689B680958013B22F01F000344FE
:1051D0000120844623F01F0340EA4C108DF8100094
:1051E0002878CDE902210728059321D802A9FFF7E5
:1051F00079FE2B78013401332B70C6E75A689B681F
:105200000958013B22F01F0003444FF0020C01201B
:1052100023F01F03E0E75A689B680958013B22F01E
:105220001F0003444FF0000C062023F01F03D3E7B8
:105230006FF0150007B0F0BD4FF0FF30FAE700BF88
:105240003855010000ED00E0AAFF44009A660020F6
:105250000000F0FF08B5024B1B689847002008BD0E
:1052600084210020034B044A1860937843F0020322
:105270009370704784210020E8010020F0B587B0CA
:1052800007460E4614460021102268461D460FF0C0
:1052900003FC02238DF80230054B2A46214668465E
:1052A000CDE9047601930AF069F907B0F0BD00BFBB
:1052B000DD1A010008B504480AF0F7FB404080F30E
:1052C00011884FF0020002DF8A69010008B5064923
:1052D000064821F00701C1F1005202F5E0220AF070
:1052E00046FE002008BD00BFDFC600208821002048
:1052F00000F01F0240090DD001280DD1094B03EB2E
:105300008203D3F8002222F0E04242EA0171C3F89E
:1053100000127047044BF2E70023803253F822302A
:10532000FFDE00BF002884500025845038B50124DA
:10533000134B144DC3F8004502230321C5F8D036A2
:105340000020FFF7D5FF20460321FFF7D1FFC5F866
:1053500004472146C5F804492120C5F8004BFFF752
:10536000C7FF21462020FFF7C3FF21460B20FFF790
:10537000BFFF21460A20FFF7BBFF002038BD00BF5A
:10538000001000500040005007B50DF107000DF06F
:105390003BFE114B98421CD14FF480620F4B1049D9
:1053A000C3F8B8254FF40062C3F83C259DF8070008
:1053B0000DF01EFE0B499DF807000DF014FE0120B4
:1053C0009DF80730984004F005FC002003B05DF81C
:1053D00004FB6FF00B00F9E70000AD0B00A00250DA
:1053E0002CA0025028A10250052370B5144D154E73
:1053F0002C780134B4FBF3F303EB8303E41A0DF0D0
:1054000014FB114A137823B156F82430C01A072828
:1054100014D94FF05023D3F8141141B10021C3F82F
:105420001411D3F814312C700CB9012313702C789B
:105430000DF0FBFA46F82400012070BD0020FCE7C7
:105440009C660020942100209B66002048B1054BFB
:10545000054A1B68B3FBF2F35843044B43F00103C6
:10546000184770478C02002040420F00804F010017
:1054700004F092BA1022174B70B5C3F840244FF4D1
:105480007F03D3F83021D3F83431072A1BD1023BF4
:10549000032B02D8104AD35CABB14FF05024012645
:1054A00000250520C4F81866C4F814560DF099FDBF
:1054B0003046C4F814660DF094FDC4F81456C4F8D0
:1054C0001856002070BD4FF050230022C3F8142658
:1054D000F7E700BF00300050A869010070B54169CE
:1054E0000446867A0A4D59B1437ADB0706D42C2349
:1054F00003FB06535B6A1B689B6898470023636144
:105500002C20214606FB0050BDE870400EF0B8BDCF
:105510001C0500202C21827A054B01FB02339A6A7C
:105520001B7F801A1B3323F00303B0FBF3F070479B
:105530001C05002038B52C24827A094B04FB023369
:105540005B6A0C685B681A68944294BF0C600A60DE
:10555000D3E90054FFF7DEFF05FB004038BD00BF74
:105560001C0500202DE9F04385B0054668469046AD
:105570001C4603910EF0B5FFDDE900674FF02003F4
:10558000EFF3118983F31288BFF36F8F6B8B002BBE
:1055900041D02A8B9A4225D900220023284606F0C2
:1055A000D1F80446F0B189F31188BFF36F8F039BE4
:1055B000002B41D032463B4668460EF0B6FF2C2108
:1055C000A27A234B204601FB02335B6A03A91B68C6
:1055D0001D68DDE90023A847606170BB2046FFF726
:1055E0007DFF24E0698B4B1E6B8389F31188BFF329
:1055F0006F8F2B7F2A8BAC6A1B3323F00303521A65
:1056000002FB0344124B134AEB1A9B105343A37241
:105610002B7FE372CBE789F31188BFF36F8F2346AB
:105620004246284606F08EF804460028BFD10024E2
:10563000204605B0BDE8F08363610023012263606A
:1056400022812382039A63696282E360F0E700BFEC
:105650001C050020A38B2EBA70B52C250B4C00B96D
:1056600070BD037A4668013BDBB20372002BF7D1B1
:10567000C3604360837A05FB03431B6A13B19847F9
:105680003046ECE7FFF72AFFFAE700BF1C050020D1
:105690002DE9F041DDE9066705461446884629B93B
:1056A00022B990F8463013F0700F2AD00EF028FC83
:1056B00008B10026002728460CF0B9FC20BB95F85D
:1056C000463013F0700F1FD0012C1FD0A4F13A0305
:1056D0005A425A41920008EB0201081A814228BF3F
:1056E000014632463B466C680B4F0C480C4EBC42A0
:1056F00008BF30460CF0A3FB014648B128460CF029
:10570000DDFC0020BDE8F0810022E4E70422E2E7AE
:105710006FF00B00F6E700BF100400201C0500200E
:105720004805002030B585B00093DDE908451346F3
:10573000CDE902450A46014602480CF0D0FC05B00E
:1057400030BD00BFF4030020020600F07F0312D535
:10575000082B05D1010700F00F0306D50E4870474E
:1057600010F0780F12D100F00F034C2000EB431023
:105770000A4B18447047082B05D1020700F00F03AD
:1057800006D50748704710F0780FF6D00020704714
:10579000044800EB43107047F4220020A8210020A9
:1057A0001424002014230020014902480EF0E2BC1A
:1057B000D0210020480C0020014601480EF055BCC5
:1057C0000405002000220023014805F0BBBF00BFF4
:1057D0000405002013B5002201213720FFF7A0FAAD
:1057E0003720FFF76DFA124800F0E0FD114B9842A8
:1057F0001AD10024104804F039FF104804F0C8FF03
:105800004FF0FF334FF480620D490E48009406F0CC
:1058100077F90D490B4805F09DFD0C480C490EF039
:105820008CFC204602B010BD6FF00400FAE700BF08
:10583000315A00000000AD0BBA6901008C5501001F
:10584000D0760020480C0020AC690100D021002057
:105850004D5B0000002310B50B49D1E8EF2F012A62
:1058600003D1C1E8E03F0028F7D10CD151F8044C36
:10587000143920460AF0CEFC783004D12046BDE829
:1058800010400AF0A2BC10BDC821002038B5002489
:1058900064F07F00C0B2FFF757FF01340CF095FCB5
:1058A000082CF5D100240E4DE0B2FFF74DFF03693F
:1058B00003B9056101340CF088FC082C05F14005A2
:1058C000F2D108480CF081FC074BD3F87C2212B9C6
:1058D000064AC3F87C2206480CF077FC002038BD4D
:1058E00038280020F4220020A8210020382400209D
:1058F0001424002010B5054CFFF764FF20B1416867
:1059000020460EF0D6FAF7E710BD00BFD8030020FE
:1059100007B5002300220E4801A905F0B5FC90B19F
:10592000FFF7E8FF00220023094801A905F0ACFCBD
:1059300038B90423019840600374FFF73DFFFFF777
:1059400033FF002001E00198406003B05DF804FBE4
:10595000D8030020022810B511D8094B1C5CFFF7B2
:10596000D7FF60B1002204720274FFF725FF054BD8
:1059700093F824301BB1BDE81040FFF715BF10BDF0
:10598000B7690100A8210020F8B587780646384697
:10599000FFF7DAFE3B060446F57812D5002D43D119
:1059A000FFF7B6FF034600283ED00122A577027418
:1059B000032202739C60FFF7FFFEBDE8F840FFF78B
:1059C000F3BE4DB1012D2FD1FFF7A2FF034658B30F
:1059D000657705740573EDE7FFF79AFF20B3B2789A
:1059E000124B12F0800F02F0080111D041B1D3F830
:1059F000A836E36001230374022384600373DAE7AB
:105A0000142102F00F0201FB0233D3F80836F0E74D
:105A100011B1D3F8A837ECE7142102F00F0201FB13
:105A20000233D3F80837E4E7F8BD00BF0060035045
:105A3000F0B5064689B01422002103A80FF02CF817
:105A40003378013B052B21D8DFE803F07A031414E7
:105A50006A16032300248DF81430FFF759FF03461C
:105A6000A0B100F108020474DDE9050182E8030039
:105A700018461DE00423EDE7B7783846FFF764FECB
:105A8000837A044623B1013B022B43D909B0F0BD10
:105A90003B06F57813D5002DF8D1FFF739FF034603
:105AA0000028F3D00122A5770274032202739C60C0
:105AB000FFF782FE09B0BDE8F040FFF775BE55B1B3
:105AC000012DE3D1FFF724FF03460028DED06577E0
:105AD00005740573EBE7FFF71BFF07460028D5D0D9
