:10100000807B0020418D0000999201002D8D000011
:101010002D8D00002D8D00002D8D000000000000A2
:10102000000000000000000000000000198F000018
:101030002D8D000000000000B18E00002D8D0000FD
:10104000FD90000089A20100FD900000FD900000CD
:10105000FD900000FD900000FD900000FD9000005C
:101060003FA20100FD900000FD90000073A201006E
:10107000FD900000FD900000FD900000FD9000003C
:10108000FD900000FD900000FD900000FD9000002C
:10109000FD900000FD900000FD900000FD9000001C
:1010A000FD900000FD900000FD900000FD9000000C
:1010B000FD900000FD900000FD900000FD900000FC
:1010C000FD900000FD900000FD900000FD900000EC
:1010D000FD900000FD900000FD900000FD900000DC
:1010E000FD900000FD900000FD900000FD900000CC
:1010F000FD900000FD900000FD900000FD900000BC
:101100007BB972B90029BEBF00204FF0004106E054
:1011100008BF00281CBF6FF000414FF0FF3000F007
:1011200057B8ADF1080C6DE904CE002909DB002B9E
:101130001ADB03F05DFBDDF804E0DDE9022304B017
:101140007047404261EB4101002B1BDB03F050FB79
:10115000DDF804E0DDE9022304B0404261EB410127
:10116000524263EB43037047524263EB430303F085
:101170003FFBDDF804E0DDE9022304B0404261EB0F
:1011800041017047524263EB430303F031FBDDF84A
:1011900004E0DDE9022304B0524263EB43037047ED
:1011A00053B94AB9002908BF00281CBF4FF0FF31CE
:1011B0004FF0FF3000F00CB8ADF1080C6DE904CE33
:1011C00003F016FBDDF804E0DDE9022304B070470C
:1011D000704700BF014B1B681B68184700000020C8
:1011E000014B1B689B68184700000020014B1B68DF
:1011F000DB68184700000020014B1B681B6918477B
:1012000000000020014B1B685B69184700000020AC
:10121000014B1B689B69184700000020014B1B68AD
:101220005B6A184700000020014B1B681B6B1847C6
:1012300000000020014B1B68DB6B184700000020FA
:1012400010B4034C24686468A44610BC604700BF17
:1012500000000020014B1878704700BF3C0F0020B1
:10126000042810B511D883B104280CBF10242824F9
:10127000A1420AD2064C54F8200018B141568A42C5
:10128000A8BF0A461A70002010BD6FF01500FBE7DA
:101290000009002030B50346114890F91C209A42FD
:1012A00019DD90F924209A4217DA9A1A846AA05C10
:1012B0000C4A15569D420DD00E32002918BF013040
:1012C0009442C0B206D129B1013BDBB2012B01D857
:1012D0000130C0B230BD0D20FCE70020FAE700BFAE
:1012E0000009002020C2010008B5054B93F91C300D
:1012F000984203DAFFF7CEFF024B1B56184608BD93
:101300000009002020C2010010B51C4C94F82C30BC
:1013100073B9012384F82C3003F0C3FC48B1184B97
:10132000A362D823236284F824300823A36123779F
:1013300010BD03F0CBFC0028F1D103F0D0FC002855
:10134000EDD103F093FC38B10E4BA362D823236296
:1013500084F824300423E9E703F091FC0028F3D15A
:1013600003F096FC0028EFD103F0A4FC0028EBD199
:101370004FF4DB71742002F0BDFE00BF00090020B5
:101380005BC201002EC20100014B1879704700BFFB
:1013900034090020054B1A79824283BF1B6800EB99
:1013A000400003EB00100020704700BF340900200C
:1013B00043F60952C0F3080302FB03F3400A03F5A6
:1013C000807302FB00F000EB5320704743F6095C8A
:1013D000C0F3080210B50CFB02F2C0F34E24030E5A
:1013E00043EA01230CFB04F0090E02F580724FEA78
:1013F000411C00EB52205A01B2EB030E4CEAD36CB5
:101400006CEB01044FEA841C4FEA8E12B2EB0E0221
:101410004CEA9E6C6CEB040C4FEACC0C4CEA527C10
:10142000D200D31841EB0C01DA03C903801841EA5A
:10143000534141F1000110BD430B48F2376C0CFBE6
:1014400003F34FEA134C00B5104B43F6095E0EFB55
:101450001C0000FB03F35B0D0EFB03FE03EB4C23B0
:101460000EF5745C0CF1080CB0EB5C2F08D80EF58F
:10147000807EA0EB5E20C0B20B6010705DF804FBB4
:10148000013300200B6010705DF804FB6F0C01004D
:10149000F8B5274DA94246D8264E274F450F45EAB5
:1014A000C105A6FB0514C0F34F31A40B01EB0541A8
:1014B00007FB1411A6FB0151890B41EA04411F4CA3
:1014C00004FB110448F2376C600B0CFB00F04FEA90
:1014D000104C43F6095E1A480EFB1C4505FB00F054
:1014E000400D0EFB00FE00EB4C200EF5745C0CF181
:1014F000080CB5EB5C2F12D80EF5807EA5EB5E2EA6
:101500005FFA8EFE069D85F800E00D0628184FEA6A
:10151000112141F10001186059601460F8BD0130DB
:101520004FF0000EEEE796219B2002F0E3FD00BF96
:10153000FF7F841E83DE1B43000024F40080841E92
:101540006F0C0100420B48F2376303FB02F2120CEE
:1015500043F6095C074B0CFB120101FB0333013B13
:101560005B0D0CFB03FC5002B1EB5C2F88BF01301C
:10157000184470476F0C010010B5094A92F8003406
:10158000202B03D15021022002F0B4FD590102EBBF
:101590004313BDE81040525858680421104700BF5B
:1015A0004009002008B501B3F0B14FF0FF331A46EF
:1015B000E0FB01320E498A4203D971216D2002F00D
:1015C00099FD180D40EA0230C3F30F134FF2244186
:1015D000B0FBF1F203EB0040064B03FB1200B0FB43
:1015E000F1F040EA0240013008BD0846FCE700BFC8
:1015F0003F420F00000024F4014B5888704700BFA1
:101600007C0D002010B5EFF3108472B6064A937972
:101610000133DBB293719379012B01D103F0C9FA45
:1016200004B962B610BD00BF7C0D002070B50C4C33
:10163000267866B90125A0602570FFF7E3FF00F06A
:101640004BFA30B94FF080432573C3F804530020A0
:1016500070BDA368002BFAD09847A660F7E700BFDB
:101660007C0D002038B5FFF7CDFF00F035FA094CAE
:101670004FF0804540B103F089FA01232B61042328
:1016800063730023A37338BD032363730123C5F879
:101690000433F6E77C0D002010B5EFF3108472B62A
:1016A0000A4B9A7922B94FF496716D2002F022FD0F
:1016B0009A79013AD2B29A719A791AB9DB7B0BB94D
:1016C00000F0F8F904B962B610BD00BF7C0D00202F
:1016D00008B5054B1A7822B100221A731A70FFF769
:1016E000DBFF002008BD00BF7C0D002073B51B4D43
:1016F0002B7F63B9286A00F0030003F074FA30B15D
:10170000EFF3108372B66A7B1AB103B962B602B006
:1017100070BD01226A7303B962B64FF0804308229C
:10172000C3F808234FF42073ADF80630BDF8064027
:10173000A4B2631E9BB2ADF80630002CF6D14FF078
:1017400080460748C6F80C4103F072FA85F8254038
:10175000FFF788FF0823C6F80433D8E77C0D002084
:10176000A00D00202DE9F041384C94F82630002BD4
:1017700069D04FF08043D3F80071D3F8046157B1BA
:101780000122C3F80823237B2BB1A368002525730E
:101790000BB19847A5604EB14FF080430022C3F8CB
:1017A00004210222C3F80823FFF7A0FF4FF0804670
:1017B0002748D6F80C8194F82550EDB203F03CFA96
:1017C00020B140F2C5116D2002F094FC47B1637B5B
:1017D000032B05D10423637303F0D8F9012333618C
:1017E000B8F1000F16D04FF080430022C3F80C214F
:1017F000637B042B02D040F2D711E4E703F078FAC0
:10180000C0B14FF080430022C3F8342C022363732D
:10181000FFF742FF4DB1002384F82530637B022B94
:1018200001D1FFF71FFFFFF737FFBDE8F041084880
:1018300003F011BA03F03EFA0028E2D103F04FFAA8
:101840000028DED1E2E7BDE8F08100BF7C0D00207A
:10185000A00D002010B5044C206A00F0030003F036
:10186000C2F90028F8D010BD7C0D0020F8B505465F
:1018700050B10278042A07D8437842B9013B1F2BA4
:1018800002D88378212B07D96FF0150076E0002B62
:10189000FAD18378002BF7D1814B0127C3F88070F0
:1018A000BFF34F8FBFF36F8F4FF08046C3F8807147
:1018B0007C4C4FF0FF33C6F808330023C6F80031E4
:1018C000C6F80431C6F80C31A371AB88A38003F0CD
:1018D00075F908B12770A771D6F80C24D6F80C3426
:1018E000D20303D5DF0701D500F0F0F840F2F5533D
:1018F00063802B78A9782377002222622174A27357
:10190000042B4ED8DFE803F005033B494B000123CD
:10191000236203F05AF900284ED003F05DF9236AE0
:1019200003F00303984247D1AB79002B3ED1FFF778
:1019300091FF237C6BB12B785BB900F0CDF80546A5
:1019400002F018FC6FF00043002D00F0A580C4E900
:1019500005034FF08043D3F80C24D3F80C34D203A2
:1019600003D5DB0701D500F0B1F84D4A0123002073
:10197000607384F82630C2F880311360F8BDFFF739
:1019800041FE4FF08043D3F80C14D3F80C24CE035F
:10199000F9D5D007F7D50223BAE7434BB8E7434B55
:1019A000B6E740F216316D2002F0A4FB4FF0804301
:1019B0000222C3F80423BCE74FF080430122DA601F
:1019C0000022C3F80421226AC3F8182503F04EF957
:1019D00010B34FF080534FF08042D3F84432C3F33A
:1019E0004233C2F83C3503F041F910B34FF0804365
:1019F0000122C3F84C254FF0804301229A60022255
:101A0000C3F80423AA79002A93D1D3F804239107B9
:101A10001CD440F2CD21C6E703F031F90028D8D11B
:101A200003F036F90028D4D103F044F90028D0D1CE
:101A3000D9E703F024F90028D8D103F029F90028C8
:101A4000D4D103F037F90028D0D1D4E7184A166969
:101A5000116941F010011161D3F8043106F010064C
:101A60000BB903F053F94FF08047D7F8043183B135
:101A7000FFF7F0FE26B90E4A136923F01003136135
:101A80004FF080430222C3F808230022C3F8042148
:101A90004FE703F039F9E8E7C4E9053059E700BF3B
:101AA00000E100E07C0D00200100020001000300C5
:101AB00000ED00E04FF08042012353600023C2F8A4
:101AC0000031014A13707047A30D0020014B012221
:101AD0001A707047A30D00204FF08043D3F80031F7
:101AE00023B9034B187800F0010070470120FAE792
:101AF000A30D0020094B4FF0FF32C3F8082300224A
:101B0000C3F84025C3F84021C3F84425C3F8442155
:101B1000C3F84825C3F84821704700BF0080004043
:101B2000084B1B785BB101234FF40031064AC2F821
:101B30004813C2F808130BB9C2F8403170474FF48C
:101B40004031F3E7A80D002000B0004070B5EFF37E
:101B5000108472B6094A0A4B0025D2F80415D2F84F
:101B600004612EB1596801315960C2F80451F4E79B
:101B70005B6804B962B6C0E9001370BD00B00040F4
:101B8000A80D0020032808D90438C0B2044B8000F7
:101B90001858003818BF012070470120704700BF57
:101BA00040B10040074BD3F80435C01A20F07F4005
:101BB000884205D3B0F5000F8CBF0220002070478B
:101BC0000120704700B0004001282DE9F041044693
:101BD000884604D94FF4F5716C2002F08BFA81002D
:101BE0000E4F0F4B4FF4803585400026C7F8085341
:101BF0004046C7F848535E500221FFF7D3FF58B95B
:101C000004F5A87447F824800AB1C7F80453C7F84C
:101C100044530120BDE8F0813046FBE700B00040AE
:101C200040B1004008B5054A9068022120F07F408D
:101C3000FFF7B8FF0128F7D008BD00BFA80D0020AE
:101C40000F4B4FF40062C3F88020BFF34F8FBFF3F8
:101C50006F8FC3F880210B4B01225A609A60D3F832
:101C60000425002AFBD10849C3F80813C3F8481318
:101C7000C3F84021C3F84421C3F80421704700BFD2
:101C800000E100E000B000400200030008B50A4B8C
:101C90004FF48072C3F88020BFF34F8FBFF36F8F74
:101CA0000649C3F8802101204860FFF723FF044B59
:101CB000086100221A7408BD00E100E000800040C5
:101CC000A80D002010B5254C0023FF224FF0FF3156
:101CD0004FF0FF30C4E90201237062746360FFF7C4
:101CE000D5FFFFF7ADFF1E4B4FF400621A6061692C
:101CF0001C4A51B9012313601A4B4FF48272C3F886
:101D000044230222C3F8042310BD174B1748C3F81D
:101D1000A805C3F8AC15C3F85C294FF40022C3F83A
:101D20000425134A0521C2F8401501211160D2F89B
:101D300040110029FBD04FF40021C3F80815012100
:101D40005160D1600021C2F84011C2F84015C3F8BB
:101D5000A815C3F8AC15C3F8AC15CDE7A80D002045
:101D600000E100E000B0004000F001404081004090
:101D700000800040F8B52D4C2778012F05460E460F
:101D800005D1D4E902238B4208BF824248D0284BB8
:101D90004FF04042C3F80825FFF7C2FE002225F0AD
:101DA0007F411046FFF710FF00283AD00FB1FFF730
:101DB00039FF002301276374A761FFF767FF1D4BFD
:101DC000D3F8042522F00302C3F80425D3F808252C
:101DD00022F0030242F00202C3F80825102292FA10
:101DE000A2F2B2FA82F2092A04DD134840F29131DC
:101DF00002F076F9C3F81025DF60A269C3F800226B
:101E00000E4B4FF48072C3F880211A60084B4FF0DC
:101E10000042C3F80425C4E9025604236370277006
:101E2000F8BD40F20E316C2002F064F9A80D0020DC
:101E300000F0014000800040B6DE010000E100E05B
:101E40002DE9F0411E4C94F80080B8F1020FD4E95E
:101E5000022305460E4605D18B4208BF82420AD1B5
:101E6000BDE8F0818B4208BF824204D14FF4477134
:101E70006C2002F03FF9237C13B94FF44871F7E767
:101E8000104F4FF040430022C7F8083525F07F413E
:101E90001046FFF799FE78B1B8F1000F01D0FFF7B7
:101EA000C1FE4FF08043C7F804350423637002235A
:101EB000C4E902562370D3E74FF44B71D8E700BF53
:101EC000A80D002000F00140014BD3E9020170474A
:101ED000A80D0020014BD3F80405704700B0004066
:101EE00013B56846FFF732FEDDE90004FFF760FA3C
:101EF000024B0021E4FB030102B010BD0080841EF0
:101F00002DE9F041224CFFF70BFE2378022B04D081
:101F100040F237316C2002F0EDF802F074FED4E9A3
:101F20000267C21C41F10005AF4208BF964226F08D
:101F30007F480ED004214046FFF734FE48B91046D2
:101F40002946FFF717FF134BA269C3F80022BDE82B
:101F5000F08102214046FFF725FEA0B90E4A0D4947
:101F60004FF08043C2F808350123A36160744B60D1
:101F7000CB604FF00041C2F804150422C4E90267A7
:101F800062702370DFE70123A36100236374DAE743
:101F9000A80D00200080004000F00140032837B564
:101FA00008D9041FE4B2012C19D940F2F5316C2094
:101FB00002F0A0F8244900F1100201239340C1F877
:101FC000083300F5A873002241F823201F4B81003D
:101FD0005A5053F820300093009B03B030BD1C4D85
:101FE0002B789BB16A78824210D11A4A4FF0404157
:101FF000012BC2F8081501D1FFF748FE00232B7012
:102000004FF0FF324FF0FF33C5E90223124A4FF47D
:102010008033A340C2F80833C2F8483304F5A873EC
:10202000022152F82300FFF7BDFD012818BF0B4B1A
:1020300022B204FA01F41CBF00211951074B53F8D6
:1020400022300193019BC8E700800040408100409E
:10205000A80D002000F0014000B0004040B1004059
:1020600008B50B4B1A78012A05D15878FFF78AFD7D
:1020700058B1002008BD022AFBD15878FFF782FD35
:102080000028F6D14FF08040F4E74FF00040F1E730
:10209000A80D0020032838B522F07F41264B0446C6
:1020A00006D90438C0B2012838D940F2A1310BE07A
:1020B000D3E90202B2F1FF3F08BFB0F1FF3F06D102
:1020C0001A7C22B940F27E316C2002F013F81B78A2
:1020D000022B1AD0194B1A4D04F110020120A40052
:1020E00000FA02F2C5F80823185104F1804404F5FF
:1020F0000044D4F84035CB1A23F07F43022B09D992
:10210000C4F84015C5F8042338BDFFF7A9FF430004
:10211000FBD4DFE70020C4F84005F5E71A782AB1C0
:102120005B78A34202D140F29D31CDE7BDE8384053
:102130000122FFF749BD00BFA80D002040800040EC
:1021400000800040204A08B5D2F80433D90312D5E4
:10215000D2F840317BB10023C2F84031D2F84005BB
:102160000221FFF71FFD30B14FF48033C2F808336E
:10217000042001F0D5FB144AD2F804339B0312D596
:10218000D2F844317BB10023C2F84431D2F844057F
:102190000221FFF707FD30B14FF40033C2F80833D6
:1021A000052001F0BDFB084BD3F8042132B1002219
:1021B000C3F80421054A536801335360044B4FF4BC
:1021C0000062C3F8802108BD00B00040A80D0020C7
:1021D00000E100E038B5314C637CFF2B5BD0237805
:1021E0003BB1012B10D12374022360782370FFF7D9
:1021F000D5FE2B4BD3F8042310030DD5D3F84C2177
:1022000052B140F23E4104E0237C002BECD140F27D
:1022100052416C2001F06EFFD3F8042351030DD519
:10222000D3F8483153B10220FFF7B8FE1D4B4FF4ED
:102230008072C3F88021022001F072FB184BD3F8A2
:10224000042392030DD5D3F8443153B10120FFF795
:10225000A5FE144B4FF48072C3F88021012001F0D9
:102260005FFB0F4DD5F80433DB0316D5D5F84031AD
:102270009BB10020FFF792FE0A4B4FF48072C3F827
:1022800080210020FF236374A061C5F80002BDE82F
:10229000384001F045BB0620F9E738BDA80D002005
:1022A0000080004000E100E02DE9F04F8C4F7C7E83
:1022B00004EB44033B4483B05E78202E47D0894B27
:1022C000E5B26400002B00F08780874BDFF81C929A
:1022D000002B5DD006EB451207EB420A4FEA45188A
:1022E0009AF82030013BDBB2052B33D8804A12F834
:1022F00003B0BBF1090F2DD0AFF30080EFF31083D3
:1023000072B62C443C449AF821206270A278B24202
:1023100004BF2022A27013B9AFF3008062B6B044AC
:10232000730107EB480809EB4616012259F8033000
:10233000706888F82020594698477C7E04EB440357
:102340003B44E5B25E78202E4FEA4404C2D103B08C
:10235000BDE8F08F40F2C661702001F0CBFE62B69E
:10236000B044730107EB480809EB4616012259F8FF
:102370000330706888F82020594698477C7E04EB2B
:1023800044033B44E5B25E78202E4FEA4404DED09D
:1023900006EB451207EB420A4FEA45189AF820303F
:1023A000013BDBB2052BD5D8514A12F803B0BBF183
:1023B000090FCFD0AFF30080EFF3108372B62C4437
:1023C0003C449AF821206270A278964204BF2022F1
:1023D000A270002BC4D1C2E7434BDFF814B1DFF881
:1023E0000CA14FF02009002B4FD006EB451207EB54
:1023F00042024FEA451892F82030013BDBB2052B30
:10240000A8D81BF803100929A4D0EFF3108372B6E3
:102410002C443C4492F821206270A278964208BF76
:1024200084F80290002B52D0B04407EB48087301A7
:102430000AEB461601225AF80330706888F820200B
:1024400098477C7E04EB44033B44E5B25E78202E43
:102450004FEA4404C9D17AE762B6B044730107EB8E
:1024600048080AEB461601225AF80330706888F8CB
:10247000202098477C7E04EB44033B44E5B25E7821
:10248000202E4FEA44043FF462AF06EB451207EBFF
:1024900042024FEA451892F82030013BDBB2052B8F
:1024A0003FF658AF1BF8031009293FF453AFEFF381
:1024B000108372B62C443C4492F821206270A278BA
:1024C000964208BF84F80290002BC6D1C4E7019160
:1024D000AFF3008062B6B044019907EB4808A6E765
:1024E000C80D00200000000000000000400900208E
:1024F0008CC201002DE9F04FDFF82CA1994601EBC9
:1025000041034FF0200E1AF8034082F800E07445B2
:1025100083B000F08680DFF814B10F469046054680
:102520000BEB4412D5F800C090681369D1681B18F2
:1025300041F100019C456B688B414FEA44161CD366
:10254000EB89002B54D0D38A002B51D1ACEB000384
:102550000193FFF751F840F256339842019B5AD04D
:1025600040F2F552904252D0B0F5C67F14BF01221E
:102570000E2293423CDA98F800E089F800E095E8F2
:102580000D000BEB06011B18D1F8088042F1000288
:102590009845CB6893411AD3CB8AA3B1EB8993B901
:1025A000A8EB0008FFF728F840F25633984230D0E5
:1025B00040F2F553984228D0B0F5C67F14BF0123EE
:1025C0000E23984503DB012003B0BDE8F08F5E4485
:1025D00089F80040327E2B7C9A421ED904EB4714C6
:1025E0000AEB440494F82140202CECD06601C6E7A5
:1025F00004EB47130AEB430388F8004093F82130BB
:10260000202BA6460DD01C468AE73323D9E7332278
:10261000AFE71D23D5E71D22ABE7002003B0BDE8DF
:10262000F08F89F80040CEE7C80D00204009002057
:102630002DE9F04F85B00C4615461E469DF83870C2
:10264000FEF780FF22686368451946F1000695424F
:1026500076EB030351D3DFF8BC8040F2563905E036
:102660005D4576EB0A0348D3C4E900BA0DF10F03C8
:102670000DF10E0239462046FFF73CFF00283DD100
:102680009DF80F3008EB4313D3E902201969DB8A68
:1026900011EB020B40F1000A002BE1D1E389002B82
:1026A000DED00191FEF7A8FF484501992BD040F2FA
:1026B000F553984225D0B0F5C67F14BF01230E23F1
:1026C0009942CDDAFEF798FF484520D040F2F55305
:1026D00098421AD0B0F5C67F14BF01220E229DF891
:1026E0000F3008EB43139968DB6812EB010B43F1E1
:1026F000000A5D4576EB0A03B6D2002005B0BDE8BE
:10270000F08F3323DCE71D23DAE73322E7E71D22CE
:10271000E5E700BF400900202DE9F04F154692F88B
:10272000008092F80BC0AF7A12891C4687B0002354
:10273000E3602361C4E9003327749DF8409084F876
:102740000DC00646A3606361E28184F811800F46E4
:10275000B8F1000F49D1FEF739FED5E904C2584B54
:10276000C31841F1000E9C4572EB0E030AD3013EE3
:1027700047F1FF37C4E900674FF47A73A36007B0ED
:10278000BDE8F08F263041F10001844572EB010372
:10279000EDD3288901300021844572EB0103C0F09C
:1027A0008180BCEB000062EB010104F10C0300939B
:1027B00003AA04ABFEF76CFE039B6868E97A2A89DA
:1027C0000233034400290CBF7A20472013441844E5
:1027D000FEF7B8FEDDE90432C01A20F07F40C4E9FC
:1027E0000032A06007B0BDE8F08F364803A9801A18
:1027F00004F10C02FEF720FEB4F80EB00DF10B024E
:1028000004A95846FEF718FE2F4B1B78202B2CD01E
:102810002E490B69D1E90521053342F1000A13EB7A
:1028200001084AF1000A6B68227B981CEB7AC4F815
:102830000080002BE389C4F804A0134403440CBFB8
:102840007A2047201844FEF77DFE3246A0603B46C2
:102850002869CDF800902146FFF7EAFE00288ED1C6
:10286000C4E9006707B0BDE8F08F16F1090847F129
:10287000000ABBF1000FD6D0FFF72EF90028D2D105
:10288000FEF7BAFE40F2563398420ED040F2F553AE
:1028900098420FD0B0F5C67FC5D116F1160847F1A2
:1028A000000AC0E7404641467FE716F1250847F198
:1028B000000AB8E716F13B0847F1000AB3E700BF8A
:1028C0000040420FFF7F841E400D0020480D002075
:1028D0002DE9F04F97B01C46CDE904128246FFF770
:1028E000F3FADFF8E8820546D8F8A0204FF08040E0
:1028F0000123C0F808350E461360B549082202EBE3
:102900004412531801EB4417B3F80E9054581A7B35
:102910000192D3E901B3083708930FCF0DF1380CBA
:10292000ACE80F0097E803008CE8030024F07F4038
:10293000FEF73EFD019A09F101031344A54A9042B6
:10294000034400F21F82934200F3DA80002BC0F2AE
:10295000D1800793FFF7C0F80290B9F1000F40F063
:102960009980FEF749FE40F25633984200F0D68037
:1029700040F2F553984200F0CE80B0F5C67F00F0EB
:10298000C48000230393002003210246B6F1FF3FD9
:1029900008BFB5F1FF3F1BD0A54276EB0B03C0F09B
:1029A0009B802F1B66EB0B03B7F5000F73F1000341
:1029B00080F0ED81671B002F2B4609DD002A00F017
:1029C000B08098F8181000290CBF0146002100E0E3
:1029D0005346671EA7EB03034BF1FF308B42009079
:1029E000069752DB029B7BB9D8E90431B1F1FF3F76
:1029F00008BFB3F1FF3F07D00398E31A6BEB010167
:102A0000834271F100033DD3009B0992049AB7EB16
:102A10000A0A63EB02030293FEF7EEFD40F2563C16
:102A20006045029B099A00F0BD8040F2F55C60456C
:102A300079D0B0F5C67F14BF0B201820824573F102
:102A4000000375D2059B012B00F0B480002A40F0F2
:102A5000AB80B6F1FF3F08BFB5F1FF3F00F0A480A7
:102A6000009BE91B66EB0303052973F1000080F26C
:102A70007481012973F1000307DA2F460695009649
:102A8000154665E0B9F1000FBED00024204617B00E
:102A9000BDE8F08FD8E90423B3F1FF3F08BFB2F1DE
:102AA000FF3F7FF45EAF00287FF45BAFFEF7A4FD2D
:102AB00040F25633984200F0608140F2F55398425C
:102AC00000F05681B0F5C67F00F04D81029B039364
:102AD00003211846012259E7671B6BEB0603B7F584
:102AE000000F73F10003FFF466AF40F289717020AC
:102AF00001F000FB03F1F45303F59023079329E75A
:102B000003F1614303F5F70323E700200D230321BD
:102B1000039302463AE73223039334E71C230393DB
:102B200031E7014655E73D20824573F1000389D323
:102B3000B9F100050099384618BF0125FFF71AF9C9
:102B4000009BB3F1FF3F08BFB7F1FF3F00F02481C6
:102B5000069B23F07F40231A23F07F43013BB3F50C
:102B6000000F92D2089B1B191B1A23F07F43B3F569
:102B7000000F8AD8FEF71CFC079A174BA2EB000A3D
:102B80009A452FD3801A9842C0F0DA80114B9A45AB
:102B900024D8984240F20A81C0F1614606F5F70652
:102BA000B24620E0272049E700993846FFF7E2F8CF
:102BB0000025C5E7B6F1FF3F08BFB5F1FF3F00F0C4
:102BC000FA8006952F4600960025C1E7C80D002023
:102BD00040090020FF7F841E0040420F0AF1F45A92
:102BE0000AF5902A5646794B93F8283023B909F113
:102BF0001E03B34280F2AC80059B012B02D0012062
:102C0000FFF7CCF9B9F1000F5CD0AAEB0902002361
:102C10000120FFF73FFA002850D000235246184603
:102C2000FFF738FA002849D0002D6FD1D8E90423E6
:102C3000B3F1FF3F08BFB2F1FF3F05D1FEF7E2FC61
:102C400001F0E1FFC8E9040198F81830002B70D1B9
:102C500009F11902B24280F2A4800025AAEB020217
:102C60002B460220FFF716FA30B1D8F8A0301D60CD
:102C70004FF08043C3F80855089B10934FF0FF3086
:102C80004FF0FF31CDE90E4B019B8DF84430CDE97B
:102C90000C0100238DF85030ADF846900A930AAE2F
:102CA0000FCE4A4D0FC50FCE0FC596E80F00012479
:102CB00085E80F00204617B0BDE8F08F0120FFF730
:102CC0006DF9E2E652464B464846FFF7E3F9002825
:102CD000F4D0D8E90423B3F1FF3F08BFB2F1FF3FBE
:102CE0001CD1002DB0D0039BFA1A009B4FF00500B9
:102CF00063F10003FFF7CEF9002861D098F818308F
:102D0000002BA5D1012388F81830A1E7D8E90423C6
:102D1000B3F1FF3F08BFB2F1FF3FE4D0FEF7BCFCC8
:102D20004FF0FF324FF0FF33C8E90423002D8BD062
:102D3000D9E70520FFF732F9002388F8183087E734
:102D4000224B93F828304642B246002B7FF454AF12
:102D50004FF4FD61702001F0CDF900993846154619
:102D6000FFF708F8ECE60D201021039001220DE694
:102D7000322035210390012208E61C201F210390F8
:102D8000012203E640F23D41702001F0B3F940F228
:102D90008D71702001F0AEF940F2D471702001F015
:102DA000A9F94FF40161702001F0A4F940F6B201D5
:102DB000702001F09FF940F2FB61702001F09AF958
:102DC00040F22921702001F095F900BF480D002044
:102DD0003B4B2DE9F04793F828303A4DDFF8E88077
:102DE000002B00EB40030746EC5C14BF00260226D4
:102DF0004FEA4709FFF76EF84FF0200C4FEA471EE5
:102E000008EB44120EEB04039168126905EB430AC8
:102E10000B1A23F07F439E420FD8B3F5000F0CD856
:102E20005218121A22F07F42B2F5000F05D8BCF1F9
:102E3000200F0BD12046BDE8F0879AF82130202BD7
:102E4000A4461C46DCD1BCF1200FF3D00CEB471399
:102E500009EB070205EB430315F802E093F8213074
:102E6000AB547901744604260B1905EB4303224643
:102E70009445204683F8206093F82140F4D109EB73
:102E800007032B440A4493F802C0BCF1200F5FFAF9
:102E90008CF618BF76184F4418BF05EB460605EBB5
:102EA00042023D4408BF83F801E04FF0200318BF01
:102EB00086F821E0A87082F821302046BDE8F0872E
:102EC000480D0020C80D0020400900202DE9F041E8
:102ED00001EB41034C4DEE5C82B0202E01910C467B
:102EE00080464FEA41073DD1484B0BB1AFF300801C
:102EF00001F089FEAB7E202B0AD0454BD3E904E2DA
:102F000010F1020C41F10003E64572EB03032ED3EE
:102F1000202E0AD042463346FFF7DAFC00283BD089
:102F20000220AE7602B0BDE8F081D5E90423B3F10A
:102F3000FF3F08BFB2F1FF3F1DD12B7E33BB042002
:102F4000FFF72CF801F06DFED5F8A0104FF080428D
:102F50002020A876002301200B60C2F8083502B0BB
:102F6000BDE8F0810846FFF733FF8642BCD0002061
:102F700002B0BDE8F081FEF78FFB4FF0FF334FF05A
:102F8000FF32C5E904232B7E002BD8D00520FFF7A4
:102F900005F800232B76D2E73A1906EB441305EB2C
:102FA000430315F802E093F82130AB5461017346F6
:102FB0000420CA189C4605EB4202664592F821306F
:102FC00082F82000F5D13B192B443C449878202806
:102FD000C2B218BF5218614418BF05EB420205EB9C
:102FE0004101254408BF83F801E04FF000004FF095
:102FF000200318BF82F821E085F802C081F8213053
:1030000002B0BDE8F08100BFC80D00200000000044
:10301000480D0020F8B5184A184D002342F2200050
:1030200020214FF0FF364FF0FF37A97028806B76D4
:10303000136082F82830AB71C2E90267C5E9046702
:103040001C46EB71A9762B766A1802F8143001340D
:10305000202CFAD101260A482E7201F0C9F8094B3A
:103060001870094B1C7001F023F9C5F8A000FEF799
:1030700029FEEE76F8BD00BF480D0020C80D0020E7
:10308000A9220000780D0020400D00202DE9F04F0E
:1030900087B001F0B8FDC44E05460F4601F0C1FDF2
:1030A000D6E90223B3F1FF3F08BFB2F1FF3F05D0DD
:1030B0004FF0FF324FF0FF33C6E9022396F8283075
:1030C000002B00F0F380737F002B00F0ED80B74CF5
:1030D000E379002B40F0DE80E81C47F10001FEF7A9
:1030E00049FE237A002B40F05581DFF8C48298F81E
:1030F00000B00122BBF1200F227200F0508120228B
:10310000A37188F80020A276E3713360637E03EB3D
:1031100043025FFA83F9A25C5B00202A019308D086
:10312000DFF890A253010AEB4212517E012900F010
:10313000E280019BDFF880A203EB090727444FEAF6
:1031400049183D78202D04D04846FFF741FE8542BE
:10315000F7D1BAF1000F01D0AFF3008001F053FDB9
:10316000A37E202B09D0D6E9042310F1020E41F1F1
:10317000000C724573EB0C03E3D3202D39D02B46A2
:103180000122FFF7A5FB002855D0A57608EB0B031D
:1031900004EB430393F82020022A1DD1019A4A44EC
:1031A0002244062183F820109178CBB220291CBF3D
:1031B000434404EB4303D84418BF83F821B0019B78
:1031C00008BF82F801B04B44234404EB480883F85D
:1031D00002B0202388F82130019B4B449946A1443A
:1031E000FF2299F801306272202B56D107B0BDE85A
:1031F000F08FD4E90423B3F1FF3F08BFB2F1FF3FE2
:1032000007D0FEF749FA4FF0FF324FF0FF33C4E921
:103210000423237EC3BB0420FEF7C0FE01F001FDA2
:10322000D4F8A0104FF0804200232020A0760B603D
:10323000C2F80835AAE708EB050304EB4303387826
:1032400093F821303B70024604211346424404EBBC
:1032500042029D4282F8201092F82120F5D1B978DF
:10326000BB70CAB220291CBF424404EB4202434453
:1032700004EB430318BF82F821004FF0200208BF7F
:10328000787083F821205CE70520FEF787FE002395
:103290002376C0E7FEF734FE23E7484B187807B0E3
:1032A000BDE8F04F00F0C0BF404C15E74FF40C7183
:1032B000B069FEF777F933697269B169023342F197
:1032C00000025B1842F100021B1842F100029D420D
:1032D00077EB0203FFF4F7AE354B364A1B78580103
:1032E00002EB431308211258586890474FF431718C
:1032F000702000F0FFFED08A03930DF1130205A9A0
:103300000290FEF799F898F80020202ADDE90203E0
:1033100013D03269B16912F10508726942F10002F5
:1033200018EB010842F100029A44DAE90213414520
:10333000934128BFCAE90282FBE615F1090847F16B
:1033400000020028F0D0CDE90223FEF7C5FBDDE93D
:1033500002230028E8D1FEF74FF9014640F256302B
:103360008142039B0CD040F2F55081420DD0B1F563
:10337000C67F029AD8D115F1160847F10002D3E7AB
:1033800015F1250847F10002CEE715F13B0847F19A
:103390000002C9E74FF43771702000F0ABFE40F235
:1033A000DF21702000F0A6FE480D0020C80D00208F
:1033B000400D00204009002000000000780D002092
:1033C00070B5124C0D460646FEF744FA637E04F1D2
:1033D000200CD9B20CEB831C002302E00133202B1C
:1033E00012D01CF81320D8B2002AF7D103EB4111F8
:1033F000074A04EB4104590102EB431356500122E2
:1034000084F820205D6070BD184670BDC80D002096
:103410004009002010B5094C04EB4014D4E9020126
:10342000FDF7D4FF227DE38A9B1803F101034FF0DF
:1034300000025241181842EB010110BD4009002062
:103440002DE9F04FAF4A536891B0C3F308038346A8
:103450000491002B40F0688108230393049B1B78A0
:10346000012B00F24C82A84E26B1002140F29C5064
:10347000AFF300800023A54C05934FF0010926B15E
:10348000002140F2A950AFF30080B9F1000F04D140
:103490009F4B0BB1AFF3008062B6657EEDB24FF08B
:1034A00000036372039B002B40F09E80A84626B168
:1034B000002140F2BD50AFF3008001F0A4FB049A5C
:1034C00000950AAB8246FFF727F926B1002140F2AA
:1034D000C550AFF300800BEB481904EB49094FEAE4
:1034E000481799F82030013B012B7BD80A992AF024
:1034F0007F4AA1EB0A0222F07F4323F00103002B55
:1035000040F0C38008EB4802224407EB0B0390789D
:1035100004EB43030421202883F820104FEA4803DA
:10352000C1B200F0A281394404EB410181F821B01D
:10353000434423445F4404EB470783F802B020234D
:1035400087F8213000230593012726B1002140F29E
:10355000CA50AFF300806F4B0BB1AFF30080EFF3B5
:103560001088C14672B6637A002B88D16A4B0DF180
:10357000280E03EB4B1CBEE80F000CF1080CACE866
:103580000F009EE803008CE803008FB1039B002B23
:1035900000F0EA80059B23B1604B1B78202B00F0E4
:1035A0006781637EDB4303F001036376FF2363726D
:1035B000B8F1000F04D1564B0BB1AFF3008062B6E7
:1035C00026B1002140F20160AFF30080002F4AD104
:1035D00026B1002140F20D60AFF30080384611B0F3
:1035E000BDE8F08F0027B0E74D4B05F1010A0AF066
:1035F000010A03EB851E03EB8A1CBEE80F00ACE852
:103600000F00BEE80F00ACE80F00BEE80F00ACE80A
:103610000F009EE80F002DB28CE80F00D0460FFA85
:103620008AF726B1002140F2FA30AFF3008005EBB3
:10363000450507EB47076319625B9B78E253274414
:10364000BB7056B1002140F2FE30AFF3008026B1CE
:10365000002140F2B350AFF30080637A002B7FF477
:103660000EAF554623E7637E03EB43031C446378A8
:10367000202BADD026B100214FF4C160AFF3008004
:10368000284B187800F0D0FDA2E722F07F42B2F577
:10369000000F3FF637AF0C9B5B18A3EB0A0323F038
:1036A0007F43B3F5000F3FF62DAF0DF127030DF16A
:1036B000260229460AA8FEF71DFF059000285AD1C8
:1036C00008EB480222440423907889F820304FEA1E
:1036D00048032028C1B2434418BFC91923445F449A
:1036E00004EB470718BF04EB410183F802B04FF029
:1036F000200314BF81F821B082F801B087F821308F
:10370000012722E700ED00E000000000C80D0020C6
:10371000000000000000000040090020400D0020D3
:10372000E80D0020780D0020103B59B20029C0F2AE
:10373000948001F1604101F5614191F800335B092A
:103740000393002B7FF48AAE744B1B78202B00F080
:10375000DB80049B1B780393002B3FF484AE40F284
:103760009551702000F0C6FCFF236372B8F1000F82
:103770007FF426AF1FE79DF826C09DF827E0F445AB
:103780001AD1BCF1200F00F0A78007EB0C0304EB6B
:10379000430393F8213089F82130BC4404EB4C0CEE
:1037A00000228CF821B05F4404EB4703059F05928B
:1037B000032283F82020C8E6BEF1200F00F0A98084
:1037C00007EB0E0304EB4303BCF1200F93F8211029
:1037D00000F08D8007EB0C0204EB42024FEA480335
:1037E00092F82100069082F821104FF0050A3A184D
:1037F00004EB420201468E45814682F820A092F8F1
:103800002100F4D103EB08022244079192F802A0B0
:10381000BAF1200F5FFA8AFE66D0BE4404EB4E0E6A
:10382000069A8EF8212003EB08022244079982F8B9
:103830000290394407EB0B024FF0200E04EB4101DC
:1038400004EB4202F44581F821E082F82100A4D182
:103850004344059A04F803B0A5E703F00F03043BC3
:1038600013441B7E5B0903936BE782F801B05FE6AC
:1038700029460220FFF72AFB00287FF492AE637EE0
:1038800003EB430020440BEB431204EB4202857828
:103890000421DFB282F820105A015B00202DE9B22A
:1038A0003B4418BF891823445A4418BF04EB410114
:1038B00004EB420283F802B04FF0200318BF81F8F6
:1038C00021B0059F08BF80F801B082F82130B8F11F
:1038D000000F7FF475AE6EE608EB4803E35C89F8F1
:1038E00021304FEA4803B3E7069951709BE708EB94
:1038F00048024FEA4803A05C0690A15475E740F2E5
:103900009951702000F0F6FB40F29251702000F0C7
:10391000F1FB40F2D311702000F0ECFB400D0020D1
:1039200070B506280ED8DFE800F01D4F040D0D6FAE
:103930000E00B04B4FF08041D3F8A0200123C1F816
:103940000835136070BDAC4D2B78202B00F08F80B4
:10395000AA4C5A0104EB4313A2585868BDE87040C2
:1039600005211047A34CD4E90423B3F1FF3F08BF5E
:10397000B2F1FF3F00F0D680A14EF38B002B6DD14A
:103980009D4D2B78202B00F0AB80D6E90223FF2140
:10399000B3F1FF3F08BFB2F1FF3FE17105D0052051
:1039A000FEF778FB002800F01F81737F012B00F0E9
:1039B0008B802B78914A590102EB4313BDE870408C
:1039C00052585868012110478B4D8A4C2B78202B78
:1039D00000F0AF800123A371FEF77EF8002800F00D
:1039E000F480D4E90423B3F1FF3F08BFB2F1FF3FF5
:1039F00063D02B78814A590102EB4313BDE8704034
:103A000052585868002110477A4C237E5BB1D4E9A4
:103A10000423B3F1FF3F08BFB2F1FF3F00F0AC80D9
:103A20000023237670BD744D2A78202A00F0AB80E5
:103A3000734E4FF0FF324FF0FF33C6E90223E379B4
:103A4000002B00F0C7802B786C4A590102EB43131E
:103A5000BDE870405258586806211047FEF73CF800
:103A600000288DD14FF4D061702000F043FB6149F4
:103A70004B7E03EB4300DAB20B5C202B00F0AF80EF
:103A800003EB421201EB420292F821400C54FF205A
:103A90004872022082F82000584C59482B700022AE
:103AA0000A7280F8282004EB4312127E002A7FF469
:103AB00050AF00F097FE2B784BE7FDF7A3FD01F028
:103AC000A2F8C4E9040194E7D6E90401B369013816
:103AD00041F1FF31C01841F10001FEF7B1F968E78B
:103AE000627ED3B202EB4202A15C202977D001EBC7
:103AF000431304EB430393F82100A0543F4A297079
:103B000002EB41110022227286F82820097EFF2252
:103B10006272022283F8202000297FF436AF00F081
:103B200061FE32E7FDF76EFD01F06DF8C4E90401B6
:103B300022E7637E03EB4301DBB2625C202A4ED0B6
:103B400002EB431304EB430393F821006054FF217D
:103B50006172022183F82010284B2A7003EB421275
:103B60002748137E002180F828102172002B7FF453
:103B700031AF00F037FE2DE7FDF744FD01F043F8CB
:103B8000C4E904014CE7617ECAB201EB4101605C0B
:103B9000202824D000EB421204EB420292F821606C
:103BA00066541649164E287001EB4010237286F8B1
:103BB0002830017EFF236372022382F8203000291F
:103BC0007FF437AF00F00EFE33E740F2AA617020B9
:103BD00000F090FA40F29C61702000F08BFA4FF4F4
:103BE0001571702000F086FA40F28561702000F0B7
:103BF00081FA00BFC80D0020400D002040090020C0
:103C0000480D002070B5274B1A78202A86B044D082
:103C1000254CD4E90213B3F1FF3F08BFB1F1FF3FD8
:103C200036D1224D05EB42150646D5E90201FDF7D6
:103C3000CDFBEA8A2B7DD31803F101034FF000027C
:103C400052419B1942F1000218180DF10B0342EB8F
:103C50000101009303AA04ABFDF71AFC9DF80B20A9
:103C6000DDE904310F2A94BF002201229B1841F1A3
:103C70000001C4E902310E4BDB7913B9012006B013
:103C800070BDD4E902230520FEF704FA06B070BD2A
:103C900040F68901702000F02DFA40F6880170206E
:103CA00000F028FA400D0020480D002040090020B7
:103CB000C80D002038B5224B93F800E0BEF1200F6C
:103CC00038D0204D6B7E95F819C003EB43035FFAA3
:103CD0008CFCEB5C202B1FD01B4C4FEA4C1C06E0ED
:103CE000634405EB430393F82130202B14D004EBFD
:103CF0004312117E8142F3D804EB4E14D4E902132F
:103D000020694018D2E9021243F10003814272EBAC
:103D1000030304D2002038BD4FF0FF3038BD0B4BF9
:103D2000081A1C68FDF744FB04F16F038342F1D8C5
:103D3000001B38BD40F6C201702000F0DBF900BF67
:103D4000400D0020C80D002040090020480D002033
:103D50002DE9F04F924B1E7887B0202E019000F095
:103D60001A81904F904D7B7E03EB43038046286879
:103D7000FC5C2B6903930DF11302AB690293894636
:103D8000404405A9FDF758FB884BA8F16F029A4201
:103D900061D8DFF81C82059B696908EB4616B2689A
:103DA0009B1832699B182A699B1A23F07F40B0F553
:103DB000000F50D897F819A0AB61202C85F82090FF
:103DC0005FFA8AFA18BF4FF0200B00F0D88008EB9A
:103DD000441C9B18DCF8080041F100019842DCF813
:103DE0000C308B414FEA441651D3BCF81630002BEF
:103DF00035D10520FEF7D2F8797E4FF0FF324FF033
:103E0000FF33BBF1200FC5E90223C9B240F0A980FE
:103E100001EB410120247B5C614A797E127802EB40
:103E2000411207EB420282F821302B68019A1344B9
:103E30002B60FF237B72FB791BB16B7F012B00F0A2
:103E40009280202C43D05B4B187800F0EDF90020D5
:103E500007B0BDE8F08F012007B0BDE8F08FEB8B15
:103E6000002BC6D1A0EB0209FDF7C6FB40F256338A
:103E7000984220D040F2F55398421AD0B0F5C67F50
:103E800014BF01230E234B45B3DD95F82090464423
:103E9000337E4B4511D904EB4A1307EB430393F8E8
:103EA0002130202B17D0A346D5E904211C46AB694D
:103EB0008DE73323E7E71D23E5E7DDE902312A69D2
:103EC0005B189B1A0220AB6107B0BDE8F08F0020A1
:103ED00007B0BDE8F08F0520FEF760F84FF0FF3225
:103EE0004FF0FF33797EC5E90223C9B204EB4113D9
:103EF00007EB43034FEA410C93F8212001EB410308
:103F0000480117F803A0FA544FF00508534600EB98
:103F1000030E07EB4E0E1A4694421E468EF8208082
:103F20009EF82130F3D10CEB010EBE4461449EF8A3
:103F30000290B9F1200F5FFA89F818BF8044394424
:103F4000024418BF07EB480807EB42028E704FF09F
:103F5000200114BF88F821A08EF801A082F821105A
:103F60005AE75C46C2E7D5E90431A869013B41F153
:103F7000FF31181841F10001FDF762FF61E70520EC
:103F8000FEF70CF8797E4FF0FF324FF0FF33C5E9B2
:103F90000223C9B23CE740F6EA01702000F0AAF81B
:103FA000400D0020C80D0020480D0020913F420F19
:103FB00040090020780D0020BFF34F8F0549064BC4
:103FC000CA6802F4E0621343CB60BFF34F8F00BFB7
:103FD000FDE700BF00ED00E00400FA05094B0122F7
:103FE0005A604FF0FF32C3F80823074B4FF480426A
:103FF000C3F88020BFF34F8FBFF36F8FC3F88021CA
:10400000704700BF00E0004000E100E0094B0122E2
:104010005A604FF0FF32C3F80823074B4FF4805229
:10402000C3F88020BFF34F8FBFF36F8FC3F8802199
:10403000704700BF00C0004000E100E0084B0022D4
:10404000C3F8FC2F0122C3F8FC2F064B0222C3F851
:104050008020BFF34F8FBFF36F8FC3F8802170476D
:104060000010004000E100E0F8B51B4E3378054633
:104070000C4617466BBBFDF747F9184B7760002DD0
:1040800008BF1D4628463472FFF7D8FFFFF7BEFF72
:10409000FFF7A4FFFDF7EAFB0546C0B9FEF7BAFF3C
:1040A000FDF7D8FBFDF722FB00F05DFD002C0CDBDB
:1040B00004F01F026409A40004F1604404F56144A3
:1040C00001239340C4F880312360012333702846D4
:1040D000F8BD4FF0FF35FAE76C0E002092C20100E8
:1040E00008B572B6024B5B6803B19847FFF764FFEF
:1040F0006C0E00201FB572B6134B5D688DB9FFF7CB
:104100005BFFB2FBF6F2DCB20133002AF9D104F115
:1041100010036B4403F80C2C0A2234B901A8A847F9
:10412000EDE7024600230A26EDE7631E04AEDCB28B
:1041300056FA83F3B0FBF2F602FB1600303003F8B8
:104140000C0C3046E9E700BF6C0E0020074B93F9DA
:104150000830002B09DB5A09012103F01F0301FA83
:1041600003F34032024941F8223070476C0E0020C0
:1041700000E100E01B4B4FF4805270B5C3F8802083
:10418000BFF34F8FBFF36F8F174D184C0021C5F849
:104190000011C3F880212669236943F010032361CD
:1041A0000123C5F8043306F010062B60D5F8003162
:1041B000A3B11EB9236923F0100323610A4B012226
:1041C000D3F808055A60C3F808230022C3F8002179
:1041D000044B4FF48052C3F8802170BD00F094FD71
:1041E000E4E700BF00E100E000C0004000ED00E0B7
:1041F00038B50C49024605200138C0B2FF2803D16A
:1042000048216920FFF776FF01EBC0031D7905F017
:10421000FF04002DF0D141F8302001225C719C7127
:104220001A7138BD780E0020042808B503D958212A
:104230006920FFF75FFF094B03EBC0000379012BF7
:1042400001D05921F4E7437982790133DBB29A42F4
:1042500018BF4371BDE80840FFF778BF780E002013
:1042600070B5124C06250026013D15F0FF0500D162
:1042700070BD94F8281004EBC1031A79012A09D102
:1042800058799A79904205D05A79D2B29A7154F8F5
:104290003130984794F828300133DBB2042B94BFB7
:1042A00084F8283084F82860DEE700BF780E00200C
:1042B00008B500F0DBFC70B900F0E1FC58B900F083
:1042C000E7FC40B900F0F6FC044A054B002808BFA3
:1042D0001346184608BD024BFBE700BF00E701404C
:1042E0000C05004008B500F0E5FC08B3EFF31080C2
:1042F00072B6104A1369116941F010011161A2F5FB
:10430000406203F01003D2F80011D2F804210A43EE
:1043100000D040BF20BF00BF00BF00BF00BF23B917
:10432000044A136923F01003136100B962B608BD93
:1043300020BFFCE700ED00E0014B1B681B6818473D
:1043400044000020014B1B685B68184744000020B4
:10435000014B1B689B68184744000020014B1B68F9
:104360001B6918474400002038B504201E4CFFF795
:10437000A1FC2568854228BF054604212846FFF791
:10438000E7FC20B1012820D04FF4A27108E0236897
:10439000E068AB420DD1FFF735FC20B94FF49271C4
:1043A0006B20FFF7A7FEE268236822611344E360F5
:1043B00038BD05446089E5600123281A2375FFF79D
:1043C00021FC60B94FF49771EAE763892075E068D2
:1043D000C01AFFF717FC10B940F23B11E0E7628901
:1043E000E3689B1A2361E3E7A80E002008B50C4B95
:1043F0001A7802F0FF0312B15A1E1A4203D0DF21CD
:104400006B20FFF777FE19B1034207D1E421F7E7EC
:1044100023EA00039B0601D1E821F1E708BD00BFB4
:104420004800002008B50D4B01221A764FF4802277
:104430001A621A68DA615A689A62094A93F8300077
:104440000221117003F11801FEF7FAFF20B940F2C2
:1044500005116B20FFF74EFE08BD00BFA80E00201F
:104460004800002070B5EFF3108572B6264C94F822
:1044700031600023012E84F8313006D0022E1DD089
:10448000002E3BD185F3108870BD85F3108894F819
:10449000323003F0FF0123B140F251116B20FFF7DE
:1044A00029FE1420FFF7A2FF184B84F832601B7816
:1044B000012BE9D1BDE87040FFF7B4BF94F832207A
:1044C00012B94FF4B171E9E7104984F832300B7832
:1044D000023BDBB21E2B0ED8012202FA03F30C4A78
:1044E0001342CFD144F20402134204D020230B70B4
:1044F000FEF7CCFDC6E74FF4BF71CFE785F3108818
:104500004FF4D271CAE700BFA80E00204800002077
:104510004100004070B5144C94F8335025B140F27E
:1045200087216B20FFF7E6FD104B84F832500126FF
:104530001E700F4B0F484FF4C852C4E900230E4BB6
:10454000A360FFF755FE294684F834000B48FEF7B8
:1045500037FF202884F8300002D140F29621E0E7AE
:1045600084F8336070BD00BFA80E00204800002012
:10457000FF3F420F654400000500B700F146000010
:1045800008B5104B93F8332022B940F2F6216B2086
:10459000FFF7B0FDEFF3108172B693F8312022B12E
:1045A000012A0DD040F20631F1E7022283F83120D2
:1045B00001B962B693F83400BDE80840FFF734BE95
:1045C0000022F3E7A80E00200B4B93F8333010B510
:1045D00023B940F215316B20FFF78CFDEFF3108407
:1045E00072B6064B1A78102A03D108221A70FEF709
:1045F0004DFD04B962B610BDA80E00204800002091
:1046000070B5174B1B78042B27D1164D2B7D1BB98A
:104610006B892868C01A70BD00F0B6FA10F11E044C
:1046200095F8300041F10006FEF7F4FE2B691B18E7
:1046300041F100019C4276EB01004FF000020CD2E8
:10464000181B4FF0FF3361EB0601834272EB01034D
:10465000E1D2A6216B20FFF74DFD0020DBE700BF74
:1046600048000020A80E002038B5144C94F83330D0
:1046700023B940F2CB216B20FFF73CFDEFF310850F
:1046800072B694F8313023B1022B0DD040F2DE2106
:10469000F1E7012384F8313005B962B694F83400AB
:1046A000BDE83840FFF7C0BD054B1B780022042B46
:1046B00084F83120F0D10FF0C7FDEDE7A80E0020FF
:1046C0004800002008B5094B19781029CAB207D054
:1046D000202A05D0042A04D110221A700FF0C4FD3C
:1046E00008BD40F2C3116B20FFF704FD4800002015
:1046F00070B50C46FDF7EEFB611E06294AD8DFE8CF
:1047000001F00453532823665F0001210220FFF7C4
:104710006DFE314B314A93F8321079B1042111709A
:104720001A68DA6000221A7593F83130022B01D032
:104730000FF08AFDBDE87040FFF716BE202313700E
:10474000BDE87040FEF7A2BC40F20F216B20FFF7DE
:10475000D1FC214C94F83230E3B1204B1B78042B70
:1047600019D100F011FA064694F830000D46FEF714
:1047700051FE237D012B0BD12269121841F1000358
:10478000964275EB030303D3BDE87040FFF79ABF71
:104790000AF098FE70BD124B0222C3F88020BFF3CE
:1047A0004F8FBFF36F8FF5E701210220FFF71EFE49
:1047B000094B93F8323033B1BDE87040FFF732BE99
:1047C00001212820F2E7054B01221A70E2E7024B93
:1047D0001B7D012BAED1D7E7A80E0020480000209A
:1047E00000E100E0014B01229A777047E00E0020C3
:1047F0002DE9F04786468C460846089E15467446C5
:104800001946002B40F0C2808542B2FA82F245D9A7
:104810004AB1C2F1200300FA02FC2EFA03F39540DC
:1048200043EA0C0C94404FEA154EA8B2BCFBFEF8CC
:10483000230C0EFB18CC08FB00F943EA0C43994506
:1048400028D9EB1808F1FF3704D2994502D9A8F10D
:1048500002072B44A3EB0903A4B2B3FBFEFC0EFB3F
:104860001C330CFB00F044EA0344A04214D92C1979
:104870000CF1FF3304D2A04202D9ACF102032C4464
:10488000241A43EA07401EB1D44000233460736009
:10489000BDE8F0874746DDE76346F1E792BB431B7F
:1048A00001214FEA154EAFB2B3FBFEFC200C0EFB0C
:1048B0001C330CFB07F840EA0343984562D9EB1818
:1048C0000CF1FF3004D2984502D9ACF102002B4420
:1048D000A3EB0803A4B2B3FBFEFC0EFB1C330CFBE2
:1048E00007F744EA0344A7424ED92C190CF1FF33D1
:1048F00004D2A74202D9ACF102032C44E41B43EAE0
:104900000040C0E7C2F1200320FA03F19540904037
:104910002EFA03F303434FEA154EAFB2B1FBFEFC90
:104920000EFB1C10190C0CFB07F841EA00418845EE
:1049300004FA02F422D969180CF1FF3004D2884538
:1049400002D9ACF102002944A1EB08019BB2B1FBF2
:10495000FEFC0EFB1C110CFB07F743EA01439F42D0
:104960000ED9EB180CF1FF3104D29F4202D9ACF101
:1049700002012B44DB1B41EA004192E76046E3E77A
:104980006146F7E76046A3E76346B7E7834206D987
:1049900016B9002108467BE7C6E900E0F9E7B3FA5B
:1049A00083F78FB9834201D3724508D8BEEB020466
:1049B00060EB030301209C461EB9002168E73846DE
:1049C000FAE7C6E9004CF8E7C7F1200CBB4022FA31
:1049D0000CF41C432EFA0CF120FA0CF3B8400143FE
:1049E0004FEA14490EFA07F5B3FBF9F81FFA84FEF3
:1049F00009FB18300B0C08FB0EFA43EA00439A45FA
:104A000002FA07F240D9E31808F1FF3004D29A45C0
:104A100002D9A8F102002344A3EB0A0389B2B3FB35
:104A2000F9F809FB183308FB0EFE41EA03418E45F5
:104A30002CD9611808F1FF3304D28E4502D9A8F1B0
:104A40000203214443EA0040A0FB0298A1EB0E01BF
:104A50004145CE46434602D306D14D4504D2B9EB7B
:104A6000020E68EB04030138002EA6D0B5EB0E024F
:104A700061EB030101FA0CFC22FA07F34CEA030391
:104A8000F940C6E9003198E74046C5E74346D9E713
:104A9000FCF73ABC801A00F3070038B540B20D4667
:104AA00059B21446FCF720FC0023287020446C7097
:104AB000AB7040B238BD73B5A0F10B040E46E1B245
:104AC0000F29154603D94F216420FFF713FB0DF181
:104AD000030332460420FCF7C3FB034608B1582108
:104AE000F2E704EB840404F665149DF90300A2B216
:104AF00001A9FCF7A5FB9DF804302B70BDF805302B
:104B0000A5F8013002B070BD002070474FF0FF30B3
:104B100070474FF0FF307047704770470020704774
:104B20004FF0FF3070470020704790F90030002BA5
:104B300014BF6FF01500002070470023037070470A
:104B40000022FFF7A7BF002070474FF0FF307047EB
:104B50004FF0FF3070474FF0FF3070470023037075
:104B60007047C0B2704770B5FCF70EFC00240546D4
:104B70002646E0B2854200D870BDFCF70BFC01343C
:104B8000868480F82660F4E7FDF7AAB908B500F03E
:104B9000AFF828B14FF080430222C3F8342C08BD8F
:104BA00000F088F80028F5D100F099F80028F1D13C
:104BB000F5E74FF0804301221A6070474FF08043C1
:104BC000D3F8080400F0010070474FF08043D3F899
:104BD000140400F0010070474FF08043D3F81C0428
:104BE00000F0030070474FF080410246D1F81804EE
:104BF000D1F8181410F4803004D001F00300831AA7
:104C000058425841704707B56846FCF79FFFDDE9F9
:104C100000024FF080730021E2FB030103B05DF856
:104C200004FB08B5FCF77CFFBDE80840FCF762BF59
:104C30000346002018707047EFF3108272B60378B5
:104C40000121DBB2017002B962B6012B0CBF6FF01B
:104C5000220000207047EFF3108372B6002202702A
:104C600003B962B600207047FFF7FABA4FF08053DD
:104C7000D3F83001A0F10F035842584170474FF06C
:104C80008053D3F83001A0F10A03584258417047CD
:104C90004FF08053D3F83001A0F10E035842584131
:104CA00070474FF08053D3F83001A0F11003584201
:104CB000584170474FF08053D3F83001062803D095
:104CC000431C584258417047012070474FF08053B1
:104CD000D3F83001A0F10D035842584170474FF00E
:104CE0008053D3F83001A0F108035842584170476F
:104CF00008B5FFF7C4FF30B14FF08053D3F834014B
:104D0000B0FA80F0400908BDFFF7ECBAFFF7EABA45
:104D100000280CBF6FF0150000207047002070477E
:104D20000723037000207047002070470020704761
:104D300010B50446FFF764FCA04294BF0020012098
:104D400010BD10F8012B11F8013B012A28BF9A422F
:104D5000F7D0D01A7047034611F8012B03F8012B46
:104D6000002AF9D17047034613F8012B002AFBD122
:104D7000181A0138704700002DE9F04706468AB03E
:104D80000F46904616F07DFC4FF47A73A0FB034566
:104D900003FB0155E40B012F44EA45444FEAD535A6
:104DA00008D1CDE900452A4A0821304613F045FCD8
:104DB000002013E0D8F8047026483946FFF7C1FFF9
:104DC00078B125483946FFF7BCFF50B13046234A39
:104DD0003B46012113F031FC6FF004000AB0BDE83E
:104DE000F0872046294618A3D3E90023FCF788F969
:104DF00005460C4610461946194A0023FCF780F96F
:104E000080460F46104619464EF660220023FCF7F6
:104E100077F982468946104619464FF47A72002384
:104E2000FCF76EF9CDE904A9CDE90601CDE9082327
:104E3000CDE90287CDE900540A4A0821304613F033
:104E4000FCFBB5E7AFF30080005C26050000000026
:104E50009DCD0100AECD0100B1CD0100BACD010064
:104E600080EE3600D1CD01002DE9F04315461A7CC5
:104E700004697D2A0E4685B0D96880461F4600F237
:104E8000DC80931C84F8283604F2296017F073F84C
:104E900004F5C26948460DF007FE012E07D9022E1F
:104EA0004CD06FF08505284605B0BDE8F08300239F
:104EB000ADF80D3095F84A30C3F34002C3F38003D8
:104EC0008DF8093001238DF80B30614B8DF80820E7
:104ED00093F8D4368DF80C3006F0010602A904F5DB
:104EE000C5608DF80A6007F0BDFF002844D0584B1C
:104EF000D3F8CC361BB13A460021404698474FF0D4
:104F0000FF324FF0FF3348460DF0A6FD94F8D2264D
:104F100095F84A3062F3410385F84A3094F8D32675
:104F2000DBB262F3820385F84A3094F8A836052B89
:104F300022D8DFE803F0241E7F85217F0023ADF80F
:104F40000C3095F84A30C3F34002C3F380038DF868
:104F5000093001238DF80A303D4B8DF8082093F875
:104F6000D4368DF80B3002A904F5C56007F0ACFF0C
:104F7000BBE76FF00F0596E76FF0040593E7D4F8F1
:104F8000B456002D8FD0D4F8B836D4F8BC261343CD
:104F90004AD02D78206800220023CDE90023002389
:104FA0001A46294604F098FB064600283FD0D4F85C
:104FB000B4162A46013114F029FD002831DB94F89B
:104FC000C03686F8483094F9C136AE339BB2FE2B1A
:104FD00028BFFE2386F84930D4F8B806D4F8BCC6FA
:104FE0004FF47A75A0FB050105FB0C1116A3D3E95C
:104FF0000023FCF785F8C6E90801B262304614F0D8
:1050000064FC2068314612F0FCFB0025304614F0A9
:1050100023FCD4F8B40615F0F9F90023C4F8B4362B
:1050200041E76FF00B05F1E76FF02205F1E76FF054
:105030000B05EEE76FF0220535E76FF0790532E7F3
:105040006FF068052FE700BF00CA9A3B0000000020
:10505000800F0020000000002DE9F34706464FF0C6
:10506000FF384FF0FF3900F58B6A4FF0FF324FF0F9
:10507000FF3350460DF096FC43681F78044600232A
:105080001A463946CDE90089306804F025FB61688D
:105090003A460131054614F0B9FC074670BB237C43
:1050A00085F8483094F91130AE339BB2FE2B28BFFF
:1050B000FE2385F84930A27C95F84A3062F300035C
:1050C00085F84A30A068D4F80CE04FF47A71A0FB60
:1050D000010C01FB0EC10EA3D3E90023FCF710F86D
:1050E000C5E90801AA623068294600F07BF800286B
:1050F00004DB6068676015F089F9B6E70023606833
:10510000636015F083F9284614F0A6FBADE700BFF5
:1051100000CA9A3B0000000008B5064B00214FF47E
:105120000050C3E90001044B04481B68DB69984741
:10513000002008BD80160020D424002084C1010076
:1051400008B5064B00214FF40040C3E90001044BB1
:1051500004481B681B6A9847002008BD8016002081
:10516000D424002084C1010010B5084B1978002018
:1051700081F00101197007F0ADFA054B0548BDE853
:105180001040D3E900230DF03FBE00BFB549002019
:105190008016002050000020012910B50B4604465F
:1051A00004D002290BD00B4A082105E015F00BF9B9
:1051B000094A03460821204613F03FFA08E05068E8
:1051C00016F01DFE054B1B6881B2DB68044898474A
:1051D000002010BD8CCC0100CEDD0100D4240020C5
:1051E00084C101002DE9F04F0D4685B0002949D05A
:1051F0008868002849D0C368002B46D0038A002B5A
:1052000043D014F0DAF9AC68D0F80C900026002CEA
:1052100034D11F492B6A6A6A95F8488095F949701C
:10522000A3FB013B01FB02BBAA6A4FF47A71B2FBFC
:10523000F1F213EB020A174B19784FF0030081F0DB
:1052400001014BF1000B197007F044FA124AFF23D9
:105250003146484612F0E5FACDE902ABCDE90078D7
:105260000E480D4B0E4A0068082113F0E6F9284657
:1052700014F0F2FA204605B0BDE8F08F238A646886
:105280001E44C4E76FF01500F5E76FF03C00F2E74D
:1052900040420F00B4490020B6490020D02400202D
:1052A000AECC010030B587B007F0FEF901F03EFF4B
:1052B000114B124918604FF4004200231048114C62
:1052C000114DC1E900230DF09FFD18220021684611
:1052D00016F079FE01238DF800300020A3682B60C2
:1052E00015F0A8F82B686A469B6A03212046984768
:1052F000002007B030BD00BFD02400208016002061
:105300005000002084C10100D42400202DE9F04188
:1053100007460E46154600F08FF8C36804461BB9D1
:1053200043691A78002A41D10023E3606368BB42D5
:1053300056F8232008DB324B6361204600F062F808
:105340004FF0FF30BDE8F081511C616192F80080A0
:10535000B8F12D0FEFD1911C61615178A1602D2919
:1053600004D192786AB901336360E4E749B9244B08
:1053700063614146284616F056FD0028DDD0C4F88A
:105380000880D4F808802846414616F04CFDB8F154
:105390003A0F636900D070B91B7813B963680133A1
:1053A0006360204600F02EF83F20CBE75A1C426194
:1053B0001B788360E5E742783A2A0BD0002222610D
:1053C0001B7813B9636801336360204600F01AF854
:1053D000A068B7E718786268094928B9013297428E
:1053E000626004DD56F82230C4E90431EAE7616105
:1053F0002D783A2D2046D5D100F004F82846A1E7B3
:10540000FDCE0100074B02681A60074B42681A6024
:10541000064B82681A60064BC2681A60054B026927
:105420001A607047FC010020F8010020E0240020F1
:10543000DC240020D824002000487047E001002030
:10544000014B1B68184700BF00020020014B186089
:10545000704700BF0002002030B585B004460D46FD
:1054600010220021684616F0AEFD02238DF80230AE
:105470002A46044B01932146684611F065FF05B0AA
:1054800030BD00BF4154000080B505460E461746AA
:1054900098460DF0D9FF034616F0A6FDDFF81890E8
:1054A000044649F80030424630463946A84754F889
:1054B000090003F0CDFC00BF080000002DE9F04713
:1054C000058B04462807904611D4022905F00705EC
:1054D00040F0CD80204612F0C3FB78B10138218B1B
:1054E000042811D8DFE800F0C3106D85950001296C
:1054F0000CBF45F0100545F02005258388F3118881
:10550000BFF36F8FBDE8F08701F0070AAA4500F0EE
:10551000A6800027B9463E46A368002B00F0BD8058
:1055200041F00801218388F31188BFF36F8FA168D0
:10553000002900F0BB800D68002900F0B780D1F889
:105540000480334652462046C047002D76D02B6853
:1055500029461D46F0E701F007035A1F012A1BD810
:10556000002221F00701062B276889B2C4E9002236
:1055700009D13B4603E0628B013262831B68002B3A
:10558000F9D141F002012183204612F069FB002885
:105590007BD041F0200177E0042B0AD121F00701F4
:1055A00089B22183204612F05BFB10B141F020014B
:1055B0002183218B01F0070AAA4550D00027B94664
:1055C000AAE7236921F0070141F00601062DD3F86F
:1055D000009021832DD1B9F1000F40D041F0080196
:1055E000218388F31188BFF36F8F3A492046C8475B
:1055F00029E021F00701236941F0040189B2042D5B
:10560000D3F804902183E6D000273E464FF0040AE9
:1056100082E721F00701236941F0050189B2052DD8
:10562000D3F808902183D6D000273E464FF0050AD4
:1056300072E700273E464FF0060A6DE72B4687E7E4
:10564000B9F1000FD1D14FF04003EFF3118883F38C
:105650001288BFF36F8F238B23F008032383258BDE
:10566000EA062ED525F01003238305F007056669A9
:10567000218B002EBFF66FAF00232768C4E90033EB
:1056800021F0070141F001012183218B01F0070A7C
:10569000AA454FF000097FF43FAF002F9BD041F0A7
:1056A0000801218388F31188BFF36F8F002FC7D0C3
:1056B0003D68394633465246204612F0FDFA2F46E1
:1056C000F4E7AB067FF51AAF25F02003238305F03E
:1056D0000705FFE6E57C010008B504464FF04002EF
:1056E000EFF3118382F31288BFF36F8F06F0A4FFEC
:1056F000204603F057FB034812F0BFF803F0D8FC34
:10570000FCE700BF26CD0100014B0360002070477D
:1057100054C30100F0B40C4B0C4E5F6A0C4BB34207
:1057200003D36FF08500F0BC70475D68BD4209D3BC
:105730001C693CB195F802C00579AC4502D12346FD
:10574000F0BC18472433EAE7E4240020F8080020DE
:10575000B00800202DE9F047134CDFF85080DFF847
:10576000509005460E461746444503D36FF085001A
:10577000BDE8F0876268D9F824309A4212D3A36951
:1057800083B190782979884205D13A463146284636
:10579000BDE8F04718475279012A03D13A4631460D
:1057A000284698472434DFE7B0080020F808002096
:1057B000E42400202DE9F0410B4CDFF83080054651
:1057C0000E461746444502D36FF0850009E0636931
:1057D0000BB92434F6E73A46314628469847002864
:1057E000F7D1BDE8F08100BFB0080020F808002024
:1057F00010B5044614F051F910F1780F00D050B9EB
:10580000054A204612F0FEFBD2F8C43023EA00031A
:10581000C2F8C430002010BDE4240020024B002256
:105820001A605A60704700BF9F25002070B50B4B6F
:105830000B4CA34201D3002070BD196A1E7F0022C9
:105840000439D5B2AE4201D82433F2E7013211F85F
:1058500032508542F5D10120EEE700BFB0080020AC
:10586000F808002008B509480378C3F341130A3348
:1058700050F823303BB100F1080200F110019847C5
:10588000C043C00F08BD1846FCE700BFE424002059
:1058900004282DE9F14FDFF8989004460F4616D002
:1058A00001282DD1DFF88C8098F8B93043B300F08F
:1058B000DFFD214D4D4520D2D5F820B04FF0000A34
:1058C0002B7F5FFA8AF6B34204D82435F2E7FFF75C
:1058D000A5FFE7E70BEBC6060AF1010A307914F0E1
:1058E000DCF80246307912F08DFBD8F8C430002A7B
:1058F00023EA0003C8F8C430E2DA002388F8B9309C
:105900000D4D4D4508D30B4B1B6A6BB139462046F4
:1059100001B0BDE8F04F1847EB681BB13A4621468D
:10592000284698472435ECE701B0BDE8F08F00BF6A
:10593000F8080020E4240020B008002073B5C4B2A9
:1059400063060D468DF8074007D02046FFF76EFF2F
:1059500078B10D4B93F8BA0058B10B4E204655B1B3
:1059600004F0A2FAF3691BB10DF107010820984772
:10597000012002B070BD04F0BFFAF369002BF7D02C
:105980000DF107010920F2E7E424002073B58678C1
:105990008DF80060037942791C4C43EA0223ADF88C
:1059A0000230C378304603F003038DF8043012F060
:1059B00029FBD4F8C430184205460BD0304600F01D
:1059C00039FD3046FFF714FF15F091FB10B9962012
:1059D0000DF020FD684604F043FA10F1780F03D073
:1059E00010B1002002B070BD9DF8000004F0C0FAB4
:1059F00010F1780F01D00028F3D1D4F8C430012081
:105A00002B4384F8B900C4F8C430EBE7E424002049
:105A10002DE9F047924DAB6904460E461746C3B9CF
:105A2000207800F01F00012876D0022800F0DC80EA
:105A300000BB94F900103A68637800292EDA062B2F
:105A40000CD0082B25D0ABB953700123137002235F
:105A500003E198470028E3D100200DE06388190A8C
:105A60000A1F012A8C4605D9072903D8DAB26B6AC6
:105A70001C781CB96FF01500BDE8F0875D786545AE
:105A800003D1824200F0E48001302344F0E71B7828
:105A9000E3E095F8BA3013700123DEE0052B11D056
:105AA000092BE7D163886E6A002B32D1FFF7B6FE6F
:105AB000638885F8BA30EB69002BCDD069490320A3
:105AC0009847C9E7A07804F0B9F90028C4D0D1E715
:105AD0007378042B10D0052B11D0022B04D17779C9
:105AE0006388BB4208BF012033781E443378002B03
:105AF000EED10028BED0D9E796F80380F4E763889A
:105B0000BB42F1D1B8F1000FEED13046FFF73EFFB6
:105B1000EAE7FF27B846E9E795F8BA30D7F800C0BA
:105B2000002BA7D06F6AA28894F804E03B4618784F
:105B300000289FD05978022904D193F80480F045B9
:105B400000F292800344F2E78CF800308CF80130C8
:105B5000316081E71F4493E00B2B8BD100264FF07F
:105B6000FF08C146B24606E07B78042B0FD0052B18
:105B700021D03B781F443B78002BF5D1EB6913B162
:105B8000514607209847002E7FF466AF72E797F8DA
:105B90000280A38897F803909845EAD163889945D5
:105BA000E7D1B8F1070F1CD805EB0803BA4683F814
:105BB000BB900126DDE7A3884345DAD1A3784B45A6
:105BC0000AD0BE78304600F035FC3046FFF710FEB4
:105BD000B0FA80F67609CCE73846FFF7D7FE0646DE
:105BE000C7E7BA460026C4E794F900206378002A84
:105BF00018DA002B7FF43EAF24793F6863060AD0A1
:105C00002046FFF713FE00283FF434AF95F8BA3072
:105C1000002B3FF42FAF3946204604F08DF90023C6
:105C20007B7014E7012B08D0032B7FF423AF63882C
:105C3000002B7FF41FAF012103E0618800297FF46E
:105C400019AFA088FFF77AFE00287FF405AF11E7AF
:105C500002293B607FF41BAF5B883360FCE600BF2A
:105C6000E42400209E25002094F900006378002899
:105C7000BFF672AF002B3FF467AF0A2B7FF4FAAE8A
:105C80003B78002B3FF4F6AE797804297FF462AFBD
:105C9000B9788A427FF45EAF072A96BF5219002373
:105CA00092F8BB308CF80030F6E600BF13B5164C06
:105CB000237DF3B9E268A168019201AB802012F064
:105CC000AFF9019AA3681344A360E3689B1AE360E9
:105CD0006BB962B12369E2889A4208DD94F8C82062
:105CE00093FBF2F102FB11330BB90123237502B0D0
:105CF00010BD00231A4619468020237502B0BDE866
:105D0000104004F05FB900BFE424002030B585B036
:105D1000002302460D460193002858D1002935D1B1
:105D200008220B460DEB020113F0D0FE002804DA26
:105D3000802004F0B9F805B030BD2A4C029A2260E8
:105D4000039A626004F13802A2609DF90820BDF850
:105D50000E302575002AC4E903550ADB802B04D9CF
:105D6000802004F0A1F80020E3E713B1C4E9033375
:105D7000E1E7FFF777FD0028DAD0E28823699A424D
:105D8000D4BFE260E360FFF791FFD4E7154CD4E99C
:105D90000215002D01AB04DC13F098FE0028CADACE
:105DA000C6E72A4613F092FE0028D9DB019AA368C1
:105DB0001344A360E3689B1AE360002BBBD104F19A
:105DC0003803A360FFF74EFD0028DCD1B0E7802840
:105DD000B1D1044BDA68002AD5D11B7D002BD2D17A
:105DE000A9E700BFE4240020054B064A9A62064A50
:105DF000DA62064A1A63064A58629A6100207047BE
:105E0000E4240020115A000015570000B557000087
:105E1000555700002DE9F341414D04466F6A414852
:105E20004FF0FF324FF0FF330CF042FD95F8B860B1
:105E3000002E6ED13C482C62E86104F0DDF903F0DD
:105E4000CBFF041E49DB00F037FB041E45DB7B78EB
:105E5000012B61D1FB79002B5ED0684685F8C830F4
:105E6000ADF802308DF804608DF8006003F0F8FFA3
:105E7000041E32DB802768468DF8007003F0F0FFC7
:105E8000041E2ADB2949304604F0A2F9041E24DB53
:105E90002649384604F09CF9041E1EDB244CDFF82A
:105EA0009480444520D3002004F062F8041E14DBE3
:105EB000D5F8C430802043F00103C5F8C43004F0A5
:105EC00057F8041E09DBD5F8C43043F48033C5F815
:105ED000C430012385F8B830002412480CF0AAFC25
:105EE000204602B0BDE8F081276A0026227FF3B287
:105EF0009A4201D82434D4E707EBC30257F8331091
:105F0000107904F065F901360028EFD04FF0FF3426
:105F1000E3E76FF07704E0E76FF01504DDE700BF1B
:105F2000E4240020F4060020915800000D5D0000DC
:105F3000B0080020F808002010B50A4B93F8B840CC
:105F40004CB900F055F848B1FFF74EFF2046BDE8C8
:105F50001040FFF75FBF6FF0770010BD4FF0FF30CC
:105F6000FBE700BFE424002030B51F4B8BB005AA2F
:105F700003F1100518685968144603C40833AB428E
:105F80002246F7D11B7823701022002101A816F0B9
:105F90001AF812220021154816F015F8102101A850
:105FA00013F0DAFE00281BDD0828B8BF08200938E6
:105FB00001AB0E491A18002012F8013F0AAC04EB9D
:105FC000131403F00F0328336B44013014F8144CFE
:105FD00013F8143C0C7008284B7001F10201EBD14E
:105FE00002480BB030BD00BF4FCD0100B54A0020C4
:105FF0002DE9F04F704C87B04FF0000B00264FF0AA
:10600000011AB0463546B14623782BB96B4B0234A2
:106010009C42F3D1684833E06378052B1BD8DFE856
:1060200003F09003C8901D3B402304A88DF810B0E6
:10603000ADF812308DF814B013F01AFD40B10823FA
:1060400004A8ADF8123013F013FD08B1ADF812B08A
:10605000BDF81230E37123781C44D5E7E378002BB8
:10606000F9D1A3787BB108F101085FFA88F8F2E76B
:106070006B689C4209D02435514B9D42F8D30020D7
:1060800007B0BDE8F08F4F4DF6E7AB68002BEAD0C4
:10609000414620469847E6E7002DF0D000222B7FAE
:1060A0009A42ECD2296AA07801EBC2010B7998429E
:1060B00001D00132F3E70127E07800F003008DF80A
:1060C0001400207994F805C040EA0C20ADF81200C5
:1060D00094F902000028FBB228DA07F110004FF013
:1060E000010C0CFA00F010EA0A0F26D143F08000F0
:1060F0008DF8100004A8CDE90213019213F0B8FC4A
:10610000DDE90121039BC0B99DF81020A27012F0B7
:10611000800F18BF10330A7118BFDBB24FF00102B5
:1061200014BF9A40BA404AEA020A94E70120B840F4
:1061300010EA0A0F01D11846DAE70137102FBBD158
:10614000B7E7032E1DD1FFF70FFF074668B1FEF733
:106150000AFE102809D13846A31C07F1100250F896
:10616000041B43F8041B9042F9D123786FF002011D
:10617000E218091B04EB5303D14213D50136F6B2E2
:1061800069E7002EF1D1B9F1000F3FF478AFA4EB2D
:10619000090389F80230C3F3072389F8033089F82B
:1061A0000480EBE702F801BC13F8010902F8020DC4
:1061B000E2E7A1464FE700BF90070020AF080020AC
:1061C000F8080020B008002010B5094B00211A463D
:1061D0001C78844205D15C681CB1482303FB012074
:1061E00010BD0131042903F14803F1D10020F7E784
:1061F000B02500202DE9F34150F8303C10F8346C04
:10620000103304460AD1036950F8282C980736D574
:10621000D2B9590715D5002344F8303C54F8303C26
:1062200010330BD054E9097554F81C8C14F05FFF3F
:1062300000284FD02E48214615F090F802B0BDE856
:10624000F08143F00403236154F82C1C01AB304669
:1062500011F0E6FE10B16FF01503DDE7019A54F876
:106260002C3C134444F82C3C54F8283C9B1A44F82A
:10627000283C54F8243C134444F8243CCEE754F81A
:106280002C1C01AB304603F019FF0028E3D1019D1F
:1062900054F82C3C2B4444F82C3C54F8283C5B1B11
:1062A00044F8283C54F8243C2B4444F8243C002D6A
:1062B000B1D0304603F0A6FFB5FBF0F303FB105559
:1062C000002DA8D154F8283C002BA4D0304603F070
:1062D0003DFFA3E744F8200CA4F118000CF096FB56
:1062E000002DABD0424639463046A847A6E700BF4E
:1062F000881600204B1E012B73B506460D460FD89D
:10630000FFF762FF044668B9012D09D101AB0122F4
:106310000DF10301304603F0D1FE019B002BF5D1B6
:1063200002B070BD14F0E3FE04F1340108B1012D98
:1063300005D1084602B0BDE87040FFF75BBF0348D7
:1063400002B0BDE8704015F009B800BF8816002003
:106350002DE9F74F804600911746994611F0A8FEA7
:10636000044600285DD14FF04003EFF3118B83F317
:106370001288BFF36F8F2C49002208460023019139
:106380000CF06AFB019968B9DFF8A0A048226243CB
:106390000AEB02056E6816F1100F12D108460CF0D8
:1063A00035FB06E00134042C01F14801E4D16FF023
:1063B0000B068BF31188BFF36F8F304603B0BDE837
:1063C000F08F0AF802800C9A009B6A610D9A28618E
:1063D000AA6140466FF00F02C5E90237C5F8449044
:1063E0006A6003F00FFF58B1404603F00BFFB7FBA4
:1063F000F0F202FB10771FB16A6C42F004026A648B
:1064000019F0020F08D0482202FB04A108483431D9
:1064100014F0A4FF0026CCE7404603F097FE0646A2
:10642000C7E76FF00F06C8E7CC250020B025002095
:106430008816002010B54FF04003EFF3118483F36A
:106440001288BFF36F8FFFF7BFFE50B14368103360
:1064500007D16FF08B03436000F13401034814F05F
:106460007DFF84F31188BFF36F8F10BD8816002065
:1064700070B50F4C04254FF04003EFF3118683F302
:106480001288BFF36F8F6368103307D16FF08B03EF
:106490000848636004F1340114F060FF86F311884A
:1064A000BFF36F8F013D04F14804E4D170BD00BF1C
:1064B000B02500208816002070B50A4C0A4E002531
:1064C0003146204614F02DFF0122A4F11800114698
:1064D000013514F0D6FE042D04F14804F0D100205B
:1064E00070BD00BFE4250020F561000008B501463D
:1064F000034811F0C7FD10B1012300F8073C08BDA7
:10650000D02600200169012381F84B300B6833B19C
:1065100091F849301BB10248083114F01FBF704791
:10652000881600200169012381F84A300B6833B1D5
:1065300091F848301BB10248083114F00FBF704782
:106540008816002070B5012382F8483013680D4684
:1065500014463BB192F84A3023B10E4802F10801CB
:1065600014F0FCFED4F890309A681B699A4205D169
:106570007DB904F1180140F6CD4204E004F11801A0
:10658000002DF8D00022BDE87040024800230CF036
:10659000DDBB70BD8816002038B5056995F89E00F2
:1065A00088B195F89F307BB985F84830D5F89000D0
:1065B00011F0B3FC002204460023044805F1180141
:1065C0000CF0C4FB204638BD0020FCE788160020F4
:1065D000F0B5D0F88C305B681B6A1F7D85B004462F
:1065E000384611F065FD0646F8B994F88630E3B1F7
:1065F000A06F4FF4806203A911F0AEFC0546A0B174
:106600008306A4F1180308BF00F1FF3584F8306059
:106610000193074B039900932A4602233846FFF75C
:1066200097FEA06F294611F0B7FC05B0F0BD00BF82
:106630004565000070B504460E46017915481546BB
:1066400011F012FD10B394F900206378002A16DBD4
:10665000202B04D0222B0ED06FF085000AE02B688F
:106660001A6840F8102C9A8820F80C2C9B7900F8B6
:106670000A3C002070BD638800F8093CF9E7212B33
:10668000EAD11038072328603360F2E76FF0120078
:10669000F0E700BFD02600200D4A03460021A0F8F5
:1066A00048101068C3F8940090889279A3F8980075
:1066B00083F89A2083F89C1083F89B10A3F89E100F
:1066C00083F8A010402203F14C0015F07CBC00BF01
:1066D000B0C2010010B504690023C4F8A8300C4B07
:1066E000C4F8A400596804F1A80269B9C3E90022FA
:1066F00004F10800074914F014FE04F118000649DB
:1067000014F03DFE002010BD0A605A60F0E700BFA3
:10671000D0260020DB800100D165000030B54FF4A9
:106720000033426805690D4C85B042F2A100CDE905
:106730000103002385F89D30106AADF80C10007934
:106740000A2201A911F06CFC95F89D3023B90120B3
:1067500014F006FC013CF7D105B030BDA186010064
:1067600013B504698DF80710002384F84830D4F875
:10677000900001220DF1070111F0CFFB10B914F0C8
:10678000B6FC40B12122002304F1180106480CF0A8
:10679000DDFA02B010BD94F8A130002BF2D0002138
:1067A00021200CF01DFEE2E78816002037B51446C4
:1067B0000A1E054620DDD4F88C0004F14C0111F0CE
:1067C000ACFB012384F8493023683BB194F84B308B
:1067D00023B1114804F1080114F0C0FDD4F88C1065
:1067E0004B684A699A1ACB699B1A3F2B04D801233C
:1067F00084F8A03003B030BD94F89E30002BF9D05F
:10680000064B009301940123402204F14C012846D9
:10681000FFF79EFDEEE700BF88160020AD67000081
:10682000F7B50D4601461D4811F012FC044610B3A1
:106830000646691E56F8A4395F6805291BD8DFE8AB
:1068400001F01C1A031C222610F8061C99B901231A
:1068500000F8063C3B6A3246187BFFF7A7FF14F8A6
:106860005C2C42B93B6A187D0D4B009301960223C4
:106870001146FFF76DFD03B0F0BD304603B0BDE833
:10688000F040FFF709BF012304F8053CF3E710F8D7
:10689000053C002BEFD00023F6E700BFD0260020F8
:1068A0004565000037B5094D0949002400944FF0B3
:1068B000FF334FF4806228460CF010FA0549284651
:1068C0000BF074FE204603B030BD00BF88160020D8
:1068D000C05400207BCD010013B504460BF0A6FF89
:1068E000C0F307230193C0F307430093044A030E48
:1068F0000821204611F0A1FE002002B010BD00BF0B
:1069000084CD010010B5044605F08CFE084A03460C
:106910000821204611F091FE064A2046082111F078
:106920008CFE054821460BF009FE002010BD00BF7B
:106930001FCE01003ECE01003D69000070B58EB053
:1069400004460D46D0F89C6014F0D7FB024615F0C3
:106950004BFB254B1958254B002A18BF1346CDE990
:106960000043234A234B28468C4218BF1346224A31
:10697000082111F062FED4E90A23CDE9022394F93B
:106980000E300093237B1D4A2846082111F055FE46
:1069900006A9202220460BF019FE626E00920346E3
:1069A000174A0821284611F048FE05A9204614F090
:1069B000B4FB034630B1134A0821284611F03DFECE
:1069C0000EB070BD059A6423B11ACDE900214B4386
:1069D0000D4AB3FBF6F30821CDE90263284633469E
:1069E00011F02BFEECE700BF0800000048CE0100CC
:1069F000A0D601000ADF01004BCE010057CE0100F6
:106A000083CE01009ACE0100C7CE0100F0B500256B
:106A100093B0044629460AAF1C220BA815F0D3FAFE
:106A2000144E1A222021384615F0CDFA214612487C
:106A30000BF084FD09AA4FF40061304614F061FBAD
:106A400009996422C1F5006042434FF40063D20A01
:106A5000CDE90403CDE9023106922046CDE9005785
:106A6000064AA6F14003082111F0E7FD284613B0BD
:106A7000F0BD00BF006A0020F16A0000FECE0100F8
:106A800010B5044613F0AEFB034A03460821204626
:106A900011F0D3FD002010BD47CF010073B51346A0
:106AA00000220192044601AA58680A2101F086FAE0
:106AB000019D95B920EAE0744FF40046294640F262
:106AC000E7304FF47A720023C4FB0601FAF768FB43
:106AD0000CF086FC284602B070BD2B46034A01210B
