:1000000000000420B5020000DD020000DF02000055
:10001000E1020000E3020000E50200000000000031
:10002000000000000000000000000000E7020000E7
:10003000E902000000000000EB020000ED020000F9
:10004000B12A000031540000D9260000EF02000060
:10005000EF020000EF020000EF020000EF020000DC
:10006000EF020000EF020000EF020000EF020000CC
:10007000EF020000EF020000EF020000EF020000BC
:10008000EF020000EF020000EF020000EF020000AC
:10009000EF020000EF020000EF020000EF0200009C
:1000A000EF020000EF020000EF020000EF0200008C
:1000B000EF020000EF02000000000000000000005E
:1000C000EF020000EF020000EF020000EF0200006C
:1000D000E1770000EF020000EF020000EF020000F5
:1000E000EF020000EF020000EF020000EF0200004C
:1000F00000000000EF02000000000000000000000F
:1001000000000000000000000000000000000000EF
:1001100000000000000000000000000000000000DF
:1001200000000000000000000000000000000000CF
:1001300000000000000000000000000000000000BF
:1001400000000000000000000000000000000000AF
:10015000000000000000000000000000000000009F
:10016000000000000000000000000000000000008F
:10017000000000000000000000000000000000007F
:10018000000000000000000000000000000000006F
:10019000000000000000000000000000000000005F
:1001A000000000000000000000000000000000004F
:1001B000000000000000000000000000000000003F
:1001C000000000000000000000000000000000002F
:1001D000000000000000000000000000000000001F
:1001E000000000000000000000000000000000000F
:1001F00000000000000000000000000000000000FF
:1002000010B5054C237833B9044B13B10448AFF350
:1002100000800123237010BD0002002000000000B8
:10022000DCD0000008B5034B1BB103490348AFF312
:10023000008008BD0000000004020020DCD00000A7
:10024000154B002B08BF134B9D46A3F5803A0021A8
:100250008B460F461348144A121A08F0A4FE0F4B9F
:10026000002B00D098470E4B002B00D09847002061
:10027000002104000D000D48002802D00C48AFF307
:10028000008008F015FE2000290001F03DFB08F079
:10029000E9FD00BF0000080000000420000000008D
:1002A0000000000000020020909B002000000000E1
:1002B000000000000649074A074B9B1A03DD043B78
:1002C000C858D050FBDC00F013F8FFF7B9FF00006E
:1002D000E8D000000000002000020020FEE7FEE75A
:1002E000FEE7FEE7FEE7FEE7FEE7FEE7FEE7FEE7E6
:1002F00030B4404B1B68082B0FD03F4AD2F88830EF
:1003000043F47003C2F88830BFF34F8FBFF36F8F91
:100310003A4B3B4A1A6030BC70473A4B1968002987
:10032000EBD14FF080404FF08052C0F80C11364BAB
:10033000C0F81011C0F83815D2F80414C3F820150D
:10034000D2F80814C3F82415D2F80C14C3F82815F1
:10035000D2F81014C3F82C15D2F81414C3F83015C1
:10036000D2F81814C3F83415D2F81C14C3F8401589
:10037000D2F82014C3F84415D2F82414C3F8481551
:10038000D2F82814C3F84C15D2F82C14C3F8501521
:10039000D2F83014C3F85415D2F83414C3F86015E9
:1003A000D2F83814C3F86415D2F83C14C3F86815B1
:1003B000D2F84014C3F86C15D2F84424134CC3F897
:1003C000702500F570401249124D134B2560FB2239
:1003D000C0F818250A681B6800F5D33022F00F0218
:1003E000403003F00F0313434FF400720B600260C0
:1003F00083E700BF3001001000ED00E000000020A6
:100400000090D0033401001000C000408C56004022
:10041000E40E00404881030058020010024B034ADA
:100420000348072101F0CEBCA0BE0000DCB20000F2
:10043000E4B2000030B5012983B01ED003290C4678
:1004400007D00B46274A2848072101F0BBFC03B020
:1004500030BD15462549A86801AA09F0A7F818B3C8
:100460002349686809F011F9C8B9224A224B019959
:10047000116001221A7003B030BD1E4B1B68DBB146
:100480001E4A1948072101F09DFC1B4B1B78DBB16C
:100490001B4B1C4A1448072101F094FCD7E76868FD
:1004A000194909F0F2F8B0B12346184A0E4807215D
:1004B00001F088FC03B030BD114B154A0A480721F2
:1004C00001F080FC03B030BD0D4B124A06480721F5
:1004D00001F078FCBBE70849064B019A08701A60E6
:1004E000B5E700BF00B20000E4B20000C0B10000F8
:1004F000C4B100006C0A0020680A00207CB1000032
:10050000A0BE000094B10000C8B10000CCB1000052
:10051000B4B10000A4B1000002F070BB02F06ABBED
:1005200002F074BB02F096BB012905D00B46084AC5
:100530000848072101F046BC10B502F025FB064B28
:10054000064A04480721BDE8104001F03BBC00BF4B
:1005500000B20000E4B20000A0BE00002CB2000017
:10056000022919D170B516495068144609F08DF862
:10057000C0B11449606809F088F848B11249606850
:1005800009F083F8054690B9012002F091FB284656
:10059000BDE8704002F08CBB0B460C4A0C480721AA
:1005A00001F010BC0120BDE8704002F081BB63681F
:1005B000084A07480721BDE8704001F003BC00BFAE
:1005C00078B2000084B200008CB2000000B20000DB
:1005D000E4B2000094B20000012910B514D0022941
:1005E0000AD154681849204609F04FF8D0B90120C3
:1005F000BDE8104002F056BB0B46144A14480721D0
:10060000BDE8104001F0DEBB124A1349147B0E4BCB
:10061000124A0F48002C08BF0B460721BDE81040C6
:1006200001F0D0BB0C49204609F02FF818B9BDE8FD
:10063000104002F037BB2346094A05480721BDE8B0
:10064000104001F0BFBB00BFC4B1000000B2000009
:10065000E4B2000004000020C8B1000014BE000095
:1006600048B10000012921D0022919D1526813781C
:1006700013F0DF0012D0002001212D2B1EBF303BD4
:1006800000EB800003EB400012F8013F08BF494235
:1006900013F0DF0FF1D100FB01F040B202F066BAB7
:1006A0000B46084A0848072101F08CBB10B502F040
:1006B0005FFA064A034607210348BDE8104001F0EF
:1006C00081BB00BF00B20000E4B20000E0B4000053
:1006D000012905D00B46084A0848072101F072BBE2
:1006E00010B502F075FA064B064A04480721BDE82A
:1006F000104001F067BB00BF00B20000E4B2000090
:10070000A0BE00006CB10000012921D0022919D13E
:100710005268137813F0DF0012D0002001212D2B36
:100720001EBF303B00EB800003EB400012F8013F9E
:1007300008BF494213F0DF0FF1D100FB01F0C0B256
:1007400002F002BA0B46084A0848072101F03ABBFA
:1007500010B502F009FA064A034607210348BDE82E
:10076000104001F02FBB00BF00B20000E4B2000057
:10077000E0B4000030B583B000250129019516D002
:1007800002290BD198495068144608F07EFFD8B969
:10079000964B974AC2F8383503B030BD954A964813
:1007A0000B46072103B0BDE8304001F00BBB904B76
:1007B000924AD3F83835904823F07F43072103B09D
:1007C000BDE8304001F0FEBA60680378002BE0D04D
:1007D000A3F13002D2B2092A0ED9A3F16102052A8F
:1007E00040F29780A3F14102052A03D98DF8045005
:1007F0002A4603E0373BDAB28DF804204478002C17
:1008000000F0EC80A4F130011301CAB2092ADBB276
:100810007AD9A4F16102052A00F2AF80573C234344
:100820008DF804300222815C024400296AD0A1F1D3
:100830003003DBB2092B74D9A1F16103052B00F25F
:100840009480A1F15703DBB28DF805305078002871
:1008500000F0C680A0F13001C9B21B010929DBB24A
:100860006CD80B438DF805300223D15C1A44002963
:1008700048D0A1F13003DBB2092B58D9A1F16103B3
:10088000052B00F28480A1F15703DBB28DF806300E
:100890005078002800F0A680A0F13001C9B21B01F9
:1008A0000929DBB254D80B438DF806300223D15C02
:1008B0001A4439B3A1F13003DBB2092B52D9A1F1AB
:1008C0006103052B75D9A1F14103052B96BFA1F159
:1008D00037030023DBB28DF80730517891B1A1F1D5
:1008E0003002D2B21B01092ADBB223D9A1F1610285
:1008F000052A6ED9A1F14102052A1CD837390B43CC
:100900008DF80730019B44E713438DF80430022231
:1009100089E7573BDAB28DF804206FE7A1F137037E
:10092000DBB28DF8053091E7A1F13703DBB28DF82A
:100930000630ADE713438DF80730E3E7A0F161011E
:1009400005292CD8573803438DF8053002238CE74E
:10095000A0F16101052932D8573803438DF80630DC
:100960000223A4E78DF80730B7E7A1F14103052B77
:10097000D4D900238DF8053068E7A4F14102052A97
:100980009CBF373C23438DF8043002224BE7A1F192
:100990004103052BC8D900238DF8063078E7A0F174
:1009A000410105299CBF373803438DF805300223E8
:1009B0005BE7A1F15703DBB28DF807308DE7A0F1BB
:1009C000410105299CBF373803438DF806300223C7
:1009D0006DE757390B438DF8073093E7012222E783
:1009E000012342E7012362E790B8000021100100D3
:1009F0000010004000B20000E4B2000064B100004A
:100A0000012905D00B46034A0348072101F0DAB952
:100A100002F01CB900B20000E4B20000022918D1B3
:100A20005268137813F0DF0011D0002001212D2B24
:100A30001EBF303B00EB800003EB400012F8013F8B
:100A400008BF494213F0DF0FF1D100FB01F002F0C3
:100A5000F9B80B46024A0348072101F0B3B900BFB9
:100A600000B20000E4B2000002291AD151680B78EC
:100A700013F0DF021BD0002201202D2B1EBF303BC4
:100A800002EB820203EB420211F8013F08BF404231
:100A900013F0DF0FF1D102FB00F35B42054A136054
:100AA00070470B46044A0548072101F08BB91346ED
:100AB000F4E700BF6C16002000B20000E4B20000B2
:100AC00008B5424E424D4FF4FA6402F0C3F8326862
:100AD000234600BF00BF00BF00BF00BF00BF00BF74
:100AE00000BFAA422FD000BF00BF00BF00BF00BFA1
:100AF00000BF00BF00BF00BF00BF00BF00BF00BFFE
:100B000000BF00BF00BF00BF00BF00BF00BF00BFED
:100B100000BF00BF00BF00BF00BF00BF00BF00BFDD
:100B200000BF00BF00BF00BF00BF00BF00BF00BFCD
:100B300000BF00BF00BF00BF00BF00BF00BF00BFBD
:100B400000BF00BF00BF013BC3D102F05FF83268B5
:100B5000234600BF00BF00BF00BF00BF00BF00BFF3
:100B600000BFAA422FD000BF00BF00BF00BF00BF20
:100B700000BF00BF00BF00BF00BF00BF00BF00BF7D
:100B800000BF00BF00BF00BF00BF00BF00BF00BF6D
:100B900000BF00BF00BF00BF00BF00BF00BF00BF5D
:100BA00000BF00BF00BF00BF00BF00BF00BF00BF4D
:100BB00000BF00BF00BF00BF00BF00BF00BF00BF3D
:100BC00000BF00BF00BF013BC3D17EE70000002093
:100BD0000024F400032979D1F0B45168414F0B7817
:100BE000002B7DD000253C462E462AE0A0F1610373
:100BF000052B3AD9A0F14103052B42D8A0F13703C8
:100C0000DBB22370487850B31B01DBB2237091F83C
:100C100001C0ACF13000C0B2092822D9ACF16100AA
:100C2000052827D9ACF1410005282CD8ACF1370CA8
:100C300043EA0C032370022319440B782BB37D2D58
:100C40004AD004F8016F08780135F0B1A0F1300303
:100C5000DBB2092BCAD8237048780028D4D10123ED
:100C6000EAE7034323700223E6E7A0F15703DBB270
:100C70002370C7E7ACF1570C43EA0C03237002233F
:100C8000DAE70023BEE70223D6E70235EDB23D7076
:100C900091680B7813F0DF0220D0002201202D2B69
:100CA0001EBF303B02EB820203EB420211F8013F10
:100CB00008BF404213F0DF0FF1D102FB00F30A4AF4
:100CC000084813600021F0BC01F0A6BF0B46074A9C
:100CD0000748072101F076B87F25D8E71346EEE7ED
:100CE0000225D4E770160020F416002000B20000A0
:100CF000E4B20000012910B514D002290AD15468C9
:100D00001849204608F0C1FCD0B90120BDE81040C8
:100D100001F0C6BF0B46144A14480721BDE8104035
:100D200001F050B801F0BAFF0E49114B114A0028EA
:100D300018BF0B46BDE8104007210C4801F042B82F
:100D40000B49204608F0A1FC18B9BDE8104001F09D
:100D5000A7BF2346084A05480721BDE8104001F017
:100D600031B800BFC4B1000000B20000E4B200001E
:100D7000C8B1000014BE000048B10000012910B540
:100D800014D002290AD154681849204608F07DFC85
:100D9000D0B90120BDE8104001F07ABF0B46144ADB
:100DA00014480721BDE8104001F00CB801F06EFFB7
:100DB0000E49114B114A002818BF0B46BDE81040E0
:100DC00007210C4800F0FEBF0B49204608F05DFCEF
:100DD00018B9BDE8104001F05BBF2346084A05483A
:100DE0000721BDE8104000F0EDBF00BFC4B1000016
:100DF00000B20000E4B20000C8B1000014BE000060
:100E000048B10000012910B514D002290AD1546854
:100E10001849204608F039FCD0B90120BDE810403F
:100E200001F038BF0B46144A14480721BDE81040B2
:100E300000F0C8BF01F030FF0E49114B114A0028E5
:100E400018BF0B46BDE8104007210C4800F0BABFA0
:100E50000B49204608F019FC18B9BDE8104001F014
:100E600019BF2346084A05480721BDE8104000F095
:100E7000A9BF00BFC4B1000000B20000E4B200008E
:100E8000C8B1000014BE000048B10000022960D1C2
:100E9000F0B45268324D1378002B4ED0002428460F
:100EA000264627E0A1F16103052B37D9A1F14103C3
:100EB000052B3DD8A1F13703DBB20370517839B36C
:100EC0001B01DBB203705778A7F13001C9B20929C1
:100ED00020D9A7F16101052925D9A7F141010529EB
:100EE00028D8373F3B43037002231A4413784BB38F
:100EF0007D2C21D000F8016F1178013411B3A1F1DC
:100F00003003DBB2092BCDD8037051780029D7D13B
:100F10000123EAE70B4303700223E6E7A1F157033D
:100F2000DBB20370CAE7573F3B4303700223DCE7A1
:100F30000023C3E70223D8E77F2129700848F0BCCB
:100F400001F0B8BEA11CC9B229700548F0BC01F07F
:100F5000B1BE0B46034A0448072100F033BF00BF6F
:100F60007016002000B20000E4B2000003294DD149
:100F70002DE9F04141495068144608F086FB0028ED
:100F800069D10121A2683E4F1378002B74D000264E
:100F90003D4630462AE0A4F16103052B40D9A4F177
:100FA0004103052B48D8A4F13703DBB22B705478EA
:100FB00054B31B01DBB22B7092F801C0ACF13004CA
:100FC000E4B2092C28D9ACF16104052C2DD9ACF17F
:100FD0004104052C32D8ACF1370C43EA0C032B70DA
:100FE00002231A4413785BB37D2E43D005F8010F1A
:100FF0001478013624B3A4F13003DBB2092BCAD82C
:101000002B705478002CD4D10123EAE70B461D4AFB
:101010001D48072100F0D6BE23432B700223E0E7D2
:10102000A4F15703DBB22B70C1E7ACF1570C43EAD4
:101030000C032B700223D4E70023B8E70223D0E788
:101040000236F6B2114B3E7000221A600C48BDE821
:10105000F04101F0E1BD0E49606808F016FB08B9E7
:1010600001468FE763680B4A07480721BDE8F04156
:1010700000F0A8BE7F26E5E70226E3E7C4B1000042
:101080007016002000B20000E4B20000F416002048
:10109000C8B1000048B100000378002B00F08D803B
:1010A00030B400240C700278002A48D0A2F130033A
:1010B000DBB2092B45D80B704278002A7ED01B0189
:1010C000DBB20B704478A4F13002D2B2092A40D8C6
:1010D00013430B700223C25CC41882B300254D7009
:1010E000C25C42B3A2F13003DBB2092B0CD9A2F1EE
:1010F0006103052B4BD9A2F14103052B59D8A2F16D
:101100003703DBB24B7000E04B7062789AB11B0181
:10111000DBB24B706078A0F13002D2B2092A25D937
:10112000A0F16102052A3CD9A0F14102052A02D8AA
:10113000373803434B700B784A780A704B7030BCD9
:101140007047A2F16103052B17D8A2F15703DBB258
:10115000B1E7A4F16102052A1ED9A4F14102052AD2
:1011600029D8373C23430B700223B4E713434B7059
:101170004A780B784B700A70E1E7A2F14103052B26
:101180009DBFA2F13703DBB20B70234694E7A2F1B7
:101190005703DBB24B70B8E7573C23430B70022375
:1011A00099E7573803434B704A780B784B700A70B5
:1011B000C5E72B46A9E702238DE7704701238AE79D
:1011C00000B5012983B014D0022909D150680F4914
:1011D000FFF762FF0D4803B05DF804EB01F0CABCF5
:1011E0000B4A0C480B46072103B05DF804EB00F0F6
:1011F000E9BD0649084A4B7809780091054807215E
:1012000000F0E0FD03B05DF804FB00BF0400002027
:1012100000B20000E4B200003CB2000000B50129B9
:1012200083B014D0022909D150680F49FFF734FF69
:101230000D4803B05DF804EB01F0A0BC0B4A0C486C
:101240000B46072103B05DF804EB00F0BBBD094974
:10125000094ACB78897800910548072100F0B2FD52
:1012600003B05DF804FB00BF0600002000B20000E0
:10127000E4B20000040000203CB200000378002B20
:101280007CD0F0B400252F464C1E2BE0A2F1610368
:10129000052B3BD9A2F14103052B43D8A2F137031B
:1012A000DBB2237042785AB31B01DBB2237090F893
:1012B00001C0ACF13002D2B2092A23D9ACF16102EB
:1012C000052A28D9ACF14102052A2DD8ACF1370CFA
:1012D00043EA0C03237002231844037833B3082E27
:1012E000354640D004F8017F02786E1CF2B1A2F1BD
:1012F0003003DBB2092BC9D823704278002AD3D13E
:101300000123E9E7134323700223E5E7A2F1570322
:10131000DBB22370C6E7ACF1570C43EA0C03237031
:101320000223D9E70023BDE70223D5E7760818D0CA
:101330000B784A5D0A70012E4B5512D06B1E4A780D
:10134000C85C4870022ECA540BD0AB1E8A78C85CA9
:101350008870042ECA5404D1033DCB784A5DCA700C
:101360004B55F0BC70470C78C8794A788B79CC71B2
:1013700008708A714B7007250426E6E7704700BFA6
:1013800010B5022982B015D15068144608F08FF9C3
:10139000042825D0102815D160686946FFF76EFF34
:1013A0006846012101F082FC124B134A002808BF55
:1013B00013460EE00B46114A1148072100F002FDCA
:1013C00002B010BD63680F4A0D48072100F0FAFC17
:1013D000094B0D4A0A48072100F0F4FC02B010BD89
:1013E00060686946FFF758FE6846002101F05EFC20
:1013F000DAE700BF50B2000048B2000000B20000BF
:10140000E4B2000058B2000014BE000010B502297A
:1014100082B015D15068144608F049F9042825D047
:10142000102815D160686946FFF728FF684601213A
:1014300001F03AFC124B134A002808BF13460EE095
:101440000B46114A1148072100F0BCFC02B010BD48
:1014500063680F4A0D48072100F0B4FC094B0D4AA0
:101460000A48072100F0AEFC02B010BD6068694672
:10147000FFF712FE6846002101F016FCDAE700BF14
:1014800050B2000048B2000000B20000E4B2000018
:1014900058B2000014BE000001292DE9F04112D01D
:1014A000022908D150681349FFF7E8FE1148BDE84A
:1014B000F04101F061BB0B460F4A10480721BDE81F
:1014C000F04100F07FBC0E4C0E4F0C4EA4F108050D
:1014D00014F801393A460721304600F073FCAC425B
:1014E000F6D1094B094A05480721BDE8F04100F053
:1014F00069BC00BF0800002000B20000E4B2000098
:101500000F00002024B20000A0BE000004BE0000B6
:10151000F0B5042985B00ED115464C49686803AA78
:1015200008F044F878B96B68494A4A48072100F046
:1015300049FC05B0F0BD0B46474A4648072100F07C
:1015400041FC05B0F0BD4549A86808F09EF80028A8
:1015500044D10124EA68424F1378002B74D000254F
:1015600038462E462AE0A1F16103052B41D9A1F1AD
:101570004103052B49D8A1F13703DBB20370517841
:1015800051B31B01DBB2037092F801C0ACF1300122
:10159000C9B2092929D9ACF1610105292ED9ACF1CB
:1015A0004101052933D8ACF1370C43EA0C03037031
:1015B00002231A44137863B37D2D43D000F8016FE2
:1015C0001178013529B3A1F13003DBB2092BCAD858
:1015D000037051780029D4D10123EAE72149A86892
:1015E00008F053F838BB0446B4E70B4303700223FA
:1015F000DFE7A1F15703DBB20370C0E7ACF1570C92
:1016000043EA0C0303700223D3E70023B7E7022366
:10161000CFE70235EDB23D7007F0F0F9039E0546C5
:1016200001F0A2FA334600902A4621460C4801F008
:1016300001FB05B0F0BDAB680B4A0648072100F07E
:10164000C1FB7EE77F25E6E70225E4E7C0B10000A5
:10165000ACB20000E4B2000000B20000C4B100006F
:1016600070160020C8B1000048B100002DE9F0411B
:10167000284C266882B0002E44D0E588B4F804E0F7
:101680009846238905F1010C07469CFBF3F003FB08
:1016900010C080B286452ED06389E08005FB03F040
:1016A000331828D01C4C3750206859711A71C3F870
:1016B000088040B9194A1368002BBCBF5B42136015
:1016C00002B0BDE8F0813A7815480132394607F09A
:1016D00046FC144B39781E78404601F051FA2468D4
:1016E000054601F041FA3146009023462A460C484F
:1016F00001F0A0FADEE70C4B0C4A0D4840F2916174
:1017000007F092FB0B4B0C4A094840F2DE5107F000
:101710008BFB00BF601600206C0A00206C160020B6
:1017200070160020680A002048B50000A0B0000034
:1017300038B5000018B500007CB00000F8B5124CB8
:10174000002302E00133402B17D014F83320DD00D2
:10175000002AF7D10D4F25443E686960002E4FF0F6
:10176000010104F8331002DD013E3E6006B9F8BD08
:101770001146BDE8F84001F04FBA054B054A06484E
:1017800040F2BB6107F050FBF8160020F416002071
:101790006CB50000C4B0000038B5000008B5074BB8
:1017A0001A7832B1064B074A07484FF4DA6107F05E
:1017B0003BFB012258701A7008BD00BF700A002060
:1017C00008B50000E0B0000038B5000008B5074BD0
:1017D0001A7832B1064B074A074840F2E36107F036
:1017E00023FB012258701A7008BD00BF1C020020A4
:1017F00008B50000FCB0000038B5000008B50C4B7F
:101800001A78FF2A06D00B4B0B4A0C484FF4DF61C5
:1018100007F00AFB0A4A19701368002B02DD013B2E
:10182000136003B908BD0021BDE8084001F0F4B918
:10183000F01600205CB5000010B1000038B50000C3
:10184000F416002008B52C4B1A78FF2A38D05A78A5
:10185000FF2A37D09A78FF2A36D0DA78FF2A35D097
:101860001A79FF2A34D05A79FF2A33D09A79FF2A7D
:1018700034D0DA79FF2A33D01A7AFF2A2CD05A7A58
:10188000FF2A2FD09A7AFF2A2ED0DA7AFF2A2DD07B
:101890001A7BFF2A2CD05A7BFF2A2BD09A7BFF2A57
:1018A0000BD0DA7BFF2A08BF0F2207D0134B144A54
:1018B000144840F20C7107F0B7FA0E22985408BD94
:1018C0000022FBE70122F9E70222F7E70322F5E70E
:1018D0000422F3E70522F1E70822EFE70622EDE70D
:1018E0000722EBE70922E9E70A22E7E70B22E5E70F
:1018F0000C22E3E70D22E1E7501600205CB5000062
:101900002CB1000038B500002DE98048A44C83B00C
:101910000021234604F6DC3243F80C1B9A42FBD12B
:101920000023A04A1D4602F833500133402BFAD160
:101930009D4B9E4A1D704FF0FF33C2E90033C2E950
:1019400002339B499B4A9C4E13700D7001F01CF9A9
:10195000304601F00FF9B01C01F010F9301D01F014
:101960000BF9307B954EDFF89CA201F09BF901202A
:1019700001F09EF9002001F09BF9304600F0F4F9E7
:10198000304600F04FFA8E4A8E4B9360C2E9004514
:10199000304600F061FA8A4B1868DF881C89B3F87A
:1019A0000AC0002800F0EF809B880FE05A1C92FBD1
:1019B000F4F104FB112103FB0CF28BB28049851872
:1019C0008B8005D08258002A40F0B680BB42EDD112
:1019D000744DDFF834B205F5007904E000232B7074
:1019E0000835A9452BD02B78002BF9D053465A4601
:1019F0000721304600F0E6F96B68002BEED01F7827
:101A0000714A53460721304600F0DCF96FB1DFF828
:101A1000FC8101246B681B5D01344246072130467E
:101A2000E4B200F0CFF9A742F4D230465346674AF9
:101A3000072100F0C7F9686801F010F9CEE75A4BAA
:101A40001B7843B1584C624A63780721304600F056
:101A5000B9F900232370564B1B7843B1544C5D4AAF
:101A600063780721304600F0ADF9002323705A4C0B
:101A70005A4F04F1100514F8013FFF2B06D03A46E7
:101A80000721304600F09EF9FF232370AC42F2D1CB
:101A9000484C2378FF2B7DD0514A0721304600F077
:101AA00091F9504A1368FF21002B21707FF770AF26
:101AB0004D494E48096800BF00BF00BF00BF00BFCE
:101AC00000BF00BF00BF81422FD000BF00BF00BFDA
:101AD00000BF00BF00BF00BF00BF00BF00BF00BF0E
:101AE00000BF00BF00BF00BF00BF00BF00BF00BFFE
:101AF00000BF00BF00BF00BF00BF00BF00BF00BFEE
:101B000000BF00BF00BF00BF00BF00BF00BF00BFDD
:101B100000BF00BF00BF00BF00BF00BF00BF00BFCD
:101B200000BF00BF00BF00BF00BF013BC3D1002307
:101B3000136001F063F82BE717782D4A534607210D
:101B4000304600F03FF96FB1DFF8C08001242B6808
:101B50001B5D0134424607213046E4B200F032F901
:101B6000A742F4D2AA6895F9053001922A79009229
:101B70000721204A304600F025F9286801F06EF868
:101B800000232B6007E71C4B1C4A1D4840F2F6510E
:101B900007F04AF9134A1368002B89DCF8E600BF06
:101BA000740A0020F8160020700A00205016002049
:101BB0001C020020F016002004000020E4B2000007
:101BC00060160020FD000C00B4B4000004BE00004C
:101BD000BCB40000D4B400004F160020E8B40000EC
:101BE000F8B400006C160020000000200024F4006F
:101BF00078B4000084B4000018B5000090B0000074
:101C000038B50000A0BE0000A4B4000024B200005B
:101C100008B5EFF30583C3F308032BB172B6074A87
:101C200013680133136008BDEFF31483DB07F5D5A8
:101C3000034B044A04483E2107F0F6F8F818002048
:101C4000F0BB0000B0BB000020BC000008B5EFF303
:101C50000583C3F3080333B1084A1368013B1360DB
:101C600003B962B608BDEFF31483DB07F4D5044B68
:101C7000044A05484C2107F0D7F800BFF8180020A7
:101C8000F0BB0000D0BB000020BC000008B5034A38
:101C9000034B0448162107F0C7F800BF5CBC0000E6
:101CA000B8BC0000D0BC00000CB430B583B006ABAB
:101CB0000546006953F8042B019300F589604FF441
:101CC000806107F03BFD2C6904F58964204607F02C
:101CD000EEFC5CB16B689B6873B101460022204644
:101CE000984703B0BDE8304002B07047034B044A48
:101CF0000448152107F098F8FFF7C8FF88BD0000D9
:101D00005CBC0000D0BC00000CB430B583B006ABA6
:101D10000546006953F8042B019300F589604FF4E0
:101D2000806107F00BFD2C6904F58964204607F0FB
:101D3000BEFC5CB16B689B6873B101460022204613
:101D4000984703B0BDE8304002B07047034B044AE7
:101D50000448152107F068F8FFF798FF88BD0000D8
:101D60005CBC0000D0BC000038B5E8B10369044693
:101D7000A3B1436893B1026882B1826872B11B68F3
:101D80009847054640B940F648020146206907F0E9
:101D90000AF9236901221A70284638BD054B064A04
:101DA00006486E2107F040F8054B034A03486D21B1
:101DB00007F03AF8ACBD000074BC0000D0BC0000D5
:101DC000A4BD00000CB430B583B006AB0546006975
:101DD00053F8042B019300F589604FF4806107F0FC
:101DE000ADFC2C6904F58964204607F060FC5CB109
:101DF0006B689B6873B1014600222046984703B088
:101E0000BDE8304002B07047034B044A0448152136
:101E100007F00AF8FFF73AFF88BD00005CBC00003D
:101E2000D0BC000002691178012901D00820704758
:101E30000221117002691178022901D00020704737
:101E400010B5002454640368024AFFF7BBFF204624
:101E500010BD00BFD8BE00002DE9F04F85B00028AE
:101E600000F03A8205692A78022A044663D0032AE0
:101E70005ED1302205F1140000216E6C07F093F85A
:101E80002369012248361A612E4423694835B54238
:101E90005D6121D200212B460D4612E0092A15D0A2
:101EA00069B162B1226911690B2900F2C68102EBA6
:101EB00081020021506120690269013202619E4263
:101EC0000AD9184613F8012B202AE7D19E4203F8BD
:101ED000015C4FF00101F4D8E368002B00F0798138
:101EE00000252F46A26823695159586907F0CDFB98
:101EF0000646002840F06681A3681D44AB68002BAD
:101F000000F0F1812369AB4A5D6007212046FFF7AD
:101F1000FBFE2269536811699B681432204698477A
:101F2000236902221A7023691978914200F03A81DC
:101F300005B0BDE8F08F002303938DF80730DFF87C
:101F40007CB24368DFF86C92DFF874A2DB68002B88
:101F500000F0BC8103AA01210DF107009847039B03
:101F6000002BE5D021698B7B3BB19DF80730002227
:101F70005B2B8A7300F05D812169CE7B002E40F0DF
:101F80003E819DF807300A2B1AD01BD91B2B00F07D
:101F9000BF807F2B00F08C800D2B18D14D6C002D55
:101FA00040F0E78023684A4602212046FFF70AFFF7
:101FB000236902221A7023691978914200F0EA809D
:101FC0006368C3E7082B73D026D8002BF8D006F03F
:101FD00097FF9DF807301844427812F0970FEFD022
:101FE0002269516C0A4482F8483021694A6C0132F6
:101FF0004A642269516CB1F5806F00F051816268CA
:102000008DF808309368002B00F0748100220121C4
:1020100002A89847636899E74D6CE368002D7BD070
:10202000002BCDD0B046374601E021694D6CA36846
:1020300007EB47002A46483153F8200007F03FFBE2
:1020400010B908F101083E46E36801379F42ECD31E
:10205000B8F1000FB4D0B8F1010F00F0F480002BFC
:1020600000F0D2800025DFF850812F462E460EE08A
:10207000A36842465B5903212046FFF715FE01374E
:10208000E36801369E4205F10C0580F0BD802169B0
:10209000A3684A6C5859483107F011FB0028EFD16A
:1020A0007B07E5D14A4603212046FFF7FDFDDFE728
:1020B0004A6C6368002A3FF449AF9B6808258DF895
:1020C0000950002B00F01681002201210DF10900BA
:1020D000984763689B6820228DF80A20002B00F047
:1020E0000981002201210DF10A00984763688DF8EB
:1020F0000B509B68002B00F0FD80002201210DF1A8
:102100000B0098472269536C013B536463681DE7D9
:1021100001238B73636819E783B1274F2E466A0743
:1021200014D0A3683A469B5903212046FFF7BCFD13
:10213000E36801359D4206F10C06F0D32368524650
:1021400002212046FFF73EFE6368FFE64A46032170
:102150002046FFF7A9FDA3683A469B590321204674
:10216000FFF7A2FDE3680135AB4206F10C06D6D8B5
:10217000E4E72944032081F848602269536C013365
:102180005364236918702369197802297FF418AF02
:102190005E6400E05D6423685A462046FFF712FE45
:1021A0006368D3E65E642368044A2046FFF70AFEAC
:1021B000BEE600BF04BE000034BE0000D8BE000072
:1021C0003CBE0000E36801379F4205F10C05FFF4B7
:1021D00089AE494B494A01212046FFF7F3FD2369A7
:1021E00002221A702369197891427FF4A1AE00226D
:1021F0005A642368414A2046FFF7E4FD98E600232D
:10220000CB7305B0BDE8F08F23685246022120460B
:10221000FFF7D8FD23695A6C1344002283F8482045
:1022200023695A46483307212046FFF76DFD63684E
:102230008CE623690122DA737AE6314A01212046CD
:10224000FFF7C0FDCBE7A368226906EB4606556C95
:1022500053F8261048322944501907F020FAA36891
:10226000276953F8260007F022FA78642269536C34
:102270001A44202382F848302269536C0133536496
:102280002269536C1A44002382F84830236948338A
:102290002B445A4607212046FFF736FD636855E672
:1022A000002555640121174A2046FFF78BFD23695D
:1022B00002221A702369197891427FF439AE5D6465
:1022C00023680E4A2046FFF77DFD31E60E4B0F4A8C
:1022D0000F48212106F0A8FD0E4B0F4A0C4840F292
:1022E000292106F0A1FD0D4B0D4A094840F21721A6
:1022F00006F09AFDFFF7CAFCC0BE0000D8BE000081
:1023000074BE000044BE00001CBE000068BC00009B
:10231000D0BC0000A4BD000098BC0000A4BE00001A
:1023200084BC00002DE9F04FDFF89491DFF894A110
:1023300085B00024054617464E1EA9F10C0B0394E8
:10234000A64217D007EB84030134D3F80480B8F118
:10235000000F00F0968098F800302D2B02D198F8ED
:10236000013003BB4346524603212846FFF79CFC3D
:10237000A642E7D1EB68002B45D0039B002B6AD126
:10238000434F1C461E46AB683A461B590721284658
:10239000FFF7BAFCEB680136B34204F10C04F2D843
:1023A00005B0BDE8F08F98F802207ABB682B38D0D2
:1023B000762BD7D14B4693F80480B8F1680F36D10D
:1023C0002B69344A5968D1E9003128460091072128
:1023D000FFF79AFC304A07212846FFF795FC2F4B60
:1023E0002F4A0193009243462E4A07212846FFF7C1
:1023F0008BFC2D4A2D4B0192009328467623294AC7
:102400000721FFF781FC05B0BDE8F08F2D2BA9D186
:1024100008F1020318462249029307F036F9029B9D
:1024200070B95B4693F80480B8F1680FC8D0B8F172
:10243000760F0DD0B8F13F0F82D14FF0000891E731
:1024400018461A4907F021F900288BD14B46B2E70C
:102450000123039374E70024154F2646AB681A192D
:10246000072152681B59009228463A46FFF74CFC58
:10247000EB680136B34204F10C04EFD805B0BDE8B7
:10248000F08F0C4B0C4A0D484FF41E7106F0CCFC3B
:1024900074BD0000F0BD0000FCBD000024BD0000C4
:1024A00014BD000008BE000038BD00001CBD0000C7
:1024B0007CBD000098BD0000A8BC0000D0BC00009E
:1024C000E8BE000058BD0000704700BF014A03216C
:1024D000FFF7EABBF8BC0000F0B4134B134F1E88A3
:1024E0003C880025A642156018D00144DFF840C0A2
:1024F0000FE0B44211D01CF8044000F8014B1468FE
:102500009BB2651CB3F5007F156014BF1C46002408
:102510000125884204F10103EBD115B90020F0BC7C
:1025200070473C80FAE700BFFC1A0020FE1A00202A
:10253000FC18002038B50B4A0B4B042100244FF443
:1025400001708025C2F88010C2F8801182F8024321
:10255000C3F80853C3F80803C3F8004500F04CFA69
:10256000204638BD00E100E0002000404FF0A042CE
:1025700070B5294B29494025C2F80855002003248D
:102580000825C2F81847C2F82007C3F814550625D5
:10259000C3F80C552025C2F81C070526C2F80855BB
:1025A000C2F8144707254FF0EB740122C3F8086501
:1025B00084B0C3F81055C3F82445C3F86C250860EF
:1025C0000968174A039103991060116802910299F2
:1025D00042F81C0C52F81C1C019101991062116AFE
:1025E0000091104A1049009CC3F80413042382F898
:1025F0000203C2F88031136000F0A8F900F038FA45
:102600000028FBD0044B042101220020C3F8001550
:102610001A6004B070BD00BF002000401C210040C3
:102620002421004000E100E00402020049B12DE94C
:10263000F043234C236883B033B1012003B0BDE8DD
:10264000F0831160084670471E4E1F4D2060481EE3
:10265000288033602068D6F800C01C4FDFF87480F3
:10266000CDF804C000F1010E90F800C0C4F800E0FD
:102670004FF001090198C7F81CC59E463046BC467C
:10268000C8F800900368002BFCD0C0F800E0066892
:102690002B880096009F5E1E3BB123685F1C1B7851
:1026A0002760CCF81C352E80ECE70948012606602F
:1026B000184623602B80116003B0BDE8F08300BF93
:1026C000001B00201C210040041B002000200040B3
:1026D0000C2000400820004010B5204B1A6882B042
:1026E000DAB91F4B1A68002A29D11E4B196891B11B
:1026F0001D481A601C681D4A01880194019C1488B9
:10270000D3F810244B1CC3F308039C42D2B21DD053
:10271000174C0380625402B010BD00221A60196881
:102720000191019943F81C2C1C3B124A1B68009331
:102730000099114B11484FF4827106F075FB0E4B56
:102740000C4A0E484FF4847106F06EFB0A4B094A9E
:102750000A4840F2191106F067FB00BF242100402F
:102760004421004008210040FC1A0020FE1A0020ED
:10277000FC18002028BF000048B20000F4BE000092
:102780000C4B187898B930B40B4958604FF080441E
:102790000122E025D8609860186181F80053C1F8E3
:1027A00080210A60C4F818251A7030BC704748F2BE
:1027B00085007047081B002000E100E038B515498E
:1027C0000B780BB3144D15484FF0804201234FF0A6
:1027D000FF34C5F88030C2F808430360D2F81834DB
:1027E00013F48033FAD10E4A8B70012313604FF03B
:1027F0008042D2F80C3403F00113B3F1011FF8D07A
:1028000000234B700B7038BD064B074A07489B21CD
:1028100006F00AFB081B002000E100E00C0000406D
:102820000400004038C0000050BF000058C0000045
:1028300030B5244C237883B0002B36D0A3780546DE
:1028400003F0FF0083B115B16B68012098470020A9
:10285000FFF7DEF9E36800200133E360FFF7F6F9E4
:10286000E36843B303B030BDFFF7D2F965B1226925
:1028700042B1954208D0134601E09D4204D01B6846
:10288000002BFAD12A602561E368002BE2D10E4AC1
:102890000E491360136801934FF080420220012318
:1028A000019DC2F804030B60D4E7094B094A0A48AA
:1028B000C42106F0B9FA094B064A0748E02106F0A0
:1028C000B3FA00BF081B00200401004008000040CC
:1028D00038C0000068BF000058C0000018C00000E9
:1028E00010B5144C2378CBB1E368EBB10020FFF7AF
:1028F0008FF9E368013BE360E36853B90E4B0122B3
:102900001A604FF08042D2F8183413F48033FAD1B1
:10291000A3700020BDE81040FFF798B9074B084AA4
:102920000848F12106F080FA074B054A0548F221D4
:1029300006F07AFA081B00200C00004038C00000A6
:1029400084BF000058C0000018C0000030B5244CFF
:10295000237883B0002B34D06378054603F0FF0062
:1029600083B115B16B68002098470020FFF750F93C
:102970006368002001336360FFF768F963683BB365
:1029800003B030BDFFF744F965B1A26842B195428A
:1029900008D0134601E09D4204D01B68002BFAD1F9
:1029A0002A60A5606368002BE2D10E4A13601368A9
:1029B00001934FF0804301220199C3F804231A6068
:1029C000D6E7094B094A0A484FF4837106F02CFAFE
:1029D000084B064A06484FF4917106F025FA00BFED
:1029E000081B00200001004038C00000A0BF00000C
:1029F00058C00000F8BF000010B5174C2378E3B1B1
:102A000063680BB30020FFF703F96368013B636061
:102A100063686BB9114B01221A604FF08042D2F803
:102A20000C3403F00113B3F1011FF8D000236370DD
:102A30000020BDE81040FFF709B9094B094A0A48D0
:102A400040F2271106F0F0F9084B064A06484FF409
:102A5000947106F0E9F900BF081B00200400004053
:102A600038C00000BCBF000058C00000F8BF000024
:102A700008B50B4B1B785BB14FF08043D3F80C04C7
:102A800000F00110A0F10110B0FA80F0400908BD7B
:102A9000044B054A054840F2351106F0C5F900BF60
:102AA000081B002038C00000D8BF000058C000003C
:102AB00010B51B4B1A6882B0AAB100221A601B68BD
:102AC00000934FF080430122164C0099C3F808236D
:102AD000A36862703BB1D3E900230020A26098474D
:102AE000A368002BF7D1104B1A68B2B100221A600C
:102AF0001B6801934FF0804302220A4C0199C3F8EE
:102B0000082323690122A2703BB1D3E900230120ED
:102B1000226198472369002BF7D102B010BD00BF96
:102B200000010040081B00200401004008B5034AD2
:102B3000034B044840F2AB1106F076F990C0000058
:102B4000ACC00000B4C0000038B5044604F0C6FFB5
:102B50000546204604F0C8FFA54203D0BDE8384032
:102B600005F034B938BD00BF04F0B8BF04F0CABFE7
:102B700004F0C2BF05F022B805F02CB805F036B855
:102B80004901C031401A704708B500F0B9F801F0AA
:102B90000BFB00F06FFA03F0B3FA03F0A3FD04F0AF
:102BA00033FF04F011F804F045FF05F0F3F805F0E9
:102BB000F7F805F00DF905F011FA05F033FD05F011
:102BC00053FD05F057FDBDE8084005F0F7BE00BF16
:102BD00008B505F009FF05F071FD05F047FD05F0AA
:102BE00021FA04F039F800F047FABDE8084001F096
:102BF0000FBB00BF012005F0D5B800BF08B500200D
:102C000005F0D0F880F00100C0B208BD0123002219
:102C10001846114605F0C8B810B5002482B00B461E
:102C20000246CDE900442146204605F0BFF802B037
:102C300010BD00BF10B49DF8044001945DF8044B32
:102C400003F05CBD0146002005F0B8B8002005F097
:102C5000B7B800BF002005F0B5B800BF08B590F8C0
:102C600080301BB905F0B0F838B108BD044B054AF7
:102C7000054840F2A51106F0D7F8FFF757FF00BF4F
:102C8000FCC0000090C00000B4C0000004F0F6BE1C
:102C900004F0FCBE04F00ABF04F000BF04F00EBF55
:102CA00004F014BF00F03EB800F042B800F0E4B801
:102CB00000F054B903F058BC704700BF70B582B043
:102CC000044601A80D46164605F03AFD50B1019B99
:102CD000002B08BF0123324629462046FEF7C6FCDA
:102CE00002B070BD0346324629462046FEF7BEFCC0
:102CF00002B070BD704700BF704700BF704700BF93
:102D000005480649064A10B40023012404700B70DC
:102D100013705DF8044B7047841B00201C1B0020BF
:102D20001D1B0020014B1870704700BF841B002042
:102D30002DE9F041044639BB4B4B1E7877B2002F8A
:102D4000C0F28B807D10B542EBB26AB23BDAB0F8CC
:102D500000E0DFF81CC10FE055D9013359B27B1AEE
:102D600003EBD37301EB63038F42DBB2084670DBE6
:102D70005AB2B242154627DA3CF81500864503F1EF
:102D8000FF30E9D247B2EAE7384B1E7877B2002F1E
:102D900065DB7B109E42DDB25AB262DDDFF8D4C043
:102DA000D0F800E000205CF83380C6450CEBC3038C
:102DB0004CD32CD8D3F804806368984546D826D3E2
:102DC0000846BDE8F081084601358542D2B201D1FE
:102DD0000132D2B202250A2E2549234F2B4631D08B
:102DE00002FB0330B21AC61A0E4403FB02F2084477
:102DF000314606F0BFF82A462146304606F0AFF8C5
:102E00003B7801333B7001210846BDE8F081013574
:102E100068B23D1A05EBD57500EB65058742EDB24A
:102E2000804618DB6AB296421346BCDC0133434548
:102E3000D2B201D10132D2B208250A2E2B460D4959
:102E40000A4FCDD100210846BDE8F081013D6FB2A7
:102E5000DFE71546B8E71346E8E70A46BAE7002277
:102E6000EAE74FF00008E1E71D1B00201C1B0020D3
:102E7000701B0020201B0020F8B581BB334B1C7851
:102E800065B2002D29DB6A10A242D3B225DA06888A
:102E90002F480DE055D9591C49B26B1A03EBD37377
:102EA00001EB6303DBB2A9425AB216DCA24214DA88
:102EB00030F81220964203F1FF32EBD255B2ECE724
:102EC000013359B26A1A02EBD27201EB6203DBB230
:102ED0008D425AB201DBA2420EDB0020F8BD1D4B31
:102EE0001C7865B2002DF8DB6A10A242D3B2F4DA86
:102EF000D0F800C0184E002156F83270BC4506EBE1
:102F0000C2020BD3DCD857684268974206D8D7D3A1
:102F1000114E104D082224B92046F8BD013B5DB288
:102F2000D0E7E01A03FB02F3D118013802FB00F2EC
:102F30003144F01806F01EF82B78013B2B7001206D
:102F4000F8BD0222024E014DE5E700BF1D1B002027
:102F5000701B00201C1B0020201B002010B9034BFD
:102F600018707047024B00221A7070471D1B00201A
:102F70001C1B00202DE9F041394B1C787CB3837871
:102F800003F00C02082A2ED00C2A25D100F10E02E3
:102F9000417803F0C003490658BF0232802B38D075
:102FA000C02B19D12F4B1E7870B200282DDB411099
:102FB000B142CBB229DAD2F800802B4D4FF0000C91
:102FC00055F831E0C64505EBC10145D80ED3496837
:102FD00057688F4240D309D82046BDE8F0810124CC
:102FE0002046BDE8F08100F10802D1E701334FFA35
:102FF00083FCA0EB0C0303EBD3730CEB6303DBB29A
:10300000604559B201DBB142DADB00242046BDE85D
:10301000F081164B1D7868B20028F6DB4110A942FA
:10302000CBB2F2DA1788124E00220DE0D4D9013368
:103030005AB2831A03EBD37302EB6303DBB2904201
:1030400059B2E2DBA942E0DA36F811108F4203F1FF
:10305000FF31EBD248B2ECE7013B58B2C9E700BF01
:10306000841B00201C1B0020201B00201D1B002097
:10307000701B0020FFF784BBFFF7A0BB0148FFF7E0
:1030800065BC00BF14000020FFF7B6BC0148FFF785
:10309000CFBB00BF14000020FFF722BC08B528B149
:1030A000012800D008BD04F095FB08BD05F094F997
:1030B00008BD00BF08B5034A034B044840F2CB11DA
:1030C00005F0B2FE44C10000DCC10000FCC10000FC
:1030D0002DE9F0474F4C504D504FDFF868813E6866
:1030E000522218234FF0400984B0C5F80895C4F85F
:1030F0000022C4F8603504F09DFEDFF84CC1484A58
:10310000484900284FF0000308BF0A22C4F80823EA
:10311000CCF80030DCF800200392039A0B600A68B8
:1031200041480292029A03600168404A01914FF0BF
:10313000010A4FF45051DDF804C0C4F80413C2F87A
:1031400000A04FF40072C5F808258022C5F80425B8
:10315000C8F80030D8F800300093009BC5F80495FB
:1031600005F0DAFAD4F8503513F0FF0F43D03B687E
:10317000002283F8802005F063FA386068B190F887
:10318000803053B1234B2A4AC3F80405C3F8002208
:10319000D3F85035DBB2022B29D0264A26491378C2
:1031A00003F0FC036FF3820302201370087003F036
:1031B0000FF9184BD3F8480500F07F0005F0A2F98D
:1031C00033783344044613F8010C05F0BFF902B21A
:1031D0009200FF2A28BFFF22614252B249B2304614
:1031E00004F014FC04B0BDE8F04703F035B9134B0C
:1031F00001221A60D1E700BF00BF00BF00BF00BFBF
:1032000000BFD8F80030002BB1D10D4BC3F800A09F
:10321000ADE700BF0010004000F00140981B002007
:1032200002000008281100403011004010900040BA
:1032300052000800941B0020961B0020081000403C
:10324000101000403C71014034110040314B1B789C
:1032500003B9704770B5304E82B00446356805F04A
:1032600061F8C009022851D9EB09821E9A4298BF21
:10327000A5EBC21529492A4A94BFC31E0025356013
:1032800000204FF40045C3F31403C2F86436C2F8BB
:10329000005208600B68009301F5B031009BC2F842
:1032A00004530860086801901E4B1F481F4D019E83
:1032B000C3F84815C3F84C55C3F82C09A0F5FF40D6
:1032C00005F586754838C3F84055C3F84405D3F86A
:1032D000000840F08000C3F8000880254020C3F8B3
:1032E0000455C3F8040564B1D2F8503513F0FF0F4C
:1032F0000DD100BF00BF00BF00BF00BF00BF0B6803
:103300002BB90B4B01221A6002B070BD356002B0C0
:1033100070BD00BF951B0020901B00203C11004099
:103320000010004000F0014004F001400410004093
:10333000101000402DE9F0415B4A5C4E137803F019
:10334000FC036FF3820384B01370074604F0D4FBD0
:10335000574AC0B2C2F80C053368002B00F0A080B9
:1033600093F88010002900F09880C2F80435514A83
:103370004FF001084E4D504BC5F800220021182295
:10338000C5F8602519601A680092009A43F80C1C71
:103390000C3B4A481B680193019B01600368029340
:1033A000474A029C474C4FF45053C5F80433D2F8B7
:1033B00000C2454B4CF4A06CC2F800C24FF0010CA7
:1033C000C2F840C54FF0820CC2F844C54FF0830CE0
:1033D000C2F848C52160216803910CF1804C0CF6BD
:1033E000817C3A49DDF80CE0C3F84845C3F84CC588
:1033F000C3F82C19C3F85045C3F85425D3F8002856
:10340000DFF8D4E0A1F5EF31F43942F08002C3F8DF
:1034100000284FF0800CC3F8401540224FF4807113
:10342000C3F844E5C3F804C5C3F80415C3F804257C
:1034300005F072F99FB1D5F8503513F0FF0F05D0A4
:10344000B8F1000F11D004B0BDE8F08100BF00BF9B
:1034500000BF00BF00BF00BF2368002BF0D11C4B92
:1034600001221A60B8F1000FEDD105F0E9F83060E3
:103470000028E8D090F88030002BE4D00C4B0D4AA7
:10348000C3F80405C3F80022D3F85035DBB2022B91
:10349000D9D1104B01221A60D5E78846522269E73C
:1034A0009846522266E700BF941B0020981B00201C
:1034B000001000405200080034110040301100405C
:1034C000009000403C71014000F0014004F00140D8
:1034D00010100040081000403C700140784B1B78F1
:1034E0001B076AD5F0B5774E33685C78C4F3401497
:1034F00085B0002C62D0744F3B68002B00F0D28066
:1035000093F88020002A00F09C80704A704871492E
:103510004025C0F80855C2F8001293F88010002921
:1035200008BF0023C2F80435684D6B4BC5F808335B
:1035300004F080FC60B1694B00224FF00061C5F8D7
:1035400008131A601B6803930823039AC5F8043311
:103550005F4B634A634964484FF40075C3F80855EC
:10356000C3F84825C3F84C150021C3F82C09116095
:10357000106802908020029D5C49C3F80405402039
:10358000C3F804050620A3F5F0330870D3F85035CE
:1035900013F0FF0F5FD0002C6BD0554B4B4A00212E
:1035A000196030681968C378019101991B0643F4CA
:1035B0000073C2F8443605B0F0BD7047444B4D4D22
:1035C00040218022C3F80815C3F808254FF4007184
:1035D0004FF48072C3F80815C3F80825D3F8002803
:1035E00022F08002C3F80028C3F82C492B788BB155
:1035F00004F020FC404B4149344A414F00280CBFA5
:10360000184608463F49C2F808030123C2F80042A1
:103610003B600B60354B02221A702B78002B4BD18C
:10362000346802F0D5FE204602F030FD002320462B
:103630001A46194604F0F0F905B0BDE8F04002F072
:103640000BBF2349214B402014461222C1F8080524
:10365000C3F8002268E700BF00BF00BF00BF00BF83
:1036600000BF1368002B96D1264B01221A60002C54
:1036700093D104F0E5FF386000288ED090F88030B8
:10368000002B8AD0114B134AC3F80405C3F800225B
:10369000D3F85035DBB2022B7FF47FAF1A4B0122F7
:1036A0001A607AE70A49094A40201C461223C1F8E9
:1036B0000805C2F8003237E70120FFF73BFEAFE70D
:1036C000941B00209C1B0020981B00200010004031
:1036D00000F0014012000800020004000C1100403C
:1036E0003C7101400410004004F00140961B002092
:1036F0005C110040951B00200A0004000200040831
:10370000301000401010004008100040F0B5604B31
:103710001B7887B0A3B1447803F0FF060378A406B2
:103720004FEA431354BFEE3303F24E4317460D46A0
:10373000044649B103F1A80004F046FD00286AD10F
:103740000026304607B0F0BD184604F03DFD0028C5
:10375000F6D004F0D1F94F4BC0B2C3F80C05C3F852
:10376000044504F067FB4C4B00280CBF18464FF48F
:10377000A010484BC3F8000204F05CFB00287ED088
:10378000464B4749474C00221A601B680593059B2E
:10379000002D60D0444C454A45483E4D00232360EF
:1037A00024680394039C1360126804780192414AD0
:1037B000DDF804C063F3C3040470C5F80413136098
:1037C00013680293A2F5B032029BA2F59C723A4BA9
:1037D0003849C3F848153948C3F84C25384C394A9C
:1037E000C3F82C49C3F84005C3F84425D3F8002892
:1037F00042F08002C3F8002880204022C3F804056C
:10380000C3F804250FB3234BD3F8503513F0FF0F43
:1038100012D03E4695E704F06FF91E4BC0B2C3F8D4
:103820000C05C3F8044504F005FB274B274A002884
:103830000CBF184610469CE700BF00BF00BF00BF8A
:1038400000BF00BF0B68002BE3D1214B01223046A3
:103850001A6007B0F0BD154B15491D601B6808784C
:1038600001930C4A134BDDF804C065F3C3000870E4
:10387000C2F804431D601B680293029BA7E7154B27
:10388000154918601B680493049B0A2480E700BF55
:10389000951B002000100040020004006C11004045
:1038A0000200040802000008481100400411004012
:1038B000941B00203C71014000F0014010110040B9
:1038C00004F001403C70014002380400003814004C
:1038D000101000400C1100400A000400F0B5B24B7B
:1038E0001B7885B0092B00F2E981DFE813F01E0098
:1038F000EF006800A500260026002D00FA0029012F
:103900000A00AA4BAA4A40208021C3F80805C3F840
:103910000815137803F0FF04002B00F04081A54B3D
:1039200001221A60204605B0F0BD022900F037815F
:10393000042004F0A9FD0124F4E7002840F04A81A6
:103940000446204605B0F0BD0028F9D0974B984CAE
:1039500080204FF480714025C3F80855C3F808054E
:10396000C3F80815D3F80018002021F08001C3F82F
:103970000018C3F82C0923787BB18F4B8F498D4CED
:103980000825C3F808530125C3F800022560C3F8D1
:10399000440608600B680393039B002A00F0FF8035
:1039A000874B1D680621284602F072FB044600285A
:1039B00000F0F5802846062104F032F8B2E7814B8A
:1039C0001B78C3F38003002B00F048810028B7D098
:1039D000764B7D4E7D48764D4021C3F808158021F9
:1039E000C3F808154FF48071C3F80815D3F8001810
:1039F00021F08001C3F8001800240121C3F82C49EC
:103A00003160D0F8003223F4A063C0F800322B7884
:103A100053B1A0F5FF40684B70384FF45055C3F8D0
:103A20000853C3F800420160002A00F0B880062065
:103A3000144603F0EFFF75E7002881D05B4B624F1F
:103A400062485B4E4021C3F808158021C3F8081571
:103A50004FF48071C3F80815D3F80018002521F041
:103A600080010124C3F80018C3F82C593C60D0F839
:103A7000003223F4A063C0F800323378002B40F00A
:103A8000DD80002A00F08B8051494B4B0D6801927C
:103A9000002185F88010D3F8480500F07F0004F07D
:103AA00031FD2B78019A2B44064613F8010C14467D
:103AB00004F04CFD02B29200FF2A28BFFF2271429F
:103AC00052B2284649B203F0A1FF2BE7384B1B78CE
:103AD00003F0FF04002B62D0374B1022C3F80823F9
:103AE00020E700283FF42CAF304B314C80204FF4BE
:103AF00080714025C3F80855C3F80805C3F80815B8
:103B0000D3F80018002021F08001C3F80018C3F892
:103B10002C09237873B12849264C05F180454FF4D0
:103B2000004305F6E875C1F808330123C1F8000227
:103B30002B6023609AB30120144603F075FFF1E671
:103B400000283FF4FDAE194B194C80204FF48071D2
:103B50004025C3F80855C3F80805C3F80815D3F87D
:103B60000018002021F08001C3F80018C3F82C09C8
:103B7000237873B110490F4C05F180454FF4C023F1
:103B800005F57F65C1F808330123C1F800022B60F9
:103B9000236022B10120144603F04AFFC2E601244B
:103BA000204605B0F0BD00BF961B002000F001408C
:103BB000951B002010100040001000405C110040D8
:103BC0009C1B0020941B002010900040009000409F
:103BD000981B00203D4B3E484021C3F808154FF488
:103BE00000744FF480718025C3F80855C3F8084568
:103BF000C3F80815D3F80018002421F08001C3F899
:103C00000018C3F82C490378002B3FF4C6AE01928C
:103C100004F010F92F4E304B304905F18045A04299
:103C200018BF334605F57B652D48C1F808330123DD
:103C3000C1F800422B600360019AAEE6019204F0E5
:103C4000F9F82649274BA842254808BF0A23C1F89E
:103C50000833C1F800520460019A12E71B4A224D52
:103C600022481B4C4021C2F808158021C2F80815D3
:103C70004FF48071C2F80815D2F8001821F08001C5
:103C8000C2F800180121C2F82C392960D0F80022AE
:103C900022F4A062C0F80022227802F0FF04002A79
:103CA0003FF47DAFA0F5FF400C4A70384FF45055FB
:103CB000C2F80853C2F80032016033E60C4B0D4ADB
:103CC0000D4840F21E5105F0AFF800BF00F0014072
:103CD000951B0020020004080A00040000100040A8
:103CE00010100040020000081090004000900040BA
:103CF00048B2000050C10000FCC10000F0B585B022
:103D000030B9CD4D2B78002B40F0E48005B0F0BDEC
:103D100004F008FB3B28F9D9C74D2B7803F0FF06C8
:103D2000002BF3D1C54CC64AC4F8FC6F01270F2302
:103D3000C4F8FC7FC4F81035D4F8143523F00F0311
:103D4000C4F81435D4F8143543F00803C4F8143516
:103D5000D4F8143523F04073C4F81435D4F814356E
:103D600043F00073C4F81435D4F8143523F080639D
:103D7000C4F81435D4F8143543F08063C4F814350E
:103D8000D4F8183523F0FF03C4F81835D4F81835E3
:103D900043F07F03C4F81835D4F8503623F00103FC
:103DA000C4F85036D4F850363B43C4F85036D4F8F3
:103DB000343523F00303C4F83435D4F8343543F0F4
:103DC0000203C4F83435D4F8343523F44073C4F80E
:103DD0003435D4F8343543F40073C4F8343503A8CB
:103DE000C4F8382503F00AFFD4F86C269DF80C308F
:103DF00022F00702C4F86C26D4F86C261343C4F8EA
:103E00006C369DF80D0004F0E9FBD4F86C368D4952
:103E100023F47F43C4F86C36D4F86C3643EA0020B0
:103E2000C4F86C06D4F86C269DF80E0022F47F02CC
:103E3000C4F86C26D4F86C3643EA0043C4F86C36F8
:103E4000D4F86C269DF80F0022F07F42C4F86C264F
:103E5000D4F86C3643EA0063C4F86C36C4F84466A0
:103E6000C4F8481603F03AFEA0F10B03DBB20F2BA7
:103E700000F27C81744B0A3800EB80000222C4F807
:103E8000080583F80163C3F88021D4F80032002BC1
:103E900040F065816D4C2378002B40F04E812378F3
:103EA000092B00F2558101A252F823F00D3D0000CC
:103EB000514100002B410000514100001D41000014
:103EC0000F41000051410000074100007D4000000B
:103ED000F93F00005C4B0226C3F880600446C3F83B
:103EE000806183F80103BFF34F8FBFF36F8F534B94
:103EF0000127C3F8FC0FC3F8FC7F287004F004FC12
:103F00003146384602F0ACF810B322463146384606
:103F1000FFF7E4FCE0B14D4C2378092B00F211814E
:103F200001A252F823F000BF0D3D0000E73F000062
:103F3000CD3F0000833F00005F3F00005F3F000077
:103F40005F3F00000D3D00000D3D00000D3D0000F5
:103F50003F4B404A404840F2CF6104F065FF0223E6
:103F6000237002F035FA3D4B1C680421204602F014
:103F70008FF818B12046042103F052FD02F06CFACC
:103F8000C4E6374B1D68002385F880300223237078
:103F900002F01EFA294BD3F8480500F07F0004F028
:103FA000B1FA2B782B44044613F8010C04F0CEFA36
:103FB00002B29200FF2A28BFFF22614252B2284675
:103FC00049B203F023FD02F047FA9FE6254B1B7828
:103FD0005B077FF59BAE02F0FBF9052003F01AFDAD
:103FE00002F03AFA92E600263046267004F04CFAC7
:103FF0002E7004F089FB89E62B78002B3FF486AE07
:10400000194A1A4B0D481A491A4E1B4D00241460C8
:1040100014680394039CC3F848258024C3F84C0516
:1040200001224020C3F84065C3F84455C3F8044555
:10403000C3F804050A6069E6951B002000100040E3
:1040400021100100000700FF00E100E0961B0020A6
:10405000ACC0000080C10000FCC100009C1B00201F
:10406000981B0020941B00203C71014000F001408F
:1040700010100040101100403C7001402B78002BC4
:104080003FF444AEAE2004F09FF800283FF43EAE6B
:104090003748384D384C394A394B4FF42051C0F825
:1040A0000012002129602D680095009D2160246880
:1040B00001944FF4C024019DC0F8044311601168BD
:1040C0000291304D304C3149029EC3F8482500F52D
:1040D0008870C3F84C55C3F82C49C3F84005C3F8A1
:1040E0004415D3F80028A1F5B0312C3942F08002F4
:1040F000802540240120C3F80028C3F80455C3F8E4
:104100000445086002E60020FFF7A0F8FEE5204B1A
:10411000002218681146FFF7F9FAF7E51C4B002258
:1041200018680121FFF7F2FAF0E52B78002B3FF435
:10413000EDAD0020FFF7FEF8E8E52F7004F0D6FAA9
:10414000ADE6144B144A154840F2FA6104F06CFED7
:10415000104B134A11484FF4D76104F065FE114B20
:104160000F4A0E484FF4D26104F05EFEFEF7A2FF44
:104170000010004048110040441100403C710140D3
:1041800000F001400410004004F001403C70014088
:104190009C1B002048B2000080C10000FCC1000050
:1041A0006CC1000098C2000000B5144B93E80300F6
:1041B00083B006220090ADF804101148694604F05F
:1041C000CEFE10481049114B002202700A70D3F83D
:1041D000042522F00302C3F80425D3F8082522F0B1
:1041E0000302C3F80825D3F8102522F00F0242F08D
:1041F0000402C3F8102503B05DF804FB14C10000ED
:10420000881B0020961B0020951B0020009000407A
:104210000B4B1B7833B10B4B00210122C3F8FC1F61
:10422000C3F8FC2F084B02220021C3F88020C3F8FA
:10423000802183F80113BFF34F8FBFF36F8F704757
:10424000951B00200010004000E100E02DE9F04146
:1042500082B0064601F060FF044620B12F4D2B7856
:104260002BB901F0F3FF204602B0BDE8F0812B78B6
:10427000012BF6D02A4F3B7803F0FF0883BB0121C6
:10428000304601F0EDFE48B3012230461146FFF7FB
:1042900025FB034610B301222A703A7802F0FF068C
:1042A00092B3204A204B0021116012680192102223
:1042B0000199C3F80423D3F8501511F0FF0FD0D1A2
:1042C000397809B1C3F80823002420462C7004F083
:1042D000DBF83C7004F018FA3446C2E70024C0E76B
:1042E00004F020F83B28CAD80F4B00260122C3F85F
:1042F000FC6F3046C3F8FC2F44462E7004F0C4F81F
:104300003E7004F001FAACE730462E701C4604F013
:10431000BBF83E7004F0F8F9A3E700BF961B00203D
:10432000951B002010110040001000402DE9F047BF
:10433000074688461546994601F0EEFE044650B3FE
:104340001B4E3378022B21D03378032B1ED0DFF89D
:1043500064A09AF8003023BB4146384601F080FE45
:1043600018B34A4641463846FFF7B8FA0446E0B16A
:10437000022333709AF8003003F0FF061BB10120CE
:10438000FEF7D8FF34460DB12046A84701F05EFF86
:104390002046BDE8F087002DFAD0A8472046BDE8AA
:1043A000F08703F0BFFF3B28D6D80024EBE700BF1F
:1043B000961B0020951B00202DE9F843099C9DF8D1
:1043C000209005460E4690461F4601F0A5FE30B9E6
:1043D0000CB10020A04700252846BDE8F8831A4B01
:1043E0001B784BBB3146284601F03AFE10B32846F5
:1043F00031460122FFF772FA0546D8B1134E144B2D
:1044000002223270404601223946C3F80080FFF78D
:104410007DF9B9F1000F00D060B1002F14BF042363
:10442000052333700CB12846A04701F00FFF284642
:10443000BDE8F8830025F5E703F074FF3B28D1D8E9
:1044400001F004FFC4E700BF951B0020961B00206D
:104450009C1B00202DE9F04383B005460E4601F079
:104460005BFE044618B9204603B0BDE8F083B64FA2
:104470003B7863BB0121284601F0F2FD044600B3FE
:10448000DFF8088398F80030092B00F2D481DFE8C8
:1044900013F00A005201C90002019A009A00640058
:1044A0003C0037002900042003F0EEFFA74BA84A88
:1044B0001E60002107230120117088F80030FEF7EC
:1044C000C5FE01F0C3FE204603B0BDE8F08303F053
:1044D00029FF3B28CED801F0B9FE0024204603B0C6
:1044E000BDE8F0839B4B40218022C3F80815C3F838
:1044F00008253B78002BD9D0974B01221A60D5E7CD
:10450000002D40F045812C46DBE7002DFBD0914B80
:104510004022C3F8082580214FF48072C3F80815A3
:10452000C3F80825D3F80028002122F08002C3F840
:104530000028C3F82C193B785BB1884B8848864A21
:104540004FF40045C3F80853C3F800120123036079
:104550001360012003F068FAA8E7002DD3D07D4B4B
:104560004022C3F8082580214FF48072C3F8081553
:10457000C3F80825D3F80028002122F08002C3F8F0
:104580000028C3F82C193B787BB1744B754A7248EC
:104590000825C3F808530125C3F800120560C3F8C5
:1045A0004416116013680193019B6F4B1D6806212F
:1045B000284601F06DFD00283FF478AF284606211B
:1045C00003F02EFA72E7002D9DD0624B402180222D
:1045D000C3F80815C3F808254FF400714FF4807232
:1045E000C3F80815C3F80825D3F80028002522F0E1
:1045F0008002C3F80028C3F82C593B78002BD4D094
:1046000003F018FC59495A4B544A5A4FA84218BF54
:104610000B465149C2F808330123C2F800523B60EF
:104620000B60C2E7544B1B78C3F38003002B00F0F0
:10463000D580002D3FF467AF464B504D5049402286
:10464000C3F8082580204FF48072C3F80805C3F82A
:104650000825D3F8002822F08002C3F800280020A3
:104660000122C3F82C092A60D1F8003223F4A06398
:10467000C1F800323B7853B1A1F5FF41374B703997
:104680004FF45055C3F80853C3F800020A600620DF
:1046900003F0C0F90AE7002D3FF435AF2D4B374842
:1046A00037494022C3F8082580254FF48072C3F8AB
:1046B0000855C3F80825D3F800284FF0000922F068
:1046C00080020125C3F80028C3F82C990560D1F8B1
:1046D000003223F4A063C1F800323B7863B103F0E9
:1046E000A9FB1E4A1C49274B484508BF0A23C2F8AC
:1046F0000833C2F800920D60234A184B1568002257
:1047000085F88020D3F8480500F07F0003F0FAFE1A
:104710002B782B44074613F8010C03F017FF02B265
:104720009200FF2A28BFFF22794252B2284649B29E
:1047300003F06CF9BAE63B78002B3FF4B7AE074BB9
:104740001022C3F80823B1E6951B0020901B00201F
:104750008E1B002000F001401010004000100040AF
:10476000281000405C1100409C1B0020020004083F
:104770000A00040030100040941B002010900040FC
:104780000090004002000008981B0020961B0020AB
:104790002C4B4022C3F8082580214FF48072C3F8C7
:1047A0000815C3F80825D3F80028002122F080025C
:1047B000C3F80028C3F82C193B785BB1224B23487F
:1047C000234A4FF4C025C3F80853C3F8001201234D
:1047D00003601360012003F02BF967E6194A1D4DB1
:1047E0001D484021C2F808158021C2F808154FF471
:1047F0008071C2F80815D2F8001821F08001C2F8C3
:1048000000180121C2F82C392960D0F8002222F4C6
:10481000A062C0F800223A78002A3FF447AEA0F523
:10482000FF40094A70384FF45055C2F80853C2F897
:10483000003201603AE6094B094A0A4840F21E512B
:1048400004F0F2FA00F00140001000403010004087
:1048500010100040109000400090004048B200004E
:1048600050C10000FCC100002DE9F04184B00546B4
:1048700001F052FC044618B9204604B0BDE8F081AE
:10488000AE4E3378002B72D10121284601F0E8FBAF
:104890000446002865D0AA4F3B78092B00F22182FC
:1048A000DFE813F00A00C30112017201E100E10028
:1048B000AB0083007E007000042003F0E5FD0823B8
:1048C0003B703378002B4CD0AE2003F07DFC0028E9
:1048D00047D09C499C4E9D4D9D4A4FF42053C1F8B2
:1048E00000320023336036680196019E2B602D68EC
:1048F00002954FF4C025029EC1F804531360156859
:104900000395944B944D954E039FC3F84825C3F8E7
:104910004C65C3F82C59A5F5FF4506F58676483D4C
:10492000C3F84065C3F84455D3F8005845F08005F6
:10493000C3F8005880264025C3F80465C3F8045521
:10494000D1F8503513F0FF0F0BD100BF00BF00BFEF
:1049500000BF00BF00BF13681BB9814B0122044692
:104960001A6001F073FC204604B0BDE8F08103F04A
:10497000D9FC3B2888D801F069FC0024204604B00B
:10498000BDE8F081734B40218022C3F80815C3F8BD
:1049900008253378002B92D0714B01221A608EE7E4
:1049A000002D40F04B812C46DBE7002DFBD0694BFE
:1049B0004022C3F8082580214FF48072C3F80815FF
:1049C000C3F80825D3F80028002122F08002C3F89C
:1049D0000028C3F82C1933785BB15A4B6148604A00
:1049E0004FF40045C3F80853C3F8001201230360D5
:1049F0001360012003F018F861E7002DD3D0554B68
:104A00004022C3F8082580214FF48072C3F80815AE
:104A1000C3F80825D3F80028002122F08002C3F84B
:104A20000028C3F82C1933787BB1464B4E4A4C48CA
:104A30000825C3F808530125C3F800120560C3F820
:104A40004416116013680093009B484B1D680621B3
:104A5000284601F01DFB00283FF431AF284606210F
:104A600002F0DEFF2BE7002D9DD03A4B4021802243
:104A7000C3F80815C3F808254FF400714FF480728D
:104A8000C3F80815C3F80825D3F80028002522F03C
:104A90008002C3F80028C3F82C593378002BD4D0F7
:104AA00003F0C8F93249334B264ADFF8D8C0A84290
:104AB00018BF0B462A49C2F808330123C2F8005236
:104AC000CCF800300B60C0E72B4B1B78C3F380039E
:104AD000002B00F0D980002D3FF465AF1D4B274D12
:104AE00027494022C3F8082580204FF48072C3F87C
:104AF0000805C3F80825D3F8002822F08002C3F87F
:104B0000002800200122C3F82C092A60D1F80032C5
:104B100023F4A063C1F80032337853B1A1F5FF410B
:104B2000084B70394FF45055C3F80853C3F80002CE
:104B30000A60062002F06EFFC1E600BF951B002050
:104B4000961B002000100040481100404411004016
:104B50003C71014000F0014004F0014004100040AD
:104B600010100040281000405C1100409C1B0020E9
:104B7000020004080A000400941B0020109000406A
:104B80000090004030100040002D3FF40CAF584B17
:104B9000584859494022C3F8082580254FF48072AF
:104BA000C3F80855C3F80825D3F800284FF00008CB
:104BB00022F080020125C3F80028C3F82C89056083
:104BC000D1F8003223F4A063C1F80032337863B126
:104BD00003F030F9494A4A494A4B404508BF0A2385
:104BE000C2F80833C2F800820D60474A434B15688B
:104BF000002285F88020D3F8480500F07F0003F0FC
:104C000081FC2B782B44804613F8010C03F09EFCAA
:104C100002B29200FF2A28BFFF22C8F1000152B25F
:104C2000284649B202F0F2FE49E63378002B3FF401
:104C300046AE324B1022C3F8082340E62C4B4022EC
:104C4000C3F8082580214FF48072C3F80815C3F813
:104C50000825D3F80028002122F08002C3F800289C
:104C6000C3F82C1933785BB1244B2848244A4FF4FD
:104C7000C025C3F80853C3F8001201230360136072
:104C8000012002F0D5FE1AE6194A1A4D1A484021B1
:104C9000C2F808158021C2F808154FF48071C2F8D7
:104CA0000815D2F8001821F08001C2F8001801217F
:104CB000C2F82C392960D0F8002222F4A062C0F892
:104CC00000223278002A3FF4FAADA0F5FF400B4AEB
:104CD00070384FF45055C2F80853C2F800320160E2
:104CE000EDE50B4B0B4A0C4840F21E5104F09CF8CA
:104CF00000F0014010900040009000400010004083
:104D00001010004002000008981B002030100040E6
:104D100048B2000050C10000FCC100002DE9F04184
:104D200082B0054601F0F8F9044618B9204602B0F1
:104D3000BDE8F0819C4E3378002B4FD101212846ED
:104D400001F08EF90446002842D0984F3B78092B99
:104D500000F2F981DFE813F00A009B01EF004A013D
:104D6000BE00BE00880060005B004D00042003F020
:104D70008BFB09233B70337803F0FF0143B38C4A6C
:104D80008C4B8D488D4E00251560156801958C4D16
:104D9000019FC3F84825C3F84C05C3F84065C3F824
:104DA000445580264025C3F80465C3F80455D0F85F
:104DB000503513F0FF0F0BD100BF00BF00BF00BF85
:104DC00000BF00BF13681BB97E4B01220C461A605E
:104DD00001F03CFA204602B0BDE8F08103F0A2FAEF
:104DE0003B28ABD801F032FA0024204602B0BDE8DF
:104DF000F081704B40218022C3F80815C3F80825C4
:104E00003378002BB5D06F4B01221A60B1E7002D2B
:104E100040F046812C46DBE7002DFBD0654B40225D
:104E2000C3F8082580214FF48072C3F80815C3F831
:104E30000825D3F80028002122F08002C3F80028BA
:104E4000C3F82C1933785BB15B4B5F485D4A4FF474
:104E50000045C3F80853C3F8001201230360136030
:104E6000012002F0E1FD84E7002DD3D0514B402218
:104E7000C3F8082580214FF48072C3F80815C3F8E1
:104E80000825D3F80028002122F08002C3F800286A
:104E9000C3F82C1933787BB1474B4C4A4948082555
:104EA000C3F808530125C3F800120560C3F844167F
:104EB000116013680093009B454B1D68062128462E
:104EC00001F0E6F800283FF454AF2846062102F02E
:104ED000A7FD4EE7002D9DD0364B40218022C3F820
:104EE0000815C3F808254FF400714FF48072C3F819
:104EF0000815C3F80825D3F80028002522F0800201
:104F0000C3F80028C3F82C593378002BD4D002F012
:104F100091FF3049304B284ADFF8CCC0A84218BF77
:104F20000B462849C2F808330123C2F80052CCF8D6
:104F300000300B60C0E7294B1B78C3F38003002BC4
:104F400000F0D480002D3FF465AF1A4B244D254965
:104F50004022C3F8082580204FF48072C3F808056A
:104F6000C3F80825D3F8002822F08002C3F80028EF
:104F700000200122C3F82C092A60D1F8003223F462
:104F8000A063C1F80032337853B1A1F5FF410A4B59
:104F900070394FF45055C3F80853C3F800020A6043
:104FA000062002F037FDE4E6951B0020961B00204A
:104FB0003C71014000F00140001000401011004021
:104FC0003C70014010100040281000405C1100406F
:104FD0009C1B0020020004080A000400941B00200F
:104FE000109000400090004030100040002D3FF431
:104FF00011AF584B584859494022C3F8082580251D
:105000004FF48072C3F80855C3F80825D3F8002878
:105010004FF0000822F080020125C3F80028C3F8F1
:105020002C890560D1F8003223F4A063C1F8003266
:10503000337863B102F0FEFE494A4A494A4B404583
:1050400008BF0A23C2F80833C2F800820D60474A3D
:10505000434B1568002285F88020D3F8480500F0FE
:105060007F0003F04FFA2B782B44804613F8010C95
:1050700003F06CFA02B29200FF2A28BFFF22C8F1A7
:10508000000152B2284649B202F0C0FC71E6337802
:10509000002B3FF46EAE324B1022C3F8082368E6B3
:1050A0002C4B4022C3F8082580214FF48072C3F8AE
:1050B0000815C3F80825D3F80028002122F0800243
:1050C000C3F80028C3F82C1933785BB1244B284867
:1050D000244A4FF4C025C3F80853C3F80012012333
:1050E00003601360012002F0A3FC42E6194A1A4D46
:1050F0001A484021C2F808158021C2F808154FF45B
:105100008071C2F80815D2F8001821F08001C2F8A9
:1051100000180121C2F82C392960D0F8002222F4AD
:10512000A062C0F800223278002A3FF422AEA0F537
:10513000FF400B4A70384FF45055C2F80853C2F87C
:105140000032016015E60B4B0B4A0C4840F21E5131
:1051500003F06AFE00F00140109000400090004013
:10516000001000401010004002000008981B0020B2
:105170003010004048B2000050C10000FCC10000E7
:1051800038B5044600F0C8FF20B9012384F8803008
:10519000012038BD274D2B784BBB2B78012284F89A
:1051A000802063B1244B1B78DBB2022B0BD0062B83
:1051B00005D12249D1F85035DBB2022B1ED001F0C7
:1051C00045F8012038BD1D49D1F85035DBB2022B1E
:1051D000F5D1D1F80032522B1ED1194D194B1A4876
:1051E0002C60C1F80445C1F800021A60E7E703F03B
:1051F00099F83B28D1D801F029F8C6E7D1F8003258
:10520000122B10D10E4D0F4B10482C60C1F80445E5
:10521000C1F800021A60D2E70D4B0E4A0E4840F664
:10522000683103F001FE0D4B0A4A0B4840F6773116
:1052300003F0FAFD951B0020961B00200010004093
:10524000981B0020081000405200080012000800BF
:105250004CC20000B8C10000FCC1000070C20000D8
:1052600070B500F059FF044608B9204670BD654E80
:105270003378002B40F09880634D2B78023B072B4E
:1052800039D8DFE803F04D3C3C3C3C383C7D5F4B7B
:105290001B78C3F3800373BB5D4A5E4D5E484021BB
:1052A000C2F808158021C2F808154FF48071C2F8C1
:1052B0000815D2F8001821F08001C2F80018012169
:1052C000C2F82C392960D0F8002222F4A062C0F87C
:1052D0000022327852B1A0F5FF40504A70384FF4A6
:1052E0005055C2F80853C2F800320160337813B148
:1052F0000120FEF71FF800F0A9FF204670BD3378AB
:10530000002BF8D002F0EAFBA0F10B03DBB20F2B6D
:105310006ED80A38414B00EB8000C3F80805EAE775
:10532000337863B102F0DAFBA0F10B03DBB20F2B91
:105330005ED80A38394B00EB8000C3F8080501211C
:10534000002000F08DFE0028D5D02B78092B51D8F5
:1053500001A252F823F000BFE9530000BD53000042
:105360008F520000F7520000F7520000F752000081
:10537000F7520000F7520000F7520000CD53000032
:105380003378002BB7D002F0A9FBA0F10B03DBB2FE
:105390000F2B2DD80A382149214B00EB8000012228
:1053A000C1F808051A60A6E702F0BCFF3B283FF6EB
:1053B00063AF002400F04AFF204670BD3378002B15
:1053C00094D0164B1022C3F808238FE7104B4021CE
:1053D0008022C3F80815C3F808253378002B85D040
:1053E0000F4B01221A6081E7042003F04DF87DE79E
:1053F000FDF760FE0B4B0C4A0C4840F21E5103F0C7
:1054000013FD00BF951B0020961B0020941B00205D
:1054100000F001401090004000900040001000405B
:105420001010004048B2000050C10000FCC1000054
:105430002DE9F04F95B000F0D3FEA64BD3F808331A
:10544000980704D5A44B1A68002A40F08382A14C27
:10545000D4F80833590536D5A04B1A68002A32D043
:1054600000221A601A689E4B0992099A1B78022B37
:1054700040F09385D4F86065C6F3C706022E8DF818
:105480004C6040F29F85974B1B68E3B9964D2B7893
:10549000DA0740F161849F0715D4DFF86C82D8F8F1
:1054A00000201378527896064FEA431340F1A58402
:1054B00003F5387002F088FE002800F0F0842B78A5
:1054C00043F002032B70834CD4F8083398043DD585
:1054D000844B1A68002A39D000221A601968804B60
:1054E000089108991B78022B40F08A857F49804BF0
:1054F0007D4E7A4840250127C1F808551F6080235A
:10550000C1F80435337803F0FC0362F3820333708F
:1055100002600368774E0B9318230B98C4F860352C
:10552000326033680C930C9B7348C1F8045503F048
:10553000F3F8D4F8503513F0FF0F00F0C88200F0F4
:1055400047FF022002F066FA00F086FF614ED6F8AF
:105550000833D90440F18780674B1A68002A00F0AD
:10556000828000221A601B685D4C0793079B23789A
:10557000022B40F020855C4DDFF88C812B78D8F829
:105580000070DA0740F190833B465B789E0600F19D
:105590001F83564A4F4C564B504840215226C2F862
:1055A0000815C4F8006201261E608023C2F8043585
:1055B0002B7803F0FC036FF382032B70002303604E
:1055C00000684C4D11901820DDF844C0C4F8600507
:1055D0002B602B681293129B4748C2F8041503F006
:1055E0009BF8D4F8503513F0FF0F00F050827B7811
:1055F00003F00703022B00F05782D8F80030002296
:1056000083F8802003F01CF8C8F8000070B190F80F
:1056100080305BB12F4B394AC3F80405C3F8002230
:10562000D3F85035DBB2022B00F0588300F0D0FEE7
:10563000284BD3F8480500F07F0002F063FF3B7869
:105640003B44044613F8010C02F080FF02B29200C2
:10565000FF2A28BFFF22614252B249B2384602F007
:10566000D5F900F0F9FE02F0E5FBC8B1194BD3F80B
:1056700008331D0114D5224B1A688AB100221A6022
:105680001A68174B0692069A1B78DBB2032B00F0C0
:105690002283C0F0C384052B00F2C084FDF71EFFF7
:1056A0000C4BD3F808331C073FD5164B1A68002A59
:1056B0003BD000221A601B68094C0593059B237898
:1056C000033B032B00F2A384DFE813F01A0212025B
:1056D0001202220200100040041100402811004074
:1056E000961B002034110040941B002000F0014064
:1056F000109000403C710140301100405200080001
:105700006C1100400C110040981B002000F060FE5E
:10571000AD4B1C680221204600F0BAFC18B12046AF
:10572000022102F07DF900F097FEA84BD3F8082380
:10573000D0061AD5A64A1168B9B1002111601268C5
:10574000A44C0492049A2278012A40F04B84A24D82
:105750002A7812B11022C3F808230026304626709A
:1057600002F092FE2E7002F0CFFF984BD3F8082380
:1057700091033BD5994A1168002937D00020106069
:105780001268944C0392039A2278082A40F03184DC
:10579000934A914D4021C2F808158021C2F808159E
:1057A0004FF48071C2F80815D2F8001821F080017A
:1057B000C2F80018C2F82C092A7852B189498A4ADD
:1057C0004FF4C026C3F80863C3F8000201230B603E
:1057D0001360022323702B78002B40F0858100F0AA
:1057E000F7FD012002F022F900F036FE774ED6F8E0
:1057F00008335A0343D57D4B1A68002A3FD000274F
:105800001F601B68734C0293029B2378DBB2042B4E
:10581000C0F0CA83052B40F2F780082B40F0C48308
:105820006F4B6D4D4022C3F808258022C3F8082530
:105830004FF48072C3F80825D3F8002822F08002C4
:10584000C3F80028C3F82C792B7853B14FF4C02348
:105850006449654AC6F808330123C6F800720B6034
:105860001360022323702B7813B10120FDF762FD32
:1058700000F0AEFD002002F0D9F800F0EDFD534E2F
:10588000D6F808331B0460D5594B1A68002A5CD03F
:1058900000251D601B684F4C0193019B2378072B4B
:1058A00040F07483534FD6F868363A78DFF8549155
:1058B000DBB29342D9F8008038BF13463B70B8F191
:1058C000000F65D102F00AF9A0F10B03DBB20F2B38
:1058D00000F27F83424B404D0A38402200EB8000AB
:1058E000C6F80805C3F808258022C3F808254FF438
:1058F0008072C3F80825D3F8002822F08002C3F88C
:105900000028C3F82C892B7853B14FF400433A494F
:10591000354AC6F808330123C6F800820B601360CD
:10592000022323702B78002B40F0D181387802F0CD
:1059300031FE00B2840000F04BFDFF2C28BFFF2495
:10594000E0B202F06FF800F087FD00F07FFC15B0C8
:10595000BDE8F08F00221A601A681E4B0A920A9A5C
:105960001B78DBB2032B2CD0C0F03583052B00F263
:105970003283154B1C68204600F0A0FB10B1204676
:10598000FDF7B8F91D4A137843F0080313705EE57C
:1059900002F0C8FCC009022840F29181821E4FEA41
:1059A000D8139A429CBFA8EBC215C31E144A0748DD
:1059B000C9F80050C3F314030121C0F86436116024
:1059C000C3E7FDF779F942E59C1B00200010004079
:1059D00010110040961B0020951B00204411004030
:1059E00000F001403010004010100040481100400D
:1059F0003C1100408E1B002028100040941B00200A
:105A000024100040901B0020B64BB74D4022C3F835
:105A100008258022C3F808254FF40072C3F8082532
:105A20004FF48072C3F80825D3F8002822F08002D2
:105A3000C3F80028C3F82C792B788BB102F0FAF95F
:105A4000AA4BDFF8E0C2AA49AA4A00280CBF1846B0
:105A500060460123C6F80803C6F800720B601360A5
:105A6000022323702B7813B10120FDF763FC00F0B3
:105A7000AFFCA14B1C680121204600F009FB002867
:105A80003FF4FBAE2046012101F0CAFFF5E600BF5E
:105A900000BF00BF00BF00BF00BF2B68002B7FF41A
:105AA000A6AD944B1E60A2E501F0E8FF00287FF44C
:105AB000A4AD924B924AC3F80022D3F85035DBB222
:105AC000022B7FF4D0AD8F4B01221A60CBE500BFD3
:105AD00000BF00BF00BF00BF00BF3368002B7FF4D2
