:020000040000FA
:10000000504C01204D4F00006B2C0100394F000077
:10001000394F0000394F0000394F0000394F0000C0
:100020000000000000000000000000000D51000072
:10003000394F000000000000CD500000394F000093
:100040009552000095520000955200009552000014
:100050009552000095520000955200009552000004
:1000600095520000955200009552000095520000F4
:1000700095520000955200009552000095520000E4
:1000800095520000955200009552000095520000D4
:1000900095520000955200009552000095520000C4
:1000A00095520000955200009552000095520000B4
:1000B00095520000955200009552000095520000A4
:1000C0009552000095520000955200009552000094
:1000D0009552000095520000955200009552000084
:1000E0009552000095520000955200009552000074
:1000F0009552000095520000955200009552000064
:100100009552000095520000955200009552000053
:100110009552000095520000955200009552000043
:100120009552000095520000955200009552000033
:100130009552000095520000955200009552000023
:100140009552000095520000955200009552000013
:1001500095520000FFFFFFFF7BB972B90029BEBFB7
:1001600000204FF0004106E008BF00281CBF6FF0E0
:1001700000414FF0FF3000F057B8ADF1080C6DE9C9
:1001800004CE002909DB002B1ADB00F04FF8DDF864
:1001900004E0DDE9022304B07047404261EB410115
:1001A000002B1BDB00F042F8DDF804E0DDE9022360
:1001B00004B0404261EB4101524263EB430370479C
:1001C000524263EB430300F031F8DDF804E0DDE96F
:1001D000022304B0404261EB41017047524263EB9D
:1001E000430300F023F8DDF804E0DDE9022304B066
:1001F000524263EB4303704753B94AB9002908BF21
:1002000000281CBF4FF0FF314FF0FF3000F00CB85A
:10021000ADF1080C6DE904CE00F008F8DDF804E05B
:10022000DDE9022304B07047704700BF2DE9F047B5
:1002300086468C460846089E154674461946002B8D
:1002400040F0C1808542B2FA82F245D94AB1C2F18A
:10025000200300FA02FC954094402EFA03F343EA8F
:100260000C0C4FEA154EA8B2230CBCFBFEF80EFB9B
:1002700018CC08FB00F943EA0C43994528D9EB1840
:1002800008F1FF3704D2994502D9A8F102072B449F
:10029000A3EB0903A4B2B3FBFEFC0EFB1C330CFB67
:1002A00000F044EA0344A04214D92C190CF1FF33A6
:1002B00004D2A04202D9ACF102032C44241A43EA2E
:1002C00007401EB1D440002334607360BDE8F0875E
:1002D0004746DDE76346F1E792BB431B01214FEA46
:1002E000154EAFB2200CB3FBFEFC0EFB1C330CFB17
:1002F00007F840EA0343984561D9EB180CF1FF3049
:1003000004D2984502D9ACF102002B44A3EB0803B8
:10031000A4B2B3FBFEFC0EFB1C330CFB07F744EA54
:100320000344A7424DD92C190CF1FF3304D2A74244
:1003300002D9ACF102032C44E41B43EA0040C0E7BD
:10034000C2F120039540944020FA03F12EFA03F302
:100350004FEA154E9040AFB20343B1FBFEFC0EFBDB
:100360001C10190C0CFB07F841EA0041884522D902
:1003700069180CF1FF3004D2884502D9ACF10200B3
:100380002944A1EB08019BB2B1FBFEFC0EFB1C1142
:100390000CFB07F743EA01439F420ED9EB180CF11F
:1003A000FF3104D29F4202D9ACF102012B44DB1B86
:1003B00041EA004193E76046E3E76146F7E76046BC
:1003C000A4E76346B8E7834206D916B90021084678
:1003D0007CE7C6E900E0F9E7B3FA83F78FB9834217
:1003E00001D3724508D8BEEB020460EB0303012081
:1003F0009C461EB9002169E73846FAE7C6E9004C79
:10040000F8E7C7F1200CBB400EFA07F522FA0CF40E
:100410002EFA0CF1BA401C4320FA0CF3B8404FEA14
:10042000144901431FFA84FEB3FBF9F809FB1830A5
:100430000B0C08FB0EFA43EA00439A4540D9E31837
:1004400008F1FF3004D29A4502D9A8F102002344F2
:10045000A3EB0A0389B2B3FBF9F809FB183308FBD5
:100460000EFE41EA03418E452CD9611808F1FF3395
:1004700004D28E4502D9A8F10203214443EA004088
:10048000A1EB0E01A0FB02984145CE46434602D3A4
:1004900006D14D4504D20138B9EB020E68EB0403D6
:1004A000002EA7D0B5EB0E0261EB030101FA0CFCA4
:1004B00022FA07F3F9404CEA0303C6E9003199E751
:1004C0004046C5E74346D9E710F8012B11F8013B38
:1004D000012A28BF9A42F7D0D01A7047034611F874
:1004E000012B03F8012B002AF9D17047034613F8BA
:1004F000012B002AFBD1181A0138704700000000B8
:100500002DE9F04706460F4690468AB015F0FAF8F6
:100510004FF47A73A0FB034503FB0155E40B012F55
:1005200044EA45444FEAD53508D108213046CDE9A3
:100530000045294A11F035FF002013E0D8F8047077
:1005400026483946FFF7C0FF78B139462448FFF7FF
:10055000BBFF50B130463B460121224A11F021FF3A
:100560006FF004000AB0BDE8F087204618A3D3E975
:1005700000232946FFF7F0FD05460C4610461946B4
:10058000194A0023FFF7E8FD80460F46104619463A
:100590004EF660220023FFF7DFFD824689461046B3
:1005A00019464FF47A720023FFF7D6FDCDE904A96E
:1005B000CDE90601CDE9082308213046CDE90287BF
:1005C000CDE90054094A11F0ECFEB5E7AFF3008025
:1005D000005C260500000000DF700100F0700100E3
:1005E000F3700100FC70010080EE36001371010011
:1005F0002DE9F04314461A7C0D467D2A80461F469D
:100600000669D96885B000F2DA80931C86F8783FD5
:1006100006F6797015F0EDFB06F5766948460BF0A5
:10062000B1FA012D07D9022D4DD06FF08504204677
:1006300005B0BDE8F0830023ADF80D3094F84A30E2
:1006400005F00105C3F34002C3F380038DF80930C0
:1006500001238DF80B30604B02A993F8243006F685
:1006600078708DF808208DF80A508DF80C3009F05C
:100670007BF9002845D0584BDB691BB13A46002175
:10068000404698474FF0FF324FF0FF3306F5805752
:1006900048460BF051FA97F8222094F84A3062F35A
:1006A000410384F84A3097F82320DBB262F38203D7
:1006B00084F84A3096F8F83F052B22D8DFE803F09B
:1006C000241E7C82217C0023ADF80C3094F84A3043
:1006D00002A9C3F34002C3F380038DF8093001235C
:1006E0008DF80A303C4B06F6787093F824308DF87C
:1006F00008208DF80B3009F0E9F8BAE76FF00F0425
:1007000095E76FF0040492E77C68002C8FD006F523
:100710008058D8E90232134308F1100846D000226D
:10072000002324783068CDE90023002321461A46AF
:1007300005F090FA054600283BD079682246013141
:1007400012F062FE00282EDB3B7C4FF47A7485F8B1
:10075000483097F91130AE339BB2FE2B28BFFE23F1
:1007600085F8493058F8080C58F804CCA0FB04016F
:1007700017A3D3E9002304FB0C11FFF7EDFCC5E937
:100780000801AA62284612F098FD2946306810F048
:10079000FAFB0024284612F05EFD786809F034F96F
:1007A00000237B6043E76FF00B04F3E76FF0220454
:1007B000F3E76FF00B04F0E76FF0220437E76FF018
:1007C000790434E76FF0680431E700BFAFF30080CD
:1007D00000CA9A3B00000000301D0020000000000D
:1007E0002DE9F34706464FF0FF384FF0FF3900F58B
:1007F0007A7A4FF0FF324FF0FF3350460BF044F956
:10080000436804461F78002339461A46CDE900891B
:10081000306805F01FFA61683A460131054612F06A
:10082000F3FD074670BB237C4FF47A7185F848309E
:1008300094F91130AE339BB2FE2B28BFFE2385F80E
:100840004930A27C95F84A3062F3000385F84A30BB
:10085000A068D4F80CE0A0FB010C0FA3D3E900239F
:1008600001FB0EC1FFF778FCC5E90801AA62294621
:10087000306800F07BF8002804DB6068676009F0EE
:10088000C3F8B6E700236068636009F0BDF8284646
:1008900012F0E1FCADE700BF00CA9A3B0000000087
:1008A00000214FF4005008B5044BC3E90001044B8C
:1008B00004481B68DB699847002008BD40060020FB
:1008C00084210020E45F010000214FF4004008B5BE
:1008D000044BC3E90001044B04481B681B6A98479A
:1008E000002008BD4006002084210020E45F0100B4
:1008F00010B5084B0020197881F00101197007F03C
:100900006DFFBDE81040044B0448D3E900230BF011
:1009100089BB00BFA5210120400600200000002067
:10092000012910B50B46044604D002290BD008213A
:100930000A4A05E008F060FF082103462046084AFD
:1009400011F02FFD08E0506815F0C3F8054B81B297
:100950001B680548DB689847002010BDE06F010068
:100960006875010084210020E45F01002DE9F04F4B
:100970000D4685B0002949D08868002849D0C36851
:10098000002B46D0038A002B43D012F015FB002623
:10099000D0F80C90AC68002C34D11F492B6A6A6ADD
:1009A000A3FB013B01FB02BB4FF47A71AA6A95F8E5
:1009B0004880B2FBF1F213EB020A184B95F949702B
:1009C00019784FF0030081F001014BF1000B197011
:1009D00007F004FFFF233146114A484610F09FFDFF
:1009E000CDE902ABCDE900780E4808210C4B0E4A48
:1009F000006811F0D6FC284612F02DFC204605B008
:100A0000BDE8F08F238A64681E44C4E76FF01500C8
:100A1000F5E76FF03C00F2E740420F00A42101200F
:100A2000A621012080210020027001007FB507F07F
:100A3000BFFE02F063FA0F4B4FF400421860002330
:100A40000D490E48C1E900230BF0ECFA18220021F1
:100A5000684615F0F5F9012309488DF80030094A78
:100A60008368032113606A469B6A9847002007B099
:100A70005DF804FB802100204006002000000020DB
:100A8000E45F01008421002008B500F0B7F80122DE
:100A900000230949C0E9002241610849C0E9023345
:100AA0000A60074903610A60064A1360064A136038
:100AB000064A136008BD00BF41720100FC0000201F
:100AC000F8000020902100208C21002088210020A7
:100AD0002DE9F04107460E46154600F08FF8C36831
:100AE00004461BB943691A78002A41D10023E36008
:100AF0006368BB4256F8232008DB324B6361204613
:100B000000F062F84FF0FF30BDE8F081511C6161E8
:100B100092F80080B8F12D0FEFD1911C61615178EE
:100B20002D29A16004D192786AB901336360E4E7AA
:100B300049B9244B41462846636114F0DEFF002882
:100B4000DDD0C4F80880D4F808802846414614F067
:100B5000D4FFB8F13A0F636900D070B91B7813B9AC
:100B6000636801336360204600F02EF83F20CBE736
:100B70005A1C42611B788360E5E742783A2A0BD021
:100B8000002222611B7813B9636801336360204639
:100B900000F01AF8A068B7E718786268094928B920
:100BA00001329742626004DD56F82230C4E9043114
:100BB000EAE761612D7820463A2DD5D100F004F89E
:100BC0002846A1E7417201000268074B1A6042689B
:100BD000064B1A608268064B1A60C268054B1A60A1
:100BE0000269054B1A607047FC000020F8000020E5
:100BF000902100208C21002088210020004870478F
:100C0000E0000020014B1B68184700BF00010020D6
:100C100030B585B004460D4610220021684615F017
:100C20000FF902238DF80230044B2A46214668460C
:100C300001930FF055F805B030BD00BF050C000062
:100C4000014B1860704700BF0001002080B50546C9
:100C50000E46174698460BF0A3FD034615F000F923
:100C60000446DFF81890424649F8003039463046CD
:100C7000A84754F8090004F0D7F900BF08000000A5
:100C80002DE9F047058B04462807904611D4022928
:100C900005F0070540F0CC80204610F085FC78B1C7
:100CA0000138218B042811D8DFE800F0C2106D85CF
:100CB000950001290CBF45F0100545F0200525835E
:100CC00088F31188BFF36F8FBDE8F08701F0070A42
:100CD000AA4500F0A5800027B9463E46A368002B30
:100CE00000F0BC8041F00801218388F31188BFF334
:100CF0006F8FA168002900F0BA800D68002900F00C
:100D0000B680334652462046D1F80480C047002DB5
:100D100076D02B6829461D46F0E701F007035A1FDD
:100D2000012A1BD8002221F00701062B276889B26F
:100D3000C4E9002209D13B4603E0628B01326283A1
:100D40001B68002BF9D141F002012046218310F0ED
:100D50002BFC00287AD041F0200176E0042B0AD148
:100D600021F0070189B22046218310F01DFC10B14B
:100D700041F020012183218B01F0070AAA454FD0C1
:100D80000027B946AAE7236921F0070141F00601CF
:100D9000062DD3F8009021832DD1B9F1000F3FD05B
:100DA00041F00801218388F31188BFF36F8F20463B
:100DB0003949C84729E021F00701236941F00401BE
:100DC00089B2042DD3F804902183E6D000274FF098
:100DD000040A3E4682E721F00701236941F005013C
:100DE00089B2052DD3F808902183D6D000274FF083
:100DF000050A3E4672E700274FF0060A3E466DE7B9
:100E00002B4687E7B9F1000FD1D1EFF311882023EA
:100E100083F31288BFF36F8F238B23F008032383A0
:100E2000258BEA062ED525F01003238305F0070550
:100E30006669218B002EBFF670AF00232768C4E9D6
:100E4000003321F0070141F001012183218B4FF094
:100E5000000901F0070AAA457FF440AF002F9CD09B
:100E600041F00801218388F31188BFF36F8F002FB1
:100E7000C8D03D68394633465246204610F0C0FB84
:100E80002F46F4E7AB067FF51BAF25F02003238345
:100E900005F0070500E700BF2D160100034A13689F
:100EA0000BB9526813600020704700BF0401002096
:100EB00030B50C460E4985B00291D0F8AC1105460C
:100EC000CDE9003100F1E0014FF0FF3320460AF098
:100ED0006FF950B9012384F86430D5F8A83123B1F3
:100EE000204605B0BDE83040184705B030BD00BF12
:100EF0009F1A010038B50C461146054610F0D1FD89
:100F0000034638B92846044910F0CBFD03460020BB
:100F1000236038BD0120FBE7417201002DE9F04F4D
:100F200001238146056946688FB005F56777D7E8E4
:100F3000EF2F002A03D1C7E8E13F0029F7D10CBF0A
:100F40001A46002240F0BF80B368B16A05F5E47824
:100F50001C1F104610F029FE84427DD8013A00F093
:100F6000AC80B2FA82F24FF00044D440726820465E
:100F7000073222F00302C5F86022B16A10F015FEB4
:100F8000C5F86402B36A40466343033323F00303A6
:100F900002EB4302230103EB4403093323F0030371
:100FA00003EBC403C5F858221A440832C5F854228A
:100FB0007368C5F85C42C5F85032444BC5E9A96373
:100FC000D9F80030C5F8FC31316800F0EBF904467F
:100FD00000283FD1D9F810B0D9F804A0D9F80030D2
:100FE0000BF53079059004934846DAE90734012B74
:100FF00008BF103C14F001FADAF82400344904ABBD
:10100000009301EB8021234648464FF480620AF0AA
:1010100037FF2021DAF824302E4A06A80EF0C6FC4D
:1010200006A948460BF004F82B490BF52C7014F078
:101030009DF9DAE9050183685C684CB15B46274A93
:10104000A047044630B9DAE9050183681B692BB96A
:101050006FF05704002129E001327AE70122984716
:1010600004460028F6D11E4B2846C5F8A8311D4B72
:10107000C5F8AC311C4B0393D5F810320293D5F868
:101080000832CDE90083D5F86832B26AD5F89813F2
:1010900000F050F904460028DCD105F1E0000AF028
:1010A00037F90028C5F8A0030ADB0221384610F002
:1010B0002CFD20460FB0BDE8F08F6FF00B04C9E7A0
:1010C0006FF01504C6E76FF07704F2E7F51A010038
:1010D000102301207A700100DB1A0100CF1A0100F1
:1010E000ED100000811C01003B1B010013B50446FC
:1010F00040B100230122CDE90032074BD0E90912AB
:101100000AF00AF8A36E1B6823B1E06E02B0BDE8D6
:101110001040184702B010BD4172010013B50446DB
:101120000846216901F56771D1E8AF1F022910D186
:1011300093B1A0B10121CDE900311346D0E90912E4
:1011400009F0EAFF074B984208BF6FF00B0002B0AE
:1011500010BD6FF00F00FAE76FF04C00F7E76FF08B
:101160000100F4E72EF8FFFF2DE9F7438846154606
:10117000066906F56773D3E8AF3F022B5FD11368AA
:1011800023B96FF0150003B0BDE8F0831B78002B86
:10119000F7D0D6F89893B9F1000F33D106F5D87788
:1011A0004FF0FF324FF0FF3338460AF0B9FB3046BC
:1011B0002A6801A9FFF79EFE019C1CB9384610F071
:1011C000A2FCDEE705F10803A3666B6984F864906E
:1011D000E366E46360B1384610F095FC2146304682
:1011E000236E2A68FFF764FE0020C8F80040CAE7B3
:1011F0002022296804F1400014F09EFC384610F0CB
:1012000082FCF1E730460F4910F04BFC0446002801
:10121000B7D005F1080383666B69C063C36600231A
:1012200080F8643020222968403014F085FC224682
:101230000121304600F060F80028D5D0A1E76FF01A
:101240000F00A0E74172010010B50C46006900F5DF
:101250006773D3E8AF3F022B0FD189B10A4900F57C
:101260002C7014F0AFF8204613F063FC70220021BC
:10127000204614F0E5FD002010BD6FF00F00FBE7E5
:101280006FF00100F8E700BF942100202DE9F04F36
:1012900005460E4690460027D0F8B0A085B0AAF5C6
:1012A000AE7421463046FFF70FF9E0B9114BA4F1B7
:1012B000400B0293DAF810303246CDE9008329461C
:1012C0004FF0FF335846AAF5CE7909F071FF60B9A7
:1012D0007023012203FB079383F86420DAF80C30B3
:1012E0000BB158469847703417B105B0BDE8F08F80
:1012F0000127D6E7AF1C01001FB5144690B18AB193
:10130000012912D10A4B00F1E0010293D0F8AC316F
:10131000403201934FF0FF332046009309F048FF1D
:1013200004B010BD6FF01500FAE70020F8E700BF29
:10133000AF1C01002DE9F04387B00E46DDE90E81B8
:101340001446DDE910251F4630B329B3DFF850C03D
:1013500000F1E009002D08BF65469EB9CDE90344C0
:1013600000F5CE742046059613F008FE03ABCDE9D8
:1013700000432A463B464146484609F0EFFF07B086
:10138000BDE8F083002241460E9248462A4607B047
:10139000BDE8F0430AF00EB96FF01500EFE700BFAB
:1013A0008D120000F0B50E46044689B0002872D0B8
:1013B000436B0BB9394B436301232246E36300239C
:1013C000D4F8981004F1400042F8301FCDE9013301
:1013D0004FF0FF330093D4F89C3013F08FF8304A6D
:1013E00006AB92E8030083E80300184609F09AFD73
:1013F0000546D8B904F1340009F076FD0546A8B9D0
:10140000616B284805AA13F055F8054670B9059B8D
:101410009A6872B10C33D4F89400C4F8A03010F07C
:1014200077FCC4F8D40030B96FF00B05284609B03A
:10143000F0BD0346EFE7D4F8940010F069FCC4F85F
:10144000D8000028F0D0D4F88C30D4F8A010C4F81C
:10145000A8300423C4F8AC30C4F8C4300223A3621B
:10146000114BB4F89420D4F8D470C4F8B810C4F870
:10147000D010D4F89010236204F1A403A4F8B02093
:10148000C4F8A470C4F8C010A4F8C820C4F8BC0004
:10149000A661E362CAE76FF01505C7E78B7001002C
:1014A000D06201009570010030660100014B0360BD
:1014B000002070475C660100F0B40C4B0C4E5F6A74
:1014C0000C4BB34203D36FF08500F0BC70475D68EE
:1014D000BD4209D31C693CB195F802C00579AC4501
:1014E00002D12346F0BC18472433EAE7BC21002090
:1014F0003C060020180600202DE9F04705460E4660
:101500001746124CDFF84880DFF84890444503D373
:101510006FF08500BDE8F0876268D9F824309A4200
:1015200012D3A36983B190782979884205D13A46CC
:1015300031462846BDE8F04718475279012A03D1C1
:101540003A463146284698472434DFE718060020FB
:101550003C060020BC2100202DE9F04105460E4646
:1015600017460A4CDFF82880444502D36FF0850007
:1015700009E063690BB92434F6E73A463146284658
:1015800098470028F7D1BDE8F08100BF1806002079
:101590003C06002010B5044611F07DFF10F1780FD5
:1015A00000D050B9204610F0F1FB044AD2F8C43004
:1015B00023EA00030020C2F8C43010BDBC21002083
:1015C0000022024B1A605A60704700BF7722002049
:1015D00070B50B4B0B4CA34201D3002070BD002211
:1015E000196A1E7F0439D5B2AE4201D82433F2E71E
:1015F000013211F832508542F5D10120EEE700BFEB
:10160000180600203C06002008B509480378C3F3FB
:1016100041130A3350F823303BB100F1080200F1C6
:1016200010019847C043C00F08BD1846FCE700BF33
:10163000BC21002004282DE9F14F04460F46DFF8B5
:10164000949016D001282DD1DFF88C8098F8B9300D
:1016500043B300F003FE214D4D4520D24FF0000A68
:10166000D5F820B02B7F5FFA8AF6B34204D8243530
:10167000F2E7FFF7A5FFE7E70BEBC606307911F0BD
:101680000AFF0246307910F081FBD8F8C430002AF6
:1016900023EA0003C8F8C4300AF1010AE2DA0023A1
:1016A00088F8B9300D4D4D4508D30B4B1B6A6BB113
:1016B0003946204601B0BDE8F04F1847EB681BB132
:1016C0003A462146284698472435ECE701B0BDE864
:1016D000F08F00BF3C060020BC210020180600202F
:1016E00073B5C4B263060D468DF8074007D0204697
:1016F000FFF76EFF78B10D4B93F8BA0058B1204652
:101700000A4E55B104F08EFEF3691BB108200DF1AD
:1017100007019847012002B070BD04F0ABFEF369E9
:10172000002BF7D009200DF10701F2E7BC210020C2
:1017300073B586781E4C8DF800600379427943EAD0
:101740000223ADF80230C378304603F003038DF86E
:10175000043010F01BFBD4F8C430054618420BD0FF
:10176000304600F05DFD3046FFF714FF13F057FEE2
:1017700010B996200AF0F6FF684604F02FFE10F12B
:10178000780F03D010B1002002B070BD9DF80000AA
:1017900004F0ACFE10F1780F01D00028F3D1012045
:1017A000D4F8C43084F8B9002B43C4F8C430EBE754
:1017B000BC2100202DE9F047A34E0446B3690F4633
:1017C0001546FBB9237803F01F03012B00F09D8021
:1017D000022B00F0048133BB94F900002A68002832
:1017E000617834DA062912D008292BD0D9B901231F
:1017F0005170137096F8C3305B0043F0010313700F
:1018000002232AE198470028DCD100200DE06288FD
:10181000100A011F0129844605D9072803D8716AD7
:10182000D2B20C781CB96FF01500BDE8F0874E7885
:10183000664503D19A4200F00B8101332144F0E761
:101840000B780AE196F8BA301370012305E10139EB
:101850000829E8D801A353F821F000BFF5180000CB
:101860002718000003190000271800008118000045
:101870002718000027180000271800008D18000006
:10188000A07804F099FD0028BFD0CCE76388756A82
:1018900063BBFFF795FE638886F8BA30F369002BC7
:1018A000B3D0032069499847AFE76B78042B10D079
:1018B000052B11D0022B04D16F796388BB4208BF7E
:1018C00001202B781D442B78002BEED10028AAD0C4
:1018D000DFE795F80380F4E76388BB42F1D1B8F104
:1018E000000FEED12846FFF723FFEAE7FF2700208D
:1018F000B846E8E76388012B95D1002386F8C3300A
:1019000083E76388012B8ED1F8E796F8BA30D5F8D3
:1019100000C0002B87D0756AA3882A4694F804E09B
:10192000107800283FF47FAF5178022904D192F853
:101930000480F04500F293800244F1E78CF8002027
:101940008CF80120396060E7154494E00B2A7FF49D
:101950006AAF00274FF0FF08BA46C14606E06B7831
:10196000042B0FD0052B21D02B781D442B78002B76
:10197000F5D1F36913B1514607209847002F7FF442
:1019800044AF50E795F80280A38895F803909845F6
:10199000EAD163889945E7D1B8F1070F1CD806EB67
:1019A0000803AA46012783F8BB90DDE7A3884345D7
:1019B000DAD1A3784B450AD0AF78384600F030FC36
:1019C0003846FFF7E7FDB0FA80F77F09CCE72846F5
:1019D000FFF7AEFE0746C7E7AA460027C4E794F91B
:1019E00000206378002A18DA002B7FF41CAF2479DA
:1019F0002D6863060AD02046FFF7EAFD00283FF471
:101A000012AF96F8BA30002B3FF40DAF29462046AE
:101A100004F050FD00236B70F2E6012B08D0032B7D
:101A20007FF401AF6388002B7FF4FDAE012103E05A
:101A3000618800297FF4F7AEA088FFF751FE0028E7
:101A40007FF4E3AEEFE600BFBC2100207622002049
:101A5000022829607FF4F4AE4B883B60D5E694F908
:101A6000000062780028BFF671AF002A3FF466AF2D
:101A70000A2A7FF4D8AE2A78002A3FF4D4AE6978D7
:101A800004297FF461AFA9788B427FF45DAF072B07
:101A90008EBF00239B1993F8BB308CF80030D4E63E
:101AA00013B5164C237DF3B9E26801AB8020A16821
:101AB000019210F07AF9019AA3681344A360E368D5
:101AC0009B1AE3606BB962B12369E2889A4208DD30
:101AD00094F8C82093FBF2F102FB11330BB90123F8
:101AE000237502B010BD002380201A4619462375C5
:101AF00002B0BDE8104004F023BD00BFBC210020AF
:101B0000002330B585B002460D460193002858D118
:101B1000002935D108220B460DEB020111F0D4FC4F
:101B2000002804DA802004F07DFC05B030BD2A4C8A
:101B3000029AC4E903552260039ABDF80E30626030
:101B400004F13802A2609DF908202575002A0ADBFD
:101B5000802B04D9802004F065FC0020E3E713B15A
:101B6000C4E90333E1E7FFF74FFD0028DAD0E2884C
:101B700023699A42D4BFE260E360FFF791FFD4E7A4
:101B8000154C01ABD4E90215002D04DC11F09CFCCE
:101B90000028CADAC6E72A4611F096FC0028D9DBED
:101BA000019AA3681344A360E3689B1AE360002BC7
:101BB000BBD104F13803A360FFF726FD0028DCD178
:101BC000B0E78028B1D1044BDA68002AD5D11B7D5B
:101BD000002BD2D1A9E700BFBC210020054B064A4B
:101BE00058629A62054A0020DA62054A1A63054A79
:101BF0009A617047BC210020B5170000B91400009D
:101C000059150000F91400002DE9F3410446474D31
:101C10004FF0FF334FF0FF32454809F081FE95F851
:101C2000B830002B7BD16B6A83B142482C62E861EB
:101C30006E6A04F09FFD04F08DFB041E10DA3C4830
:101C400009F0E6FE204602B0BDE8F08100F0BEF8E3
:101C5000FFF7C4FF6B6A002BE7D14FF0FF34EEE7CC
:101C600000F01EFB041EEADB7378012B5AD1F379D6
:101C7000002B57D00026684685F8C830ADF80230F2
:101C80008DF804608DF8006004F0A8FB041ED6DB1C
:101C9000802768468DF8007004F0A0FB041ECEDBA0
:101CA0003046254904F052FD041EC8DB384622495F
:101CB00004F04CFD041EC2DB204CDFF88480444558
:101CC0001AD3002004F012FC041EB8DBD5F8C4308F
:101CD000802043F00103C5F8C43004F007FC041E63
:101CE000ADDBD5F8C430002443F48033C5F8C430EC
:101CF000012385F8B830A2E70026276A227FF3B2D5
:101D00009A4201D82434DAE707EBC30257F83310BC
:101D1000107904F01BFD01360028EFD09DE76FF02D
:101D200077048CE76FF0150489E700BFBC21002021
:101D30005404002035160000011B00001806002086
:101D40003C06002030B51F4B8BB005AA03F11005EF
:101D5000144618685968083303C4AB422246F7D1C9
:101D60001B7810222370002101A814F069F81222B8
:101D70000021154814F064F8102101A811F0D8FCD6
:101D800000281BDD0828B8BF082001AB09381A1845
:101D900000200D4912F8013F0AAC04EB131403F0C4
:101DA0000F0328336B4414F8144C13F8143C01301F
:101DB00008280C704B7001F10201EBD102480BB006
:101DC00030BD00BF9D700100A62201202DE9F04F1B
:101DD000734B87B093F800B0BBF1000F03D071488C
:101DE00007B0BDE8F08F6F4C00264FF0011AB046E7
:101DF0003546B14623783BB96B4B02349C42F3D154
:101E00000123674A1370EAE76378052B1BD8DFE8E4
:101E100003F08C03C48C1D39402304A88DF810B046
:101E2000ADF812308DF814B011F020FB40B108234A
:101E300004A8ADF8123011F019FB08B1ADF812B0DA
:101E4000BDF81230E37123781C44D3E7E378002B0C
:101E5000F9D1A3786BB108F101085FFA88F8F2E7CD
:101E60006B689C4207D02435504B9D42F8D300202C
:101E7000B6E74F4DF8E7AB68002BECD04146204663
:101E80009847E8E7002DF2D000222B7F9A42EED24D
:101E9000296AA07801EBC2010B79984201D0013286
:101EA000F3E70127E078FBB200F003008DF814009F
:101EB000207994F805C040EA0C20ADF8120094F99E
:101EC0000200002826DA4FF0010C07F110000CFA8E
:101ED00000F010EA0A0F24D143F080008DF81000C2
:101EE00004A8CDE90213019211F0C0FADDE9012145
:101EF000039BB0B99DF8102012F0800FA2700A71F8
:101F00004FF001021DBF1033DBB29A40BA404AEADB
:101F1000020A98E70120B84010EA0A0F01D11846DA
:101F2000DCE70137102FBDD1B9E7032E1DD1FFF734
:101F300009FF074668B1FEF7D9FA102809D13846DB
:101F4000A31C07F1100250F8041B904243F8041B35
:101F5000F9D16FF002012378091BE21804EB530357
:101F6000D14213D50136F6B26DE7002EF1D1B9F1A9
:101F7000000F3FF47CAFA4EB090389F80230C3F3F0
:101F8000072389F8033089F80480EBE702F801BCE5
:101F900013F8010902F8020DE2E7A14653E700BF7A
:101FA000A522012038050020150600203C0600204F
:101FB00018060020094B00211A4610B51C788442EF
:101FC00005D15C681CB1482303FB012010BD013121
:101FD000042903F14803F1D10020F7E7882200200B
:101FE0002DE9F34150F8303C0446103310F8346CBE
:101FF0000AD1036950F8282C980736D5D2B9590769
:1020000015D5002344F8303C54F8303C10330BD045
:1020100054E9097554F81C8C13F001FA00284FD0CC
:1020200021462E4813F0BEF902B0BDE8F08143F01E
:1020300004032361304654F82C1C01AB0FF0B5FEAD
:1020400010B16FF01503DDE7019A54F82C3C1344EE
:1020500044F82C3C54F8283C9B1A44F8283C54F88B
:10206000243C134444F8243CCEE7304654F82C1C5E
:1020700001AB04F0E1FA0028E3D1019D54F82C3CB7
:102080002B4444F82C3C54F8283C5B1B44F8283C77
:1020900054F8243C2B4444F8243C002DB1D0304665
:1020A00004F06EFBB5FBF0F303FB1055002DA8D137
:1020B00054F8283C002BA4D0304604F005FBA3E7DD
:1020C00044F8200CA4F1180009F010FD002DABD04D
:1020D000424639463046A847A6E700BFF00900202F
:1020E0004B1E012B73B506460D460FD8FFF762FF56
:1020F000044668B9012D09D101AB012230460DF12A
:10210000030104F099FA019B002BF5D102B070BDD8
:1021100013F085F904F1340108B1012D05D1084609
:1021200002B0BDE87040FFF75BBF034802B0BDE8F6
:10213000704013F037B900BFF00900202DE9F74FC8
:1021400080461746994600910FF078FE0446002815
:102150005CD1EFF3118B202383F31288BFF36F8FD1
:102160002C49002208460023019109F0E5FC019961
:1021700068B948226243DFF8A0A00AEB02056E6846
:1021800016F1100F12D1084609F0B0FC06E0013438
:10219000042C01F14801E4D16FF00B068BF3118898
:1021A000BFF36F8F304603B0BDE8F08F0AF80280AE
:1021B0000C9A009B6A610D9A2861AA616FF00F0268
:1021C0004046C5E90237C5F844906A6004F0D8FA81
:1021D00058B1404604F0D4FAB7FBF0F202FB107796
:1021E0001FB16A6C42F004026A6419F0020F08D051
:1021F000482202FB04A10948343113F0D3F8002629
:10220000CCE7404604F060FA0646C7E76FF00F06D9
:10221000C8E700BFA422002088220020F009002087
:1022200010B5EFF31184202383F31288BFF36F8F6F
:10223000FFF7C0FE50B14368103307D16FF08B0336
:1022400000F134014360044813F0ACF884F31188C2
:10225000BFF36F8F10BD00BFF0090020F8B5042553
:1022600020270D4CEFF3118687F31288BFF36F8F91
:102270006368103307D16FF08B030848636004F183
:10228000340113F08FF886F31188BFF36F8F013D8F
:1022900004F14804E6D1F8BD88220020F0090020AE
:1022A00070B50025094C0A4E3146204613F05EF801
:1022B0000122A4F118001146013513F007F8042D8E
:1022C00004F14804F0D1002070BD00BFBC22002002
:1022D000E11F000070B504460E4601791548154609
:1022E0000FF089FD10B394F900206378002A16DB03
:1022F000202B04D0222B0ED06FF085000AE02B6833
:102300001A6840F8102C9A8820F80C2C9B7900F859
:102310000A3C002070BD638800F8093CF9E7212BD6
:10232000EAD10723103828603360F2E76FF012001B
:10233000F0E700BFA8230020014608B503480FF0CE
:1023400067FD10B1012300F8073C08BDA823002059
:102350000123016981F84B300B6833B191F84930A2
:102360001BB10248083113F01DB87047F009002076
:102370000123016981F84A300B6833B191F8483084
:102380001BB10248083113F00DB87047F009002066
:10239000012370B582F8483013680D4614463BB1EE
:1023A00092F84A3023B10E4802F1080112F0FAFF08
:1023B000D4F890309A681B699A4205D17DB904F12E
:1023C000180140F6CD4204E004F11801002DF8D0C8
:1023D0000022BDE870400023014809F0CBBD70BD6C
:1023E000F009002038B5056995F89E0088B195F888
:1023F0009F307BB985F84830D5F890000FF02BFA64
:10240000044600220023044805F1180109F0B2FD3A
:10241000204638BD0020FCE7F009002000210346DB
:102420000C4AA0F84810106883F89C10C3F8940078
:1024300090889279A3F8980083F89A2083F89B10EB
:102440004022A3F89E1083F8A01003F14C0013F073
:10245000F7BC00BFEC620100F0B5D0F88C30044648
:102460005B6885B01B6A1F7D38460FF0E7FC0646A7
:10247000F8B994F88630E3B14FF48062A06F03A9F5
:102480000FF008FA0546A0B18306A4F1180384F8FA
:1024900030600193084B08BF00F1FF3503990093AA
:1024A0002A4602233846FFF749FE2946A06F0FF05F
:1024B0000DFA05B0F0BD00BF91230000002310B558
:1024C0000469C4F8A8300C4BC4F8A400596804F19E
:1024D000A80269B9C3E9002204F10800074912F013
:1024E00045FF04F11800064912F08DFF002010BDD1
:1024F0000A605A60F0E700BFA8230020671E0100B1
:102500005924000030B54FF400334268056942F2A7
:10251000A10085B0CDE90103002385F89D30106A44
:10252000ADF80C100A22007901A90FF03EFC054C11
:1025300095F89D3023B9012012F035FD013CF7D10B
:1025400005B030BDA1860100002313B504698DF8E4
:10255000071084F848300122D4F890000DF10701EB
:102560000FF079F910B912F05AFF40B1212200237F
:1025700004F11801064809F0FDFC02B010BD94F802
:10258000A130002BF2D0002121200AF0CDF8E2E7A3
:10259000F009002037B514460A1E054620DDD4F8A0
:1025A0008C0004F14C010FF056F9012384F84930F6
:1025B00023683BB194F84B3023B1114804F1080172
:1025C00012F0F0FED4F88C104B684A699A1ACB6965
:1025D0009B1A3F2B04D8012384F8A03003B030BDF0
:1025E00094F89E30002BF9D0064B402200932846E9
:1025F0000123019404F14C01FFF7A0FDEEE700BFB9
:10260000F009002095250000F7B50D4601461D484C
:102610000FF0E6FB044610B3064656F8A439691ECF
:102620005F6805291BD8DFE801F01C1A031C22266D
:1026300010F8061C99B9012300F8063C3B6A3246A3
:10264000187BFFF7A7FF14F85C2C42B93B6A1146D0
:10265000187D0D4B019600930223FFF76FFD03B029
:10266000F0BD304603B0BDE8F040FFF7D7BE012310
:1026700004F8053CF3E710F8053C002BEFD00023ED
:10268000F6E700BFA82300209123000037B50024FF
:10269000084D4FF0FF334FF48062284606490094FE
:1026A00009F0EEFB0549284609F0C2FC204603B0BC
:1026B00030BD00BFF009002010270120BC700100D0
:1026C00008B50821024B034A0FF06BFE002008BD3D
:1026D000C5700100CC70010010B5044606F03EF84C
:1026E00008210346074A20460FF05BFE2046064AB3
:1026F00008210FF056FE214604480AF00DF900208B
:1027000010BD00BF61710100807101001127000040
:1027100070B58EB004460D46D0F89C6012F085FE70
:10272000024613F09DFB254B1958254B2846002ADD
:1027300018BF1346234ACDE90043234B8C4218BFF0
:1027400013460821214A0FF02CFED4E90A23CDE9D3
:10275000022394F90E3028460093237B08211C4A5B
:102760000FF01FFE06A92022204609F071FC626EC0
:102770000346009208212846164A0FF012FE204612
:1027800005A912F062FE034630B108212846124A1C
:102790000FF007FE0EB070BD6423059A2846B11AEB
:1027A0004B43B3FBF6F3CDE90021CDE902630821E9
:1027B00033460A4A0FF0F5FDECE700BF08000000C1
:1027C0008C710100A18301008A7101008F710100E9
:1027D0009B710100C7710100DE7101000B720100E5
:1027E000F0B50025044693B029460AAF1C220BA879
:1027F00013F026FB134E1A222021384613F020FB3B
:10280000214611480AF088F809AA4FF400613046C1
:1028100012F00FFE64224FF400630999CDE90057CE
:10282000C1F500604243D20ACDE90403CDE902318B
:102830002046069233460821044A0FF0B2FD28468E
:1028400013B0F0BD103B0120C1280000427201000E
:1028500010B5044611F00BFA08210346024A20463F
:102860000FF09FFD002010BD8B7201001346002267
:1028700073B5044601920A21586801AA01F000FCD0
:10288000019D95B920EAE0744FF40046294640F2D4
:10289000E7304FF47A720023C4FB0601FDF7ACFC6D
:1028A00009F042FF284602B070BD2B4601212046A8
:1028B000024A0FF076FD019DF4E700BFA17201000E
:1028C000F0B504460D46D0F89C6089B007A912F017
:1028D000BCFD034630B1082128460F4A0FF061FDC8
:1028E00009B0F0BD204612F0A0FD6423079A0B4FFB
:1028F000B11A4B43002818BF0746B3FBF6F3CDE9E6
:102900000221CDE90463082123462846CDE900765B
:10291000034A0FF046FDE3E7DE7101008C71010010
:10292000C17201002DE9F04387B00546684608F002
:1029300057FE1423009E082103FB0066164A284612
:102940000FF02FFD154F009CDFF85480DFF85490F6
:10295000B44203D3002007B0BDE8F08323680BB175
:102960001A7832B923463A46142101A80DF01EF810
:1029700001AB4246082128460FF013FD204612F015
:1029800017FB094B0821002808BF4B46074A284679
:102990000FF007FD1434DBE7DD730100E77301007E
:1029A000EC730100D4730100CE730100237A01009F
:1029B0008B1E022B2DE9F04107468846144637D876
:1029C0001022002160680DF08DF8B8F1020F064664
:1029D00007D1202308213846244A0FF0E2FC33684F
:1029E00016E00A220021A0680DF07CF8C5B22B4643
:1029F000082138461D4A0FF0D4FCB8F1040F1AD054
:102A0000102D0DD0202DEAD0082D0CD13378DBB25B
:102A100008213846164A0FF0C4FC0020BDE8F081BA
:102A200033889BB2F4E708213846124A0FF0B9FC0C
:102A30006FF01500F2E710220021E0680DF052F867
:102A40000821034604460C4A38460FF0AAFC102D14
:102A500006D0202D07D0082DE5D1E4B23470DCE794
:102A6000A4B23480D9E73460D7E700BF25740100F1
:102A7000507401003A740100617401002DE9F04FB7
:102A800091464FF0FF350122574B85B007468846E7
:102A90001A602026FDF7F8FF2C46DFF850A14946C2
:102AA00052464046FEF714F8411C07D16A1C52D129
:102AB0004F4A012138460FF074FC1DE0732820D0E6
:102AC000772833D0612817D1DFF828B110220021F0
:102AD000DBF800000DF006F805460028DFD113F002
:102AE000BFF9454B1B58162BD9D1DBF80030434AB0
:102AF000012138460FF055FC6FF0150005B0BDE818
:102B0000F08F0022DFF8ECB01146DBF800000CF08B
:102B1000E9FF04460028C2D113F0A2F9364B1B5836
:102B2000162BBCD1DBF80030354AE1E70022DFF894
:102B3000C4B01146DBF800000CF0D4FF06460028B4
:102B4000ADD113F08DF92C4B1B58162BA7D1DBF808
:102B500000302C4ACCE7631C01D12B4AA9E75FFA6D
:102B600086F8C6F3C406002C3CD06B4629461A46AC
:102B7000A6EB050C0CE0B8F1100F1DD0B8F1200F3A
:102B800020D0B8F1080F2AD10878187031443344A6
:102B9000A64203D80CEB01001028ECD9102CA1465A
:102BA00028BF4FF0100929464B46384600F0DEFF9B
:102BB0001035A4EB0904D6E7088880B21870000A23
:102BC0005870E3E708684FEA102E187083F801E0A8
:102BD0004FEA104E000E83F802E0D870D6E70821C5
:102BE0000A4A67E7204689E7F8000020AF74010031
:102BF000B6740100882100200C00000075740100EB
:102C0000887401009B740100D37401003A740100C0
:102C100070B5104E04460D46337881B12BB10121B9
:102C2000BDE870400C4A0FF0BCBB01233370082193
:102C300020460A4A0FF0B5FB0123337004E083F00D
:102C400001033370002BF2D129462046BDE87040C5
:102C50000FF0EABBB8220120ED74010028750100D5
:102C600070B504463C480378182B02D10B78112B21
:102C700031D00B46013A8D18AB4225D18B5C0A78D6
:102C80000370A2F13003092B344C04D922F0200345
:102C9000413B052B04D823683149CA5401332360D2
:102CA0002368022B34D1102200212D480CF01AFF8A
:102CB0002C4A136803F8010B13602B4A1368013385
:102CC00013600023236023E013F8016B182ED3D187
:102CD0001E78112ED0D1244D08212B682046234A7E
:102CE0000FF05FFB20460021FFF792FF204B187882
:102CF00070B9204A2B681168042B0ADC08B11160F6
:102D00002B6013F003010BD1126813681BBA136018
:102D100070BD0868043B00BA41F8040B0120EBE7E2
:102D20005B4203F0030358BF5942022904D11268E1
:102D300013885BBA9BB2EAE70329E9D110680268FD
:102D40001104C2F3074301F47F010B4302F47F42F5
:102D500013430360DCE700BFB9220120B023002049
:102D6000BB220120BC230020B423002052750100A7
:102D7000BA220120B82300202DE9F84F002306468F
:102D800015460C462949DFF8A8800B602949DFF871
:102D9000A890DFF8A8B088F800300B60012C2F460F
:102DA00055F804AF1ED902224946504612F0B2FE31
:102DB00080B99AF80220003A18BF01229244504686
:102DC00002221F4912F0A6FE30B9012388F8003014
:102DD000013CE3E70022F1E749465046FDF774FB6A
:102DE000A8B904370022786811460CF00BFE0022C7
:102DF000144B1146186078680CF004FE124B13490E
:102E000018603046FFF704FF0020BDE8F88F9AF8FD
:102E100000202D2AE6D19AF80120002AE2D053465C
:102E20005A46082130460FF0BCFAD1E7B023002003
:102E3000BA220120B42300206C75010072750100D4
:102E40006F750100BC230020B8230020612C000016
:102E500013B5094812F0ACF858B10024074A012311
:102E6000126805490648009400F0F4FE204602B0BE
:102E700010BD6FF01200FAE7805F0100E06701000B
:102E80005062010038B54468A3604023C4E90012D1
:102E900044680822E36404F1580323630023C4E96F
:102EA0000E33C4E91133C4E90633C4E90933E262DD
:102EB000256804F150026363236422616361236225
:102EC000C4F8D030AB682BB11B6C1BB1224628462E
:102ED00008499847AB681B6A0BB1284698470022FF
:102EE000054904F1980012F054FCC4F8CC400020CD
:102EF00038BD00BF1B210100FB20010000487047C6
:102F00005062010010B504468168183101F05EFB83
:102F1000A1682046BDE81040014A183101F0FCBA12
:102F2000DE76010038B583680446D3F87832DB07D3
:102F30001AD4406803685B689847054620B9E06882
:102F40000FF0C9FDA3681D75A3685B6C13B129461A
:102F500020469847002212F083FFA368C3F820237D
:102F6000034B185802F060F86FF00F05ECE700BF54
:102F70000800000001490FF092B900BF4072010043
:102F8000F7B5044680680D46D0F878325A0705D563
:102F900000210FF0A6F9E0680FF06FFDE368DB6831
:102FA00073B9002D3BD0A66806F1560738460FF0DE
:102FB00070F9002835D0394606F5AB70FDF78EFA6A
:102FC000A2682946E0680DF1060356320FF058FD5D
:102FD00058B9A06800F5AB715630FDF77FFAA068CC
:102FE00056300FF056F9ADF8060020460FF094FB6E
:102FF000A368D3F874329B0603D50B4960690FF0C0
:103000004EF9204601F0E2F8A268BDF806302046ED
:10301000A2F85230A268A2F850300FF020FB03B0A3
:10302000F0BD86F85601CBE7F36201002DE9F04FC1
:10303000A7B004465422002111A812F001FF00237A
:10304000CDE90533A3682046563302930FF06BFB9E
:1030500020460FF0EDFA10B96069FFF78BFF0026EC
:103060004FF0FF37B246B3463546B146A06814224A
:103070000021183012F0E4FE204600F0C3FFA168E2
:10308000E068B1F8502056310FF031FD20460FF0C6
:10309000B0FD0DF144080396DDE90532012A6DD03B
:1030A000132B6ED85FBBBBF1000F0AD020460FF088
:1030B000C1FD1423A26811A956320DEB030000F0E4
:1030C00055FEB9F1000F0CD099F81130FE2B08D144
:1030D000059B26AA02EB830252F8542C0AB1013355
:1030E0000593A068059D436A002B40F0B680CEB1E1
:1030F000C3699E422DD00D9600F1180524E00223ED
:103100004146029A06A800F031FED8F8042006993C
:103110000346029231B101290AD148B16D4A2046D5
:103120000FF08FFB6FF00705284627B0BDE8F08F42
:10313000059B002B34D0D8F8000001F067FA98B155
:1031400066B1A5680D9618350CAE0FCE0FC5336865
:103150002B602046FFF7D6FE0125E5E75E4A0121F8
:1031600020460FF06EFBDDE7059BCBB129462046DC
:10317000D8F8002001F0FAFB022809D1059B132B97
:1031800091D9069B022B8ED10121544B544AC6E79C
:10319000032805D0059B4FF0010B013305937BE716
:1031A000039B33B94846D8F8001007AA0FF0C9F9B5
:1031B000054608F10408013F9DB3EB68BBF1000F21
:1031C00008D0F3B120460FF0AEFA20460FF047FAD0
:1031D000444AC4E7ABB1AE46A368DDF814A003F1DE
:1031E000180CBEE80F00ACE80F00DEF80030CCF899
:1031F0000030AB682BB96B7CFE2B04BF2F7C07F132
:10320000FF37D5F804C0BCF1000F08D0AE460CAEB5
:10321000BEE80F000FC6DEF8003033606646A946F0
:1032200003E0059B53B101230393069B17B9022BBF
:103230007FF432AF059B013305932DE7A368DB6A6A
:1032400013B1DB68002BEED1274B01210093204600
:10325000119B264A0FF0F5FAE5E790F82830A5EB28
:103260000A05BBB14FF6FF7290F82910FF2918BF6D
:103270000A469D4202D313449D420BD98369012122
:1032800020461B4A0FF0DDFA2046FFF73BFE6FF0A9
:10329000150549E701210FF019F8A06800F5437002
:1032A0000FF038F8A36811AA294602EB8A022046DB
:1032B0005B6A98470546A0684FF0FF324FF0FF3336
:1032C00000F543700EF0CDFF0021A0680EF0FEFF68
:1032D0002AE700BFEC76010000770100617701006A
:1032E0000F7101001E7701004D7701003B7A01004C
:1032F00085770100022210B5836804461A75836839
:103300009B6CBBB90EF08CFF8368D3F87832DB047A
:103310000BD50321084B094A0FF093FAA0686FF40C
:10332000805100F51E700EF091FF2046BDE8104060
:1033300001F062B810BD00BFA0770100EE7301007C
:103340002DE9F04F044680680121B1B000F51E70F0
:103350000EF071FFA3681B7D022B20D1002309937F
:10336000A36860689E6C03681D6909AB0EB31022E8
:103370001BA9A847099B93B10121A0680EF0A6FFE5
:103380002046099A1BA9B0470021A0680EF09EFFB5
:10339000A3689B6C002BE3D12046FFF7ABFF6FF0D7
:1033A0000101A06800F51E7031B0BDE8F04F0EF0CD
:1033B0004DBF01220DF12301A847099B002BEED040
:1033C0009DF923109DF823300029A268C8DB517DA8
:1033D000032900F20E83DFE811F004008D02A5023C
:1033E0000C030D2B56D00A2B32D0B2F87812092BD1
:1033F0006FF3CA01A2F87812A06860D013D8002B2E
:10340000AED0082B00F0DC818C495A1CD2B28A5C09
:10341000A06812F0970F00F0DF8101210EF061FF2C
:103420009DF8231000E11B2B46D07F2BECD1D0F868
:1034300074329D0794D501210EF053FFA368D3F891
:103440007432190700F1C48120460FF044FA87E76F
:10345000D2F87812C1F3C70129B1D2F87812C1F3BA
:10346000C7010A29D0D1B2F8781263F3CA01A2F8D1
:103470007812A568B5F85010C1B928460EF031FF92
:10348000E0680FF0FAFA6069FFF774FD2046FFF775
:1034900031FF65E7D2F87812C1F3C7010029E2D005
:1034A000D2F87812C1F3C7010D29DBE72046FFF7F8
:1034B000BDFDC5F82403E9E70123437550E7D0F8C3
:1034C00074329A077FF54CAF01210EF00AFFA06815
:1034D000B0F85030FF2B3FF443AF0025B0F8522036
:1034E00000F1560100F5AB7012F083FCA3681BA934
:1034F000B3F852200BA8134483F85651A268142342
:1035000002F5AB7200F032FC0B9914293FF628AF9C
:1035100030AB03EB810343F8545CA368DFF820A1D0
:10352000B3F85220134493F855301AF8033019B108
:103530001B0753D4012950D100250A950A9B30AAB4
:1035400002EB830353F854BC002658460EF0A1FE4C
:1035500037468146B04604964146284616AA00F0F2
:10356000E1FC0346002845D1012ED4F8088069D13A
:103570000A9B30AA02EB830353F8540C0EF089FE29
:103580003946064608F11802284600F0CBFC0568CB
:1035900028460EF07EFE864205D0821B92B220465F
:1035A000A9190FF096F9A068B0F85230034493F8C7
:1035B00056301AF8031011F0080139D1D0F87432DE
:1035C000DF0730D50EF097FE2021204600F0DCFE0C
:1035D0000121A0680EF08FFEC2E6013900200CAB7D
:1035E000009301900AAB1BAA0EF0D6FF05460028F7
:1035F000A4D1B5E61B684A4659461846039312F013
:1036000089FA68B9039B1846FCF770FF049B834254
:1036100038BF03469BB2002E08BF474604930136CD
:1036200008F1010898E72021204600F0ADFE97E65A
:10363000012120460FF047F892E600BF41840100C7
:103640004284010005907FF68BAE0A9A30AB03EB03
:10365000820252F8543CB946184603930EF019FE04
:10366000059B0690A8F840300596A2684946284672
:10367000183200F057FC039BD0F800B009F10109A3
:103680004BB1BBF1000F06D019465846069A12F00E
:1036900041FA0028E9D1D4F808A0BBF1000F4DD1C0
:1036A000AAF840B0059B013B0593DED16069FFF7A6
:1036B00061FC204600F0A0FE0A9B30AA02EB8303C7
:1036C00053F8540C0EF0E5FD394611AA8046284601
:1036D00000F028FC07F101090746A0683968FF22BD
:1036E00000F5AB7012F028FA3B684FF6FF77BA4648
:1036F00003934946284616AA09F1010B00F012FC73
:10370000002851D00022A168036801F2551111F878
:1037100001EF985C704503D110B101325245F6D1EA
:10372000B8F1000F01D0424506DBBA42A8BF3A46C5
:10373000013E012E97B237D0D946DAE7AE480EF0F7
:10374000A8FD049B00EB0308BAF83A301FFA88F88A
:103750001B1A93FBF8F358469BB207930EF099FDA2
:10376000BAF84010079BA8EB0008B1FBF3F2481C25
:1037700003FB121189B21FFA88F8AAF8400061B958
:10378000062120469C4B9D4ACDF800B00FF059F819
:103790004146204600F0C6FC84E75B4606212046F1
:1037A000974A0FF04EF8F3E7002F3FF4D9AD039995
:1037B000A7EB0802204692B241440FF08AF8CFE509
:1037C000D0F874329E077FF5CBAD01210EF089FD54
:1037D00020460FF09FF8C3E5D0F8742292077FF5DA
:1037E000BFAD013B162B3FF6BBAD01A252F823F053
:1037F000C53900004D38000055380000493400003C
:10380000B9390000733800006133000061330000F3
:1038100061330000613300007B3800008338000012
:1038200061330000AD38000061330000B73800009C
:103830006133000061330000613300006133000038
:10384000BB38000061330000E538000020460EF070
:1038500073FF85E520460EF066FF20460EF0E8FE79
:1038600010B96069FFF786FB0121A0680EF039FDF1
:103870000CE620460EF069FF72E520460EF070FF60
:103880006EE5D0F874329F0603D55E4960690EF08C
:1038900006FDA368D3F874329E0603D55A496069C1
:1038A0000EF0FDFC204600F0A7FD59E50021204662
:1038B000FFF766FB54E50121F9E720460EF02CFFE7
:1038C00020460EF0ADFC0121A0680EF00AFDA368B1
:1038D000D3F874329D067FF543AD4C4960690EF014
:1038E000DEFC3DE5204600F0ADFC0121A0680EF0B5
:1038F000F8FC35E55B2B02D10223537530E5D2F895
:103900007422900706D5622B08D14FF0FF31204674
:1039100000F01EFC0022A3685A7521E5662BF9D140
:103920000121F4E700215175A268D2F874128907C9
:103930007FF516AD313B1B2B3FF612AD01A151F8BF
:1039400023F000BFC1390000CD390000E13900008B
:10395000B5390000613300006133000061330000BD
:103960006133000061330000613300006133000007
:1039700061330000613300006133000061330000F7
:1039800061330000B7380000AD3800007338000024
:103990004D38000061330000B93900006133000088
:1039A000C53900006133000061330000613300005D
:1039B000D13900000323537520460EF0B4FECFE446
:1039C0000323537520460EF0A7FEC9E40323537565
:1039D000A068D0F8741201F0010181F00101F9E54D
:1039E00003235375A368D3F874329B077FF5B8ACF3
:1039F0002AE5002381E700BFA0830100E4770100EE
:103A0000EE730100F8620100FD620100F362010043
:103A100010B504468068037D012B19D14FF0FF32A9
:103A20004FF0FF3300F543700EF01BFC20680EF0E2
:103A300030FC18B1084960690EF031FC2046FFF7F0
:103A400059FCA06800F543700EF064FC002010BD26
:103A50006FF08500FBE700BF3F720100F8B5044638
:103A60008068154600F51E70002935D04FF480415E
:103A70000EF0E1FBA3680021DD64606803689B68C9
:103A80009847002844D12046FFF7C2FF00283FD1C5
:103A9000204E214FA06800F52F704FF0FF324FF0FD
:103AA000FF33032109F060F90546A0684FF0FF32AB
:103AB0004FF0FF3300F543709DB10EF0D2FB20466E
:103AC0002B460121154A0EF0BCFEA068BDE8F84067
:103AD00000F543700EF01EBC6FF480410EF0B6FB93
:103AE000C8E70EF0BEFB3246022120460EF0BBFBBB
:103AF00020463A4629460EF0B6FB606803685B69CB
:103B000003B19847A06800F543700EF003FCC1E7CD
:103B1000F8BD00BF252F000041330000EA77010007
:103B200010B5044608210C4A0EF03BFC2046082143
:103B30000A4A0EF036FC20460821094A0EF031FCF4
:103B400020460821074A0EF02CFC20460021064A98
:103B500000F0E2FC002010BD017801003F78010078
:103B60009E780100F27801008C790100F8B51E46BC
:103B700017460B462F4A082104460EF012FC6EB37E
:103B8000082120463B782C4A0EF00BFC01256A07E1
:103B900004D108212046294A0EF003FCAE4223D965
:103BA000082120467B5D244A0EF0FBFB0135102DD9
:103BB000EDD108212046224A0EF0F3FBD6B90821A8
:103BC00020461E4A0EF0EDFB0125AE422B4613D8CF
:103BD00008212046194A0EF0E4FB19E0082120468E
:103BE000184A0EF0DEFB012508212046154A0EF08A
:103BF000D8FBDBE700252B46FB5C134A0821D25C8F
:103C0000204612F0970F08BF2E23104A0EF0C9FB72
:103C10000135102D07D06B07D7D108212046074A60
:103C20000EF0BFFBD1E72046BDE8F8400821084A66
:103C30000EF0B7BBA2790100A9790100A1830100B0
:103C4000AF7901009F83010042840100D179010016
:103C5000B17901002DE9F047044680688846D0F824
:103C6000201315461F4688B0002963D192464FF4B1
:103C70004A7212F0E5F8E0680EF0A1FFA06800F5C6
:103C8000437011F089FA4FF42F794FF41F76A06832
:103C9000304411F0ECFEA068002283190121484451
:103CA000103611F0BBFEB6F52F7F09F11409EED1E5
:103CB0000022A36902211A60A06825F0140500F50E
:103CC0001E700EF0B8FA5022A36820465A871822B8
:103CD000A36865F3070A1A8721680EF06FFBA368D3
:103CE0004146C3F874A26068144A03681D682346FD
:103CF000A8470546D0B90122A3681A75D4E909017D
:103D000000220023CDE906230E230393109B4FF4DA
:103D10000062CDE901730495094B009408F04AFA5A
:103D2000A368C3F82003216A08F082F9284608B086
:103D3000BDE8F0876FF07705F8E700BFB922010012
:103D40005D3A000010B5044613460A46014606488F
:103D500001F0BCFC23691B7923B12046BDE810406B
:103D60000EF068BB10BD00BF4D2401002DE9F04FDF
:103D70000026074614469946B34685B0DFF8A0A151
:103D8000019106602378002B00F0C6801AF80330FA
:103D900013F0080304D004F801BBF3E70026F1E7B1
:103DA0003A68511C3960019941F822403A684A4505
:103DB00000F0B2801E4621780029E3D0A6B90E4655
:103DC00023461C46272E04D05C2E20D0222E40F005
:103DD000978020460EF058FB611C0246204612F0E8
:103DE00015F821780029CDD0B142A04604F1010494
:103DF0001BD140460EF048FB21460246404612F0D9
:103E000005F898F800604446002ED9D1BAE720465C
:103E10000EF03AFB651C02462946204611F0F6FFDB
:103E200066782C46002ECDD1ACE75C2998F80110BD
:103E3000D8D1B1428C4608D140460EF025FB214630
:103E40000246404611F0E2FFB5E7302925D10025B2
:103E5000022218F802C0ACF13000C0B2072819D80D
:103E6000ED000132EDB2052A45EA0005F1D1511EFF
:103E700041444046039202910EF006FB039A0299D8
:103E8000023A821A404611F0C1FF98F8011088F8F2
:103E90000050A7E7D2B2022AE9D1BCF1780F2AD1AB
:103EA0000025022018F80020A2F1300C5FFA8CFCEB
:103EB000BCF1090F09D82D01EDB24CEA0505022825
:103EC00001D00422D3E70320ECE7A2F1610CBCF19E
:103ED000050F05D82D01EDB2573A1543EDB2EEE7C7
:103EE000A2F1410CBCF1050F03D82D01EDB2373A18
:103EF000F3E7022802D108F1010473E70322B6E7D1
:103F00001AF806301B073FF549AF6678631C002E90
:103F10007FF457AF1C4635E7304605B0BDE8F08F5B
:103F20004284010038B50B46154648B91449154A74
:103F3000521AB3EB920F05D251F82350284638BDE0
:103F400084680CB90025F9E70F4A94420AD30F4A56
:103F5000944207D218462946226890472B68002BC6
:103F6000ECD1EFE70A4A944202D30A4A944205D3BD
:103F7000246814225343E518E358F0E70133F8E7C7
:103F80007C620100B0620100C4620100C4620100F1
:103F9000B0620100C46201002DE9F84307460EF04B
:103FA00073FA054630BBBDE8F88354B18AB2AA1A49
:103FB00001302C1B013239443844A5B211F026FFE0
:103FC00044466B1E9E42EEDA30463B5C013619F8E1
:103FD0000330B6B21B07F4D531468BB29D42F0D9FF
:103FE0007B5C19F8038018F00808DED00134013139
:103FF000A4B2F2E70026DFF808903446E1E700BFFC
:1040000042840100F8B58468054694F856306BB9CF
:10401000AB68B3F85020A3F85220F8BD013A92B231
:10402000A4F850202AB984F85620F1E7134E04F181
:104030005600B4F85020831813F8013CF35C13F0D9
:104040000803EBD183549AB210F802C01F4616F849
:104050000CC010FA83F11CF0080F03F10103F2D138
:10406000BFB2002FD4D0B4F85060731C9A1AF61B5C
:1040700011F0CCFEA4F85060CAE700BF42840100F2
:104080000023F7B51646027804462D2A019305D180
:104090006FF015030020336003B0F0BD11F0E0FEB7
:1040A00005460B4F0A46C35101A920460BF01AFDE5
:1040B000EB59222B02D16FF02103EBE7002BE7D164
:1040C000019BA342E4D01B78002BE5D0E0E700BFC2
:1040D0000C0000008368D3F874329B0603D50249B4
:1040E00040690EF087BA70470363010001490EF082
:1040F00081BA00BF407201000A1E0DDC0ED04223BF
:104100008168D1F87412890608D5002A04494069EB
:10411000B8BF52420EF06EBA4123F1E7704700BFBC
:10412000CD7901000A1E0DDC0ED044238168D1F840
:104130007412890608D5002A04494069B8BF524262
:104140000EF058BA4323F1E7704700BFCD79010064
:104150002DE9F0410C1E064633DA4FF0FF3564427C
:1041600024B2DFF86480A4B2AFB214E0B3680020D8
:10417000B3F8522003F1560C1146B3F8503071B920
:10418000B5F1FF3F00D073B9891A304609B20EF07D
:104190009AFA013CA4B2002CE8D1BDE8F0818B4230
:1041A00001D1012DF0D01CF801E018F80EE01EF04E
:1041B000070F04D10028E7D1394489B2DFE7012095
:1041C000FAE70125CDE700BF428401002DE9F04761
:1041D0008568044605F15600FCF788F900239846E7
:1041E00095F83C70DFF8549086B2A268558FED1BAD
:1041F000B54209DB002E1FDD5633606910491A44B1
:10420000BDE8F0470EF0F6B91D442A4492F856A0D6
:1042100082F85680A26856331A44494660690EF007
:10422000E9F9A3682B4483F856A0A3685B8FDB1BD6
:10423000F61A00272B46D8E7BDE8F0870F7101007A
:10424000EE730100F8B583680446B3F85020002AE5
:1042500055D0B3F85210002951D0553103F156050D
:104260000B441846A84206D3014611F80169202ED6
:104270003CD0A8423CD286B29DB2AB1B9BB2591C2B
:10428000471CD21A0144384611F0C0FDA268711BC8
:10429000B2F85030204613FA81F3A2F85030A368E8
:1042A00009B2B3F850201344002283F856200EF0D0
:1042B0000AFAA368D3F874329A0603D510496069E4
:1042C0000EF098F93B46082120460E4A0EF0B9FA46
:1042D0002046FFF7FFFEA368D3F874329B060ED585
:1042E00060690949BDE8F8400EF084B90846B9E7AD
:1042F000014611F80169202EBDD00846B9E7F8BD86
:1043000008630100EE7301000C6301002DE9F04128
:1043100004460D4617460AB1FFF7DCFEA368B3F862
:104320005220D3F87412563213444A0721D5184646
:10433000FCF7DCF80646DFF84880A6B9A368B3F8B6
:104340005020A3F85220A0680EF061F920B107B107
:1043500015B16069FFF7CAFE69422046BDE8F04129
:1043600009B20EF0B0B9414660690EF043F9013E62
:10437000E3E708212046034A0EF063FADEE700BFB8
:104380008A710100EE73010013B583688DF8071080
:10439000D3F874220446D00725D5B3F85210B3F8E9
:1043A00050208A421FD0481C9DF80720A3F85200D5
:1043B0000B4483F85620A368D3F87412890710D5EC
:1043C000D3F87432606913F0040F18BF2A22094928
:1043D0000EF010F920460EF02BF910B16069FFF7CE
:1043E00085FE02B010BD012220460DF107010EF03E
:1043F00036FAF6E7D179010010B504468368022148
:10440000084A0EF01EFAA368D3F874329B0707D54A
:104410002046FFF7DBFE2046BDE810400EF02EB927
:1044200010BD00BFEE73010001490EF086BA00BF57
:10443000407201002DE9F047054690460E460029DE
:1044400065D00024DFF8CC90335D19F803301A07EB
:104450001ED43046FCF74AF8AB6880B25A8F001B76
:10446000A2EB0803984206EB040A13D95146002731
:1044700011F8010B19F800C01CF0080F02D00A282F
:104480002DD03B4608EB0700824227D90137EFE7E2
:104490000134D9E753460027B84214D013F8012B52
:1044A0000A2A19D168690DF0C5FF51463A462846D7
:1044B0000EF080F96869FFF7B7FF013441462846DE
:1044C0003C44FFF72FFE686931190EF036FA68692F
:1044D000BDE8F047FFF7A8BF0137DDE71F46686971
:1044E0000DF0A8FF3A46514628460EF063F93C44C9
:1044F000335D19F803301B0707D46869FFF794FF91
:1045000041462846FFF70EFEA3E70134F0E7BDE879
:10451000F08700BF428401002DE9F04F0E460021D4
:10452000044617460D4689B0304603AA01F101083A
:10453000FFF7F8FCB0B995B127B13A4608212046FB
:104540000EF07FF900211E4FDFF87890DFF878A099
:10455000304603AA01F10108FFF7E4FC60B909B095
:10456000BDE8F08F006810B1FBF7C0FF80B2854254
:1045700038BF05464146D7E703688BB11A787AB150
:10458000D0F804B04A46CDE9005308213B46204606
:104590000EF057F9BBF1000F04D16069FFF744FF3B
:1045A0004146D5E7524620463B4608210EF049F9E0
:1045B0006A1D5946204692B2FFF73CFFF0E700BF64
:1045C000EE790100D4790100DB790100F7B50F68BD
:1045D00005460E46A7B13846FBF788FF84B2094B63
:1045E0002846009308213B46074A0EF02AF9284640
:1045F000E21C716892B203B0BDE8F040FFF71ABF49
:104600003C46ECE7EA790100E577010010B507497F
:104610000446FBF759FF38B120460549FBF754FF24
:10462000B0FA80F0400910BD0120FCE7E0790100FC
:10463000E379010010B583680446D3F874329B0611
:1046400003D5064940690EF08BF95022A36800207B
:104650005A871822A3681A8710BD00BF1063010093
:1046600008B5836908211B68024A0DF09AFE0020F4
:1046700008BD00BFF17901002DE9F3410F4A08217F
:1046800005460DF08EFE00230D4C0E4EDFF83880EF
:10469000B44203F1010703D3002002B0BDE8F0816A
:1046A000226A9BB20192A2680821009228464246E3
:1046B0000DF077FE2C343B46EAE700BF017A01009B
:1046C000506201007C620100197A010008B50249BC
:1046D0000DF074FE002008BD417201007FB5044654
:1046E00000250E4EA2680DF10E030121E06802F5CF
:1046F000AB720EF0C5F9BDF80E00A36850B103F51A
:10470000AB73009332462B46082120460DF049FE3C
:104710000135E7E783F8560104B070BD2A7A01003D
:1047200010B504460DF078FE08210346024A2046E3
:104730000DF037FE002010BD68750100022907B595
:104740000DD15368012101930C4B009313680C4A5F
:104750000DF027FE6FF0150003B05DF804FB8368D1
:10476000084AD3F87432082113F0020F064B08BF31
:104770001346064A0DF015FE0020EDE7417A0100D0
:10478000387A0100347A0100B8730100567A0100CA
:1047900010B583680446D3F874329A0603D50749E6
:1047A00040690EF0DDF8A368D3F874329B0603D598
:1047B000034960690EF0D4F8002010BD17630100B2
:1047C0001C630100F0B50129044685B00CD0536884
:1047D000012101935F4B009313685F4A0DF0E1FDE7
:1047E0006FF0150005B0F0BD8368D3F874329906F8
:1047F00003D55A4940690EF0B3F800256FF0F9016E
:104800002046FFF779FCFA212046FFF78BFCA068D1
:104810004FF48072294600F5AB708DF80B5011F003
:104820000FFB4F4960690EF09BF860690DF002FEC6
:104830004FF47A766068012203680DF10B011F695D
:1048400003ABB847039BF3B9013E4FF47A70B6B29D
:1048500010F0A9FB002EEDD1A368D3F874329B06AB
:1048600003D5404960690EF07BF85022A3682046CA
:104870005A871822A36803211A873B4A0DF091FD3D
:104880006FF00700AEE79DF80B20A3681B2A53D0FA
:1048900093F856111B29CDD1522A4DD15A19002314
:1048A00082F85631A66896F857215B2A2BD102254B
:1048B00006F2571010F8011F2A463B2905F10105A1
:1048C000ADB223D1FF2AC7D002F5AB7216FA82F13E
:1048D000002211F8010F18BBFA2A28BFFA22FA2B7E
:1048E00028BFFA2386F85601A1684A87A268138771
:1048F000A368D3F874329A0603D51A4960690EF09A
:104900002FF800206EE786F85631A5E703EB830306
:10491000303901EB4301B5F5807F8BB2CAD19BE7FB
:10492000013502EB8202ADB2303800EB4200B5F542
:10493000807F82B2CDD18FE72B440135ADB2092DF6
:1049400083F856217FF676AF0022A36883F85621BC
:1049500082E700BF417A0100387A0100226301003A
:10496000A17A010026630100677A01002DE9F04F6A
:1049700007461546894689B021B110460EF025F943
:1049800000285BD1032455E05C463CE029460AF54B
:10499000AB7011F0EDF80646002854D0FBF7A6FDE9
:1049A00082B2601C31460132304411F02FFA2246A7
:1049B0005946304611F01DFA4FF020033355BAF82E
:1049C000543008F1010801331C44AAF85440002473
:1049D00001994B1C484603AA0193FFF7A3FA064628
:1049E000E8B10022284631680EF0D6FA0028EFD14F
:1049F000D6F800B0D7F808A0BBF1000FC4D05846D5
:104A0000FBF774FD84B2BAF854302344FF2BBDDDAC
:104A10002B46032138460D4A0DF013FF0124B8F14F
:104A2000000F07D0B8682A4600F1540100F5AB70BA
:104A30000DF060FD204609B0BDE8F08F4FF0000892
:104A400002244146C5E70224E9E700BF697F01006F
:104A5000014808F085BA00BFEC6A010038B5044689
:104A600018B90F4B0F485B6898476168B1F5683F0C
:104A700010D0B1F5680F0DD00B4DA9420AD011F43A
:104A80006861206807D00146084810F04CFB0023FD
:104A90002360656038BD142211F0D2F9F9E700BF38
:104AA00018030020BB7F01002C5F5CA9EC2B0020C9
:104AB00008B560B34368B3F5683F0ED0B3F5680F2F
:104AC00018D0144A934220D000684FF0FF324FF0C4
:104AD000FF3306F025FF58B115E001220368D3E843
:104AE000EF1F002903D1C3E8E02F0028F7D10AD136
:104AF000002008BD0368084A1B7803F5807352F84C
:104B00002330002BF4D00548F3E70548F1E76FF4B4
:104B1000E040EEE72C5F5CA900000350E98FFFFF47
:104B2000EA8FFFFF08B520B34368B3F5683F09D0AB
:104B3000B3F5680F13D0114A93421DD0006806F0F8
:104B400067FF14E000220368D3E8EF1F012903D1B7
:104B5000C3E8E02F0028F7D109D0094808BD00219B
:104B60000368084A1B7803F5807342F8231000207D
:104B7000F4E76FF4E040F1E70348EFE72C5F5CA94E
:104B8000E98FFFFF00000350EA8FFFFF10B50446D6
:104B900018B91D4B1D485B6898476368B3F5683FBB
:104BA0002FD0B3F5680F2CD0194A934219D123683E
:104BB00003BB4FF0FF324FF0FF332146154806F09C
:104BC00081FE08B923681BB90F4B13485B689847EF
:104BD00014220021206811F033F94FF468636360F8
:104BE00008E0B3F5683F0DD83A2B03D040F6BA621F
:104BF0009342DED1206810F0CFFA636843F03A03A5
:104C0000636010BD054AF3E718030020BB7F010075
:104C10002C5F5CA9EC2B0020E17F01003A00003AF8
:104C200008B5064940231422054810F06EFABDE885
:104C300008400449044808F057BA00BFEC26002099
:104C4000EC2B0020F46A0100086B010030BFFFF775
:104C5000FDBF00BF2DE9F04105460B4EDFF82C806B
:104C6000324606EB0807CC1B2046094911F0C1F873
:104C7000A01942460021083C11F0E2F8C5F8A8400E
:104C800007F10800BDE8F081000000000800000006
:104C9000C4620100074A936893F90E10002907DBEC
:104CA000526993421FBF044A536843F080535360D4
:104CB000704700BFA016012000ED00E0154B9A6A76
:104CC00012F0007F9A6A14BF1E201D2012F0807F10
:104CD0009A6A18BF1F2012F4801F9A6A18BF022018
:104CE00012F4002F9A6A18BF212012F4802F9A6ABA
:104CF00018BF222012F4003F9A6A18BF232012F432
:104D0000803F9A6A18BF24206FEA02426FEA12427B
:104D10009A62704700ED00E010B5194B0246986AA0
:104D20009C6A10F4805F14BF1720162014F4006FE3
:104D30009C6A18BF1820A40509D5986B986A0004CE
:104D400004D51AB19A6A22F400429A6219200C4BD7
:104D50009A6A12F4806F9A6A18BF1A20D2050CD48E
:104D60009B6A13F4005F18BF1C20054A936A43F442
:104D70007F43936200230B7010BD1B20F5E700BF3B
:104D800000ED00E010B51C4B0246986A9C6A10F0DA
:104D9000100F14BF1120102014F0080F9C6A18BFC8
:104DA0001220A40709D5586B986A000604D51AB1D9
:104DB0009A6A22F080029A6213200F4B9A6A12F0CC
:104DC000010F9A6A18BF142012F0200F9A6A18BFB8
:104DD0001520D40658BF9B6A074B9A6A920642BFB9
:104DE0005A6A22F400525A629A6A42F0FF029A62A8
:104DF00000230B7010BD00BF00ED00E0F0B5474B85
:104E000004465B6800258BB0C3F3080385F3118863
:104E1000BFF36F8F02F07F40B0F17F4F11D102F0EE
:104E20000C0008280DD010074CBF0C4601250022AD
:104E3000033B8DF80720032B05D8DFE803F024623D
:104E4000665F2C46F3E700239DF80720CAB902AE3F
:104E500004F12007324620686168083403C2BC426E
:104E60001646F7D1099A002D53D0C2F3080121B993
:104E70006FEA52226FEA42220992184602A90DF007
:104E8000EAFE0BB0F0BD254BDA6A9107DBD4DA6A93
:104E9000002AD8DBDA6A5200D5D55A69A16942F4F2
:104EA00080725A61BFF34F8FBFF36F8F5A6931F829
:104EB000021C22F480725A61BFF34F8FBFF36F8FD1
:104EC0004DF60272914209D09A6AD2B242B10120E3
:104ED0000DF10701FFF756FF0346B5E72368B3E777
:104EE0009A6A12F47F4F05D001200DF10701FFF7F8
:104EF00013FFF1E79B6AB3F5803FA4D3FFF7DEFE13
:104F0000EAE700200DF10701E4E700200DF10701B9
:104F1000EDE722F4FF7222F00102ADE700ED00E0C0
:104F2000044B5A6942F010025A615A6942F4806295
:104F30005A61704700ED00E0EFF30880EFF309815C
:104F400001B57246FFF75AFF01BD00BF002080F394
:104F50001488BFF36F8F002080F30A8880F30B88DA
:104F600004F0F6FF002011490860BFF34F8F10488E
:104F700080F3088800F032F8202080F311880D4873
:104F80004FF0AA014FF4006210F040F809484FF4C6
:104F90000061401880F30988EFF314800221084370
:104FA00080F31488BFF36F8F00F006F994ED00E0F2
:104FB000504C0120103B0120002318460649D1F82F
:104FC0009020C2F30722934200DB7047C1F898306B
:104FD000C1F8A0000133F6E700ED00E010B572B6AD
:104FE000002484F31388FFF7E7FF23464FF0FF30D8
:104FF0000C4A03F120010133102B42F82100F8D1B3
:1050000000234FF0FF30074A03F160010133102BFA
:1050100042F82100F8D162B6BFF34F8FBFF36F8F14
:1050200010BD00BF00E100E0084B9B6883420BD13C
:10503000EFF3058343B1064B5A6842F080525A6041
:105040005A6A22F400425A6210F0FEBAA0160120F9
:1050500000ED00E06FF00A01094A9368C3F8B01050
:105060000849C3F8AC004B6843F080534B60002301
:1050700083F31188BFF36F8F9368D3F8B000704744
:10508000A016012000ED00E0EFF31183202383F34D
:105090001288BFF36F8F4FF00061094A5369936024
:1050A000084A5160D3F8A810074A11600021D3F8CC
:1050B000AC20C3F8AC1082F31188BFF36F8F704738
:1050C000A016012000ED00E0082C00200E498A689F
:1050D0004FF030001044EFF3098C80E8F01F744665
:1050E0007046FFF7D1FFA64607498A6802F13000F3
:1050F00090E8F01F8CF3098802F1000004B50DF070
:10510000BFFDBDE804407047A01601201EF0040F4B
:105110000CBFEFF30880EFF30980816911F8021CDE
:105120000229FFD001B50DF09CFD01BD40B2002861
:1051300007DB01234109034A00F01F00834042F8C6
:105140002130704700E100E040B200280CDB012272
:105150000649430900F01F008240203341F8232014
:10516000BFF34F8FBFF36F8F704700BF00E100E0C8
:10517000054B420953F82220012300F01F0003FAD7
:1051800000F01040704700BF00E100E040B200288E
:1051900001F10101ACBF00F16040064B4FEA411143
:1051A000C9B2ABBF00F5614000F00F0080F80013FA
:1051B0001954704714ED00E00B4A08B50B4B22F070
:1051C0007F029A60BFF34F8FBFF36F8FD3F88820B1
:1051D00022F47002C3F8882006F09CFA07F0C0FBA6
:1051E00000F04CF806F0DAFA0000000000ED00E0F4
:1051F00042F8203C009B0B4942F81C3C019B21F0EB
:10520000010142F8183C029B42F8081C42F8143C89
:105210004FF0807342F8043C0023203A0265C0F846
:10522000AC3070474D0C00000D4B15469860D0F81F
:10523000A8200C4B0E461A60D0F8983083F30B88E8
:105240002C4686F309884FF00000074B984720460C
:105250004FF000014FF000024FF00003034C2047D5
:10526000A0160120082C00208B2C01004D0C000002
:105270001022014B1A61704700ED00E0002320214D
:105280000348C2180133452B82F80013F9D1704747
:1052900000E100E008B5EFF30583064A103B02EB9E
:1052A000C30152F8330049688847BDE80840FFF75A
:1052B000F1BC00BFF85F01001FB5094C094A234645
:1052C0000121094800F0FAF800230393074B01215C
:1052D000E41A01A80193029400F0FAF804B010BD9A
:1052E0000000072000000020186B0100400600208D
:1052F00010B50C7A0B6804F01F0223F01F031A4349
:10530000CB68640923F01F03054943EA440343F0D3
:105310000103C1F89800C1F89C20C1F8A03010BD6D
:1053200000ED00E010B5074BD3F89030C3F307232E
:10533000013B984202D8FFF7DBFF10BD6FF015006C
:10534000FBE700BF00ED00E02DE9F04F0F461446EB
:1053500006464FF000084D4D85B0B84580F292806A
:10536000D6F80490B9F1000F36D0B9F11F0F40F212
:10537000878019F01F0F40F08380D6F800A01AF044
:105380001F0F7DD150460DF0BCFC834609EB0A008F
:1053900001380DF0B6FC834572D11BF1160F6FD0AA
:1053A0005C456DDDC5F898B0D5F89C10C5F898B08F
:1053B000D5F8A03021F01F0143F01F0AD6E90032D2
:1053C0001A44994202F1FF391ED1CA4508D131462B
:1053D0005FFA8BF00DF09EFC08F101080C36BCE77B
:1053E0003146C5F898B0D5F89C3022F01F0203F082
:1053F0001F031343C5F89C30E0B20DF08BFC10F195
:10540000160F3DD0441CE7E7C5F898B0D5F8A020AA
:10541000013B23F01F0302F01F021343CA4531462C
:10542000E0B2C5F8A030E8D00DF074FC10F1160F12
:1054300026D0C5F898B0D5F89C209DF808300AF120
:10544000FF3A62F304038DF80830D5F8A0309DF8D8
:1054500008205B0863F347128DF80820D6E9003274
:105460001344009323F01F035344A3EB09030130BB
:1054700023F01F036946C0B20393FFF753FFBEE753
:105480006FF01504204605B0BDE8F08F00ED00E098
:105490000522044BC3F89420BFF34F8FBFF36F8FE7
:1054A000704700BF00ED00E0BFF35F8F0022024BAA
:1054B000C3F89420704700BF00ED00E010B5034C26
:1054C0002278FFF741FF207010BD00BFDB220120D2
:1054D0002DE9F74F294D8A4606464FF00008AB46A6
:1054E000274FD0451BDAD6F80490B9F1000F3FD012
:1054F0003168084601910DF004FC0199044609EB5E
:10550000010001380DF0FDFB84424FF014021D4BE9
:1055100008D002FB08F36FF015024BF8032003B02C
:10552000BDE8F08F14F1160F2C60F8D01978A14265
:10553000F5DD02FB08B0C7F89840C7F89840D7F8E7
:105540009C4000F10801007B64F304000871D7F867
:10555000A0000C79400860F347140C71D7F89C1038
:1055600021F01F016960D7F8A01021F01F01296107
:1055700008F1010814350C36B3E700BF0C2C0020ED
:1055800000ED00E0DB220120F0B54149414CD1F8AB
:1055900090302568C3F307239D4287B075D800205B
:1055A000FFF782FF3C4BC1F8C030854216D13B4C1F
:1055B00001A82570FBF77AFF00250646384FAE425A
:1055C00013D1002023783249D1F89020C2F307226A
:1055D000934254DBFFF75CFF00202FE0616801EB92
:1055E0000011FFF785FE0130DFE70199280101EB8B
:1055F0000513DA683A40B2F5001F21D0B2F5800FEA
:105600002BD0B2F5801F38D15A689B680958013BEE
:1056100022F01F0003440120844623F01F0340EAC8
:105620004C10CDE902218DF8100002A920780593D5
:10563000FFF778FE00281DDA6FF0150007B0F0BD07
:105640005A689B680958013B22F01F0003444FF041
:10565000020C012023F01F03E1E75A689B680958F8
:10566000013B22F01F0003444FF0000C062023F002
:105670001F03D4E723780133237001359FE7C1F876
:105680009830C1F8A00001339EE74FF0FF30D5E716
:1056900000ED00E0246B0100AAFF4400DB220120A2
:1056A0000000F0FF08B5024B1B689847002008BDBA
:1056B000202C0020034B044A1860937843F0020327
:1056C00093707047202C0020E8010020F0B587B0CF
:1056D00007460E4614460021102268461D4610F06B
:1056E000AFFB02238DF80230054B2A46214668465F
:1056F000CDE9047601930AF0F3FA07B0F0BD00BFDC
:10570000472D010008B505480BF0EEFE002383F39A
:105710001188BFF36F8F0423184602DF1D8001003C
:1057200008B50649064821F00701C1F1005202F50B
:10573000E0220BF07FFE002008BD00BFD7820120D1
:10574000242C00200B0706D5034B1B5C03F003033E
:10575000012B08BF203070474284010000F01F0277
:1057600040090DD001280DD1094B03EB8203D3F87A
:10577000002222F0E04242EA0171C3F800127047B1
:10578000044BF2E70023803253F82230FFDE00BFE3
:10579000002884500025845038B50124134B144D43
:1057A000C3F8004502230321C5F8D0360020FFF7D7
:1057B000D5FF20460321FFF7D1FFC5F80447214656
:1057C000C5F804492120C5F8004BFFF7C7FF214663
:1057D0002020FFF7C3FF21460B20FFF7BFFF214624
:1057E0000A20FFF7BBFF002038BD00BF00100050AB
:1057F0000040005007B50DF107000EF01FFD114BE2
:1058000098421CD14FF480620F4B1049C3F8B82561
:105810004FF40062C3F83C259DF807000EF002FD2E
:105820000B499DF807000EF0F8FC01209DF80730A9
:10583000984004F0ABFC002003B05DF804FB6FF06F
:105840000B00F9E70000AD0B00A002502CA00250A5
:1058500028A10250052370B5144D154E2C78013443
:10586000B4FBF3F303EB8303E41A0EF000FA114ADE
:10587000137823B156F82430C01A072814D94FF0F2
:105880005023D3F8141141B10021C3F81411D3F8F7
:1058900014312C700CB9012313702C780EF0E7F939
:1058A00046F82400012070BD0020FCE7DD22012025
:1058B000302C0020DC22012048B1054B054A1B6832
:1058C000B3FBF2F35843044B43F00103184770470E
:1058D0005002002040420F0030630100014902489D
:1058E0000BF0B1BE506B0100442C00204FF47F033D
:1058F0002DE9F041D3F830210646072A0D46D3F8AA
:10590000343120D1023B032B02D8124AD35CD3B1ED
:105910004FF050244FF0010800270520C4F81886E6
:10592000C4F814760EF077FC4046C4F814860EF0E6
:1059300072FCC4F81476C4F8187630462B46BDE8DD
:10594000F041002118474FF050230022C3F81426DD
:10595000F3E700BF268001001FB578B10023019353
:10596000039301236946084802930BF07FFE029BD4
:105970009B0700D1039B05B05DF804FB024805B00E
:105980005DF804EB0BF0C9BE442C00201022174B2D
:1059900070B5C3F840244FF47F03D3F83021D3F817
:1059A0003431072A1BD1023B032B02D8104AD35CA7
:1059B000ABB14FF05024012600250520C4F818662D
:1059C000C4F814560EF027FC3046C4F814660EF0E6
:1059D00022FCC4F81456C4F81856002070BD4FF0CD
:1059E00050230022C3F81426F7E700BF0030005010
:1059F0002A80010070B541690446867A0A4D59B182
:105A0000437ADB0706D42C2303FB06535B6A1B682F
:105A10009B689847002363612C20214606FB0050B9
:105A2000BDE870400FF048BCE00400202C21827AD1
:105A3000054B01FB02339A6A1B7F801A1B3323F04C
:105A40000303B0FBF3F07047E004002038B52C24CA
:105A5000827A064B04FB02335B6AD3E901240C60B3
:105A60001568FFF7E3FF04FB005038BDE004002099
:105A70002DE9F04F85B00546684691461C46904694
:105A80009A4603910FF040FEDDE90067EFF3118BBA
:105A9000202383F31288BFF36F8F698B002942D0D4
:105AA0002B8B8B4226D900220023284605F0ECFFE1
:105AB0000446F8B18BF31188BFF36F8F039B002B63
:105AC0004FD032463B4668460FF042FE2C21A27A68
:105AD000294B204601FB02335B6A03A91B681D6842
