:10100000C0C80020F98C00004BA10100E58C000055
:10101000E58C0000E58C0000E58C0000000000007D
:10102000000000000000000000000000C98E000069
:10103000E58C000000000000958E0000E58C0000AB
:1010400089900000E3B001008990000089900000C1
:10105000899000008990000089900000899000002C
:1010600099B001008990000089900000CDB0010086
:10107000899000008990000089900000899000000C
:1010800089900000899000008990000089900000FC
:1010900089900000899000008990000089900000EC
:1010A00089900000899000008990000089900000DC
:1010B00089900000899000008990000089900000CC
:1010C00089900000899000008990000089900000BC
:1010D00089900000899000008990000089900000AC
:1010E000899000008990000089900000899000009C
:1010F000899000008990000089900000899000008C
:101100007BB972B90029BEBF00204FF0004106E054
:1011100008BF00281CBF6FF000414FF0FF3000F007
:1011200057B8ADF1080C6DE904CE002909DB002B9E
:101130001ADB03F009F9DDF804E0DDE9022304B06D
:101140007047404261EB4101002B1BDB03F0FCF8D0
:10115000DDF804E0DDE9022304B0404261EB410127
:10116000524263EB43037047524263EB430303F085
:10117000EBF8DDF804E0DDE9022304B0404261EB66
:1011800041017047524263EB430303F0DDF8DDF8A1
:1011900004E0DDE9022304B0524263EB43037047ED
:1011A00053B94AB9002908BF00281CBF4FF0FF31CE
:1011B0004FF0FF3000F00CB8ADF1080C6DE904CE33
:1011C00003F0C2F8DDF804E0DDE9022304B0704763
:1011D000704700BF014B1B685B6818470000002088
:1011E000014B1B68DB68184700000020014B1B689F
:1011F0001B69184700000020014B1B685B691847FA
:1012000000000020014B1B689B691847000000206C
:10121000014B1B68DB69184700000020014B1B686D
:101220009B6A184700000020014B1B681B6B184786
:1012300000000020014B1B68DB6B184700000020FA
:1012400010B4034C2468A468A44610BC604700BFD7
:1012500000000020014B1878704700BFBC0C002034
:10126000042810B511D883B104280CBF10242824F9
:10127000A1420AD2064C54F8200018B141568A42C5
:10128000A8BF0A461A70002010BD6FF01500FBE7DA
:101290008007002030B50346114890F91C209A427F
:1012A00019DD90F924209A4217DA9A1A846AA05C10
:1012B0000C4A15569D420DD00E32002918BF013040
:1012C0009442C0B206D129B1013BDBB2012B01D857
:1012D0000130C0B230BD0D20FCE70020FAE700BFAE
:1012E00080070020E8D1010008B5054B93F91C30B8
:1012F000984203DAFFF7CEFF024B1B56184608BD93
:1013000080070020E8D1010010B51C4C94F82C3067
:1013100073B9012384F82C3003F067FA48B1184BF5
:10132000A362D823236284F824300823A36123779F
:1013300010BD03F06FFA0028F1D103F074FA002811
:10134000EDD103F037FA38B10E4BA362D8232362F4
:1013500084F824300423E9E703F035FA0028F3D1B8
:1013600003F03AFA0028EFD103F048FA0028EBD155
:1013700040F2BB11742002F069FC00BF800700201E
:1013800023D20100F6D10100014B1879704700BF4C
:10139000B4070020054B1A79824283BF1B6800EB1B
:1013A000400003EB00100020704700BFB40700208E
:1013B00043F60952C0F3080302FB03F3400A03F5A6
:1013C000807302FB00F000EB5320704743F6095C8A
:1013D000C0F3080210B50CFB02F2C0F34E24030E5A
:1013E00043EA01230CFB04F0090E02F580724FEA78
:1013F000411C00EB52205A01B2EB030E4CEAD36CB5
:101400006CEB01044FEA841C4FEA8E12B2EB0E0221
:101410004CEA9E6C6CEB040C4FEACC0C4CEA527C10
:10142000D200D31841EB0C01DA03C903801841EA5A
:10143000534141F1000110BD430B48F2376C0CFBE6
:1014400003F34FEA134C00B5104B43F6095E0EFB55
:101450001C0000FB03F35B0D0EFB03FE03EB4C23B0
:101460000EF5745C0CF1080CB0EB5C2F08D80EF58F
:10147000807EA0EB5E20C0B20B6010705DF804FBB4
:10148000013300200B6010705DF804FB6F0C01004D
:10149000F8B5274DA94246D8264E274F450F45EAB5
:1014A000C105A6FB0514C0F34F31A40B01EB0541A8
:1014B00007FB1411A6FB0151890B41EA04411F4CA3
:1014C00004FB110448F2376C600B0CFB00F04FEA90
:1014D000104C43F6095E1A480EFB1C4505FB00F054
:1014E000400D0EFB00FE00EB4C200EF5745C0CF181
:1014F000080CB5EB5C2F12D80EF5807EA5EB5E2EA6
:101500005FFA8EFE069D85F800E00D0628184FEA6A
:10151000112141F10001186059601460F8BD0130DB
:101520004FF0000EEEE796219B2002F08FFB00BFEC
:10153000FF7F841E83DE1B43000024F40080841E92
:101540006F0C0100420B48F2376303FB02F2120CEE
:1015500043F6095C074B0CFB120101FB0333013B13
:101560005B0D0CFB03FC5002B1EB5C2F88BF01301C
:10157000184470476F0C010010B5094A92F8003307
:10158000202B03D13E21022002F060FB18214B43A7
:10159000D018BDE81040D35840680321184700BF59
:1015A000C007002008B501B3F0B14FF0FF331A4671
:1015B000E0FB01320E498A4203D979216D2002F005
:1015C00045FB180D40EA0230C3F30F134FF22441DC
:1015D000B0FBF1F203EB0040064B03FB1200B0FB43
:1015E000F1F040EA0240013008BD0846FCE700BFC8
:1015F0003F420F00000024F438B5074D0446343054
:1016000080B26880FFF79EFFA8802046EC80FFF73D
:1016100099FF2881002038BDF40A0020014B188969
:10162000704700BFF40A0020014B9888704700BF44
:10163000F40A002010B5EFF3108472B6064A137B4B
:101640000133DBB21373137B012B01D103F055F887
:1016500004B962B610BD00BFF40A002070B50C4C8E
:10166000267866B9012520612570FFF7E3FF00F0B9
:101670004FFA30B94FF080432575C3F8045300206A
:1016800070BD2369002BFAD098472661F7E700BFA9
:10169000F40A002038B5FFF7CDFF00F039FA094C05
:1016A0004FF0804540B103F015F801232B6104236E
:1016B00063750023A37538BD032363750123C5F843
:1016C0000433F6E7F40A002010B5EFF3108472B685
:1016D0000A4B1A7B22B94FF4A0716D2002F0B6FAC2
:1016E0001A7B013AD2B21A731A7B1AB9DB7D0BB995
:1016F00000F0FCF904B962B610BD00BFF40A002086
:1017000008B5054B1A7822B100221A751A70FFF736
:10171000DBFF002008BD00BFF40A002073B51C4D9C
:1017200095F8243063B9A86A00F0030002F0FFFFC7
:1017300030B1EFF3108372B66A7D1AB103B962B6A5
:1017400002B070BD01226A7503B962B64FF08043E2
:101750000822C3F808234FF42073ADF80630BDF813
:101760000640A4B2631E9BB2ADF80630002CF6D141
:101770004FF080460748C6F80C4102F0FDFF85F89F
:101780002D40FFF787FF0823C6F80433D8E700BFD2
:10179000F40A0020200B00202DE9F041384C94F889
:1017A0002E30002B69D04FF08043D3F80071D3F86E
:1017B000046157B10122C3F80823237D2BB12369AB
:1017C000002525750BB1984725614EB14FF0804338
:1017D0000022C3F804210222C3F80823FFF79EFF6A
:1017E0004FF080462748D6F80C8194F82D50EDB282
:1017F00002F0C6FF20B140F2D9116D2002F026FAA6
:1018000047B1637D032B05D10423637502F062FFAA
:1018100001233361B8F1000F16D04FF0804300224E
:10182000C3F80C21637D042B02D040F2EB11E4E7F6
:1018300003F002F8C0B14FF080430022C3F8342C0B
:1018400002236375FFF740FF4DB1002384F82D306C
:10185000637D022B01D1FFF71DFFFFF735FFBDE8C8
:10186000F041084802F09BBF02F0C8FF0028E2D117
:1018700002F0D9FF0028DED1E2E7BDE8F08100BF29
:10188000F40A0020200B002010B5044CA06A00F0E0
:10189000030002F04CFF0028F8D010BDF40A00202D
:1018A000F8B5054650B10278042A07D8437842B902
:1018B000013B1F2B02D88378212B07D96FF015002D
:1018C00078E0002BFAD18378002BF7D1824B0127E7
:1018D000C3F88070BFF34F8FBFF36F8F4FF0804618
:1018E000C3F880717D4C4FF0FF33C6F808330023F6
:1018F000C6F80031C6F80431C6F80C312373AB8842
:10190000638102F0FFFE08B127702773D6F80C241C
:10191000D6F80C34D20303D5DF0701D500F0F2F876
:101920004FF4AF60FFF768FE2B78A97884F8243075
:101930000022A2622176A275042B4ED8DFE803F0C4
:1019400005033B494B000123A36202F0E2FE00289D
:101950004ED002F0E5FEA36A03F00303984247D19C
:10196000AB79002B3ED1FFF78FFF237E6BB12B7835
:101970005BB900F0CDF8054602F0A8F96FF000431E
:10198000002D00F0A580C4E907034FF08043D3F891
:101990000C24D3F80C34D20303D5DB0701D500F0B7
:1019A000B1F84D4A01230020607584F82E30C2F84A
:1019B00080311360F8BDFFF73DFE4FF08043D3F850
:1019C0000C14D3F80C24CE03F9D5D007F7D5022395
:1019D000BAE7434BB8E7434BB6E740F22A316D20F4
:1019E00002F034F94FF080430222C3F80423BCE72D
:1019F0004FF080430122DA600022C3F80421A26A7A
:101A0000C3F8182502F0D6FE10B34FF080534FF004
:101A10008042D3F84432C3F34233C2F83C3502F07B
:101A2000C9FE10B34FF080430122C3F84C254FF09C
:101A3000804301229A600222C3F80423AA79002A73
:101A400093D1D3F8042391071CD440F2E121C6E7D7
:101A500002F0B9FE0028D8D102F0BEFE0028D4D191
:101A600002F0CCFE0028D0D1D9E702F0ACFE00286D
:101A7000D8D102F0B1FE0028D4D102F0BFFE002878
:101A8000D0D1D4E7184A1669116941F010011161EB
:101A9000D3F8043106F010060BB902F0DBFE4FF06C
:101AA0008047D7F8043183B1FFF7EEFE26B90E4A1E
:101AB000136923F0100313614FF080430222C3F82F
:101AC00008230022C3F804214FE702F0C1FEE8E733
:101AD000C4E9073059E700BF00E100E0F40A002044
:101AE000010002000100030000ED00E04FF0804221
:101AF000012353600023C2F80031014A137070477C
:101B0000230B0020014B01221A707047230B002089
:101B10004FF08043D3F8003123B9034B187800F01D
:101B2000010070470120FAE7230B0020074B4FF01C
:101B3000FF32C3F808230022C3F84025C3F8402130
:101B4000C3F84425C3F84421704700BF008000401B
:101B5000084B094A1B78012B16BF4FF440314FF454
:101B600000310023C2F84813C2F808130BB9C2F8B9
:101B700040317047280B002000B0004070B5EFF3F3
:101B8000108472B6094A0A4B0025D2F80415D2F81F
:101B900004612EB1596801315960C2F80451F4E76B
:101BA0005B6804B962B6C0E9001370BD00B00040C4
:101BB000280B0020094BD3F80435C01A20F07F43CE
:101BC00023F001033BB120F07F40B0F5000F8CBF44
:101BD0000220002070470120704700BF00B0004085
:101BE000104B4FF40062C3F88020BFF34F8FBFF358
:101BF0006F8FC3F880210C4B01225A609A60D3F892
:101C00000425002AFBD10949C3F808134FF44031D9
:101C1000C3F84813C3F84021C3F84421C3F8042192
:101C2000704700BF00E100E000B000400200030088
:101C300008B5144BD3F8042522F00302C3F8042599
:101C4000D3F8082542F00302C3F80825102292FABF
:101C5000A2F2B2FA82F2092A04DD0B4840F2913175
:101C600001F0EAFFC3F810250122DA60074A926802
:101C7000C3F80022064B4FF48072C3F880211A602B
:101C800008BD00BF0080004045F20100280B002085
:101C900000E100E008B50A4B4FF48072C3F88020E1
:101CA000BFF34F8FBFF36F8F0649C3F88021012028
:101CB0004860FFF73BFF044B086100221A7308BD20
:101CC00000E100E000800040280B002010B5234C0C
:101CD0000023FF224FF0FF314FF0FF30C4E9040131
:101CE000237062736360FFF7D5FFFFF779FF1C4B2A
:101CF0004FF400621A60A1691A4A31B901231360D6
:101D0000184B0222C3F8042310BD174B1748C3F821
:101D1000A805C3F8AC15C3F85C294FF40022C3F83A
:101D20000425134A0521C2F8401501211160D2F89B
:101D300040110029FBD04FF40021C3F80815012100
:101D40005160D1600021C2F84011C2F84015C3F8BB
:101D5000A815C3F8AC15C3F8AC15D1E7280B0020C3
:101D600000E100E000B0004000F001404081004090
:101D700000800040014BD3E904017047280B00208C
:101D8000014BD3F80405704700B0004013B5684616
:101D9000FFF7F4FEDDE90004FFF70AFB024B002128
:101DA000E4FB030102B010BD0080841EB1F1FF3FCF
:101DB00008BFB0F1FF3F2DE9F041424C05460E4609
:101DC0003AD1414DD5F800318BB3404E404BC6F867
:101DD0000835FFF7BDFE4FF000080123A36084F82B
:101DE0000D80FFF757FFFFF723FF3A4BC5F800813F
:101DF000394FC6F8A8354FF40023C6F8AC75C6F8BD
:101E0000043502F0A4FCD5F800312BB10123C5F84C
:101E100000817B60FB60F4E7013041F100010223A7
:101E2000C4E904012370FF236370BDE8F08102F070
:101E30008EFCC51C41F10006D4E90473B34208BF0F
:101E4000AF42F2D0214B224AC3F80825FFF780FEAB
:101E50001D4A4FF4803125F07F480023C2F8081353
:101E60004046C2F84813C2F84031FFF7A3FE20B144
:101E700040F226316C2001F0E9FEC2F84085C2F83C
:101E800044132378012B06D127F07F473846FFF70C
:101E900091FE0128FAD0002301276373A760FFF7A2
:101EA000F9FEFFF7C5FE094B27704FF00042C3F85B
:101EB000042504236370044BC4E90456C3F8487333
:101EC000B3E700BF280B002000B0004000F0014045
:101ED0000000088000B1004000800040012870B57B
:101EE0002D4B06D9011FC9B201292FD94FF45D71BD
:101EF0000BE0D3E90441B1F1FF3F08BFB4F1FF3F6C
:101F000006D11B7B23B940F253316C2001F09EFEB9
:101F10002249234D00F110040123800003FA04F448
:101F2000C5F808430B5000F1804101F50041D1F89C
:101F30004005101A022805DDC1F84025C5F8044304
:101F4000012002E00020C1F8400570BD1C782CB1D2
:101F50005B78834202D14FF45C71D6E7114B124E8D
:101F600022F07F458A0013444FF480348C400022D5
:101F7000C6F808432846C6F848431A60FFF71AFE19
:101F800040B901F5A87146F82150C6F80443C6F8D7
:101F90004443D5E71046D8E7280B00204080004096
:101FA0000080004040B1004000B00040012837B53B
:101FB00008D9041FE4B2012C19D940F2B9316C20C0
:101FC00001F044FE234900F1100201239340C1F8BF
:101FD000083300F5A873002241F823201E4B81002E
:101FE0005A5053F820300093009B03B030BD1B4D76
:101FF0002B7893B16A7882420FD1194A1949C2F8F5
:102000000815012B01D1FFF745FE00232B704FF07F
:10201000FF324FF0FF33C5E90423134A4FF48033F6
:10202000A340C2F80833C2F8483304F5A87352F845
:102030002300FFF7BFFD012818BF0C4B22B24FEA67
:1020400084041CBF00211951084B53F8223001931E
:10205000019BCAE70080004040810040280B00201F
:1020600000F001400000088000B0004040B1004096
:1020700010B50A4B0446012210B1C3F8442310BD29
:10208000C3F84823FFF706FE054B4FF0FF304FF033
:10209000FF31C3E904011C70F1E700BF00B000404C
:1020A000280B00201F4A08B5D2F80433D90311D5F4
:1020B000D2F8403173B10023C2F84031D2F8400564
:1020C000FFF778FD30B14FF48033C2F808330420B5
:1020D00001F0A8FA134AD2F804339B0311D5D2F8C1
:1020E000443173B10023C2F84431D2F84405FFF7FC
:1020F00061FD30B14FF40033C2F80833052001F020
:1021000091FA084BD3F8042132B10022C3F804211C
:10211000054A536801335360044B4FF40062C3F81F
:10212000802108BD00B00040280B002000E100E045
:1021300038B5264C637BFF2B45D0237883B1012231
:10214000022B227339D1224B4FF40022C3F8082509
:10215000002323704FF0FF324FF0FF33C4E9042314
:102160001C4BD3F8042392030DD5D3F8443153B15B
:102170000120FFF71BFF184B4FF48072C3F880213A
:10218000012001F04FFA134DD5F80433DB031CD5C1
:10219000D5F84031CBB10020FFF708FF0E4B4FF4CC
:1021A0008072C3F880210020FF236373A060C5F80C
:1021B0000002BDE8384001F035BA02236078237090
:1021C000FFF7F4FECCE70620F3E738BD280B00202C
:1021D00000F001400080004000E100E02DE9F04FF8
:1021E00097B01C460592A14E03918346FFF7C2FDAE
:1021F0004FF080420123C2F80835326880461360F0
:102200009B4818238A46082104EB440213FB04145C
:102210002118D1E9017300EBC202079308324B7B0E
:1022200091F80C90245801930FCA10AD85E80F0067
:1022300024F07F40CDF82090FFF7BAF88D4B09F1DC
:1022400001099842814400F2C381994500F3A780B7
:10225000B9F1000F75DBFFF75BFC019B012B014619
:1022600007D0D6E90423B3F1FF3F08BFB2F1FF3F27
:102270006CD00291FFF7D8F90022BAF1FF3F08BFF6
:10228000B8F1FF3F0299099006926FD0A0457AEB12
:10229000070380F08980B4EB080067EB0A03B0F510
:1022A000000F73F1000380F09D81002843465DDD3F
:1022B0000698002840F08580651EA5EB030347F1D2
:1022C000FF3093420290049563DB39B9D6E90423C9
:1022D000B3F1FF3F08BFB2F1FF3F4AD1DDE902325F
:1022E000B5EB0B0B63EB02030393FFF79DF9039B25
:1022F0000930C2178345934180F0A080059B012BD4
:1023000000F0A780069B002B60D1BAF1FF3F08BF09
:10231000B8F1FF3F5AD0029BB8EB05026AEB03030A
:10232000052A73F1000180F23F81012A73F1000355
:102330002FDA4546CDF81080CDF808A04FF0000BFD
:1023400052E009F1F45909F5902984E7002890D169
:102350000290FFF769F90123BAF1FF3F08BFB8F116
:10236000FF3F02990990024606938FD103325B46E4
:10237000A2E7A21A67EB03030B920A93FFF74EF949
:102380000B9A0A9B824273F10003A7D2019B012B97
:10239000A4D04FF00008404617B0BDE8F08F09F117
:1023A000614909F5F70956E7B8EB04006AEB070342
:1023B000B0F5000F73F1000380F00F81A4EB08006B
:1023C00073E7307E002818BF002275E7029928467F
:1023D000FFF7ECFC4FF0000B029BB3F1FF3F08BF8F
:1023E000B5F1FF3F00F00381049B23F07F40231AE7
:1023F00023F07F43013BB3F5000FCAD2079B1B19A3
:102400001B1A23F07F43B3F5000FC2D8FEF7D0FFAD
:10241000194BA9EB000A9A4534D3A0EB0900984266
:10242000C0F0B480134B9A4528D8984240F2E4801B
:10243000C0F1614909F5F709CA4624E0DDE9013137
:102440002846B3F1010B18BF4FF0010BFFF7AEFCAC
:10245000C2E7BAF1FF3F08BFB8F1FF3F7FF469AFB1
:1024600040F27261702001F0F1FB00BF480B0020C8
:10247000C0070020FF7F841E0040420F0AF1F45A7B
:102480000AF5902AD146644B93F820301BB9B9F174
:102490001E0F40F384804A464FEAE9730020FFF79D
:1024A0001DFD804600283FF474AF019B3269012B6B
:1024B000736964D0BBF1000F3FD1B3F1FF3F08BF98
:1024C000B2F1FF3F7DD00120FFF7D2FD337E002B1C
:1024D00071D1B9F1190F40F394800025AAF11902C6
:1024E0002B460120FFF7FAFC28B133681D604FF03E
:1024F0008043C3F80855079B1293089B8DF84C3016
:10250000019B8DF84D3000238DF850300C934FF027
:10251000FF324FF0FF33CDE91047CDE90E230CAD6C
:102520000FCD3D4C0FC40FCD0FC495E8030084E8D8
:102530000300404617B0BDE8F08FB3F1FF3F08BF7E
:10254000B2F1FF3F0AD0FFF7BFF84FF0FF324FF074
:10255000FF33C6E90423BBF1000FB7D0099BEA1A89
:10256000029B4FF0050063F10003FFF7B7FC002862
:102570004CD0337E002BACD101233376A9E7B3F1E5
:10258000FF3F08BFB2F1FF3FE5D0DCE7224B93F8F5
:102590002030C0F10009CA46002B7FF47CAF40F226
:1025A0003571702001F052FB0299DDF818B0284611
:1025B000FFF7FCFB10E70520FFF7F8FC002333765C
:1025C00087E7FFF737F802F0C2F8C6E904017AE7B7
:1025D00040F21541702001F039FB40F2DA617020C1
:1025E00001F034FB40F2D661702001F02FFB40F285
:1025F0002171702001F02AFB40F2F171702001F08E
:1026000025FB40F25A71702001F020FB40F223219B
:10261000702001F01BFB00BFC80A00202DE9F04F1D
:102620008F4F7C7E04EB44033B4483B05D7A202DC6
:1026300048D08C4BE6B26400002B00F089808A4BB6
:10264000DFF82892002B5FD005EB461207EB420A19
:102650004FEA46189AF82030013BDBB2052B34D8FC
:10266000834A12F803B0BBF1080F2ED0AFF30080FD
:10267000EFF3108372B634443C449AF8212062721E
:10268000A27AAA4204BF2022A27213B9AFF300803B
:1026900062B6A84405EB450509EBC50207EB4808FF
:1026A000506859F835300122594688F8202098475B
:1026B0007C7E04EB44033B44E6B25D7A202D4FEA76
:1026C0004404C1D103B0BDE8F08F40F23D617020F9
:1026D00001F0BCFA62B6A84405EB450509EBC5025A
:1026E00007EB4808506859F835300122594688F8F8
:1026F000202098477C7E04EB44033B44E6B25D7A9D
:10270000202D4FEA4404DDD005EB461207EB420AC8
:102710004FEA46189AF82030013BDBB2052BD4D89B
:10272000534A12F803B0BBF1080FCED0AFF30080CC
:10273000EFF3108372B634443C449AF8212062725D
:10274000A27A954204BF2022A272002BC3D1C1E716
:10275000454BDFF81CB1DFF814A14FF02009002B26
:1027600051D005EB461207EB42024FEA461892F8A9
:102770002030013BDBB2052BA7D81BF8031008293A
:10278000A3D0EFF3108372B634443C4492F8212076
:102790006272A27A954208BF84F80A90002B54D046
:1027A000A84407EB480805EB45050AEBC5025AF8B3
:1027B00035305068012288F8202098477C7E04EB51
:1027C00044033B44E6B25D7A202D4FEA4404C8D16D
:1027D00078E762B6A84405EB45050AEBC50207EBAE
:1027E000480850685AF83530012288F82020984768
:1027F0007C7E04EB44033B44E6B25D7A202D4FEA35
:1028000044043FF45FAF05EB461207EB42024FEA88
:10281000461892F82030013BDBB2052B3FF655AF4E
:102820001BF8031008293FF450AFEFF3108372B682
:1028300034443C4492F821206272A27A954208BF47
:1028400084F80A90002BC5D1C3E70191AFF3008053
:1028500062B6A844019905EB450507EB4808A4E7D3
:10286000480B00200000000000000000C00700200E
:1028700054D201002DE9F04F85B0DFF810810193AB
:1028800001EB410343444FF0200C1C7A0391644553
:10289000924682F800C075D04B01DFF8F4900646EE
:1028A0009B4611E0727B012A02D0427D012A59D059
:1028B0000BEB040308EB43038AF8004093F8213044
:1028C000202BA4465ED01C4604EB440009EBC0005C
:1028D000D0E9032387683568716813EB070E42F16E
:1028E0000002754571EB02024FEA4403DAD21D463D
:1028F000019B83F800C0039B4FEA431B281909EB97
:10290000C0003768B368D0F808A07268C168DB19E6
:1029100042F100029A4571EB020310D3437D012B73
:1029200002D0737B012B03D0012005B0BDE8F08FEE
:10293000FEF77AFEAAEB070701308742F4DA019A24
:10294000254409EBC5051470A97DB27B0BEB04038C
:10295000914208EB430311D993F82140202CE3D096
:102960006500CBE70293FEF75FFEED1B0130854269
:102970009EDA029B9AF800C01D46B9E7002005B018
:10298000BDE8F08F019B1C70CEE700BF480B002014
:10299000C00700202DE9F04F83B00C4615461E46B7
:1029A0009DF83070FEF7CEFD22686368451946F148
:1029B0000006954276EB03033DD3DFF8848005E003
:1029C000554576EB090336D3C4E900A90DF1070399
:1029D0000DF1060239462046FFF74CFF60BB9DF81B
:1029E000073003EB430308EBC3039A68D3F810B036
:1029F0001BEB020A5A7DDB6843F10009012ADFD193
:102A0000637B012BDCD0FEF70FFE01308345D7DA64
:102A1000FEF70AFE9DF8073003EB430308EBC30300
:102A2000421C9968DB6812EB010A43F10009554525
:102A300076EB0903C8D2002003B0BDE8F08F00BFD9
:102A4000C00700202DE9F04715461C4612782F7A62
:102A500095F809C086B00023E360C4E90033A7738A
:102A60009DF8388084F80DC00646A360E2730F46D7
:102A7000B2BBFEF7ABFCD5E9042C394BC31841F1CE
:102A8000000E9A427CEB0E030AD3013E47F1FF375A
:102A9000C4E900674FF47A73A36006B0BDE8F0871D
:102AA000263041F1000182427CEB0103EDD3501E40
:102AB00004F10C0303AA6CF10001009304ABFEF7D0
:102AC000E7FC039B686848331844FEF73BFDDDE9EB
:102AD0000432C01A20F07F40C4E90032A060DCE775
:102AE000204804F10C0204A9FEF7A6FC1E4B1B783B
:102AF000202B22D01D490B69D1E90521053342F174
:102B0000000A13EB01094AF1000A6B68207B1844A4
:102B1000C4E9009A4830FEF715FD3246A0603B46F6
:102B20002869CDF800802146FFF734FF0028B4D192
:102B3000C4E9006706B0BDE8F087637B16F10909B8
:102B400047F1000A012BE0D0FEF7E2FF0028DCD1BC
:102B5000FEF76AFD10EB090399464AF1000AD4E733
:102B60000040420FFF7F841EC00A0020C80A0020D8
:102B70002DE9F047384DDFF8E48000EB40032B44AB
:102B800006461C7A4700FFF7FBF84FF0200C4FEA8F
:102B9000461E04EB440108EBC1010EEB0403D1F81F
:102BA00008A00A69AAEB000929F07F49B9F5000FCE
:102BB00005EB43030DD812EB0A02121A22F07F42F2
:102BC000B2F5000F05D8BCF1200F0BD12046BDE8AF
:102BD000F08793F82130202BA4461C46D9D1BCF1B4
:102BE000200FF3D0BB192B440CEB461205EB42022D
:102BF00093F8088092F821201A72710144464FF030
:102C0000040E0B1905EB430322469445204683F836
:102C100020E093F82140F4D1BB192B440A4493F8E7
:102C20000AE0BEF1200F5FFA8EFC18BF8C443E44D0
:102C300018BF05EB4C0C05EB4202354408BF83F886
:102C400009804FF0200318BF8CF82180A87282F809
:102C500021302046BDE8F087480B0020C007002047
:102C60002DE9F0414E4D01EB41032B4482B01E7A19
:102C7000202E0C4680464FEA410740D1494B0BB10C
:102C8000AFF3008001F063FDAB7E0191202B0AD0F1
:102C9000454BD3E904E210F1020C41F10003E64593
:102CA00072EB030330D3202E0AD042463346FFF79F
:102CB00095FA00283DD00220AE7602B0BDE8F08142
:102CC000D5E90423B3F1FF3F08BFB2F1FF3F1FD1A5
:102CD0002B7E43BB0420FFF769F901F046FD00207D
:102CE000FFF7C6F929684FF080422020A87600231C
:102CF00001200B60C2F8083502B0BDE8F08108463B
:102D0000FFF736FF8642B9D0002002B0BDE8F0815F
:102D1000FEF7DAFC4FF0FF334FF0FF32C5E9042332
:102D20002B7E002BD6D00520FFF740F900232B7611
:102D3000D0E73B192B4406EB441205EB420293F813
:102D400008C092F821201A726101624604201346DD
:102D50008A1805EB42029E4282F8200092F8212058
:102D6000F5D13A192A443C44967AF0B2202E18BF85
:102D70004018194418BF05EB400005EB41012544FC
:102D800018BF80F821C0AB724FF000004FF0200355
:102D900008BF82F809C081F8213002B0BDE8F08197
:102DA000480B002000000000C80A002038B5164A71
:102DB000164D4FF0FF304FF0FF310023C2E9020102
:102DC000C5E90401202142F22000A972136082F8B3
:102DD0002030A9761C4628816B762B766A1802F87B
:102DE00014300134202CFAD1094800F0ADFF094B12
:102DF000094A1C70107001F007F82860FEF766FFA2
:102E00000123EB7638BD00BFC80A0020480B002024
:102E10001D260000C00A0020F00A00202DE9F04F16
:102E200083B001F094FCDFF8788206460C4601F08E
:102E30009CFC4FF0FF334FF0FF32C8E9022398F8B3
:102E40002030CBB94FF40C71D8F81800FEF7AAFB6C
:102E5000D8F81030D8F81420D8F81810023342F1FE
:102E600000025B1842F100021B1842F100029E4270
:102E700074EB020380F004814FF0FF304FF0FF311C
:102E8000FEF794FF874A92F800B0BBF1200F00F0E4
:102E9000F280854D20231370AB766B7E0022C8F83C
:102EA000002003EB43022A445FFA83F9177A5B00A0
:102EB000202F00930AD0DFF8F4A107EB47030AEBB9
:102EC000C3037A00D97D012900F0B080009BDFF8B0
:102ED000E0A103EB09062E444FEA4917347A202C6F
:102EE00004D04846FFF744FE8442F7D1BAF1000F00
:102EF00001D0AFF3008001F02AFCAB7E202B09D07B
:102F0000D8E9042310F1020E41F1000C724573EB75
:102F10000C03E3D3202C37D023460122FFF75EF9C0
:102F2000002855D0AC7607EB0B0305EB430393F871
:102F30002020022A1DD1009A4A442A44062183F8FF
:102F40002010917ACBB220291CBFDB1905EB43037B
:102F50005F4418BF83F821B0009B08BF82F809B016
:102F60004B442B4405EB470783F80AB0202387F82E
:102F70002130FF23AB73009B4B441D446B7A202B05
:102F800065D103B0BDE8F08FD5E90423B3F1FF3F6D
:102F900008BFB2F1FF3F07D0FEF796FB4FF0FF32BC
:102FA0004FF0FF33C5E904232B7ECBBB0420FEF793
:102FB000FDFF01F0DAFB0020FFF75AF829684FF017
:102FC000804200232020A8760B60C2F80835AAE7CB
:102FD0003B1905EB4303307A93F8213033720246F4
:102FE00004211346BA1805EB42029C4282F82010D5
:102FF00092F82120F5D1B17AB372CAB220291CBF50
:10300000D21905EB42023B4405EB430318BF82F89B
:1030100021004FF0200208BF707283F821205DE785
:103020000520FEF7C3FF00232B76BFE75B7D012B56
:1030300014D1043644F1000417440AEBC70ADAE954
:103040000223B242A34128BFCAE902643EE7194BFA
:10305000187803B0BDE8F04F00F092BE0192FEF781
:1030600057FD019A0028E4D1FEF7DEFA8619019A8D
:1030700044F10004E0E740F2B221702000F0E6FDE8
:10308000084B0A4A1B78182101FB03F3D0180721CB
:103090004068D358984740F2A721702000F0D6FD31
:1030A000C80A0020C00A0020480B0020C0070020EA
:1030B00000000000F00A002038B50C460546FEF777
:1030C000E3FB12494B7E01F1200C5FFA83FE0CEB0F
:1030D000831C002302E00133202B14D01CF81320A2
:1030E000D8B2002AF7D10A4A03EB4E1E03EB430382
:1030F00001EB4E0142F8335002EBC303012281F889
:1031000020205C6038BD184638BD00BF480B002049
:10311000C007002010B5074C00EB400004EBC004D2
:10312000D4E90201FEF752F9237D0133181841F169
:10313000000110BDC00700202DE9F04FAF4A5368D1
:103140008FB0C3F3080383460491002B40F06A81DB
:1031500008230393049B1B78012B00F25282A84E94
:1031600026B1002140F22D50AFF300800023A54C82
:103170000593012726B1002140F23A50AFF30080B9
:1031800027B9A14B0BB1AFF3008062B6657EEDB2FB
:103190004FF00003A373039B002B40F09E80A846D2
:1031A00026B1002140F24E50AFF3008001F0CFFA7B
:1031B000049A00950AAB8246FFF744FC26B1002131
:1031C00040F25650AFF300800BEB481904EB49096D
:1031D0004FEA481799F82030013B012B7AD80A9919
:1031E0002AF07F4AA1EB0A0222F07F4323F0010379
:1031F000002B40F0C58008EB4802224407EB0B038C
:10320000907A04EB43030421202883F820104FEA2E
:103210004803C1B200F0A981394404EB410181F8AF
:1032200021B0434423445F4404EB470783F80AB0CA
:10323000202387F82130002305934FF0010826B1A1
:10324000002140F25B50AFF30080704B0BB1AFF345
:103250000080EFF310894F4672B6A37B002B89D113
:103260006B4F0BEB4B0307EBC3070AAB0FCB0837D6
:1032700087E80F00B8F1000F11D0039B002B00F07E
:10328000F180059B23B1634B1B78202B00F07081EC
:10329000637EDB4303F001036376FF23A373B9F17D
:1032A000000F04D1584B0BB1AFF3008062B626B1CA
:1032B000002140F29250AFF30080B8F1000F4DD1E1
:1032C00026B1002140F29E50AFF3008040460FB07F
:1032D000BDE8F08F4FF00008B1E74F4B05F1010951
:1032E00009F0010903EB851E03EB891CBEE80F0002
:1032F000ACE80F00BEE80F00ACE80F00BEE80F001E
:10330000ACE80F009EE80F002DB28CE80F00C84615
:103310000FFA89FA26B1002140F2D230AFF30080D3
:103320003E4B05EB45050AEB4A0A5A19595B927860
:1033300023F80A1053449A7056B1002140F2D63057
:10334000AFF3008026B1002140F24450AFF300807B
:10335000A37B002B7FF40EAF4D4621E7637E03EB8A
:1033600043031C44637A202BAAD026B1002140F2EB
:103370009950AFF300802A4B187800F001FD9FE7C9
:1033800022F07F42B2F5000F3FF635AF0C9B5B1881
:10339000A3EB0A0323F07F43B3F5000F3FF62BAFF7
:1033A0000DF127030DF1260229460AA8FFF762FA5C
:1033B000059000285DD108EB480222440423907A4E
:1033C00089F820304FEA48032028C1B2434418BF8F
:1033D000C91923445F4418BF04EB410104EB4707BC
:1033E00083F80AB04FF0200314BF81F821B082F8AF
:1033F00009B087F821304FF0010820E700ED00E028
:1034000000000000480B0020000000000000000049
:10341000C0070020C00A0020680B0020500B0020CD
:10342000F00A0020103B59B20029C0F2968001F149
:10343000604101F5614191F800335B090393002B72
:103440007FF488AE764B1B78202B00F0DF80049B46
:103450001B780393002B3FF482AE40F2265170207C
:1034600000F0F4FBFF23A373B9F1000F7FF41FAF4B
:1034700018E79DF826C09DF827E0F4451BD1BCF164
:10348000200F00F0A98007EB0C0304EB430393F833
:10349000213089F82130BC4404EB4C0C00238CF81B
:1034A00021B05F4404EB4707DDF814800593032344
:1034B00087F82030C3E6BEF1200F00F0AC8007EBA8
:1034C0000E0304EB4303BCF1200F93F8211000F02E
:1034D0008F8007EB0C0204EB42024FEA480392F89C
:1034E0002100069082F821104FF0050A3A1804EBEB
:1034F000420201468E45814682F820A092F82100C2
:10350000F4D103EB08022244079192F80AA0BAF121
:10351000200F5FFA8AFE68D0BE4404EB4E0E069A76
:103520008EF8212003EB08022244079982F80A90C2
:10353000394407EB0B024FF0200E04EB410104EB82
:103540004202F44581F821E082F82100A3D14344EE
:10355000234483F808B0059BA3E703F00F03043B63
:1035600013441B7E5B09039369E782F809B058E6B0
:1035700029460220FFF774FB00287FF489AE637EA2
:10358000DDF8148003EB430020440BEB431204EB03
:103590004202857A042182F82010DFB25A015B00D2
:1035A000202DE9B23B4418BF891823445A4418BF60
:1035B00004EB410104EB420283F80AB04FF0200310
:1035C00014BF81F821B080F809B082F82130B9F138
:1035D000000F7FF46CAE65E608EB480323441B7ACA
:1035E00089F821304FEA4803B1E70699517299E70B
:1035F00008EB480222444FEA4803107A0690117201
:1036000072E740F22A51702000F020FB40F2235173
:10361000702000F01BFB40F2CD11702000F016FB73
:10362000C00A002070B506280DD8DFE800F02C0491
:103630000C0C0C1B0D004E4A4FF080411268012308
:10364000C1F80835136070BD4A4B4B4A1B7803EB39
:10365000430302EBC300BDE8704052F833304068CA
:1036600004211847424C237E8BB3D4E90423B3F1E1
:10367000FF3F08BFB2F1FF3F69D00120FEF7F8FC21
:103680000023237670BD3A4CD4E90423B3F1FF3F05
:1036900008BFB2F1FF3F2FD0384E0120FEF7E8FC03
:1036A000737F012B03D0FEF733FA002856D0314D3B
:1036B0002B78202B27D0304C03EB430304EBC302C1
:1036C000002154F833305068BDE870401847294B4A
:1036D000294A1B78294903EB43034FF0FF344FF08D
:1036E000FF35C1E9024502EBC301BDE870404868FF
:1036F00052F8333005211847FDF79CFF01F027F8F9
:10370000C4E90401C8E7637ED9B203EB4303E218BE
:10371000137A202B27D003EB411104EB410191F8E0
:1037200021001072FF22A2730222134C81F8202084
:1037300003EB430204EBC2020021927D2B7086F85A
:103740002010002AB8D100F0F9FD2B78B4E7FDF77E
:1037500071FF00F0FCFFC4E904018EE740F2126142
:10376000702000F073FA4FF41171702000F06EFABF
:10377000480B0020C00A0020C0070020C80A002013
:1037800070B5224B1A78202A86B035D0204CD4E967
:103790000213B3F1FF3F08BFB1F1FF3F31D11D4E1E
:1037A00002EB420206EBC2060546D6E90201FDF72E
:1037B0000DFE337D00225B195241013342F10002BC
:1037C000181842EB01010DF10B0204AB009203AAA1
:1037D000FDF75EFE9DF80B20DDE904130F2A94BF70
:1037E00000220122521843F100030520C4E90223FC
:1037F000FEF774FB06B070BD40F2CC71702000F093
:1038000025FA40F2CD71702000F020FAC00A0020A5
:10381000C80A0020C007002038B5244B93F800E008
:10382000BEF1200F3DD0224D6B7E95F819C003EB01
:1038300043032B445FFA8CFC1B7A202B23D01D4CB6
:103840004FEA4C1C06E0634405EB430393F8213038
:10385000202B18D003EB430204EBC202917D81427E
:10386000F1D80EEB4E0E04EBCE04D4E9021320691E
:103870004018D2E9021243F10003814272EB0303C4
:1038800004D2002038BD4FF0FF3038BD0A4B081A73
:103890001C68FDF78DFD04F132038342F1D8001B53
:1038A00038BD40F60101702000F0D0F9C00A0020B8
:1038B000480B0020C0070020C80A00202DE9F04F67
:1038C0008E4B1D7887B0202D019000F01281DFF81B
:1038D0003092DFF8308299F8193003EB43034B4400
:1038E0000646D8F800001C7AD8F8103003930DF182
:1038F0001302D8F8183002938B46304405A9FDF71F
:103900009BFD814BA6F132029A426BD8DFF8FCA1F5
:10391000059BD8F8146005EB45050AEBC505A868BA
:103920001B182869D8F810501818401B20F07F4346
:10393000B3F5000F56D899F81920C8F81800202CB4
:1039400088F81EB0D2B200F0C7805201DC462021B8
:10395000934604EB440240190AEBC20246F1000E02
:10396000D2E90263864273EB0E034FEA440747D362
:10397000537D012B03D098F81D30012B36D0052044
:103980000091FEF713FB009999F819004FF0FF32F0
:103990004FF0FF332029C8E90223C0B240F09A80DB
:1039A00000EB400048442024037A544A99F8191047
:1039B000127802EB411209EB420282F82130D8F86A
:1039C0000030019A1344C8F80030FF2389F80E3004
:1039D000202C36D04E4B187800F0D2F9002007B0DA
:1039E000BDE8F08F012007B0BDE8F08F0091FDF732
:1039F0001BFE751B013085420099C0DA98F81EC085
:103A000027440AEBC707BB7D63450ED90BEB0403C4
:103A100009EB430393F82130202B16D02146D8E937
:103A20000456D8F818001C4693E7DDE90231D8F8AF
:103A300010205B189B1A0220C8F8183007B0BDE8A8
:103A4000F08F002007B0BDE8F08F0520FEF7AEFA3A
:103A50004FF0FF324FF0FF3399F81900C8E9022305
:103A6000C0B200EB40034B4404EB401209EB4202AE
:103A700093F808A092F821201A724600410153469B
:103A80004FF0050CCF1809EB47071A4694421D4624
:103A900087F820C097F82130F4D137184F440A44F2
:103AA00097F80AE0BEF1200F5FFA8EFC18BF8C4435
:103AB000304418BF09EB4C0C09EB420248444FF06C
:103AC000200114BF8CF821A087F809A0857282F824
:103AD00021106AE70C46C4E70520FEF767FA99F85B
:103AE00019004FF0FF324FF0FF33C8E90223C0B294
:103AF00056E740F62901702000F0A8F8C00A00201F
:103B0000480B0020C80A0020CE3F420FC00700200B
:103B1000F00A0020BFF34F8F0549064BCA6802F434
:103B2000E0621343CB60BFF34F8F00BFFDE700BFE0
:103B300000ED00E00400FA05094B01225A604FF045
:103B4000FF32C3F80823074B4FF48042C3F88020AC
:103B5000BFF34F8FBFF36F8FC3F88021704700BF53
:103B600000E0004000E100E0094B01225A604FF004
:103B7000FF32C3F80823074B4FF48052C3F880206C
:103B8000BFF34F8FBFF36F8FC3F88021704700BF23
:103B900000C0004000E100E0084B0022C3F8FC2F09
:103BA0000122C3F8FC2F064B0222C3F88020BFF38A
:103BB0004F8FBFF36F8FC3F8802170470010004014
:103BC00000E100E0F8B51A4E337805460C4617467A
:103BD0005BBBFDF799FB174B7760002D08BF1D46B7
:103BE00028463472FFF7D8FFFFF7BEFFFFF7A4FFA8
:103BF000FDF756FE0546B0B9FFF7D8F8FDF78EFD84
:103C000000F055FD002C0CDB04F01F026409A40039
:103C100004F1604404F5614401239340C4F8803109
:103C20002360012333702846F8BD4FF0FF35FAE7D3
:103C3000E80B00205AD2010008B572B6024B5B684F
:103C400003B19847FFF766FFE80B00201FB572B677
:103C5000134B5D688DB9FFF75DFFB2FBF6F2DCB286
:103C60000133002AF9D104F110036B4403F80C2C42
:103C70000A2234B901A8A847EDE7024600230A2624
:103C8000EDE7631E04AEDCB256FA83F3B0FBF2F646
:103C900002FB1600303003F80C0C3046E9E700BF99
:103CA000E80B0020074B93F90830002B09DB5A0979
:103CB000012103F01F0301FA03F34032024941F8E6
:103CC00022307047E80B002000E100E01B4B4FF46E
:103CD000805270B5C3F88020BFF34F8FBFF36F8F52
:103CE000174D184C0021C5F80011C3F88021266932
:103CF000236943F0100323610123C5F8043306F060
:103D000010062B60D5F80031A3B11EB9236923F04A
:103D1000100323610A4B0122D3F808055A60C3F847
:103D200008230022C3F80021044B4FF48052C3F84B
:103D3000802170BD00F08CFDE4E700BF00E100E0F1
:103D400000C0004000ED00E038B50C4902460520F7
:103D50000138C0B2FF2803D148216920FFF776FF60
:103D600001EBC0031D7905F0FF04002DF0D141F8EF
:103D7000302001225C719C711A7138BDF80B002053
:103D8000042808B503D958216920FFF75FFF094BC4
:103D900003EBC0000379012B01D05921F4E74379EB
:103DA00082790133DBB29A4218BF4371BDE8084003
:103DB000FFF778BFF80B002070B5124C06250026DF
:103DC000013D15F0FF0500D170BD94F8281004EBFB
:103DD000C1031A79012A09D158799A79904205D0FC
:103DE0005A79D2B29A7154F83130984794F8283001
:103DF0000133DBB2042B94BF84F8283084F82860A8
:103E0000DEE700BFF80B002008B500F0D3FC70B966
:103E100000F0D9FC58B900F0DFFC40B900F0EEFC2E
:103E2000044A054B002808BF1346184608BD024B3C
:103E3000FBE700BF00E701400C05004008B500F0BB
:103E4000DDFC08B3EFF3108072B6104A13691169F4
:103E500041F010011161A2F5406203F01003D2F8A5
:103E60000011D2F804210A4300D040BF20BF00BF98
:103E700000BF00BF00BF23B9044A136923F0100339
:103E8000136100B962B608BD20BFFCE700ED00E099
:103E9000014B1B681B68184744000020014B1B683E
:103EA0005B68184744000020014B1B689B6818475B
:103EB00044000020014B1B681B6918474400002088
:103EC00038B504201E4CFFF7A7FC2568854228BFA3
:103ED000054604212846FFF7F1FC20B1012820D037
:103EE0004FF4A27108E02368E068AB420DD1FFF700
:103EF00047FC20B94FF492716B20FFF7A7FEE268F0
:103F0000236822611344E36038BD05446089E5609D
:103F10000123281A2375FFF733FC60B94FF497711A
:103F2000EAE763892075E068C01AFFF729FC10B939
:103F300040F23B11E0E76289E3689B1A2361E3E703
:103F4000280C002008B50C4B1A7802F0FF0312B1C0
:103F50005A1E1A4203D0E0216B20FFF777FE19B1F9
:103F6000034207D1E521F7E723EA00039B0601D1CD
:103F7000E921F1E708BD00BF4800002008B50D4B5E
:103F800001221A764FF482721A841A68DA615A682A
:103F90009A62094A93F830000221117003F1180166
:103FA000FFF7CAF820B940F205116B20FFF74EFE6B
:103FB00008BD00BF280C00204800002070B5EFF3BA
:103FC000108572B6264C94F831600023012E84F8D7
:103FD000313006D0022E1DD0002E3BD185F3108843
:103FE00070BD85F3108894F8323003F0FF0123B1DF
:103FF00040F251116B20FFF729FE1420FFF7A2FFBA
:10400000184B84F832601B78012BE9D1BDE8704071
:10401000FFF7B4BF94F8322012B94FF4B171E9E759
:10402000104984F832300B78023BDBB21E2B0ED8DD
:10403000012202FA03F30C4A1342CFD144F20402E4
:10404000134204D020230B70FEF7E8FEC6E74FF4BE
:10405000BF71CFE785F310884FF4D271CAE700BF74
:10406000280C0020480000204100004070B5144C8E
:1040700094F8335025B140F287216B20FFF7E6FD1D
:10408000104B84F8325001261E700F4B0F484FF42E
:10409000C852C4E900230E4BA360FFF755FE294622
:1040A00084F834000B48FFF707F8202884F8300024
:1040B00002D140F29621E0E784F8336070BD00BF82
:1040C000280C002048000020FF3F420FBD3F0000A9
:1040D0000500B7004942000008B5104B93F83320A3
:1040E00022B940F2F6216B20FFF7B0FDEFF310810B
:1040F00072B693F8312022B1012A0DD040F2063178
:10410000F1E7022283F8312001B962B693F8340056
:10411000BDE80840FFF734BE0022F3E7280C00207A
:104120000B4B93F8333010B523B940F215316B20A7
:10413000FFF78CFDEFF3108472B6064B1A78102A45
:1041400003D108221A70FEF769FE04B962B610BDE9
:10415000280C00204800002070B5174B1B78042B5A
:1041600027D1164D2B7D1BB96B892868C01A70BDED
:1041700000F0AEFA10F11E0495F8300041F100068F
:10418000FEF7C8FF2B691B1841F100019C4276EB3A
:1041900001004FF000020CD2181B4FF0FF3361EB0F
:1041A0000601834272EB0103E1D2A7216B20FFF7E6
:1041B0004DFD0020DBE700BF48000020280C002058
:1041C00038B5144C94F8333023B940F2CB216B202E
:1041D000FFF73CFDEFF3108572B694F8313023B150
:1041E000022B0DD040F2DE21F1E7012384F83130BB
:1041F00005B962B694F83400BDE83840FFF7C0BD99
:10420000054B1B780022042B84F83120F0D110F0EC
:1042100093F8EDE7280C00204800002008B5094B72
:1042200019781029CAB207D0202A05D0042A04D14F
:1042300010221A7010F090F808BD40F2C3116B20E4
:10424000FFF704FD4800002070B50C46FDF798FD0F
:10425000062C4AD8DFE804F00453532823665F0095
:1042600001210220FFF76EFE314B324A93F83210E3
:1042700079B1042111701A68DA6000221A7593F876
:104280003130022B01D010F057F8BDE87040FFF735
:1042900017BE20231370BDE87040FEF7BFBD40F28B
:1042A0000F216B20FFF7D2FC214C94F83230E3B1A0
:1042B000204B1B78042B19D100F00AFA064694F81B
:1042C00030000D46FEF726FF237D012B0BD122691E
:1042D000121841F10003964275EB030303D3BDE8C6
:1042E0007040FFF79BBF0BF047F970BD124B0222E5
:1042F000C3F88020BFF34F8FBFF36F8FF5E7012125
:104300000220FFF71FFE0A4B93F8323033B1BDE8AD
:104310007040FFF733BE01212820F2E7054B012250
:104320001A70E2E7024B1B7D012BAED1D7E700BF2D
:10433000280C00204800002000E100E0014B012291
:104340009A777047600C00202DE9F04786468C462E
:104350000846089E154674461946002B40F0C28058
:104360008542B2FA82F245D94AB1C2F1200300FA7D
:1043700002FC2EFA03F3954043EA0C0C94404FEAFA
:10438000154EA8B2BCFBFEF8230C0EFB18CC08FBA4
:1043900000F943EA0C43994528D9EB1808F1FF3797
:1043A00004D2994502D9A8F102072B44A3EB0903D3
:1043B000A4B2B3FBFEFC0EFB1C330CFB00F044EA82
:1043C0000344A04214D92C190CF1FF3304D2A042AB
:1043D00002D9ACF102032C44241A43EA07401EB16F
:1043E000D440002334607360BDE8F0874746DDE7C2
:1043F0006346F1E792BB431B01214FEA154EAFB272
:10440000B3FBFEFC200C0EFB1C330CFB07F840EA50
:104410000343984562D9EB180CF1FF3004D298455C
:1044200002D9ACF102002B44A3EB0803A4B2B3FB06
:10443000FEFC0EFB1C330CFB07F744EA0344A742C7
:104440004ED92C190CF1FF3304D2A74202D9ACF19A
:1044500002032C44E41B43EA0040C0E7C2F12003FE
:1044600020FA03F1954090402EFA03F303434FEAFC
:10447000154EAFB2B1FBFEFC0EFB1C10190C0CFB71
:1044800007F841EA0041884504FA02F422D9691884
:104490000CF1FF3004D2884502D9ACF10200294466
:1044A000A1EB08019BB2B1FBFEFC0EFB1C110CFB47
:1044B00007F743EA01439F420ED9EB180CF1FF3195
:1044C00004D29F4202D9ACF102012B44DB1B41EA2A
:1044D000004192E76046E3E76146F7E76046A3E7FD
:1044E0006346B7E7834206D916B9002108467BE741
:1044F000C6E900E0F9E7B3FA83F78FB9834201D345
:10450000724508D8BEEB020460EB030301209C4611
:104510001EB9002168E73846FAE7C6E9004CF8E71B
:10452000C7F1200CBB4022FA0CF41C432EFA0CF10C
:1045300020FA0CF3B84001434FEA14490EFA07F58C
:10454000B3FBF9F81FFA84FE09FB18300B0C08FBCB
:104550000EFA43EA00439A4502FA07F240D9E318FB
:1045600008F1FF3004D29A4502D9A8F10200234491
:10457000A3EB0A0389B2B3FBF9F809FB183308FB74
:104580000EFE41EA03418E452CD9611808F1FF3334
:1045900004D28E4502D9A8F10203214443EA004027
:1045A000A0FB0298A1EB0E014145CE46434602D343
:1045B00006D14D4504D2B9EB020E68EB0403013875
:1045C000002EA6D0B5EB0E0261EB030101FA0CFC44
:1045D00022FA07F34CEA0303F940C6E9003198E7F1
:1045E0004046C5E74346D9E7FCF78EBE801A00F384
:1045F000070038B540B20D4659B21446FCF774FEB8
:104600000023287020446B7040B238BD73B5A0F110
:104610000B040E46E1B20F29154603D94F21642041
:10462000FFF714FB0DF1030332460420FCF718FEDC
:10463000034608B15821F2E704EB840404F665143C
:104640009DF90300A2B201A9FCF7FAFD9DF8043020
:104650002B709DF805306B7002B070BD00230360B5
:104660007047002070474FF0FF3070474FF0FF3029
:10467000704770477047002070474FF0FF30704719
:10468000002070470020704700230370704700220D
:10469000FFF7ACBF002070474FF0FF3070474FF07E
:1046A000FF3070474FF0FF307047C0B2704770B5B1
:1046B000FCF76AFE002405462646E0B2854200D893
:1046C00070BDFCF767FE0134868480F82660F4E74D
:1046D000FDF75CBB08B500F0AFF828B14FF08043A0
:1046E0000222C3F8342C08BD00F088F80028F5D168
:1046F00000F099F80028F1D1F5E74FF0804301224E
:104700001A6070474FF08043D3F8080400F00100AE
:1047100070474FF08043D3F8140400F00100704755
:104720004FF08043D3F81C0400F0030070474FF0B3
:1047300080410246D1F81804D1F8181410F48030E2
:1047400004D001F00300831A58425841704707B55E
:104750006846FDF713FADDE900024FF0807300218F
:10476000E2FB030103B05DF804FB08B5FDF7F0F9C7
:10477000BDE80840FDF7DAB903460020187070471D
:10478000EFF3108272B603780121DBB2017002B937
:1047900062B6012B0CBF6FF0220000207047EFF3D0
:1047A000108372B60022027003B962B6002070470F
:1047B000FFF702BB4FF08053D3F83001A0F10F0395
:1047C0005842584170474FF08053D3F83001A0F160
:1047D0000A035842584170474FF08053D3F83001D4
:1047E000A0F10E035842584170474FF08053D3F860
:1047F0003001A0F110035842584170474FF08053E8
:10480000D3F83001062803D0431C58425841704762
:10481000012070474FF08053D3F83001A0F10D0311
:104820005842584170474FF08053D3F83001A0F1FF
:10483000080358425841704708B5FFF7C4FF30B12C
:104840004FF08053D3F83401B0FA80F0400908BD2E
:10485000FFF7F4BAFFF7F2BA00280CBF6FF01500AB
:104860000020704700207047072303700020704726
:10487000002070470020704710B50446FFF76CFC1D
:10488000A04294BF0020012010BD10F8012B11F8A8
:10489000013B012A28BF9A42F7D0D01A704703463D
:1048A00011F8012B03F8012B002AF9D170470346B8
:1048B00013F8012B002AFBD1181A013870470000A9
:1048C0002DE9F04706468AB00F46904617F003FEE2
:1048D0004FF47A73A0FB034503FB0155E40B012F52
:1048E00044EA45444FEAD53508D1CDE900452A4A86
:1048F0000821304614F0A0FF002013E0D8F804701F
:1049000026483946FFF7C1FF78B125483946FFF7F9
:10491000BCFF50B13046234A3B46012114F08CFFC6
:104920006FF004000AB0BDE8F0872046294618A3BE
:10493000D3E90023FCF7E4FB05460C461046194674
:10494000194A0023FCF7DCFB80460F461046194647
:104950004EF660220023FCF7D3FB824689461046C0
:1049600019464FF47A720023FCF7CAFBCDE904A97B
:10497000CDE90601CDE90823CDE90287CDE9005450
:104980000A4A0821304614F057FFB5E7AFF300801C
:10499000005C2605000000004BE001005CE0010027
:1049A0005FE0010068E0010080EE36007FE001007A
:1049B0002DE9FF4714461A7C07697D2A0E46814679
:1049C000D968984600F2DF8007F58055931C284689
:1049D0002B72093018F0BCFA07F57F6A50460DF0CB
:1049E00067FF012E07D9022E4DD06FF085042046B7
:1049F00004B0BDE8F0870023ADF80D3094F84A30DC
:104A0000C3F34002C3F380038DF8093001238DF80E
:104A10000B30634B8DF8082007F5805093F8B430C5
:104A20008DF80C3006F0010602A908308DF80A60F6
:104A300008F074FA002845D0594BD3F8AC301BB1BC
:104A400042460021484698474FF0FF324FF0FF336F
:104A500050460DF007FF95F8B22094F84A3062F303
:104A6000410384F84A3095F8B320DBB262F3820345
:104A700084F84A3095F88830052B23D8DFE803F016
:104A8000251F808622800023ADF80C3094F84A3030
:104A9000C3F34002C3F380038DF8093001238DF87E
:104AA0000A303F4B8DF8082007F5805093F8B4305A
:104AB0008DF80B3002A9083008F062FABAE76FF0FF
:104AC0000F0494E76FF0040491E7D5F89440002CAC
:104AD0008DD007F5855858E9023213434AD024781F
:104AE000386800220023CDE9002300231A4621461E
:104AF00004F02AFE064600283FD0D5F8941022463E
:104B0000013115F0CEFE002831DB95F8A03086F893
:104B1000483095F9A130AE339BB2FE2B28BFFE235F
:104B200086F8493058F8080C58F804CC4FF47A74D9
:104B3000A0FB040104FB0C1117A3D3E90023FCF72D
:104B4000DFFAC6E90801B262304615F003FE3868A4
:104B5000314613F07AFE0024304615F0C2FDD5F838
:104B6000940016F08AFB0023C5F894303FE76FF0FD
:104B70000B04F1E76FF02204F1E76FF00B04EEE7AE
:104B80006FF0220433E76FF0790430E76FF06804C8
:104B90002DE700BFAFF3008000CA9A3B0000000081
:104BA000001D0020000000002DE9F34706464FF0ED
:104BB000FF384FF0FF3900F58F6A4FF0FF324FF0AA
:104BC000FF3350460DF0F6FD43681F78044600237E
:104BD0001A463946CDE90089306804F0B5FD6168B0
:104BE0003A460131054615F05CFE074670BB237C52
:104BF00085F8483094F91130AE339BB2FE2B28BFB4
:104C0000FE2385F84930A27C95F84A3062F3000310
:104C100085F84A30A068D4F80CE04FF47A71A0FB14
:104C2000010C01FB0EC10EA3D3E90023FCF768FAC7
:104C3000C5E90801AA623068294600F07BF800281F
:104C400004DB6068676016F018FBB6E70023606855
:104C5000636016F012FB284615F043FDADE700BF78
:104C600000CA9A3B0000000008B5064B00214FF433
:104C70000050C3E90001044B04481B68DB699847F6
:104C8000002008BDC01D0020543D002040D101007F
:104C900008B5064B00214FF40040C3E90001044B66
:104CA00004481B681B6A9847002008BDC01D0020EF
:104CB000543D002040D1010010B5084B1978002068
:104CC00081F00101197007F02DFD054B0548BDE885
:104CD0001040D3E900230DF0BFBF00BF45620020A4
:104CE000C01D002050000020012910B50B460446CD
:104CF00004D002290BD00B4A082105E016F092FAE5
:104D0000094A03460821204614F096FD08E0506841
:104D100017F08BFF054B1B6881B2DB68044898478E
:104D2000002010BD70DF010036F00100543D00206E
:104D300040D101002DE9FF470C46002951D0886879
:104D4000002851D0C368002B4ED0038A002B4BD0D3
:104D500015F078FBA368D0F80C900027002B3CD10D
:104D600094F849502249236A626A94F84880FF2DDA
:104D7000A3FB013A18BFAE3D01FB02AA08BF1D4DBF
:104D8000A26A18BF2DB24FF47A71B2FBF1F29E18ED
:104D9000194B19784FF0030081F001014AF1000A24
:104DA000197007F0BFFC154AFF233946484614F036
:104DB00018F8CDE9026A1248CDF804806DB200956A
:104DC0000E4B104A0068082114F036FD204615F0FD
:104DD00088FC002004B0BDE8F0871A8A5B6817449D
:104DE000BCE76FF01500F5E76FF03C00F2E700BF9D
:104DF00040420F000080FFFF446200204662002016
:104E0000503D002092DF010030B587B007F074FC00
:104E100001F03CFF114B124918604FF4004200238F
:104E20001048114C114DC1E900230DF015FF182257
:104E30000021684618F0B4F801238DF800300020F6
:104E4000A3682B6016F02DFA2B686A469B6A032133
:104E500020469847002007B030BD00BF503D0020DD
:104E6000C01D00205000002040D10100543D002012
:104E700008B500F0B7F80A4941610A490122C0E9C2
:104E800000220A6008490A60084A00231360084AA1
:104E900003611360C0E90233064A136008BD00BF16
:104EA000ADE101004C01002048010020603D0020E0
:104EB0005C3D0020583D00202DE9F04107460E469C
:104EC000154600F08FF8C36804461BB943691A7889
:104ED000002A41D10023E3606368BB4256F82320D7
:104EE00008DB324B6361204600F062F84FF0FF3080
:104EF000BDE8F081511C616192F80080B8F12D0F7E
:104F0000EFD1911C61615178A1602D2904D1927873
:104F10006AB901336360E4E749B9244B63614146F0
:104F2000284617F096FE0028DDD0C4F80880D4F893
:104F300008802846414617F08CFEB8F13A0F6369A5
:104F400000D070B91B7813B96368013363602046E1
:104F500000F02EF83F20CBE75A1C42611B7883609B
:104F6000E5E742783A2A0BD0002222611B7813B978
:104F7000636801336360204600F01AF8A068B7E761
:104F800018786268094928B901329742626004DDE5
:104F900056F82230C4E90431EAE761612D783A2DF0
:104FA0002046D5D100F004F82846A1E7ADE1010084
:104FB000074B02681A60074B42681A60064B82680A
:104FC0001A60064BC2681A60054B02691A60704786
:104FD0004C01002048010020603D00205C3D002085
:104FE000583D00200048704730010020014B1B68ED
:104FF000184700BF5001002030B585B004460D466B
:1050000010220021684617F0CBFF02238DF80230F2
:105010002A46044B01932146684612F0BDFA05B0BA
:1050200030BD00BFED4F0000014B1860704700BF5E
:105030005001002080B505460E46174698460EF0F2
:10504000D9F9034617F0BCFFDFF81890044649F879
:105050000030424630463946A84754F8090003F06C
:10506000C1FE00BF080000002DE9F047058B044693
:105070002807904611D4022905F0070540F0CC809E
:10508000204613F0F3FE78B10138218B042811D8A3
:10509000DFE800F0C2106D85950001290CBF45F0D6
:1050A000100545F02005258388F31188BFF36F8F25
:1050B000BDE8F08701F0070AAA4500F0A5800027A7
:1050C000B9463E46A368002B00F0BC8041F00801C1
:1050D000218388F31188BFF36F8FA168002900F046
:1050E000BA800D68002900F0B680D1F804803346FC
:1050F00052462046C047002D76D02B6829461D46D3
:10510000F0E701F007035A1F012A1BD8002221F003
:105110000701062B276889B2C4E9002209D13B4662
:1051200003E0628B013262831B68002BF9D141F0EE
:1051300002012183204613F099FE00287AD041F025
:10514000200176E0042B0AD121F0070189B22183E6
:10515000204613F08BFE10B141F020012183218BFA
:1051600001F0070AAA454FD00027B946AAE72369EC
:1051700021F0070141F00601062DD3F800902183AC
:105180002DD1B9F1000F3FD041F00801218388F300
:105190001188BFF36F8F3A492046C84729E021F0B4
:1051A0000701236941F0040189B2042DD3F804906A
:1051B0002183E6D000273E464FF0040A82E721F023
:1051C0000701236941F0050189B2052DD3F8089044
:1051D0002183D6D000273E464FF0050A72E700270C
:1051E0003E464FF0060A6DE72B4687E7B9F1000F00
:1051F000D1D1EFF31188402383F31288BFF36F8F6F
:10520000238B23F008032383258BEA062ED525F074
:105210001003238305F007056669218B002EBFF676
:1052200070AF00232768C4E9003321F0070141F083
:1052300001012183218B01F0070AAA454FF00009E3
:105240007FF440AF002F9CD041F00801218388F308
:105250001188BFF36F8F002FC8D03D6839463346A1
:105260005246204613F02EFE2F46F4E7AB067FF59C
:105270001BAF25F02003238305F0070500E700BFDF
:10528000F18E0100014B036000207047A4D501009E
:10529000F0B40C4B0C4E5F6A0C4BB34203D36FF06F
:1052A0008500F0BC70475D68BD4209D31C693CB104
:1052B00095F802C00579AC4502D12346F0BC1847E9
:1052C0002433EAE7643D0020500700202C0700202B
:1052D0002DE9F047134CDFF85080DFF85090054679
:1052E0000E461746444503D36FF08500BDE8F087AE
:1052F0006268D9F824309A4212D3A36983B19078B6
:105300002979884205D13A4631462846BDE8F0471A
:1053100018475279012A03D13A4631462846984720
:105320002434DFE72C07002050070020643D0020D4
:105330002DE9F0410B4CDFF8308005460E4617464C
:10534000444502D36FF0850009E063690BB924344A
:10535000F6E73A463146284698470028F7D1BDE897
:10536000F08100BF2C0700205007002010B5044634
:1053700015F0DEFA10F1780F00D050B9054A20463A
:1053800013F042FFD2F8C43023EA0003C2F8C4305D
:10539000002010BD643D0020024B00221A605A60BC
:1053A000704700BF1F3E002070B50B4B0B4CA34253
:1053B00001D3002070BD196A1E7F00220439D5B2C6
:1053C000AE4201D82433F2E7013211F8325085425F
:1053D000F5D10120EEE700BF2C0700205007002088
:1053E00008B509480378C3F341130A3350F8233052
:1053F0003BB100F1080200F110019847C043C00F13
:1054000008BD1846FCE700BF643D002004282DE9D4
:10541000F14FDFF8989004460F4616D001282DD1A1
:10542000DFF88C8098F8B93043B300F0DDFD214DF2
:105430004D4520D2D5F820B04FF0000A2B7F5FFAFF
:105440008AF6B34204D82435F2E7FFF7A5FFE7E771
:105450000BEBC6060AF1010A307915F069FA02462B
:10546000307913F0D1FED8F8C430002A23EA0003C3
:10547000C8F8C430E2DA002388F8B9300D4D4D4544
:1054800008D30B4B1B6A6BB13946204601B0BDE80F
:10549000F04F1847EB681BB13A462146284698471B
:1054A0002435ECE701B0BDE8F08F00BF50070020C5
:1054B000643D00202C07002073B5C4B263060D467E
:1054C0008DF8074007D02046FFF76EFF78B10D4BEF
:1054D00093F8BA0058B10B4E204655B104F01CFDAC
:1054E000F3691BB10DF1070108209847012002B0B4
:1054F00070BD04F039FDF369002BF7D00DF1070101
:105500000920F2E7643D002073B586788DF80060CD
:10551000037942791C4C43EA0223ADF80230C37888
:10552000304603F003038DF8043013F06DFED4F819
:10553000C430184205460BD0304600F037FD3046E7
:10554000FFF714FF16F054FE10B996200DF034FF4B
:10555000684604F0BDFC10F1780F03D010B10020B4
:1055600002B070BD9DF8000004F03AFD10F1780F14
:1055700001D00028F3D1D4F8C43001202B4384F8A3
:10558000B900C4F8C430EBE7643D00202DE9F047D2
:10559000924DAB6904460E461746C3B9207800F019
:1055A0001F00012876D0022800F0DC8000BB94F9AF
:1055B00000103A68637800292EDA062B0CD0082BED
:1055C00025D0ABB9537001231370022303E1984730
:1055D0000028E3D100200DE06388190A0A1F012A80
:1055E0008C4605D9072903D8DAB26B6A1C781CB936
:1055F0006FF01500BDE8F0875D78654503D1824204
:1056000000F0E48001302344F0E71B78E3E095F8F4
:10561000BA3013700123DEE0052B11D0092BE7D13E
:1056200063886E6A002B32D1FFF7B6FE638885F877
:10563000BA30EB69002BCDD0694903209847C9E700
:10564000A07804F033FC0028C4D0D1E77378042B91
:1056500010D0052B11D0022B04D177796388BB427F
:1056600008BF012033781E443378002BEED1002888
:10567000BED0D9E796F80380F4E76388BB42F1D146
:10568000B8F1000FEED13046FFF73EFFEAE7FF2703
:10569000B846E9E795F8BA30D7F800C0002BA7D094
:1056A0006F6AA28894F804E03B46187800289FD0DF
:1056B0005978022904D193F80480F04500F29280D1
:1056C0000344F2E78CF800308CF80130316081E758
:1056D0001F4493E00B2B8BD100264FF0FF08C146EF
:1056E000B24606E07B78042B0FD0052B21D03B7807
:1056F0001F443B78002BF5D1EB6913B151460720CD
:105700009847002E7FF466AF72E797F80280A3886F
:1057100097F803909845EAD163889945E7D1B8F1A5
:10572000070F1CD805EB0803BA4683F8BB90012687
:10573000DDE7A3884345DAD1A3784B450AD0BE788C
:10574000304600F033FC3046FFF710FEB0FA80F62A
:105750007609CCE73846FFF7D7FE0646C7E7BA46D4
:105760000026C4E794F900206378002A18DA002B99
:105770007FF43EAF24793F6863060AD02046FFF7E6
:1057800013FE00283FF434AF95F8BA30002B3FF4F5
:105790002FAF3946204604F007FC00237B7014E746
:1057A000012B08D0032B7FF423AF6388002B7FF4F9
:1057B0001FAF012103E0618800297FF419AFA088A1
:1057C000FFF77AFE00287FF405AF11E702293B605E
:1057D0007FF41BAF5B883360FCE600BF643D0020B4
:1057E0001E3E002094F9000063780028BFF672AFD7
:1057F000002B3FF467AF0A2B7FF4FAAE3B78002B07
:105800003FF4F6AE797804297FF462AFB9788A4222
:105810007FF45EAF072A96BF5219002392F8BB307F
:105820008CF80030F6E600BF13B5164C237DF3B9B3
:10583000E268A168019201AB802013F0F3FC019AA9
:10584000A3681344A360E3689B1AE3606BB962B179
:105850002369E2889A4208DD94F8C82093FBF2F1AC
:1058600002FB11330BB90123237502B010BD0023D5
:105870001A4619468020237502B0BDE8104004F096
:10588000D9BB00BF643D002030B585B0002302467F
:105890000D460193002858D1002935D108220B4626
:1058A0000DEB020115F05DF8002804DA802004F009
:1058B00033FB05B030BD2A4C029A2260039A626025
:1058C00004F13802A2609DF90820BDF80E3025755C
:1058D000002AC4E903550ADB802B04D9802004F098
:1058E0001BFB0020E3E713B1C4E90333E1E7FFF753
:1058F00077FD0028DAD0E28823699A42D4BFE260BB
:10590000E360FFF791FFD4E7154CD4E90215002DB1
:1059100001AB04DC15F025F80028CADAC6E72A46F0
:1059200015F01FF80028D9DB019AA3681344A3607F
:10593000E3689B1AE360002BBBD104F13803A3603A
:10594000FFF74EFD0028DCD1B0E78028B1D1044B31
:10595000DA68002AD5D11B7D002BD2D1A9E700BF80
:10596000643D0020054B064A9A62064ADA62064AFE
:105970001A63064A58629A6100207047643D00200D
:105980008D5500009152000031530000D1520000AB
:105990002DE9F3410446474D47484FF0FF334FF0A0
:1059A000FF320CF053FE95F8B830002B7BD16B6AB8
:1059B00083B142482C62E8616E6A04F055FC04F041
:1059C00043FA041E10DA3C480CF0B8FE204602B040
:1059D000BDE8F08100F0BEF8FFF7C4FF6B6A002B52
:1059E000E7D14FF0FF34EEE700F020FB041EEADBC6
:1059F0007378012B5AD1F379002B57D000266846D3
:105A000085F8C830ADF802308DF804608DF800607C
:105A100004F05EFA041ED6DB802768468DF800701D
:105A200004F056FA041ECEDB2549304604F008FC8B
:105A3000041EC8DB2249384604F002FC041EC2DB07
:105A4000204CDFF8848044451AD3002004F0C8FAC3
:105A5000041EB8DBD5F8C430802043F00103C5F83C
:105A6000C43004F0BDFA041EADDBD5F8C43043F4F5
:105A70008033C5F8C430012385F8B8300024A2E78C
:105A8000276A0026227FF3B29A4201D82434DAE74B
:105A900007EBC30257F83310107904F0D1FB01363D
:105AA0000028EFD09DE76FF077048CE76FF01504C6
:105AB00089E700BF643D0020B00500200D540000C0
:105AC000895800002C0700205007002030B51F4BDC
:105AD0008BB005AA03F1100518685968144603C471
:105AE0000833AB422246F7D11B78237010220021E5
:105AF00001A817F055FA12220021154817F050FAA4
:105B0000102101A815F05DF800281BDD0828B8BF9A
:105B10000820093801AB0E491A18002012F8013F7D
:105B20000AAC04EB131403F00F0328336B44013069
:105B300014F8144C13F8143C0C7008284B7001F145
:105B40000201EBD102480BB030BD00BF0AE00100FA
:105B5000466300202DE9F04F744B93F800B087B0F6
:105B6000BBF1000F03D0724807B0BDE8F08F704C56
:105B700000264FF0011AB0463546B14623783BB9AE
:105B80006C4B02349C42F3D1684A01231370EAE75C
:105B90006378052B1BD8DFE803F08E03C68E1D3912
:105BA000402304A88DF810B0ADF812308DF814B071
:105BB00014F0A9FE40B1082304A8ADF8123014F087
:105BC000A2FE08B1ADF812B0BDF81230E37123782F
:105BD0001C44D3E7E378002BF9D1A3786BB108F12B
:105BE00001085FFA88F8F2E76B689C4207D0243519
:105BF000514B9D42F8D30020B6E7504DF8E7AB6813
:105C0000002BECD0414620469847E8E7002DF2D023
:105C100000222B7F9A42EED2296AA07801EBC201C2
:105C20000B79984201D00132F3E70127E07800F0C8
:105C300003008DF81400207994F805C040EA0C2088
:105C4000ADF8120094F902000028FBB228DA07F13F
:105C500010004FF0010C0CFA00F010EA0A0F26D1E8
:105C600043F080008DF8100004A8CDE902130192E2
:105C700014F049FEDDE90121039BC0B99DF8102015
:105C8000A27012F0800F18BF10330A7118BFDBB278
:105C90004FF0010214BF9A40BA404AEA020A96E75E
:105CA0000120B84010EA0A0F01D11846DAE701379F
:105CB000102FBBD1B7E7032E1DD1FFF707FF074613
:105CC00068B1FEF7F4FD102809D13846A31C07F18E
:105CD000100250F8041B43F8041B9042F9D12378BA
:105CE0006FF00201E218091B04EB5303D14213D5F4
:105CF0000136F6B26BE7002EF1D1B9F1000F3FF497
:105D00007AAFA4EB090389F80230C3F3072389F8BB
:105D1000033089F80480EBE702F801BC13F80109AD
:105D200002F8020DE2E7A14651E700BF45630020FB
:105D30004C06002029070020500700202C070020D7
:105D400010B5094B00211A461C78844205D15C68C5
:105D50001CB1482303FB012010BD0131042903F1CC
:105D60004803F1D10020F7E7303E00202DE9F34150
:105D700050F8303C10F8346C103304460AD10369F3
:105D800050F8282C980736D5D2B9590715D50023D5
:105D900044F8303C54F8303C10330BD054E90975CA
:105DA00054F81C8C16F024FA00284FD02E482146B7
:105DB00016F002FA02B0BDE8F08143F0040323615B
:105DC00054F82C1C01AB304613F02CFA10B16FF0D4
:105DD0001503DDE7019A54F82C3C134444F82C3C9D
:105DE00054F8283C9B1A44F8283C54F8243C1344AB
:105DF00044F8243CCEE754F82C1C01AB304604F0A8
:105E000095F90028E3D1019D54F82C3C2B4444F82B
:105E10002C3C54F8283C5B1B44F8283C54F8243CA8
:105E20002B4444F8243C002DB1D0304604F022FA33
:105E3000B5FBF0F303FB1055002DA8D154F8283C16
:105E4000002BA4D0304604F0B9F9A3E744F8200CA5
:105E5000A4F118000CF0E0FC002DABD0424639460E
:105E60003046A847A6E700BFC81D00204B1E012BE7
:105E700073B506460D460FD8FFF762FF044668B9B2
:105E8000012D09D101AB01220DF10301304604F0CF
:105E90004DF9019B002BF5D102B070BD16F0A8F9A9
:105EA00004F1340108B1012D05D1084602B0BDE866
:105EB0007040FFF75BBF034802B0BDE8704016F0CA
:105EC0007BB900BFC81D00202DE9F74F8046009127
:105ED0001746994613F0F1F9044600285CD1EFF318
:105EE000118B402383F31288BFF36F8F2C4900225C
:105EF0000846002301910CF0B5FC019968B9DFF860
:105F0000A4A0482262430AEB02056E6816F1100F46
:105F100012D108460CF080FC06E00134042C01F19B
:105F20004801E4D16FF00B068BF31188BFF36F8F3C
:105F3000304603B0BDE8F08F0AF802800C9A009B4F
:105F40006A610D9A2861AA6140466FF00F02C5E9A7
:105F50000237C5F844906A6004F08CF958B14046A5
:105F600004F088F9B7FBF0F202FB10771FB16A6CFE
:105F700042F004026A6419F0020F08D0482202FBC2
:105F800004A10948343116F017F90026CCE7404641
:105F900004F014F90646C7E76FF00F06C8E700BF24
:105FA0004C3E0020303E0020C81D002010B5EFF30D
:105FB0001184402383F31288BFF36F8FFFF7C0FE75
:105FC00050B14368103307D16FF08B03436000F189
:105FD0003401044816F0F0F884F31188BFF36F8F92
:105FE00010BD00BFC81D0020F8B50E4C0425402789
:105FF000EFF3118687F31288BFF36F8F6368103356
:1060000007D16FF08B030848636004F1340116F088
:10601000D3F886F31188BFF36F8F013D04F1480474
:10602000E6D1F8BD303E0020C81D002070B50A4CF6
:106030000A4E00253146204616F0A2F80122A4F1AE
:1060400018001146013516F04CF8042D04F14804EF
:10605000F0D1002070BD00BF643E00206D5D0000E7
:1060600070B504460E4601791548154613F001F93E
:1060700010B394F900206378002A16DB202B04D09B
:10608000222B0ED06FF085000AE02B681A6840F8CA
:10609000102C9A8820F80C2C9B7900F80A3C0020E0
:1060A00070BD638800F8093CF9E7212BEAD110386C
:1060B000072328603360F2E76FF01200F0E700BFBB
:1060C000503F002008B50146034813F0E0F810B136
:1060D000012300F8073C08BD503F0020016901235F
:1060E00081F84B300B6833B191F849301BB102484D
:1060F000083116F061B87047C81D002001690123FE
:1061000081F84A300B6833B191F848301BB102482E
:10611000083116F051B87047C81D002070B5012332
:1061200082F8483013680D4614463BB192F84A3065
:1061300023B10E4802F1080116F03EF8D4F8903071
:106140009A681B699A4205D17DB904F1180140F69D
:10615000CD4204E004F11801002DF8D00022BDE882
:106160007040024800230CF019BD70BDC81D00200E
:1061700038B5056995F89E0088B195F89F307BB9D0
:1061800085F84830D5F8900012F0C9FF0022044687
:106190000023044805F118010CF000FD204638BD2D
:1061A0000020FCE7C81D00200D4A03460021A0F88E
:1061B00048101068C3F8940090889279A3F898006A
:1061C00083F89A2083F89C1083F89B10A3F89E1004
:1061D00083F8A010402203F14C0016F0E1BE00BF8E
:1061E00078D20100F0B5D0F88C305B681B6A1F7D57
:1061F00085B00446384613F060F80646F8B994F8BE
:106200008630E3B1A06F4FF4806203A912F0A6FFBD
:106210000546A0B18306A4F1180308BF00F1FF35BD
:1062200084F830600193074B039900932A460223B8
:106230003846FFF749FEA06F294612F0AFFF05B0C0
:10624000F0BD00BF1D61000010B504690023C4F853
:10625000A8300C4BC4F8A400596804F1A80269B92D
:10626000C3E9002204F10800074915F089FF04F191
:106270001800064915F0B0FF002010BD0A605A60F2
:10628000F0E700BF503F0020E5920100E56100000B
:1062900030B54FF40033426805690D4C85B042F2C9
:1062A000A100CDE90103002385F89D30106AADF807
:1062B0000C1000790A2201A912F0B4FF95F89D3064
:1062C00023B9012015F07AFD013CF7D105B030BDAE
:1062D000A186010013B504698DF80710002384F826
:1062E0004830D4F8900001220DF1070112F017FF99
:1062F00010B915F07DFF40B12122002304F11801EF
:1063000006480CF04BFC02B010BD94F8A130002BF5
:10631000F2D0002121200DF031F8E2E7C81D002065
:1063200037B514460A1E054620DDD4F88C0004F16A
:106330004C0112F0F4FE012384F8493023683BB18C
:1063400094F84B3023B1114804F1080115F034FFE3
:10635000D4F88C104B684A699A1ACB699B1A3F2B68
:1063600004D8012384F8A03003B030BD94F89E30E7
:10637000002BF9D0064B009301940123402204F135
:106380004C012846FFF7A0FDEEE700BFC81D002026
:1063900021630000F7B50D4601461D4812F05DFF70
:1063A000044610B30646691E56F8A4395F680529ED
:1063B0001BD8DFE801F01C1A031C222610F8061C6B
:1063C00099B9012300F8063C3B6A3246187BFFF777
:1063D000A7FF14F85C2C42B93B6A187D0D4B009363
:1063E000019602231146FFF76FFD03B0F0BD304662
:1063F00003B0BDE8F040FFF7D7BE012304F8053C29
:10640000F3E710F8053C002BEFD00023F6E700BFC0
:10641000503F00201D61000037B5094D0949002497
:1064200000944FF0FF334FF4806228460CF078FB65
:10643000054928460CF016FC204603B030BD00BFCD
:10644000C81D002000A2002028E0010008B5034A72
:10645000034B082113F0F0F9002008BD38E00100DB
:1064600031E0010010B5044606F01CF9084A034665
:106470000821204613F0E0F9064A2046082113F0CF
:10648000DBF9054821460DF071F8002010BD00BF72
:10649000CDE00100ECE001009D64000070B58EB01D
:1064A00004460D46D0F89C6015F0A8FE024616F092
:1064B00087FD254B1958254B002A18BF1346CDE9F7
:1064C0000043234A234B28468C4218BF1346224AD6
:1064D000082113F0B1F9D4E90A23CDE9022394F994
:1064E0000E300093237B1D4A2846082113F0A4F99F
:1064F00006A9202220460CF0C5FB626E00920346DE
:10650000174A0821284613F097F905A9204615F0E7
:1065100085FE034630B1134A0821284613F08CF952
:106520000EB070BD059A6423B11ACDE900214B432A
:106530000D4AB3FBF6F30821CDE902632846334642
:1065400013F07AF9ECE700BF08000000F8E0010062
:106550001DE90100F6E00100FBE0010007E1010098
:1065600033E101004AE1010077E10100F0B50025C7
:1065700093B0044629460AAF1C220BA816F010FD62
:10658000144E1A222021384616F00AFD21461248E0
:106590000CF0ECFF09AA4FF40061304615F032FE12
:1065A00009996422C1F5006042434FF40063D20AA6
:1065B000CDE90403CDE9023106922046CDE900572A
:1065C000064AA6F14003082113F036F9284613B015
:1065D000F0BD00BF40B7002051660000AEE10100F1
:1065E00010B5044614F02FFD034A03460821204647
:1065F00013F022F9002010BDF7E1010073B5134636
:1066000000220192044601AA58680A2101F002FC06
:10661000019D95B920EAE0744FF40046294640F206
:10662000E7304FF47A720023C4FB0601FAF7B8FD95
:106630000CF0A4FE284602B070BD2B46034A01218F
:10664000204613F0F9F8019DF4E700BF0DE20100C8
:10665000F0B50446D0F89C6089B00D4607A915F046
:10666000DDFD034630B1104A0821284613F0E4F856
:1066700009B0F0BD204615F0C1FD0C4F079A002867
:1066800018BF0746B11A6423CDE902214B43CDE977
:106690000076B3FBF6F3064ACDE9046308212346EE
:1066A000284613F0C9F8E3E74AE10100F8E00100E9
:1066B0002DE201002DE9F04387B0054668460BF056
:1066C00021FE009E184A194FDFF86480DFF86490BD
:1066D000142303FB00660821284613F0ADF8009C44
:1066E000B44203D3002007B0BDE8F08323680BB1A8
:1066F0001A7832B923463A46142101A810F0B0FDA9
:1067000001AB42460821284613F096F8204615F0C2
:106710005AFB094B094A002808BF4B460821284666
:1067200013F08AF81434DBE749E3010053E3010076
:1067300058E3010040E301003AE3010093E901005E
:106740008B1E022B2DE9F04107468846144637D8A8
:1067500060681022002110F01FFEB8F1020F0646FB
:1067600007D1264A20230821384613F065F83368FC
:1067700016E00A220021A06810F00EFEC5B21F4AE2
:106780002B460821384613F057F8B8F1040F1AD0F9
:10679000102D0DD0202DEAD0082D0CD13378DBB28E
:1067A000174A0821384613F047F80020BDE8F08169
:1067B00033889BB2F4E7134A0821384613F03CF8BB
:1067C0006FF01500F2E7E0681022002110F0E4FD00
:1067D0000D4A034604460821384613F02DF8102DC3
:1067E00006D0202D07D0082DE5D1E4B23470DCE7C7
:1067F000A4B23480D9E73460D7E700BF91E3010049
:10680000BCE30100A6E30100CDE301002DE9F04F58
:10681000594BDFF868A185B09146012207468846AA
:106820001A60FEF725FB4FF0FF3520262C4649461F
:1068300052464046FEF740FB411C07D16A1C52D12C
:106840004F4A0121384612F0F7FF1DE0732820D08F
:10685000772833D0612817D1DFF828B11022DBF870
:106860000000002110F098FD05460028DFD116F049
:10687000A7FB454B1B58162BD9D1DBF80030434AF8
:106880000121384612F0D8FF6FF0150005B0BDE8C1
:10689000F08FDFF8F0B00022DBF80000114610F0B6
:1068A0007BFD04460028C2D116F08AFB364B1B58EC
:1068B000162BBCD1DBF80030354AE1E7DFF8C4B075
:1068C0000022DBF80000114610F066FD06460028A5
:1068D000ADD116F075FB2C4B1B58162BA7D1DBF84E
:1068E00000302C4ACCE7631C01D12B4AA9E75FFAA0
:1068F00086F8C6F3C406002C3CD06B4629461A46DF
:10690000A6EB050C0CE0B8F1100F1DD0B8F1200F6C
:1069100020D0B8F1080F2AD10878187031443344D8
:10692000A64203D80CEB01001028ECD9102CA1468C
:1069300028BF4FF0100929464B46384600F0E0FFCB
:106940001035A4EB0904D6E7088880B21870000A55
:106950005870E3E7086818704FEA102E83F801E0DA
:106960004FEA104E000E83F802E0D870D6E70B4ACB
:10697000082167E7204689E7480100201BE4010061
:1069800022E40100583D00200C000000E1E301007A
:10699000F4E3010007E401003FE40100A6E3010085
:1069A00070B5104E044633780D4681B12BB1BDE869
:1069B00070400D4A012112F03FBF012333700B4A92
:1069C0000821204612F038FF0123337004E083F0E1
:1069D00001033370002BF2D129462046BDE87040F8
:1069E00012F06DBF5863002059E4010094E40100E7
:1069F00070B504463C480378182B02D10B78112B54
:106A000031D0013A0B468D18AB4225D18B5C0A7808
:106A10000370A2F13003092B344C04D922F0200377
:106A2000413B052B04D823683149CA540133236004
:106A30002368022B34D110222D48002110F0ACFC29
:106A40002C4A136803F8010B13602B4A13680133B7
:106A500013600023236023E013F8016B182ED3D1B9
:106A60001E78112ED0D1244D244A2B6808212046AF
:106A700012F0E2FE20460021FFF792FF204B18782B
:106A800070B9204A2B681168042B0ADC08B1116028
:106A90002B6013F003010BD1126813681BBA13604B
:106AA00070BD086800BA41F8040B043B0120EBE715
:106AB0005B4203F0030358BF5942022904D1126814
:106AC00013885BBA9BB2EAE70329E9D11068026830
:106AD0001104C2F3074301F47F010B4302F47F4228
