:1000000080CE00204D7F00008F930100397F0000DB
:10001000397F0000397F0000397F000000000000B8
:100020000000000000000000000000001D81000032
:10003000397F000000000000E9800000397F0000E7
:10004000DD82000027A30100DD820000DD820000C8
:10005000DD820000DD820000DD820000DD82000024
:10006000DDA20100DD820000DD82000011A301009D
:10007000DD820000DD820000DD820000DD82000004
:10008000DD820000DD820000DD820000DD820000F4
:10009000DD820000DD820000DD820000DD820000E4
:1000A000DD820000DD820000DD820000DD820000D4
:1000B000DD820000DD820000DD820000DD820000C4
:1000C000DD820000DD820000DD820000DD820000B4
:1000D000DD820000DD820000DD820000DD820000A4
:1000E000DD820000DD820000DD820000DD82000094
:1000F000DD820000DD820000DD820000DD82000084
:100100007BB972B90029BEBF00204FF0004106E064
:1001100008BF00281CBF6FF000414FF0FF3000F017
:1001200057B8ADF1080C6DE904CE002909DB002BAE
:100130001ADB03F013FADDF804E0DDE9022304B072
:100140007047404261EB4101002B1BDB03F006FAD4
:10015000DDF804E0DDE9022304B0404261EB410137
:10016000524263EB43037047524263EB430303F095
:10017000F5F9DDF804E0DDE9022304B0404261EB6B
:1001800041017047524263EB430303F0E7F9DDF8A6
:1001900004E0DDE9022304B0524263EB43037047FD
:1001A00053B94AB9002908BF00281CBF4FF0FF31DE
:1001B0004FF0FF3000F00CB8ADF1080C6DE904CE43
:1001C00003F0CCF9DDF804E0DDE9022304B0704768
:1001D000704700BF014B1B685B6818470000002098
:1001E000014B1B68DB68184700000020014B1B68AF
:1001F0001B69184700000020014B1B685B6918470A
:1002000000000020014B1B689B691847000000207C
:10021000014B1B68DB69184700000020014B1B687D
:100220009B6A184700000020014B1B681B6B184796
:1002300000000020014B1B68DB6B1847000000200A
:1002400010B4034C2468A468A44610BC604700BFE7
:1002500000000020014B1878704700BFC40D00203B
:10026000042810B511D883B104280CBF1024282409
:10027000A1420AD2064C54F8200018B141568A42D5
:10028000A8BF0A461A70002010BD6FF01500FBE7EA
:100290008007002030B50346114890F91C209A428F
:1002A00019DD90F924209A4217DA9A1A846AA05C20
:1002B0000C4A15569D420DD00E32002918BF013050
:1002C0009442C0B206D129B1013BDBB2012B01D867
:1002D0000130C0B230BD0D20FCE70020FAE700BFBE
:1002E0008007002038C4010008B5054B93F91C3085
:1002F000984203DAFFF7CEFF024B1B56184608BDA3
:100300008007002038C4010010B51C4C94F82C3034
:1003100073B9012384F82C3003F071FB48B1184BFA
:10032000A362D823236284F824300823A3612377AF
:1003300010BD03F079FB0028F1D103F07EFB00280B
:10034000EDD103F041FB38B10E4BA362D8232362F9
:1003500084F824300423E9E703F03FFB0028F3D1BD
:1003600003F044FB0028EFD103F052FB0028EBD14F
:1003700040F2BB11742002F073FD00BF8007002023
:1003800073C4010046C40100014B1879704700BFD7
:10039000B4070020054B1A79824283BF1B6800EB2B
:1003A000400003EB00100020704700BFB40700209E
:1003B00043F60952C0F3080302FB03F3400A03F5B6
:1003C000807302FB00F000EB5320704743F6095C9A
:1003D000C0F3080210B50CFB02F2C0F34E24030E6A
:1003E00043EA01230CFB04F0090E02F580724FEA88
:1003F000411C00EB52205A01B2EB030E4CEAD36CC5
:100400006CEB01044FEA841C4FEA8E12B2EB0E0231
:100410004CEA9E6C6CEB040C4FEACC0C4CEA527C20
:10042000D200D31841EB0C01DA03C903801841EA6A
:10043000534141F1000110BD430B48F2376C0CFBF6
:1004400003F34FEA134C00B5104B43F6095E0EFB65
:100450001C0000FB03F35B0D0EFB03FE03EB4C23C0
:100460000EF5745C0CF1080CB0EB5C2F08D80EF59F
:10047000807EA0EB5E20C0B20B6010705DF804FBC4
:10048000013300200B6010705DF804FB6F0C01005D
:10049000F8B5274DA94246D8264E274F450F45EAC5
:1004A000C105A6FB0514C0F34F31A40B01EB0541B8
:1004B00007FB1411A6FB0151890B41EA04411F4CB3
:1004C00004FB110448F2376C600B0CFB00F04FEAA0
:1004D000104C43F6095E1A480EFB1C4505FB00F064
:1004E000400D0EFB00FE00EB4C200EF5745C0CF191
:1004F000080CB5EB5C2F12D80EF5807EA5EB5E2EB6
:100500005FFA8EFE069D85F800E00D0628184FEA7A
:10051000112141F10001186059601460F8BD0130EB
:100520004FF0000EEEE796219B2002F099FC00BFF1
:10053000FF7F841E83DE1B43000024F40080841EA2
:100540006F0C0100420B48F2376303FB02F2120CFE
:1005500043F6095C074B0CFB120101FB0333013B23
:100560005B0D0CFB03FC5002B1EB5C2F88BF01302C
:10057000184470476F0C010010B5094A92F8003416
:10058000202B03D14321022002F06AFC590102EB27
:100590004313BDE81040525858680421104700BF6B
:1005A000C007002008B501B3F0B14FF0FF331A4681
:1005B000E0FB01320E498A4203D979216D2002F015
:1005C0004FFC180D40EA0230C3F30F134FF22441E1
:1005D000B0FBF1F203EB0040064B03FB1200B0FB53
:1005E000F1F040EA0240013008BD0846FCE700BFD8
:1005F0003F420F00000024F438B5074D0446343064
:1006000080B26880FFF79EFFA8802046EC80FFF74D
:1006100099FF2881002038BDFC0B0020014B188970
:10062000704700BFFC0B0020014B9888704700BF4B
:10063000FC0B002010B5EFF3108472B6064A137B52
:100640000133DBB21373137B012B01D103F05FF98C
:1006500004B962B610BD00BFFC0B002070B50C4C95
:10066000267866B9012520612570FFF7E3FF00F0C9
:100670004FFA30B94FF080432575C3F8045300207A
:1006800070BD2369002BFAD098472661F7E700BFB9
:10069000FC0B002038B5FFF7CDFF00F039FA094C0C
:1006A0004FF0804540B103F01FF901232B61042373
:1006B00063750023A37538BD032363750123C5F853
:1006C0000433F6E7FC0B002010B5EFF3108472B68C
:1006D0000A4B1A7B22B94FF4A0716D2002F0C0FBC7
:1006E0001A7B013AD2B21A731A7B1AB9DB7D0BB9A5
:1006F00000F0FCF904B962B610BD00BFFC0B00208D
:1007000008B5054B1A7822B100221A751A70FFF746
:10071000DBFF002008BD00BFFC0B002073B51C4DA3
:1007200095F8243063B9A86A00F0030003F009F9D2
:1007300030B1EFF3108372B66A7D1AB103B962B6B5
:1007400002B070BD01226A7503B962B64FF08043F2
:100750000822C3F808234FF42073ADF80630BDF823
:100760000640A4B2631E9BB2ADF80630002CF6D151
:100770004FF080460748C6F80C4103F007F985F8AA
:100780002D40FFF787FF0823C6F80433D8E700BFE2
:10079000FC0B0020280C00202DE9F041384C94F887
:1007A0002E30002B69D04FF08043D3F80071D3F87E
:1007B000046157B10122C3F80823237D2BB12369BB
:1007C000002525750BB1984725614EB14FF0804348
:1007D0000022C3F804210222C3F80823FFF79EFF7A
:1007E0004FF080462748D6F80C8194F82D50EDB292
:1007F00003F0D0F820B140F2D9116D2002F030FBA7
:1008000047B1637D032B05D10423637503F06CF8B6
:1008100001233361B8F1000F16D04FF0804300225E
:10082000C3F80C21637D042B02D040F2EB11E4E706
:1008300003F00CF9C0B14FF080430022C3F8342C10
:1008400002236375FFF740FF4DB1002384F82D307C
:10085000637D022B01D1FFF71DFFFFF735FFBDE8D8
:10086000F041084803F0A5B803F0D2F80028E2D11F
:1008700003F0E3F80028DED1E2E7BDE8F08100BF35
:10088000FC0B0020280C002010B5044CA06A00F0DE
:10089000030003F056F80028F8D010BDFC0B002030
:1008A000F8B5054650B10278042A07D8437842B912
:1008B000013B1F2B02D88378212B07D96FF015003D
:1008C00078E0002BFAD18378002BF7D1824B0127F7
:1008D000C3F88070BFF34F8FBFF36F8F4FF0804628
:1008E000C3F880717D4C4FF0FF33C6F80833002306
:1008F000C6F80031C6F80431C6F80C312373AB8852
:10090000638103F009F808B127702773D6F80C2427
:10091000D6F80C34D20303D5DF0701D500F0F2F886
:100920004FF4AF60FFF768FE2B78A97884F8243085
:100930000022A2622176A275042B4ED8DFE803F0D4
:1009400005033B494B000123A36202F0ECFF0028A2
:100950004ED002F0EFFFA36A03F00303984247D1A1
:10096000AB79002B3ED1FFF78FFF237E6BB12B7845
:100970005BB900F0CDF8054602F0B2FA6FF0004323
:10098000002D00F0A580C4E907034FF08043D3F8A1
:100990000C24D3F80C34D20303D5DB0701D500F0C7
:1009A000B1F84D4A01230020607584F82E30C2F85A
:1009B00080311360F8BDFFF73DFE4FF08043D3F860
:1009C0000C14D3F80C24CE03F9D5D007F7D50223A5
:1009D000BAE7434BB8E7434BB6E740F22A316D2004
:1009E00002F03EFA4FF080430222C3F80423BCE732
:1009F0004FF080430122DA600022C3F80421A26A8A
:100A0000C3F8182502F0E0FF10B34FF080534FF009
:100A10008042D3F84432C3F34233C2F83C3502F08B
:100A2000D3FF10B34FF080430122C3F84C254FF0A1
:100A3000804301229A600222C3F80423AA79002A83
:100A400093D1D3F8042391071CD440F2E121C6E7E7
:100A500002F0C3FF0028D8D102F0C8FF0028D4D18B
:100A600002F0D6FF0028D0D1D9E702F0B6FF002867
:100A7000D8D102F0BBFF0028D4D102F0C9FF002872
:100A8000D0D1D4E7184A1669116941F010011161FB
:100A9000D3F8043106F010060BB902F0E5FF4FF071
:100AA0008047D7F8043183B1FFF7EEFE26B90E4A2E
:100AB000136923F0100313614FF080430222C3F83F
:100AC00008230022C3F804214FE702F0CBFFE8E738
:100AD000C4E9073059E700BF00E100E0FC0B00204B
:100AE000010002000100030000ED00E04FF0804231
:100AF000012353600023C2F80031014A137070478C
:100B00002B0C0020014B01221A7070472B0C002087
:100B10004FF08043D3F8003123B9034B187800F02D
:100B2000010070470120FAE72B0C0020094B4FF021
:100B3000FF32C3F808230022C3F84025C3F8402140
:100B4000C3F84425C3F84421C3F84825C3F8482115
:100B5000704700BF00800040084B094A1B78012BFA
:100B600016BF4FF440314FF400310023C2F8481350
:100B7000C2F808130BB9C2F840317047300C00209E
:100B800000B0004070B5EFF3108472B6094A0A4B0A
:100B90000025D2F80415D2F804612EB1596801314C
:100BA0005960C2F80451F4E75B6804B962B6C0E961
:100BB000001370BD00B00040300C0020094BD3F88A
:100BC0000435C01A20F07F4323F001033BB120F02D
:100BD0007F40B0F5000F8CBF02200020704701203D
:100BE000704700BF00B00040104B4FF40062C3F8E4
:100BF0008020BFF34F8FBFF36F8FC3F880210C4B62
:100C000001225A609A60D3F80425002AFBD10949D1
:100C1000C3F808134FF44031C3F84813C3F8402118
:100C2000C3F84421C3F80421704700BF00E100E08D
:100C300000B000400200030008B5144BD3F80425AF
:100C400022F00302C3F80425D3F8082542F003027A
:100C5000C3F80825102292FAA2F2B2FA82F2092A07
:100C600004DD0B4840F2913102F0F0F8C3F8102592
:100C70000122DA60074A9268C3F80022064B4FF45B
:100C80008072C3F880211A6008BD00BF0080004058
:100C9000B0E40100300C002000E100E008B50A4B90
:100CA0004FF48072C3F88020BFF34F8FBFF36F8F74
:100CB0000649C3F8802101204860FFF737FF044B45
:100CC000086100221A7308BD00E100E000800040C6
:100CD000300C002010B5234C0023FF224FF0FF31D1
:100CE0004FF0FF30C4E90401237062736360FFF7C3
:100CF000D5FFFFF779FF1C4B4FF400621A60A16922
:100D00001A4A31B901231360184B0222C3F8042395
:100D100010BD174B1748C3F8A805C3F8AC15C3F8A6
:100D20005C294FF40022C3F80425134A0521C2F8B8
:100D3000401501211160D2F840110029FBD04FF479
:100D40000021C3F8081501215160D1600021C2F8CB
:100D50004011C2F84015C3F8A815C3F8AC15C3F884
:100D6000AC15D1E7300C002000E100E000B00040FD
:100D700000F001404081004000800040014BD3E979
:100D800004017047300C0020014BD3F80405704774
:100D900000B0004013B56846FFF7F4FEDDE900043B
:100DA000FFF706FB024B0021E4FB030102B010BD7C
:100DB0000080841EB1F1FF3F08BFB0F1FF3F2DE975
:100DC000F041424C05460E463AD1414DD5F800312E
:100DD0008BB3404E404BC6F80835FFF7BDFE4FF0D1
:100DE00000080123A36084F80D80FFF757FFFFF789
:100DF00023FF3A4BC5F80081394FC6F8A8354FF4A8
:100E00000023C6F8AC75C6F8043502F0AAFDD5F883
:100E100000312BB10123C5F800817B60FB60F4E752
:100E2000013041F100010223C4E904012370FF23D2
:100E30006370BDE8F08102F094FDC51C41F100062D
:100E4000D4E90473B34208BFAF42F2D0214B224A27
:100E5000C3F80825FFF780FE1D4A4FF4803125F0C6
:100E60007F480023C2F808134046C2F84813C2F86E
:100E70004031FFF7A3FE20B140F226316C2001F093
:100E8000EFFFC2F84085C2F844132378012B06D146
:100E900027F07F473846FFF791FE0128FAD000235C
:100EA00001276373A760FFF7F9FEFFF7C5FE094B43
:100EB00027704FF00042C3F8042504236370044BED
:100EC000C4E90456C3F84873B3E700BF300C0020F0
:100ED00000B0004000F001400000088000B1004078
:100EE00000800040032870B52D4B06D9011FC9B200
:100EF00001292FD940F276310BE0D3E90441B1F159
:100F0000FF3F08BFB4F1FF3F06D11B7B23B940F27E
:100F100055316C2001F0A4FF2249234D00F110044B
:100F20000123800003FA04F4C5F808430B5000F1D4
:100F3000804101F50041D1F84005101A022805DD75
:100F4000C1F84025C5F80443012002E00020C1F8A3
:100F5000400570BD1C782CB15B78834202D140F211
:100F60007231D6E7114B124E22F07F458A001344AE
:100F70004FF480348C400022C6F808432846C6F857
:100F800048431A60FFF71AFE40B901F5A87146F808
:100F90002150C6F80443C6F84443D5E71046D8E7C5
:100FA000300C0020408000400080004040B10040F4
:100FB00000B00040032837B508D9041FE4B2012C63
:100FC00019D940F2CA316C2001F04AFF234900F1DF
:100FD000100201239340C1F8083300F5A8730022E2
:100FE00041F823201E4B81005A5053F820300093C3
:100FF000009B03B030BD1B4D2B7893B16A788242C1
:101000000FD1194A1949C2F80815012B01D1FFF770
:1010100045FE00232B704FF0FF324FF0FF33C5E940
:101020000423134A4FF48033A340C2F80833C2F8B4
:10103000483304F5A87352F82300FFF7BFFD0128D9
:1010400018BF0C4B22B24FEA84041CBF0021195177
:10105000084B53F822300193019BCAE700800040FF
:1010600040810040300C002000F00140000008806A
:1010700000B0004040B1004010B50A4B04460122C8
:1010800010B1C3F8442310BDC3F84823FFF706FE90
:10109000054B4FF0FF304FF0FF31C3E904011C70E6
:1010A000F1E700BF00B00040300C00201F4A08B537
:1010B000D2F80433D90311D5D2F8403173B10023EB
:1010C000C2F84031D2F84005FFF778FD30B14FF457
:1010D0008033C2F80833042001F0F6FA134AD2F83C
:1010E00004339B0311D5D2F8443173B10023C2F805
:1010F0004431D2F84405FFF761FD30B14FF40033BD
:10110000C2F80833052001F0DFFA084BD3F80421B8
:1011100032B10022C3F80421054A536801335360F9
:10112000044B4FF40062C3F8802108BD00B00040BA
:10113000300C002000E100E038B5364C637BFF2B1B
:1011400064D0237883B10122022B227319D1324B50
:101150004FF40022C3F80825002323704FF0FF321C
:101160004FF0FF33C4E904232C4BD3F804231003BE
:101170000DD5D3F84C2152B140F20F416C2001F053
:101180006FFE022360782370FFF714FFECE7D3F8BB
:10119000042351030DD5D3F8483153B10220FFF792
:1011A00009FF1F4B4FF48072C3F88021022001F029
:1011B0008BFA1A4BD3F8042392030DD5D3F844319C
:1011C00053B10120FFF7F6FE154B4FF48072C3F8C0
:1011D0008021012001F078FA104DD5F80433DB03AB
:1011E00016D5D5F840319BB10020FFF7E3FE0C4B3C
:1011F0004FF48072C3F880210020FF236373A06046
:10120000C5F80002BDE8384001F05EBA0620F9E7F3
:1012100038BD00BF300C002000F0014000800040CD
:1012200000E100E02DE9F04F99B01C46CDE9011234
:10123000DFF880920646FFF7A1FD4FF080420123C0
:10124000C2F80835D9F800200F4613609A490822E1
:1012500002EB4412531801EB441C5458B3F80EB07F
:1012600093F80C80CDF810B0D3E901A20CF1080C72
:1012700007925A7BDB68009208930546BCE80F0092
:101280000DF1400EAEE80F009CE803008EE803006D
:1012900024F07F40FFF78CF85B4601339844874B7E
:1012A0009842804400F2CA81984500F3A180B8F1C9
:1012B000000FBBBF08F1F45303F59023CDF818805D
:1012C0000693FFF725FC009B012B014607D0D9E9C7
:1012D0000423B3F1FF3F08BFB2F1FF3F60D0039199
:1012E000FFF7A2F90022B7F1FF3F08BFB5F1FF3FBA
:1012F00003990990059263D0A54277EB0A037DD24A
:10130000601B6AEB0703B0F5000F73F1000380F078
:101310009F8100282B4653DD0598002879D114F1D0
:10132000FF38A8EB03034AF1FF3B9342CDF80C8052
:1013300059DB39B9D9E90423B3F1FF3F08BFB2F152
:10134000FF3F40D1019BB8EB06066BEB0303019313
:10135000FFF76AF9019B0930C2178642934180F07A
:101360009480029B012B00F09980059B002B56D1A5
:10137000B7F1FF3F08BFB5F1FF3F50D0B5EB080212
:1013800067EB0B03052A73F1000180F24381012A08
:1013900073F1000327DABB460395059FA8464AE090
:1013A00000289CD10390FFF73FF90123B7F1FF3FDD
:1013B00008BFB5F1FF3F03990990024605939BD101
:1013C00003323346ABE7A21A6AEB03030B920A938C
:1013D000FFF724F90B9A0A9B824273F10003B1D202
:1013E000009B012BAED00025284619B0BDE8F08F38
:1013F00008F1614303F5F703069362E7281B67EBE7
:101400000A03B0F5000F73F1000380F01C81601B2C
:101410007FE799F81800002818BF00227FE74046B0
:101420005946FFF7C7FC0027BBF1FF3F08BFB8F1E3
:10143000FF3F00F01281039B23F07F40231A23F02B
:101440007F43013BB3F5000FCDD2079B1B191B1A3D
:1014500023F07F43B3F5000FC5D8FEF7A9FF069A26
:10146000174B161A9E4231D3801A9842C0F0C5809D
:10147000124B9E4226D8984240F20381C0F161434C
:1014800003F5F70301931E4621E0009B40465F1ED3
:10149000594618BF0127FFF78DFCC5E7B7F1FF3F9D
:1014A00008BFB5F1FF3F00F0E780BB460395A846B3
:1014B0000027C0E7500C0020C0070020FF7F841EDB
:1014C0000040420F06F1F45606F5902601966F4B48
:1014D00093F828302BB9049B019A1E33934280F273
:1014E0009480029B012B02D00120FFF763FD049B37
:1014F00033B1F21A01200023FFF7F4FC00284FD08B
:10150000002332461846FFF7EDFC0546002847D079
:10151000009BD9F81020012BD9F8143066D0002F89
:1015200042D1B3F1FF3F08BFB2F1FF3F7FD00120AE
:10153000FFF7A2FD99F81830002B71D1049A019B96
:1015400019329A4280F29380B21A00263346022062
:10155000FFF7C8FC30B1D9F800301E604FF080436F
:10156000C3F80865079B1293089B139300238DF81B
:1015700058300C934FF0FF324FF0FF33CDE9104A53
:10158000CDE90E230CAE0FCE404C0FC40FCE0FC4CE
:1015900096E80F0084E80F00284619B0BDE8F08FE8
:1015A0000120FFF707FD1EE7B3F1FF3F08BFB2F1CF
:1015B000FF3F09D0FFF788F84FF0FF324FF0FF33BD
:1015C000C9E90423002FB5D0099BB8EB03026BF1E6
:1015D00000030520FFF786FC002843D099F8183057
:1015E000002BABD1012389F81830A7E7B3F1FF3FF7
:1015F00008BFB2F1FF3FE5D0DCE7244B93F8283079
:1016000046420196002B7FF46CAF4FF4F2617020DC
:1016100001F026FC40465946059FFFF7CBFB03E748
:101620000520FFF7C7FC002389F8183086E7FFF78D
:1016300001F802F096F9C9E9040178E740F2224185
:10164000702001F00DFC40F23571702001F008FCB3
:1016500040F23171702001F003FC40F27C71702087
:1016600001F0FEFB4FF40971702001F0F9FB40F22C
:10167000BA71702001F0F4FB40F2A361702001F018
:10168000EFFB40F65801702001F0EAFBC80B002088
:101690002DE9F04F8C4F7C7E04EB44033B4483B038
:1016A0005E7A202E47D0894BE5B26400002B00F013
:1016B0008780874BDFF81C92002B5DD006EB45122C
:1016C00007EB420A4FEA45189AF82030013BDBB29B
:1016D000052B33D8804A12F803B0BBF1090F2DD087
:1016E000AFF30080EFF3108372B62C443C449AF8B9
:1016F00021206272A27AB24204BF2022A27213B9E0
:10170000AFF3008062B6B044730107EB480809EB01
:101710004616012259F80330706888F8202059468F
:1017200098477C7E04EB44033B44E5B25E7A202E6E
:101730004FEA4404C2D103B0BDE8F08F40F26E61BD
:10174000702001F08DFB62B6B044730107EB4808CE
:1017500009EB4616012259F80330706888F82020FA
:10176000594698477C7E04EB44033B44E5B25E7ADD
:10177000202E4FEA4404DED006EB451207EB420A66
:101780004FEA45189AF82030013BDBB2052BD5D83B
:10179000514A12F803B0BBF1090FCFD0AFF300806C
:1017A000EFF3108372B62C443C449AF82120627205
:1017B000A27A964204BF2022A272002BC4D1C2E7B3
:1017C000434BDFF814B1DFF80CA14FF02009002BD8
:1017D0004FD006EB451207EB42024FEA451892F84C
:1017E0002030013BDBB2052BA8D81BF803100929D8
:1017F000A4D0EFF3108372B62C443C4492F821201D
:101800006272A27A964208BF84F80A90002B52D0E6
:10181000B04407EB480873010AEB461601225AF858
:101820000330706888F8202098477C7E04EB4403DE
:101830003B44E5B25E7A202E4FEA4404C9D17AE7F0
:1018400062B6B044730107EB48080AEB4616012262
:101850005AF80330706888F8202098477C7E04EBA3
:1018600044033B44E5B25E7A202E4FEA44043FF441
:1018700062AF06EB451207EB42024FEA451892F8B9
:101880002030013BDBB2052B3FF658AF1BF80310AD
:1018900009293FF453AFEFF3108372B62C443C4454
:1018A00092F821206272A27A964208BF84F80A90C8
:1018B000002BC6D1C4E70191AFF3008062B6B044FB
:1018C000019907EB4808A6E7500C00200000000033
:1018D00000000000C0070020A4C401002DE9F04F63
:1018E00085B0DFF80481019301EB410343444FF0DD
:1018F000200C1C7A03916445924682F800C070D097
:101900004B01DFF8E89005469B4611E06A7B012A0F
:1019100002D0427D012A54D00BEB040308EB4303B1
:101920008AF8004093F82130202BA44659D01C4659
:1019300009EB4410D0E9032387682E68696813EB2C
:10194000070E42F10002764571EB02024FEA4413A2
:10195000DCD21E46019B83F800C0039B4FEA431B69
:1019600009EB06002F68AB68D0F808A06A68C16868
:10197000DB1942F100029A4571EB020310D3437D5B
:10198000012B02D06B7B012B03D0012005B0BDE8F9
:10199000F08FFEF749FEAAEB070701308742F4DA21
:1019A000019A4E441470317E2A7C0BEB0403914261
:1019B00008EB430311D993F82140202CE5D06601B0
:1019C000CEE70293FEF730FEF61B01308642A3DA23
:1019D000029B9AF800C01E46BCE7002005B0BDE897
:1019E000F08F019B1C70D0E7500C0020C007002036
:1019F0002DE9F04F83B00D4616461F469DF8308006
:101A0000FEF7A0FD2A686B68861947F10007964229
:101A100077EB030339D3DFF87C9005E0564577EB8D
:101A2000040332D3C5E900A40DF107030DF106024A
:101A300041462846FFF752FF40BB9DF8073009EBAF
:101A400043139A68D3F810B0DC681BEB020A5A7D86
:101A500044F10004012AE1D16B7B012BDED0FEF7BB
:101A6000E3FD01308345D9DAFEF7DEFD9DF807304E
:101A700009EB4313421C9968DC6812EB010A44F13C
:101A80000004564577EB0403CCD2002003B0BDE838
:101A9000F08F00BFC00700202DE9F047154692F8EF
:101AA000008092F80BC0AF7A12891C4686B00023E2
:101AB000E3602361C4E9003327749DF8389084F80B
:101AC0000DC00646A3606361E28184F811800F4671
:101AD000B8F1000F42D1FEF779FCD5E904C2424BC0
:101AE000C31841F1000E9C4572EB0E030AD3013E70
:101AF00047F1FF37C4E900674FF47A73A36006B07B
:101B0000BDE8F087263041F10001844572EB010306
:101B1000EDD3288901300021844572EB010360D3A5
:101B2000BCEB000062EB010104F10C03009303AA7B
:101B300004ABFEF7ADFC039B6A6828894833134465
:101B40001844FEF7FFFCDDE90432C01A20F07F40A4
:101B5000C4E90032A06006B0BDE8F087234804A9BC
:101B6000801A04F10C02FEF767FC214B1B78202B36
:101B700024D020490B69D1E90521053342F1000A3F
:101B800013EB01084AF1000A6B68227BE0894833B5
:101B900010441844C4E9008AFEF7D4FC3246A06021
:101BA0003B462869CDF800902146FFF721FF002829
:101BB000A5D1C4E9006706B0BDE8F087637B16F1E4
:101BC000090847F1000A012BDED0FEF7A1FF00282B
:101BD000DAD1FEF729FD10EB080398464AF1000A16
:101BE000D2E7404641469FE70040420FFF7F841EF8
:101BF000C00B0020C80B00202DE9F047374DDFF85F
:101C0000E08000EB40032B4406461C7A4700FFF7B8
:101C1000BBF84FF0200C4FEA461E08EB44110EEBC8
:101C20000403D1F808A00A69AAEB000929F07F494A
:101C3000B9F5000F05EB43030DD812EB0A02121A97
:101C400022F07F42B2F5000F05D8BCF1200F0BD176
:101C50002046BDE8F08793F82130202BA4461C468F
:101C6000DBD1BCF1200FF3D0BB192B440CEB461297
:101C700005EB420293F8088092F821201A72710154
:101C800044464FF0040E0B1905EB430322469445DE
:101C9000204683F820E093F82140F4D1BB192B446F
:101CA0000A4493F80AE0BEF1200F5FFA8EFC18BFD9
:101CB0008C443E4418BF05EB4C0C05EB4202354406
:101CC00008BF83F809804FF0200318BF8CF82180EB
:101CD000A87282F821302046BDE8F087500C002021
:101CE000C00700202DE9F0414B4D01EB41032B448F
:101CF0000C461E7A202E80464FEA41073DD1474BC5
:101D00000BB1AFF3008001F02CFEAB7E202B0AD08C
:101D1000434BD3E904E210F1020C41F10003E64524
:101D200072EB03032ED3202E09D042463346FFF731
:101D300079FA00283AD0AE760220BDE8F081D5E9E4
:101D40000423B3F1FF3F08BFB2F1FF3F1DD12B7E4B
:101D500033BB0420FFF72EF901F011FE0020FFF73E
:101D60008BF929684FF080422020A87600230B6071
:101D70000120C2F80835BDE8F0810846FFF73CFFB6
:101D80008642BCD00020BDE8F081FEF79DFC4FF0FC
:101D9000FF334FF0FF32C5E904232B7E002BD8D050
:101DA0000520FFF707F900232B76D2E73B192B44D8
:101DB00006EB441205EB420293F808E092F821206A
:101DC0001A72610173460420CA189C4605EB420250
:101DD000664592F8213082F82000F5D13B192B445A
:101DE0003C44987A2028C2B218BF5218614418BFE8
:101DF00005EB420205EB4101254408BF83F809E0E9
:101E00004FF0200318BF82F821E085F80AC081F85E
:101E100021300020BDE8F081500C002000000000BF
:101E2000C80B0020F8B5164A164D002342F22000D8
:101E300020214FF0FF364FF0FF37A97228816B76D3
:101E4000136082F82830C2E90267AB73C5E9046702
:101E50001C46A9762B766A1802F814300134202C1F
:101E6000FAD1094801F07AF8084B094A1C70107041
:101E700001F0D4F82860FEF72DFF0123EB76F8BDC2
:101E8000C80B0020500C002091160000C00B002051
:101E9000F80B00202DE9F04F83B001F062FDA74E52
:101EA00080460F4601F06BFDD6E90223B3F1FF3FF8
:101EB00008BFB2F1FF3F05D04FF0FF324FF0FF33C4
:101EC000C6E9022396F82830ABB94FF40C71B0691B
:101ED000FEF768FB33697269B169023342F10002AF
:101EE0005B1842F100021B1842F10002984577EBA3
:101EF000020380F013814FF0FF304FF0FF31FEF707
:101F000059FF8F4A92F800B0BBF1200F00F0018119
:101F10008C4C20231370A3760023A3733360637E5D
:101F200003EB430AA2445FFA83F99AF808505B0076
:101F3000202D009307D0844B03EB45112A46487EA1
:101F4000012800F0B980009BDFF800A203EB09082C
:101F5000202DA0444FEA491708D04846FFF74CFE11
:101F6000A84203D098F80850202DF6D1BAF1000FFE
:101F700001D0AFF3008001F0F4FCA37E202B09D048
:101F8000D6E9042310F1020E41F1000C724573EB07
:101F90000C03E7D3202D37D02B460122FFF742F95F
:101FA000002856D0A57607EB0B0304EB430393F808
:101FB0002020022A1DD1009A4A442244062183F897
:101FC0002010917ACBB220291CBFDB1904EB43030C
:101FD0005F4418BF83F821B0009B08BF82F809B0A6
:101FE0004B44234404EB470783F80AB0202387F8C7
:101FF0002130FF23E373009B4B441C44637A202B66
:102000006BD103B0BDE8F08FD4E90423B3F1FF3FF7
:1020100008BFB2F1FF3F07D0FEF756FB4FF0FF328B
:102020004FF0FF33C4E90423237E002B3ED104206C
:10203000FEF7C0FF01F0A3FC0020FFF71DF82168A8
:102040004FF0804200232020A0760B60C2F80835B4
:10205000A9E77B1904EB430398F8080093F82130B3
:1020600088F80830024604211346BA1804EB4202ED
:102070009D4282F8201092F82120F5D198F80A109C
:1020800088F80A30CAB220291CBFD21904EB4202D8
:102090003B4404EB430318BF82F821004FF02002B9
:1020A00008BF88F8090083F821205BE70520FEF7C8
:1020B00081FF00232376BAE7497D012914D118F165
:1020C000040047F1000703EB4213D3E902128142F7
:1020D000BA4128BFC3E9020735E71D4B187803B0A2
:1020E000BDE8F04F00F056BF0195FEF711FD019AD3
:1020F000154B10B19AF80850E1E70192FEF794FAF7
:1021000010EB08009AF80850019A0F4B47F10007AE
:10211000D9E740F2BE21702000F0A2FE084B0A4A27
:102120001B78580102EB4313082112585868904756
:1021300040F2B321702000F093FE00BFC80B0020D6
:10214000C00B0020500C0020C00700200000000041
:10215000F80B002070B5124C0D460646FEF794FBB6
:10216000637E04F1200CD9B20CEB831C002302E047
:102170000133202B12D01CF81320D8B2002AF7D13B
:1021800003EB4111074A04EB4104590102EB4313ED
:102190005650012284F820205D6070BD184670BD45
:1021A000500C0020C007002010B5094C04EB40146F
:1021B000D4E90201FEF70AF9227DE38A9B1803F1B4
:1021C00001034FF000025241181842EB010110BD0B
:1021D000C00700202DE9F04FB14A536891B0C3F316
:1021E000080383460491002B40F06E81082303937B
:1021F000049B1B78012B00F25682AA4E26B10021C7
:1022000040F24450AFF300800023A74C0593012710
:1022100026B1002140F25150AFF3008027B9A34B03
:102220000BB1AFF3008062B6657EEDB24FF00003F4
:10223000E373039B002B40F0A180A84626B1002148
:1022400040F26550AFF3008001F08BFB049A0095DB
:102250000AAB8246FFF720FC26B1002140F26D5008
:10226000AFF300800BEB481904EB49094FEA48171C
:1022700099F82030013B012B7DD80A992AF07F4A3A
:10228000A1EB0A0222F07F4323F00103002B40F070
:10229000C88008EB4802224407EB0B03907A04EB5A
:1022A00043030421202883F820104FEA4803C1B2D9
:1022B00000F0AD81394404EB410181F821B0434481
:1022C00023445F4404EB470783F80AB0202387F8D0
:1022D0002130002305934FF0010826B1002140F280
:1022E0007250AFF30080724B0BB1AFF30080EFF38D
:1022F00010894F4672B6E37B002B89D10DF1280C73
:10230000BCE80F006B4F07EB4B1708370FC79CE873
:10231000030087E80300B8F1000F11D0039B002BE6
:1023200000F0F280059B23B1634B1B78202B00F05B
:102330007181637EDB4303F001036376FF23E37364
:10234000B9F1000F04D1594B0BB1AFF3008062B665
:1023500026B1002140F2A950AFF30080B8F1000F80
:102360004DD126B1002140F2B550AFF30080404678
:1023700011B0BDE8F08F4FF00008AEE74F4B05F10C
:10238000010909F0010903EB851E03EB891CBEE876
:102390000F00ACE80F00BEE80F00ACE80F00BEE88D
:1023A0000F00ACE80F009EE80F002DB28CE80F0084
:1023B000C8460FFA89FA26B1002140F2DF30AFF3A8
:1023C00000803F4B05EB45050AEB4A0A5A19595B59
:1023D000927823F80A1053449A7056B1002140F2C3
:1023E000E330AFF3008026B1002140F25B50AFF341
:1023F0000080E37B002B7FF40BAF4D461EE7637E2E
:1024000003EB43031C44637A202BAAD026B100219E
:102410004FF4B660AFF300802A4B187800F0BAFD95
:102420009FE722F07F42B2F5000F3FF632AF0C9BE0
:102430005B18A3EB0A0323F07F43B3F5000F3FF6CD
:1024400028AF0DF127030DF1260229460AA8FFF750
:1024500045FA059000285ED108EB48022244042387
:10246000907A89F820304FEA48032028C1B24344CB
:1024700018BFC91923445F4418BF04EB410104EBA2
:10248000470783F80AB04FF0200314BF81F821B04A
:1024900082F809B087F821304FF001081DE700BF2E
:1024A00000ED00E000000000500C002000000000E3
:1024B00000000000C0070020C00B0020700C0020AE
:1024C000580C0020F80B0020103B59B20029C0F234
:1024D000968001F1604101F5614191F800335B099B
:1024E0000393002B7FF484AE764B1B78202B00F0F7
:1024F000DF80049B1B780393002B3FF47EAE40F2F9
:102500003D51702000F0ACFCFF23E373B9F1000FE4
:102510007FF41EAF17E79DF826C09DF827E0F4452D
:102520001BD1BCF1200F00F0A98007EB0C0304EBDA
:10253000430393F8213089F82130BC4404EB4C0C60
:1025400000238CF821B05F4404EB4707DDF81480CA
:102550000593032387F82030BFE6BEF1200F00F07B
:10256000AC8007EB0E0304EB4303BCF1200F93F8A0
:10257000211000F08F8007EB0C0204EB42024FEABF
:10258000480392F82100069082F821104FF0050AC6
:102590003A1804EB420201468E45814682F820A09B
:1025A00092F82100F4D103EB08022244079192F83B
:1025B0000AA0BAF1200F5FFA8AFE68D0BE4404EB8D
:1025C0004E0E069A8EF8212003EB0802224407994A
:1025D00082F80A90394407EB0B024FF0200E04EB0F
:1025E000410104EB4202F44581F821E082F8210028
:1025F000A3D14344234483F808B0059BA3E703F029
:102600000F03043B13441B7E5B09039369E782F8C5
:1026100009B054E629460220FFF764FB00287FF446
:1026200088AE637EDDF8148003EB430020440BEB9F
:10263000431204EB4202857A042182F82010DFB2B3
:102640005A015B00202DE9B23B4418BF891823448E
:102650005A4418BF04EB410104EB420283F80AB06C
:102660004FF0200314BF81F821B080F809B082F840
:102670002130B9F1000F7FF46BAE64E608EB48033C
:1026800023441B7A89F821304FEA4803B1E70699C1
:10269000517299E708EB480222444FEA4803107A46
:1026A0000690117272E740F24151702000F0D8FBA1
:1026B00040F23A51702000F0D3FB4FF4E7717020E4
:1026C00000F0CEFBC00B002070B506280DD8DFE867
:1026D00000F01C52040C0C740D00AC4A4FF0804109
:1026E00012680123C1F80835136070BDA84D2B781E
:1026F000202B00F08F80A74C5A0104EB4313A25803
:102700005868BDE8704005211047A04CD4E9042367
:10271000B3F1FF3F08BFB2F1FF3F00F0CA809E4E09
:102720000120FEF7A9FC737F012B04D0FEF7F0F91E
:10273000002800F02681964D2B78202B00F0978002
:10274000FF23A373D6E90223B3F1FF3F08BFB2F121
:10275000FF3F05D00520FEF7C5FB002800F00C81E7
:102760002B788C4A590102EB4313BDE87040525854
:10277000586801211047864D2B78202B00F0A0804F
:10278000854E737F012B04D0FEF7C2F9002800F0BC
:10279000E9807E4CD4E90423B3F1FF3F08BFB2F1D6
:1027A000FF3F5DD02B787B4A590102EB4313BDE814
:1027B00070405258586800211047744C237E73B102
:1027C000D4E90423B3F1FF3F08BFB2F1FF3F00F0AB
:1027D0009B800120FEF750FC0023237670BD6C4DDA
:1027E0002A78202A00F097806B4E4FF0FF324FF08E
:1027F000FF33C6E90223A37B002B00F0AE802B78C9
:10280000644A590102EB4313BDE8704052585868BE
:10281000062110475D494B7E03EB43000844DAB2C2
:10282000037A202B00F0A38003EB421201EB42025B
:1028300092F821400472FF20C873564C56492B7001
:10284000022082F82000002281F8282004EB4312A5
:10285000127E002A7FF450AF00F07AFE2B784BE70F
:10286000FDF7E8FE01F07DF8C4E904019AE7637E14
:10287000DAB203EB43032344197A202977D001EB22
:10288000421204EB420292F821001872FF23E37314
:10289000404B297003EB41110B7E022182F820107E
:1028A000002286F82820002B7FF44AAF00F050FE6B
:1028B00046E7FDF7BFFE01F054F8C4E904012EE736
:1028C00032494B7E03EB43000844DBB2027A202AF4
:1028D0004DD002EB431301EB430393F82140047204
:1028E000FF20C8732B492C4E2A7001EB42110220A5
:1028F00083F820000B7E002186F82810002B7FF43F
:1029000040AF00F025FE3CE7FDF794FE01F029F80A
:10291000C4E904015DE7627ED1B202EB42022244C7
:10292000107A202823D000EB411104EB410191F8EB
:1029300021601672FF22E273164A287002EB4010E3
:10294000154E027E86F82830022381F82030002AB6
:102950007FF44BAF00F0FCFD47E740F2436170208D
:1029600000F07EFA40F25161702000F079FA40F2F6
:102970004521702000F074FA40F22F61702000F0C1
:102980006FFA40F22961702000F06AFA500C0020C2
:10299000C00B0020C0070020C80B002070B5274BDB
:1029A0001A78202A86B044D0254CD4E90213B3F11A
:1029B000FF3F08BFB1F1FF3F36D1224D05EB421575
:1029C0000646D5E90201FDF701FDEA8A2B7DD31801
:1029D00003F101034FF0000252419B1942F1000242
:1029E00018180DF10B0342EB0101009303AA04AB8D
:1029F000FDF74EFD9DF80B20DDE904310F2A94BF51
:102A0000002201229B1841F10001C4E902310E4B62
:102A10009B7B13B9012006B070BDD4E902230520C9
:102A2000FEF760FA06B070BD40F62F01702000F08E
:102A300017FA40F62E01702000F012FAC00B0020A9
:102A4000C80B0020C0070020500C002038B5224BD6
:102A500093F800E0BEF1200F39D0204D6B7E95F841
:102A600019C003EB43032B445FFA8CFC1B7A202B29
:102A70001FD01B4C4FEA4C1C06E0634405EB43039C
:102A800093F82130202B14D004EB4312117E8142A5
:102A9000F3D804EB4E14D4E9021320694018D2E9AC
:102AA000021243F10003814272EB030304D20020BF
:102AB00038BD4FF0FF3038BD0A4B081A1C68FDF7CF
:102AC00077FC04F132038342F1D8001B38BD40F695
:102AD0006801702000F0C4F9C00B0020500C0020E9
:102AE000C0070020C80B00202DE9F04F884B1C7850
:102AF00087B0202C019000F00581DFF81892864FF6
:102B000099F8193003EB43034B44054638681E7AA5
:102B10003B6903930DF11302BB6902938B46284472
:102B200005A9FDF789FC7D4BA5F132029A4264D8D4
:102B3000DFF8ECA1059B7D690AEB4414A0681B1823
:102B400020693C691818001B20F07F43B3F5000F83
:102B500053D899F81920B861202E87F820B0D2B246
:102B600000F0C38020212B465201DC460D469346DF
:102B700019460AEB461EDEE90223001941F1000165
:102B800082428B414FEA461845D39EF81530012BFF
:102B900002D07B7F012B34D005200095FEF70AFA86
:102BA000009999F819004FF0FF324FF0FF332029B8
:102BB000C7E90223C0B240F0968000EB40004844D1
:102BC0002026037A524A99F81910127802EB411222
:102BD00009EB420282F821303B68019A13443B60C2
:102BE000FF2389F80F30202E32D04E4B187800F09A
:102BF000D1F9002007B0BDE8F08F012007B0BDE893
:102C0000F08F0092FDF710FD009A0130121B8242F6
:102C1000C2DA97F820C0D04498F8183063450DD92F
:102C20000BEB060309EB430393F82130202B13D061
:102C30003546D7E90441B8691E469AE7DDE9023115
:102C40003A695B189B1A0220BB6107B0BDE8F08FA0
:102C5000002007B0BDE8F08F0520FEF7ABF94FF07C
:102C6000FF324FF0FF3399F81900C7E90223C0B2D1
:102C700000EB40034B4406EB401209EB420293F891
:102C800008A092F821201A724500410153464FF0E6
:102C9000050E01EB030C09EB4C0C1A4696421C4640
:102CA0008CF820E09CF82130F3D105EB000CCC44EB
:102CB0000A449CF80A80B8F1200F5FFA88FE18BF1A
:102CC0008E44284418BF09EB4E0E09EB42024844DB
:102CD0004FF0200114BF8EF821A08CF809A0847257
:102CE00082F821106EE70E46C2E70520FEF762F972
:102CF00099F819004FF0FF324FF0FF33C7E9022374
:102D0000C0B25AE74FF40961702000F0A9F800BF83
:102D1000C00B0020500C0020C80B0020CE3F420FFB
:102D2000C0070020F80B0020BFF34F8F0549064B6A
:102D3000CA6802F4E0621343CB60BFF34F8F00BF59
:102D4000FDE700BF00ED00E00400FA05094B012299
:102D50005A604FF0FF32C3F80823074B4FF480420C
:102D6000C3F88020BFF34F8FBFF36F8FC3F880216C
:102D7000704700BF00E0004000E100E0094B012285
:102D80005A604FF0FF32C3F80823074B4FF48052CC
:102D9000C3F88020BFF34F8FBFF36F8FC3F880213C
:102DA000704700BF00C0004000E100E0084B002277
:102DB000C3F8FC2F0122C3F8FC2F064B0222C3F8F4
:102DC0008020BFF34F8FBFF36F8FC3F88021704710
:102DD0000010004000E100E0F8B51A4E33780546D7
:102DE0000C4617465BBBFDF78FFA174B7760002D3B
:102DF00008BF1D4628463472FFF7D8FFFFF7BEFF15
:102E0000FFF7A4FFFDF74CFD0546B0B9FFF70AF840
:102E1000FDF784FC00F055FD002C0CDB04F01F02D4
:102E20006409A40004F1604404F561440123934063
:102E3000C4F880312360012333702846F8BD4FF079
:102E4000FF35FAE7F00C0020AAC4010008B572B6FD
:102E5000024B5B6803B19847FFF766FFF00C002058
:102E60001FB572B6134B5D688DB9FFF75DFFB2FBFE
:102E7000F6F2DCB20133002AF9D104F110036B44FD
:102E800003F80C2C0A2234B901A8A847EDE7024642
:102E900000230A26EDE7631E04AEDCB256FA83F384
:102EA000B0FBF2F602FB1600303003F80C0C304693
:102EB000E9E700BFF00C0020074B93F90830002B26
:102EC00009DB5A09012103F01F0301FA03F3403221
:102ED000024941F822307047F00C002000E100E088
:102EE0001B4B4FF4805270B5C3F88020BFF34F8F57
:102EF000BFF36F8F174D184C0021C5F80011C3F8B0
:102F000080212669236943F0100323610123C5F85A
:102F1000043306F010062B60D5F80031A3B11EB9BA
:102F2000236923F0100323610A4B0122D3F808051B
:102F30005A60C3F808230022C3F80021044B4FF461
:102F40008052C3F8802170BD00F08CFDE4E700BF23
:102F500000E100E000C0004000ED00E038B50C49A1
:102F6000024605200138C0B2FF2803D1482169205C
:102F7000FFF776FF01EBC0031D7905F0FF04002D7C
:102F8000F0D141F8302001225C719C711A7138BD7A
:102F9000000D0020042808B503D958216920FFF747
:102FA0005FFF094B03EBC0000379012B01D05921CE
:102FB000F4E7437982790133DBB29A4218BF437157
:102FC000BDE80840FFF778BF000D002070B5124C37
:102FD00006250026013D15F0FF0500D170BD94F8CF
:102FE000281004EBC1031A79012A09D158799A797A
:102FF000904205D05A79D2B29A7154F8313098473C
:1030000094F828300133DBB2042B94BF84F82830C5
:1030100084F82860DEE700BF000D002008B500F04E
:10302000D3FC70B900F0D9FC58B900F0DFFC40B90E
:1030300000F0EEFC044A054B002808BF1346184672
:1030400008BD024BFBE700BF00E701400C05004054
:1030500008B500F0DDFC08B3EFF3108072B6104A3B
:103060001369116941F010011161A2F5406203F08A
:103070001003D2F80011D2F804210A4300D040BF57
:1030800020BF00BF00BF00BF00BF23B9044A1369BF
:1030900023F01003136100B962B608BD20BFFCE73E
:1030A00000ED00E0014B1B681B681847440000203E
:1030B000014B1B685B68184744000020014B1B68EC
:1030C0009B68184744000020014B1B681B69184788
:1030D0004400002038B504201E4CFFF7B7FC2568DB
:1030E000854228BF054604212846FFF7FDFC20B194
:1030F000012820D040F2451108E02368E068AB4287
:103100000DD1FFF74BFC20B940F225116B20FFF7E2
:10311000A7FEE268236822611344E36038BD0544DA
:103120006089E5600123281A2375FFF737FC60B931
:1031300040F22F11EAE763892075E068C01AFFF7B3
:103140002DFC10B94FF49E71E0E76289E3689B1A89
:103150002361E3E7300D002008B50C4B1A7802F02C
:10316000FF0312B15A1E1A4203D0E0216B20FFF771
:1031700077FE19B1034207D1E521F7E723EA0003FF
:103180009B0601D1E921F1E708BD00BF48000020FE
:1031900008B50D4B01221A764FF082721A621A6836
:1031A000DA615A689A62094A93F830000221117074
:1031B00003F11801FFF70EF820B94FF483716B206B
:1031C000FFF74EFE08BD00BF300D00204800002074
:1031D00070B5EFF3108572B6264C94F83160002379
:1031E000012E84F8313006D0022E1DD0002E3BD1A6
:1031F00085F3108870BD85F3108894F8323003F0A1
:10320000FF0123B14FF4A9716B20FFF729FE1420B1
:10321000FFF7A2FF184B84F832601B78012BE9D12D
:10322000BDE87040FFF7B4BF94F8322012B940F205
:103230006311E9E7104984F832300B78023BDBB2C6
:103240001E2B0ED8012202FA03F30C4A1342CFD1EF
:1032500044F20402134204D020230B70FEF71AFE3E
:10326000C6E740F27F11CFE785F3108840F2A51141
:10327000CAE700BF300D0020480000204100004098
:1032800070B5144C94F8335025B14FF422716B2073
:10329000FFF7E6FD104B84F8325001261E700F4BED
:1032A0000F484FF4C852C4E900230E4BA360FFF748
:1032B00055FE294684F834000B48FEF74BFF2028C2
:1032C00084F8300002D140F29721E0E784F83360BF
:1032D00070BD00BF300D002048000020FF3F420FAE
:1032E000D13100000500B7005D34000008B5104B77
:1032F00093F8332022B940F2F7216B20FFF7B0FD9D
:10330000EFF3108172B693F8312022B1012A0DD06B
:1033100040F20731F1E7022283F8312001B962B6A9
:1033200093F83400BDE80840FFF734BE0022F3E70D
:10333000300D00200B4B93F8333010B523B940F219
:1033400016316B20FFF78CFDEFF3108472B6064B3D
:103350001A78102A03D108221A70FEF79BFD04B9CF
:1033600062B610BD300D00204800002070B5174B2C
:103370001B78042B27D1164D2B7D1BB96B89286830
:10338000C01A70BD00F0AEFA10F11E0495F83000BE
:1033900041F10006FEF708FF2B691B1841F10001FF
:1033A0009C4276EB01004FF000020CD2181B4FF04C
:1033B000FF3361EB0601834272EB0103E1D2A721E7
:1033C0006B20FFF74DFD0020DBE700BF4800002029
:1033D000300D002038B5144C94F8333023B94FF435
:1033E00033716B20FFF73CFDEFF3108572B694F854
:1033F000313023B1022B0DD040F2DF21F1E7012360
:1034000084F8313005B962B694F83400BDE838402C
:10341000FFF7C0BD054B1B780022042B84F8312038
:10342000F0D110F0ABF8EDE7300D0020480000209F
:1034300008B5094B19781029CAB207D0202A05D03F
:10344000042A04D110221A7010F0A8F808BD4FF415
:10345000E2716B20FFF704FD4800002070B50C46B8
:10346000FDF792FC611E06294AD8DFE801F00453FB
:10347000532823665F0001210220FFF76DFE314BC8
:10348000314A93F8321079B1042111701A68DA6068
:1034900000221A7593F83130022B01D010F06EF82B
:1034A000BDE87040FFF716BE20231370BDE87040E2
:1034B000FEF7F0BC4FF404716B20FFF7D1FC214CF8
:1034C00094F83230E3B1204B1B78042B19D100F073
:1034D00009FA064694F830000D46FEF765FE237D96
:1034E000012B0BD12269121841F10003964275EBB2
:1034F000030303D3BDE87040FFF79ABF0BF042F916
:1035000070BD124B0222C3F88020BFF34F8FBFF370
:103510006F8FF5E701210220FFF71EFE094B93F89C
:10352000323033B1BDE87040FFF732BE01212820B0
:10353000F2E7054B01221A70E2E7024B1B7D012BDB
:10354000AED1D7E7300D00204800002000E100E0B8
:10355000014B01229A777047680D00202DE9F04752
:1035600086468C460846089E154674461946002B2A
:1035700040F0C2808542B2FA82F245D94AB1C2F126
:10358000200300FA02FC2EFA03F3954043EA0C0CE8
:1035900094404FEA154EA8B2BCFBFEF8230C0EFB7C
:1035A00018CC08FB00F943EA0C43994528D9EB18DD
:1035B00008F1FF3704D2994502D9A8F102072B443C
:1035C000A3EB0903A4B2B3FBFEFC0EFB1C330CFB04
:1035D00000F044EA0344A04214D92C190CF1FF3343
:1035E00004D2A04202D9ACF102032C44241A43EACB
:1035F00007401EB1D440002334607360BDE8F087FB
:103600004746DDE76346F1E792BB431B01214FEAE2
:10361000154EAFB2B3FBFEFC200C0EFB1C330CFBB3
:1036200007F840EA0343984562D9EB180CF1FF30E4
:1036300004D2984502D9ACF102002B44A3EB080355
:10364000A4B2B3FBFEFC0EFB1C330CFB07F744EAF1
:103650000344A7424ED92C190CF1FF3304D2A742E0
:1036600002D9ACF102032C44E41B43EA0040C0E75A
:10367000C2F1200320FA03F1954090402EFA03F3A3
:1036800003434FEA154EAFB2B1FBFEFC0EFB1C101C
:10369000190C0CFB07F841EA0041884504FA02F4D2
:1036A00022D969180CF1FF3004D2884502D9ACF157
:1036B00002002944A1EB08019BB2B1FBFEFC0EFB0A
:1036C0001C110CFB07F743EA01439F420ED9EB188C
:1036D0000CF1FF3104D29F4202D9ACF102012B441C
:1036E000DB1B41EA004192E76046E3E76146F7E70A
:1036F0006046A3E76346B7E7834206D916B90021BF
:1037000008467BE7C6E900E0F9E7B3FA83F78FB92B
:10371000834201D3724508D8BEEB020460EB030379
:1037200001209C461EB9002168E73846FAE7C6E941
:10373000004CF8E7C7F1200CBB4022FA0CF41C4304
:103740002EFA0CF120FA0CF3B84001434FEA144969
:103750000EFA07F5B3FBF9F81FFA84FE09FB1830DF
:103760000B0C08FB0EFA43EA00439A4502FA07F2F3
:1037700040D9E31808F1FF3004D29A4502D9A8F1E4
:1037800002002344A3EB0A0389B2B3FBF9F809FB57
:10379000183308FB0EFE41EA03418E452CD961180F
:1037A00008F1FF3304D28E4502D9A8F10203214467
:1037B00043EA0040A0FB0298A1EB0E014145CE4632
:1037C000434602D306D14D4504D2B9EB020E68EB55
:1037D00004030138002EA6D0B5EB0E0261EB030105
:1037E00001FA0CFC22FA07F34CEA0303F940C6E99C
:1037F000003198E74046C5E74346D9E7FCF784BD6A
:10380000801A00F3070038B540B20D4659B214468D
:10381000FCF76AFD0023287020446B7040B238BD6D
:1038200073B5A0F10B040E46E1B20F29154603D97A
:103830004F216420FFF714FB0DF1030332460420EF
:10384000FCF70EFD034608B15821F2E704EB8404AF
:1038500004F665149DF90300A2B201A9FCF7F0FC7F
:103860009DF804302B709DF805306B7002B070BD70
:10387000002303607047002070474FF0FF3070470F
:103880004FF0FF30704770477047002070474FF08F
:10389000FF307047002070470020704700230370FE
:1038A00070470022FFF7ACBF002070474FF0FF3099
:1038B00070474FF0FF3070474FF0FF307047C0B295
:1038C000704770B5FCF760FD002405462646E0B25F
:1038D000854200D870BDFCF75DFD0134868480F818
:1038E0002660F4E7FDF756BA08B500F0AFF828B146
:1038F0004FF080430222C3F8342C08BD00F088F852
:103900000028F5D100F099F80028F1D1F5E74FF043
:10391000804301221A6070474FF08043D3F80804B7
:1039200000F0010070474FF08043D3F8140400F01A
:10393000010070474FF08043D3F81C0400F00300EF
:1039400070474FF080410246D1F81804D1F818149E
:1039500010F4803004D001F00300831A584258411B
:10396000704707B56846FDF70DF9DDE900024FF035
:1039700080730021E2FB030103B05DF804FB08B58E
:10398000FDF7EAF8BDE80840FDF7D0B8034600208F
:1039900018707047EFF3108272B603780121DBB222
:1039A000017002B962B6012B0CBF6FF0220000203B
:1039B0007047EFF3108372B60022027003B962B64B
:1039C00000207047FFF702BB4FF08053D3F830015F
:1039D000A0F10F035842584170474FF08053D3F87D
:1039E0003001A0F10A035842584170474FF080530C
:1039F000D3F83001A0F10E035842584170474FF000
:103A00008053D3F83001A0F1100358425841704759
:103A10004FF08053D3F83001062803D0431C58429E
:103A200058417047012070474FF08053D3F8300160
:103A3000A0F10D035842584170474FF08053D3F81E
:103A40003001A0F1080358425841704708B5FFF70C
:103A5000C4FF30B14FF08053D3F83401B0FA80F096
:103A6000400908BDFFF7F4BAFFF7F2BA00280CBF0F
:103A70006FF0150000207047002070470723037087
:103A800000207047002070470020704710B50446A2
:103A9000FFF76CFCA04294BF0020012010BD10F87D
:103AA000012B11F8013B012A28BF9A42F7D0D01A06
:103AB0007047034611F8012B03F8012B002AF9D1B6
:103AC0007047034613F8012B002AFBD1181A01385E
:103AD00070470000000000002DE9F04706468AB05C
:103AE0000F46904617F020FE4FF47A73A0FB034573
:103AF00003FB0155E40B012F44EA45444FEAD53559
:103B000008D1CDE900452A4A0821304614F0B6FF15
:103B1000002013E0D8F8047026483946FFF7BFFFAD
:103B200078B125483946FFF7BAFF50B13046234AED
:103B30003B46012114F0A2FF6FF004000AB0BDE87B
:103B4000F0872046294618A3D3E90023FCF7D8FACA
:103B500005460C4610461946194A0023FCF7D0FAD0
:103B600080460F46104619464EF660220023FCF7A9
:103B7000C7FA82468946104619464FF47A720023E6
:103B8000FCF7BEFACDE904A9CDE90601CDE9082389
:103B9000CDE90287CDE900540A4A0821304614F0E5
:103BA0006DFFB5E7AFF30080005C26050000000064
:103BB0009CD20100ADD20100B0D20100B9D2010007
:103BC00080EE3600D0D201002DE9FF4714461A7C62
:103BD00007697D2A0E468146D968984600F2DF8043
:103BE00007F58055931C28462B72093018F0D9FA36
:103BF00007F57F6A50460DF07DFF012E07D9022E92
:103C00004DD06FF08504204604B0BDE8F087002356
:103C1000ADF80D3094F84A30C3F34002C3F380038B
:103C20008DF8093001238DF80B30634B8DF8082097
:103C300007F5805093F8B4308DF80C3006F001068B
:103C400002A908308DF80A6008F06EFA002845D005
:103C5000594BD3F8AC301BB1424600214846984737
:103C60004FF0FF324FF0FF3350460DF01DFF95F837
:103C7000B22094F84A3062F3410384F84A3095F850
:103C8000B320DBB262F3820384F84A3095F88830BF
:103C9000052B23D8DFE803F0251F80862280002330
:103CA000ADF80C3094F84A30C3F34002C3F38003FC
:103CB0008DF8093001238DF80A303F4B8DF808202C
:103CC00007F5805093F8B4308DF80B3002A9083016
:103CD00008F05CFABAE76FF00F0494E76FF00404A1
:103CE00091E7D5F89440002C8DD007F5855858E918
:103CF000023213434AD02478386800220023CDE9E9
:103D0000002300231A46214604F00AFE0646002836
:103D10003FD0D5F894102246013115F0E4FE00287A
:103D200031DB95F8A03086F8483095F9A130AE33F4
:103D30009BB2FE2B28BFFE2386F8493058F8080CAA
:103D400058F804CC4FF47A74A0FB040104FB0C1166
:103D500017A3D3E90023FCF7D3F9C6E90801B2623F
:103D6000304615F019FE3868314613F090FE0024F5
:103D7000304615F0D8FDD5F8940016F0A0FB0023CE
:103D8000C5F894303FE76FF00B04F1E76FF02204C1
:103D9000F1E76FF00B04EEE76FF0220433E76FF00A
:103DA000790430E76FF068042DE700BFAFF30080BF
:103DB00000CA9A3B00000000001E00200000000026
:103DC0002DE9F34706464FF0FF384FF0FF3900F575
:103DD0008F6A4FF0FF324FF0FF3350460DF00CFE6C
:103DE00043681F78044600231A463946CDE9008906
:103DF000306804F095FD61683A460131054615F0DA
:103E000072FE074670BB237C85F8483094F9113068
:103E1000AE339BB2FE2B28BFFE2385F84930A27C2F
:103E200095F84A3062F3000385F84A30A068D4F868
:103E30000CE04FF47A71A0FB010C01FB0EC10EA344
:103E4000D3E90023FCF75CF9C5E90801AA623068F0
:103E5000294600F07BF8002804DB6068676016F0F4
:103E60002EFBB6E700236068636016F028FB284647
:103E700015F059FDADE700BF00CA9A3B00000000F5
:103E800008B5064B00214FF40050C3E90001044B74
:103E900004481B68DB699847002008BDC01E00204D
:103EA000543E002094C3010008B5064B00214FF496
:103EB0000040C3E90001044B04481B681B6A984793
:103EC000002008BDC01E0020543E002094C3010005
:103ED00010B5084B1978002081F00101197007F026
:103EE00027FD054B0548BDE81040D3E900230DF040
:103EF000D5BF00BFED630020C01E00205000002091
:103F0000012910B50B46044604D002290BD00B4AF8
:103F1000082105E016F0A8FA094A034608212046C0
:103F200014F0ACFD08E0506817F0A8FF054B1B68C3
:103F300081B2DB6804489847002010BDC0D1010061
:103F400087E20100543E002094C301002DE9F04FA8
:103F50000D4685B0002949D08868002849D0C3683B
:103F6000002B46D0038A002B43D015F08DFBAC68A4
:103F7000D0F80C900026002C34D11F492B6A6A6AB5
:103F800095F8488095F94970A3FB013B01FB02BB02
:103F9000AA6A4FF47A71B2FBF1F213EB020A174BE3
:103FA00019784FF0030081F001014BF1000B1970FB
:103FB00007F0BEFC124AFF233146484614F033F89E
:103FC000CDE902ABCDE900780E480D4B0E4A0068F2
:103FD000082114F053FD284615F0A5FC204605B035
:103FE000BDE8F08F238A64681E44C4E76FF01500B3
:103FF000F5E76FF03C00F2E740420F00EC63002071
:10400000EE630020503E0020E2D1010030B587B0C1
:1040100007F078FC01F064FF114B124918604FF46F
:10402000004200231048114C114DC1E900230DF04E
:1040300035FF18220021684618F0DBF801238DF8BF
:1040400000300020A3682B6016F04DFA2B686A46FA
:104050009B6A032120469847002007B030BD00BF6F
:10406000503E0020C01E00205000002094C30100DC
:10407000543E002008B500F0B7F80A4941610A49EA
:104080000122C0E900220A6008490A60084A0023A8
:104090001360084A03611360C0E90233064A1360E3
:1040A00008BD00BFFED301004C01002048010020E4
:1040B000603E00205C3E0020583E00202DE9F0418B
:1040C00007460E46154600F08FF8C36804461BB934
:1040D00043691A78002A41D10023E3606368BB4238
:1040E00056F8232008DB324B6361204600F062F86B
:1040F0004FF0FF30BDE8F081511C616192F8008003
:10410000B8F12D0FEFD1911C61615178A1602D297B
:1041100004D192786AB901336360E4E749B9244B6A
:1041200063614146284617F0BDFE0028DDD0C4F883
:104130000880D4F808802846414617F0B3FEB8F14D
:104140003A0F636900D070B91B7813B96368013303
:104150006360204600F02EF83F20CBE75A1C4261F6
:104160001B788360E5E742783A2A0BD0002222616F
:104170001B7813B9636801336360204600F01AF8B6
:10418000A068B7E718786268094928B901329742F0
:10419000626004DD56F82230C4E90431EAE7616167
:1041A0002D783A2D2046D5D100F004F82846A1E715
:1041B000FED30100074B02681A60074B42681A6081
:1041C000064B82681A60064BC2681A60054B02698A
:1041D0001A6070474C01002048010020603E00201A
:1041E0005C3E0020583E002000487047300100200F
:1041F000014B1B68184700BF5001002030B585B047
:1042000004460D4610220021684617F0F2FF0223F3
:104210008DF802302A46044B01932146684612F07D
:10422000DDFA05B030BD00BFF1410000014B186060
:10423000704700BF5001002080B505460E46174666
:1042400098460EF0F9F9034617F0E4FFDFF81890EE
:10425000044649F80030424630463946A84754F8EB
:10426000090003F0E9FE00BF080000002DE9F04757
:10427000058B04462807904611D4022905F007054E
:1042800040F0CC80204613F013FF78B10138218B29
:10429000042811D8DFE800F0C2106D8595000129CF
:1042A0000CBF45F0100545F02005258388F31188E3
:1042B000BFF36F8FBDE8F08701F0070AAA4500F051
:1042C000A5800027B9463E46A368002B00F0BC80BD
:1042D00041F00801218388F31188BFF36F8FA16833
:1042E000002900F0BA800D68002900F0B680D1F8EE
:1042F0000480334652462046C047002D76D02B68B6
:1043000029461D46F0E701F007035A1F012A1BD872
:10431000002221F00701062B276889B2C4E9002298
:1043200009D13B4603E0628B013262831B68002B9C
:10433000F9D141F002012183204613F0B9FE002893
:104340007AD041F0200176E0042B0AD121F0070158
:1043500089B22183204613F0ABFE10B141F0200159
:104360002183218B01F0070AAA454FD00027B946C7
:10437000AAE7236921F0070141F00601062DD3F8D1
:10438000009021832DD1B9F1000F3FD041F00801F9
:10439000218388F31188BFF36F8F3A492046C847BD
:1043A00029E021F00701236941F0040189B2042DBD
:1043B000D3F804902183E6D000273E464FF0040A4C
:1043C00082E721F00701236941F0050189B2052D3B
:1043D000D3F808902183D6D000273E464FF0050A37
:1043E00072E700273E464FF0060A6DE72B4687E747
:1043F000B9F1000FD1D1EFF31188402383F3128874
:10440000BFF36F8F238B23F008032383258BEA06EA
:104410002ED525F01003238305F007056669218B4F
:10442000002EBFF670AF00232768C4E9003321F0E7
:10443000070141F001012183218B01F0070AAA4500
:104440004FF000097FF440AF002F9CD041F00801ED
:10445000218388F31188BFF36F8F002FC8D03D6888
:10446000394633465246204613F04EFE2F46F4E7B7
:10447000AB067FF51BAF25F02003238305F007056E
:1044800000E700BF35810100014B03600020704749
:10449000F4C70100F0B40C4B0C4E5F6A0C4BB342F6
:1044A00003D36FF08500F0BC70475D68BD4209D34F
:1044B0001C693CB195F802C00579AC4502D1234690
:1044C000F0BC18472433EAE7643E00205007002080
:1044D0002C0700202DE9F047134CDFF85080DFF85F
:1044E000509005460E461746444503D36FF08500AD
:1044F000BDE8F0876268D9F824309A4212D3A369E4
:1045000083B190782979884205D13A4631462846C8
:10451000BDE8F04718475279012A03D13A4631469F
:10452000284698472434DFE72C0700205007002056
:10453000643E00202DE9F0410B4CDFF83080054649
:104540000E461746444502D36FF0850009E06369C3
:104550000BB92434F6E73A463146284698470028F6
:10456000F7D1BDE8F08100BF2C07002050070020E4
:1045700010B5044615F0FEFA10F1780F00D050B9CE
:10458000054A204613F062FFD2F8C43023EA000344
:10459000C2F8C430002010BD643E0020024B00224F
:1045A0001A605A60704700BF1F3F002070B50B4B68
:1045B0000B4CA34201D3002070BD196A1E7F00225C
:1045C0000439D5B2AE4201D82433F2E7013211F8F2
:1045D00032508542F5D10120EEE700BF2C070020C4
:1045E0005007002008B509480378C3F341130A3384
:1045F00050F823303BB100F1080200F11001984758
:10460000C043C00F08BD1846FCE700BF643E002051
:1046100004282DE9F14FDFF8989004460F4616D094
:1046200001282DD1DFF88C8098F8B93043B300F021
:1046300005FE214D4D4520D2D5F820B04FF0000A9F
:104640002B7F5FFA8AF6B34204D82435F2E7FFF7EE
:10465000A5FFE7E70BEBC6060AF1010A307915F072
:1046600089FA0246307913F0F1FED8F8C430002AF6
:1046700023EA0003C8F8C430E2DA002388F8B9302E
:104680000D4D4D4508D30B4B1B6A6BB13946204687
:1046900001B0BDE8F04F1847EB681BB13A46214620
:1046A000284698472435ECE701B0BDE8F08F00BFFD
:1046B00050070020643E00202C07002073B5C4B2D0
:1046C00063060D468DF8074007D02046FFF76EFFC2
:1046D00078B10D4B93F8BA0058B10B4E204655B146
:1046E00004F006FDF3691BB10DF10701082098479E
:1046F000012002B070BD04F023FDF369002BF7D058
:104700000DF107010920F2E7643E002073B58678B9
:104710008DF80060037942791C4C43EA0223ADF81E
:104720000230C378304603F003038DF8043013F0F1
:104730008DFED4F8C430184205460BD0304600F048
:104740005FFD3046FFF714FF16F07BFE10B9962090
:104750000DF054FF684604F0A7FC10F1780F03D069
:1047600010B1002002B070BD9DF8000004F024FDDF
:1047700010F1780F01D00028F3D1D4F8C430012013
:104780002B4384F8B900C4F8C430EBE7643E002042
:104790002DE9F047A34EB36904460F461546FBB911
:1047A000237803F01F03012B00F09D80022B00F003
:1047B000048133BB94F900002A686178002834DA58
:1047C000062912D008292BD0D9B9012313705170B2
:1047D00096F8C3305B0043F00103137002232AE113
:1047E00098470028DCD100200DE06288100A011FE4
:1047F0000129844605D9072803D8716AD2B20C78FA
:104800001CB96FF01500BDE8F0874E78664503D1FE
:104810009A4200F00B8101332144F0E70B780AE162
:1048200096F8BA301370012305E101390829E8D858
:1048300001A353F821F000BFD14800000348000055
:10484000DF480000034800005D4800000348000006
:10485000034800000348000069480000A07804F005
:1048600011FC0028BFD0CCE76388756A63BBFFF7F3
:1048700095FE638886F8BA30F369002BB3D06A4995
:1048800003209847AFE76B78042B10D0052B11D08D
:10489000022B04D16F796388BB4208BF01202B78BB
:1048A0001D442B78002BEED10028AAD0DFE795F825
:1048B0000380F4E76388BB42F1D1B8F1000FEED179
:1048C0002846FFF723FFEAE7FF270020B846E8E77E
:1048D0006388012B95D1002386F8C33083E7638872
:1048E000012B8ED1F8E796F8BA30D5F800C0002B2E
:1048F00087D0756AA38894F804E02A4610780028C7
:104900003FF47FAF5178022904D192F80480F0453A
:1049100000F293800244F1E78CF800208CF801202B
:10492000396060E7154494E00B2A7FF46AAF0027F2
:104930004FF0FF08C146BA4606E06B78042B0FD053
:10494000052B21D02B781D442B78002BF5D1F36952
:1049500013B1514607209847002F7FF444AF50E72A
:1049600095F80280A38895F803909845EAD163886A
:104970009945E7D1B8F1070F1CD806EB0803AA4602
:1049800083F8BB900127DDE7A3884345DAD1A378FC
:104990004B450AD0AF78384600F032FC3846FFF776
:1049A000E7FDB0FA80F77F09CCE72846FFF7AEFEB7
:1049B0000746C7E7AA460027C4E794F900206378B2
:1049C000002A18DA002B7FF41CAF24792D686306C7
:1049D0000AD02046FFF7EAFD00283FF412AF96F810
:1049E000BA30002B3FF40DAF2946204604F0C8FB37
:1049F00000236B70F2E6012B08D0032B7FF401AF8C
:104A00006388002B7FF4FDAE012103E0618800295B
:104A10007FF4F7AEA088FFF751FE00287FF4E3AEE5
:104A2000EFE600BF643E00201E3F00200228296000
:104A30007FF4F4AE4B883B60D5E694F900006278D1
:104A40000028BFF671AF002A3FF466AF0A2A7FF450
:104A5000D8AE2A78002A3FF4D4AE697804297FF4CE
:104A600061AFA9788B427FF45DAF072B96BF9B198E
:104A7000002393F8BB308CF80030D4E613B5164C05
:104A8000237DF3B9E268A168019201AB802013F0A5
:104A9000EBFC019AA3681344A360E3689B1AE360EC
:104AA0006BB962B12369E2889A4208DD94F8C820A4
:104AB00093FBF2F102FB11330BB90123237502B012
:104AC00010BD00231A4619468020237502B0BDE8A8
:104AD000104004F09BBB00BF643E002030B585B0A1
:104AE000002302460D460193002858D1002935D1F4
:104AF00008220B460DEB020115F055F8002804DAE8
:104B0000802004F0F5FA05B030BD2A4C029A2260EC
:104B1000039A626004F13802A2609DF90820BDF892
:104B20000E302575002AC4E903550ADB802B04D911
:104B3000802004F0DDFA0020E3E713B1C4E9033379
:104B4000E1E7FFF74FFD0028DAD0E28823699A42B7
:104B5000D4BFE260E360FFF791FFD4E7154CD4E9DE
:104B60000215002D01AB04DC15F01DF80028CADA8F
:104B7000C6E72A4615F017F80028D9DB019AA36882
:104B80001344A360E3689B1AE360002BBBD104F1DC
:104B90003803A360FFF726FD0028DCD1B0E78028AA
:104BA000B1D1044BDA68002AD5D11B7D002BD2D1BC
:104BB000A9E700BF643E0020054B064A9A62064AF8
:104BC000DA62064A1A63064A58629A610020704700
:104BD000643E0020914700009544000035450000E8
:104BE000D54400002DE9F3410446474D47484FF0B6
:104BF000FF334FF0FF320CF04BFE95F8B830002B2E
:104C00007BD16B6A83B142482C62E8616E6A04F022
:104C100017FC04F005FA041E10DA3C480CF0B0FE54
:104C2000204602B0BDE8F08100F0BEF8FFF7C4FFF7
:104C30006B6A002BE7D14FF0FF34EEE700F020FB6A
:104C4000041EEADB7378012B5AD1F379002B57D07D
:104C50000026684685F8C830ADF802308DF804604B
:104C60008DF8006004F020FA041ED6DB8027684629
:104C70008DF8007004F018FA041ECEDB254930468A
:104C800004F0CAFB041EC8DB2249384604F0C4FB0A
:104C9000041EC2DB204CDFF8848044451AD3002078
:104CA00004F08AFA041EB8DBD5F8C430802043F043
:104CB0000103C5F8C43004F07FFA041EADDBD5F85B
:104CC000C43043F48033C5F8C430012385F8B830CC
:104CD0000024A2E7276A0026227FF3B29A4201D875
:104CE0002434DAE707EBC30257F83310107904F0E5
:104CF00093FB01360028EFD09DE76FF077048CE737
:104D00006FF0150489E700BF643E0020B005002065
:104D100011460000DD4A00002C070020500700204B
:104D200030B51F4B8BB005AA03F110051868596800
:104D3000144603C40833AB422246F7D11B782370D4
:104D40001022002101A817F054FA12220021154860
:104D500017F04FFA102101A815F055F800281BDDB7
:104D60000828B8BF0820093801AB0E491A180020DE
:104D700012F8013F0AAC04EB131403F00F032833BD
:104D80006B44013014F8144C13F8143C0C700828D0
:104D90004B7001F10201EBD102480BB030BD00BFF6
:104DA0005AD20100EE6400202DE9F04F744B93F8C5
:104DB00000B087B0BBF1000F03D0724807B0BDE868
:104DC000F08F704C00264FF0011AB0463546B146C0
:104DD00023783BB96C4B02349C42F3D1684A0123DF
:104DE0001370EAE76378052B1BD8DFE803F08E0326
:104DF000C68E1D39402304A88DF810B0ADF81230CE
:104E00008DF814B014F0A1FE40B1082304A8ADF849
:104E1000123014F09AFE08B1ADF812B0BDF812309D
:104E2000E37123781C44D3E7E378002BF9D1A3780E
:104E30006BB108F101085FFA88F8F2E76B689C42F1
:104E400007D02435514B9D42F8D30020B6E7504D92
:104E5000F8E7AB68002BECD0414620469847E8E7DE
:104E6000002DF2D000222B7F9A42EED2296AA07840
:104E700001EBC2010B79984201D00132F3E701271F
:104E8000E07800F003008DF81400207994F805C054
:104E900040EA0C20ADF8120094F902000028FBB2A1
:104EA00028DA07F110004FF0010C0CFA00F010EABC
:104EB0000A0F26D143F080008DF8100004A8CDE938
:104EC0000213019214F041FEDDE90121039BC0B9F8
:104ED0009DF81020A27012F0800F18BF10330A71D5
:104EE00018BFDBB24FF0010214BF9A40BA404AEA41
:104EF000020A96E70120B84010EA0A0F01D11846CD
:104F0000DAE70137102FBBD1B7E7032E1DD1FFF72A
:104F100007FF074668B1FEF7D4FD102809D13846CF
:104F2000A31C07F1100250F8041B43F8041B904225
:104F3000F9D123786FF00201E218091B04EB530347
:104F4000D14213D50136F6B26BE7002EF1D1B9F19B
:104F5000000F3FF47AAFA4EB090389F80230C3F3E2
:104F6000072389F8033089F80480EBE702F801BCD5
:104F700013F8010902F8020DE2E7A14651E700BF6C
:104F8000ED6400204C060020290700205007002077
:104F90002C07002010B5094B00211A461C788442CA
:104FA00005D15C681CB1482303FB012010BD013111
:104FB000042903F14803F1D10020F7E7303F002036
:104FC0002DE9F34150F8303C10F8346C10330446AE
:104FD0000AD1036950F8282C980736D5D2B9590759
:104FE00015D5002344F8303C54F8303C10330BD036
:104FF00054E9097554F81C8C16F023FA00284FD098
:105000002E48214616F001FA02B0BDE8F08143F0C7
:105010000403236154F82C1C01AB304613F024FA2E
:1050200010B16FF01503DDE7019A54F82C3C1344DE
:1050300044F82C3C54F8283C9B1A44F8283C54F87B
:10504000243C134444F8243CCEE754F82C1C01AB18
:10505000304604F057F90028E3D1019D54F82C3C68
:105060002B4444F82C3C54F8283C5B1B44F8283C67
:1050700054F8243C2B4444F8243C002DB1D0304655
:1050800004F0E4F9B5FBF0F303FB1055002DA8D1B3
:1050900054F8283C002BA4D0304604F07BF9A3E759
:1050A00044F8200CA4F118000CF0D8FC002DABD073
:1050B000424639463046A847A6E700BFC81E002032
:1050C0004B1E012B73B506460D460FD8FFF762FF46
:1050D000044668B9012D09D101AB01220DF103018C
:1050E000304604F00FF9019B002BF5D102B070BDE2
:1050F00016F0A7F904F1340108B1012D05D10846D5
:1051000002B0BDE87040FFF75BBF034802B0BDE8E6
:10511000704016F07AB900BFC81E00202DE9F74F85
:10512000804600911746994613F0E9F90446002895
:105130005CD1EFF3118B402383F31288BFF36F8FA1
:105140002C4900220846002301910CF0ADFC019986
:1051500068B9DFF8A4A0482262430AEB02056E6832
:1051600016F1100F12D108460CF078FC06E001345D
:10517000042C01F14801E4D16FF00B068BF3118888
:10518000BFF36F8F304603B0BDE8F08F0AF802809E
:105190000C9A009B6A610D9A2861AA6140466FF0E3
:1051A0000F02C5E90237C5F844906A6004F04EF971
:1051B00058B1404604F04AF9B7FBF0F202FB107711
:1051C0001FB16A6C42F004026A6419F0020F08D041
:1051D000482202FB04A10948343116F016F90026D2
:1051E000CCE7404604F0D6F80646C7E76FF00F0656
:1051F000C8E700BF4C3F0020303F0020C81E002001
:1052000010B5EFF31184402383F31288BFF36F8F3F
:10521000FFF7C0FE50B14368103307D16FF08B0326
:10522000436000F13401044816F0EFF884F311886C
:10523000BFF36F8F10BD00BFC81E0020F8B50E4C25
:1052400004254027EFF3118687F31288BFF36F8F91
:105250006368103307D16FF08B030848636004F173
:10526000340116F0D2F886F31188BFF36F8F013D39
:1052700004F14804E6D1F8BD303F0020C81E0020EC
:1052800070B50A4C0A4E00253146204616F0A1F8AA
:105290000122A4F118001146013516F04BF8042D37
:1052A00004F14804F0D1002070BD00BF643F00202D
:1052B000C14F000070B504460E46017915481546E9
:1052C00013F0F9F810B394F900206378002A16DB84
:1052D000202B04D0222B0ED06FF085000AE02B6823
:1052E0001A6840F8102C9A8820F80C2C9B7900F84A
:1052F0000A3C002070BD638800F8093CF9E7212BC7
:10530000EAD11038072328603360F2E76FF012000B
:10531000F0E700BF5040002008B50146034813F0F5
:10532000D8F810B1012300F8073C08BD5040002018
:105330000169012381F84B300B6833B191F8493092
:105340001BB10248083116F060B87047C81E002033
:105350000169012381F84A300B6833B191F8483074
:105360001BB10248083116F050B87047C81E002023
:1053700070B5012382F8483013680D4614463BB1DE
:1053800092F84A3023B10E4802F1080116F03DF8B8
:10539000D4F890309A681B699A4205D17DB904F11E
:1053A000180140F6CD4204E004F11801002DF8D0B8
:1053B0000022BDE87040024800230CF011BD70BD12
:1053C000C81E002038B5056995F89E0088B195F88B
:1053D0009F307BB985F84830D5F8900012F0C1FFB6
:1053E000002204460023044805F118010CF0F8FCE3
:1053F000204638BD0020FCE7C81E00200D4A0346A9
:105400000021A0F848101068C3F8940090889279A1
:10541000A3F8980083F89A2083F89C1083F89B10D7
:10542000A3F89E1083F8A010402203F14C0016F060
:10543000E0BE00BFC8C40100F0B5D0F88C305B6896
:105440001B6A1F7D85B00446384613F058F806469F
:10545000F8B994F88630E3B1A06F4FF4806203A9E5
:1054600012F09EFF0546A0B18306A4F1180308BF01
:1054700000F1FF3584F830600193074B03990093E6
:105480002A4602233846FFF749FEA06F294612F04C
:10549000A7FF05B0F0BD00BF7153000010B504694F
:1054A0000023C4F8A8300C4BC4F8A400596804F1D8
:1054B000A80269B9C3E9002204F10800074915F000
:1054C00088FF04F11800064915F0AFFF002010BD59
:1054D0000A605A60F0E700BF5040002029850100B3
:1054E0003954000030B54FF40033426805690D4C63
:1054F00085B042F2A100CDE90103002385F89D307B
:10550000106AADF80C1000790A2201A912F0ACFF64
:1055100095F89D3023B9012015F079FD013CF7D1B4
:1055200005B030BDA186010013B504698DF80710E0
:10553000002384F84830D4F8900001220DF10701CF
:1055400012F00FFF10B915F07CFF40B121220023AB
:1055500004F1180106480CF043FC02B010BD94F8A9
:10556000A130002BF2D0002121200DF029F8E2E734
:10557000C81E002037B514460A1E054620DDD4F8A3
:105580008C0004F14C0112F0ECFE012384F8493048
:1055900023683BB194F84B3023B1114804F1080162
:1055A00015F033FFD4F88C104B684A699A1ACB690E
:1055B0009B1A3F2B04D8012384F8A03003B030BDE0
:1055C00094F89E30002BF9D0064B009301940123F0
:1055D000402204F14C012846FFF7A0FDEEE700BF92
:1055E000C81E002075550000F7B50D4601461D4840
:1055F00012F055FF044610B30646691E56F8A4394A
:105600005F6805291BD8DFE801F01C1A031C22265D
:1056100010F8061C99B9012300F8063C3B6A324693
:10562000187BFFF7A7FF14F85C2C42B93B6A187D82
:105630000D4B0093019602231146FFF76FFD03B057
:10564000F0BD304603B0BDE8F040FFF7D7BE012300
:1056500004F8053CF3E710F8053C002BEFD00023DD
:10566000F6E700BF504000207153000037B5094DE8
:105670000949002400944FF0FF334FF4806228461C
:105680000CF070FB054928460CF00EFC204603B0D8
:1056900030BD00BFC81E0020C0A7002079D2010085
:1056A00008B5034A034B082113F0E8F9002008BDB0
:1056B00089D2010082D2010010B5044606F0F8F844
:1056C000084A03460821204613F0D8F9064A204626
:1056D000082113F0D3F9054821460DF069F80020A0
:1056E00010BD00BF1ED301003DD30100F1560000E4
:1056F00070B58EB004460D46D0F89C6015F0A7FE3C
:10570000024616F087FD254B1958254B002A18BF75
:105710001346CDE90043234A234B28468C4218BF49
:105720001346224A082113F0A9F9D4E90A23CDE946
:10573000022394F90E300093237B1D4A284608214A
:1057400013F09CF906A9202220460CF0BDFB626EE6
:1057500000920346174A0821284613F08FF905A93D
:10576000204615F084FE034630B1134A082128462E
:1057700013F084F90EB070BD059A6423B11ACDE917
:1057800000214B430D4AB3FBF6F30821CDE9026338
:105790002846334613F072F9ECE700BF080000001A
:1057A00049D301006EDB010047D301004CD3010057
:1057B00058D3010084D301009BD30100C8D301005A
:1057C000F0B5002593B0044629460AAF1C220BA869
:1057D00016F00FFD144E1A222021384616F009FD4E
:1057E000214612480CF0E4FF09AA4FF4006130464C
:1057F00015F031FE09996422C1F5006042434FF46F
:105800000063D20ACDE90403CDE9023106922046B5
:10581000CDE90057064AA6F14003082113F02EF9FE
:10582000284613B0F0BD00BF00BD0020A558000001
:10583000FFD3010010B5044614F027FD034A0346C8
:105840000821204613F01AF9002010BD48D40100A9
:1058500073B5134600220192044601AA58680A2132
:1058600001F002FC019D95B920EAE0744FF4004676
:10587000294640F2E7304FF47A720023C4FB060158
:10588000FAF78EFC0CF09CFE284602B070BD2B4649
:10589000034A0121204613F0F1F8019DF4E700BF0F
:1058A0005ED40100F0B50446D0F89C6089B00D4686
:1058B00007A915F0DCFD034630B1104A082128463F
:1058C00013F0DCF809B0F0BD204615F0C0FD0C4F18
:1058D000079A002818BF0746B11A6423CDE90221B0
:1058E0004B43CDE90076B3FBF6F3064ACDE90463FA
:1058F00008212346284613F0C1F8E3E79BD30100B3
:1059000049D301007ED401002DE9F04387B005465C
:1059100068460BF019FE009E184A194FDFF86480A4
:10592000DFF86490142303FB00660821284613F077
:10593000A5F8009CB44203D3002007B0BDE8F08373
:1059400023680BB11A7832B923463A46142101A8CC
:1059500010F0A8FD01AB42460821284613F08EF84E
:10596000204615F059FB094B094A002808BF4B4651
:105970000821284613F082F81434DBE79AD5010099
:10598000A4D50100A9D5010091D501008BD5010056
:10599000E4DB01008B1E022B2DE9F041074688460F
:1059A000144637D860681022002110F017FEB8F1B5
:1059B000020F064607D1264A20230821384613F055
:1059C0005DF8336816E00A220021A06810F006FE98
:1059D000C5B21F4A2B460821384613F04FF8B8F1DC
:1059E000040F1AD0102D0DD0202DEAD0082D0CD187
:1059F0003378DBB2174A0821384613F03FF800200D
:105A0000BDE8F08133889BB2F4E7134A0821384699
:105A100013F034F86FF01500F2E7E068102200216F
:105A200010F0DCFD0D4A034604460821384613F009
:105A300025F8102D06D0202D07D0082DE5D1E4B291
:105A40003470DCE7A4B23480D9E73460D7E700BF14
:105A5000E2D501000DD60100F7D501001ED60100E8
:105A60002DE9F04F594BDFF868A185B0914601222E
:105A7000074688461A60FEF7FDFA4FF0FF352026EC
:105A80002C46494652464046FEF718FB411C07D1BA
:105A90006A1C52D14F4A0121384612F0EFFF1DE037
:105AA000732820D0772833D0612817D1DFF828B1A8
:105AB0001022DBF80000002110F090FD05460028C0
:105AC000DFD116F0A7FB454B1B58162BD9D1DBF8BD
:105AD0000030434A0121384612F0D0FF6FF0150024
