:1010000000000420B5120000DD120000DF12000015
:10101000E1120000E3120000E512000000000000F1
:10102000000000000000000000000000E7120000C7
:10103000E912000000000000EB120000ED120000B9
:10104000C1A2000055280000EF120000EF120000BE
:10105000EF120000EF120000EF120000EF1200008C
:10106000EF120000EF120000EF120000EF1200007C
:10107000EF120000EF120000EF120000EF1200006C
:10108000EF120000EF120000EF120000EF1200005C
:10109000EF120000EF120000EF120000EF1200004C
:1010A000EF120000EF120000EF120000EF1200003C
:1010B000EF120000EF12000000000000000000002E
:1010C000EF120000EF120000EF120000EF1200001C
:1010D000953A0000EF120000EF120000719C000032
:1010E000EF120000EF120000EF12000000000000FD
:1010F00000000000EF12000000000000EF120000EE
:1011000000000000000000000000000000000000DF
:1011100000000000000000000000000000000000CF
:1011200000000000000000000000000000000000BF
:1011300000000000000000000000000000000000AF
:10114000000000000000000000000000000000009F
:10115000000000000000000000000000000000008F
:10116000000000000000000000000000000000007F
:10117000000000000000000000000000000000006F
:10118000000000000000000000000000000000005F
:10119000000000000000000000000000000000004F
:1011A000000000000000000000000000000000003F
:1011B000000000000000000000000000000000002F
:1011C000000000000000000000000000000000001F
:1011D000000000000000000000000000000000000F
:1011E00000000000000000000000000000000000FF
:1011F00000000000000000000000000000000000EF
:1012000010B5054C237833B9044B13B10448AFF340
:1012100000800123237010BD680200200000000040
:1012200004DD000008B5034B1BB103490348AFF3CD
:10123000008008BD000000006C02002004DD0000FA
:10124000154B002B08BF134B9D46A3F5803A002198
:101250008B460F461348144A121A09F042FB0F4BF3
:10126000002B00D098470E4B002B00D09847002051
:10127000002104000D000D48002802D00C48AFF3F7
:10128000008009F0B7FA2000290009F0DBF809F026
:101290008BFA00BF000008000000042000000000DE
:1012A0000000000068020020903F022000000000C3
:1012B000000000000649074A074B9B1A03DD043B68
:1012C000C858D050FBDC09F075F9FFF7B9FF0000F2
:1012D00090DD00000800002068020020FEE7FEE725
:1012E000FEE7FEE7FEE7FEE7FEE7FEE7FEE7FEE7D6
:1012F00041B94FF0A0430322C3F84C274FF400221A
:10130000C3F80C25704700002DE9F84F274E3278BE
:10131000002A49D126482749274B284D1A72091A15
:1013200059605A72DA721A735A739A73DA73012116
:101330004FF08052186099721169596152692048C2
:101340004A431A6109F076FF01302C184FF061080A
:10135000A9464FF02D0A4FF0300B484609F06AFFBE
:10136000671B874207D3174803F0F2FB08B9012334
:101370003370BDE8F88F237823F02002413A192A10
:101380000FD92B3BDBB20E2B05D847F6ED7222FAB4
:1013900003F3DA0705D4B8F12D0F14BF53465B46AB
:1013A000237014F8018BD8E70020E2E784020020C4
:1013B0000010000090DD00009802002008000020CE
:1013C00020C30000FCC2000007B501A802F070FFB6
:1013D00020B90190019803B05DF804FB019B002B3C
:1013E000F8D101230193F5E738B5044602F0F2FB8A
:1013F0000546204602F0F4FBA54203D0BDE8384084
:1014000002F0DBBC38BD02F0E5BB08B500F0D4F853
:1014100001F094F800F00CF901F098FD01F092FF52
:1014200002F07EFB02F00EFA02F08EFB02F0B2FC3C
:1014300002F0B4FC02F0D6FC02F0CEFD02F0C4FED5
:1014400002F0E4FE02F0E6FEBDE8084003F0AEB8AC
:10145000012002F0A4BC012300221146184602F02C
:10146000A0BC000008B590F8803033B1074B084AA3
:1014700040F2A511074809F079F902F09CFC20B967
:10148000054B034A40F2AB11F4E708BD43C300002B
:1014900028C300005BC30000A6C3000002F07ABBB3
:1014A00002F080BB704770B504460D461646FFF744
:1014B0008BFF324603462946204608F091FF70BD57
:1014C0007047704711B10846FFF7CCBF7047F7B5BA
:1014D000054616461F460C4651B1FFF775FF0090B2
:1014E0003B46324621462846FFF7ECFF03B0F0BDED
:1014F0000846F4E770477047704770477047000030
:101500002DE9F74F01939BB1224C267808274FF025
:10151000000875B2C6464FF0020CAE450CDD08F16E
:101520000103734508BFF04682F8008000202EE0DA
:10153000194C02272678EAE7A5EB0E0494FBFCF48D
:101540007444E4B24FFA84F8B045E8DA019B18FB22
:1015500007FA01EB0A097BB151F80AA00368534569
:1015600010D305D8D9F8049043684B450AD30CD959
:1015700001344FFA84FED0E7B0F800B031F80A9099
:10158000CB45F3E7013C65B2C7E71470012003B017
:10159000BDE8F08FB0020020B1020020134622B156
:1015A0000A4603490123FFF7ABBF0A460149FAE7A0
:1015B000B202002002030020044B01221A70044AE8
:1015C00000231370034A1370704700BF16030020F6
:1015D000B0020020B102002007B5144B1A78014672
:1015E0000AB3837803F00C00082805D00C2815D026
:1015F000104603B05DF804FB01F10800497803F0E0
:10160000C003490658BF0230802B0AD0C02BEFD14F
:101610000DF10701FFF7C2FF0246E9E701F10E00F5
:10162000ECE70022F4E70122E2E700BF1603002006
:1016300007F018BB014807F057BB00BF2C00002083
:1016400007F07CBB014807F025BB00BF2C00002041
:1016500008B510B902F028FD08BD0128FCD102F040
:1016600013FAF9E700F1804000F58050002382B0C2
:10167000036003680193019B02B07047034B186835
:1016800008B190F8800000F00100704728030020A6
:1016900008B5FFF7F3FF08B1014B186808BD00BF9C
:1016A0002803002000BF00BF00BF00BF00BF00BF75
:1016B00070470000134B144AC3F8482500F18040DE
:1016C00000F58050C3F84C0521B102F5FD424832C7
:1016D000C3F82C290D4AC3F8402502F5AF3202F5B4
:1016E0009672C3F8442529B1D3F8002842F080024D
:1016F000C3F80028034B8022C3F804254022C3F816
:101700000425704700F001403C7101401011004079
:10171000034B1B781BB1034B1022C3F808237047FF
:10172000250300200010004010B5044602F0A6FC7E
:10173000C00902280B4A11D9811EE3098B4233BF2D
:101740000021A4EBC114C31E116028BF1460064A17
:10175000C3F31403C2F86436012010BD14600020E6
:10176000FBE700BF200300200010004013B51F4C12
:1017700001A802F04FFAD4F86C269DF8043022F04C
:101780000702C4F86C26D4F86C261343C4F86C36F0
:101790009DF8050002F010FDD4F86C3623F47F4369
:1017A000C4F86C36D4F86C3643EA0020C4F86C06F2
:1017B000D4F86C269DF8061022F47F02C4F86C263B
:1017C000D4F86C3643EA0143C4F86C36D4F86C267E
:1017D0009DF8071022F07F42C4F86C26D4F86C36CE
:1017E00043EA0163C4F86C3602B010BD001000403B
:1017F00008B5002002F06CFC034B00221A70BDE813
:10180000084002F039BD00BF2503002008B5037869
:10181000184410F8010C02F0C1FC00B28000FF284F
:1018200028BFFF20C0B208BD38B5074B1C6805466D
:101830000146204601F064FB28B129462046BDE858
:10184000384002F076B938BD2C03002010B50446AC
:1018500001F09CFC204602F067F9BDE8104001F061
:1018600081BB000008B5084BD3F8503513F0FF0FCB
:1018700007D1FFF717FF054B1868003018BF01208C
:1018800008BD0120FCE700BF001000403C71014092
:10189000164B17484022C3F808258022C3F80825B4
:1018A0004FF48072C3F80825D3F80028002122F0F5
:1018B0008002C3F80028C3F82C19A3F5AF33A3F5B1
:1018C000F87301221A60D0F8003223F4A063C0F844
:1018D0000032084B1B783BB1074B4FF45050C3F814
:1018E0000803C3F800121A61704700BF00F00140FE
:1018F000009000402503002000100040134B4022C0
:10190000C3F808258022C3F808254FF48072C3F875
:101910000825D3F8002822F08002C3F8002800220E
:10192000C3F82C290A4B1B7873B10A4B0821C3F862
:1019300008130949C3F8002201200860C3F84426AF
:101940004FF4AE70FFF78EBE704700BF00F001404D
:10195000250300200010004010100040114B4022D1
:10196000C3F808258022C3F808254FF48072C3F815
:101970000825D3F8002822F08002C3F800280022AE
:10198000C3F82C29084B1B785BB1084B4FF400417E
:10199000C3F80813C3F80022054A0123136042F874
:1019A000183C704700F00140250300200010004063
:1019B00028100040114B4022C3F808258022C3F8AC
:1019C00008254FF48072C3F80825D3F8002822F0C8
:1019D0008002C3F800280022C3F82C29084B1B788A
:1019E0005BB1084B4FF4C021C3F80813C3F80022C1
:1019F000054A0123136042F8203C704700F0014083
:101A000025030020001000403010004008B5A0F170
:101A10000B030F2B06D9074B074A084840F2CB119E
:101A200008F0A4FE0A38064B00EB8000C3F8080556
:101A300008BD00BF69C40000FCC3000088C40000EA
:101A400000100040174B10B54022C3F80825802233
:101A5000C3F808254FF40072C3F808254FF48072CC
:101A6000C3F80825D3F80028002422F08002C3F828
:101A70000028C3F82C490C4B1B7893B102F0D4F921
:101A8000A04214BF4FF000630823084A43F48023A8
:101A900043F00203C2F808330123C2F80042136383
:101AA000136110BD00F0014025030020001000402C
:101AB000044B002282B01A601B680193019B02B0A4
:101AC000704700BF3C71014010B5144B1B780446B1
:101AD000F3B1AE2002F0B6FAD0B1114A4FF4205360
:101AE000C2F800324FF4A470FFF7BCFD4FF4A270AF
:101AF000FFF7B8FD4FF4C023C2F80433FFF7D8FF57
:101B000001210420FFF7D6FD1CB9064B01221A6003
:101B100010BDFFF7A7FE0028F7D0F9E72503002046
:101B2000001000401010004038B54A4B1B780446A6
:101B3000002B00F08780484A137803F0FC036FF312
:101B40008203137002F054F8444AC0B2C2F80C0584
:101B5000FFF794FD0546002875D0FFF799FD404B2F
:101B6000C2F80405C2F800321823C2F860354FF4F9
:101B70009A70FFF777FD4FF49470FFF773FD4FF401
:101B80009870FFF76FFD37494FF45053C2F8043394
:101B9000D1F8003243F4A063C1F800320123C1F848
:101BA00040358223C1F844358323C1F84835FFF717
:101BB0007FFF2D4B2D482E4AC3F84825C3F84C050E
:101BC00000F5F030C3F82C09C3F85025C3F85415BC
:101BD000D3F8002842F08002C3F80028254AC3F851
:101BE000402502F5AF3202F59672C3F844258022F3
:101BF000C3F804254FF48072C3F80425A0F5EF3034
:101C00004022C3F80425D43802F03EFBECB91A4B4D
:101C100001221A60B5B902F0E7FA184B1860FFF715
:101C20002DFD78B1FFF734FD0C4B0D4AC3F80405C8
:101C3000C3F80022D3F85035DBB2022B02BF104BA1
:101C400001221A6038BD52238CE7FFF70BFE0028F3
:101C5000DDD0DFE725030020240300200010004032
:101C6000520008000090004000F0014004100040C5
:101C70003C7101401011004010100040280300206A
:101C80000810004010B5124B1B780446CBB1114B25
:101C90001868FFF749FDA0B10F4A4FF40041C2F8A0
:101CA00000124FF49E70FFF7DDFCC2F80413FFF73B
:101CB000FFFE01210420FFF7FDFC1CB9074B0122A8
:101CC0001A6010BDFFF7CEFD0028F7D0F9E700BF7E
:101CD00025030020200300200010004010100040C9
:101CE00008B5064B1B7833B102F0C8F93B2894BF06
:101CF0000020012008BD0120FCE700BF25030020D3
:101D000010B501F0CBF9044628B1FFF7E9FF04460E
:101D100008B901F0D9F9204610BD0000F8B5474BCD
:101D20001B781B0772D5464D464F2B685C78C4F371
:101D300040142E46002C6AD0FFF7A0FC424C434AC8
:101D4000434B051E08BF12234FF04001C2F808158F
:101D5000C4F8003203D0FFF79BFCC4F804053D4BE8
:101D6000C4F8083302F060F850B14FF00063C4F8D3
:101D700008334FF48670FFF775FC0823C4F804336A
:101D800032494FF40073C1F80835334BC1F8483578
:101D9000A3F5B033A3F59C73C1F84C3503F5F033CC
:101DA000C1F82C39FFF784FE8023C1F804354023A5
:101DB000C1F8043506233B70FFF754FD10B9274BDB
:101DC00001221A60B5B902F00FFA254B1860FFF72F
:101DD00055FC78B1FFF75CFC1B4B1D4AC3F80405AA
:101DE000C3F80022D3F85035DBB2022B02BF1D4BE3
:101DF00001221A604FF4AE70FFF734FC3368124AC8
:101E0000DB781B0643F40073C2F84436F8BDFFF7D5
:101E100019FE022301203B70FFF786FE2D6801F0BA
:101E2000B5F9284601F06AF823462246214628469D
:101E300001F07CFEBDE8F84001F094B824030020D6
:101E40002C030020260300200010004000F0014079
:101E500012000800020004003C7101401010004014
:101E600028030020081000401649402310B5C1F88F
:101E7000083518B1144B5222C3F80022134B144AF0
:101E800001241C608023C1F80435137803F0FC039F
:101E90006FF382034FF494701370FFF7E3FB0A4B68
:101EA0001822C3F86025FFF703FE4023C1F804356C
:101EB000084802F0E9F9FFF7D5FC08B9064B1C60A9
:101EC00010BD00BF00F00140001000401090004025
:101ED00024030020301100401010004038B50A4B98
:101EE0000546D3F8480500F07F0002F050F904469B
:101EF0002846FFF78BFC614242B249B22846BDE852
:101F0000384001F00EBE00BF00100040F8B5054695
:101F10000F46164600F0DEFF044680B1524B1B7898
:101F2000092B00F29780DFE803F0050C0F226262B4
:101F30006C707982022F02D0042002F0C9F820468A
:101F4000F8BDFFF7E5FBFAE7484B1B785B070BD5BD
:101F5000002D00F08680FFF79BFC002EEFD00620BE
:101F600001F0E2FD3446EAE7FFF792FCE7E7002DD7
:101F700077D03F4B4022C3F808258022C3F80825BC
:101F80004FF48072C3F80825D3F80028002722F008
:101F90008002C3F80028C3F82C79A3F5AF33A3F56A
:101FA000F873344A01251D60D2F8003223F4A0638F
:101FB000C2F80032304B1B787BB101F035FFB842DC
:101FC0002E4A14BF4FF00063082343F00203C2F807
:101FD00008332B4BC2F800721D60002EAFD0294B86
:101FE0001868002380F88030FFF778FFBAE7002DEB
:101FF00037D0FFF727FD002EA1D00620FFF714FCF5
:102000009DE775B3FFF77AFCF5E755B3FFF7A6FC3C
:10201000002E94D0012001F090FDA3E70DB3FFF74F
:10202000C9FC002E8BD0012001F08BFD9AE7104BEC
:102030004022C3F808258022C3F808250E4B1B78E0
:1020400003F0FF02002B3FF47AAF0D4B0121196022
:10205000144674E70C4B0D4A0D4840F21E5108F02F
:1020600085FB2C466BE700BF2603002024030020DD
:1020700000F00140009000402503002000100040C7
:10208000101000402803002055C3000008C40000C1
:1020900088C4000010B5044601F078F82046FFF728
:1020A0001DFFBDE8104000F05DBF0000F8B5384BE3
:1020B0001B7807460C4615460BB90020F8BD007882
:1020C0007B7840019B0654BFEE3000F24E4009B1D0
:1020D000A83080B201F0B6FF06460028EDD001F02E
:1020E00087FD2C4BC0B2C3F80C05C3F804751F461E
:1020F000002C37D001F098FE002814BF4FF4801355
:10210000022343F48723C7F8003201F08DFE98B311
:102110004FF4B670FFF7A6FA4FF000622CB14FF4FF
:10212000A470FFF79FFA42F480224FF48270FFF709
:1021300099FA194B19786FF3C3011970154B42F0D6
:102140000202C3F80423FFF7B3FC002C14BF0420E1
:1021500000200121FFF7AEFAA5B9104B01221A6049
:102160003046ABE701F060FE002814BF4FF4801347
:10217000022343F48023C6E74FF48670FFF772FA18
:102180000822CBE7FFF76EFB0028E6D096E700BFFA
:102190002503002000100040240300201010004000
:1021A0002DE9F041334E344D344C4FF0400852236A
:1021B0002768C5F80885C6F800321823C6F86035C8
:1021C00001F032FE002814BF4FF00063082343F0F3
:1021D0000203C6F808334FF49A70FFF743FA4FF43E
:1021E0009470FFF73FFA4FF49870FFF73BFA4FF403
:1021F0005053C6F80433224B01261E604FF400737F
:10220000C5F808358023C5F80435FFF751FC1D4893
:10221000C5F8048502F038F8FFF724FB08B91A4B1B
:102220001E602368002283F8802001F0DDFF20601B
:10223000FFF724FA78B1FFF72BFA0E4B134AC3F8D5
:102240000405C3F80022D3F85035DBB2022B02BFDD
:102250000F4B01221A600F4B02221A700E4A13789C
:1022600003F0FC036FF3820313703846BDE8F041BE
:10227000FFF710BF0010004000F0014028030020CD
:102280001090004030110040101000405200080033
:10229000081000402603002024030020F8B504465F
:1022A000002800F0C18001F0E9FE3B2840F2B68032
:1022B000924D2B7803F0FF06002B40F0AF80904C3E
:1022C00001270F23C4F8FC6FC4F8FC7FC4F8103555
:1022D000D4F8143523F00F03C4F81435D4F81435AA
:1022E00043F00803C4F81435D4F8143523F04073D0
:1022F000C4F81435D4F8143543F00073C4F8143519
:10230000D4F8143523F08063C4F81435D4F81435A8
:1023100043F08063C4F81435D4F8183523F0FF0374
:10232000C4F81835D4F8183543F07F03C4F81835CD
:10233000D4F8503623F00103C4F85036D4F85036A0
:102340003B43C4F85036D4F8343523F00303C4F8C3
:102350003435D4F8343543F00203C4F83435D4F8B6
:10236000343523F44073C4F83435D4F8343543F4A9
:102370000073C4F83435634BC4F83835FFF7F6F909
:10238000614BC4F84466C4F8483601F023FCFFF7FB
:102390003DFB5E4B022283F80163C3F88021D4F831
:1023A000003233B15A4B5B4A4FF4D2615A4808F0BD
:1023B000DDF95A4C227812B12F7001F04FFF2378CB
:1023C000092B2CD8DFE803F02A2B052B0A122B153A
:1023D0001A1F0020BDE8F840FFF7A6BB002201212C
:1023E0004F4B1868BDE8F840FFF760BE0022114669
:1023F000F6E70020BDE8F840FFF744BC0020BDE848
:10240000F840FFF761BB2B7843B1FFF751FB002188
:102410000846FFF74FF9434B01221A60F8BD424BC3
:102420003C4A4FF4D761C1E7344A1378002BF5D00A
:10243000364B0225C3F88050C3F8805183F801035E
:10244000BFF34F8FBFF36F8F2D4B0126C3F8FC0FE7
:10245000C3F8FC6F107001F00FFF2246294630468A
:10246000FFF754FD20B9314B314A40F2CF619DE76F
:102470002A4B1A78092A3CD801A151F822F000BF52
:102480001D240000A9240000B5240000C72400007A
:10249000DD240000DD240000DD2400001D240000F8
:1024A0001D2400001D24000000221A70BDE8F84021
:1024B000FFF79EB91F4B1B785B07AFD50520BDE822
:1024C000F840FFF7C3B902221A701B4B18680023AB
:1024D00080F88030BDE8F840FFF7DCBD02221A70BA
:1024E00000F054FE0420FFF79FF9BDE8F84000F02B
:1024F00039BD0D4B0E4A40F2FA6157E72503002023
:102500000010004021100100000700FF00E100E082
:1025100024C5000024C4000088C400002603002055
:102520002C0300201010004055C30000A6C300007B
:1025300037C40000240300202803002007B5144BF3
:10254000186800909B881348ADF80430062269464D
:1025500008F0A3F9104A00231370104A1370104BAF
:10256000D3F8042522F00302C3F80425D3F8082584
:1025700022F00302C3F80825D3F8102522F00F0239
:1025800042F00402C3F8102503B05DF804FB00BF5D
:10259000ADC3000017030020260300202503002000
:1025A00000900040F8B5044600F078FD0646F0B112
:1025B0001E4D2B780BB9344616E02B78012BFAD040
:1025C000FFF78EFB40B3012220461146FFF79EFC29
:1025D000044648B101232B70154B1B7803F0FF070D
:1025E00033B92F70FFF704F900F06EFD2046F8BDF7
:1025F0004FF48870FFF736F80E4B1022C3F804230F
:10260000D3F8501511F0FF01D5D1FFF781F83C4602
:102610002970FFF7EDF8E7E7064B0122C3F8FC0F3E
:10262000C3F8FC2F2870FFF7E3F8C4E72603002067
:1026300025030020001000402DE9F8430746884696
:102640001546994600F02AFD044600B3124E337831
:10265000022B09D03378032B06D0FFF741FB40B99A
:1026600000240DB12046A84700F02EFD2046BDE80D
:10267000F8834A4641463846FFF748FC044600289E
:10268000EED0022301203370FFF74EFAE9E7002D68
:10269000ECD0A847EAE700BF260300202DE9F04769
:1026A000099D9DF8209006468A4690461F46FFF7F2
:1026B00027FB044628B3012251463046FFF726FC8B
:1026C000044640B900240DB12046A84700F0FCFCA8
:1026D0002046BDE8F0870D4E022333700C4B0122DB
:1026E00039464046C3F80080FFF7E0FCB9F1000F1F
:1026F00001D00028E6D0002F14BF04230523337037
:10270000E1E7002DE4D0A847E2E700BF2603002060
:102710002C03002010B50446FFF7F2FA012184F8DB
:10272000801058B1204B1B7833B1204B1B78DBB2A3
:10273000022B05D0062B20D000F0C6FC012010BDD6
:102740001B4AD2F85035DBB2022BF5D1D2F8003259
:10275000522B06D0174B184A40F66831174808F03C
:1027600005F8174B1C60FEF793FF164BC2F80405E3
:10277000C2F80032144B1960DEE70D4AD2F850352A
:10278000DBB2022BD8D1D2F80032122B04D00F4B7F
:10279000094A40F67731E1E7094B1C60FEF778FF04
:1027A0000B4BC2F80405E3E72503002026030020B5
:1027B00000100040D8C40000D9C3000088C4000045
:1027C000280300205200080008100040FCC400004C
:1027D0001200080010B5FFF793FA0446E0B11A4B57
:1027E0001B78023B072B15D8DFE803F004242424D0
:1027F00024142418154B1B781BB101F0EBF9FFF7DB
:1028000005F9012211460020FFF780FB10B10120DD
:10281000FFF78AF900F058FC204610BD0B4B1B78DF
:10282000002BF7D001F0D6F9FFF7F0F8084B0122A2
:102830001A60EFE7054B1B78002BEBD001F0CAF9CB
:10284000FFF7E4F8E6E700BF260300202503002099
:10285000101000402DE9F74300F024FCB04BD3F8F2
:1028600008339A071CD5AF4B1B68CBB14FF482706D
:10287000FEF7F8FEAC4B1B78DBB2032B30D032D323
:10288000052B30D8A94B1C68204600F04DFB10B139
:102890002046FEF716FEA64A137843F0080313708D
:1028A000DFF87C82D8F808335B0543D5A14B1B6861
:1028B000002B3FD04FF49470FEF7D4FE9A4B1B7858
:1028C000022B40F0CA80D8F86055C5F3C705022D29
:1028D0008DF807500ED8984B984A40F22C7106E0BC
:1028E000FEF7E0FDDCE7964B964A40F6A1119648CC
:1028F00007F03CFF954B1B68E3B98D4C237813F030
:10290000010674D0012623789F0713D496B1904B0B
:102910001B6818785B7840019D0654BFC03000F5F5
:10292000387001F08FFB002800F09180237843F08D
:10293000020323707A4BD3F80833980412D5834BE3
:102940001B687BB14FF49A70FEF78CFE764B1C78B7
:10295000E4B2022C40F086800020FFF785FA204682
:10296000FEF774FF6E4BD3F80833D90440F1208191
:10297000784B1B68002B00F01B816B4E4FF4987056
:10298000FEF770FE3378022B40F04781684D704CA3
:102990002A78D4F80080D20769D52B78DB0773D466
:1029A0000120FFF761FA98F8013003F00703022BCA
:1029B00000F021812368002283F8802001F014FCBC
:1029C0002060FEF75BFE002800F0A680FEF760FEA8
:1029D000534B614AC3F80405C3F80022D3F85035BD
:1029E000DBB2022B02BF5D4B01221A6094E0584F0C
:1029F00043F004030DF107013868237000F0F0FC88
:102A0000814660B99DF807309D4203D0DB00C8F8CD
:102A1000603577E7237843F00103237072E70928D4
:102A20000FD1FEF735FF0120FFF77EF83B685B789A
:102A300003F00703022B3FF466AF4846FEF706FF9C
:102A400061E701F0A7F800287FF45CAFE9E7FEF743
:102A50001FFF052001F068F86CE7394B394A40F652
:102A6000B61144E7364B374A40F6CC113FE701F048
:102A700091F8002891D1FEF70BFF0120FFF754F8E1
:102A80000420FEF7E3FE93E023685B789F0687D57A
:102A900001F090F8002883D02368214F304DDB7877
:102AA000EB70C7F8045501F0BFF900280CBF0223F2
:102AB0004FF4801343F48023C7F800324FF4AA7018
:102AC000FEF7D0FD274A284B4FF400714FF0010963
:102AD000C3F85825C3F85C75C3F8041542F8F89C90
:102AE000D2F80804A2F5A272D2F8442590423FD34E
:102AF000FEF7D8FDD7F85025D2B2092A38D01B4AA4
:102B00001268AABB206880F88020C3F80815FEF779
:102B1000BFFE4846FFF708F84046FFF7BBFA47E01C
:102B20000010004004110040260300202C03002068
:102B30002403002028110040B3C3000048C4000053
:102B400055C300005DC4000088C40000341100407B
:102B500028030020301100405200080008100040F7
:102B6000170300204491004000F001405411004040
:102B7000122320686B70FEF72FFD08B902236B70DB
:102B80000323AF4C33704FF45053C4F8083301F0B3
:102B90004BF950B34FF4B670FEF764FD4FF000628E
:102BA0004FF48270FEF75EFD42F00202C4F8042387
:102BB00001F03AF9002837D0A14BD3F808331D01B2
:102BC00032D5A04B1B687BB34FF4B670FEF74AFDBD
:102BD0009D4B1B78DBB2032B24D001D3052B39D9B5
:102BE0009A4B9B4A40F6F91181E64FF48670FEF746
:102BF00039FD0822D4E700F0CDFF00287FF4DAAEDB
:102C00008F4B944AC3F80022D3F85035DBB2022B25
:102C1000CED1914B01221A60CAE78C4B8C4A4FF4FB
:102C20001E6164E6FFF7BCFA854BD3F808331C0736
:102C300018D58A4B1B68ABB1834E4FF48670FEF7F4
:102C400011FD3278033A032A00F2A380DFE802F094
:102C5000055D5D64FFF762F8E6E701F0E5F808B9A5
:102C6000FFF79EFA764BD3F80833D80611D57C4B84
:102C70001B6873B14FF48870FEF7F4FC72490B784F
:102C8000012B40F08B80FEF743FD00230B70FEF715
:102C9000AFFD6B4BD3F80833990318D5714B1B6804
:102CA000ABB14FF4A270FEF7DDFC67480378082B48
:102CB00079D1FEF77FFE022303700120FEF734FF77
:102CC00000F064FA012000F03AFF00F04BF95C4B91
:102CD000D3F808335A0378D5634B1B68002B74D0A4
:102CE000594C4FF4A470FEF7BDFC2378DBB2042BE3
:102CF00006D3052B4FF002055AD9082B00F08D8022
:102D0000524B534A40F65B21F1E501F08DF8002863
:102D1000A8D1FFF703F8A5E7544B1C688CB3A3F5C3
:102D2000AE730024D3F80034DBB2012B29D1504A12
:102D3000156885F880401C46FEF7E0FD022701205B
:102D40003770FEF7F1FEF4B13D4BD3F8480500F0C3
:102D50007F0001F01CFA04462846FEF757FD454B5C
:102D60001E68074600F012FA304600F0C7F86242CB
:102D70007BB252B22946304600F0D8FE00F0F2F89D
:102D800070E72546D8E700F001FA3846FEF74CFD1B
:102D9000F4E72E4B2E4A40F61D21A8E52B4B2C4A7A
:102DA0004FF42361A3E5294B294A40F643219EE5D0
:102DB000FEF748FE01202570FEF7B6FE00F0E6F9AA
:102DC0000120FEF731FD00F0CDF81D4AD2F808339E
:102DD0001B041DD5284B1B68D3B11B4D4FF49E70AF
:102DE000FEF740FC2B78072B6BD1244CD2F86836C9
:102DF0002278DBB2934238BF13462370204B186809
:102E0000002843D0FEF790FC98B11E4B01221A60B7
:102E100000F05AF903B0BDE8F083FEF7CBFD0120C6
:102E20002570FEF781FE00F0B1F9002000F087FE6A
:102E3000C9E7154B4FF48072C3F80825E8E700BFD7
:102E4000001000406C1100402603002055C3000014
:102E50005DC4000052000800081000400C11004042
:102E60001011004044110040481100405C11004026
:102E7000280300202C0300203C1100401D030020EB
:102E8000200300202410004000F0014000F0A2FECA
:102E9000FEF7BCFDFEF762FD022301202B70FEF75A
:102EA00043FE207801F081F900B2840000F06EF951
:102EB000FF2C28BFFF24E0B200F03DFE00F052F8E6
:102EC000A6E7024B024A40F66E2110E555C300000A
:102ED0005DC40000F8B5084F05460E46002457F8BB
:102EE000243033B131462846984718B10134032CB9
:102EF000F5D10120F8BD00BF4CC5000000F012BFA5
:102F0000F8B5084F05460E46002457F8243033B173
:102F100031462846984718B10134032CF5D10120D9
:102F2000F8BD00BF58C5000070B5074E0546002427
:102F300056F824302BB12846984718B10134032C99
:102F4000F6D1012070BD00BF64C50000034B002214
:102F50001A70034BFF221A70704700BF3303002022
:102F60003203002008B50B4B1A78120606D50A4B1F
:102F70000A4A4FF480710A4807F0F8FB094A1278B0
:102F800022B9094B054A40F20111F4E7FF221A70F9
:102F900008BD00BF3203002038C70000F4C50000A0
:102FA00068C7000033030020C4C7000008B51249F9
:102FB0004B68C3F30803DBB10F2B06D80F4B104A45
:102FC000104840F2171107F0D1FB103BDBB25AB2A8
:102FD000002ABBBF03F00F03043B02F160435B1800
:102FE000AABF03F56143187E93F80003400908BDAA
:102FF0004FF0FF30FBE700BF00ED00E064C60000CB
:103000001DC6000068C7000038B504461C4D68B9ED
:103010002B785BB1FFF7CAFF1A4B1B78B0F1FF3F6B
:1030200008BF7F205BB240B2834227D1D5E84F3F33
:10303000DBB2FF2B05D1144B144A15487B2107F056
:1030400095FB0133DBB2C5E8423F002AEED101F027
:1030500063F800F037FC0121084600F0F5FF18B1D5
:103060000C4B0222C3F88020BFF34F8FBFF36F8F4A
:10307000094A13780133DBB213700124204638BDAE
:10308000330300203203002054C6000070C5000046
:1030900068C7000000E100E0310300200020FFF7D6
:1030A000B3BF000008B50120FFF7AEFF28B9034BFE
:1030B000034A0448E52107F059FB08BDC3C60000D8
:1030C0009DC5000068C700002DE9F843254D2B7809
:1030D00003F0FF0473B1DFF8B080234EC14698F8C7
:1030E0000070012CFFB21AD133784BB11F4B204A2C
:1030F0009E2102E01F4B1E4A95211F4807F036FB18
:10310000347001F00BF82146204600F09DFF10B10D
:103110001A4B02221A6000F0E5FB00233370631E95
:10312000DBB2D5E84F2FD2B2944203D0144B104AF1
:10313000AC21E2E7C5E8423F002AF2D1012C0FD1D1
:1031400000F0FCFF18B999F800309F4208D0002029
:10315000FFF75AFF0028C2D10A4B054AB921CCE734
:10316000BDE8F88333030020300300209EC6000032
:1031700087C5000096C6000068C7000000E100E0B7
:10318000B1C60000A6C300003103002010B50D4CED
:103190002378FF2B05D00C4B0C4AF7210C4807F085
:1031A000E5FA0C4B1B781BB90B4B084AF821F5E7E5
:1031B000FFF7FCFEB0F1FF3F08BF7F2040B2207058
:1031C00010BD00BF32030020DCC60000CAC50000ED
:1031D00068C7000033030020C4C7000070B507F0C3
:1031E000AFFF0D4B0D4D1A7801239340002690FB45
:1031F000F3F404FB13040A4BAB60EE6001F0E8F952
:10320000E3B24FF4A074634328606B6031462846F4
:10321000BDE8704001F0E8B9340300203803002015
:103220006132000010B50B4A0B4913780133DBB251
:1032300013700A78042A9CBF01320A70032B4FF0E6
:10324000000403D8FFF7CAFF204610BD034B01203E
:103250001C70FAE7360300203403002035030020F9
:1032600013B50B4C23788BB10A4B01930A4A012307
:10327000009312680321002000F095FD30B92378F7
:1032800023B102B0BDE81040FFF7CCBF02B010BDC3
:10329000350300209D3200004C03002040B9054B4F
:1032A0001B78022B04D9044B0121186800F041BCA3
:1032B000704700BF360300204C030020012910B5E1
:1032C00006D8064C30B1064801F0F2F9002323700D
:1032D000012002E0207880F0010010BD35030020BD
:1032E00038030020054B1B68834204D1044B1B7834
:1032F0000BB1FFF797BF0120704700BF4C030020C0
:103300003503002008B5094B1B6883420BD10848E0
:1033100001F0D8F928B1074B074A0848F82107F00F
:1033200025FA074B1870012008BD00BF4C03002090
:103330003803002086C80000EBC7000026C8000044
:1033400035030020704770B5837803F00C03082B19
:1033500005460C46164604D00C2B11D02BB101208B
:1033600070BD082323700020FAE700F02BFC00B9A1
:1033700046B9AB7803F0C003802BF2D0C02BEED15E
:103380000E23EFE70320EBE773B5061D054600F0BB
:1033900035FC02220146304607F070FA10B90120D0
:1033A00002B070BD0D4B02221C88ADF8004069468A
:1033B000304607F063FA0028F1D06B785B070BD139
:1033C00000F01CFC022201A9ADF8044007F056FAF7
:1033D000B0FA80F04009E3E70020E1E7B3C800005D
:1033E00037B50B78082B044642D00E2B65D0032B43
:1033F0006DD10378053B7A2B70D84278837802F040
:10340000070203F03003072A07D8DFE802F00404BC
:10341000040406080E0E302B07D1012011E0002B0A
:10342000FBD12046FFF78FFF0BE0012000FA02F5E9
:1034300015F02F0F3FD0102BF3D0202B03D0002BF3
:10344000EFD003B030BD072AE7D801A353F822F02C
:103450002334000023340000233400002334000010
:103460001B3400001B340000B7340000B7340000E8
:10347000FFF78AFF08B90320E3E700F0C7FBA51DAB
:1034800001460222284607F0F9F9A0B1144B1B8827
:10349000ADF80430022201A9284607F0EFF950B137
:1034A00063785B0707D0A37813F00C0FE3D100F02B
:1034B00089FB0028DFD00020C3E7FFF765FF002865
:1034C000D9D000F09FFB08220146A01DE5E7054B7F
:1034D000054A064840F2C11107F048F90920B0E753
:1034E000B3C8000055C30000B5C80000D2C8000032
:1034F000704700000B4BD3F8042522F00302C3F8F9
:103500000425D3F8082542F00302C3F80825D3F8B0
:10351000102522F00F0242F00402C3F81025012208
:103520001A60704700800040014B01221A6070470A
:10353000108000400048704748800040054B064915
:1035400001221A60054AD2F84435013B0B60C2F8EB
:103550004835704744800040500300200080004000
:1035600008B5094BD3F8483528B9084B084A09482B
:103570007A2107F0FBF8084A12689A4216BF0360E6
:103580000020012008BD00BF0080004053C900009A
:1035900031C9000067C9000050030020004870478F
:1035A0004C800040014BD3F84C0570470080004030
:1035B000F8B51F4B440B44EAC144A4FB03454A0B36
:1035C00003FB02552E0F220F42EA051243F609575C
:1035D000750245EAD2555402A2FB0723801A07FB65
:1035E000063361EB030106460F4612480021B9423B
:1035F00008BFB04205D2104B104A1148832107F092
:10360000B5F8104840F23141714300FB0711A6FBA9
:1036100000674FF0FF3032180F4447F6FF7147EB59
:103620000103DE0B0027301947EB0501F8BD00BF91
:10363000D07B6308452C1600CDC900002CCA0000C1
:10364000DBC900007B2DE8BD2DE9F84F2A4C0601AF
:1036500004EB060C0F4629490546DCF80400C1F8C6
:103660000803DCF80C00C1F84403D3E900018742E9
:10367000034638D9A7EB000CBCF1000F33DA003059
:1036800041F1FF31D21989464FF000084FF0000197
:1036900041F1000318EB020049EB0301FFF788FF3B
:1036A00043F6095EA0FB0E2340F2FF1818EB020A56
:1036B0000EFB01334FF0000949EB030B104F4FEAAB
:1036C0005A2343EACB5347F8353007EBC50CA359CF
:1036D0004FEA5B22CCF8042003F5A873074A42F8AE
:1036E0002300BDE8F88F9F42CCD2DB1B002BC9DA48
:1036F000003041F10101C5E75CCA00000040024012
:103700006803002000F1402000F50030002382B063
:10371000036003680193019B02B07047274B37B5E4
:1037200019460120D3E84F2FD2B28DF807209DF81B
:10373000072052B1BFF32F8F214B1A68214B002A6B
:1037400037D018680230400831E0C3E8420F002A41
:10375000E8D11D4B0222C3F80823BFF35F8F03F5A6
:103760008273184A1B684BB1136801331360BFF3AF
:103770005F8F4FF48270FFF7C5FF01231068124C72
:10378000022501304008C4F80453BFF35F8F0024C2
:103790000C7063B11368D90706D40C4B0C4A0D4862
:1037A0004FF4867106F0E2FF13680133136003B033
:1037B00030BD1A68D207C4D41868C4E75C0300207F
:1037C0000441024060030020004002407CCA000027
:1037D00047CA000094CA00002DE9F04180460E4619
:1037E000FFF79CFF0746BFF35F8F084DD5F80445F0
:1037F000BFF35F8FFFF792FFC8F80000874218BF42
:10380000D5F804453460BDE8F08100BF00400240B7
:1038100007B501A96846FFF7DFFF019843F6095194
:1038200040F2FF120023E1FB0023500A40EAC3509C
:10383000590A009A024BE3FB020103B05DF804FB56
:103840000080841E194A002310B51360184A194CD1
:1038500000200021C2E90001174A23701360FDF720
:10386000F1FE2378002BFCD0144BC02283F82423D4
:103870001022C3F884215A60114A0023C2F8083587
:103880004FF48270FFF73EFF0223C2F84433C2F8C0
:1038900004334FF48033C2F808334FF4A070C2F8F9
:1038A0004833FFF72FFF0123136010BD6003002092
:1038B00068030020540300205803002000E100E0CA
:1038C00000400240054B5A68D20642BF044A01211B
:1038D00011601022C3F88420704700BF00E100E0AF
:1038E00058030020044B1A6822B100221A60034BCF
:1038F00010225A60704700BF5803002000E100E02A
:1039000008B5FFF785FF08BD1F207047F0B585B0EB
:1039100006460F46684601A9FFF75EFF019A43F687
:10392000095340F2FF140025E3FB0245600A009AA8
:103930001B4B40EAC550690AE3FB020104AB63E993
:1039400002013A4631460020FFF77EFE154B019AF0
:10395000D3F804359A4203D0FFF75AFFCDE90201AC
:10396000DDE902231049D1E9000112F13E0443F1DF
:1039700000058D4208BF84420A4A4FF480310BD3C0
:103980004FF4A070FFF7BEFEC2F84813C2F8081348
:1039900000F0B0FE05B0F0BDC2F80413FAE700BFB6
:1039A0000080841E0040024068030020054B4FF455
:1039B0008032C3F848234FF4A070C3F80823FFF700
:1039C000A1BE00BF00400240F0B5164F164E85B0B4
:1039D00040F2FF140025694601A8FFF7FDFE009A9A
:1039E00043F6095320462946E3FB0201420A42EA14
:1039F000C1524B0A0199E7FB01231046194604AB5B
:103A000063E902013E2201460120FFF71DFE4FF44B
:103A10000033C6F80433D6F80435009A9A42DAD156
:103A200005B0F0BD0080841E0040024037B504465A
:103A30000D46FFF7EDFE02AB63E902012A4621467F
:103A40000120FFF701FE034B4FF40032C3F80423BB
:103A500003B030BD00400240054B4FF40032C3F8C4
:103A600048234FF4A270C3F80823FFF74BBE00BFF2
:103A7000004002400048704744410240014B9868B2
:103A8000704700BF68030020014B01221A70704785
:103A90005403002010B51D4B1D4C1B6823B102239D
:103AA000C4F80833FFF73AFED4F80433DA0317D525
:103AB000184B1B68A3B14FF4A070FFF723FEFFF76C
:103AC000A7FE154BD3E90023994208BF904207D3C4
:103AD0004FF48033C4F84833C4F8083300F00AFECA
:103AE0000B4AD2F804339B030ED50C4B1B685BB119
:103AF0004FF4A270FFF706FE4FF40033C2F84833CC
:103B0000C2F8083300F032FC10BD00BF044102408F
:103B1000004002404041024068030020444102400E
:103B20007047D2B2FDF7BFBCFDF7CABCDBB2FDF7F0
:103B3000CEBCFDF7DFBCFDF7DEBCFDF7DDBCFDF75D
:103B4000DCBCFDF7DBBC000010B5114C637C03F05E
:103B5000FE0343F002030B2203F0FB0362F3C703EF
:103B6000FF210222601C637406F0BBFEFE23E3709B
:103B70000822FF230021601D237106F0B2FE0023FE
:103B800063731423A373E3730223237410BD00BF74
:103B900078030020024B587C00F00100704700BF02
:103BA00078030020024B5A7C60F300025A7470477D
:103BB00078030020024B587CC0F34000704700BFE0
:103BC00078030020024B587CC0F38000704700BF90
:103BD00078030020014B587CC00870477803002010
:103BE000024B5A7C60F3C7025A7470477803002076
:103BF000014B93F90000704778030020004870479C
:103C000079030020004870477D030020004870477A
:103C10007B0300200422014906F03FBE85030020FB
:103C2000034B00221A70BFF35F8F024800F040BDC3
:103C30008A0300208C03002020B1034B0521186863
:103C4000FFF777BF704700BFA003002010B5104CEE
:103C5000237843B100230F4A0421012000F0A1F88A
:103C600010B10023237010BD0B480C4A436803F5C4
:103C7000FA739342436005D9094B0A4A0A4859210D
:103C800006F074FD0121BDE8104000F0ADBC00BF9E
:103C90008A030020393C00008C03002040420F00C2
:103CA00094CB000000CB0000B2CB000038B50E4C26
:103CB0000E4D0F4BA3600023E360286000F088FCEA
:103CC0002B6820601A780B4B1B6803EB421303F53B
:103CD000C07301256360084B204629461D7000F023
:103CE00083FC284638BD00BF8C030020A0030020C1
:103CF0004D3C0000340000208A03002010B5084B22
:103D00001B7803F0FF0433B1042902D028B1FFF778
:103D100087FF204610BD0124FBE70446F9E700BFFA
:103D20008A03002008B5084B1B68834208D0074B64
:103D30001B782BB1064B074A07489E2106F016FD5B
:103D4000BDE80840FFF76CBFA00300208A030020F5
:103D500062CB000014CB0000B2CB000008B5084BCA
:103D60001B68834208D0074B1B782BB1064B074AD0
:103D70000748A62106F0FAFCFFF752FF012008BD14
:103D8000A00300208A03002062CB00003CCB00008F
:103D9000B2CB00007047FDF753BC70477047FEF789
:103DA00001BCFEF749BC10B49DF8044001945DF8D5
:103DB000044BFEF773BCFEF7ADBCFEF70BBD000075
:103DC000064B1B78082B07D1054B1B6813F00F0F10
:103DD0000CBF01200020704700207047E00F00F06A
:103DE000E40F00F008B5FFF7EBFF0C4AA0B10C4B55
:103DF0001B6813F0F00308D10A4B1B6813F0F003A3
:103E00000AD1137008BD0123FBE7102B04D1054B29
:103E10001B6813F0F00FF6D00223F2E73800002001
:103E2000E80F00F0EC0F00F008B5064B187810B161
:103E3000022801D8012008BD034B044A0448802110
:103E400006F094FC3800002055C300001ECC000092
:103E500043CC000008B5034A034B0448812106F017
:103E600085FC00BF97CC0000E4CC000021CD000011
:103E7000F8B51C4D1C4E2F460123D5E84F2F12F0EC
:103E8000FF0F07D0BFF32F8F174A13780133DBB230
:103E90001370F8BDC5E8423F002AEED1BFF35F8F33
:103EA000124B34781A78032A98BF18785A7894BF3E
:103EB000C0B20420824238BF58780D4B1B78E4B260
:103EC00038BFC0B233B10B4B1A78824202D018709F
:103ED00000F000F9BFF35F8F00233B703378A342FB
:103EE000CAD1D6E7E9030020EA030020A40300209A
:103EF000A6030020E80300202DE9F04F2F4D304E9F
:103F000085B00123D5E84F2F12F0FF0F09D0BFF382
:103F10002F8F2B4A13780133DBB2137005B0BDE845
:103F2000F08FC5E84B3FBBF1000FEBD1BFF35F8FC4
:103F30003378244F244C97F80080DBB2019300F0D3
:103F400047FB04F1400982466168A368039102932C
:103F500000F040FB227803995A4509D91B4A029B7D
:103F6000121A1A44504600F037FB08B994F800B012
:103F700020344C45E8D1164A14785C4538BF5C467D
:103F8000A0450AD03C7094B9124FFFF704FF3B786C
:103F90003C7000F0E9FB7B787C70BFF35F8F074AD1
:103FA000002313703378019A9342AAD1B6E7FFF742
:103FB000F4FEFDF73FFB00F0BFFBEEE7EB03002054
:103FC000EC030020ED030020A8030020D4FEFFFF37
:103FD000A6030020A403002008B500F0A7FB094AAF
:103FE00000231370084A1370084A1370084A1370AC
:103FF000084A1370084A137082F82030074A137079
:10400000537008BDE9030020EB030020E803002003
:10401000A6030020ED030020A8030020A403002035
:10402000064B10B504461870BFF35F8FFFF764FFAF
:10403000FFF71EFF0CB9024B1C7010BDA603002039
:10404000E803002000F0A6BB012808B506D9074BFD
:10405000074A08484FF4D07106F088FB064B185CFD
:10406000884234BF0020012008BD00BFCFCC000033
:10407000AECC000021CD0000A403002000F09EBBC8
:1040800008B5074B1B783BB1064B5A78042A01D17F
:10409000FFF7E0FE04225A70BDE80840FFF7E8BED3
:1040A000ED030020A403002008B5074B1B783BB1AB
:1040B000064B1A78042A01D1FFF7CCFE04221A70AD
:1040C000BDE80840FFF7D4BEED030020A4030020A4
:1040D000FFF7A6BF13B50446FEF7E0FF0D4B50B146
:1040E0001A78FF2A07D12046FEF7D8F802B0BDE8BB
:1040F0001040FEF7E9BFD3E84F2FD2B28DF807206A
:104100009DF80720C3E8424F002AF4D10028EDD1E2
:1041100002B010BDEE03002070470000064AFF23E6
:10412000D2E84F0FC2E8413F0029F9D1C0B2FF28C1
:1041300001D0FEF7B3B87047EE030020024B1878A9
:10414000FF3818BF01207047EE03002008B500F0CB
:104150005EF810F11D0F0FDB10F1090F0EDB0A28BE
:104160000EDD1E280EDD32280EDD4728B4BF6FF0AD
:1041700001006FF0020008BD0320FCE70220FAE70F
:104180000120F8E70020F6E74FF0FF30F3E710B525
:104190000446FFF7DBFF2044C0B210BD10B5044653
:1041A000FFF7D4FF201AC0B210BD10B50446FFF7C8
:1041B000CDFF201AC0B210BD10B50446FFF7C6FFF0
:1041C000201AC0B210BD000010B5054A054C0023EE
:1041D000012019198133934281F88000F9D110BD73
:1041E0007F030200243B002010B5074C002340F25F
:1041F000FF3103EBC310204490F880201AB901333B
:104200008B42F6D1104610BD243B0020704714208D
:10421000704700000E4A002310B513600D4A13705A
:10422000FFF766F9FFF726FC0446FFF783F90A4B10
:104230004FF40052C3F87845C3F87C05C3F8042551
:10424000D3F8042842F48042C3F8042810BD00BF0C
:10425000F0030020F403002000F0014008B5054BF6
:1042600000221A70FFF746F9FFF768F9BDE8084029
:10427000FFF7AABB0004002008B5FFF755F9BDE819
:104280000840FFF7E9BB000010B50446FFF786F9C8
:10429000054B064AC3F88045C3F88405C3F848298E
:1042A00001229A6010BD00BF00F001400CF00140F7
:1042B0002DE9F84F054628B9254B264A26488E2178
:1042C00006F054FA254B1B7803F0FF0883B3FFF781
:1042D00069F9234B234A5C68041B1078994610B394
:1042E000214B1968CB1711F5800AA4FB016743F134
:1042F000000B11F5800F04FB0377ACBF00210121F7
:10430000B1EBD77F4FEADB7C15D01AEB0C004BF1F9
:10431000000149104FEA3000301A52465B4667EB05
:10432000010107F027FED9F800301C44201A28604C
:104330004046BDE8F88F1AEB0C004BF10001491024
:104340004FEA3000801952465B467941E9E700BFE9
:1043500053C9000076CD00009BCD00000004002072
:10436000F8030020F4030020F003002073B501A837
:10437000FFF7F6F8002849D0274E284C284DFFF7C4
:104380007DFB3378009023B322686168801A019A1C
:10439000521A121A00F500134FEA935349BF022034
:1043A00002EB530293FBF0F0121A92FBF3F22B781C
:1043B0001C494BB30B68C3EBC3039B1848BF043BBA
:1043C0004FF0080258BF043393FBF2F30B60012354
:1043D0002B7000233370BFF35F8F02AB13E9030030
:1043E00084E80300BFF35F8F01233370FFF7A6F863
:1043F0002B782068002B14BF4FF080514FF48001C0
:10440000FFF714FB02B070BD0A60E0E7FFF796F813
:10441000FFF7DAFAF6E700BF00040020F8030020F7
:10442000F4030020F003002082B00122D0E84F3FC7
:10443000DBB28DF807309DF8073023B1BFF32F8F23
:10444000002002B07047C0E8432F002BEED1BFF32D
:104450005F8F0120F5E70000094A82B0D2E84F3FA4
:10446000DBB28DF807309DF807300133DBB2C2E8CC
:10447000413F0029F2D1BFF35F8F02B0704700BF08
:10448000020400202DE9F34190B12E4FDFF8C8C09F
:104490004FF0000EB8463978CDF804E0C9B2624654
:1044A00052E8004F54B1A04230D004F11002F7E7B7
:1044B000254B264AB821264806F058F9234698F895
:1044C00000508D42E7D1984222D103690193DCF874
:1044D0000030834224D1019B002B15BF002501250C
:1044E00001260026019B42E800310029D3D1FFF7C5
:1044F000B3FF0CB3034603F1100252E8002F9342BE
:1045000014D1144B114A4FF48471D4E70346D6E713
:10451000BFF32F8F3CB904F0010002B0BDE8F08179
:1045200000252E46DEE700252E46E4E703F11000C5
:1045300040E800210029DED1002E0CBF2C460124CA
:10454000E9E700BF0204002057CE0000F2CD0000D2
:1045500067CE0000CECE0000040400202DE9F0411B
:104560000F4E104FB04635780F483C68EDB2FFF75C
:104570005BFF38B164B9FFF719FABFF35F8F0A4BDD
:1045800000221A7098F80030AB42ECD1BDE8F081FF
:104590003B6820686168A342EFD1FFF7B7F9ECE709
:1045A000020400200404002003040020044A002325
:1045B0001360044A1370044A1370044A137070475E
:1045C0000404002003040020010400200204002051
:1045D000FFF796B9FFF798B9101A08440028D4BF1E
:1045E0000020012070470000F8B5044630B9284B80
:1045F000284A40F23511284806F0B8F8836823B9F4
:10460000264B244A4FF49B71F5E729B1FFF77CF95B
:104610006368013B034463602046FFF733FF08B142
:10462000FFF79CFF1E4E1F4DB44630782946C0B29E
:1046300051E8003F9C4204D11B4B164A40F25111F5
:10464000D9E75BB1D4E900273A441F68D21B5F6801
:10465000D21B002A02DB03F11001E9E79CF80020DD
:104660008242E2D1A34204D1104B0A4A4FF4B57101
:10467000C1E7236141E80043002BD6D1FFF7ECFEF0
:104680002B68A34203D1BDE8F840FFF767BFF8BD30
:1046900057CE0000FFCD000067CE00001ACE00000C
:1046A000020400200404002034CE000045CE0000A7
:1046B00008B5FFF7E7FE18B1BDE80840FFF74EBFA9
:1046C00008BD000070B5094B09491E680D460A78FF
:1046D0003346D2B223B92C789442F8D1184670BD33
:1046E000834201D01B69F5E70123F4E704040020AD
:1046F0000204002038B50B48FFF796FE70B10A4B54
:10470000186830B1D0E90245FFF7BCFE0CB128466D
:10471000A047BFF35F8F034B00221A70BDE83840FB
:10472000FFF71CBF0104002004040020014B0022FD
:104730001A7070470804002008B5074B1A782AB190
:10474000064B074A07483B2106F010F801221A7071
:10475000BDE80840FFF794BC080400203BCF0000F0
:10476000E4CE000049CF000008B5064B1A782AB9FC
:10477000054B064A0648432105F0F8FF00221A704F
:1047800008BD00BF080400203CCF000003CF00009C
:1047900049CF000008B5054B1B782BB9044B054ADF
:1047A00005484C2105F0E2FF012008BD0804002067
:1047B0003CCF000021CF000049CF00004FF0FF3078
:1047C00070471FB50021039001AA44F20100CDE912
:1047D000011100F003F805B05DF804FB72B6094B57
:1047E0001B68DB0700D500BEBFF34F8F0649074BA0
:1047F000CA6802F4E0621343CB60BFF34F8F00BF7F
:10480000FDE700BFF0ED00E000ED00E00400FA0578
:1048100043681B6818470000024B5B6803B11847E8
:10482000704700BF0C040020020600F00F034CBFCD
:1048300002480348DB001844704700BF18040020FA
:104840006004002008B5FFF7EFFF016009B941607F
:1048500008BD4B681B684360FAE70000024B014645
:104860005A681868104700BF600400200378052BC1
:104870000CD1084AD2F88434D2F8802412F0FF0F09
:1048800004D1054ADBB2052B08BF1046034B1B6859
:10489000184700BF00700240C0CF00000C04002089
:1048A000012806D002D3022805D070470348FFF73D
:1048B000DDBF0348FBE70348F9E700BFB4CF0000C2
:1048C000B8CF0000BCCF0000FFF7D0BF0148FFF712
:1048D000CDBF00BFC4CF000038B5831EDBB2062BAE
:1048E00098BF194A194C98BFD25C2378A3F10203F0
:1048F000DBB288BF0022062B9ABF1349CB5C002392
:104900009342054603D0A2B1114804F0EDF9022DFF
:1049100001D0082D10D101232278022A01D0082AC3
:104920000CD101229A4202D053B104F0FFFE25704F
:1049300038BD04F003FAEAE70023EDE70022F1E7CF
:1049400004F0EAFEF3E700BFA9CF0000B1040020A5
:104950003C0000202DE9F04F87B006AC002644F85B
:10496000106D05468946924698466B6800225F683E
:10497000294601232046B84740B98DF80600049027
:1049800004460746BE4203D805202AE00136ECE77C
:104990006B680DF10602D3F804B02946012304A880
:1049A000D8476B680DF10702D3F804B029460123FC
:1049B00004A8D8479DF807304B459DF8063015D11F
:1049C000544511D1109A136088F8003088F801908E
:1049D0006A68023B5468294608F1020204A8A0470D
:1049E000002007B0BDE8F08F0134E4B26A68023BF2
:1049F000D2F804B02946002204A8D8479DF8063012
:104A00001F44BFE72DE9F74305462E4804F0A4FEF6
:104A1000044600283AD12C4B18702C4B18602C4BB4
:104A20000146186048222B4805F05BFF48222146CA
:104A3000294805F056FF294B65BB294A1D72C3E979
:104A400000251A680AB9264A1A60002004F08AF97B
:104A500018B1852801D0FFF7B4FE224E96F80890D1
:104A6000002506F10908ECB2A14504D904EB440481
:104A700014EB080423D102A90B2301F8043D1948C3
:104A8000FFF7C6FE044608B104F042FD204603B01D
:104A9000BDE8F08395E8070083E80700D1E73146D9
:104AA000E05CFFF7CFFE6378FAB2934205D9A378B2
:104AB0001344DC4207F10107F1D10135D3E70027A8
:104AC000F1E700BFC9480000B1040020A80400209D
:104AD000AC04002018040020600400200C04002016
:104AE000154E0000E0CF000010B504F0D7FD08B966
:104AF000082010BD04F0DAFD04460028F8D104486F
:104B000004F04BF90028F4D0FFF75BFE2046F0E7F5
:104B1000B0CF000004F00CBD05F0A8B94FF0804301
:104B2000D3F83824920702D50348FFF79FBED3F885
:104B30003824D107F4D47047C5CF000007B502A8C8
:104B4000822300F8043DFFF791FE03B05DF804FBFB
:104B50002DE9F341037A00F109040325064615FB0C
:104B600003452746AC4231D01CB394F801800021A4
:104B700006E0E05CFFF758FE03680131002B36D1F8
:104B8000CBB2984503D9A3780B44DC42F1D103346E
:104B9000E8E73146E85CFFF755FE6A785FFA88F38C
:104BA0009A4205D9AA781344DD4208F10108F0D1F0
:104BB0000134337AE5B2AB4203D905EB45057D19E3
:104BC00001D10C4B05E04FF00008E6E70024F0E7C8
:104BD00013681A68002AFBD102A91E600B2301F892
:104BE000043D3046FFF714FE02B0BDE8F08111200D
:104BF000FAE700BFA8040020024B1878003018BF65
:104C000001207047B004002000F00F03072B10B5FF
:104C1000044604D804F0C4FE204605F00FFA2046EE
:104C2000BDE8104005F0BEB905F08AB9014B18681F
:104C3000704700BFA804002070B50A4B1B687BB109
:104C40001E7A0022D5B2B54201D31B68F6E70132C5
:104C500002EB42041C44A4798442F3D101B10D70EB
:104C6000184670BDA80400201146FFF7D1BD08B555
:104C700000F00F03082B07D8FFF7D6FD006818B126
:104C8000BDE80840FFF7C4BD102008BD38B5054B8E
:104C900005461C6804B938BD29462046FFF7B8FD13
:104CA0002368F6E7A804002038B5074B05461C68C2
:104CB0000CB9062038BD29462046FFF7A9FD062875
:104CC000F8D12368F3E700BFA804002038B50446F4
:104CD0000D4604F086FD48B1054B1B78022B05D12B
:104CE00029462046BDE8384004F07EBD082038BD86
:104CF000B104002038B504460D4604F072FD48B1F9
:104D0000054B1B78022B05D129462046BDE83840CB
:104D100004F0DCBD082038BDB1040020F8B54368BC
:104D20009B6805460C46164613B92EB1072002E0D3
:104D300098470628F9D0F8BD2B7AA34213D9093534
:104D400004EB44042C446778F3B29F4201D800205E
:104D5000F1E762789A4208D9A219A378D05CFFF7EC
:104D600053FF0136F0E77378FFDE00231B78FBE783
:104D700070B54368DB6805460C4603B198472B7A4B
:104D8000A34213D9093504EB44042C44002566786A
:104D9000EBB29E4200D870BD62789A4209D962197E
:104DA000A378D05C05F0CCF80135F1E700235B78FF
:104DB000FFDE00231B78FBE743681B6903B118473C
:104DC0001846704770B5084B1C6804B970BD267A48
:104DD0000025E9B2B14201D32368F5E7002220465D
:104DE000FFF79CFF0135F4E7A804002070B5084BDD
:104DF0001C6804B970BD267A0025E9B2B14201D31E
:104E00002368F5E72046FFF7B3FF0135F5E700BF5C
:104E1000A804002038B50478092C054620D023D8F2
:104E2000032C00F0BC8012D8012C00F0A68040F2C8
:104E30008D800320FFF750FD0220FFF7EDFC284690
:104E4000FFF724FF2846BDE83840FFF707BD052CD3
:104E5000F8D0C0F0B380062C00F0BF80082C13D12E
:104E60002046FFF7D9FC95E0812C0ED005D80F2CF9
:104E7000F6D0802C44D00A2CF1E7832C4CD021D3DF
:104E8000842C53D0852CDDD038BD5E48FFF7E6FC7E
:104E90005C48FFF7FBFE0D20FFF7BEFCFFF7A6FF07
:104EA00000F051FF584B1B6853B9584B187A00F06B
:104EB000010004F0C7FB0120BDE83840FFF70CBD3E
:104EC0000120F4E7FFF792FF04F0B4FF0020FFF7A2
:104ED00003FD4F48FFF7DAFE4D48FFF7BFFC0E20F9
:104EE000FFF79AFC4B4B1B78023BDBB2062BCBD86F
:104EF000494AD35C002BC7D0BDE8384003F01EBF41
:104F0000444B1B78062B05D0072B01D0052BBBD1BA
:104F10000220D1E70820CFE73E4B1B78032BB3D10B
:104F200004F0D8FF0028AFD00420C5E7394B1B7828
:104F3000032B05D104F0CEFF10B10420FFF7CCFC09
:104F400004F0BEFB00289FD00620B5E7314B1B784C
:104F5000032B01D0082B02D13048FFF75BFF002064
:104F6000FFF75AFC284B1C68002C8DD020462946A0
:104F7000FFF74EFC23685C68F6E7FFF737FF00F0A9
:104F8000D9FE0220FFF7A8FC2046FFF745FC284683
:104F9000FFF764FC2846BDE83840FFF777BE1D4B9D
:104FA0001B78082B06D10220FFF796FC04F0C8FB03
:104FB0000320EAE70520FFF78FFCF9E70320FFF75E
:104FC0002BFC1748FFF74AFC1548FFF75FFE114B13
:104FD0001B78062B9CD107206EE78078FFF724FC16
:104FE000294643680068984700283FF44DAFA878E9
:104FF00000F00F03013B062B3FF646AFBDE83840FB
:1050000004F0A8BCC6CF0000AC0400200C040020B3
:10501000C7CF0000B1040020A9CF0000C8CF000016
:10502000C9CF0000C36903B1184770470368002265
:105030001A845A62DA62C3E91E22C3E9202203F10C
:1050400034025A6770474360CA699A4227BF8A6927
:10505000026001F12802026026BF0B67CB618B67FB
:1050600000207047F0B5BE4D0C7A2C70046840F2F9
:105070001E36B44200F0CD8200F2DD80B4F5407FF0
:1050800000F0428270D8B4F53C7F00F0008226D850
:1050900040F2ED26B44200F0DF810AD8002C00F087
:1050A000C981B4F53B7F00F0CD8100230360184631
:1050B000C7E140F2EE26B44200F0DC8140F2EF2678
:1050C000B442F2D100240AB1067916550134022601
:1050D0009C420671C0F0DC814FF43C73AFE140F2BA
:1050E000F326B44200F0EC81B4F53D7F15D240F2D6
:1050F000F126B44200F0D78140F2F226B442D4D176
:1051000000240AB106791655013400269C42067126
:10511000C0F0D78140F2F32391E140F2FA26B44285
:1051200000F0E58140F2FB26B442BED100240AB172
:10513000067916558B4E0F7A3678DFF82CC2B742B7
:1051400004F1010440F2558301F1090706EB46061C
:1051500007EB060E9C42BE5DCCF800E00671C0F085
:10516000D4814FF440736AE140F20D36B44200F04E
:105170000A8239D840F20636B44200F0E0811DD8E8
:1051800040F20136B44200F0CB8140F20236B44224
:105190008BD100240AB106791655734E0F7D3668FF
:1051A0003678B74204F1010440F0E28102269C42C5
:1051B0000671C0F0C58140F2063340E140F2073687
:1051C000B44200F0C881B4F5427F7FF46EAF002492
:1051D0000AB10679165501340026A342067100F281
:1051E000EC8140F216332AE140F21636B44200F068
:1051F000E38108D840F20E36B44200F0D08140F28C
:105200000F36B442E1E7B4F5477F00F0EA8100F2DF
:10521000F48140F21B36B4427FF447AF00240AB158
:1052200006791655013424269C420671C0F0DA81B5
:105230004FF4477303E1B4F54C7F00F054826BD810
:1052400040F22636B44200F01C8232D840F22336B7
:10525000B44200F0FD81B4F5497F16D240F21F360A
:10526000B44200F0E28140F22236B4427FF41DAF36
:1052700000240AB106791655013424269C42067191
:10528000C0F0E78140F22333D9E000F0ED8140F235
:105290002536B4427FF409AF00240AB106791655C9
:1052A00001348E7D06719C42C0F0EC8140F22633C1
:1052B000C5E040F22B36B44200F0FC81B4F54B7FE0
:1052C00016D240F22936B44200F0E78140F22A3685
:1052D000B4427FF4EAAE00240AB1067916550134CF
:1052E00002269C420671C0F0E68140F22B33A6E014
:1052F00000F0EC8140F22F36B4427FF4D6AE0024A9
:105300000AB106791655013424269C420671C0F074
:10531000EB814FF44C7392E0B4F5537F00F0288298
:1053200048D840F23336B44200F0F681B4F54D7FF0
:105330001CD240F23136B44200F0E18140F2323604
:10534000B4427FF4B2AE00240AB106791655013496
:105350008E7D06719C42C0F0E08140F233336EE0F6
:10536000B4040020B3040020B804002040F2473603
:10537000B44200F0F081B4F5527F7FF496AE002481
:105380000AB106791655AF4EAF4F36683F7896F89A
:1053900001C0BC4504F1010440F2308296F802C01D
:1053A0003E449C4216F80C600671C0F0E2814FF456
:1053B000537344E040F25D36B44200F0F98115D8F1
:1053C00040F25136B44204D040F25636B4427FF433
:1053D0006CAE00240AB10679165501344026A3426A
:1053E000067100F2E68140F25D3328E040F2633658
:1053F000B44200F0F481B4F55A7F00F0F08140F23D
:105400005E36B4427FF451AE00240AB106791655D7
:105410008C4E0F7D36683678B74204F1010440F0B7
:10542000D4810E6A9C4236780671C0F0D98140F270
:10543000633304E00824047123B94FF43B73036021
:105440000120F0BD0AB1047914700B24012B047102
:105450000ED840F2ED23F2E700240AB10679165582
:1054600001340E7D06719C4205D340F2EE23E6E73F
:105470000124F2E700240AB1067916550134022608
:105480009C420671FFF41FAE40F2EF23D7E70024E1
:105490000AB106791655013402269C42067103D3DF
:1054A00040F2F123CBE700240AB106791655013406
:1054B0004E7E06719C42FFF424AE40F2F223BEE71A
:1054C00000240AB106791655604E00270134377062
:1054D0005E4E37782E78B74202D340F27333AEE790
:1054E0000926A342067103D840F2FA23A7E7002455
:1054F0000AB106791655013404269C420671FFF460
:1055000016AE40F2FB239AE700240AB1067916553D
:10551000013400269C42067103D340F201338EE72A
:1055200000240AB106791655464E3668013476785D
:1055300006719C42FFF42EAE40F202337FE7002456
:105540000AB106791655013402269C42067103D32E
:1055500040F2073373E700240AB106791655013487
:105560004E7E06719C42FFF433AE4FF4427366E701
:105570008F7DB7427FF430AE0A269C42067103D37A
:1055800040F20D335BE700240AB106791655013469
:1055900000269C42067103D340F20E334FE70024ED
:1055A0000AB106791655013400269C420671FFF4B3
:1055B0000FAE40F20F3342E700240AB106791655C8
:1055C000204E0F7D36683678B74204F1010440F072
:1055D000A88005269C420671FFF421AE40F21B33E1
:1055E0002DE700240AB106791655013400269C42A5
:1055F000067103D340F21D3321E700240AB1067976
:105600001655013410269C42067103D340F21E3316
:1056100015E700240AB106791655013401269C428B
:10562000067103D340F21F3309E700240AB106795B
:105630001655013405269C420671FFF41AAE40F25D
:105640002233FCE6B8040020B5040020B304002097
:1056500000240AB106791655013401269C420671D0
:1056600003D34FF44973EAE600240AB106791655CC
:10567000013403269C420671FFF40FAE40F225333D
:10568000DDE600240AB106791655013404269C4251
:10569000067103D340F22933D1E600240AB106791A
:1056A0001655013424269C420671FFF415AE40F2D3
:1056B0002A33C4E600240AB10679165501340226BD
:1056C0009C42067103D34FF44B73B8E600240AB131
:1056D00006791655013405269C420671FFF410AE7A
:1056E00040F22F33ABE600240AB106791655013497
:1056F00006269C42067103D340F231339FE6002414
:105700000AB10679165501340E7D06719C42FFF4EC
:105710001BAE40F2323392E600240AB106791655E8
:105720000134374E36687778364E3770364E00275C
:105730003770354E3778334E3678B74204D3334F0F
:105740003E7801363E70C3E60726A342067103D8B1
:1057500040F2473373E600240AB106791655013446
:1057600005269C420671FFF40BAE4FF4527366E6B9
:1057700000240AB106791655214E0F7D3668367819
:10578000B74204F1010407D103269C420671FFF4DD
:1057900021AE40F2513352E68F7DB7427FF41EAE08
:1057A00002269C420671FFF415AE40F2563346E6DF
:1057B00000240AB106791655013400269C42067170
:1057C000FFF423AE40F25E3339E68F7DB7420BD152
:1057D00000269C42067103D34FF45A732FE600242F
:1057E0000AB1067916550134074F3E7801363E70EE
:1057F0009FE70023CCF800301B78FFDE0023FBE797
:10580000B8040020B2040020B5040020B304002036
:105810004360CA699A420ED38A6902608A69C8697C
:105820001A448A610A6FC01A1A44C86100300A67B4
:1058300018BF0120704701F1280202608B67002029
:10584000704710B5044658B90868037B202B09D16E
:1058500000F10E010722183005F01FF8204610BD98
:105860000320FCE70620FAE7037A012B08D9427BE4
:10587000012A00F10C0306D9827B13445878704743
:1058800000235B78FFDE00231B78FBE72DE9F04364
:105890000B7889B005460E460E2B17D8DFE803F0CB
:1058A0000A080A0A160CA1161608160A0A0A0A009D
:1058B000FFF7BCFB002427E04A78D1094FEA5213D6
:1058C00030D013F0030303D0012B21D006241BE0BA
:1058D00002F01F02012AF9D1B478062CF6D105A8EE
:1058E000039300F0ADFC03ABF278317900930746E7
:1058F00003462846FFF72EF8052805D0039A3946B7
:10590000701C00F03BFA0446204609B0BDE8F08365
:10591000B378212BDAD1B6F80720072AD6D101684F
:105920001831EDE7012BD1D1B3780768202B36D0A1
:10593000222BCBD1B6F80730002BC7D197F82030F7
:10594000B6F803403C8403F0010304F00104A342D1
:10595000B0D0A4B2002C0CBF03210221FFF762FBE0
:10596000002CA7D12B7A012B40F2D6806B7B05F15E
:105970000C02002B00F0D280AB7BD05C04F03CF931
:105980002846FFF771FF04F037F907F134037C6212
:10599000FC62C7E91E44C7E920447B67B4E7B6F858
:1059A0000720072A92D13B73B6F807300024DBB2F8
:1059B0007B7320460E37CDE90573079400F050FE47
:1059C000204605A9FFF782F9044630B9554B03A9D3
:1059D000CDE9033500F0C0F90446002000F042FE96
:1059E00092E7037A002B00F09B80837A00F1090193
:1059F000002B00F09380C27AB3788A5C9A423FF41D
:105A000059AF1B06F4780AD524B1032C0CBF00242F
:105A1000032479E701212846FFF704FB74E7012CF2
:105A20003FF448AF04D3032C3FF444AF03246BE7A7
:105A30000668FFF719FF3C4B059306F10C0306932C
:105A4000B76A8046B7B9F36FF46AB767C6E91F73E0
:105A50006CB106F12C0103C906F1240383E80300AD
:105A6000F76205A94046FFF745F9044600E0746275
:105A70000021D0E7D6F88490706A4F4528BF4F4682
:105A800006F134043A46214604F007FFF36F3B4425
:105A9000C6F88030A9EB0703B367F36A00223C44E1
:105AA000F2677467002B35D006F12C0999E80300E2
:105AB00006F1240787E803001446F262B36F706AA8
:105AC0001BB9746A002CCCD1D2E7B26A716F9A42CA
:105AD00016D804F0E2FEB36AB26FC6F88030D21A6C
:105AE000B267726F1A44726700212846FFF79AFA6C
:105AF000F36A7BB199E8030087E80300F462DDE70D
:105B00001A4604F0CAFEB26FB36AF2679B1AB36218
:105B1000736A13447362D4E76378FFDE1B78FCE793
:105B20005B78FAE743580000115800001FB503687E
:105B30001B8CDC0714D5037A012B13D9437B00F1AE
:105B40000C0493B1837BE05C9306CDE901120CBF9A
:105B50000123002301A90393FFF7B8F804B010BD97
:105B60000820FBE700235B78FFDE1B78FCE7036877
:105B7000D3F88000704700002DE9F3410468238CBE
:105B8000DB0706468846174631D5002000F068FD41
:105B9000A56FBDB1BD4228BF3D46616F2A46404654
:105BA00004F07BFEA36FC4F880505B1BA367636F98
:105BB0002B4463670024002000F054FD204602B00F
:105BC000BDE8F081636A83B9C4E909873046FFF70D
:105BD0004BFE0C34074B019469460093FFF78AF89B
:105BE000002814BF04469224E5E71124E3E70824C3
:105BF000E4E700BF47500000002070472DE9F04F58
:105C000087B04B68029281460C465BB90B681B68F3
:105C10001B683BB98D682DB9C0E90055284607B00F
:105C2000BDE8F08F03F092FEE768029B9F4228BF19
:105C30001F464FF0000804F11003834601974646C3
:105C400001250393019B002B2DD0A368019A616865
:105C500093429A4628BF924641B352460BEB060048
:105C600004F01BFE00236360A268E3680199A2EBC5
:105C70000A02A3EB0A03A1EB0A01A260E36001910F
:105C800056440ABBB8F1000F38D022681268126877
:105C90002260002B30D02368D3B963601EB1029B11
:105CA000B34288BF0025C9E900B6B7E7002BDBD0B7
:105CB000216803984B680BEB0602D3F80480534627
:105CC000C0474FF00108CFE7002B08BF0025B9E718
:105CD0000DF1180A00234AF8083D21684B685B68FB
:105CE00000221F4650460123B84708B92061A9E7A2
:105CF000A3680133A360F0E71D46A3E7002BCAD1D8
:105D000045469FE7084B1A7882420CD0052818BFF9
:105D1000064A187018BF137805481CBF23F0020309
:105D20001370FFF777B87047C8040020E404002020
:105D3000F0CF000008B50020FEF766FF8020BDE828
:105D40000840FEF761BF08B50020FEF76DFF802018
:105D5000BDE80840FEF768BF38B505460C4603F0BD
:105D60009BFEA84203BFD4E90001034BC3E9000135
:105D7000102008BF002038BDE80400207FB5C3888C
:105D800093421D4628BF154693420E46144620D91D
:105D9000802003F021FDB4FBF0F303FB1040B0FAC8
:105DA00080F0400903900020CDE9016500F058FC27
:105DB00001A98020FEF78AFF044620B90649802009
:105DC000FFF7CAFF0446002000F04CFC204604B058
:105DD00070BD0020E6E700BF24D000002DE9F04FA1
:105DE0000C78062C87B00E4600F0FC8120D8022CDF
:105DF0003DD003D8012C32D00624EDE1032C32D063
:105E0000052CF9D10DF10D00B04D8DF80C4003F0CB
:105E1000D7FD00232B609DF80D3003F01F02032AED
:105E200000F28481DFE812F02D001D017901650088
:105E30000D2C00F0C58107D80B2C18D00C2CDBD111
:105E40000020FFF75FFF12E00E2C00F0C981852CC7
:105E5000D2D19F4B1B78032BCED1042000E003202E
:105E6000FFF750FFC8E79B4800F01FFC08B900246B
:105E7000B2E1994B01221A60BFF36F8FBFF34F8FCE
:105E8000F5E7C3F34116A6BBDB099DF80E1000F041
:105E9000A280062916D0082900F0908049BB8F4CBB
:105EA0000222204604F01DFD237843F001022270F7
:105EB0008B4A1278910744BF43F0030323700222F8
:105EC00086490EE09DF81030022B16D0032B65D0CA
:105ED000012B0ED1BDF81330002B00F06E818149EB
:105EE00012220DF10D00FFF749FF0446062C40F089
:105EF000258103A8FEF7D8FE0DE1BDF81370002F31
:105F000000F05B81092F28BF0927FEF78FFE4FF0B5
:105F100009080446B14654BB704C73493A462046C2
:105F200004F0BBFC2671A4F80280FEF765FE18B1F0
:105F3000E37943F02003E371FEF778FE6B4BC3E98E
:105F400000049F60BDF81320DA60002000F088FB99
:105F500067498020FEF7CEFE044620B965498020BF
:105F6000FFF7FAFE0446002000F07CFBBEE7CDF808
:105F700004904FF0000A63680022D3F804B0214671
:105F8000012301A8D84730B9237A1E442368D0449E
:105F9000F6B21C68BFE70AF1010AECE7BDF813305E
:105FA000002B00F00A81BDF811109DF80F0000F0E1
:105FB00031FB014600289CD0027892E7444A1278CF
:105FC000052A03D1454A1370012279E7042A90D1AA
:105FD000424B1E70F8E703290FD009292BD0012965
:105FE00087D1BDF80F30012B83D1FEF705FE60B1DC
:105FF0003B4A137823F002030FE0BDF80F30012B6A
:106000007FF477AFFEF7F8FD18B90F2403F041FDD8
:10601000E2E0334A137843F0020313702B68002B3D
:1060200000F0CB8003F038FD044600287FF41FAF5A
:1060300003F0ECFCD0E0264B1B78043B012B01D98C
:106040000824E3E79DF80F302BB9FEF7CFFE0420BC
:10605000FFF758FEE2E7012B56D1FEF7B3FE05200D
:10606000F6E701A99DF81100FEF7E6FD074608B91D
:106070001024CBE703AA9DF80410FEF7F5FD0628CF
:1060800004465BD19DF80D2012F0600FBED1104B7D
:106090009DF8041018789DF80E30D6092CD073B1F5
:1060A0000A2BB3D10528CBD13846FEF785FE0B4924
:1060B000324608700DF10D00FFF760FE2BE0052859
:1060C000BED106490B800222F4E700BFE80400209D
:1060D000C8040020F00400205C700240F40400209A
:1060E000E404002010D00000F1CF0000CC04002018
:1060F0002CD0000024D000000B2B87D105289FD185
:10610000BDF80F30FF2B01D907247FE79DF80F2042
:106110003846FEF703FE044610E09DF81100020722
:1061200006D19DF80D3013F0600F0BD006246DE7FB
:1061300003A9FEF79CFD06280446F2D0002C3FF48C
:106140006DAF63E79DF80E20384B9DF811401B782A
:10615000012A1ED012D3032AE8D104F00F02072A25
:10616000E4D8BDF80F100029E0D1052B02D0002A99
:106170007FF466AF204603F0EDFB4FE7052B02D01E
:1061800023077FF45DAF204603F0F0FB2849088029
:1061900099E704F00F02072AC8D8BDF80F100029AC
:1061A000C4D1052B02D0002A7FF44AAF204603F069
:1061B000F7FB204603F042FF30E703F067FC56E6AA
:1061C0004FF08043D3F8384414F0010401D002208A
:1061D00037E60120FFF796FD204607B0BDE8F08FB7
:1061E00001202EE6C8780328F6D0124D2B68D3B1D3
:1061F00000222A6069689847044600287FF406AFA9
:106200002B6823B1B378002B7FF431AE10E70A4B33
:106210001B68082B04D1094B1B68002B3FF427AEE9
:1062200003F034FCD8E70E24F0E600BFC8040020D9
:10623000F4040020E80400203001001034010010B4
:1062400008B1402303600148704700BFF4040020F8
:1062500070B50D7A0DB101F10905046840F23916E7
:10626000B44200F0E380B4F59D7F40D2B4F59A7F4C
:1062700000F0AB8020D840F23116B44200F08B80A1
:10628000B4F5997F05D2002C7FD000230360184617
:1062900080E000F08B8040F23315AC42F5D1002451
:1062A0000AB105791555013400259C420571C0F0ED
:1062B0008D804FF49A7377E0B4F59B7F00F09D805A
:1062C000C0F08F8040F23715AC4200F0A280B4F5E8
:1062D0009C7FDAD100240AB10579155501340025D7
:1062E0009C420571C0F0A38040F239135CE040F29B
:1062F0004115AC4200F0C080B4F5A17F2DD240F230
:106300003D15AC4200F09F80B4F59F7F0FD2B4F5ED
:106310009E7FBAD100240AB1057915550134212593
:106320009C420571C0F0908040F23D133CE040F289
:106330003F15AC4200F09380B4F5A07FA5D10024B6
:106340000AB1057915550D8A01342D0A9C42057153
:10635000C0F0938040F2411326E040F24315AC4276
:1063600000F0A380B4F5A17F40F29280B4F5A27F43
:1063700000F0A78040F245139C4286D100240AB168
:106380000379135540F247130EE00924047113B941
:106390000660012070BD0AB1047914700424012B39
:1063A000047110D84FF499730360F2E700240AB126
:1063B0000679165501342D7805719C42FFF470AFB3
:1063C00040F23313F0E70124F1E700240AB1057924
:1063D0001555013400259C42057103D340F2351355
:1063E000E2E700240AB1057915550134FF259C42E6
:1063F000057103D34FF49B73D6E700240AB10579E6
:106400001555013401259C42057103D340F2371321
:10641000CAE700240AB105791555013401259C42CB
:106420000571FFF458AF4FF49C73BDE700240AB127
:1064300005791555013409259C420571FFF46BAFB0
:106440004FF49E73B0E700240AB105791555013465
:1064500009259C42057103D340F23F13A4E70024B1
:106460000AB10579155501340D8A05719C42FFF476
:1064700067AF4FF4A07397E700240AB1057915556B
:1064800001344D8A05719C4203D34FF4A1738BE70D
:1064900000240AB1057915554D8A01342D0A9C4214
:1064A000057103D340F243137EE700240AB1057956
:1064B000155501348D8A05719C4203D34FF4A273A4
:1064C00072E700240AB105791555898A0134090A51
:1064D0009C420171FFF453AF40F2451364E7F0B5FD
:1064E0000A780E2A85B006460D4614D8012393403B
:1064F00047F64F02134202D0002005B0F0BD9B06C4
:1065000009D54A78D1094FEA521330D013F003036A
:1065100003D0012B1DD00620EFE702F01F02012A55
:10652000F9D1AC78062CF6D103A80293FFF788FEC8
:1065300002AB009307460346EA7829793046FEF716
:1065400009FA0528E7D0029A3946681CFFF716FCBD
:10655000D3E7AB78072B04D0082BDCD1C268816964
:10656000F3E7B5F80720182AD5D1C169EDE7012B6B
:10657000D1D1AC78002CCED102681373036A002B02
:10658000BAD021469847B7E770B54FF0805286B031
:10659000D2F8A830D2F8A42000926FEA83436FEAC1
:1065A000934302AD9BB2094A094E0D21284604F0DF
:1065B000FBFD0024284604F03DFE844201D306B0D2
:1065C00070BD2B5DA3550134F4E700BF48D0000037
:1065D000A33E022010B50E4B53F8204023780BB990
:1065E000A01C10BD0020FFF72BFE2246E4B2131BB7
:1065F00012F8011BDBB231B901335B00DBB243F4AB
:1066000040730380EDE7131BDBB220F81310EEE7B5
:10661000A0D0000008B9FFF7DDBF052807D8054A5C
:10662000105C20B1044B53F82030002BF3D1002034
:10663000704700BFB8D00000A0D0000072B6024A78
:10664000136801331360704734050020034A136850
:10665000013B136003B962B6704700BF34050020E8
:10666000FFF7ECBFFFF7F2BF50E8003F43EA01023B
:1066700040E8002C9CF0000FF6D11046704750E81F
:10668000002F02EA010340E8003C9CF0000FF6D125
:106690001046704750E8003F03EA010240E8002C32
:1066A0009CF0000FF6D1104670470021FFF7E7BFBE
:1066B0002DE9F0438368D3F83C61C6F3400689B006
:1066C000074636B10022114609B0BDE8F04301F09B
:1066D000ADBB012906D91E4A022109B0BDE8F0432D
:1066E00000F068BC1B4C1C4DDFF870901823E218BA
:1066F0002D1B4FF06408B5FBF3F503FB052518349B
:10670000AC4202D109B0BDE8F08354F8180C54E94A
:106710000523017900689A1A1B1ADBB2039308FB60
:1067200003F3B3FBF2F3CDE9016334F8043C0093C7
:10673000CDE9061254F8083C11FB08F13846B1FBCC
:10674000F2F1CDE904214A46082100F033FCD6E7F6
:10675000E8D0000070DD000088DD0000FBD0000004
:1067600010B590B1D0E9012301689B1ADBB20A6031
:10677000013BDBB2FF2B026802D10020107110BD7B
:1067800011684C1C14600B70F2E70E20F7E738B567
:1067900004460020FFF764FF2268616813688B429B
:1067A00015D9591E116013F8015CA28AE36802FB37
:1067B00005352268A36811685B1A1179DBB299422A
:1067C00000D213710020FFF74DFF284638BD002589
:1067D000F8E738B5054600200C46FFF741FF2A6868
:1067E0001368591C1160E968641AA98AB4FBF1F4B2
:1067F0001C700020BDE83840FFF734BF30B18A6814
:1068000092F83C3143F0200382F83C31704709682C
:10681000006804F0FDBC08B104F00CBD704738B549
:10682000054683680068DC7CFFF7F5FFAB685A7BA0
:106830002044B0FBF2F302FB1300B0FA80F04009F1
:1068400038BD10B584680068FFF7E5FFE37C627B24
:10685000A073C0B2034493FBF2F102FB1133013386
:106860002372A37C01311844A17290FBF2F3591CEE
:1068700002FB13030133E172637204F1080010BDDF
:1068800038B50546836800689C7CFFF7C4FFAB6899
:106890005A7B2044B0FBF2F302FB1300B0FA80F005
:1068A000400938BD2DE9F047089C1E4609BB1B4F27
:1068B0001B4CE41BE4089442B94606D91948E5008C
:1068C00000EB82080C46A54201D100230EE009EB43
:1068D0000403D8F800005B68196804F099FC07EB22
:1068E000040A08340028EED1DAF804303360BDE839
:1068F000F0870028E9D00178436839B12146104675
:1069000098472368002BE0D03460F0E71201991813
:106910009B58002BD9D03160E9E700BF08DD0000AB
:1069200058DD00003C02002030B50368D3F8345134
:1069300085B00446EDB10023092201A9284602F0E2
:1069400021F82368029AC3F834210021092201A802
:1069500003F0C7FF0023092201A9284602F007F827
:10696000284601F0BFFF2368D3F8340118B9C3F8F3
:10697000300105B030BD01A90023092202F002F860
:1069800020680023092201A9D0F83401019301F005
:10699000EEFFEEE7014A024901F0A7BDF8D1000081
:1069A000F3D400000A460068014901F09EBD00BF13
:1069B00027D2000009B1FFF7F5BF7047014A02492D
:1069C00001F093BDEED10000F3D400002DE9F84FA3
:1069D00000250746884614460560267866B103F010
:1069E0002DFF3044437813F008030CD000232370AC
:1069F00001343B680B2BF0D93B68002248F8232078
:106A00002846BDE8F88F3A68511C396048F82240A2
:106A10001D4694F80090B9F1000FEAD0002D40F027
:106A20008A80B9F1270F05D0B9F15C0F0ED0B9F10A
:106A3000220F79D12046FFF7EEFE611C0246204668
:106A400003F036FF4D4626463446E2E7661C2046F4
:106A5000FFF7E1FE31460246204603F029FFF3E747
:106A6000B9F15C0F01D0661CEEE760788542EED08C
:106A7000302825D102234FF00009E05CA0F130015D
:106A8000C9B207295FFA83FA17D8013341EAC9016D
:106A9000052B5FFA81F9F0D19A462046FFF7BBFE3D
:106AA0000AF1FF3BA344821CA2EB0A02594620468E
:106AB00003F0FEFE84F80090C6E7BAF1020FECD1B5
:106AC0007828D0D102214FF00009635CA3F1300295
:106AD000D2B2092AC8B214D842EA091303295FFACC
