:10100000407A0020A591000053A6010091910000B4
:10101000919100009191000091910000000000006A
:101020000000000000000000000000007D930000B0
:1010300091910000000000001593000091910000C4
:1010400061950000D5B50100619500006195000033
:1010500061950000619500006195000061950000B8
:101060008BB501006195000061950000BFB50100DE
:101070006195000061950000619500006195000098
:101080006195000061950000619500006195000088
:101090006195000061950000619500006195000078
:1010A0006195000061950000619500006195000068
:1010B0006195000061950000619500006195000058
:1010C0006195000061950000619500006195000048
:1010D0006195000061950000619500006195000038
:1010E0006195000061950000619500006195000028
:1010F0006195000061950000619500006195000018
:101100007BB972B90029BEBF00204FF0004106E054
:1011100008BF00281CBF6FF000414FF0FF3000F007
:1011200057B8ADF1080C6DE904CE002909DB002B9E
:101130001ADB03F07DFBDDF804E0DDE9022304B0F7
:101140007047404261EB4101002B1BDB03F070FB59
:10115000DDF804E0DDE9022304B0404261EB410127
:10116000524263EB43037047524263EB430303F085
:101170005FFBDDF804E0DDE9022304B0404261EBEF
:1011800041017047524263EB430303F051FBDDF82A
:1011900004E0DDE9022304B0524263EB43037047ED
:1011A00053B94AB9002908BF00281CBF4FF0FF31CE
:1011B0004FF0FF3000F00CB8ADF1080C6DE904CE33
:1011C00003F036FBDDF804E0DDE9022304B07047EC
:1011D000704700BF014B1B685B6818470000002088
:1011E000014B1B68DB68184700000020014B1B689F
:1011F0001B69184700000020014B1B685B691847FA
:1012000000000020014B1B689B691847000000206C
:10121000014B1B68DB69184700000020014B1B686D
:101220009B6A184700000020014B1B681B6B184786
:1012300000000020014B1B68DB6B184700000020FA
:1012400010B4034C2468A468A44610BC604700BFD7
:1012500000000020014B1878704700BFBC0D002033
:10126000042810B511D883B104280CBF10242824F9
:10127000A1420AD2064C54F8200018B141568A42C5
:10128000A8BF0A461A70002010BD6FF01500FBE7DA
:101290008007002030B50346114890F91C209A427F
:1012A00019DD90F924209A4217DA9A1A846AA05C10
:1012B0000C4A15569D420DD00E32002918BF013040
:1012C0009442C0B206D129B1013BDBB2012B01D857
:1012D0000130C0B230BD0D20FCE70020FAE700BFAE
:1012E00080070020C0D6010008B5054B93F91C30DB
:1012F000984203DAFFF7CEFF024B1B56184608BD93
:1013000080070020C0D6010010B51C4C94F82C308A
:1013100073B9012384F82C3003F0DBFC48B1184B7F
:10132000A362D823236284F824300823A36123779F
:1013300010BD03F0E3FC0028F1D103F0E8FC002825
:10134000EDD103F0ABFC38B10E4BA362D82323627E
:1013500084F824300423E9E703F0A9FC0028F3D142
:1013600003F0AEFC0028EFD103F0BCFC0028EBD169
:1013700040F2BB11742002F0DDFE00BF80070020A8
:10138000FBD60100CED60100014B1879704700BF93
:10139000B4070020054B1A79824283BF1B6800EB1B
:1013A000400003EB00100020704700BFB40700208E
:1013B00043F60952C0F3080302FB03F3400A03F5A6
:1013C000807302FB00F000EB5320704743F6095C8A
:1013D000C0F3080210B50CFB02F2C0F34E24030E5A
:1013E00043EA01230CFB04F0090E02F580724FEA78
:1013F000411C00EB52205A01B2EB030E4CEAD36CB5
:101400006CEB01044FEA841C4FEA8E12B2EB0E0221
:101410004CEA9E6C6CEB040C4FEACC0C4CEA527C10
:10142000D200D31841EB0C01DA03C903801841EA5A
:10143000534141F1000110BD430B48F2376C0CFBE6
:1014400003F34FEA134C00B5104B43F6095E0EFB55
:101450001C0000FB03F35B0D0EFB03FE03EB4C23B0
:101460000EF5745C0CF1080CB0EB5C2F08D80EF58F
:10147000807EA0EB5E20C0B20B6010705DF804FBB4
:10148000013300200B6010705DF804FB6F0C01004D
:10149000F8B5274DA94246D8264E274F450F45EAB5
:1014A000C105A6FB0514C0F34F31A40B01EB0541A8
:1014B00007FB1411A6FB0151890B41EA04411F4CA3
:1014C00004FB110448F2376C600B0CFB00F04FEA90
:1014D000104C43F6095E1A480EFB1C4505FB00F054
:1014E000400D0EFB00FE00EB4C200EF5745C0CF181
:1014F000080CB5EB5C2F12D80EF5807EA5EB5E2EA6
:101500005FFA8EFE069D85F800E00D0628184FEA6A
:10151000112141F10001186059601460F8BD0130DB
:101520004FF0000EEEE796219B2002F003FE00BF75
:10153000FF7F841E83DE1B43000024F40080841E92
:101540006F0C0100420B48F2376303FB02F2120CEE
:1015500043F6095C074B0CFB120101FB0333013B13
:101560005B0D0CFB03FC5002B1EB5C2F88BF01301C
:10157000184470476F0C010010B5094A92F8003406
:10158000202B03D15021022002F0D4FD590102EB9F
:101590004313BDE81040525858680421104700BF5B
:1015A000C007002008B501B3F0B14FF0FF331A4671
:1015B000E0FB01320E498A4203D971216D2002F00D
:1015C000B9FD180D40EA0230C3F30F134FF2244166
:1015D000B0FBF1F203EB0040064B03FB1200B0FB43
:1015E000F1F040EA0240013008BD0846FCE700BFC8
:1015F0003F420F00000024F4014B5888704700BFA1
:10160000FC0B002010B5EFF3108472B6064A9379F4
:101610000133DBB293719379012B01D103F0E1FA2D
:1016200004B962B610BD00BFFC0B002070B50C4CB5
:10163000267866B90125A0602570FFF7E3FF00F06A
:101640004BFA30B94FF080432573C3F804530020A0
:1016500070BDA368002BFAD09847A660F7E700BFDB
:10166000FC0B002038B5FFF7CDFF00F035FA094C30
:101670004FF0804540B103F0A1FA01232B61042310
:1016800063730023A37338BD032363730123C5F879
:101690000433F6E7FC0B002010B5EFF3108472B6AC
:1016A0000A4B9A7922B94FF496716D2002F042FDEF
:1016B0009A79013AD2B29A719A791AB9DB7B0BB94D
:1016C00000F0F8F904B962B610BD00BFFC0B0020B1
:1016D00008B5054B1A7822B100221A731A70FFF769
:1016E000DBFF002008BD00BFFC0B002073B51B4DC5
:1016F0002B7F63B9286A00F0030003F08CFA30B145
:10170000EFF3108372B66A7B1AB103B962B602B006
:1017100070BD01226A7303B962B64FF0804308229C
:10172000C3F808234FF42073ADF80630BDF8064027
:10173000A4B2631E9BB2ADF80630002CF6D14FF078
:1017400080460748C6F80C4103F08AFA85F8254020
:10175000FFF788FF0823C6F80433D8E7FC0B002006
:10176000200C00202DE9F041384C94F82630002B55
:1017700069D04FF08043D3F80071D3F8046157B1BA
:101780000122C3F80823237B2BB1A368002525730E
:101790000BB19847A5604EB14FF080430022C3F8CB
:1017A00004210222C3F80823FFF7A0FF4FF0804670
:1017B0002748D6F80C8194F82550EDB203F054FA7E
:1017C00020B140F2C5116D2002F0B4FC47B1637B3B
:1017D000032B05D10423637303F0F0F90123336174
:1017E000B8F1000F16D04FF080430022C3F80C214F
:1017F000637B042B02D040F2D711E4E703F090FAA8
:10180000C0B14FF080430022C3F8342C022363732D
:10181000FFF742FF4DB1002384F82530637B022B94
:1018200001D1FFF71FFFFFF737FFBDE8F041084880
:1018300003F029BA03F056FA0028E2D103F067FA60
:101840000028DED1E2E7BDE8F08100BFFC0B0020FC
:10185000200C002010B5044C206A00F0030003F0B7
:10186000DAF90028F8D010BDFC0B0020F8B50546C9
:1018700050B10278042A07D8437842B9013B1F2BA4
:1018800002D88378212B07D96FF0150076E0002B62
:10189000FAD18378002BF7D1814B0127C3F88070F0
:1018A000BFF34F8FBFF36F8F4FF08046C3F8807147
:1018B0007C4C4FF0FF33C6F808330023C6F80031E4
:1018C000C6F80431C6F80C31A371AB88A38003F0CD
:1018D0008DF908B12770A771D6F80C24D6F80C340E
:1018E000D20303D5DF0701D500F0F0F840F2F5533D
:1018F00063802B78A9782377002222622174A27357
:10190000042B4ED8DFE803F005033B494B000123CD
:10191000236203F072F900284ED003F075F9236AB0
:1019200003F00303984247D1AB79002B3ED1FFF778
:1019300091FF237C6BB12B785BB900F0CDF80546A5
:1019400002F038FC6FF00043002D00F0A580C4E9E0
:1019500005034FF08043D3F80C24D3F80C34D203A2
:1019600003D5DB0701D500F0B1F84D4A0123002073
:10197000607384F82630C2F880311360F8BDFFF739
:1019800041FE4FF08043D3F80C14D3F80C24CE035F
:10199000F9D5D007F7D50223BAE7434BB8E7434B55
:1019A000B6E740F216316D2002F0C4FB4FF08043E1
:1019B0000222C3F80423BCE74FF080430122DA601F
:1019C0000022C3F80421226AC3F8182503F066F93F
:1019D00010B34FF080534FF08042D3F84432C3F33A
:1019E0004233C2F83C3503F059F910B34FF080434D
:1019F0000122C3F84C254FF0804301229A60022255
:101A0000C3F80423AA79002A93D1D3F804239107B9
:101A10001CD440F2CD21C6E703F049F90028D8D103
:101A200003F04EF90028D4D103F05CF90028D0D19E
:101A3000D9E703F03CF90028D8D103F041F9002898
:101A4000D4D103F04FF90028D0D1D4E7184A166951
:101A5000116941F010011161D3F8043106F010064C
:101A60000BB903F06BF94FF08047D7F8043183B11D
:101A7000FFF7F0FE26B90E4A136923F01003136135
:101A80004FF080430222C3F808230022C3F8042148
:101A90004FE703F051F9E8E7C4E9053059E700BF23
:101AA00000E100E0FC0B0020010002000100030047
:101AB00000ED00E04FF08042012353600023C2F8A4
:101AC0000031014A13707047230C0020014B0122A2
:101AD0001A707047230C00204FF08043D3F8003178
:101AE00023B9034B187800F0010070470120FAE792
:101AF000230C0020094B4FF0FF32C3F808230022CB
:101B0000C3F84025C3F84021C3F84425C3F8442155
:101B1000C3F84825C3F84821704700BF0080004043
:101B2000084B1B785BB101234FF40031064AC2F821
:101B30004813C2F808130BB9C2F8403170474FF48C
:101B40004031F3E7280C002000B0004070B5EFF3FF
:101B5000108472B6094A0A4B0025D2F80415D2F84F
:101B600004612EB1596801315960C2F80451F4E79B
:101B70005B6804B962B6C0E9001370BD00B00040F4
:101B8000280C0020032808D90438C0B2044B800078
:101B90001858003818BF012070470120704700BF57
:101BA00040B10040074BD3F80435C01A20F07F4005
:101BB000884205D3B0F5000F8CBF0220002070478B
:101BC0000120704700B0004001282DE9F041044693
:101BD000884604D94FF4F5716C2002F0ABFA81000D
:101BE0000E4F0F4B4FF4803585400026C7F8085341
:101BF0004046C7F848535E500221FFF7D3FF58B95B
:101C000004F5A87447F824800AB1C7F80453C7F84C
:101C100044530120BDE8F0813046FBE700B00040AE
:101C200040B1004008B5054A9068022120F07F408D
:101C3000FFF7B8FF0128F7D008BD00BF280C00202F
:101C40000F4B4FF40062C3F88020BFF34F8FBFF3F8
:101C50006F8FC3F880210B4B01225A609A60D3F832
:101C60000425002AFBD10849C3F80813C3F8481318
:101C7000C3F84021C3F84421C3F80421704700BFD2
:101C800000E100E000B000400200030008B50A4B8C
:101C90004FF48072C3F88020BFF34F8FBFF36F8F74
:101CA0000649C3F8802101204860FFF723FF044B59
:101CB000086100221A7408BD00E100E000800040C5
:101CC000280C002010B5254C0023FF224FF0FF31D7
:101CD0004FF0FF30C4E90201237062746360FFF7C4
:101CE000D5FFFFF7ADFF1E4B4FF400621A6061692C
:101CF0001C4A51B9012313601A4B4FF48272C3F886
:101D000044230222C3F8042310BD174B1748C3F81D
:101D1000A805C3F8AC15C3F85C294FF40022C3F83A
:101D20000425134A0521C2F8401501211160D2F89B
:101D300040110029FBD04FF40021C3F80815012100
:101D40005160D1600021C2F84011C2F84015C3F8BB
:101D5000A815C3F8AC15C3F8AC15CDE7280C0020C6
:101D600000E100E000B0004000F001404081004090
:101D700000800040F8B52C4C2778012F05460E4610
:101D800005D1D4E902238B4208BF824246D0274BBB
:101D90004FF04042C3F80825FFF7C2FE002225F0AD
:101DA0007F411046FFF710FF002838D00FB1FFF732
:101DB00039FF002301276374A761FFF767FF1C4BFE
:101DC000D3F8042522F00302C3F80425D3F808252C
:101DD00042F00302C3F80825102292FAA2F2B2FAE6
:101DE00082F2092A04DD134840F2913102F098F999
:101DF000C3F81025DF60A269C3F800220E4B4FF430
:101E00008072C3F880211A60084B4FF00042C3F87B
:101E10000425C4E90256042363702770F8BD40F21C
:101E20000E316C2002F086F9280C002000F00140F1
:101E300000800040D5F7010000E100E02DE9F0410D
:101E40001E4C94F80080B8F1020FD4E90223054635
:101E50000E4605D18B4208BF82420AD1BDE8F0810F
:101E60008B4208BF824204D14FF447716C2002F0CC
:101E700061F9237C13B94FF44871F7E7104F4FF025
:101E800040430022C7F8083525F07F411046FFF790
:101E90009BFE78B1B8F1000F01D0FFF7C3FE4FF001
:101EA0008043C7F80435042363700223C4E9025653
:101EB0002370D3E74FF44B71D8E700BF280C002004
:101EC00000F00140014BD3E902017047280C0020CB
:101ED000014BD3F80405704700B0004013B56846C5
:101EE000FFF734FEDDE90004FFF762FA024B002140
:101EF000E4FB030102B010BD0080841E2DE9F04117
:101F0000224CFFF70DFE2378022B04D040F237312C
:101F10006C2002F00FF902F08EFED4E90267C21CB9
:101F200041F10005AF4208BF964226F07F480ED02F
:101F300004214046FFF736FE48B910462946FFF710
:101F400019FF134BA269C3F80022BDE8F0810221FA
:101F50004046FFF727FEA0B90E4A0D494FF08043D7
:101F6000C2F808350123A36160744B60CB604FF069
:101F70000041C2F804150422C4E9026762702370AC
:101F8000DFE70123A36100236374DAE7280C002054
:101F90000080004000F00140032837B508D9041F35
:101FA000E4B2012C19D940F2F5316C2002F0C2F8EC
:101FB000244900F1100201239340C1F8083300F5D1
:101FC000A873002241F823201F4B81005A5053F878
:101FD00020300093009B03B030BD1C4D2B789BB18B
:101FE0006A78824210D11A4A4FF04041012BC2F860
:101FF000081501D1FFF74AFE00232B704FF0FF3286
:102000004FF0FF33C5E90223124A4FF48033A34057
:10201000C2F80833C2F8483304F5A873022152F815
:102020002300FFF7BFFD012818BF0B4B22B204FAB3
:1020300001F41CBF00211951074B53F822300193C2
:10204000019BC8E70080004040810040280C002030
:1020500000F0014000B0004040B1004008B50B4B1B
:102060001A78012A05D15878FFF78CFD58B1002065
:1020700008BD022AFBD15878FFF784FD0028F6D16D
:102080004FF08040F4E74FF00040F1E7280C0020CB
:10209000032838B522F07F41254B044606D9043881
:1020A000C0B2012836D940F2A1310BE0D3E90202D7
:1020B000B2F1FF3F08BFB0F1FF3F06D11A7C22B951
:1020C00040F27E316C2002F035F81B78022B18D0DC
:1020D000184A194D04F110030120A40000FA03F37B
:1020E000C5F80833105104F1804404F50044D4F8D5
:1020F00040258A1A022A09D9C4F84015C5F80433C4
:1021000038BDFFF7ABFF4300FBD4E1E70020C4F884
:102110004005F5E71A782AB15B78A34202D140F274
:102120009D31CFE7BDE838400122FFF74DBD00BF2C
:10213000280C00204080004000800040204A08B564
:10214000D2F80433D90312D5D2F840317BB1002341
:10215000C2F84031D2F840050221FFF723FD30B12B
:102160004FF48033C2F80833042001F0F3FB144A23
:10217000D2F804339B0312D5D2F844317BB100234B
:10218000C2F84431D2F844050221FFF70BFD30B10B
:102190004FF40033C2F80833052001F0DBFB084B95
:1021A000D3F8042132B10022C3F80421054A536850
:1021B00001335360044B4FF40062C3F8802108BD23
:1021C00000B00040280C002000E100E038B5314CA0
:1021D000637CFF2B5BD023783BB1012B10D12374A0
:1021E000022360782370FFF7D7FE2B4BD3F804232C
:1021F00010030DD5D3F84C2152B140F23E4104E01A
:10220000237C002BECD140F252416C2001F092FF74
:10221000D3F8042351030DD5D3F8483153B102202C
:10222000FFF7BAFE1D4B4FF48072C3F880210220E5
:1022300001F090FB184BD3F8042392030DD5D3F88B
:10224000443153B10120FFF7A7FE144B4FF48072C5
:10225000C3F88021012001F07DFB0F4DD5F8043338
:10226000DB0316D5D5F840319BB10020FFF794FE73
:102270000A4B4FF48072C3F880210020FF2363745F
:10228000A061C5F80002BDE8384001F063BB06203C
:10229000F9E738BD280C00200080004000E100E094
:1022A0002DE9F04F8C4F7C7E04EB44033B4483B01C
:1022B0005E78202E47D0894BE5B26400002B00F0F9
:1022C0008780874BDFF81C92002B5DD006EB451210
:1022D00007EB420A4FEA45189AF82030013BDBB27F
:1022E000052B33D8804A12F803B0BBF1090F2DD06B
:1022F000AFF30080EFF3108372B62C443C449AF89D
:1023000021206270A278B24204BF2022A27013B9C9
:10231000AFF3008062B6B044730107EB480809EBE5
:102320004616012259F80330706888F82020594673
:1023300098477C7E04EB44033B44E5B25E78202E54
:102340004FEA4404C2D103B0BDE8F08F40F2B4615B
:10235000702001F0EFFE62B6B044730107EB48084D
:1023600009EB4616012259F80330706888F82020DE
:10237000594698477C7E04EB44033B44E5B25E78C3
:10238000202E4FEA4404DED006EB451207EB420A4A
:102390004FEA45189AF82030013BDBB2052BD5D81F
:1023A000514A12F803B0BBF1090FCFD0AFF3008050
:1023B000EFF3108372B62C443C449AF821206270EB
:1023C000A278964204BF2022A270002BC4D1C2E79B
:1023D000434BDFF814B1DFF80CA14FF02009002BBC
:1023E0004FD006EB451207EB42024FEA451892F830
:1023F0002030013BDBB2052BA8D81BF803100929BC
:10240000A4D0EFF3108372B62C443C4492F8212000
:102410006270A278964208BF84F80290002B52D0D6
:10242000B04407EB480873010AEB461601225AF83C
:102430000330706888F8202098477C7E04EB4403C2
:102440003B44E5B25E78202E4FEA4404C9D17AE7D6
:1024500062B6B044730107EB48080AEB4616012246
:102460005AF80330706888F8202098477C7E04EB87
:1024700044033B44E5B25E78202E4FEA44043FF427
:1024800062AF06EB451207EB42024FEA451892F89D
:102490002030013BDBB2052B3FF658AF1BF8031091
:1024A00009293FF453AFEFF3108372B62C443C4438
:1024B00092F821206270A278964208BF84F80290B8
:1024C000002BC6D1C4E70191AFF3008062B6B044DF
:1024D000019907EB4808A6E7480C0020000000001F
:1024E00000000000C00700202CD701002DE9F04FAC
:1024F000DFF834A1994601EB41034FF0200E1AF8A2
:10250000034082F800E0744583B000F08980DFF872
:102510001CB10F469046054611E06B7B022B02D0A2
:10252000537D022B58D004EB47130AEB430388F882
:10253000004093F82130202BA64671D01C460BEBAF
:102540004412D5F800C090681369D1681B1841F196
:1025500000019C456B688B414FEA4416DDD289F837
:1025600000E095E80D000BEB06011B18D1F8088080
:1025700042F100029845CB6893411CD34B7D022B5E
:1025800002D06B7B022B03D0012003B0BDE8F08F9B
:10259000A8EB0008FFF730F840F25633984237D0E6
:1025A00040F2F55398422FD0B0F5C67F14BF0123F7
:1025B0000E239845E8DA5E4489F80040327E2B7C91
:1025C0009A4229D904EB47140AEB440494F82140B9
:1025D000202CD9D06601C4E7ACEB00030193FFF7D0
:1025E0000BF840F256339842019B13D040F2F5525B
:1025F00090420BD0B0F5C67F14BF01220E22934249
:1026000091DA98F800E0AAE73323D2E73322F6E71D
:102610001D23CEE71D22F2E7002003B0BDE8F08FB6
:1026200089F80040B0E700BF480C0020C007002038
:102630002DE9F04F85B00C4615461E469DF83870C2
:10264000FEF780FF22686368451946F1000695424F
:1026500076EB030351D3DFF8BC8040F2563905E036
:102660005D4576EB0A0348D3C4E900BA0DF10F03C8
:102670000DF10E0239462046FFF738FF00283DD104
:102680009DF80F3008EB4313D3E9022019695B7DF5
:1026900011EB020B40F1000A022BE1D1637B0191A7
:1026A000022BDDD0FEF7A8FF484501992BD040F260
:1026B000F553984225D0B0F5C67F14BF01230E23F1
:1026C0009942CDDAFEF798FF484520D040F2F55305
:1026D00098421AD0B0F5C67F14BF01220E229DF891
:1026E0000F3008EB43139968DB6812EB010B43F1E1
:1026F000000A5D4576EB0A03B6D2002005B0BDE8BE
:10270000F08F3323DCE71D23DAE73322E7E71D22CE
:10271000E5E700BFC00700202DE9F047154692F815
:10272000008092F80BC0AF7A12891C4686B0002355
:10273000E3602361C4E9003327749DF8389084F87E
:102740000DC00646A3606361E28184F811800F46E4
:10275000B8F1000F48D1FEF739FED5E904C2534B5A
:10276000C31841F1000E9C4572EB0E030AD3013EE3
:1027700047F1FF37C4E900674FF47A73A36006B0EE
:10278000BDE8F087263041F10001844572EB01037A
:10279000EDD3288901300021844572EB010378D301
:1027A000BCEB000062EB010104F10C03009303AAEF
:1027B00004ABFEF76DFE039B6868E97A2A89023351
:1027C000034401290CBF47207A2013441844FEF724
:1027D000B9FEDDE90432C01A20F07F40C4E90032BE
:1027E000A06006B0BDE8F087314804A9801A04F162
:1027F0000C02FEF721FE2F4B1B78202B2CD02E49EC
:102800000B69D1E90521053342F1000A13EB0108F8
:102810004AF1000A6B68227B981CEB7AC4F80080AE
:10282000012BE389C4F804A0134403440CBF4720E0
:102830007A201844FEF786FE3246A0603B4628699F
:10284000CDF800902146FFF7F3FE002897D1C4E9A8
:10285000006706B0BDE8F087637B16F1090847F111
:10286000000A022BD6D0FFF737F90028D2D1FEF7A5
:10287000C3FE40F2563398420ED040F2F5539842D0
:102880000FD0B0F5C67FC5D116F1160847F1000A82
:10289000C0E74046414687E716F1250847F1000AA0
:1028A000B8E716F13B0847F1000AB3E70040420FD2
:1028B000FF7F841EC00B0020C80B00202DE9F04FC5
:1028C00097B01C46CDE902128046FFF7FBFADFF80D
:1028D000FCA20646DAF8A0204FF080400123C0F8A1
:1028E00008350F461360BA49082202EB4412531808
:1028F0005558B3F80E90CDF81090D3E901B201EB22
:10290000441C06921C7B5A7BDB6800920CF1080C7D
:102910000793BCE80F000DF1380EAEE80F009CE8FD
:1029200003008EE8030025F07F40FEF741FD4B4693
:1029300001331C44A74B9842044400F234829C4269
:1029400000F3E480002CC0F2C180FFF7C5F8009BC3
:10295000022B024608D0DAE90413B3F1FF3F08BFA7
:10296000B1F1FF3F00F0B7800192FEF745FE40F263
:1029700056339842019A00F0D78040F2F5539842BE
:1029800000F0CF80B0F5C67F00F0C5800023019332
:10299000002103200591B7F1FF3F08BFB6F1FF3FCB
:1029A0001FD0AE4277EB0B03C0F08280B6EB050C74
:1029B00067EB0B03BCF5000F73F1000380F0FD81A2
:1029C000A5EB060CBCF1000F33460ADD0598002884
:1029D00000F0AD809AF8180000280CBF08460020CF
:1029E00000E0434615F1FF39A9EB030C4BF1FF3131
:1029F00084454B4657DB002A41D00993029B08913E
:102A0000B9EB080861EB03020292FEF7F5FD40F214
:102A1000563C6045DDE90813029A00F0D58040F28B
:102A2000F55C604500F0BE80B0F5C67F14BF0B209A
:102A30001820804572F1000280F0BA80039A012AC2
:102A400000F0CC80059A002A73D1B7F1FF3F08BF90
:102A5000B6F1FF3F6DD0B6EB090C67EB0102BCF19C
:102A6000050F72F1000080F28181BCF1010F72F15B
:102A7000000318DA39463346059FB14668E0DAE9C3
:102A80000420B0F1FF3F08BFB2F1FF3FB5D0DDF841
:102A900004C0AA1A6BEB0000624570F10002ACD2D0
:102AA000009A022AA9D00026304617B0BDE8F08F60
:102AB000B5EB060C6BEB0703BCF5000F73F10003DD
:102AC00080D340F27771702001F034FB04F1F454AC
:102AD00004F5902439E700287FF446AF0190FEF713
:102AE0008BFD40F256339842019A00F0488140F243
:102AF000F553984200F01A81B0F5C67F00F01C81B2
:102B00000123032011460192059344E704F1614437
:102B100004F5F70419E700210D2303200193059123
:102B200039E73223019333E71C23019330E708464A
:102B300058E7484605930291FFF71CF90299059B57
:102B40000027B1F1FF3F08BFB9F1FF3F00F030812E
:102B500023F07F402A1A22F07F42013AB2F5000F9B
:102B6000A1D2069B5B191B1A23F07F43B3F5000F1C
:102B700099D80291FEF71CFC174B0299A4EB0008B0
:102B800098453BD3041B9C42C0F0DC80114B984518
:102B900030D89C4240F22581C4F1614404F5F70429
:102BA000A0462CE03D20804572F10002FFF446AFC4
:102BB0000593009B02919F1E484618BF0127FFF70F
:102BC000D9F8059B0299BCE7272032E7480C002082
:102BD000C0070020FF7F841E0040420FB7F1FF3F77
:102BE00008BFB6F1FF3F00F0F28039463346B146E8
:102BF0000027ADE708F1F45808F5902844467B4BD0
:102C000093F8283023B9049B1E33A34280F2A2809C
:102C1000039B012B04D001200291FFF7BDF902991B
:102C2000049B4BB1A8EB0302012000230291FFF7A4
:102C30002FFA0299002851D00023424618460291EB
:102C4000FFF726FA02990646002847D0009BDAF8DB
:102C50001020022BDAF8143000F08180002F41D1CF
:102C6000B3F1FF3F08BFB2F1FF3F00F095809AF843
:102C70001830002B40F08980049A1932A24280F269
:102C8000A1800024A8EB020223460220FFF700FAED
:102C900030B1DAF8A0301C604FF08043C3F808452B
:102CA000069B1093079B119300238DF850300A93D5
:102CB0004FF0FF324FF0FF33CDE90E5BCDE90C232F
:102CC0000AAD0FCD494C0FC40FCD0FC495E80F00CE
:102CD00084E80F00304617B0BDE8F08F0120FFF701
:102CE0005BF9E0E6B3F1FF3F08BFB2F1FF3F0BD065
:102CF0000091FEF7D1FC4FF0FF324FF0FF33CAE9ED
:102D000004230099002FB2D0019BB9EB030261F1BB
:102D100000030520FFF7BCF900285DD09AF81830B1
:102D2000002BA9D101238AF81830A5E7322101230D
:102D30003520019105932EE60D21012310200191EC
:102D4000059328E6294B93F828306442A046002BCF
:102D50007FF45EAF40F2D671702001F0EBF9B3F171
:102D6000FF3F08BFB2F1FF3FCCD0C1E74846089310
:102D70000291059FFEF7FEFF0299089BE1E61C21E8
:102D800001231F200191059305E60520FFF704F9B3
:102D900000238AF818306FE7FEF734FC01F04BFF90
:102DA000CAE9040163E740F23C41702001F0C2F936
:102DB00040F2C271702001F0BDF940F27B717020C9
:102DC00001F0B8F940F2FE71702001F0B3F940F261
:102DD000E961702001F0AEF94FF40A71702001F042
:102DE000A9F94FF40A61702001F0A4F9C80B002082
:102DF0003B4B2DE9F04793F828303A4DDFF8E88057
:102E0000002B00EB40030746EC5C14BF00260226B3
:102E10004FEA4709FFF75CF84FF0200C4FEA471ED6
:102E200008EB44120EEB04039168126905EB430AA8
:102E30000B1A23F07F439E420FD8B3F5000F0CD836
:102E40005218121A22F07F42B2F5000F05D8BCF1D9
:102E5000200F0BD12046BDE8F0879AF82130202BB7
:102E6000A4461C46DCD1BCF1200FF3D00CEB471379
:102E700009EB070205EB430315F802E093F8213054
:102E8000AB547901744604260B1905EB4303224623
:102E90009445204683F8206093F82140F4D109EB53
:102EA00007032B440A4493F802C0BCF1200F5FFAD9
:102EB0008CF618BF76184F4418BF05EB460605EB95
:102EC00042023D4408BF83F801E04FF0200318BFE1
:102ED00086F821E0A87082F821302046BDE8F0870E
:102EE000C80B0020480C0020C00700202DE9F0414D
:102EF00001EB41034C4DEE5C82B0202E01910C465B
:102F000080464FEA41073DD1484B0BB1AFF30080FB
:102F100001F091FEAB7E202B0AD0454BD3E904E2B1
:102F200010F1020C41F10003E64572EB03032ED3CE
:102F3000202E0AD042463346FFF7C0FC00283BD083
:102F40000220AE7602B0BDE8F081D5E90423B3F1EA
:102F5000FF3F08BFB2F1FF3F1DD12B7E33BB0420E2
:102F6000FFF71AF801F075FED5F8A0104FF0804277
:102F70002020A876002301200B60C2F8083502B09B
:102F8000BDE8F0810846FFF733FF8642BCD0002041
:102F900002B0BDE8F081FEF77FFB4FF0FF334FF04A
:102FA000FF32C5E904232B7E002BD8D00520FEF785
:102FB000F3FF00232B76D2E73A1906EB441305EB17
:102FC000430315F802E093F82130AB5461017346D6
:102FD0000420CA189C4605EB4202664592F821304F
:102FE00082F82000F5D13B192B443C4498782028E6
:102FF000C2B218BF5218614418BF05EB420205EB7C
:103000004101254408BF83F801E04FF000004FF074
:10301000200318BF82F821E085F802C081F8213032
:1030200002B0BDE8F08100BF480C002000000000A5
:10303000C80B0020F8B5184A184D002342F22000B2
:1030400020214FF0FF364FF0FF37A97028806B76B4
:10305000136082F82830AB71C2E90267EB71C5E9F1
:1030600004671C46A9762B766A1802F814300134DE
:10307000202CFAD101260A482E7201F0D9F8094B0A
:103080001870094B1C7001F033F9C5F8A000FEF769
:1030900019FEEE76F8BD00BFC80B0020480C0020DA
:1030A000A1220000F80B0020C00B00202DE9F04FFA
:1030B00085B001F0C0FDC14E0746884601F0C9FD4C
:1030C000D6E90223B3F1FF3F08BFB2F1FF3F05D0BD
:1030D0004FF0FF324FF0FF33C6E9022396F8283055
:1030E000002B00F0F380737F012B40F0E680B44C9E
:1030F000E379002B40F00F81F81C48F10001FEF746
:1031000039FE237A002B40F06B81AE4991F800B074
:103110000122BBF1200F227200F067812022A371EF
:103120000A70A276E3713360637E03EB430A5FFAB1
:1031300083F914F80A505B009542009307D0A24B24
:1031400003EB45102A46407E012800F0E780009BF3
:10315000DFF878A203EB0908202DA0444FEA4917B5
:1031600008D04846FFF744FE854203D098F8005047
:10317000202DF6D1BAF1000F01D0AFF3008001F09D
:103180005AFDA37E202B09D0D6E9042310F1020EAC
:1031900041F1000C724573EB0C03E7D3202D37D0BF
:1031A0002B460122FFF78AFB002853D0A57607EBB8
:1031B0000B0304EB430393F82020022A1DD1009A4D
:1031C0004A442244062183F820109178CBB220296A
:1031D0001CBFDB1904EB43035F4418BF83F821B025
:1031E000009B08BF82F801B04B44234404EB47071F
:1031F00083F802B0202387F82130FF236372009BFD
:103200004B441C446378202B59D105B0BDE8F08FA6
:10321000D4E90423B3F1FF3F08BFB2F1FF3F07D069
:10322000FEF73AFA4FF0FF324FF0FF33C4E90423C0
:10323000237EE3BB0420FEF7AFFE01F00AFDD4F8C5
:10324000A0104FF0804200232020A0760B60C2F82F
:103250000835ACE77B1904EB430398F8000093F8BA
:10326000213088F80030024604211346BA1804EBD6
:1032700042029D4282F8201092F82120F5D198F860
:10328000021088F80230CAB220291CBFD21904EB00
:1032900042023B4404EB430318BF82F821004FF085
:1032A000200208BF88F8010083F821205EE705208E
:1032B000FEF772FE00232376BCE7414C1CE7444B2B
:1032C000187805B0BDE8F04F00F0CEBF4FF40C7198
:1032D000B069FEF767F933697269B169023342F187
:1032E00000025B1842F100021B1842F100029F42EB
:1032F00078EB0203FFF4F7AE324B334A1B785801E8
:1033000002EB4313082112585868904740F2C3213A
:10331000702000F00FFFFEF7F1FDF2E6097820299A
:1033200014D0316970694F1DB16940F100007918FE
:1033300040F10000019003EB4213D3E902028842FE
:103340000198824128BFC3E9021000E701FB053163
:10335000487D17F1090148F1000C0228CDF804C09E
:10336000E9D0CDE90251FEF7B7FBDDE90221164BAA
:1033700010B114F80A50DEE7CDE90221FEF73CF95E
:1033800040F25635A842029A0F4B0BD040F2F55549
:10339000A8421FD0B0F5C67F039909D000984844D1
:1033A000255CC8E717F1250148F100000190F5E719
:1033B00017F1160148F100000190EFE7C80B00205B
:1033C000480C0020C00B0020C007002000000000B7
:1033D000F80B002017F13B0148F100000190DDE7F8
:1033E00040F2DB21702000F0A5FE40F2DE217020CB
:1033F00000F0A0FE70B5124C0D460646FEF72AFA04
:10340000637E04F1200CD9B20CEB831C002302E094
:103410000133202B12D01CF81320D8B2002AF7D188
:1034200003EB4111074A04EB4104590102EB43133A
:103430005650012284F820205D6070BD184670BD92
:10344000480C0020C007002010B5094C04EB4014C4
:10345000D4E90201FDF7BAFF227DE38A9B1803F14C
:1034600001034FF000025241181842EB010110BD58
:10347000C00700202DE9F04FAF4A536891B0C3F365
:10348000080383460491002B40F0688108230393CE
:10349000049B1B78012B00F24C82A84E26B1002120
:1034A00040F28750AFF300800023A54C05934FF006
:1034B000010926B1002140F29450AFF30080B9F128
:1034C000000F04D19F4B0BB1AFF3008062B6657E55
:1034D000EDB24FF000036372039B002B40F09E801F
:1034E000A84626B100214FF4B560AFF3008001F08B
:1034F000A2FB049A00950AAB8246FFF70DF926B1AC
:1035000000214FF4B660AFF300800BEB481904EBD9
:1035100049094FEA481799F82030013B012B7BD825
:103520000A992AF07F4AA1EB0A0222F07F4323F096
:103530000103002B40F0C38008EB4802224407EB54
:103540000B03907804EB43030421202883F8201018
:103550004FEA4803C1B200F0A281394404EB4101B3
:1035600081F821B0434423445F4404EB470783F8C8
:1035700002B0202387F8213000230593012726B1CC
:10358000002140F2B550AFF300806F4B0BB1AFF3A9
:103590000080EFF31088C14672B6637A002B88D1A1
:1035A0006A4B0DF1280E03EB4B1CBEE80F000CF12B
:1035B000080CACE80F009EE803008CE803008FB114
:1035C000039B002B00F0EA80059B23B1604B1B7826
:1035D000202B00F06781637EDB4303F001036376F9
:1035E000FF236372B8F1000F04D1564B0BB1AFF358
:1035F000008062B626B1002140F2EC50AFF30080AB
:10360000002F4AD126B100214FF4BF60AFF30080F4
:10361000384611B0BDE8F08F0027B0E74D4B05F1FB
:10362000010A0AF0010A03EB851E03EB8A1CBEE8BF
:103630000F00ACE80F00BEE80F00ACE80F00BEE8DA
:103640000F00ACE80F009EE80F002DB28CE80F00D1
:10365000D0460FFA8AF726B1002140F2F930AFF3D5
:10366000008005EB450507EB47076319625B9B7814
:10367000E2532744BB7056B1002140F2FD30AFF356
:10368000008026B1002140F29E50AFF30080637AA3
:10369000002B7FF40EAF554623E7637E03EB430315
:1036A0001C446378202BADD026B1002140F2F350AA
:1036B000AFF30080284B187800F0D6FDA2E722F087
:1036C0007F42B2F5000F3FF637AF0C9B5B18A3EBC0
:1036D0000A0323F07F43B3F5000F3FF62DAF0DF142
:1036E00027030DF1260229460AA8FEF7FFFE0590E2
:1036F00000285AD108EB480222440423907889F824
:1037000020304FEA48032028C1B2434418BFC919EA
:1037100023445F4404EB470718BF04EB410183F8DF
:1037200002B04FF0200314BF81F821B082F801B03D
:1037300087F82130012722E700ED00E000000000BB
:10374000480C00200000000000000000C00700201E
:10375000C00B0020680C0020F80B0020103B59B271
:103760000029C0F2948001F1604101F5614191F8B6
:1037700000335B090393002B7FF48AAE744B1B78F4
:10378000202B00F0DB80049B1B780393002B3FF47D
:1037900084AE4FF4B061702000F0CCFCFF23637264
:1037A000B8F1000F7FF426AF1FE79DF826C09DF803
:1037B00027E0F4451AD1BCF1200F00F0A78007EBF9
:1037C0000C0304EB430393F8213089F82130BC4407
:1037D00004EB4C0C00228CF821B05F4404EB47034F
:1037E000059F0592032283F82020C8E6BEF1200F32
:1037F00000F0A98007EB0E0304EB4303BCF1200F9C
:1038000093F8211000F08D8007EB0C0204EB4202CC
:103810004FEA480392F82100069082F821104FF0F9
:10382000050A3A1804EB420201468E45814682F8A9
:1038300020A092F82100F4D103EB08022244079162
:1038400092F802A0BAF1200F5FFA8AFE66D0BE4459
:1038500004EB4E0E069A8EF8212003EB0802224458
:10386000079982F80290394407EB0B024FF0200EC3
:1038700004EB410104EB4202F44581F821E082F8B7
:103880002100A4D14344059A04F803B0A5E703F04E
:103890000F03043B13441B7E5B0903936BE782F821
:1038A00001B05FE629460220FFF720FB00287FF4E5
:1038B00092AE637E03EB430020440BEB431204EB18
:1038C000420285780421DFB282F820105A015B00A1
:1038D000202DE9B23B4418BF891823445A4418BF2D
:1038E00004EB410104EB420283F802B04FF02003E5
:1038F00018BF81F821B0059F08BF80F801B082F899
:103900002130B8F1000F7FF475AE6EE608EB480386
:10391000E35C89F821304FEA4803B3E70699517018
:103920009BE708EB48024FEA4803A05C0690A154CD
:1039300075E740F28451702000F0FCFB40F27D51AD
:10394000702000F0F7FB4FF4E971702000F0F2FBFB
:10395000C00B002070B506280ED8DFE800F01D541B
:10396000040D0D780E00B34B4FF08041D3F8A0202A
:103970000123C1F80835136070BDAF4D2B78202BA3
:1039800000F08F80AD4C5A0104EB4313A2585868E5
:10399000BDE8704005211047A64CD4E90423B3F1DB
:1039A000FF3F08BFB2F1FF3F00F0CB80A44D6B7F1B
:1039B000022B04D0FEF790F8002800F021819E4EE3
:1039C0003378202B00F09A80FF23E371D5E902239E
:1039D000B3F1FF3F08BFB2F1FF3F05D00520FEF76E
:1039E00057FB002800F020816B7F012B00F0D38073
:1039F0003378924A590102EB4313BDE870405258A4
:103A00005868012110478C4E8A4C3378202B00F0E7
:103A10009F808B4D6B7F0122022BA27104D0FEF799
:103A20005BF8002800F0F180D4E90423B3F1FF3FF4
:103A300008BFB2F1FF3F5AD03378804A590102EBF8
:103A40004313BDE870405258586800211047794C24
:103A5000237E5BB1D4E90423B3F1FF3F08BFB2F189
:103A6000FF3F00F0C6800023237670BD724E32788F
:103A7000202A00F09C80724D4FF0FF324FF0FF3350
:103A8000C5E90223E379002B00F0C98033786B4A43
:103A9000590102EB4313BDE87040525858680621A3
:103AA000104764494B7E03EB4300DAB20B5C202BDA
:103AB00000F0B08003EB421201EB420292F8214089
:103AC0000C54FF204872022082F820005B4C5C48B6
:103AD0002B7000220A7280F8282004EB4312127E19
:103AE000002A7FF450AF00F09DFE2B784BE7FDF7E6
:103AF00089FD01F0A0F8C4E904019DE7627ED3B21C
:103B000002EB4202A15C202900F0848001EB431308
:103B100004EB430393F82100A054FF226272474A4A
:103B2000317002EB41110022097E227285F82820B3
:103B3000022283F8202000297FF446AF00F072FEB5
:103B400042E7FDF75FFD01F076F8C4E904012DE7D7
:103B5000637E03EB4301DBB2625C202A5AD002EBA6
:103B6000431304EB430393F821006054FF21617277
:103B7000022183F82010314B327003EB4212304D9A
:103B8000137E0021217285F82810002B7FF442AFAC
:103B900000F048FE3EE7D5E90401AB69013841F188
:103BA000FF31C01841F10001FEF748F920E7617EBE
:103BB000CAB201EB4101605C20282BD000EB42121D
:103BC00004EB420292F821506554FF2161721B49B7
:103BD000307001EB40101A4D017E237285F82830B9
:103BE000022382F8203000297FF446AF00F01AFE4D
:103BF00042E7FDF707FD01F01EF8C4E9040132E7D2
:103C000040F26B61702000F095FA40F297617020ED
:103C100000F090FA40F25321702000F08BFA4FF43C
:103C2000D161702000F086FA40F27161702000F0DE
:103C300081FA00BF480C0020C00B0020C007002004
:103C4000C80B002070B5274B1A78202A86B044D0C4
:103C5000254CD4E90213B3F1FF3F08BFB1F1FF3F98
:103C600036D1224D05EB42150646D5E90201FDF796
:103C7000ADFBEA8A2B7DD31803F101034FF000025C
:103C800052419B1942F1000218180DF10B0342EB4F
:103C90000101009303AA04ABFDF7FAFB9DF80B208A
:103CA000DDE904310F2A94BF002201229B1841F163
:103CB0000001C4E902310E4BDB7913B9012006B0D3
:103CC00070BDD4E902230520FEF7E2F906B070BD0D
:103CD00040F67701702000F02DFA40F67601702052
:103CE00000F028FAC00B0020C80B0020C0070020FD
:103CF000480C002038B5224B93F800E0BEF1200FAD
:103D000038D0204D6B7E95F819C003EB43035FFA62
:103D10008CFCEB5C202B1FD01B4C4FEA4C1C06E0AC
:103D2000634405EB430393F82130202B14D004EBBC
:103D30004312117E8142F3D804EB4E14D4E90213EE
:103D400020694018D2E9021243F10003814272EB6C
:103D5000030304D2002038BD4FF0FF3038BD0B4BB9
:103D6000081A1C68FDF724FB04F16F038342F1D8A5
:103D7000001B38BD4FF40B61702000F0DBF900BF71
:103D8000C00B0020480C0020C0070020C80B0020FA
:103D90002DE9F04F924B1E7887B0202E019000F055
:103DA0001A81904F904D7B7E03EB43038046286839
:103DB000FC5C2B6903930DF11302AB6902938946F6
:103DC000404405A9FDF738FB884BA8F16F029A42E1
:103DD00064D8DFF81C82059B696908EB4616B26857
:103DE0009B1832699B182A699B1A23F07F40B0F513
:103DF000000F53D897F819A0AB61202C85F82090BC
:103E00005FFA8AFA18BF4FF0200B00F0D88008EB59
:103E1000441C9B18DCF8080041F100019842DCF8D2
:103E20000C308B414FEA441651D39CF81530022BCD
:103E300002D06B7F022B35D00520FEF7ADF8797EDE
:103E40004FF0FF324FF0FF33BBF1200FC5E90223E3
:103E5000C9B240F0A68001EB410120247B5C604A9E
:103E6000797E127802EB411207EB420282F8213090
:103E70002B68019A13442B60FF237B72FB791BB1E3
:103E80006B7F012B00F08F80202C40D0594B18788D
:103E900000F0EAF9002007B0BDE8F08F012007B07C
:103EA000BDE8F08FA0EB0209FDF7A6FB40F2563308
:103EB000984220D040F2F55398421AD0B0F5C67F10
:103EC00014BF01230E234B45B6DD95F820904644E0
:103ED000337E4B4511D904EB4A1307EB430393F8A8
:103EE0002130202B17D0A346D5E904211C46AB690D
:103EF0008DE73323E7E71D23E5E7DDE902312A6992
:103F00005B189B1A0220AB6107B0BDE8F08F002060
:103F100007B0BDE8F08F0520FEF73EF84FF0FF3206
:103F20004FF0FF33797EC5E90223C9B204EB411398
:103F300007EB43034FEA410C93F8212001EB4103C7
:103F4000480117F803A0FA544FF00508534600EB58
:103F5000030E07EB4E0E1A4694421E468EF8208042
:103F60009EF82130F3D10CEB010EBE4461449EF863
:103F70000290B9F1200F5FFA89F818BF80443944E4
:103F8000024418BF07EB480807EB42028E704FF05F
:103F9000200114BF88F821A08EF801A082F821101A
:103FA0005DE75C46C2E7D5E90431A869013B41F110
:103FB000FF31181841F10001FDF740FF64E70520CB
:103FC000FDF7EAFF797E4FF0FF324FF0FF33C5E98E
:103FD0000223C9B23FE740F6D801702000F0AAF8EA
:103FE000C00B0020480C0020C80B0020913F420F5E
:103FF000C0070020F80B0020BFF34F8F0549064B88
:10400000CA6802F4E0621343CB60BFF34F8F00BF76
:10401000FDE700BF00ED00E00400FA05094B0122B6
:104020005A604FF0FF32C3F80823074B4FF4804229
:10403000C3F88020BFF34F8FBFF36F8FC3F8802189
:10404000704700BF00E0004000E100E0094B0122A2
:104050005A604FF0FF32C3F80823074B4FF48052E9
:10406000C3F88020BFF34F8FBFF36F8FC3F8802159
:10407000704700BF00C0004000E100E0084B002294
:10408000C3F8FC2F0122C3F8FC2F064B0222C3F811
:104090008020BFF34F8FBFF36F8FC3F8802170472D
:1040A0000010004000E100E0F8B51B4E33780546F3
:1040B0000C4617466BBBFDF727F9184B7760002DB0
:1040C00008BF1D4628463472FFF7D8FFFFF7BEFF32
:1040D000FFF7A4FFFDF7CAFB0546C0B9FEF7AAFF2C
:1040E000FDF7B8FBFDF702FB00F055FD002C0CDBE3
:1040F00004F01F026409A40004F1604404F5614463
:1041000001239340C4F88031236001233370284693
:10411000F8BD4FF0FF35FAE7EC0C002032D7010074
:1041200008B572B6024B5B6803B19847FFF764FFAE
:10413000EC0C00201FB572B6134B5D688DB9FFF70C
:104140005BFFB2FBF6F2DCB20133002AF9D104F1D5
:1041500010036B4403F80C2C0A2234B901A8A847B9
:10416000EDE7024600230A26EDE7631E04AEDCB24B
:1041700056FA83F3B0FBF2F602FB1600303003F878
:104180000C0C3046E9E700BFEC0C0020074B93F91C
:104190000830002B09DB5A09012103F01F0301FA43
:1041A00003F34032024941F822307047EC0C002002
:1041B00000E100E01B4B4FF4805270B5C3F8802043
:1041C000BFF34F8FBFF36F8F174D184C0021C5F809
:1041D0000011C3F880212669236943F0100323618D
:1041E0000123C5F8043306F010062B60D5F8003122
:1041F000A3B11EB9236923F0100323610A4B0122E6
:10420000D3F808055A60C3F808230022C3F8002138
:10421000044B4FF48052C3F8802170BD00F08CFD38
:10422000E4E700BF00E100E000C0004000ED00E076
:1042300038B50C49024605200138C0B2FF2803D129
:1042400048216920FFF776FF01EBC0031D7905F0D7
:10425000FF04002DF0D141F8302001225C719C71E7
:104260001A7138BDFC0C0020042808B503D9582168
:104270006920FFF75FFF094B03EBC0000379012BB7
:1042800001D05921F4E7437982790133DBB29A42B4
:1042900018BF4371BDE80840FFF778BFFC0C002051
:1042A00070B5124C06250026013D15F0FF0500D122
:1042B00070BD94F8281004EBC1031A79012A09D1C2
:1042C00058799A79904205D05A79D2B29A7154F8B5
:1042D0003130984794F828300133DBB2042B94BF77
:1042E00084F8283084F82860DEE700BFFC0C00204A
:1042F00008B500F0D3FC70B900F0D9FC58B900F053
:10430000DFFC40B900F0EEFC044A054B002808BF72
:104310001346184608BD024BFBE700BF00E701400B
:104320000C05004008B500F0DDFC08B3EFF3108089
:1043300072B6104A1369116941F010011161A2F5BA
:10434000406203F01003D2F80011D2F804210A43AE
:1043500000D040BF20BF00BF00BF00BF00BF23B9D7
:10436000044A136923F01003136100B962B608BD53
:1043700020BFFCE700ED00E0014B1B681B681847FD
:1043800044000020014B1B685B6818474400002074
:10439000014B1B689B68184744000020014B1B68B9
:1043A0001B6918474400002038B504201E4CFFF755
:1043B000A1FC2568854228BF054604212846FFF751
:1043C000E7FC20B1012820D040F2451108E0236825
:1043D000E068AB420DD1FFF735FC20B940F2251162
:1043E0006B20FFF7A7FEE268236822611344E360B5
:1043F00038BD05446089E5600123281A2375FFF75D
:1044000021FC60B940F22F11EAE763892075E0686A
:10441000C01AFFF717FC10B94FF49E71E0E76289EC
:10442000E3689B1A2361E3E7280D002008B50C4BD5
:104430001A7802F0FF0312B15A1E1A4203D0E0218B
:104440006B20FFF777FE19B1034207D1E521F7E7AB
:1044500023EA00039B0601D1E921F1E708BD00BF73
:104460004800002008B50D4B01221A764FF001726A
:104470001A621A68DA615A689A62094A93F8300037
:104480000221117003F11801FEF7F4FF20B94FF477
:1044900083716B20FFF74EFE08BD00BF280D002082
:1044A0004800002070B5EFF3108572B6264C94F8E2
:1044B00031600023012E84F8313006D0022E1DD049
:1044C000002E3BD185F3108870BD85F3108894F8D9
:1044D000323003F0FF0123B14FF4A9716B20FFF7D5
:1044E00029FE1420FFF7A2FF184B84F832601B78D6
:1044F000012BE9D1BDE87040FFF7B4BF94F832203A
:1045000012B940F26311E9E7104984F832300B78B0
:10451000023BDBB21E2B0ED8012202FA03F30C4A37
:104520001342CFD144F20402134204D020230B7073
:10453000FEF7BCFDC6E740F27F11CFE785F3108898
:1045400040F2A511CAE700BF280D00204800002056
:104550004100004070B5144C94F8335025B14FF42D
:1045600022716B20FFF7E6FD104B84F832500126D4
:104570001E700F4B0F484FF4C852C4E900230E4B76
:10458000A360FFF755FE294684F834000B48FEF778
:1045900031FF202884F8300002D140F29721E0E773
:1045A00084F8336070BD00BF280D00204800002053
:1045B000FF3F420FA54400000500B700314700004F
:1045C00008B5104B93F8332022B940F2F7216B2045
:1045D000FFF7B0FDEFF3108172B693F8312022B1EE
:1045E000012A0DD040F20731F1E7022283F8312091
:1045F00001B962B693F83400BDE80840FFF734BE55
:104600000022F3E7280D00200B4B93F8333010B550
:1046100023B940F216316B20FFF78CFDEFF31084C5
:1046200072B6064B1A78102A03D108221A70FEF7C8
:104630003DFD04B962B610BD280D002048000020E1
:1046400070B5174B1B78042B27D1164D2B7D1BB94A
:104650006B892868C01A70BD00F0AEFA10F11E0414
:1046600095F8300041F10006FEF7EEFE2B691B18AD
:1046700041F100019C4276EB01004FF000020CD2A8
:10468000181B4FF0FF3361EB0601834272EB01030D
:10469000E1D2A7216B20FFF74DFD0020DBE700BF33
:1046A00048000020280D002038B5144C94F8333011
:1046B00023B94FF433716B20FFF73CFDEFF3108506
:1046C00072B694F8313023B1022B0DD040F2DF21C5
:1046D000F1E7012384F8313005B962B694F834006B
:1046E000BDE83840FFF7C0BD054B1B780022042B06
:1046F00084F83120F0D110F09BF8EDE7280D002070
:104700004800002008B5094B19781029CAB207D013
:10471000202A05D0042A04D110221A7010F098F82B
:1047200008BD4FF4E2716B20FFF704FD4800002044
:1047300070B50C46FDF7CCFB611E06294AD8DFE8B0
:1047400001F00453532823665F0001210220FFF784
:104750006DFE314B314A93F8321079B1042111705A
:104760001A68DA6000221A7593F83130022B01D0F2
:1047700010F05EF8BDE87040FFF716BE20231370FE
:10478000BDE87040FEF792BC4FF404716B20FFF758
:10479000D1FC214C94F83230E3B1204B1B78042B30
:1047A00019D100F009FA064694F830000D46FEF7DC
:1047B0004BFE237D012B0BD12269121841F100031E
:1047C000964275EB030303D3BDE87040FFF79ABF31
:1047D0000BF032F970BD124B0222C3F88020BFF3F8
:1047E0004F8FBFF36F8FF5E701210220FFF71EFE09
:1047F000094B93F8323033B1BDE87040FFF732BE59
:1048000001212820F2E7054B01221A70E2E7024B52
:104810001B7D012BAED1D7E7280D002048000020DA
:1048200000E100E0014B01229A777047600D002003
:104830002DE9F04786468C460846089E1546744684
:104840001946002B40F0C2808542B2FA82F245D967
:104850004AB1C2F1200300FA02FC2EFA03F395409C
:1048600043EA0C0C94404FEA154EA8B2BCFBFEF88C
:10487000230C0EFB18CC08FB00F943EA0C439945C6
:1048800028D9EB1808F1FF3704D2994502D9A8F1CD
:1048900002072B44A3EB0903A4B2B3FBFEFC0EFBFF
:1048A0001C330CFB00F044EA0344A04214D92C1939
:1048B0000CF1FF3304D2A04202D9ACF102032C4424
:1048C000241A43EA07401EB1D440002334607360C9
:1048D000BDE8F0874746DDE76346F1E792BB431B3F
:1048E00001214FEA154EAFB2B3FBFEFC200C0EFBCC
:1048F0001C330CFB07F840EA0343984562D9EB18D8
:104900000CF1FF3004D2984502D9ACF102002B44DF
:10491000A3EB0803A4B2B3FBFEFC0EFB1C330CFBA1
:1049200007F744EA0344A7424ED92C190CF1FF3390
:1049300004D2A74202D9ACF102032C44E41B43EA9F
:104940000040C0E7C2F1200320FA03F195409040F7
:104950002EFA03F303434FEA154EAFB2B1FBFEFC50
:104960000EFB1C10190C0CFB07F841EA00418845AE
:1049700004FA02F422D969180CF1FF3004D28845F8
:1049800002D9ACF102002944A1EB08019BB2B1FBB2
:10499000FEFC0EFB1C110CFB07F743EA01439F4290
:1049A0000ED9EB180CF1FF3104D29F4202D9ACF1C1
:1049B00002012B44DB1B41EA004192E76046E3E73A
:1049C0006146F7E76046A3E76346B7E7834206D947
:1049D00016B9002108467BE7C6E900E0F9E7B3FA1B
:1049E00083F78FB9834201D3724508D8BEEB020426
:1049F00060EB030301209C461EB9002168E738469E
:104A0000FAE7C6E9004CF8E7C7F1200CBB4022FAF0
:104A10000CF41C432EFA0CF120FA0CF3B8400143BD
:104A20004FEA14490EFA07F5B3FBF9F81FFA84FEB2
:104A300009FB18300B0C08FB0EFA43EA00439A45B9
:104A400002FA07F240D9E31808F1FF3004D29A4580
:104A500002D9A8F102002344A3EB0A0389B2B3FBF5
:104A6000F9F809FB183308FB0EFE41EA03418E45B5
:104A70002CD9611808F1FF3304D28E4502D9A8F170
:104A80000203214443EA0040A0FB0298A1EB0E017F
:104A90004145CE46434602D306D14D4504D2B9EB3B
:104AA000020E68EB04030138002EA6D0B5EB0E020F
:104AB00061EB030101FA0CFC22FA07F34CEA030351
:104AC000F940C6E9003198E74046C5E74346D9E7D3
:104AD000FCF71ABC801A00F3070038B540B20D4647
:104AE00059B21446FCF700FC0023287020446B7078
:104AF00040B238BD73B5A0F10B040E46E1B20F29E8
:104B0000154603D94F216420FFF714FB0DF1030371
:104B100032460420FCF7A4FB034608B15821F2E713
:104B200004EB840404F665149DF90300A2B201A904
:104B3000FCF786FB9DF804302B709DF805306B70F8
:104B400002B070BD002303607047002070474FF033
:104B5000FF3070474FF0FF307047704770470020BC
:104B600070474FF0FF3070470020704700207047BB
:104B70000023037070470022FFF7ACBF002070478E
:104B80004FF0FF3070474FF0FF3070474FF0FF306D
:104B90007047C0B2704770B5FCF7F6FB00240546BD
:104BA0002646E0B2854200D870BDFCF7F3FB013425
:104BB000868480F82660F4E7FDF790B908B500F028
:104BC000AFF828B14FF080430222C3F8342C08BD5F
:104BD00000F088F80028F5D100F099F80028F1D10C
:104BE000F5E74FF0804301221A6070474FF0804391
:104BF000D3F8080400F0010070474FF08043D3F869
:104C0000140400F0010070474FF08043D3F81C04F7
:104C100000F0030070474FF080410246D1F81804BD
:104C2000D1F8181410F4803004D001F00300831A76
:104C300058425841704707B56846FCF787FFDDE9E1
:104C400000024FF080730021E2FB030103B05DF826
:104C500004FB08B5FCF764FFBDE80840FCF74ABF59
:104C60000346002018707047EFF3108272B6037885
:104C70000121DBB2017002B962B6012B0CBF6FF0EB
:104C8000220000207047EFF3108372B600220270FA
:104C900003B962B600207047FFF702BB4FF08053A4
:104CA000D3F83001A0F10F035842584170474FF03C
:104CB0008053D3F83001A0F10A035842584170479D
:104CC0004FF08053D3F83001A0F10E035842584101
:104CD00070474FF08053D3F83001A0F110035842D1
:104CE000584170474FF08053D3F83001062803D065
:104CF000431C584258417047012070474FF0805381
:104D0000D3F83001A0F10D035842584170474FF0DD
:104D10008053D3F83001A0F108035842584170473E
:104D200008B5FFF7C4FF30B14FF08053D3F834011A
:104D3000B0FA80F0400908BDFFF7F4BAFFF7F2BA05
:104D400000280CBF6FF0150000207047002070474E
:104D50000723037000207047002070470020704731
:104D600010B50446FFF76CFCA04294BF0020012060
:104D700010BD10F8012B11F8013B012A28BF9A42FF
:104D8000F7D0D01A7047034611F8012B03F8012B16
:104D9000002AF9D17047034613F8012B002AFBD1F2
:104DA000181A0138704700002DE9F04706468AB00E
:104DB0000F46904617F0EAFD4FF47A73A0FB0345C7
:104DC00003FB0155E40B012F44EA45444FEAD53576
:104DD00008D1CDE900452A4A0821304614F0B1FF38
:104DE000002013E0D8F8047026483946FFF7C1FFC9
:104DF00078B125483946FFF7BCFF50B13046234A09
:104E00003B46012114F09DFF6FF004000AB0BDE89D
:104E1000F0872046294618A3D3E90023FCF770F950
:104E200005460C4610461946194A0023FCF768F956
:104E300080460F46104619464EF660220023FCF7C6
:104E40005FF982468946104619464FF47A7200236C
:104E5000FCF756F9CDE904A9CDE90601CDE908230F
:104E6000CDE90287CDE900540A4A0821304614F002
:104E700068FFB5E7AFF30080005C26050000000086
:104E8000A8E50100B9E50100BCE50100C5E50100A8
:104E900080EE3600DCE501002DE9F04315461A7C72
:104EA00004697D2A0E4685B0D96880461F4600F207
:104EB000DC80931C84F8483604F2496018F0B3FA99
:104EC00004F5C66948460DF06FFF012E07D9022E82
:104ED0004CD06FF08505284605B0BDE8F08300236F
:104EE000ADF80D3095F84A30C3F34002C3F38003A8
:104EF0008DF8093001238DF80B30614B8DF80820B7
:104F000093F8F4368DF80C3006F0010602A904F58A
:104F1000C9608DF80A6008F061FA002844D0584B47
:104F2000D3F8EC361BB13A460021404698474FF083
:104F3000FF324FF0FF3348460DF00EFF94F8F22693
:104F400095F84A3062F3410385F84A3094F8F32625
:104F5000DBB262F3820385F84A3094F8C836052B39
:104F600022D8DFE803F0241E7F85217F0023ADF8DF
:104F70000C3095F84A30C3F34002C3F380038DF838
:104F8000093001238DF80A303D4B8DF8082093F845
:104F9000F4368DF80B3002A904F5C96008F050FA18
:104FA000BBE76FF00F0596E76FF0040593E7D4F8C1
:104FB000D456002D8FD0D4F8D836D4F8DC2613433D
:104FC0004AD02D78206800220023CDE90023002359
:104FD0001A46294604F00EFE064600283FD0D4F8B3
:104FE000D4162A46013115F0B7FE002831DB94F8BB
:104FF000E03686F8483094F9E136AE339BB2FE2BAA
:1050000028BFFE2386F84930D4F8D806D4F8DCC689
:105010004FF47A75A0FB050105FB0C1116A3D3E92B
:105020000023FCF76DF8C6E90801B262304615F0BE
:10503000F2FD2068314613F084FE0025304615F05D
:10504000B1FDD4F8D40616F087FB0023C4F8D4369B
:1050500041E76FF00B05F1E76FF02205F1E76FF024
:105060000B05EEE76FF0220535E76FF0790532E7C3
:105070006FF068052FE700BF00CA9A3B00000000F0
:10508000000E0020000000002DE9F34706464FF017
:10509000FF384FF0FF3900F58F6A4FF0FF324FF0C5
:1050A000FF3350460DF0FEFD43681F780446002391
:1050B0001A463946CDE90089306804F09BFD6168E5
:1050C0003A460131054615F047FE074670BB237C82
:1050D00085F8483094F91130AE339BB2FE2B28BFCF
:1050E000FE2385F84930A27C95F84A3062F300032C
:1050F00085F84A30A068D4F80CE04FF47A71A0FB30
:10510000010C01FB0EC10EA3D3E90023FBF7F8FF4E
:10511000C5E90801AA623068294600F07BF800283A
:1051200004DB6068676016F017FBB6E70023606871
:10513000636016F011FB284615F034FDADE700BFA3
:1051400000CA9A3B0000000008B5064B00214FF44E
:105150000050C3E90001044B04481B68DB69984711
:10516000002008BD001500209C23002018D6010057
:1051700008B5064B00214FF40040C3E90001044B81
:1051800004481B681B6A9847002008BD00150020D2
:105190009C23002018D6010010B5084B1978002078
:1051A00081F00101197007F01FFD054B0548BDE8AE
:1051B0001040D3E900230DF0AFBF00BF914800209D
:1051C0000015002050000020012910B50B460446B0
:1051D00004D002290BD00B4A082105E016F099FAF9
:1051E000094A03460821204614F0ABFD08E0506848
:1051F00017F086FF054B1B6881B2DB6804489847AF
:10520000002010BDA4E40100C6F501009C2300208D
:1052100018D601002DE9F04F0D4685B0002949D080
:105220008868002849D0C368002B46D0038A002B29
:1052300043D015F068FBAC68D0F80C900026002C29
:1052400034D11F492B6A6A6A95F8488095F94970EC
:10525000A3FB013B01FB02BBAA6A4FF47A71B2FBCC
:10526000F1F213EB020A174B19784FF0030081F0AB
:1052700001014BF1000B197007F0B6FC124AFF2335
:105280003146484614F029F8CDE902ABCDE9007863
:105290000E480D4B0E4A0068082114F052FD2846B6
:1052A00015F080FC204605B0BDE8F08F238A6468C5
:1052B0001E44C4E76FF01500F5E76FF03C00F2E71D
:1052C00040420F0090480020924800209823002080
:1052D000C6E4010030B587B007F070FC01F032FF82
:1052E000114B124918604FF4004200231048114C32
:1052F000114DC1E900230DF00FFF1822002168466F
:1053000018F0B9F801238DF800300020A3682B6055
:1053100016F036FA2B686A469B6A032120469847A6
:10532000002007B030BD00BF9823002000150020EA
:105330005000002018D601009C2300202DE9F041E8
:1053400007460E46154600F08FF8C36804461BB9A1
:1053500043691A78002A41D10023E3606368BB42A5
:1053600056F8232008DB324B6361204600F062F8D8
:105370004FF0FF30BDE8F081511C616192F8008070
:10538000B8F12D0FEFD1911C61615178A1602D29E9
:1053900004D192786AB901336360E4E749B9244BD8
:1053A00063614146284617F0BFFE0028DDD0C4F8EF
:1053B0000880D4F808802846414617F0B5FEB8F1B9
:1053C0003A0F636900D070B91B7813B96368013371
:1053D0006360204600F02EF83F20CBE75A1C426164
:1053E0001B788360E5E742783A2A0BD000222261DD
:1053F0001B7813B9636801336360204600F01AF824
:10540000A068B7E718786268094928B9013297425D
:10541000626004DD56F82230C4E90431EAE76161D4
:105420002D783A2D2046D5D100F004F82846A1E782
:105430000AE70100074B02681A60074B42681A60CE
:10544000064B82681A60064BC2681A60054B0269F7
:105450001A6070474C01002048010020A82300205A
:10546000A4230020A0230020004870473001002022
:10547000014B1B68184700BF5001002030B585B0B4
:1054800004460D4610220021684617F0F4FF02235F
:105490008DF802302A46044B01932146684612F0EB
:1054A000F7FA05B030BD00BF71540000014B186021
:1054B000704700BF5001002080B505460E461746D4
:1054C00098460EF0EBF9034617F0E6FFDFF8189068
:1054D000044649F80030424630463946A84754F859
:1054E000090003F0E7FE00BF0800000008B504460D
:1054F0004FF04002EFF3118382F31288BFF36F8FF6
:1055000007F024FB204603F07FFE034813F0CAFE99
:1055100004F000F8FCE700BF3EE501002DE9F0478C
:10552000058B04462807904611D4022905F007058B
:1055300040F0CD80204613F015FF78B10138218B63
:10554000042811D8DFE800F0C3106D85950001290B
:105550000CBF45F0100545F02005258388F3118820
:10556000BFF36F8FBDE8F08701F0070AAA4500F08E
:10557000A6800027B9463E46A368002B00F0BD80F8
:1055800041F00801218388F31188BFF36F8FA16870
:10559000002900F0BB800D68002900F0B780D1F829
:1055A0000480334652462046C047002D76D02B68F3
:1055B00029461D46F0E701F007035A1F012A1BD8B0
:1055C000002221F00701062B276889B2C4E90022D6
:1055D00009D13B4603E0628B013262831B68002BDA
:1055E000F9D141F002012183204613F0BBFE0028CF
:1055F0007BD041F0200177E0042B0AD121F0070194
:1056000089B22183204613F0ADFE10B141F0200194
:105610002183218B01F0070AAA4550D00027B94603
:10562000AAE7236921F0070141F00601062DD3F80E
:10563000009021832DD1B9F1000F40D041F0080135
:10564000218388F31188BFF36F8F3A492046C847FA
:1056500029E021F00701236941F0040189B2042DFA
:10566000D3F804902183E6D000273E464FF0040A89
:1056700082E721F00701236941F0050189B2052D78
:10568000D3F808902183D6D000273E464FF0050A74
:1056900072E700273E464FF0060A6DE72B4687E784
:1056A000B9F1000FD1D14FF04003EFF3118883F32C
:1056B0001288BFF36F8F238B23F008032383258B7E
:1056C000EA062ED525F01003238305F00705666949
:1056D000218B002EBFF66FAF00232768C4E900338B
:1056E00021F0070141F001012183218B01F0070A1C
:1056F000AA454FF000097FF43FAF002F9BD041F047
:105700000801218388F31188BFF36F8F002FC7D062
:105710003D68394633465246204613F04FFE2F4629
:10572000F4E7AB067FF51AAF25F02003238305F0DD
:105730000705FFE6E9930100014B03600020704775
:1057400084DA0100F0B40C4B0C4E5F6A0C4BB34290
:1057500003D36FF08500F0BC70475D68BD4209D38C
:105760001C693CB195F802C00579AC4502D12346CD
:10577000F0BC18472433EAE7AC2300205007002090
:105780002C0700202DE9F047134CDFF85080DFF89C
:10579000509005460E461746444503D36FF08500EA
:1057A000BDE8F0876268D9F824309A4212D3A36921
:1057B00083B190782979884205D13A463146284606
:1057C000BDE8F04718475279012A03D13A463146DD
:1057D000284698472434DFE72C0700205007002094
:1057E000AC2300202DE9F0410B4CDFF8308005465A
:1057F0000E461746444502D36FF0850009E0636901
:105800000BB92434F6E73A46314628469847002833
:10581000F7D1BDE8F08100BF2C0700205007002021
:1058200010B5044615F0DFFA10F1780F00D050B92A
:10583000054A204613F068FFD2F8C43023EA00037B
:10584000C2F8C430002010BDAC230020024B00225F
:105850001A605A60704700BF6724002070B50B4B78
:105860000B4CA34201D3002070BD196A1E7F002299
:105870000439D5B2AE4201D82433F2E7013211F82F
:1058800032508542F5D10120EEE700BF2C07002001
:105890005007002008B509480378C3F341130A33C1
:1058A00050F823303BB100F1080200F11001984795
:1058B000C043C00F08BD1846FCE700BFAC23002062
:1058C00004282DE9F14FDFF8989004460F4616D0D2
:1058D00001282DD1DFF88C8098F8B93043B300F05F
:1058E000DFFD214D4D4520D2D5F820B04FF0000A04
:1058F0002B7F5FFA8AF6B34204D82435F2E7FFF72C
:10590000A5FFE7E70BEBC6060AF1010A307915F0AF
:105910006AFA0246307913F0F7FED8F8C430002A4C
:1059200023EA0003C8F8C430E2DA002388F8B9306B
:105930000D4D4D4508D30B4B1B6A6BB139462046C4
:1059400001B0BDE8F04F1847EB681BB13A4621465D
:10595000284698472435ECE701B0BDE8F08F00BF3A
:1059600050070020AC2300202C07002073B5C4B2E0
:1059700063060D468DF8074007D02046FFF76EFFFF
:1059800078B10D4B93F8BA0058B10B4E204655B183
:1059900004F018FDF3691BB10DF1070108209847C9
:1059A000012002B070BD04F035FDF369002BF7D083
:1059B0000DF107010920F2E7AC23002073B58678CA
:1059C0008DF80060037942791C4C43EA0223ADF85C
:1059D0000230C378304603F003038DF8043013F02F
:1059E00093FED4F8C430184205460BD0304600F080
:1059F00039FD3046FFF714FF16F04FFE10B9962020
:105A00000DF02EFF684604F0B9FC10F1780F03D0BA
:105A100010B1002002B070BD9DF8000004F036FD0A
:105A200010F1780F01D00028F3D1D4F8C430012050
:105A30002B4384F8B900C4F8C430EBE7AC23002052
:105A40002DE9F047924DAB6904460E461746C3B99F
:105A5000207800F01F00012876D0022800F0DC80BA
:105A600000BB94F900103A68637800292EDA062BFF
:105A70000CD0082B25D0ABB953700123137002232F
:105A800003E198470028E3D100200DE06388190A5C
:105A90000A1F012A8C4605D9072903D8DAB26B6A96
:105AA0001C781CB96FF01500BDE8F0875D7865457E
:105AB00003D1824200F0E48001302344F0E71B78F8
:105AC000E3E095F8BA3013700123DEE0052B11D026
:105AD000092BE7D163886E6A002B32D1FFF7B6FE3F
:105AE000638885F8BA30EB69002BCDD06949032073
:105AF0009847C9E7A07804F02FFC0028C4D0D1E76C
:105B00007378042B10D0052B11D0022B04D1777998
:105B10006388BB4208BF012033781E443378002BD2
:105B2000EED10028BED0D9E796F80380F4E7638869
:105B3000BB42F1D1B8F1000FEED13046FFF73EFF86
:105B4000EAE7FF27B846E9E795F8BA30D7F800C08A
:105B5000002BA7D06F6AA28894F804E03B4618781F
:105B600000289FD05978022904D193F80480F04589
:105B700000F292800344F2E78CF800308CF8013098
:105B8000316081E71F4493E00B2B8BD100264FF04F
:105B9000FF08C146B24606E07B78042B0FD0052BE8
:105BA00021D03B781F443B78002BF5D1EB6913B132
:105BB000514607209847002E7FF466AF72E797F8AA
:105BC0000280A38897F803909845EAD163889945A5
:105BD000E7D1B8F1070F1CD805EB0803BA4683F8E4
:105BE000BB900126DDE7A3884345DAD1A3784B4576
:105BF0000AD0BE78304600F035FC3046FFF710FE84
:105C0000B0FA80F67609CCE73846FFF7D7FE0646AD
:105C1000C7E7BA460026C4E794F900206378002A53
:105C200018DA002B7FF43EAF24793F6863060AD070
:105C30002046FFF713FE00283FF434AF95F8BA3042
:105C4000002B3FF42FAF3946204604F003FC00231D
:105C50007B7014E7012B08D0032B7FF423AF6388FC
:105C6000002B7FF41FAF012103E0618800297FF43E
:105C700019AFA088FFF77AFE00287FF405AF11E77F
:105C800002293B607FF41BAF5B883360FCE600BFFA
:105C9000AC2300206624002094F9000063780028DB
:105CA000BFF672AF002B3FF467AF0A2B7FF4FAAE5A
:105CB0003B78002B3FF4F6AE797804297FF462AF8D
:105CC000B9788A427FF45EAF072A96BF5219002343
:105CD00092F8BB308CF80030F6E600BF13B5164CD6
:105CE000237DF3B9E268A168019201AB802013F033
:105CF00019FD019AA3681344A360E3689B1AE3604B
:105D00006BB962B12369E2889A4208DD94F8C82031
:105D100093FBF2F102FB11330BB90123237502B09F
:105D200010BD00231A4619468020237502B0BDE835
:105D3000104004F0D5BB00BFAC23002030B585B0C7
:105D4000002302460D460193002858D1002935D181
:105D500008220B460DEB020115F05EF8002804DA6C
:105D6000802004F02FFB05B030BD2A4C029A22603F
:105D7000039A626004F13802A2609DF90820BDF820
:105D80000E302575002AC4E903550ADB802B04D99F
:105D9000802004F017FB0020E3E713B1C4E90333CC
:105DA000E1E7FFF777FD0028DAD0E28823699A421D
:105DB000D4BFE260E360FFF791FFD4E7154CD4E96C
:105DC0000215002D01AB04DC15F026F80028CADA14
:105DD000C6E72A4615F020F80028D9DB019AA36807
:105DE0001344A360E3689B1AE360002BBBD104F16A
:105DF0003803A360FFF74EFD0028DCD1B0E7802810
:105E0000B1D1044BDA68002AD5D11B7D002BD2D149
:105E1000A9E700BFAC230020054B064A9A62064A58
:105E2000DA62064A1A63064A58629A61002070478D
:105E3000AC230020415A000045570000E557000000
:105E4000855700002DE9F341414D04466F6A4148F2
:105E50004FF0FF324FF0FF330CF06CFE95F8B86056
:105E6000002E6ED13C482C62E86104F053FC04F033
:105E700041FA041E49DB00F037FB041E45DB7B784A
:105E8000012B61D1FB79002B5ED0684685F8C830C4
:105E9000ADF802308DF804608DF8006004F06EFA01
:105EA000041E32DB802768468DF8007004F066FA25
:105EB000041E2ADB2949304604F018FC041E24DBAA
:105EC0002649384604F012FC041E1EDB244CDFF881
:105ED0009480444520D3002004F0D8FA041E14DB3B
:105EE000D5F8C430802043F00103C5F8C43004F075
:105EF000CDFA041E09DBD5F8C43043F48033C5F86D
:105F0000C430012385F8B830002412480CF08CFE10
:105F1000204602B0BDE8F081276A0026227FF3B256
:105F20009A4201D82434D4E707EBC30257F8331060
:105F3000107904F0DBFB01360028EFD04FF0FF347E
:105F4000E3E76FF07704E0E76FF01504DDE700BFEB
:105F5000AC230020B0050020C15800003D5D0000CA
:105F60002C0700205007002010B50A4B93F8B840CA
:105F70004CB900F055F848B1FFF74EFF2046BDE898
:105F80001040FFF75FBF6FF0770010BD4FF0FF309C
:105F9000FBE700BFAC23002030B51F4B8BB005AA38
:105FA00003F1100518685968144603C40833AB425E
:105FB0002246F7D11B7823701022002101A817F088
:105FC0005AFA12220021154817F055FA102101A89B
:105FD00015F068F800281BDD0828B8BF082009382C
:105FE00001AB0E491A18002012F8013F0AAC04EB6D
:105FF000131403F00F0328336B44013014F8144CCE
:1060000013F8143C0C7008284B7001F10201EBD11D
:1060100002480BB030BD00BF67E501009149002088
:106020002DE9F04F704C87B04FF0000B00264FF079
:10603000011AB0463546B14623782BB96B4B023472
:106040009C42F3D1684833E06378052B1BD8DFE826
:1060500003F09003C8901D3B402304A88DF810B0B6
:10606000ADF812308DF814B014F0A8FE40B108233A
:1060700004A8ADF8123014F0A1FE08B1ADF812B0CA
:10608000BDF81230E37123781C44D5E7E378002B88
:10609000F9D1A3787BB108F101085FFA88F8F2E73B
:1060A0006B689C4209D02435514B9D42F8D30020A7
:1060B00007B0BDE8F08F4F4DF6E7AB68002BEAD094
:1060C000414620469847E6E7002DF0D000222B7F7E
:1060D0009A42ECD2296AA07801EBC2010B7998426E
:1060E00001D00132F3E70127E07800F003008DF8DA
:1060F0001400207994F805C040EA0C20ADF8120095
:1061000094F902000028FBB228DA07F110004FF0E2
:10611000010C0CFA00F010EA0A0F26D143F08000BF
:106120008DF8100004A8CDE90213019214F046FE88
:10613000DDE90121039BC0B99DF81020A27012F087
:10614000800F18BF10330A7118BFDBB24FF0010285
:1061500014BF9A40BA404AEA020A94E70120B840C4
:1061600010EA0A0F01D11846DAE70137102FBBD128
:10617000B7E7032E1DD1FFF70FFF074668B1FEF703
:106180000AFE102809D13846A31C07F1100250F866
:10619000041B43F8041B9042F9D123786FF00201ED
:1061A000E218091B04EB5303D14213D50136F6B2B2
:1061B00069E7002EF1D1B9F1000F3FF478AFA4EBFD
:1061C000090389F80230C3F3072389F8033089F8FB
:1061D0000480EBE702F801BC13F8010902F8020D94
:1061E000E2E7A1464FE700BF4C0600202907002048
:1061F000500700202C07002010B5094B00211A463B
:106200001C78844205D15C681CB1482303FB012043
:1062100010BD0131042903F14803F1D10020F7E753
:10622000782400202DE9F34150F8303C10F8346C0C
:10623000103304460AD1036950F8282C980736D544
:10624000D2B9590715D5002344F8303C54F8303CF6
:1062500010330BD054E9097554F81C8C16F01DFA54
:1062600000284FD02E48214616F0FAF902B0BDE8BA
:10627000F08143F00403236154F82C1C01AB304639
:1062800013F050FA10B16FF01503DDE7019A54F8DE
:106290002C3C134444F82C3C54F8283C9B1A44F8FA
:1062A000283C54F8243C134444F8243CCEE754F8EA
:1062B0002C1C01AB304604F08FF90028E3D1019D7E
:1062C00054F82C3C2B4444F82C3C54F8283C5B1BE1
:1062D00044F8283C54F8243C2B4444F8243C002D3A
:1062E000B1D0304604F01CFAB5FBF0F303FB1055B7
:1062F000002DA8D154F8283C002BA4D0304604F03F
:10630000B3F9A3E744F8200CA4F118000CF0FEFC4C
:10631000002DABD0424639463046A847A6E700BF1D
:10632000081500204B1E012B73B506460D460FD8ED
:10633000FFF762FF044668B9012D09D101AB0122C4
:106340000DF10301304604F047F9019B002BF5D114
:1063500002B070BD16F0A1F904F1340108B1012DAD
:1063600005D1084602B0BDE87040FFF75BBF0348A7
:1063700002B0BDE8704016F073B900BF08150020E8
:106380002DE9F74F804600911746994613F012FA0F
:10639000044600285DD14FF04003EFF3118B83F3E7
:1063A0001288BFF36F8F2C49002208460023019109
:1063B0000CF0D2FC019968B9DFF8A0A04822624332
:1063C0000AEB02056E6816F1100F12D108460CF0A8
:1063D0009DFC06E00134042C01F14801E4D16FF08A
:1063E0000B068BF31188BFF36F8F304603B0BDE807
:1063F000F08F0AF802800C9A009B6A610D9A28615E
:10640000AA6140466FF00F02C5E90237C5F8449013
:106410006A6004F085F958B1404604F081F9B7FB91
:10642000F0F202FB10771FB16A6C42F004026A645A
:1064300019F0020F08D0482202FB04A108483431A9
:1064400016F00EF90026CCE7404604F00DF906469A
:10645000C7E76FF00F06C8E79424002078240020D7
:106460000815002010B54FF04003EFF3118483F3BB
:106470001288BFF36F8FFFF7BFFE50B14368103330
:1064800007D16FF08B03436000F13401034816F02D
:10649000E7F884F31188BFF36F8F10BD0815002053
:1064A00070B50F4C04254FF04003EFF3118683F3D2
:1064B0001288BFF36F8F6368103307D16FF08B03BF
:1064C0000848636004F1340116F0CAF886F31188B5
:1064D000BFF36F8F013D04F14804E4D170BD00BFEC
:1064E000782400200815002070B50A4C0A4E0025BB
:1064F0003146204616F097F80122A4F11800114603
:10650000013516F040F8042D04F14804F0D10020C4
:1065100070BD00BFAC2400202562000070B50446A9
:106520000E4601791548154613F020F910B394F979
:1065300000206378002A16DB202B04D0222B0ED0FB
:106540006FF085000AE02B681A6840F8102C9A88D2
:1065500020F80C2C9B7900F80A3C002070BD638861
:1065600000F8093CF9E7212BEAD11038072328600D
:106570003360F2E76FF01200F0E700BF98250020CB
:1065800008B50146034813F0FFF810B1012300F8E5
:10659000073C08BD982500200169012381F84B3094
:1065A0000B6833B191F849301BB10248083116F03D
:1065B00057B87047081500200169012381F84A3057
:1065C0000B6833B191F848301BB10248083116F01E
:1065D00047B870470815002070B5012382F848308D
:1065E00013680D4614463BB192F84A3023B10E4869
:1065F00002F1080116F034F8D4F890309A681B695B
:106600009A4205D17DB904F1180140F6CD4204E06B
:1066100004F11801002DF8D00022BDE870400248B6
:1066200000230CF01BBD70BD0815002038B50569AE
:1066300095F89E0088B195F89F307BB985F8483071
:10664000D5F8900012F0EBFF002204460023044826
:1066500005F118010CF002FD204638BD0020FCE7D2
:10666000081500200D4A03460021A0F848101068C4
:10667000C3F8940090889279A3F8980083F89A2040
:1066800083F89C1083F89B10A3F89E1083F8A01049
:10669000402203F14C0016F0EEBE00BF50D70100BF
:1066A000F0B5D0F88C305B681B6A1F7D85B004465E
:1066B000384613F07FF80646F8B994F88630E3B10F
:1066C000A06F4FF4806203A912F0C8FF0546A0B185
:1066D0008306A4F1180308BF00F1FF3584F8306089
:1066E0000193074B039900932A4602233846FFF78C
:1066F00047FEA06F294612F0D1FF05B0F0BD00BFE4
:10670000D965000010B504690023C4F8A8300C4B0B
:10671000C4F8A400596804F1A80269B9C3E90022C9
:1067200004F10800074915F07EFF04F1180006493E
:1067300015F0A7FF002010BD0A605A60F0E700BF07
:1067400098250020DF970100A166000030B54FF4C6
:106750000033426805690D4C85B042F2A100CDE9D5
:106760000103002385F89D30106AADF80C10007904
:106770000A2201A912F0D6FF95F89D3023B9012015
:1067800015F08BFD013CF7D105B030BDA1860100AD
:1067900013B504698DF80710002384F84830D4F845
:1067A000900001220DF1070112F039FF10B915F028
:1067B00074FF40B12122002304F1180106480CF0B7
:1067C0004DFC02B010BD94F8A130002BF2D0002196
:1067D00021200DF027F8E2E70815002037B5144610
:1067E0000A1E054620DDD4F88C0004F14C0112F09D
:1067F00016FF012384F8493023683BB194F84B30ED
:1068000023B1114804F1080115F02AFFD4F88C10C7
:106810004B684A699A1ACB699B1A3F2B04D801230B
:1068200084F8A03003B030BD94F89E30002BF9D02E
:10683000064B009301940123402204F14C012846A9
:10684000FFF79EFDEEE700BF08150020DD670000A2
:10685000F7B50D4601461D4812F07CFF044610B303
:106860000646691E56F8A4395F6805291BD8DFE87B
:1068700001F01C1A031C222610F8061C99B90123EA
:1068800000F8063C3B6A3246187BFFF7A7FF14F876
:106890005C2C42B93B6A187D0D4B00930196022394
:1068A0001146FFF76DFD03B0F0BD304603B0BDE803
:1068B000F040FFF7D7BE012304F8053CF3E710F8DA
:1068C000053C002BEFD00023F6E700BF9825002001
:1068D000D965000037B5094D0949002400944FF0EF
:1068E000FF334FF4806228460CF080FB05492846B0
:1068F0000CF018FC204603B030BD00BF0815002086
:106900008053002085E5010008B5034A034B0821A8
:1069100013F017FA002008BD95E501008EE501008F
:1069200010B5044606F008F9084A03460821204637
:1069300013F007FA064A2046082113F002FA054828
:1069400021460DF067F8002010BD00BF2AE60100C7
:1069500049E601005969000070B58EB004460D4645
:10696000D0F89C6015F09FFE024616F095FD254B71
:106970001958254B002A18BF1346CDE90043234A76
:10698000234B28468C4218BF1346224A082113F095
:10699000D8F9D4E90A23CDE9022394F90E30009303
:1069A000237B1D4A2846082113F0CBF906A9202293
:1069B00020460CF0C7FB626E00920346174A08217E
:1069C000284613F0BEF905A9204615F07CFE0346C3
:1069D00030B1134A0821284613F0B3F90EB070BD48
:1069E000059A6423B11ACDE900214B430D4AB3FB4C
:1069F000F6F30821CDE902632846334613F0A1F9E6
:106A0000ECE700BF0800000055E60100ADEE010014
:106A100053E6010058E6010064E6010090E601003B
:106A2000A7E60100D4E60100F0B5002593B00446C6
:106A300029460AAF1C220BA816F01DFD144E1A227F
:106A40002021384616F017FD214612480CF0E2FFCF
:106A500009AA4FF40061304615F029FE0999642215
:106A6000C1F5006042434FF40063D20ACDE904034C
:106A7000CDE9023106922046CDE90057064AA6F13B
:106A80004003082113F05DF9284613B0F0BD00BFA4
:106A9000C06800200D6B00000BE7010010B5044634
:106AA00014F046FD034A03460821204613F049F935
:106AB000002010BD54E7010073B513460022019277
:106AC000044601AA58680A2101F000FC019D95B90D
:106AD00020EAE0744FF40046294640F2E7304FF4D4
