:1000000000000420B5020000DD020000DF02000055
:10001000E1020000E3020000E50200000000000031
:10002000000000000000000000000000E7020000E7
:10003000E902000000000000EB020000ED020000F9
:10004000E588000079190000EF020000EF020000CF
:10005000EF020000EF02000001860000EF02000046
:10006000EF020000EF020000EF020000EF020000CC
:10007000EF020000EF020000EF020000EF020000BC
:10008000EF0200006D3E0000EF020000EF020000F2
:10009000093F0000EF020000EF020000EF02000045
:1000A000EF020000EF020000EF020000EF0200008C
:1000B000EF020000EF02000000000000000000005E
:1000C000EF020000EF020000EF020000EF0200006C
:1000D000A9300000EF020000EF020000C597000009
:1000E000EF020000EF020000EF020000000000003D
:1000F00000000000EF02000000000000EF0200001E
:1001000000000000000000000000000000000000EF
:1001100000000000000000000000000000000000DF
:1001200000000000000000000000000000000000CF
:1001300000000000000000000000000000000000BF
:1001400000000000000000000000000000000000AF
:10015000000000000000000000000000000000009F
:10016000000000000000000000000000000000008F
:10017000000000000000000000000000000000007F
:10018000000000000000000000000000000000006F
:10019000000000000000000000000000000000005F
:1001A000000000000000000000000000000000004F
:1001B000000000000000000000000000000000003F
:1001C000000000000000000000000000000000002F
:1001D000000000000000000000000000000000001F
:1001E000000000000000000000000000000000000F
:1001F00000000000000000000000000000000000FF
:1002000010B5054C237833B9044B13B10448AFF350
:1002100000800123237010BD300200200000000088
:1002200054D8000008B5034B1BB103490348AFF392
:10023000008008BD000000003402002054D80000F7
:10024000154B002B08BF134B9D46A3F5803A0021A8
:100250008B460F461348144A121A09F06AFF0F4BD7
:10026000002B00D098470E4B002B00D09847002061
:10027000002104000D000D48002802D00C48AFF307
:10028000008009F0DBFE2000290009F0F1FC09F0F4
:10029000AFFE00BF000008000000042000000000C6
:1002A0000000000030020020F042022000000000A8
:1002B000000000000649074A074B9B1A03DD043B78
:1002C000C858D050FBDC09F095FDFFF7B9FF0000DE
:1002D000D8D800000000002030020020FEE7FEE732
:1002E000FEE7FEE7FEE7FEE7FEE7FEE7FEE7FEE7E6
:1002F000074B1B5C1F2B86BF03F01F0305494FF004
:10030000A041012202FA03F3C1F80835704700BF8B
:100310007CBC00000003005008B50020FFF7E8FF98
:100320000120FFF7E5FF0220FFF7E2FF0320BDE811
:100330000840FFF7DDBF00000A4B185C1F288ABF8A
:10034000094B4FF0A04300F01F00D3F80425012112
:10035000814021EA02000A40C3F80805C3F80C25D1
:10036000704700BF7CBC000000030050C20710B5FE
:1003700004460CD54FF0A0430322C3F83427C3F83A
:100380003827C3F83C27C3F84027FFF7C5FFA3076A
:100390000AD54FF0A0430C22C3F82C27C3F830270E
:1003A000C3F86027C3F8642710BD07B501A803F0A0
:1003B00067FA20B90190019803B05DF804FB019B36
:1003C000002BF8D101230193F5E738B5044602F07C
:1003D00013FF0546204602F015FFA54203D0BDE8F5
:1003E000384003F012B838BD02F006BF08B500F07F
:1003F0008DF901F047F900F0C5F901F089FE02F02E
:1004000083F802F097FE02F027FD02F0A7FE02F04B
:10041000E9FF02F0EBFF02F0FAFF03F03BF903F013
:10042000BBF803F0B9F903F0D9F903F0DBF9BDE843
:10043000084003F0A3BB012002F0D9BF0123002232
:100440001146184602F0D5BF08B590F8803033B198
:10045000074B084A40F2B711074809F0A7FD02F020
:10046000D2FF20B9054B034A40F2BD11F4E708BDA5
:100470009BBC000080BC0000B3BC00006BBE000051
:1004800002F09ABE02F0A8BE704770B504460D4651
:100490001646FFF78AFF324603462946204609F0F2
:1004A000B3FB70BD7047704711B10846FFF7CCBF72
:1004B0007047F7B5054616461F460C4651B1FFF783
:1004C00074FF00903B46324621462846FFF7ECFF7A
:1004D00003B0F0BD0846F4E77047704770477047B7
:1004E000704700002DE9F0478A4642B1012A0ED03C
:1004F0002A4B2B4A2B484FF49B7109F057FD2A4A8F
:10050000002B45D1966E4FF0020C013231E0274AA4
:1005100053BBD2F818614FF00B0C2AE0AEEB070486
:1005200094FBF8F43C44A6422AD904FB0CF502EBF8
:10053000050963B155590168A9420DD305D8D9F809
:1005400004504168A94207D309D9671C16E0B0F8E6
:100550000090555BA945F6E704F1FF3E0EE0CAF8AE
:1005600000400120BDE8F087D2F81C614FF0110C6B
:100570006E320024B64627464FF00208BE45CDDA5B
:10058000631C9F4208BF1C46CAF800400020E9E7F0
:10059000D66E4FF0080C1532EBE700BFADBC000083
:1005A000FEBC00000EBD00006C0300204C020020C9
:1005B00037B503460D46144680B10B46012201A90A
:1005C000FFF790FFA0B101980B4B55B100EB001065
:1005D0001A18763092F87E2022700344184603B031
:1005E00030BD0B2250431A180230927A2270F4E781
:1005F00020700346F2E700BF4C02002008B502F06D
:10060000BDFABDE8084001F0B3BF000008B543786B
:100610009B06024605D40C4B0C4A0D48502109F0AC
:10062000C5FC837803F03003102B02D0202B05D0BB
:1006300043B91046BDE8084002F0B4BABDE808402E
:1006400001F098BF002008BD9DBD00007DBD0000E9
:10065000CBBD00002DE9F74F01939BB1224C2678CA
:1006600008274FF0000875B2C6464FF0020CAE45A1
:100670000CDD08F10103734508BFF04682F80080E5
:1006800000202EE0194C02272678EAE7A5EB0E049D
:1006900094FBFCF47444E4B24FFA84F8B045E8DA11
:1006A000019B18FB07FA01EB0A097BB151F80AA07C
:1006B0000368534510D305D8D9F8049043684B45D7
:1006C0000AD30CD901344FFA84FED0E7B0F800B059
:1006D00031F80A90CB45F3E7013C65B2C7E71470E7
:1006E000012003B0BDE8F08FDC030020DD03002013
:1006F000134622B10A4603490123FFF7ABBF0A465E
:100700000149FAE7DE0300202E040020044B0122F9
:100710001A70044A00231370034A1370704700BF15
:1007200042040020DC030020DD03002007B5144B49
:100730001A7801460AB3837803F00C00082805D024
:100740000C2815D0104603B05DF804FB01F1080039
:10075000497803F0C003490658BF0230802B0AD005
:10076000C02BEFD10DF10701FFF7C2FF0246E9E709
:1007700001F10E00ECE70022F4E70122E2E700BFFE
:100780004204002007F0CABD014807F009BE00BFBF
:100790000000002007F02EBE014807F0D7BD00BFC3
:1007A0000000002008B510B902F060FF08BD012864
:1007B000FCD102F073FCF9E700F1804000F58050B5
:1007C000002382B0036003680193019B02B070476D
:1007D000034B186808B190F8800000F001007047E2
:1007E0005004002008B5FFF7F3FF08B1014B18686B
:1007F00008BD00BF5004002000BF00BF00BF00BF05
:1008000000BF00BF70470000134B144AC3F84825CF
:1008100000F1804000F58050C3F84C0521B102F58D
:10082000FD424832C3F82C290D4AC3F8402502F591
:10083000AF3202F59672C3F8442529B1D3F80028E7
:1008400042F08002C3F80028034B8022C3F804253D
:100850004022C3F80425704700F001403C7101407C
:1008600010110040034B1B781BB1034B1022C3F83F
:1008700008237047490400200010004010B50446CA
:1008800002F0DEFEC00902280B4A11D9811EE309DD
:100890008B4233BF0021A4EBC114C31E116028BFDB
:1008A0001460064AC3F31403C2F86436012010BD75
:1008B00014600020FBE700BF44040020001000404B
:1008C00013B51F4C01A802F0B7FCD4F86C269DF8B4
:1008D000043022F00702C4F86C26D4F86C261343C7
:1008E000C4F86C369DF8050002F04EFFD4F86C3663
:1008F00023F47F43C4F86C36D4F86C3643EA002006
:10090000C4F86C06D4F86C269DF8061022F47F0219
:10091000C4F86C26D4F86C3643EA0143C4F86C364C
:10092000D4F86C269DF8071022F07F42C4F86C269C
:10093000D4F86C3643EA0163C4F86C3602B010BDDB
:100940000010004008B502F07FFF002002F0A8FE72
:10095000014B00221A7008BD4904002008B5037835
:10096000184410F8010C02F001FF00B28000FF28CB
:1009700028BFFF20C0B208BD38B5074B1C6805462C
:100980000146204601F09AFB28B129462046BDE8E1
:10099000384002F0D8BB38BD5404002010B50446DE
:1009A00001F0D6FC204602F0C9FBBDE8104001F082
:1009B000BBBB000008B5084BD3F8503513F0FF0F50
:1009C00007D1FFF719FF054B1868003018BF012049
:1009D00008BD0120FCE700BF001000403C71014051
:1009E000164B17484022C3F808258022C3F8082573
:1009F0004FF48072C3F80825D3F80028002122F0B4
:100A00008002C3F80028C3F82C19A3F5AF33A3F56F
:100A1000F87301221A60D0F8003223F4A063C0F802
:100A20000032084B1B783BB1074B4FF45050C3F8D2
:100A30000803C3F800121A61704700BF00F00140BC
:100A4000009000404904002000100040134B402259
:100A5000C3F808258022C3F808254FF48072C3F834
:100A60000825D3F8002822F08002C3F800280022CD
:100A7000C3F82C290A4B1B7873B10A4B0A21C3F81F
:100A800008130949C3F8002201200860C3F844266E
:100A90004FF4AE70FFF790BE704700BF00F001400A
:100AA000490400200010004010100040114B40226B
:100AB000C3F808258022C3F808254FF48072C3F8D4
:100AC0000825D3F8002822F08002C3F8002800226D
:100AD000C3F82C29084B1B785BB1084B4FF400413D
:100AE000C3F80813C3F80022054A0123136042F833
:100AF000183C704700F001404904002000100040FD
:100B000028100040114B4022C3F808258022C3F86A
:100B100008254FF48072C3F80825D3F8002822F086
:100B20008002C3F800280022C3F82C29084B1B7848
:100B30005BB1084B4FF4C021C3F80813C3F800227F
:100B4000054A0123136042F8203C704700F0014041
:100B500049040020001000403010004008B5A0F10A
:100B60000B030F2B06D9074B074A084840F2D71151
:100B700009F01CFA0A38064B00EB8000C3F80805A0
:100B800008BD00BF17BF0000DCBE000036BF00007C
:100B900000100040174B10B54022C3F808258022F2
:100BA000C3F808254FF40072C3F808254FF480728B
:100BB000C3F80825D3F80028002422F08002C3F8E7
:100BC0000028C3F82C490C4B1B7893B102F020FC91
:100BD000A04214BF4FF000630823084A43F4802367
:100BE00043F00203C2F808330123C2F80042136342
:100BF000136110BD00F001404904002000100040C6
:100C0000044B002282B01A601B680193019B02B062
:100C1000704700BF3C71014010B5144B1B7804466F
:100C2000F3B1AE2002F0F0FCD0B1114A4FF42053E2
:100C3000C2F800324FF4A470FFF7BEFD4FF4A2706B
:100C4000FFF7BAFD4FF4C023C2F80433FFF7D8FF13
:100C500001210420FFF7D8FD1CB9064B01221A60C0
:100C600010BDFFF7A7FE0028F7D0F9E749040020E0
:100C7000001000401010004038B54A4B1B78044665
:100C8000002B00F08780484A137803F0FC036FF3D1
:100C90008203137002F0BEFA444AC0B2C2F80C05D7
:100CA000FFF796FD0546002875D0FFF79BFD404BEA
:100CB000C2F80405C2F800321823C2F860354FF4B8
:100CC0009A70FFF779FD4FF49470FFF775FD4FF4BC
:100CD0009870FFF771FD37494FF45053C2F8043351
:100CE000D1F8003243F4A063C1F800320123C1F807
:100CF00040358223C1F844358323C1F84835FFF7D6
:100D00007FFF2D4B2D482E4AC3F84825C3F84C05CC
:100D100000F5F030C3F82C09C3F85025C3F854157A
:100D2000D3F8002842F08002C3F80028254AC3F80F
:100D3000402502F5AF3202F59672C3F844258022B1
:100D4000C3F804254FF48072C3F80425A0F5EF30F2
:100D50004022C3F80425D43802F07EFDECB91A4BCA
:100D600001221A60B5B902F027FD184B1860FFF791
:100D70002FFD78B1FFF736FD0C4B0D4AC3F8040583
:100D8000C3F80022D3F85035DBB2022B02BF104B60
:100D900001221A6038BD52238CE7FFF70BFE0028B2
:100DA000DDD0DFE7490400204804002000100040A7
:100DB000520008000090004000F001400410004084
:100DC0003C71014010110040101000405004002000
:100DD0000810004010B5124B1B780446CBB1114BE4
:100DE0001868FFF74BFDA0B10F4A4FF40041C2F85D
:100DF00000124FF49E70FFF7DFFCC2F80413FFF7F8
:100E0000FFFE01210420FFF7FFFC1CB9074B012264
:100E10001A6010BDFFF7CEFD0028F7D0F9E700BF3C
:100E2000490400204404002000100040101000403D
:100E300008B5064B1B7833B102F002FC3B2894BF87
:100E40000020012008BD0120FCE700BF490400206C
:100E500010B501F005FA044628B1FFF7E9FF044692
:100E600008B901F013FA204610BD000016494023CE
:100E700010B5C1F8083518B1144B5222C3F800223E
:100E8000134B144A01241C608023C1F804351378E5
:100E900003F0FC036FF382034FF494701370FFF7B9
:100EA0008BFC0A4B1822C3F86025FFF7A9FE4023EC
:100EB000C1F80435084802F0CFFCFFF77BFD08B904
:100EC000064B1C6010BD00BF00F001400010004048
:100ED00010900040480400203011004010100040E5
:100EE00038B50A4B0546D3F8480500F07F0002F0FC
:100EF00036FC04462846FFF731FD614242B249B252
:100F00002846BDE8384002F016B900BF0010004086
:100F1000F8B505460F46164601F0BAF8044680B10A
:100F2000524B1B78092B00F29780DFE803F0050C89
:100F30000F2262626C707982022F02D0042002F0CC
:100F4000AFFB2046F8BDFFF78DFCFAE7484B1B7856
:100F50005B070BD5002D00F08680FFF741FD002ECA
:100F6000EFD0062002F0EAF83446EAE7FFF738FD52
:100F7000E7E7002D77D03F4B4022C3F808258022B9
:100F8000C3F808254FF48072C3F80825D3F8002869
:100F9000002722F08002C3F80028C3F82C79A3F5BB
:100FA000AF33A3F5F873344A01251D60D2F800323F
:100FB00023F4A063C2F80032304B1B787BB102F0FF
:100FC00027FAB8422E4A14BF4FF00063082343F0BB
:100FD0000203C2F808332B4BC2F800721D60002ECA
:100FE000AFD0294B1868002380F88030FFF778FFD6
:100FF000BAE7002D37D0FFF7CDFD002EA1D0062097
:10100000FFF7BAFC9DE775B3FFF720FDF5E755B391
:10101000FFF74CFD002E94D0012002F098F8A3E7D2
:101020000DB3FFF76FFD002E8BD0012002F093F877
:101030009AE7104B4022C3F808258022C3F8082500
:101040000E4B1B7803F0FF02002B3FF47AAF0D4BE1
:1010500001211960144674E70C4B0D4A0D4840F20B
:101060001D5108F0A3FF2C466BE700BF4A04002087
:101070004804002000F00140009000404904002096
:10108000001000401010004050040020ADBC0000D3
:10109000E8BE000036BF000010B5044601F058F964
:1010A0002046FFF71DFFBDE8104001F03DB80000ED
:1010B000F8B5384B1B7807460C4615460BB900208F
:1010C000F8BD00787B7840019B0654BFEE3000F2FB
:1010D0004E4009B1A83080B202F096FA06460028C8
:1010E000EDD002F097F82C4BC0B2C3F80C05C3F852
:1010F00004751F46002C37D002F08AF9002814BF6F
:101100004FF48013022343F48723C7F8003202F020
:101110007FF998B34FF4B670FFF74EFB4FF00062C3
:101120002CB14FF4A470FFF747FB42F480224FF438
:101130008270FFF741FB194B19786FF3C3011970E7
:10114000154B42F00202C3F80423FFF759FD002CAF
:1011500014BF042000200121FFF756FBA5B9104B56
:1011600001221A603046ABE702F052F9002814BFA2
:101170004FF48013022343F48023C6E74FF48670B4
:10118000FFF71AFB0822CBE7FFF714FC0028E6D094
:1011900096E700BF490400200010004048040020EA
:1011A000101000402DE9F041334E344D344C4FF0D7
:1011B000400852232768C5F80885C6F8003218236E
:1011C000C6F8603502F024F9002814BF4FF0006320
:1011D000082343F00203C6F808334FF49A70FFF770
:1011E000EBFA4FF49470FFF7E7FA4FF49870FFF7BB
:1011F000E3FA4FF45053C6F80433224B01261E6025
:101200004FF40073C5F808358023C5F80435FFF79F
:10121000F7FC1D48C5F8048502F01EFBFFF7CAFB6A
:1012200008B91A4B1E602368002283F8802002F060
:10123000C3FA2060FFF7CCFA78B1FFF7D3FA0E4B70
:10124000134AC3F80405C3F80022D3F85035DBB2C3
:10125000022B02BF0F4B01221A600F4B02221A70A1
:101260000E4A137803F0FC036FF3820313703846C1
:10127000BDE8F041FFF710BF0010004000F0014052
:101280005004002010900040301100401010004029
:1012900052000800081000404A04002048040020C2
:1012A000F8B54D4B1B781B077BD54C4D4C4F2B682D
:1012B0005C78C4F340142E46002C76D0FFF788FAF1
:1012C000484A494B4021C2F80815041EA2F5F032E5
:1012D00008BF1223C2F8003203D0FFF783FAC2F826
:1012E000040502F095F800285CD04FF48670FFF7F3
:1012F00063FA3E4B08223E494FF48270C1F808332E
:10130000FFF75AFA42F00202C1F8042335494FF4BC
:101310000073C1F80835374BC1F84835A3F5B03331
:10132000A3F59C73C1F84C3503F5F033C1F82C39A3
:10133000FFF766FC8023C1F804354023C1F804356B
:1013400006233B70FFF736FB10B92B4B01221A60C6
:10135000B4B902F031FA294B1860FFF739FA78B1C5
:10136000FFF740FA224B204AC3F80405C3F80022D5
:10137000D3F85035DBB2022B02BF214B01221A6099
:101380003268937803F03003202B0AD04FF4AE700C
:10139000FFF712FAD378164A1B0643F40073C2F81B
:1013A0004436F8BD0246174BA5E7FFF7F3FB0223CF
:1013B00001203B70FFF760FC2D6800F0C9FF284654
:1013C00000F07AFE234622462146284601F0B8FE68
:1013D000BDE8F84000F0A8BE4804002054040020F6
:1013E0004A04002000F00140120008000200040836
:1013F000001000403C7101401010004050040020DB
:101400000810004002000400F8B50446002800F06F
:10141000C18002F015F93B2840F2B680894D2B7847
:1014200003F0FF06002B40F0AF80874C01270F230D
:10143000C4F8FC6FC4F8FC7FC4F81035D4F8143538
:1014400023F00F03C4F81435D4F8143543F008031F
:10145000C4F81435D4F8143523F04073C4F81435A7
:10146000D4F8143543F00073C4F81435D4F81435A7
:1014700023F08063C4F81435D4F8143543F0806346
:10148000C4F81435D4F8183523F0FF03C4F8183520
:10149000D4F8183543F07F03C4F81835D4F8503623
:1014A00023F00103C4F85036D4F850363B43C4F857
:1014B0005036D4F8343523F00303C4F83435D4F867
:1014C000343543F00203C4F83435D4F8343523F40A
:1014D0004073C4F83435D4F8343543F40073C4F899
:1014E00034355A4BC4F83835FFF7EAF9584BC4F88D
:1014F0004466C4F8483601F07FFEFFF72FFB554BDA
:10150000022283F80163C3F88021D4F8003233B19A
:10151000514B524A40F28F61514808F047FD514CFF
:10152000227812B12F7002F081F92378092B2CD880
:10153000DFE803F02A2B052B0A122B151A1F0020B7
:10154000BDE8F840FFF798BB00220121464B186820
:10155000BDE8F840FFF7ACBD00221146F6E70020D9
:10156000BDE8F840FFF736BC0020BDE8F840FFF7C3
:1015700053BB2B7843B1FFF743FB00210846FFF72D
:1015800043F93A4B01221A60F8BD394B334A40F215
:10159000B761C1E72B4A137873B32E4B0225C3F80A
:1015A0008050C3F8805183F80103BFF34F8FBFF31E
:1015B0006F8F254B0126C3F8FC0FC3F8FC6F10702A
:1015C00002F042F9224629463046FFF7A1FC20B935
:1015D000284B294A40F2CE619EE7224B1A78092A0D
:1015E0002AD8DFE802F009050D151F1F1F09090998
:1015F00000221A70FFF7A6F9BDE8F84002F002B821
:101600001E4B1B785B07F7D50520FFF7C7F9F3E7FB
:1016100002221A701A4B1868002380F88030FFF7F6
:101620003BFDE9E702221A7000F092FE0420FFF76A
:10163000A3F900F079FDDFE70D4B0F4A40F2F961A5
:101640006AE700BF4904002000100040211001009B
:10165000000700FF00E100E0D2BF000004BF00006F
:1016600036BF00004A04002054040020101000403F
:10167000ADBC00006BBE000072BE0000480400203C
:10168000500400200D4A002313700D4A13700D4BB7
:10169000D3F8042522F00302C3F80425D3F8082563
:1016A00022F00302C3F80825D3F8102522F00F0218
:1016B00042F00402C3F81025FEF7A0BF4A04002040
:1016C0004904002000900040F8B5044600F0C8FD31
:1016D0000646F0B11E4D2B780BB9344616E02B7838
:1016E000012BFAD0FFF7A4FB40B30122204611469C
:1016F000FFF70EFC044648B101232B70154B1B78F5
:1017000003F0FF0733B92F70FFF71CF900F0BEFD9F
:101710002046F8BD4FF48870FFF74EF80E4B1022AC
:10172000C3F80423D3F8501511F0FF01D5D1FFF70A
:1017300099F83C462970FFF705F9E7E7064B0122C7
:10174000C3F8FC0FC3F8FC2F2870FFF7FBF8C4E7C1
:101750004A04002049040020001000402DE9F8430D
:10176000074688461546994600F07AFD044600B3C0
:10177000124E3378022B09D03378032B06D0FFF7B3
:1017800057FB40B900240DB12046A84700F07EFD6C
:101790002046BDE8F8834A4641463846FFF7B8FB85
:1017A00004460028EED0022301203370FFF764FACC
:1017B000E9E7002DECD0A847EAE700BF4A04002083
:1017C0002DE9F047099D9DF8209006468A469046EF
:1017D0001F46FFF73DFB044628B301225146304621
:1017E000FFF796FB044640B900240DB12046A847F8
:1017F00000F04CFD2046BDE8F0870D4E022333700B
:101800000C4B012239464046C3F80080FFF750FCDC
:10181000B9F1000F01D00028E6D0002F14BF042337
:1018200005233370E1E7002DE4D0A847E2E700BFCD
:101830004A0400205404002010B50446FFF708FBBA
:10184000012184F8801058B1204B1B7833B1204B14
:101850001B78DBB2022B05D0062B20D000F016FD42
:10186000012010BD1B4AD2F85035DBB2022BF5D156
:10187000D2F80032522B06D0174B184A40F69F314F
:10188000174808F093FB174B1C60FEF7ABFF164B95
:10189000C2F80405C2F80032144B1960DEE70D4AA5
:1018A000D2F85035DBB2022BD8D1D2F80032122B4D
:1018B00004D00F4B094A40F6AE31E1E7094B1C60FA
:1018C000FEF790FF0B4BC2F80405E3E74904002044
:1018D0004A0400200010004086BF0000B9BE00008E
:1018E00036BF0000500400205200080008100040DD
:1018F000AABF00001200080010B5FFF7A9FA0446BD
:10190000E0B11A4B1B78023B072B15D8DFE803F038
:101910000424242424142418154B1B781BB101F033
:101920006BFCFFF71BF9012211460020FFF7F0FACC
:1019300010B10120FFF7A0F900F0A8FC204610BD6F
:101940000B4B1B78002BF7D001F056FCFFF706F984
:10195000084B01221A60EFE7054B1B78002BEBD0F8
:1019600001F04AFCFFF7FAF8E6E700BF4A0400205E
:1019700049040020101000402DE9F0438DB000F024
:1019800073FC8E4BD3F808339A071DD58C4B1B681C
:10199000D3B14FF48270FEF70FFF8A4B1B78033BE5
:1019A000032B39D8DFE803F030020235864B1C6880
:1019B000204600F097FB10B12046FEF774FD834AE5
:1019C000137843F008031370DFF8F081D8F8083378
:1019D0005B054AD57E4B1B68002B46D04FF49470B4
:1019E000FEF7EAFE774B1B78022B40F0CF80D8F849
:1019F0006055C5F3C705022D8DF8185013D8754BE7
:101A0000754A40F231710BE0744B1868FEF73CFDEB
:101A1000DAE700F07BFBD7E7714B724A40F6DB1147
:101A2000714808F0C3FA714B1B68F3B9674C23780F
:101A300013F0010675D0012623789F0715D4A6B1AF
:101A40006B4B1B6818785B7840019D0654BFC03013
:101A500000F5387001F0D8FD002800F0918023785F
:101A600043F00203237000F04FFB544BD3F80833CC
:101A7000980412D55D4B1B687BB14FF49A70FEF74A
:101A80009BFE504B1C78E4B2022C40F08480002076
:101A9000FFF7ECF92046FEF781FF484BD3F80833F7
:101AA000D90440F11781534B1B68002B00F01281C1
:101AB000444D4FF49870FEF77FFE2B78022B40F0D8
:101AC0003E81424E4A4C32782768D20768D5337837
:101AD000DB0700F195800120FFF7C8F97B7803F060
:101AE0000703022B00F019812368002283F880206D
:101AF00001F062FE2060FEF76BFE002800F0CE8051
:101B0000FEF770FE2D4B3C4AC3F80405C3F80022D3
:101B1000D3F85035DBB2022B02BF384B01221A60DA
:101B2000BCE0334F43F0040306A93868237000F08B
:101B300027FE814660B99DF818309D4203D0DB0036
:101B4000C8F8603577E7237843F00103237072E724
:101B500009280FD1FEF744FF0120FFF78DF83B68FD
:101B60005B7803F00703022B3FF466AF4846FEF7AD
:101B700015FF61E701F018FB00287FF45CAFE9E78F
:101B8000FEF72EFF052001F0D9FA6EE7144B154A37
:101B90004FF41F6144E7124B124A40F606213FE71B
:101BA00001F002FB002892D1FEF71AFF0120FFF797
:101BB00063F80420FEF7F2FE8CE000BF0010004046
:101BC000041100404A04002054040020480400206E
:101BD000281100403FBE000083BE00004C040020DE
:101BE000ADBC0000ADBE000036BF000034110040A7
:101BF000500400203011004052000800081000403E
:101C000023685B789E067FF566AF01F0DDFA002859
:101C10003FF461AF2068FEF7F9FCA04B1860002884
:101C20003FF459AF9E4EC6F8040501F0F1FB0028C1
:101C30000CBF02234FF4801343F48023C6F8003214
:101C40004FF4AA70FEF7B8FD964A974B4FF4007117
:101C50004FF00108C3F85825C3F85C65C3F80415B4
:101C600042F8F88CD2F80804A2F5A272D2F8442502
:101C7000904217D3FEF7C0FDD6F85025D2B2092AFC
:101C800010D08A4A12686AB9206880F88020C3F8A8
:101C90000815FEF7A5FE4046FEF7EEFF3846FFF7B3
:101CA000FBF917E003237E4C2B704FF45053C4F81C
:101CB000083301F0ADFB50B34FF4B670FEF77CFD76
:101CC0004FF000624FF48270FEF776FD42F00202A0
:101CD000C4F8042301F09CFB002837D0704BD3F8E4
:101CE00008331D0132D5724B1B687BB34FF4B670BD
:101CF000FEF762FD6F4B1B78DBB2032B24D001D3C0
:101D0000052B39D96C4B6D4A40F6332188E64FF4E8
:101D10008670FEF751FD0822D4E701F045FA00284D
:101D20007FF4E2AE5E4B664AC3F80022D3F850352A
:101D3000DBB2022BCED1634B01221A60CAE75E4BA5
:101D40005E4A40F61A216BE6FFF72CFA544BD3F8A3
:101D500008331C0718D55C4B1B68ABB1554D4FF4CD
:101D60008670FEF729FD2B78033B032B00F20481DC
:101D7000DFE803F005616168FFF792FAE6E701F03A
:101D800047FB08B9FFF70EFA454BD3F80833D806DE
:101D900011D54E4B1B6873B14FF48870FEF70CFDE4
:101DA00044490B78012B40F0EC80FEF75BFD0023EB
:101DB0000B70FEF7C7FD3A4BD3F80833990319D5DA
:101DC000434B1B68B3B14FF4A270FEF7F5FC3948E2
:101DD0000378082B40F0DA80FEF794FE02230370AC
:101DE0000120FEF749FF00F0B3FA012001F0B1F93C
:101DF00000F09AF92A4BD3F808335A0340F1D880FF
:101E0000344B1B68002B00F0D3802A4C4FF4A47095
:101E1000FEF7D2FC2378DBB2042B07D3052B4FF05F
:101E2000020540F2B880082B00F0E980224B234ADB
:101E300040F69521F4E501F0EBFA0028A4D1FFF774
:101E40002FFAA1E7244B1B6833B1154BD3F80034AC
:101E5000DBB2012B00F08380204B1868837803F0FD
:101E60003003202B54D11E4B1C68A37803F03003A1
:101E7000202B4DD1637803F00703022B48D1084B88
:101E8000D3F80034DBB2012B42D1694600F0C8FD23
:101E900060BB144B144A40F65611C1E54C040020B7
:101EA000001000404491004000F0014054110040F7
:101EB0006C1100404A040020ADBC0000ADBE000023
:101EC00052000800081000400C11004010110040A2
:101ED00044110040481100405C11004054040020AF
:101EE0005004002065BE000098BE000006A92046F0
:101EF00000F096FD60B1039850B1079941B19DF88B
:101F000015309DF82C209A4202D108F0DFF830B34A
:101F100000263446FEF79AFD022701202F70FEF7B7
:101F2000ABFE1EB34F4BD3F8480500F07F0001F025
:101F300016FC05462046FEF711FD4B4B1E68074672
:101F400000F006FA304600F0B7F86A427BB252B2AF
:101F50002146304601F0F4F800F0E6F814E7434B70
:101F60001C68002384F880300126D3E700F0F0F9E4
:101F70003846FEF701FDEFE73D4B3E4A40F657215C
:101F80004EE53B4B3B4A40F66A2149E5384B394A1E
:101F900040F67D2144E5FEF7FDFD01202570FEF7AA
:101FA0006BFE00F0D5F90120FEF7E6FC00F0BCF86E
:101FB0002C4AD2F808331B041CD52F4B1B68CBB11D
:101FC0002E4D4FF49E70FEF7F7FB2B78072B43D175
:101FD0002B4CD2F868362278DBB2934238BF1346D6
:101FE0002370284B1868E0B1FEF748FC98B1264BE7
:101FF00001221A6000F04AF90DB0BDE8F083FEF747
:1020000081FD01202570FEF737FE00F0A1F90020C8
:1020100001F09FF8CAE71D4B4FF48072C3F8082502
:10202000E8E701F0E9F8FEF799FDFEF73FFD02232E
:1020300001202B70FEF720FE207801F09EFB00B2FD
:10204000840000F085F9FF2C28BFFF24E0B201F0E6
:102050007CF800F069F8CDE7054B064A40F6A82168
:10206000DEE400BF001000405404002050040020B3
:10207000ADBC0000ADBE00003C1100404A04002091
:1020800043040020440400202410004000F00140DC
:10209000F8B5084F05460E46002457F8243033B1F2
:1020A00031462846984718B10134042CF5D1012057
:1020B000F8BD00BFF8BF000001F046B9F8B5084F01
:1020C00005460E46002457F8243033B131462846E1
:1020D000984718B10134032CF5D10120F8BD00BF99
:1020E00008C0000070B5074E0546002456F824309D
:1020F0002BB12846984718B10134032CF6D10120A2
:1021000070BD00BF14C0000000F016BA01F038B96D
:10211000034B00221A70034BFF221A70704700BF56
:102120005B0400205A04002008B50B4B1A781206F5
:1021300006D50A4B0A4A4FF480710A4807F036FF69
:10214000094A127822B9094B054A40F20111F4E715
:10215000FF221A7008BD00BF5A040020E8C1000029
:10216000A4C0000018C200005B04002074C200007C
:1021700008B512494B68C3F30803DBB10F2B06D82F
:102180000F4B104A104840F2171107F00FFF103B99
:10219000DBB25AB2002ABBBF03F00F03043B02F1CB
:1021A00060435B18AABF03F56143187E93F80003F0
:1021B000400908BD4FF0FF30FBE700BF00ED00E035
:1021C00014C10000CDC0000018C2000038B504469C
:1021D0001C4D68B92B785BB1FFF7CAFF1A4B1B780F
:1021E000B0F1FF3F08BF7F205BB240B2834227D1EE
:1021F000D5E84F3FDBB2FF2B05D1144B144A1548ED
:102200007B2107F0D3FE0133DBB2C5E8423F002A51
:10221000EED101F069FA00F05FFE0121084601F0FD
:10222000F5F918B10C4B0222C3F88020BFF34F8F91
:10223000BFF36F8F094A13780133DBB213700124A7
:10224000204638BD5B0400205A04002004C1000071
:1022500020C0000018C2000000E100E05904002086
:102260000020FFF7B3BF000008B50120FFF7AEFF65
:1022700028B9034B034A0448E52107F097FE08BD3F
:1022800073C100004DC0000018C200002DE9F843E2
:10229000254D2B7803F0FF0473B1DFF8B080234E97
:1022A000C14698F80070012CFFB21AD133784BB1B7
:1022B0001F4B204A9E2102E01F4B1E4A95211F48BA
:1022C00007F074FE347001F011FA2146204601F047
:1022D0009DF910B11A4B02221A6000F00DFE002386
:1022E0003370631EDBB2D5E84F2FD2B2944203D0D5
:1022F000144B104AAC21E2E7C5E8423F002AF2D174
:10230000012C0FD101F002FA18B999F800309F4260
:1023100008D00020FFF75AFF0028C2D10A4B054A17
:10232000B921CCE7BDE8F8835B0400205804002005
:102330004EC1000037C0000046C1000018C20000B6
:1023400000E100E061C100006BBE00005904002004
:1023500010B50D4C2378FF2B05D00C4B0C4AF72100
:102360000C4807F023FE0C4B1B781BB90B4B084A9B
:10237000F821F5E7FFF7FCFEB0F1FF3F08BF7F2033
:1023800040B2207010BD00BF5A0400208CC1000074
:102390007AC0000018C200005B04002074C2000074
:1023A00070B508F0F5FA0D4B0D4D1A7801239340E6
:1023B000002690FBF3F404FB13040A4BAB60EE60C1
:1023C00001F0EEFBE3B24FF4A074634328606B604E
:1023D00031462846BDE8704001F008BC5C0400208E
:1023E000600400202524000010B50B4A0B49137827
:1023F0000133DBB213700A78042A9CBF01320A70E1
:10240000032B4FF0000403D8FFF7CAFF204610BD8E
:10241000034B01201C70FAE75E0400205C040020DE
:102420005D04002013B50B4C23788BB10A4B01934C
:102430000A4A0123009312680321002000F0DBFF09
:1024400030B9237823B102B0BDE81040FFF7CCBF0C
:1024500002B010BD5D04002061240000740400205F
:1024600040B9054B1B78022B04D9044B0121186895
:1024700000F069BE704700BF5E04002074040020B5
:10248000012910B506D8064C30B1064801F012FCFF
:1024900000232370012002E0207880F0010010BDAD
:1024A0005D04002060040020054B1B68834204D1BA
:1024B000044B1B780BB1FFF797BF0120704700BF9B
:1024C000740400205D04002008B5094B1B6883429A
:1024D0000BD1084801F0F8FB28B1074B074A084820
:1024E000F82107F063FD074B1870012008BD00BFFD
:1024F000740400206004002036C300009BC200006A
:10250000D6C200005D0400207047000038B5084DB9
:102510006C7844B101B140B1064801F0CBFB002317
:102520006B70204638BD0124FBE70446F9E700BF85
:10253000780400207C04002010B50B4B5B7893B12D
:102540000A4C204601F038FBB0F5965F0BD201F043
:1025500027FB4FF496532060636020460121BDE8BD
:10256000104001F043BB10BD780400207C04002023
:1025700070470000F0B58FB002A9054600F050FA90
:10258000002800F0E5809DF81D10724CA1F10800B4
:10259000414241410DF107020598FEF709F8032277
:1025A00007460021204607F0C4FD637843F002038C
:1025B00063706A7802F00802134328466370FEF7DE
:1025C000B5F818B1637843F0100363706B785B065D
:1025D00048BF6378284644BF43F04003637000F06F
:1025E00006FA18B1A37843F00103A3701FB1A378D2
:1025F00043F00203A370284600F0E9F990B1A378F4
:1026000043F00C03A370A378524843F0200308A9B9
:10261000A37000F005FA70B94F4B504A9B21504807
:1026200007F0C4FC284600F0DAF90028EBD0A378C4
:1026300043F00803E6E79DF836302846013323705F
:1026400000F0D5F908B9EB78E370089B53B1049911
:1026500021B9029911B900F0E3FD01460222089860
:1026600007F043FD059989B1099818B93D4B3E4AD9
:10267000C021D4E79DF834309DF81D209A4203D044
:102680003A4B394AC121CAE707F02FFD0C9B5BB9D1
:102690009DF836002044002F59D000284ED1344BED
:1026A000344A40F24311BAE7069A1AB9324B334A18
:1026B000D321B4E712781A7021784B1C23700C9B3D
:1026C0001A7812F0200204BF05312170069962B118
:1026D00001315D1C1B7803F01803102B24D0182B3C
:1026E00006D0082B22D1012603E005315D1DF1E75C
:1026F00009263246284607F0F8FC23783344237035
:102700000C9B1B7803F007020123934013F0880F02
:1027100011D113F0440F0BD113F0220F02D0237804
:1027200004332370A819B6E70526E2E70026E7E799
:1027300023780833F5E723781033F2E79DF8075044
:1027400039462A4607F0D1FC23781D4425700148FC
:102750000FB0F0BD90040020A8C3000063C30000C8
:10276000B6C300002EC4000075C3000048C40000BA
:1027700093C400009AC3000077C4000085C3000022
:1027800070B50B784478032B8AB006460D4604F0EA
:10279000070456D10378053B7A2B00F2AC8083788E
:1027A00003F03002072C07D8DFE804F00404040427
:1027B00006120909302A02D101200AB070BD012099
:1027C000A04010F02F00F8D0102A03D0202A1BD0F0
:1027D000002AF1D103F00C03082B12D00C2B0FD0E0
:1027E000002BE9D100F000FD08B9002C5ED1B378D0
:1027F00003F0C003802B01D0C02BDDD1062300E005
:102800000E232B700020D8E7072CD5D801A353F84E
:1028100024F000BF352800003528000035280000CE
:1028200035280000B9270000B9270000052800005E
:1028300005280000304600F0DEF8FF28BCD02870E4
:10284000E0E704A900F0ECF80028B5D0049D75B9C4
:102850009DF82450022D2BD0082D3FD0002D43D1C0
:1028600000F0C2FC0028CDD1002CCBD01EE000F03F
:10287000D7FC02220146284607F028FC0028E7D0B2
:102880001E4B02221E88ADF8086002A9284607F0F8
:102890001DFC0028DCD04CB900F0C2FC022201A9CA
:1028A000ADF8046007F012FC0028D1D0032084E7C3
:1028B000059C00F0BDFC2A460146204607F006FCB8
:1028C00000289FD00D4B1B88ADF80C302A4603A979
:1028D000204607F0FBFB0028E8D193E7059C00F0B9
:1028E000A3FC2A460146F3E7054B064A06484FF487
:1028F000D97107F05BFB09205FE700BFA4C40000AB
:10290000ADBC0000A6C40000B5C40000837803F08D
:1029100030021F2A05D913F0010F0CBF0420032039
:10292000704704207047837803F0C003802B06D0E3
:10293000C02B06D0002B0CBF0020FF2070470220C8
:1029400070470820704700008378024A03F00C03A8
:10295000D05C704714C500008278437812F03001D3
:102960004FEAA31302F00C0001D0102903D100306C
:1029700018BF012070470C2802F0C00205D1C02A00
:102980000AD1D84300F001007047002AEFD1002897
:10299000F7D103F001007047002AE8D1F1E782780F
:1029A000437812F030014FEAA31302F0C00001D0C7
:1029B000102904D150B1D84300F00100704702F053
:1029C0000C020C2AF6D1C028F4D100207047807880
:1029D00000F0C000A0F1C003584258417047807811
:1029E00000F0C000A0F18003584258417047807841
:1029F00000F00100704738B50146FFF787FF054634
:102A00000846FFF7A1FFFF28044607D00846FFF756
:102A1000A3FF08B10235EDB22C44E4B2204638BD24
:102A2000F8B50D460646FFF771FF04463046FFF73E
:102A300093FF07463046FFF7B2FF01466FB33319E5
:102A400002342B60E4B2B37813F00C0329D03319AD
:102A50006B603046FFF778FFFF2828751FD00444CD
:102A6000E4B209B333190234AB60E4B2B37813F0C3
:102A7000C0031FD03319EB603046FFF754FFFF2827
:102A800068750CD00444E4B2AC757378C3F3C0032A
:102A90009BB134442C61012002E02F60D3E7002079
:102AA000F8BD6B602B75DCE717B12B68AB60DDE719
:102AB000AF60DBE7EB606B75E6E72B61EBE7704738
:102AC0000B4BD3F8042522F00302C3F80425D3F8F6
:102AD000082542F00302C3F80825D3F8102522F098
:102AE0000F0242F00402C3F8102501221A60704759
:102AF00000800040014B01221A60704710800040A6
:102B00000048704748800040054B064901221A6082
:102B1000054AD2F84435013B0B60C2F8483570478E
:102B200044800040100500200080004008B5094B9B
:102B3000D3F8483528B9084B084A09487A2107F0E4
:102B400035FA084A12689A4216BF03600020012035
:102B500008BD00BF0080004043C5000021C5000043
:102B600057C5000010050020004870474C80004009
:102B7000014BD3F84C0570470080004007B5074B68
:102B8000186800909B880648ADF804300622694614
:102B900007F0ABFA03B05DF804FB00BFBDC5000051
:102BA0001405002010B5064CC378E370FDF7BEFD98
:102BB00018B112236370024810BD0223FAE700BF68
:102BC00014050020F8B51F4B440B44EAC144A4FB94
:102BD00003454A0B03FB02552E0F220F42EA051252
:102BE00043F60957750245EAD2555402A2FB072362
:102BF000801A07FB063361EB030106460F461248B5
:102C00000021B94208BFB04205D2104B104A11480A
:102C1000832107F0CBF9104840F23141714300FBAA
:102C20000711A6FB00674FF0FF3032180F4447F63C
:102C3000FF7147EB0103DE0B0027301947EB05015D
:102C4000F8BD00BFD07B6308452C1600C3C500004B
:102C500022C60000D1C500007B2DE8BD2DE9F84F4C
:102C60002A4C060104EB060C0F4629490546DCF800
:102C70000400C1F80803DCF80C00C1F84403D3E9F0
:102C800000018742034638D9A7EB000CBCF1000FC6
:102C900033DA003041F1FF31D21989464FF0000894
:102CA0004FF0000141F1000318EB020049EB030172
:102CB000FFF788FF43F6095EA0FB0E2340F2FF18E2
:102CC00018EB020A0EFB01334FF0000949EB030B2E
:102CD000104F4FEA5A2343EACB5347F8353007EBFE
:102CE000C50CA3594FEA5B22CCF8042003F5A87366
:102CF000074A42F82300BDE8F88F9F42CCD2DB1B85
:102D0000002BC9DA003041F10101C5E754C60000CB
:102D1000004002402805002000F1402000F500306E
:102D2000002382B0036003680193019B02B07047E7
:102D3000274B37B519460120D3E84F2FD2B28DF873
:102D400007209DF8072052B1BFF32F8F214B1A683F
:102D5000214B002A37D018680230400831E0C3E820
:102D6000420F002AE8D11D4B0222C3F80823BFF30B
:102D70005F8F03F58273184A1B684BB113680133E8
:102D80001360BFF35F8F4FF48270FFF7C5FF01231D
:102D90001068124C022501304008C4F80453BFF3F8
:102DA0005F8F00240C7063B11368D90706D40C4BF5
:102DB0000C4A0D484FF4867107F0F8F81368013398
:102DC000136003B030BD1A68D207C4D41868C4E7D2
:102DD000200500200441024024050020004002405C
:102DE00074C600003DC600008CC600002DE9F0410D
:102DF00080460E46FFF79CFF0746BFF35F8F084DE6
:102E0000D5F80445BFF35F8FFFF792FFC8F80000C5
:102E1000874218BFD5F804453460BDE8F08100BF93
:102E20000040024007B501A96846FFF7DFFF01989F
:102E300043F6095140F2FF120023E1FB0023500A40
:102E400040EAC350590A009A024BE3FB020103B067
:102E50005DF804FB0080841E194A002310B513603E
:102E6000184A194C00200021C2E90001174A2370BA
:102E70001360FDF791FC2378002BFCD0144BC0228B
:102E800083F824231022C3F884215A60114A0023B6
:102E9000C2F808354FF48270FFF73EFF0223C2F8F4
:102EA0004433C2F804334FF48033C2F808334FF48C
:102EB000A070C2F84833FFF72FFF0123136010BD45
:102EC00024050020280500201A0500201C050020EC
:102ED00000E100E000400240054B5A68D20642BFC4
:102EE000044A012111601022C3F88420704700BFFA
:102EF00000E100E01C050020044B1A6822B100220A
:102F00001A60034B10225A60704700BF1C05002056
:102F100000E100E008B5FFF785FF08BD1F207047FE
:102F2000F0B585B006460F46684601A9FFF75EFF7B
:102F3000019A43F6095340F2FF140025E3FB0245D2
:102F4000600A009A1B4B40EAC550690AE3FB020184
:102F500004AB63E902013A4631460020FFF77EFEEA
:102F6000154B019AD3F804359A4203D0FFF75AFF64
:102F7000CDE90201DDE902231049D1E9000112F196
:102F80003E0443F100058D4208BF84420A4A4FF4D3
:102F900080310BD34FF4A070FFF7BEFEC2F8481388
:102FA000C2F8081300F0A8FE05B0F0BDC2F8041383
:102FB000FAE700BF0080841E004002402805002080
:102FC000054B4FF48032C3F848234FF4A070C3F888
:102FD0000823FFF7A1BE00BF00400240F0B5164F26
:102FE000164E85B040F2FF140025694601A8FFF790
:102FF000FDFE009A43F6095320462946E3FB0201F1
:10300000420A42EAC1524B0A0199E7FB01231046EA
:10301000194604AB63E902013E2201460120FFF795
:103020001DFE4FF40033C6F80433D6F80435009A79
:103030009A42DAD105B0F0BD0080841E0040024003
:1030400037B504460D46FFF7EDFE02AB63E902011A
:103050002A4621460120FFF701FE034B4FF40032C0
:10306000C3F8042303B030BD00400240054B4FF4C9
:103070000032C3F848234FF4A270C3F80823FFF7C7
:103080004BBE00BF00400240004870474441024030
:10309000014B9868704700BF28050020014B0122B2
:1030A0001A7070471A05002010B51D4B1D4C1B6887
:1030B00023B10223C4F80833FFF73AFED4F80433EF
:1030C000DA0317D5184B1B68A3B14FF4A070FFF7B4
:1030D00023FEFFF7A7FE154BD3E90023994208BF53
:1030E000904207D34FF48033C4F84833C4F8083310
:1030F00000F002FE0B4AD2F804339B030ED50C4BB2
:103100001B685BB14FF4A270FFF706FE4FF400336B
:10311000C2F84833C2F8083300F010FC10BD00BFFD
:103120000441024000400240404102402805002086
:10313000444102407047D2B2FDF7A7B9FDF7B2B9DA
:10314000DBB2FDF7B6B9FDF7C7B9FDF7C6B9FDF7B4
:10315000C5B9FDF7C4B9FDF7C3B9000010B5114CEE
:10316000637C03F0FE0343F002030B2203F0FB0336
:1031700062F3C703FF210222601C637406F0D9FFCB
:10318000FE23E3700822FF230021601D237106F057
:10319000D0FF002363731423A373E3730223237408
:1031A00010BD00BF38050020024B587C00F0010024
:1031B000704700BF38050020024B5A7C60F30002C4
:1031C0005A74704738050020024B587CC0F3400009
:1031D000704700BF38050020024B5A7C60F3410263
:1031E0005A74704738050020024B587CC0F38000A9
:1031F000704700BF38050020014B587CC00870475D
:1032000038050020024B5A7C60F3C7025A7470479D
:1032100038050020014B93F9000070473805002065
:103220000048704739050020004870473D050020E0
:10323000004870473B0500200422014906F055BFB5
:1032400045050020034B00221A70BFF35F8F024830
:1032500000F030BD4A0500204C05002020B1034B92
:1032600005211868FFF76FBF704700BF6005002099
:1032700010B5104C237843B100230F4A04210120DC
:1032800000F0B7F810B10023237010BD0B480C4AB2
:10329000436803F5FA739342436005D9094B0A4A20
:1032A0000A48592106F082FE0121BDE8104000F0D5
:1032B0009DBC00BF4A0500205D3200004C05002087
:1032C00040420F00CDC70000F8C60000EBC7000069
:1032D00038B50E4C0E4D0F4BA3600023E360286001
:1032E00000F05EFC2B6820601A780B4B1B6803EB28
:1032F000421303F5C07301256360084B204629463D
:103300001D7000F073FC284638BD00BF4C0500203E
:103310006005002071320000080000204A050020EE
:1033200010B5084B1B7803F0FF0433B1042902D019
:1033300028B1FFF787FF204610BD0124FBE70446B4
:10334000F9E700BF4A05002008B5084B1B68834217
:1033500008D0074B1B782BB1064B074A07489E2124
:1033600006F024FEBDE80840FFF76CBF60050020B2
:103370004A0500209BC700000CC70000EBC70000F7
:1033800008B5064B1B782BB9054B064A0648A52104
:1033900006F00CFEBDE80840FFF754BF4A050020C8
:1033A00085C7000034C70000EBC7000008B5084B14
:1033B0001B68834208D0074B1B782BB1064B074A8A
:1033C0000748AD2106F0F2FDFFF73CFF012008BDE4
:1033D000600500204A0500209BC700005FC7000071
:1033E000EBC700007047FDF7D5B970477047FEF78F
:1033F0006BB9FEF7B3B910B49DF8044001945DF8C1
:10340000044BFEF7DDB9FEF717BAFEF775BA704741
:103410000020704708B5034A034B0448812106F099
:10342000C5FD00BF57C80000A4C80000E1C80000E7
:10343000F8B51C4D1C4E2F460123D5E84F2F12F036
:10344000FF0F07D0BFF32F8F174A13780133DBB27A
:103450001370F8BDC5E8423F002AEED1BFF35F8F7D
:10346000124B34781A78032A98BF18785A7894BF88
:10347000C0B20420824238BF58780D4B1B78E4B2AA
:1034800038BFC0B233B10B4B1A78824202D01870E9
:1034900000F008F9BFF35F8F00233B703378A3423D
:1034A000CAD1D6E7A9050020AA050020640500209E
:1034B00066050020A80500202DE9F04F2F4D304E65
:1034C00085B00123D5E84F2F12F0FF0F09D0BFF3CD
:1034D0002F8F2B4A13780133DBB2137005B0BDE890
:1034E000F08FC5E84B3FBBF1000FEBD1BFF35F8F0F
:1034F0003378244F244C97F80080DBB2019300F01E
:103500004FFB04F1400982466168A368039102936E
:1035100000F048FB227803995A4509D91B4A029BBF
:10352000121A1A44504600F03FFB08B994F800B054
:1035300020344C45E8D1164A14785C4538BF5C46C7
:10354000A0450AD03C7094B9124FFFF74CFF3B786E
:103550003C7000F00BFC7B787C70BFF35F8F074AF8
:10356000002313703378019A9342AAD1B6E7FFF78C
:103570003CFFFDF709F900F0E1FBEEE7AB050020A9
:10358000AC050020AD05002068050020D4FEFFFF3B
:10359000660500206405002008B500F0C9FB094A53
:1035A00000231370084A1370084A1370084A1370F6
:1035B000084A1370084A137082F82030074A1370C3
:1035C000537008BDA9050020AB050020A805002008
:1035D00066050020AD050020680500206405002078
:1035E000064B10B504461870BFF35F8FFFF764FFFA
:1035F000FFF71EFF0CB9024B1C7010BD66050020C2
:10360000A805002000F0C8BB00F0C8BB012808B521
:1036100006D9074B074A084840F2A51106F0C6FC38
:10362000064B185C884234BF0020012008BD00BF53
:103630008FC800006EC80000E1C8000064050020CB
:1036400000F0C0BB08B5074B1B783BB1064B5A785E
:10365000042A01D1FFF7DEFE04225A70BDE80840BB
:10366000FFF7E6BEAD0500206405002008B5074B56
:103670001B783BB1064B1A78042A01D1FFF7CAFE2A
:1036800004221A70BDE80840FFF7D2BEAD05002045
:1036900064050020014BFF221A707047AE05002020
:1036A000FFF79EBF13B50446FEF7DAFD0D4B50B190
:1036B0001A78FF2A07D12046FDF7A6FE02B0BDE822
:1036C0001040FEF7E3BDD3E84F2FD2B28DF80720AC
:1036D0009DF80720C3E8424F002AF4D10028EDD11D
:1036E00002B010BDAE05002070470000064AFF235F
:1036F000D2E84F0FC2E8413F0029F9D1C0B2FF28FC
:1037000001D0FDF781BE7047AE050020024B18784E
:10371000FF3818BF01207047AE05002008B500F043
:103720005EF810F11D0F0FDB10F1090F0EDB0A28F8
:103730000EDD1E280EDD32280EDD4728B4BF6FF0E7
:1037400001006FF0020008BD0320FCE70220FAE749
:103750000120F8E70020F6E74FF0FF30F3E710B55F
:103760000446FFF7DBFF2044C0B210BD10B504468D
:10377000FFF7D4FF201AC0B210BD10B50446FFF702
:10378000CDFF201AC0B210BD10B50446FFF7C6FF2A
:10379000201AC0B210BD000010B5054A054C002328
:1037A000012019198133934281F88000F9D110BDAD
:1037B0007F030200843E002010B5074C002340F236
:1037C000FF3103EBC310204490F880201AB9013375
:1037D0008B42F6D1104610BD843E00207047142065
:1037E000704700000E4A002310B513600D4A137095
:1037F000FFF765F9FFF748FC0446FFF781F90A4B2C
:103800004FF40052C3F87845C3F87C05C3F804258B
:10381000D3F8042842F48042C3F8042810BD00BF46
:10382000B0050020B405002000F0014008B5054BAC
:1038300000221A70FFF744F9FFF766F9BDE8084067
:10384000FFF7CCBBC005002008B5FFF753F9BDE872
:103850000840FFF70BBC000010B50446FFF784F9E1
:10386000054B064AC3F88045C3F88405C3F84829C8
:1038700001229A6010BD00BF00F001400CF0014031
:103880002DE9F84F054628B9254B264A26489D21A3
:1038900006F08CFB254B1B7803F0FF0883B3FFF782
:1038A00067F9234B234A5C68041B1078994610B3D0
:1038B000214B1968CB1711F5800AA4FB016743F16E
:1038C000000B11F5800F04FB0377ACBF0021012131
:1038D000B1EBD77F4FEADB7C15D01AEB0C004BF134
:1038E000000149104FEA3000301A52465B4667EB40
:1038F000010107F0FFFFD9F800301C44201A2860AE
:103900004046BDE8F88F1AEB0C004BF1000149105E
:103910004FEA3000801952465B467941E9E700BF23
:1039200043C5000036C900005BC90000C005002087
:10393000B8050020B4050020B005002073B501A82B
:10394000FFF7F4F8002849D0274E284C284DFFF700
:103950009FFB3378009023B322686168801A019A34
:10396000521A121A00F500134FEA935349BF02206E
:1039700002EB530293FBF0F0121A92FBF3F22B7856
:103980001C494BB30B68C3EBC3039B1848BF043BF4
:103990004FF0080258BF043393FBF2F30B6001238E
:1039A0002B7000233370BFF35F8F02AB13E903006A
:1039B00084E80300BFF35F8F01233370FFF7A4F89F
:1039C0002B782068002B14BF4FF080514FF48001FA
:1039D000FFF736FB02B070BD0A60E0E7FFF794F82E
:1039E000FFF7FCFAF6E700BFC0050020B80500208D
:1039F000B4050020B005002082B00122D0E84F3F7E
:103A0000DBB28DF807309DF8073023B1BFF32F8F5D
:103A1000002002B07047C0E8432F002BEED1BFF367
:103A20005F8F0120F5E70000094A82B0D2E84F3FDE
:103A3000DBB28DF807309DF807300133DBB2C2E806
:103A4000413F0029F2D1BFF35F8F02B0704700BF42
:103A5000C20500202DE9F34190B12E4FDFF8C8C018
:103A60004FF0000EB8463978CDF804E0C9B262468E
:103A700052E8004F54B1A04230D004F11002F7E7F1
:103A8000254B264AB821264806F090FA234698F896
:103A900000508D42E7D1984222D103690193DCF8AE
:103AA0000030834224D1019B002B15BF0025012546
:103AB00001260026019B42E800310029D3D1FFF7FF
:103AC000B3FF0CB3034603F1100252E8002F9342F8
:103AD00014D1144B114A4FF48471D4E70346D6E74E
:103AE000BFF32F8F3CB904F0010002B0BDE8F081B4
:103AF00000252E46DEE700252E46E4E703F1100000
:103B000040E800210029DED1002E0CBF2C46012404
:103B1000E9E700BFC205002041CA0000B2C90000A9
:103B200051CA0000B8CA0000C40500202DE9F041C8
:103B30000F4E104FB04635780F483C68EDB2FFF796
:103B40005BFF38B164B9FFF73BFABFF35F8F0A4BF5
:103B500000221A7098F80030AB42ECD1BDE8F08139
:103B60003B6820686168A342EFD1FFF7D9F9ECE721
:103B7000C2050020C4050020C3050020044A00231C
:103B80001360044A1370044A1370044A1370704798
:103B9000C4050020C3050020C1050020C205002087
:103BA000FFF7B8B9FFF7BAB9101A08440028D4BF14
:103BB000002001207047000010B5044630B9084BC2
:103BC000084A094840F2331106F0F0F9FFF7A2F96C
:103BD000D4E900321344181A20EAE07010BD00BF87
:103BE00041CA0000BFC9000051CA0000F8B5044630
:103BF00030B9284B284A40F24711284806F0D6F938
:103C0000836823B9264B244A4FF4A471F5E729B100
:103C1000FFF784F96368013B034463602046FFF7C4
:103C200019FF08B1FFF782FF1E4E1F4DB4463078D2
:103C30002946C0B251E8003F9C4204D11B4B164AB2
:103C400040F26311D9E75BB1D4E900273A441F6819
:103C5000D21B5F68D21B002A02DB03F11001E9E7E7
:103C60009CF800208242E2D1A34204D1104B0A4AC0
:103C70004FF4BE71C1E7236141E80043002BD6D168
:103C8000FFF7D2FE2B68A34203D1BDE8F840FFF74F
:103C90004DBFF8BD41CA0000E9C9000051CA00008B
:103CA00004CA0000C2050020C40500201ECA00008E
:103CB0002FCA000008B5FFF7CDFE18B1BDE80840D7
:103CC000FFF734BF08BD000070B5094B09491E68F5
:103CD0000D460A783346D2B223B92C789442F8D1F3
:103CE000184670BD834201D01B69F5E70123F4E754
:103CF000C4050020C205002038B50B48FFF77CFE44
:103D000070B10A4B186830B1D0E90245FFF7A2FE46
:103D10000CB12846A047BFF35F8F034B00221A70F7
:103D2000BDE83840FFF702BFC1050020C4050020F0
:103D3000014B00221A707047C805002008B5074BD8
:103D40001A782AB1064B074A07483B2106F02EF99C
:103D500001221A70BDE80840FFF774BCC8050020B6
:103D600025CB0000CECA000033CB000008B5064BBF
:103D70001A782AB9054B064A0648432106F016F977
:103D800000221A7008BD00BFC805002026CB000025
:103D9000EDCA000033CB00007047000008B5054BAA
:103DA0001B782BB9044B054A0548512106F0FEF853
:103DB000012008BDC805002026CB00000BCB000069
:103DC00033CB00004FF0FF3070471FB50021039048
:103DD00001AA44F20100CDE9011100F003F805B099
:103DE0005DF804FB72B6094B1B68DB0700D500BE0B
:103DF000BFF34F8F0649074BCA6802F4E0621343D2
:103E0000CB60BFF34F8F00BFFDE700BFF0ED00E0D8
:103E100000ED00E00400FA05024B4FF43C6043F073
:103E200001031847A0CB000038B50C4B0C4C4FF4E5
:103E30000032C3F8802001254FF48033C4F84833A2
:103E4000C4F808336560FFF7E7FF064BA560002460
:103E50001C60FFF7E1FF044B1C7038BD00E100E07F
:103E600000100140E8060020D9060020F8B51F49DF
:103E70001F4B0025C1F84051C1F84451C1F84851C9
:103E8000C1F84C51C1F80051C1F804511B684BB343
:103E9000D1F8044517490968641A24F07F442F4675
:103EA0001A68A24209D8A41A15441A7CDE691AB10C
:103EB0001F74D3E905209047AEB90F4B0F4A19780C
:103EC00013788B4205D10133DBB2022B08BF0023EC
:103ED000137012780A4B43F822500A4B4FF48012A9
:103EE000C3F80021F8BD3346DAE700BF00100140F7
:103EF000EC060020E8060020E4060020E50600208D
:103F0000DC06002000E100E02DE9F74F9E4A9F49C2
:103F1000137809789E4D99423CD00133DBB2022BD5
:103F200008BF002313709B4912789B4B0F6853F80E
:103F300022003B1823F07F4300220B602B681646BB
:103F40001446944613B942B12B6006E019688142C9
:103F50000ED902B12B60091A19604FF001082B68C5
:103F6000DFF83CA200930027BEB9DFF83CB260E066
:103F7000401A0C44D968C3F800C0D3F81CE031B132
:103F80003A1922F07F42C3E90121DE611E46012277
:103F90007346D7E70026B046E1E73446F6697D4A26
:103FA00063681268DFF804C2A068991A21F07F41A3
:103FB000614500F2A58001442160012222742A6833
:103FC0000023C4E90133E361002A40F0A2802C60A1
:103FD000CAE75A1C9BF80210D2B291428BF800201B
:103FE00004BF00228BF80020182202FB03B32A68CA
:103FF00019799C68022974D003297ED0012918D12F
:10400000217CB1B9DA6862601A69A2605A69E2601B
:104010009B69A361614B1B78002BC0D06160BEE738
:104020009C4200F093809946DB69002BF8D1002375
:1040300023749BF800309BF801209A42C9D12B6869
:104040002FB9009A934202D1B8F1000F43D0002B50
:1040500079D0D3F800A0524D4E4BD5F804751C68AA
:10406000DFF84C813E1B98F8003026F07F4603367F
:104070009BB94FF48033C5F84433C5F80433494B3A
:104080004FF400324FF00109C3F880211A60C5F8DF
:104090000090FFF7C1FE88F80090B2452CBF544451
:1040A000A41924F07F44C5F84045D5F80435DB1B3E
:1040B00023F07F43E41B033324F07F44A3420AD957
:1040C000D5F80435C5F84035FFF7A6FE354B4FF45B
:1040D0000032C3F80021314B00221A7003B0BDE852
:1040E000F08F13469146A0E71174D2690123002A8C
:1040F000FAD1002B9DD02A609BE700231946F6E7F2
:10410000D31A23F07F43834234BFC31A00232360B2
:1041100053E721681368994213D8591A1160E26174
:1041200055E7091AD8691A4638B103461868884213
:10413000F7D3401A1860184613462160E061DC612D
:1041400012E71346F2E7FFF76FFEC4E74C450DD1C7
:10415000D3692B6053B90F4801920121CAF80810A6
:1041600003600E4B1970FFF757FE019AE16923684F
:10417000C9F81C1011B1086803440B602B689A42FF
:1041800018BF012753E700BFE4060020E506002022
:10419000EC060020E8060020DC060020D8060020FF
:1041A0000010014000E100E0CC050020FEFF7F0090
:1041B000D906002043681B6818470000024B5B6863
:1041C00003B11847704700BFF0060020020600F058
:1041D0000F034CBF02480348DB001844704700BF80
:1041E000FC0600204407002008B5FFF7EFFF016040
:1041F00009B9416008BD4B681B684360FAE70000DD
:10420000024B01465A681868104700BF4407002057
:104210000378052B0CD1084AD2F88434D2F88024D4
:1042200012F0FF0F04D1054ADBB2052B08BF104680
:10423000034B1B68184700BF00700240C0CB000052
:10424000F0060020012806D002D3022805D07047CE
:104250000348FFF7DDBF0348FBE70348F9E700BF6A
:10426000B4CB0000B8CB0000BCCB0000FFF7D0BF40
:104270000148FFF7CDBF00BFC4CB000038B5831E97
:10428000DBB2062B98BF194A194C98BFD25C237831
:10429000A3F10203DBB288BF0022062B9ABF1349A9
:1042A000CB5C00239342054603D0A2B1114804F031
:1042B00077F8022D01D0082D10D101232278022A8F
:1042C00001D0082A0CD101229A4202D053B104F045
:1042D000D9FF257038BD04F08DF8EAE70023EDE73B
:1042E0000022F1E704F0C4FFF3E700BFA6CB000013
:1042F000950700200C0000202DE9F04F87B006AC98
:10430000002644F8106D05468946924698466B682B
:1043100000225F68294601232046B84740B98DF83E
:104320000600049004460746BE4203D805202AE052
:104330000136ECE76B680DF10602D3F804B02946AC
:10434000012304A8D8476B680DF10702D3F804B025
:104350002946012304A8D8479DF807304B459DF80E
:10436000063015D1544511D1109A136088F80030E9
:1043700088F801906A68023B5468294608F10202F5
:1043800004A8A047002007B0BDE8F08F0134E4B2D4
:104390006A68023BD2F804B02946002204A8D84734
:1043A0009DF806301F44BFE72DE9F74305462E4828
:1043B00004F07EFF044600283AD12C4B18702C4B99
:1043C00018602C4B0146186048222B4805F0B1FEBE
:1043D00048222146294805F0ACFE294B65BB294AF5
:1043E0001D72C3E900251A680AB9264A1A6000201E
:1043F00004F014F818B1852801D0FFF7E6FC224E2E
:1044000096F80890002506F10908ECB2A14504D9F8
:1044100004EB440414EB080423D102A90B2301F894
:10442000043D1948FFF7C6FE044608B104F00EFE2D
:10443000204603B0BDE8F08395E8070083E8070055
:10444000D1E73146E05CFFF7CFFE6378FAB29342E2
:1044500005D9A3781344DC4207F10107F1D10135F6
:10446000D3E70027F1E700BF6D4200009507002069
:104470008C07002090070020FC0600204407002045
:10448000F0060020B9470000E0CB000010B504F0B2
:10449000B1FE08B9082010BD04F0B4FE044600289F
:1044A000F8D1044803F0D5FF0028F4D0FFF78DFCC5
:1044B0002046F0E7B0CB000004F0D2BD05F082BA90
:1044C0004FF08043D3F83824920702D50348FFF712
:1044D0009FBED3F83824D107F4D47047C5CB000071
:1044E00007B502A8822300F8043DFFF791FE03B050
:1044F0005DF804FB2DE9F341037A00F1090403257B
:10450000064615FB03452746AC4231D01CB394F850
:104510000180002106E0E05CFFF758FE03680131EE
:10452000002B36D1CBB2984503D9A3780B44DC429B
:10453000F1D10334E8E73146E85CFFF755FE6A78CD
:104540005FFA88F39A4205D9AA781344DD4208F14C
:104550000108F0D10134337AE5B2AB4203D905EB5F
:1045600045057D1901D10C4B05E04FF00008E6E749
:104570000024F0E713681A68002AFBD102A91E6024
:104580000B2301F8043D3046FFF714FE02B0BDE8EE
:10459000F0811120FAE700BF8C070020024B187849
:1045A000003018BF012070479407002000F00F036F
:1045B000072B10B5044604D804F09AFF204605F0F6
:1045C000BFFA2046BDE8104005F06EBA05F03ABAD1
:1045D000014B1868704700BF8C07002070B50A4B6C
:1045E0001B687BB11E7A0022D5B2B54201D31B688D
:1045F000F6E7013202EB42041C44A4798442F3D171
:1046000001B10D70184670BD8C0700201146FFF7F0
:10461000D1BD08B500F00F03082B07D8FFF7D6FD72
:10462000006818B1BDE80840FFF7C4BD102008BD00
:1046300038B5054B05461C6804B938BD29462046E7
:10464000FFF7B8FD2368F6E78C07002038B5074B65
:1046500005461C680CB9062038BD29462046FFF7E0
:10466000A9FD0628F8D12368F3E700BF8C070020D6
:1046700038B504460D4604F05CFE48B1054B1B7886
:10468000022B05D129462046BDE8384004F054BE2F
:10469000082038BD9507002038B504460D4604F0C3
:1046A00048FE48B1054B1B78022B05D12946204610
:1046B000BDE8384004F0B2BE082038BD95070020A0
:1046C000F8B543689B6805460C46164613B92EB1EB
:1046D000072002E098470628F9D0F8BD2B7AA342BC
:1046E00013D9093504EB44042C446778F3B29F4294
:1046F00001D80020F1E762789A4208D9A219A3787C
:10470000D05CFFF753FF0136F0E77378FFDE00233C
:104710001B78FBE770B54368DB6805460C4603B1C0
:1047200098472B7AA34213D9093504EB44042C444F
:1047300000256678EBB29E4200D870BD62789A423E
:1047400009D96219A378D05C05F07CF90135F1E74D
:1047500000235B78FFDE00231B78FBE743681B69BF
:1047600003B118471846704770B5084B1C6804B968
:1047700070BD267A0025E9B2B14201D32368F5E77E
:1047800000222046FFF79CFF0135F4E78C0700204C
:1047900070B5084B1C6804B970BD267A0025E9B2D3
:1047A000B14201D32368F5E72046FFF7B3FF013597
:1047B000F5E700BF8C07002038B50478092C0546C2
:1047C00020D023D8032C00F0BC8012D8012C00F09C
:1047D000A68040F28D800320FFF750FD0220FFF7F6
:1047E000EDFC2846FFF724FF2846BDE83840FFF7D8
:1047F00007BD052CF8D0C0F0B380062C00F0BF80B8
:10480000082C13D12046FFF7D9FC95E0812C0ED05F
:1048100005D80F2CF6D0802C44D00A2CF1E7832C3D
:104820004CD021D3842C53D0852CDDD038BD5E48AC
:10483000FFF7E6FC5C48FFF7FBFE0D20FFF7BEFC30
:10484000FFF7A6FF00F051FF584B1B6853B9584BB8
:10485000187A00F0010004F0A3FC0120BDE8384004
:10486000FFF70CBD0120F4E7FFF792FF05F08CF88D
:104870000020FFF703FD4F48FFF7DAFE4D48FFF732
:10488000BFFC0E20FFF79AFC4B4B1B78023BDBB2C0
:10489000062BCBD8494AD35C002BC7D0BDE83840A3
:1048A00003F0A8BD444B1B78062B05D0072B01D085
:1048B000052BBBD10220D1E70820CFE73E4B1B7868
:1048C000032BB3D105F098F80028AFD00420C5E73A
:1048D000394B1B78032B05D105F08EF810B104205D
:1048E000FFF7CCFC04F098FC00289FD00620B5E729
:1048F000314B1B78032B01D0082B02D13048FFF736
:104900005BFF0020FFF75AFC284B1C68002C8DD061
:1049100020462946FFF74EFC23685C68F6E7FFF760
:1049200037FF00F0D9FE0220FFF7A8FC2046FFF772
:1049300045FC2846FFF764FC2846BDE83840FFF7F1
:1049400077BE1D4B1B78082B06D10220FFF796FC83
:1049500004F0A2FC0320EAE70520FFF78FFCF9E74B
:104960000320FFF72BFC1748FFF74AFC1548FFF719
:104970005FFE114B1B78062B9CD107206EE78078D9
:10498000FFF724FC294643680068984700283FF455
:104990004DAFA87800F00F03013B062B3FF646AF62
:1049A000BDE8384004F07EBDC6CB00009007002073
:1049B000F0060020C7CB000095070020A6CB000022
:1049C000C8CB0000C9CB0000C36903B118477047CA
:1049D000036800221A845A62DA62C3E91E22C3E91C
:1049E000202203F134025A6770474360CA699A4231
:1049F00027BF8A69026001F12802026026BF0B67A7
:104A0000CB618B6700207047F0B5BE4D0C7A2C70DF
:104A1000046840F21E36B44200F0CD8200F2DD8020
:104A2000B4F5407F00F0428270D8B4F53C7F00F0CE
:104A3000008226D840F2ED26B44200F0DF810AD889
:104A4000002C00F0C981B4F53B7F00F0CD8100233C
:104A500003601846C7E140F2EE26B44200F0DC8164
:104A600040F2EF26B442F2D100240AB1067916557D
:104A7000013402269C420671C0F0DC814FF43C7385
:104A8000AFE140F2F326B44200F0EC81B4F53D7F93
:104A900015D240F2F126B44200F0D78140F2F2265E
:104AA000B442D4D100240AB1067916550134002647
:104AB0009C420671C0F0D78140F2F32391E140F2AD
:104AC000FA26B44200F0E58140F2FB26B442BED1A2
:104AD00000240AB1067916558B4E0F7A3678DFF826
:104AE0002CC2B74204F1010440F2558301F10907D9
:104AF00006EB460607EB060E9C42BE5DCCF800E0D6
:104B00000671C0F0D4814FF440736AE140F20D3673
:104B1000B44200F00A8239D840F20636B44200F0BE
:104B2000E0811DD840F20136B44200F0CB8140F262
:104B30000236B4428BD100240AB106791655734E61
:104B40000F7D36683678B74204F1010440F0E28107
:104B500002269C420671C0F0C58140F2063340E156
:104B600040F20736B44200F0C881B4F5427F7FF4CA
:104B70006EAF00240AB10679165501340026A3420F
:104B8000067100F2EC8140F216332AE140F216364B
:104B9000B44200F0E38108D840F20E36B44200F08F
:104BA000D08140F20F36B442E1E7B4F5477F00F020
:104BB000EA8100F2F48140F21B36B4427FF447AF41
:104BC00000240AB106791655013424269C42067148
:104BD000C0F0DA814FF4477303E1B4F54C7F00F085
:104BE00054826BD840F22636B44200F01C8232D890
:104BF00040F22336B44200F0FD81B4F5497F16D26D
:104C000040F21F36B44200F0E28140F22236B44254
:104C10007FF41DAF00240AB106791655013424260D
:104C20009C420671C0F0E78140F22333D9E000F0E6
:104C3000ED8140F22536B4427FF409AF00240AB179
:104C40000679165501348E7D06719C42C0F0EC81C8
:104C500040F22633C5E040F22B36B44200F0FC812E
:104C6000B4F54B7F16D240F22936B44200F0E7810A
:104C700040F22A36B4427FF4EAAE00240AB1067943
:104C80001655013402269C420671C0F0E68140F2BE
:104C90002B33A6E000F0EC8140F22F36B4427FF4D3
:104CA000D6AE00240AB106791655013424269C425A
:104CB0000671C0F0EB814FF44C7392E0B4F5537F72
:104CC00000F0288248D840F23336B44200F0F68132
:104CD000B4F54D7F1CD240F23136B44200F0E18190
:104CE00040F23236B4427FF4B2AE00240AB1067903
:104CF000165501348E7D06719C42C0F0E08140F271
:104D000033336EE098070020970700209C070020AF
:104D100040F24736B44200F0F081B4F5527F7FF4A0
:104D200096AE00240AB106791655AF4EAF4F3668DD
:104D30003F7896F801C0BC4504F1010440F230828E
:104D400096F802C03E449C4216F80C600671C0F012
:104D5000E2814FF4537344E040F25D36B44200F018
:104D6000F98115D840F25136B44204D040F256369B
:104D7000B4427FF46CAE00240AB1067916550134B2
:104D80004026A342067100F2E68140F25D3328E03E
:104D900040F26336B44200F0F481B4F55A7F00F07B
:104DA000F08140F25E36B4427FF451AE00240AB185
:104DB000067916558C4E0F7D36683678B74204F169
:104DC000010440F0D4810E6A9C4236780671C0F02E
:104DD000D98140F2633304E00824047123B94FF40D
:104DE0003B7303600120F0BD0AB1047914700B24F9
:104DF000012B04710ED840F2ED23F2E700240AB132
:104E00000679165501340E7D06719C4205D340F299
:104E1000EE23E6E70124F2E700240AB106791655ED
:104E2000013402269C420671FFF41FAE40F2EF23CC
:104E3000D7E700240AB106791655013402269C42B0
:104E4000067103D340F2F123CBE700240AB10679BF
:104E5000165501344E7E06719C42FFF424AE40F29A
:104E6000F223BEE700240AB106791655604E0027EA
:104E7000013437705E4E37782E78B74202D340F255
:104E80007333AEE70926A342067103D840F2FA2332
:104E9000A7E700240AB106791655013404269C427E
:104EA0000671FFF416AE40F2FB239AE700240AB124
:104EB00006791655013400269C42067103D340F250
:104EC00001338EE700240AB106791655464E36683E
:104ED0000134767806719C42FFF42EAE40F2023324
:104EE0007FE700240AB106791655013402269C4258
:104EF000067103D340F2073373E700240AB1067941
:104F0000165501344E7E06719C42FFF433AE4FF4C9
:104F1000427366E78F7DB7427FF430AE0A269C422B
:104F2000067103D340F20D335BE700240AB1067922
:104F30001655013400269C42067103D340F20E330D
:104F40004FE700240AB106791655013400269C4229
:104F50000671FFF40FAE40F20F3342E700240AB1AE
:104F600006791655204E0F7D36683678B74204F123
:104F7000010440F0A88005269C420671FFF421AE92
:104F800040F21B332DE700240AB10679165501348F
:104F900000269C42067103D340F21D3321E7002412
:104FA0000AB106791655013410269C42067103D3C6
:104FB00040F21E3315E700240AB106791655013474
:104FC00001269C42067103D340F21F3309E70024F7
:104FD0000AB106791655013405269C420671FFF484
:104FE0001AAE40F22233FCE69C070020990700200D
:104FF0009707002000240AB10679165501340126CE
:105000009C42067103D34FF44973EAE600240AB1C7
:1050100006791655013403269C420671FFF40FAE43
:1050200040F22533DDE600240AB106791655013435
:1050300004269C42067103D340F22933D1E60024B2
:105040000AB106791655013424269C420671FFF4F4
:1050500015AE40F22A33C4E600240AB1067916558B
:10506000013402269C42067103D34FF44B73B8E619
:1050700000240AB106791655013405269C420671B2
:10508000FFF410AE40F22F33ABE600240AB10679EC
:105090001655013406269C42067103D340F2313383
:1050A0009FE600240AB10679165501340E7D06717B
:1050B0009C42FFF41BAE40F2323392E600240AB168
:1050C000067916550134374E36687778364E377084
:1050D000364E00273770354E3778334E3678B74224
:1050E00004D3334F3E7801363E70C3E60726A34211
:1050F000067103D840F2473373E600240AB10679FB
:105100001655013405269C420671FFF40BAE4FF490
:10511000527366E600240AB106791655214E0F7DBA
:1051200036683678B74204F1010407D103269C4261
:105130000671FFF421AE40F2513352E68F7DB74243
:105140007FF41EAE02269C420671FFF415AE40F2BB
:10515000563346E600240AB1067916550134002676
:105160009C420671FFF423AE40F25E3339E68F7D38
:10517000B7420BD100269C42067103D34FF45A73F9
:105180002FE600240AB1067916550134074F3E7800
:1051900001363E709FE70023CCF800301B78FFDE1D
:1051A0000023FBE79C0700209607002099070020BA
:1051B000970700204360CA699A420ED38A69026049
:1051C0008A69C8691A448A610A6FC01A1A44C86198
:1051D00000300A6718BF0120704701F12802026001
:1051E0008B670020704710B5044658B90868037BE8
:1051F000202B09D100F10E010722183004F075FFB1
:10520000204610BD0320FCE70620FAE7037A012BB5
:1052100008D9427B012A00F10C0306D9827B134492
:105220005878704700235B78FFDE00231B78FBE78C
:105230002DE9F0430B7889B005460E460E2B17D8A2
:10524000DFE803F00A080A0A160CA1161608160A67
:105250000A0A0A00FFF7BCFB002427E04A78D109BC
:105260004FEA521330D013F0030303D0012B21D0A7
:1052700006241BE002F01F02012AF9D1B478062CA3
:10528000F6D105A8039300F0ADFC03ABF2783179B9
:105290000093074603462846FFF72EF8052805D059
:1052A000039A3946701C00F03BFA0446204609B0C8
:1052B000BDE8F083B378212BDAD1B6F80720072AAE
:1052C000D6D101681831EDE7012BD1D1B378076849
:1052D000202B36D0222BCBD1B6F80730002BC7D1EC
:1052E00097F82030B6F803403C8403F0010304F043
:1052F0000104A342B0D0A4B2002C0CBF03210221B0
:10530000FFF762FB002CA7D12B7A012B40F2D6804D
:105310006B7B05F10C02002B00F0D280AB7BD05CE4
:1053200004F014FA2846FFF771FF04F00FFA07F1B2
:1053300034037C62FC62C7E91E44C7E920447B67F2
:10534000B4E7B6F80720072A92D13B73B6F80730C6
:105350000024DBB27B7320460E37CDE9057307943A
:1053600000F0B4FC204605A9FFF782F9044630B9E5
:10537000554B03A9CDE9033500F0C0F904460020E0
:1053800000F0A6FC92E7037A002B00F09B80837A62
:1053900000F10901002B00F09380C27AB3788A5C97
:1053A0009A423FF459AF1B06F4780AD524B1032C76
:1053B0000CBF0024032479E701212846FFF704FBF2
:1053C00074E7012C3FF448AF04D3032C3FF444AFFF
:1053D00003246BE70668FFF719FF3C4B059306F1C2
:1053E0000C030693B76A8046B7B9F36FF46AB767E0
:1053F000C6E91F736CB106F12C0103C906F1240341
:1054000083E80300F76205A94046FFF745F9044623
:1054100000E074620021D0E7D6F88490706A4F45AE
:1054200028BF4F4606F134043A46214604F05DFE9B
:10543000F36F3B44C6F88030A9EB0703B367F36A08
:1054400000223C44F2677467002B35D006F12C092A
:1054500099E8030006F1240787E803001446F26286
:10546000B36F706A1BB9746A002CCCD1D2E7B26AF0
:10547000716F9A4216D804F038FEB36AB26FC6F85C
:105480008030D21AB267726F1A44726700212846C0
:10549000FFF79AFAF36A7BB199E8030087E8030003
:1054A000F462DDE71A4604F020FEB26FB36AF267D9
:1054B0009B1AB362736A13447362D4E76378FFDEA6
:1054C0001B78FCE75B78FAE7E7510000B551000074
:1054D0001FB503681B8CDC0714D5037A012B13D985
:1054E000437B00F10C0493B1837BE05C9306CDE930
:1054F00001120CBF0123002301A90393FFF7B8F8A1
:1055000004B010BD0820FBE700235B78FFDE1B78AA
:10551000FCE70368D3F88000704700002DE9F341F1
:105520000468238CDB0706468846174631D50020E1
:1055300000F0CCFBA56FBDB1BD4228BF3D46616FF9
:105540002A46404604F0D1FDA36FC4F880505B1B8F
:10555000A367636F2B4463670024002000F0B8FB4F
:10556000204602B0BDE8F081636A83B9C4E90987C7
:105570003046FFF74BFE0C34074B0194694600930D
:10558000FFF78AF8002814BF04469224E5E71124A7
:10559000E3E70824E4E700BFEB4900000020704780
:1055A0002DE9F04F87B04B68029281460C465BB9FB
:1055B0000B681B681B683BB98D682DB9C0E90055A5
:1055C000284607B0BDE8F08F03F068FFE768029B4C
:1055D0009F4228BF1F464FF0000804F11003834686
:1055E0000197464601250393019B002B2DD0A3680C
:1055F000019A616893429A4628BF924641B3524647
:105600000BEB060004F071FD00236360A268E36801
:105610000199A2EB0A02A3EB0A03A1EB0A01A26023
:10562000E360019156440ABBB8F1000F38D02268FC
:10563000126812682260002B30D02368D3B96360EF
:105640001EB1029BB34288BF0025C9E900B6B7E787
:10565000002BDBD0216803984B680BEB0602D3F8D4
:1056600004805346C0474FF00108CFE7002B08BF26
:105670000025B9E70DF1180A00234AF8083D216812
:105680004B685B6800221F4650460123B84708B9A3
:105690002061A9E7A3680133A360F0E71D46A3E7F3
:1056A000002BCAD145469FE7084B1A7882420CD09E
:1056B000052818BF064A187018BF137805481CBF84
:1056C00023F002031370FFF777B87047AC07002090
:1056D000C8070020F0CB000008B50020FEF766FFE9
:1056E0008020BDE80840FEF761BF08B50020FEF746
:1056F0006DFF8020BDE80840FEF768BF38B505465D
:105700000C4603F071FFA84203BFD4E90001034B2C
:10571000C3E90001102008BF002038BDCC070020DD
:105720007FB5C38893421D4628BF154693420E4657
:10573000144620D9802003F0F7FDB4FBF0F303FBFF
:105740001040B0FA80F0400903900020CDE90165D7
:1057500000F0BCFA01A98020FEF78AFF044620B9B8
:1057600006498020FFF7CAFF0446002000F0B0FA87
:10577000204604B070BD0020E6E700BF24CC000046
:105780002DE9F04F0C78062C87B00E4600F0FC8116
:1057900020D8022C3DD003D8012C32D00624EDE1D4
:1057A000032C32D0052CF9D10DF10D00B04D8DF840
:1057B0000C4003F0ADFE00232B609DF80D3003F08C
:1057C0001F02032A00F28481DFE812F02D001D0180
:1057D000790165000D2C00F0C58107D80B2C18D07D
:1057E0000C2CDBD10020FFF75FFF12E00E2C00F045
:1057F000C981852CD2D19F4B1B78032BCED104209D
:1058000000E00320FFF750FFC8E79B4800F083FA51
:1058100008B90024B2E1994B01221A60BFF36F8FDF
:10582000BFF34F8FF5E7C3F34116A6BBDB099DF825
:105830000E1000F0A280062916D0082900F09080F2
:1058400049BB8F4C0222204604F073FC237843F0BE
:10585000010222708B4A1278910744BF43F0030380
:105860002370022286490EE09DF81030022B16D0DC
:10587000032B65D0012B0ED1BDF81330002B00F0A7
:105880006E81814912220DF10D00FFF749FF044698
:10589000062C40F0258103A8FEF7D8FE0DE1BDF8E7
:1058A0001370002F00F05B81092F28BF0927FEF736
:1058B0008FFE4FF009080446B14654BB704C734943
:1058C0003A46204604F011FC2671A4F80280FEF747
:1058D00065FE18B1E37943F02003E371FEF778FE2B
:1058E0006B4BC3E900049F60BDF81320DA60002011
:1058F00000F0ECF967498020FEF7CEFE044620B99F
:1059000065498020FFF7FAFE0446002000F0E0F928
:10591000BEE7CDF804904FF0000A63680022D3F888
:1059200004B02146012301A8D84730B9237A1E4488
:105930002368D044F6B21C68BFE70AF1010AECE71D
:10594000BDF81330002B00F00A81BDF811109DF84E
:105950000F0000F095F9014600289CD0027892E7EC
:10596000444A1278052A03D1454A1370012279E787
:10597000042A90D1424B1E70F8E703290FD0092961
:105980002BD0012987D1BDF80F30012B83D1FEF731
:1059900005FE60B13B4A137823F002030FE0BDF827
:1059A0000F30012B7FF477AFFEF7F8FD18B90F2405
:1059B00003F017FEE2E0334A137843F0020313705A
:1059C0002B68002B00F0CB8003F00EFE044600286D
:1059D0007FF41FAF03F0C2FDD0E0264B1B78043BE1
:1059E000012B01D90824E3E79DF80F302BB9FEF70E
:1059F000CFFE0420FFF758FEE2E7012B56D1FEF759
:105A0000B3FE0520F6E701A99DF81100FEF7E6FDBB
:105A1000074608B91024CBE703AA9DF80410FEF747
:105A2000F5FD062804465BD19DF80D2012F0600FAD
:105A3000BED1104B9DF8041018789DF80E30D60991
:105A40002CD073B10A2BB3D10528CBD13846FEF741
:105A500085FE0B49324608700DF10D00FFF760FE20
:105A60002BE00528BED106490B800222F4E700BFD7
:105A7000CC070020AC070020D40700205C70024057
:105A8000D8070020C807002010CC0000F1CB000090
:105A9000B00700202CCC000024CC00000B2B87D1B9
:105AA00005289FD1BDF80F30FF2B01D907247FE7D0
:105AB0009DF80F203846FEF703FE044610E09DF8DF
:105AC0001100020706D19DF80D3013F0600F0BD0C6
:105AD00006246DE703A9FEF79CFD06280446F2D0D4
